{
  "_format": "hh-sol-artifact-1",
  "contractName": "ERC725Y",
  "sourceName": "@erc725/smart-contracts-v8/contracts/ERC725Y.sol",
  "abi": [
    {
      "inputs": [
        {
          "internalType": "address",
          "name": "initialOwner",
          "type": "address"
        }
      ],
      "stateMutability": "payable",
      "type": "constructor"
    },
    {
      "inputs": [],
      "name": "ERC725Y_DataKeysValuesEmptyArray",
      "type": "error"
    },
    {
      "inputs": [],
      "name": "ERC725Y_DataKeysValuesLengthMismatch",
      "type": "error"
    },
    {
      "inputs": [],
      "name": "ERC725Y_MsgValueDisallowed",
      "type": "error"
    },
    {
      "inputs": [],
      "name": "OwnableCannotSetZeroAddressAsOwner",
      "type": "error"
    },
    {
      "anonymous": false,
      "inputs": [
        {
          "indexed": true,
          "internalType": "bytes32",
          "name": "dataKey",
          "type": "bytes32"
        },
        {
          "indexed": false,
          "internalType": "bytes",
          "name": "dataValue",
          "type": "bytes"
        }
      ],
      "name": "DataChanged",
      "type": "event"
    },
    {
      "anonymous": false,
      "inputs": [
        {
          "indexed": true,
          "internalType": "address",
          "name": "previousOwner",
          "type": "address"
        },
        {
          "indexed": true,
          "internalType": "address",
          "name": "newOwner",
          "type": "address"
        }
      ],
      "name": "OwnershipTransferred",
      "type": "event"
    },
    {
      "inputs": [
        {
          "internalType": "bytes32",
          "name": "dataKey",
          "type": "bytes32"
        }
      ],
      "name": "getData",
      "outputs": [
        {
          "internalType": "bytes",
          "name": "dataValue",
          "type": "bytes"
        }
      ],
      "stateMutability": "view",
      "type": "function"
    },
    {
      "inputs": [
        {
          "internalType": "bytes32[]",
          "name": "dataKeys",
          "type": "bytes32[]"
        }
      ],
      "name": "getDataBatch",
      "outputs": [
        {
          "internalType": "bytes[]",
          "name": "dataValues",
          "type": "bytes[]"
        }
      ],
      "stateMutability": "view",
      "type": "function"
    },
    {
      "inputs": [],
      "name": "owner",
      "outputs": [
        {
          "internalType": "address",
          "name": "",
          "type": "address"
        }
      ],
      "stateMutability": "view",
      "type": "function"
    },
    {
      "inputs": [],
      "name": "renounceOwnership",
      "outputs": [],
      "stateMutability": "nonpayable",
      "type": "function"
    },
    {
      "inputs": [
        {
          "internalType": "bytes32",
          "name": "dataKey",
          "type": "bytes32"
        },
        {
          "internalType": "bytes",
          "name": "dataValue",
          "type": "bytes"
        }
      ],
      "name": "setData",
      "outputs": [],
      "stateMutability": "payable",
      "type": "function"
    },
    {
      "inputs": [
        {
          "internalType": "bytes32[]",
          "name": "dataKeys",
          "type": "bytes32[]"
        },
        {
          "internalType": "bytes[]",
          "name": "dataValues",
          "type": "bytes[]"
        }
      ],
      "name": "setDataBatch",
      "outputs": [],
      "stateMutability": "payable",
      "type": "function"
    },
    {
      "inputs": [
        {
          "internalType": "bytes4",
          "name": "interfaceId",
          "type": "bytes4"
        }
      ],
      "name": "supportsInterface",
      "outputs": [
        {
          "internalType": "bool",
          "name": "",
          "type": "bool"
        }
      ],
      "stateMutability": "view",
      "type": "function"
    },
    {
      "inputs": [
        {
          "internalType": "address",
          "name": "newOwner",
          "type": "address"
        }
      ],
      "name": "transferOwnership",
      "outputs": [],
      "stateMutability": "nonpayable",
      "type": "function"
    }
  ],
  "bytecode": "0x6080601f610a6038819003918201601f19168301916001600160401b038311848410176100885780849260209460405283398101031261008357516001600160a01b038116808203610083576100543361009e565b15610071576100629061009e565b60405161097a90816100e68239f35b6040516306b620db60e21b8152600490fd5b600080fd5b634e487b7160e01b600052604160045260246000fd5b600080546001600160a01b039283166001600160a01b03198216811783559216907f8be0079c531659141344cd1fd0a4f28419497f9722a3daafe3b4186f6b6457e09080a356fe608060408181526004908136101561001657600080fd5b600092833560e01c90816301ffc9a7146104b45750806354f6127f1461047c578063715018a61461041f5780637f23690c146103c65780638da5cb5b1461039e5780639790242114610263578063dedff9c6146101485763f2fde38b1461007c57600080fd5b34610144576020366003190112610144576001600160a01b03823581811693919290849003610140576100ad6108ec565b83156100ee57505082546001600160a01b0319811683178455167f8be0079c531659141344cd1fd0a4f28419497f9722a3daafe3b4186f6b6457e08380a380f35b906020608492519162461bcd60e51b8352820152602660248201527f4f776e61626c653a206e6577206f776e657220697320746865207a65726f206160448201526564647265737360d01b6064820152fd5b8480fd5b8280fd5b5091903461025f576020908160031936011261014457803567ffffffffffffffff811161025b5761017b913691016105f4565b92835191610188836105dc565b9261019583519485610548565b8084526101a4601f19916105dc565b0181855b82811061024b57505050835b85518110156101ef57806101d36101cd60019389610702565b51610652565b6101dd8287610702565b526101e88186610702565b50016101b4565b50828483519280840190808552835180925280868601968360051b870101940192955b82871061021f5785850386f35b90919293828061023b600193603f198a82030186528851610508565b9601920196019592919092610212565b60608282880101520182906101a8565b8380fd5b5080fd5b5080839160031936011261025f5767ffffffffffffffff92803584811161025b5761029190369083016105f4565b91602480359580871161039a573660238801121561039a57868401356102b6816105dc565b976102c38551998a610548565b81895260209380858b019360051b8301019336851161039657818301935b85851061036c57505050505050506102f76108ec565b3461035f57825185510361035257825115610345575050815b8151811015610341578061033b61032960019385610702565b516103348388610702565b5190610766565b01610310565b8280f35b516397da5f9560e01b8152fd5b51633bcc897960e01b8152fd5b5163f36ba73760e01b8152fd5b84358281116103925787916103878392863691890101610580565b8152019401936102e1565b8b80fd5b8980fd5b8580fd5b83823461025f578160031936011261025f57905490516001600160a01b039091168152602090f35b5080839160031936011261025f5760243567ffffffffffffffff8111610144576103f39036908501610580565b906103fc6108ec565b34610410575061040d919235610766565b80f35b5163f36ba73760e01b81528390fd5b83346104795780600319360112610479576104386108ec565b80546001600160a01b03198116825581906001600160a01b03167f8be0079c531659141344cd1fd0a4f28419497f9722a3daafe3b4186f6b6457e08280a380f35b80fd5b508234610479576020366003190112610479575061049d6104b09235610652565b9051918291602083526020830190610508565b0390f35b84908434610144576020366003190112610144573563ffffffff60e01b811680910361014457602092506318a6a9a560e21b81149081156104f7575b5015158152f35b6301ffc9a760e01b149050836104f0565b919082519283825260005b848110610534575050826000602080949584010152601f8019910116010190565b602081830181015184830182015201610513565b90601f8019910116810190811067ffffffffffffffff82111761056a57604052565b634e487b7160e01b600052604160045260246000fd5b81601f820112156105d75780359067ffffffffffffffff821161056a57604051926105b5601f8401601f191660200185610548565b828452602083830101116105d757816000926020809301838601378301015290565b600080fd5b67ffffffffffffffff811161056a5760051b60200190565b81601f820112156105d75780359161060b836105dc565b926106196040519485610548565b808452602092838086019260051b8201019283116105d7578301905b828210610643575050505090565b81358152908301908301610635565b600090815260016020908082526040832092604051938492828254926106778461072c565b808752938381169081156106de57506001146106a1575b5050505061069e92500382610548565b90565b815285812095935091905b8183106106c657505061069e93508201013880808061068e565b855487840185015294850194869450918301916106ac565b935050505061069e94925060ff191682840152151560051b8201013880808061068e565b80518210156107165760209160051b010190565b634e487b7160e01b600052603260045260246000fd5b90600182811c9216801561075c575b602083101461074657565b634e487b7160e01b600052602260045260246000fd5b91607f169161073b565b9190916000928184526001602090808252604086209083519067ffffffffffffffff82116108d857610798835461072c565b601f8111610892575b508397601f83116001146108125782917fece574603820d07bc9b91f2a932baadf4628aabcb8afba49776529c14a6104b2979899839293610807575b501b916000199060031b1c19161790555b610802604051928284938452830190610508565b0390a2565b8701519250386107dd565b97601f929192198216848a52858a20995b81811061087d575090827fece574603820d07bc9b91f2a932baadf4628aabcb8afba49776529c14a6104b298999a9210610864575b5050811b0190556107ee565b86015160001960f88460031b161c191690553880610858565b878301518b5599840199918601918601610823565b838952848920601f840160051c8101918685106108ce575b601f0160051c019082905b8281106108c35750506107a1565b8a81550182906108b5565b90915081906108aa565b634e487b7160e01b88526041600452602488fd5b6000546001600160a01b0316330361090057565b606460405162461bcd60e51b815260206004820152602060248201527f4f776e61626c653a2063616c6c6572206973206e6f7420746865206f776e65726044820152fdfea26469706673582212204a9484d40d0bb8adcf447d365fe2568c05961437313cc1512568918559a1324e64736f6c63430008140033",
  "linkReferences": {},
  "deployedLinkReferences": {}
}