{"contracts/standalone/LSP8LoogiesEnhanced.sol":{"LSP8LoogiesEnhanced":{"abi":[{"inputs":[{"internalType":"address","name":"contractOwner","type":"address"}],"stateMutability":"nonpayable","type":"constructor"},{"inputs":[],"name":"ERC725Y_DataKeysValuesEmptyArray","type":"error"},{"inputs":[],"name":"ERC725Y_DataKeysValuesLengthMismatch","type":"error"},{"inputs":[],"name":"ERC725Y_MsgValueDisallowed","type":"error"},{"inputs":[{"internalType":"bytes","name":"storedData","type":"bytes"}],"name":"InvalidExtensionAddress","type":"error"},{"inputs":[{"internalType":"bytes","name":"data","type":"bytes"}],"name":"InvalidFunctionSelector","type":"error"},{"inputs":[],"name":"LSP4TokenNameNotEditable","type":"error"},{"inputs":[],"name":"LSP4TokenSymbolNotEditable","type":"error"},{"inputs":[],"name":"LSP4TokenTypeNotEditable","type":"error"},{"inputs":[{"internalType":"uint256","name":"callIndex","type":"uint256"}],"name":"LSP8BatchCallFailed","type":"error"},{"inputs":[],"name":"LSP8CannotSendToAddressZero","type":"error"},{"inputs":[],"name":"LSP8CannotUseAddressZeroAsOperator","type":"error"},{"inputs":[],"name":"LSP8InvalidTransferBatch","type":"error"},{"inputs":[{"internalType":"bytes32","name":"tokenId","type":"bytes32"}],"name":"LSP8NonExistentTokenId","type":"error"},{"inputs":[{"internalType":"address","name":"operator","type":"address"},{"internalType":"bytes32","name":"tokenId","type":"bytes32"}],"name":"LSP8NonExistingOperator","type":"error"},{"inputs":[{"internalType":"bytes32","name":"tokenId","type":"bytes32"},{"internalType":"address","name":"caller","type":"address"}],"name":"LSP8NotTokenOperator","type":"error"},{"inputs":[{"internalType":"address","name":"tokenOwner","type":"address"},{"internalType":"bytes32","name":"tokenId","type":"bytes32"},{"internalType":"address","name":"caller","type":"address"}],"name":"LSP8NotTokenOwner","type":"error"},{"inputs":[{"internalType":"address","name":"tokenReceiver","type":"address"}],"name":"LSP8NotifyTokenReceiverContractMissingLSP1Interface","type":"error"},{"inputs":[{"internalType":"address","name":"tokenReceiver","type":"address"}],"name":"LSP8NotifyTokenReceiverIsEOA","type":"error"},{"inputs":[{"internalType":"address","name":"operator","type":"address"},{"internalType":"bytes32","name":"tokenId","type":"bytes32"}],"name":"LSP8OperatorAlreadyAuthorized","type":"error"},{"inputs":[{"internalType":"address","name":"caller","type":"address"},{"internalType":"address","name":"tokenOwner","type":"address"},{"internalType":"bytes32","name":"tokenId","type":"bytes32"}],"name":"LSP8RevokeOperatorNotAuthorized","type":"error"},{"inputs":[],"name":"LSP8TokenContractCannotHoldValue","type":"error"},{"inputs":[{"internalType":"bytes32","name":"tokenId","type":"bytes32"}],"name":"LSP8TokenIdAlreadyMinted","type":"error"},{"inputs":[],"name":"LSP8TokenIdFormatNotEditable","type":"error"},{"inputs":[],"name":"LSP8TokenIdsDataEmptyArray","type":"error"},{"inputs":[],"name":"LSP8TokenIdsDataLengthMismatch","type":"error"},{"inputs":[],"name":"LSP8TokenOwnerCannotBeOperator","type":"error"},{"inputs":[{"internalType":"bytes32","name":"tokenId","type":"bytes32"},{"internalType":"address","name":"oldOwner","type":"address"},{"internalType":"address","name":"newOwner","type":"address"}],"name":"LSP8TokenOwnerChanged","type":"error"},{"inputs":[{"internalType":"bytes4","name":"functionSelector","type":"bytes4"}],"name":"NoExtensionFoundForFunctionSelector","type":"error"},{"inputs":[],"name":"OwnableCannotSetZeroAddressAsOwner","type":"error"},{"anonymous":false,"inputs":[{"indexed":true,"internalType":"bytes32","name":"dataKey","type":"bytes32"},{"indexed":false,"internalType":"bytes","name":"dataValue","type":"bytes"}],"name":"DataChanged","type":"event"},{"anonymous":false,"inputs":[{"indexed":true,"internalType":"address","name":"operator","type":"address"},{"indexed":true,"internalType":"address","name":"tokenOwner","type":"address"},{"indexed":true,"internalType":"bytes32","name":"tokenId","type":"bytes32"},{"indexed":false,"internalType":"bytes","name":"operatorNotificationData","type":"bytes"}],"name":"OperatorAuthorizationChanged","type":"event"},{"anonymous":false,"inputs":[{"indexed":true,"internalType":"address","name":"operator","type":"address"},{"indexed":true,"internalType":"address","name":"tokenOwner","type":"address"},{"indexed":true,"internalType":"bytes32","name":"tokenId","type":"bytes32"},{"indexed":false,"internalType":"bool","name":"notified","type":"bool"},{"indexed":false,"internalType":"bytes","name":"operatorNotificationData","type":"bytes"}],"name":"OperatorRevoked","type":"event"},{"anonymous":false,"inputs":[{"indexed":true,"internalType":"address","name":"previousOwner","type":"address"},{"indexed":true,"internalType":"address","name":"newOwner","type":"address"}],"name":"OwnershipTransferred","type":"event"},{"anonymous":false,"inputs":[{"indexed":true,"internalType":"bytes32","name":"tokenId","type":"bytes32"},{"indexed":true,"internalType":"bytes32","name":"dataKey","type":"bytes32"},{"indexed":false,"internalType":"bytes","name":"dataValue","type":"bytes"}],"name":"TokenIdDataChanged","type":"event"},{"anonymous":false,"inputs":[{"indexed":false,"internalType":"address","name":"operator","type":"address"},{"indexed":true,"internalType":"address","name":"from","type":"address"},{"indexed":true,"internalType":"address","name":"to","type":"address"},{"indexed":true,"internalType":"bytes32","name":"tokenId","type":"bytes32"},{"indexed":false,"internalType":"bool","name":"force","type":"bool"},{"indexed":false,"internalType":"bytes","name":"data","type":"bytes"}],"name":"Transfer","type":"event"},{"anonymous":false,"inputs":[{"indexed":true,"internalType":"bytes32","name":"tokenId","type":"bytes32"},{"indexed":false,"internalType":"string","name":"username","type":"string"}],"name":"UsernameUpdated","type":"event"},{"stateMutability":"payable","type":"fallback"},{"inputs":[],"name":"MAX_MINTABLE","outputs":[{"internalType":"uint256","name":"","type":"uint256"}],"stateMutability":"view","type":"function"},{"inputs":[],"name":"MAX_SUPPLY","outputs":[{"internalType":"uint256","name":"","type":"uint256"}],"stateMutability":"view","type":"function"},{"inputs":[],"name":"PRICE","outputs":[{"internalType":"uint256","name":"","type":"uint256"}],"stateMutability":"view","type":"function"},{"inputs":[{"internalType":"address","name":"operator","type":"address"},{"internalType":"bytes32","name":"tokenId","type":"bytes32"},{"internalType":"bytes","name":"operatorNotificationData","type":"bytes"}],"name":"authorizeOperator","outputs":[],"stateMutability":"nonpayable","type":"function"},{"inputs":[{"internalType":"address","name":"tokenOwner","type":"address"}],"name":"balanceOf","outputs":[{"internalType":"uint256","name":"","type":"uint256"}],"stateMutability":"view","type":"function"},{"inputs":[{"internalType":"bytes[]","name":"data","type":"bytes[]"}],"name":"batchCalls","outputs":[{"internalType":"bytes[]","name":"results","type":"bytes[]"}],"stateMutability":"nonpayable","type":"function"},{"inputs":[{"internalType":"bytes32","name":"value","type":"bytes32"}],"name":"bytes32ToHexString","outputs":[{"internalType":"string","name":"","type":"string"}],"stateMutability":"pure","type":"function"},{"inputs":[{"internalType":"bytes32","name":"","type":"bytes32"}],"name":"chubbiness","outputs":[{"internalType":"uint256","name":"","type":"uint256"}],"stateMutability":"view","type":"function"},{"inputs":[{"internalType":"bytes32","name":"","type":"bytes32"}],"name":"color","outputs":[{"internalType":"bytes3","name":"","type":"bytes3"}],"stateMutability":"view","type":"function"},{"inputs":[],"name":"generateCollectionSVG","outputs":[{"internalType":"string","name":"svg","type":"string"},{"internalType":"string","name":"encodedSvg","type":"string"}],"stateMutability":"pure","type":"function"},{"inputs":[{"internalType":"bytes32","name":"tokenId","type":"bytes32"},{"internalType":"string","name":"loogieType","type":"string"},{"internalType":"bytes3","name":"colorValue","type":"bytes3"},{"internalType":"uint256","name":"chubbinessValue","type":"uint256"},{"internalType":"uint256","name":"mouthLengthValue","type":"uint256"},{"internalType":"string","name":"username","type":"string"},{"internalType":"bool","name":"isUP","type":"bool"}],"name":"generateLoogieSVG","outputs":[{"internalType":"string","name":"","type":"string"}],"stateMutability":"view","type":"function"},{"inputs":[{"internalType":"uint256","name":"limit","type":"uint256"}],"name":"getCollectionMetadataBytes","outputs":[{"internalType":"bytes","name":"raw","type":"bytes"},{"internalType":"bytes","name":"encoded","type":"bytes"}],"stateMutability":"pure","type":"function"},{"inputs":[{"internalType":"bytes32","name":"dataKey","type":"bytes32"}],"name":"getData","outputs":[{"internalType":"bytes","name":"dataValue","type":"bytes"}],"stateMutability":"view","type":"function"},{"inputs":[{"internalType":"bytes32[]","name":"dataKeys","type":"bytes32[]"}],"name":"getDataBatch","outputs":[{"internalType":"bytes[]","name":"dataValues","type":"bytes[]"}],"stateMutability":"view","type":"function"},{"inputs":[{"internalType":"bytes32[]","name":"tokenIds","type":"bytes32[]"},{"internalType":"bytes32[]","name":"dataKeys","type":"bytes32[]"}],"name":"getDataBatchForTokenIds","outputs":[{"internalType":"bytes[]","name":"dataValues","type":"bytes[]"}],"stateMutability":"view","type":"function"},{"inputs":[{"internalType":"bytes32","name":"tokenId","type":"bytes32"},{"internalType":"bytes32","name":"dataKey","type":"bytes32"}],"name":"getDataForTokenId","outputs":[{"internalType":"bytes","name":"dataValue","type":"bytes"}],"stateMutability":"view","type":"function"},{"inputs":[{"internalType":"bytes32","name":"tokenId","type":"bytes32"},{"internalType":"string","name":"loogieTypeValue","type":"string"},{"internalType":"bytes3","name":"colorBytes","type":"bytes3"},{"internalType":"uint256","name":"chubbiness","type":"uint256"},{"internalType":"uint256","name":"mouthLength","type":"uint256"},{"internalType":"string","name":"username","type":"string"},{"internalType":"bool","name":"isUP","type":"bool"}],"name":"getMetadataBytes","outputs":[{"internalType":"bytes","name":"raw","type":"bytes"},{"internalType":"bytes","name":"encoded","type":"bytes"}],"stateMutability":"view","type":"function"},{"inputs":[{"internalType":"bytes32","name":"tokenId","type":"bytes32"}],"name":"getOperatorsOf","outputs":[{"internalType":"address[]","name":"","type":"address[]"}],"stateMutability":"view","type":"function"},{"inputs":[{"internalType":"address","name":"operator","type":"address"},{"internalType":"bytes32","name":"tokenId","type":"bytes32"}],"name":"isOperatorFor","outputs":[{"internalType":"bool","name":"","type":"bool"}],"stateMutability":"view","type":"function"},{"inputs":[{"internalType":"bytes32","name":"","type":"bytes32"}],"name":"loogieTypes","outputs":[{"internalType":"string","name":"","type":"string"}],"stateMutability":"view","type":"function"},{"inputs":[],"name":"mintItem","outputs":[{"internalType":"bytes32","name":"","type":"bytes32"}],"stateMutability":"payable","type":"function"},{"inputs":[{"internalType":"string","name":"_username","type":"string"}],"name":"mintItemWithUsername","outputs":[{"internalType":"bytes32","name":"","type":"bytes32"}],"stateMutability":"payable","type":"function"},{"inputs":[{"internalType":"address","name":"","type":"address"}],"name":"mintedPerAddress","outputs":[{"internalType":"uint256","name":"","type":"uint256"}],"stateMutability":"view","type":"function"},{"inputs":[{"internalType":"bytes32","name":"","type":"bytes32"}],"name":"mouthLength","outputs":[{"internalType":"uint256","name":"","type":"uint256"}],"stateMutability":"view","type":"function"},{"inputs":[],"name":"owner","outputs":[{"internalType":"address","name":"","type":"address"}],"stateMutability":"view","type":"function"},{"inputs":[],"name":"publicMintSet","outputs":[{"internalType":"bool","name":"","type":"bool"}],"stateMutability":"view","type":"function"},{"inputs":[],"name":"recipient","outputs":[{"internalType":"address payable","name":"","type":"address"}],"stateMutability":"view","type":"function"},{"inputs":[],"name":"renounceOwnership","outputs":[],"stateMutability":"nonpayable","type":"function"},{"inputs":[{"internalType":"address","name":"operator","type":"address"},{"internalType":"bytes32","name":"tokenId","type":"bytes32"},{"internalType":"bool","name":"notify","type":"bool"},{"internalType":"bytes","name":"operatorNotificationData","type":"bytes"}],"name":"revokeOperator","outputs":[],"stateMutability":"nonpayable","type":"function"},{"inputs":[{"internalType":"bytes32","name":"dataKey","type":"bytes32"},{"internalType":"bytes","name":"dataValue","type":"bytes"}],"name":"setData","outputs":[],"stateMutability":"payable","type":"function"},{"inputs":[{"internalType":"bytes32[]","name":"dataKeys","type":"bytes32[]"},{"internalType":"bytes[]","name":"dataValues","type":"bytes[]"}],"name":"setDataBatch","outputs":[],"stateMutability":"payable","type":"function"},{"inputs":[{"internalType":"bytes32[]","name":"tokenIds","type":"bytes32[]"},{"internalType":"bytes32[]","name":"dataKeys","type":"bytes32[]"},{"internalType":"bytes[]","name":"dataValues","type":"bytes[]"}],"name":"setDataBatchForTokenIds","outputs":[],"stateMutability":"nonpayable","type":"function"},{"inputs":[{"internalType":"bytes32","name":"tokenId","type":"bytes32"},{"internalType":"bytes32","name":"dataKey","type":"bytes32"},{"internalType":"bytes","name":"dataValue","type":"bytes"}],"name":"setDataForTokenId","outputs":[],"stateMutability":"nonpayable","type":"function"},{"inputs":[{"internalType":"bool","name":"_publicMintSet","type":"bool"}],"name":"setMintStatus","outputs":[],"stateMutability":"nonpayable","type":"function"},{"inputs":[{"internalType":"bytes32","name":"tokenId","type":"bytes32"},{"internalType":"string","name":"username","type":"string"}],"name":"setUsername","outputs":[],"stateMutability":"nonpayable","type":"function"},{"inputs":[{"internalType":"bytes4","name":"interfaceId","type":"bytes4"}],"name":"supportsInterface","outputs":[{"internalType":"bool","name":"","type":"bool"}],"stateMutability":"view","type":"function"},{"inputs":[{"internalType":"bytes3","name":"_color","type":"bytes3"}],"name":"toColorHexString","outputs":[{"internalType":"string","name":"","type":"string"}],"stateMutability":"pure","type":"function"},{"inputs":[{"internalType":"address","name":"tokenOwner","type":"address"}],"name":"tokenIdsOf","outputs":[{"internalType":"bytes32[]","name":"","type":"bytes32[]"}],"stateMutability":"view","type":"function"},{"inputs":[{"internalType":"bytes32","name":"tokenId","type":"bytes32"}],"name":"tokenOwnerOf","outputs":[{"internalType":"address","name":"","type":"address"}],"stateMutability":"view","type":"function"},{"inputs":[],"name":"tokenSupplyCap","outputs":[{"internalType":"uint256","name":"","type":"uint256"}],"stateMutability":"view","type":"function"},{"inputs":[],"name":"totalSupply","outputs":[{"internalType":"uint256","name":"","type":"uint256"}],"stateMutability":"view","type":"function"},{"inputs":[{"internalType":"address","name":"from","type":"address"},{"internalType":"address","name":"to","type":"address"},{"internalType":"bytes32","name":"tokenId","type":"bytes32"},{"internalType":"bool","name":"force","type":"bool"},{"internalType":"bytes","name":"data","type":"bytes"}],"name":"transfer","outputs":[],"stateMutability":"nonpayable","type":"function"},{"inputs":[{"internalType":"address[]","name":"from","type":"address[]"},{"internalType":"address[]","name":"to","type":"address[]"},{"internalType":"bytes32[]","name":"tokenId","type":"bytes32[]"},{"internalType":"bool[]","name":"force","type":"bool[]"},{"internalType":"bytes[]","name":"data","type":"bytes[]"}],"name":"transferBatch","outputs":[],"stateMutability":"nonpayable","type":"function"},{"inputs":[{"internalType":"address","name":"newOwner","type":"address"}],"name":"transferOwnership","outputs":[],"stateMutability":"nonpayable","type":"function"},{"inputs":[{"internalType":"uint256","name":"_i","type":"uint256"}],"name":"uint2str","outputs":[{"internalType":"string","name":"_uintAsString","type":"string"}],"stateMutability":"pure","type":"function"},{"inputs":[{"internalType":"bytes32","name":"","type":"bytes32"}],"name":"upUsernames","outputs":[{"internalType":"string","name":"","type":"string"}],"stateMutability":"view","type":"function"},{"inputs":[{"internalType":"address payable","name":"_to","type":"address"}],"name":"withdraw","outputs":[],"stateMutability":"nonpayable","type":"function"},{"stateMutability":"payable","type":"receive"}],"evm":{"bytecode":{"linkReferences":{},"object":"608080604052346200168257602081620078f08038038091620000238285620016a3565b8339810103126200168257516001600160a01b038116808203620016825760405191620000508362001687565b600c83526b4c756b736f4c6f6f6769657360a01b602084015260405191620000788362001687565b60078352664c554b4c4f4f4760c81b602084015262000097336200182a565b156200167057620000a8906200182a565b604051620000b68162001687565b60048152632936598960e21b60208201527feafec4d89fa9619884b60000a4d96624a38f7ac2d8d9a604ecf07c12c77e480c908160005260016020526040600020815160018060401b038111620007ae576200011f816200011884546200175a565b84620017b0565b6020601f82116001146200160b579181600080516020620078d08339815191529492620001709460009162001441575b508160011b916000199060031b1c19161790555b60405191829182620017fc565b0390a26000805160206200787083398151915260005260016020528151917f2a367ae1ac46d529739aa27ac74856f860e70af05d3642d18ba60fd5d32a069a6001600160401b038411620007ae57620001d684620001cf83546200175a565b83620017b0565b602093601f8111600114620015965791620002379183600080516020620078d0833981519152946000805160206200787083398151915296976000916200144157508160011b916000199060031b1c191617905560405191829182620017fc565b0390a27f2f0a68ab07768e01943a599e73362a0e17a63a72e94dd2e384d2c1d4db932756600081905260016020528151917f83b322886c7b7e25779e5d38e06e005c9e7aba1e1267ce9210cf24e31833535a6001600160401b038411620007ae57620002a984620001cf83546200175a565b602093601f811160011462001531579081620002fa9392600080516020620078d083398151915295966000916200144157508160011b916000199060031b1c191617905560405191829182620017fc565b0390a26040516002602082015260208152620003168162001687565b7fe0261fa95db2eb3b5439bd033cda66d56b96f92f243a8228fd87550ed7bdfdb3600081905260016020528151917ff73b01b344a9bb3b96525b0cb731f6b14cde20ce6cecea8459266944490b411f6001600160401b038411620007ae576200038584620001cf83546200175a565b602093601f8111600114620014cc579081620003d69392600080516020620078d083398151915295966000916200144157508160011b916000199060031b1c191617905560405191829182620017fc565b0390a26040516000602082015260208152620003f28162001687565b7ff675e9361af1c1664c1868cfa3eb97672d6b1a513aa5b81dec34c9ee330e818d600081905260016020528151917f01f5eb934e794ddcc86b89a579078013860f8fe92140885511742594f219ad0b6001600160401b038411620007ae576200046184620001cf83546200175a565b602093601f81116001146200144d579081620004b29392600080516020620078d083398151915295966000916200144157508160011b916000199060031b1c191617905560405191829182620017fc565b0390a26001600755600e805460ff1916905560405160c081016001600160401b03811182821017620007ae576040526005815260005b60a081106200142f5750604051620005008162001687565b600581526433b932b2b760d91b60208201526200051d82620016e3565b526200052981620016e3565b50604051620005388162001687565b6004815263626c756560e01b60208201526200055482620016f1565b526200056081620016f1565b506040516200056f8162001687565b60038152621c995960ea1b60208201526200058a8262001702565b52620005968162001702565b50604051620005a58162001687565b6006815265707572706c6560d01b6020820152620005c38262001713565b52620005cf8162001713565b50604051620005de8162001687565b600681526579656c6c6f7760d01b6020820152620005fc8262001724565b52620006088162001724565b50604051620006178162001687565b6005815264747970657360d81b602082015260405160005b600581106200141b575080600660056025930152208054906000815581620013a5575b5050906000915b8151831015620007da5760405160208183516200067a818385880162001735565b81016006815203019020928251811015620007c45760208160051b840101519380549068010000000000000000821015620007ae5760018201808255821015620007c45760005260206000200184519460018060401b038611620007ae57620006e9866200011884546200175a565b602090601f87116001146200073957958091620007259596976000926200072d575b50508160011b916000199060031b1c191617905562001871565b919062000659565b0151905038806200070b565b908260005260206000209160005b601f198916811062000795575091879160019362000725979899601f198116106200077b575b505050811b01905562001871565b015160001960f88460031b161c191690553880806200076d565b9192602060018192868501518155019401920162000747565b634e487b7160e01b600052604160045260246000fd5b634e487b7160e01b600052603260045260246000fd5b604080517f3c73766720786d6c6e733d22687474703a2f2f7777772e77332e6f72672f323060208201527f30302f737667222077696474683d2234303022206865696768743d2234303022918101919091527f2076696577426f783d223020302034303020343030223e00000000000000000060608201527f3c726563742077696474683d2234303022206865696768743d2234303022206660778201526b34b6361e911198181811179f60a11b6097820152711e3334b63a32b91034b21e9133b637bb911f60711b60a38201527f3c6665476175737369616e426c757220737464446576696174696f6e3d22332e60b5820152711a91103932b9bab63a1e9131363ab911179f60711b60d58201527f3c6665436f6d706f7369746520696e3d22536f7572636547726170686963222060e78201527f696e323d22626c757222206f70657261746f723d226f766572222f3e00000000610107820152681e17b334b63a32b91f60b91b6101238201527f3c7465787420783d223230302220793d223138302220666f6e742d66616d696c61012c8201527f793d22417269616c2220666f6e742d73697a653d223430222066696c6c3d222361014c8201527f6666662220746578742d616e63686f723d226d6964646c65222066696c74657261016c8201527f3d2275726c2823676c6f7729223e4c756b736f4c6f6f676965733c2f7465787461018c820152601f60f91b6101ac8201527f3c7465787420783d223230302220793d223233302220666f6e742d66616d696c6101ad8201527f793d22417269616c2220666f6e742d73697a653d223230222066696c6c3d22236101cd8201527f3066302220746578742d616e63686f723d226d6964646c65222066696c7465726101ed8201527f3d2275726c2823676c6f7729223e4d61747269782045646974696f6e3c2f746561020d820152623c3a1f60e91b61022d820152651e17b9bb339f60d11b61023082015261021681526102408101906001600160401b03821181831017620007ae5762000ad59160405262001897565b62000fa8604860405162000b33603a8260208101967f646174613a696d6167652f7376672b786d6c3b6261736536342c000000000000885262000b22815180926020868601910162001735565b810103601a810184520182620016a3565b62000f0361027e62000b4462001a3b565b9262000b4f62001a3b565b6040519788926020840196707b224c5350344d65746164617461223a7b60781b88527f226e616d65223a224c756b736f4c6f6f67696573222c0000000000000000000060318601527f226465736372697074696f6e223a224c756b736f4c6f6f67696573206172652060478601527f4c554b534f205374616e64617264204c535038204e465473207769746820612060678601526d039b6b4b632901d149027b7363c960951b608786015262000c1081518092602060958901910162001735565b8401907f204c756b736f4c6f6f6769657320617661696c61626c65206f6e20612070726960958301527f636520637572766520696e6372656173696e6720302e3225207769746820656160b58301527f6368206e6577206d696e742e2054686973204d61747269782045646974696f6e60d58301527f20666561747572657320616e696d61746564204d61747269782d7374796c652060f58301527f64657369676e7320666f722065616368204c6f6f6769652e222c0000000000006101158301527f226c696e6b73223a5b7b227469746c65223a2257656273697465222c2275726c61012f8301527f223a2268747470733a2f2f6c756b736f6c6f6f676965732e76657263656c2e6161014f8301527f7070227d2c7b227469746c65223a2254776974746572222c2275726c223a226861016f8301527f747470733a2f2f747769747465722e636f6d2f6c756b736f4c6f6f676965732261018f830152621f574b60ea1b6101af8301527f22696d61676573223a5b5b7b227769647468223a3430302c22686569676874226101b28301526b1d1a181816113ab936111d1160a11b6101d2830152519062000dcd826101de948584019062001735565b019064089f57574b60da1b908201526d2261747472696275746573223a5b60901b6101e38201527f7b226b6579223a2274797065222c2276616c7565223a22636f6c6c656374696f6101f18201527f6e222c2274797065223a22737472696e67227d2c0000000000000000000000006102118201527f7b226b6579223a226c696d6974222c2276616c7565223a00000000000000000061022582015281519062000e828261023c946020868501910162001735565b710b089d1e5c19488e889b9d5b58995c889f4b60721b9101918201527f7b226b6579223a226375727665222c2276616c7565223a3130302e322c22747961024e8201526c7065223a226e756d626572227d60981b61026e820152605d60f81b61027b820152617d7d60f01b61027c8201520361025e810187520185620016a3565b62000f0e8462001897565b906040519462000f68603d8760208101957f646174613a6170706c69636174696f6e2f6a736f6e3b6261736536342c000000875262000f57815180926020868601910162001735565b810103601d810189520187620016a3565b5190209062000f97604051958693650379abe3500160c51b602086015260288501525180928585019062001735565b8101036028810184520182620016a3565b60008051602062007890833981519152600052600160205280517fce0cb05d718cbac69f1841ea88f1ecbbd18b24f05ba47c3a562737c9f52148f3906001600160401b038111620007ae5762001004816200011884546200175a565b6020601f82116001146200132e5792600080516020620078d08339815191529282620010639360008051602062007890833981519152966000916200122b57508160011b916000199060031b1c191617905560405191829182620017fc565b0390a2604051610e90602082015260208152620010808162001687565b600080516020620078b0833981519152600052600160205280517f4cbd1f2d64c647609fa4bdd3a58236f5de1700b67ad10769949e53a351c3ea31906001600160401b038111620007ae57620010dc816200011884546200175a565b6020601f8211600114620012b75792600080516020620078d083398151915292826200113b93600080516020620078b0833981519152966000916200122b57508160011b916000199060031b1c191617905560405191829182620017fc565b0390a2604051610e90602082015260208152620011588162001687565b7fd28c95357cf4c94d638a4f572d5d3df8d7e1415c8b650e747a219c559d1435c8600081905260016020528151917f9613c0adfc28e5910313e791ad5ae672b5566422415144580003dc3ff108dd2d6001600160401b038411620007ae57620011c784620001cf83546200175a565b602093601f811160011462001237579081620012189392600080516020620078d083398151915295966000916200122b57508160011b916000199060031b1c191617905560405191829182620017fc565b0390a2604051615d69908162001b078239f35b9050830151876200014f565b601f1981168260005260206000209060005b8181106200129e575091600191600080516020620078d0833981519152969782620012189796951062001284575b5050811b01905562000163565b85015160001960f88460031b161c19169055878062001277565b8588015183556020978801976001909301920162001249565b8260005260206000209060005b601f198416811062001315575092600183600080516020620078b08339815191529693600080516020620078d0833981519152966200113b96601f1981161062001284575050811b01905562000163565b90916020600181928589015181550193019101620012c4565b8260005260206000209060005b601f19841681106200138c575092600183600080516020620078908339815191529693600080516020620078d0833981519152966200106396601f1981161062001284575050811b01905562000163565b909160206001819285890151815501930191016200133b565b6000526020600020908101905b81811015620006525780620013ca600192546200175a565b80620013d9575b5001620013b2565b601f81118314620013f15750600081555b38620013d1565b60009082825262001411601f60208420920160051c820185830162001797565b81835555620013ea565b80602080928501015181840152016200062f565b806060602080938501015201620004e8565b9050830151386200014f565b601f1981168260005260206000209060005b818110620014b3575091600191600080516020620078d0833981519152969782620004b29796951062001499575050811b01905562000163565b85015160001960f88460031b161c19169055388062001277565b858801518355602097880197600190930192016200145f565b601f1981168260005260206000209060005b81811062001518575091600191600080516020620078d0833981519152969782620003d69796951062001499575050811b01905562000163565b85880151835560209788019760019093019201620014de565b601f1981168260005260206000209060005b8181106200157d575091600191600080516020620078d0833981519152969782620002fa9796951062001499575050811b01905562000163565b8588015183556020978801976001909301920162001543565b601f1981168260005260206000209060005b818110620015f2575082620002379492600080516020620078708339815191529798600080516020620078d083398151915297956001941062001499575050811b01905562000163565b85880151835560209788019760019093019201620015a8565b601f198216908360005260206000209160005b8181106200165757509262000170949260019282600080516020620078d083398151915298961062001499575050811b01905562000163565b9192602060018192868a0151815501940192016200161e565b6040516306b620db60e21b8152600490fd5b600080fd5b604081019081106001600160401b03821117620007ae57604052565b601f909101601f19168101906001600160401b03821190821017620007ae57604052565b6001600160401b038111620007ae57601f01601f191660200190565b805115620007c45760200190565b805160011015620007c45760400190565b805160021015620007c45760600190565b805160031015620007c45760800190565b805160041015620007c45760a00190565b60005b838110620017495750506000910152565b818101518382015260200162001738565b90600182811c921680156200178c575b60208310146200177657565b634e487b7160e01b600052602260045260246000fd5b91607f16916200176a565b818110620017a3575050565b6000815560010162001797565b9190601f8111620017c057505050565b620017ef926000526020600020906020601f840160051c83019310620017f1575b601f0160051c019062001797565b565b9091508190620017e1565b604091602082526200181e815180928160208601526020868601910162001735565b601f01601f1916010190565b600080546001600160a01b039283166001600160a01b03198216811783559216907f8be0079c531659141344cd1fd0a4f28419497f9722a3daafe3b4186f6b6457e09080a3565b6000198114620018815760010190565b634e487b7160e01b600052601160045260246000fd5b80511562001a165760405190606082016001600160401b03811183821017620007ae57604052604082527f4142434445464748494a4b4c4d4e4f505152535455565758595a61626364656660208301527f6768696a6b6c6d6e6f707172737475767778797a303132333435363738392b2f60408301528051600291828201809211620018815760039182900480841b94906001600160fe1b03811603620018815792620019616200194886620016c7565b95620019586040519788620016a3565b808752620016c7565b6020860190601f190136823793829183518401906020820192835194600085525b838110620019c4575050505052510680600114620019b157600214620019a6575090565b603d90600019015390565b50603d9081600019820153600119015390565b87600491999293949901918251600190603f9082828260121c16880101518453828282600c1c16880101518385015382828260061c168801015188850153168501015189820153019792919062001982565b50604051602081016001600160401b03811182821017620007ae576040526000815290565b6000610e90805b62001aef575062001a5381620016c7565b9062001a636040519283620016a3565b808252601f1962001a7482620016c7565b0190602091368385013790610e90805b62001a8f5750505090565b600a9060309382820685018095116200188157801562001881576000190180948651821015620007c45760f81b7fff000000000000000000000000000000000000000000000000000000000000001660001a908601840153048062001a84565b9062001afd600a9162001871565b91048062001a4256fe6080604052600436101561002a575b36156100255761001d366120ec565b602081519101f35b612138565b60003560e01c8063017c96b81461031557806301ffc9a71461031057806316e023b31461030b57806318160ddd146103065780631d26fce6146103015780631ead90b0146102fc5780631ef0352d146102f75780631f85e3ca146102f2578063217b2270146102ed5780632a3654a4146102e857806332cb6b0c146102c55780633be699f9146102e35780633f879faf146102de578063472dfcfb146102d957806349a6078d146102d4578063511b6952146102cf57806351cff8d9146102ca57806352058d8a146102c557806354f6127f146102c05780635a9c2b1c146102bb5780636643a686146102b657806366d003ac146102b15780636963d438146102ac57806370a08231146102a7578063715018a6146102a2578063767991361461029d5780637e87632c146102985780637f23690c146102935780638528247f1461028e57806386a10ddd146102895780638cda5103146102845780638d859f3e1461027f5780638da5cb5b1461027a5780639790242114610275578063a3b261f214610270578063ad30ddbf1461026b578063be9f0e6f14610266578063c65eb18014610261578063c68b37871461025c578063d445b97814610257578063d6c1407c14610252578063db8c96631461024d578063dedff9c614610248578063eb93406b14610243578063f2fde38b1461023e578063f3ba2059146102395763f76f950e0361000e57612035565b611e81565b611dba565b611c66565b611bdf565b611ade565b611a98565b611a5b565b6119a6565b611970565b611881565b611861565b6117e1565b61171d565b6116f4565b6116d1565b6112d0565b61114f565b611122565b611037565b610f9e565b610e1d565b610dbf565b610d82565b610d1d565b610cee565b610cc2565b610c9f565b610c80565b610992565b610c2a565b610bc6565b610b1c565b610adf565b6109f3565b6109af565b61095d565b61091c565b6108e2565b61076f565b6106d6565b61060d565b61048b565b610455565b610346565b3461034157602036600319011261034157600435600052600b6020526020604060002054604051908152f35b600080fd5b34610341576020366003190112610341576004356001600160e01b031981168082036103415761039d91631d138b8360e11b82149182156103b1575b5081156103a1575b5060405190151581529081906020820190565b0390f35b6103ab915061234f565b3861038a565b90915063a918fa6b60e01b81149081156103ce575b509038610382565b6318a6a9a560e21b8114915081156103e8575b50386103c6565b6301ffc9a760e01b149050386103e1565b60005b83811061040c5750506000910152565b81810151838201526020016103fc565b90602091610435815180928185528580860191016103f9565b601f01601f1916010190565b90602061045292818152019061041c565b90565b346103415760403660031901126103415761039d610477602435600435615c19565b60405191829160208352602083019061041c565b34610341576000366003190112610341576020600854604051908152f35b634e487b7160e01b600052604160045260246000fd5b602081019081106001600160401b038211176104da57604052565b6104a9565b604081019081106001600160401b038211176104da57604052565b606081019081106001600160401b038211176104da57604052565b90601f801991011681019081106001600160401b038211176104da57604052565b6001600160401b0381116104da5760051b60200190565b81601f820112156103415780359161056483610536565b926105726040519485610515565b808452602092838086019260051b820101928311610341578301905b82821061059c575050505090565b8135815290830190830161058e565b602080820190808352835180925260408301928160408460051b8301019501936000915b8483106105df5750505050505090565b90919293949584806105fd600193603f198682030187528a5161041c565b98019301930191949392906105cf565b34610341576040366003190112610341576001600160401b036004358181116103415761063e90369060040161054d565b906024359081116103415761065790369060040161054d565b9080518251036106c45761066b8151612073565b9160005b82518110156106b6578061069a610688600193866120d3565b5161069383866120d3565b5190615c19565b6106a482876120d3565b526106af81866120d3565b500161066f565b6040518061039d86826105ab565b6040516317d38eff60e11b8152600490fd5b34610341576020366003190112610341576004356000526009602052602060406000205460e81b6040519062ffffff60e81b168152f35b6001600160401b0381116104da57601f01601f191660200190565b81601f820112156103415780359061073f8261070d565b9261074d6040519485610515565b8284526020838301011161034157816000926020809301838601378301015290565b6020366003190112610341576004356001600160401b0381116103415761079d61039d913690600401610728565b6107a5615642565b6107b96107b4600e5460ff1690565b615504565b6107c8610e9060085410615550565b6107dc67016345785d8a000034101561558b565b336000908152600f602052604090206107fa90600a905b54106155c4565b336000908152600f602052604090206108138154613417565b9055610828610823600854613417565b600855565b6108906008549161083843613224565b60408051602081018681529240918101919091526bffffffffffffffffffffffff1933606090811b82168184015230901b16607482015261088681608881015b03601f198101835282610515565b5190208333615918565b6108be60008080803473a81a6a910fed20374361b35c451a4a44f86ced465af16108b86121c1565b50615605565b6108c86001600755565b6040519081529081906020820190565b8015150361034157565b34610341576020366003190112610341576004356108ff816108d8565b6109076130a3565b60ff8019600e54169115151617600e55600080f35b3461034157602036600319011261034157602061093a60043561266a565b6040516001600160a01b039091168152f35b6001600160a01b0381160361034157565b3461034157604036600319011261034157602061098860043561097f8161094c565b602435906127c1565b6040519015158152f35b34610341576000366003190112610341576020604051610e908152f35b34610341576000366003190112610341576109e561039d6109ce6149e3565b60409291925193849360408552604085019061041c565b90838203602085015261041c565b34610341576000366003190112610341576020604051600a8152f35b90600182811c92168015610a3f575b6020831014610a2957565b634e487b7160e01b600052602260045260246000fd5b91607f1691610a1e565b9060009291805491610a5a83610a0f565b918282526001938481169081600014610abc5750600114610a7c575b50505050565b90919394506000526020928360002092846000945b838610610aa8575050505001019038808080610a76565b805485870183015294019385908201610a91565b9294505050602093945060ff191683830152151560051b01019038808080610a76565b3461034157602036600319011261034157600435600052600d60205261039d610b15610477604060002060405192838092610a49565b0382610515565b3461034157602080600319360112610341576004356000818152600360205260409020546001600160a01b031615610bae5760005260058152610b62604060002061333d565b906040519181839283018184528251809152816040850193019160005b828110610b8e57505050500390f35b83516001600160a01b031685528695509381019392810192600101610b7f565b60249060405190635747cd1b60e11b82526004820152fd5b346103415760a036600319011261034157600435610be38161094c565b602435610bef8161094c565b606435610bfb816108d8565b608435926001600160401b03841161034157610c1e610c28943690600401610728565b926044359161280c565b005b34610341576020366003190112610341576000808080600435610c4c8161094c565b610c546130a3565b479082908215610c76575b6001600160a01b031690f115610c7157005b612ed2565b6108fc9150610c5f565b346103415760203660031901126103415761039d610477600435612054565b3461034157600036600319011261034157602060ff600e54166040519015158152f35b3461034157602036600319011261034157600435600052600a6020526020604060002054604051908152f35b3461034157600036600319011261034157602060405173a81a6a910fed20374361b35c451a4a44f86ced468152f35b34610341576020366003190112610341576001600160401b036004358181116103415736602382011215610341578060040135918211610341573660248360051b830101116103415761039d916024610d7692016126ce565b604051918291826105ab565b3461034157602036600319011261034157600435610d9f8161094c565b60018060a01b031660005260046020526020604060002054604051908152f35b3461034157600080600319360112610e1a57610dd96130a3565b80546001600160a01b03198116825581906001600160a01b03167f8be0079c531659141344cd1fd0a4f28419497f9722a3daafe3b4186f6b6457e08280a380f35b80fd5b34610341576020366003190112610341576004356001600160e81b0319811681036103415761047761039d916134fb565b81601f8201121561034157803591610e6583610536565b92610e736040519485610515565b808452602092838086019260051b820101928311610341578301905b828210610e9d575050505090565b8380918335610eab8161094c565b815201910190610e8f565b81601f8201121561034157803591610ecd83610536565b92610edb6040519485610515565b808452602092838086019260051b820101928311610341578301905b828210610f05575050505090565b8380918335610f13816108d8565b815201910190610ef7565b9080601f8301121561034157813590610f3682610536565b92610f446040519485610515565b828452602092838086019160051b8301019280841161034157848301915b848310610f725750505050505090565b82356001600160401b038111610341578691610f9384848094890101610728565b815201920191610f62565b346103415760a03660031901126103415760046001600160401b03813581811161034157610fcf9036908401610e4e565b9060243581811161034157610fe79036908501610e4e565b60443582811161034157610ffe903690860161054d565b90606435838111610341576110169036908701610eb6565b9260843590811161034157610c289561103191369101610f1e565b936129dc565b6040366003190112610341576024356001600160401b03811161034157611062903690600401610728565b61106a6130a3565b3461107b57610c28906004356123cc565b60405163f36ba73760e01b8152600490fd5b60e060031982011261034157600435916001600160401b0360243581811161034157836110bc91600401610728565b926044356001600160e81b0319811681036103415792606435926084359260a435918211610341576110f091600401610728565b9060c435610452816108d8565b90916111146104529360408452604084019061041c565b91602081840391015261041c565b346103415761113f6111333661108d565b95949094939193614ec4565b9061039d604051928392836110fd565b3461034157606036600319011261034157600480359061116e8261094c565b6024356044356001600160401b0381116103415761118f9036908401610728565b916111998261266a565b6001600160a01b0380821692913384036112995750851690811561128a5781831461127b576111e26111de876111d9876000526005602052604060002090565b61338c565b1590565b61124a5750918061124592610c2896947f1b1b58aa2ec0cec2228b2d37124556d41f5a1f7b12f089171f896cc236671215604051806112218a82610441565b0390a4611237604051948592336020850161276b565b03601f198101845283610515565b612ede565b604080516314ec4d6d60e31b81526001600160a01b03881692810192835260208301869052918291010390fd5b0390fd5b6040516344fed6b160e11b8152fd5b604051639577b8b360e01b8152fd5b60408051632d938f5160e11b81526001600160a01b0390921682850190815260208101879052339181019190915281906060010390fd5b34610341576020366003190112610341576004356112ec6149e3565b9190506112f881613596565b9061130290613596565b604051707b224c5350344d65746164617461223a7b60781b602082015275089b985b59488e88931d5adcdbd31bdbd9da595cc88b60521b60318201527f226465736372697074696f6e223a224c756b736f4c6f6f67696573206172652060478201527f4c554b534f205374616e64617264204c535038204e465473207769746820612060678201526d039b6b4b632901d149027b7363c960951b6087820152928392609584016113b1916136d4565b7f204c756b736f4c6f6f6769657320617661696c61626c65206f6e20612070726981527f636520637572766520696e6372656173696e6720302e3225207769746820656160208201527f6368206e6577206d696e742e2054686973204d61747269782045646974696f6e60408201527f20666561747572657320616e696d61746564204d61747269782d7374796c652060608201527f64657369676e7320666f722065616368204c6f6f6769652e222c0000000000006080820152609a017f226c696e6b73223a5b7b227469746c65223a2257656273697465222c2275726c81527f223a2268747470733a2f2f6c756b736f6c6f6f676965732e76657263656c2e6160208201527f7070227d2c7b227469746c65223a2254776974746572222c2275726c223a226860408201527f747470733a2f2f747769747465722e636f6d2f6c756b736f4c6f6f67696573226060820152621f574b60ea1b60808201526083017f22696d61676573223a5b5b7b227769647468223a3430302c226865696768742281526b1d1a181816113ab936111d1160a11b6020820152602c01611557916136d4565b64089f57574b60da1b81526005016d2261747472696275746573223a5b60901b8152600e017f7b226b6579223a2274797065222c2276616c7565223a22636f6c6c656374696f8152731b888b089d1e5c19488e889cdd1c9a5b99c89f4b60621b60208201526034017f7b226b6579223a226c696d6974222c2276616c7565223a00000000000000000081526017016115ee916136d4565b710b089d1e5c19488e889b9d5b58995c889f4b60721b81526012017f7b226b6579223a226375727665222c2276616c7565223a3130302e322c22747981526c7065223a226e756d626572227d60981b6020820152602d01605d60f81b8152600101617d7d60f01b815260020103601f1990818101835261166e9083610515565b61167782614d46565b6040517f646174613a6170706c69636174696f6e2f6a736f6e3b6261736536342c000000602082015291908290603d82016116b1916136d4565b0390810182526116c19082610515565b60405191829161039d91836110fd565b3461034157600036600319011261034157602060405167016345785d8a00008152f35b34610341576000366003190112610341576000546040516001600160a01b039091168152602090f35b60403660031901126103415760046001600160401b03813581811161034157611749903690840161054d565b90602435908111610341576117619036908401610f1e565b9161176a6130a3565b346117d25781518351036117c3578151156117b4575060005b8151811015610c2857806117ae61179c600193856120d3565b516117a783876120d3565b51906123cc565b01611783565b6040516397da5f9560e01b8152fd5b604051633bcc897960e01b8152fd5b60405163f36ba73760e01b8152fd5b3461034157602080600319360112610341576004356117ff8161094c565b6001600160a01b03166000908152600482526040902061181e9061333d565b906040519181839283018184528251809152816040850193019160005b82811061184a57505050500390f35b83518552869550938101939281019260010161183b565b346103415761039d6104776118753661108d565b9594909493919361387c565b346103415760603660031901126103415760046001600160401b038135818111610341576118b2903690840161054d565b602435828111610341576118c9903690850161054d565b91604435908111610341576118e19036908501610f1e565b926118ea6130a3565b8151835180911490811591611964575b5061195557815115611946575060005b8151811015610c285780611940611923600193856120d3565b5161192e83876120d3565b5161193984896120d3565b5191612d0f565b0161190a565b6040516380c9830560e01b8152fd5b6040516317d38eff60e11b8152fd5b905084511415386118fa565b3461034157602036600319011261034157600435600052600c60205261039d610b15610477604060002060405192838092610a49565b34610341576020806003193601126103415760049081356119c561339f565b6119cd6133cb565b93600092835b8581106119e8576040518061039d8982610441565b611a5690611a32611a0a600f85841a8b611a2a611a1885848c1c86168d613433565b516001600160f81b03191690565b611a2188613444565b908d1a92613433565b531687613433565b611a50611a46611a4184613444565b6134a7565b91881a918a613433565b53613417565b6119d3565b3461034157602036600319011261034157600435611a788161094c565b60018060a01b0316600052600f6020526020604060002054604051908152f35b34610341576060366003190112610341576044356001600160401b03811161034157611acb610c28913690600401610728565b611ad36130a3565b602435600435612d0f565b3461034157608036600319011261034157600435611afb8161094c565b60243560443591611b0b836108d8565b6064356001600160401b03811161034157611b2a903690600401610728565b611b338361266a565b936001600160a01b038086169033829003611ba8575b8416908115611b965714611b8457611b648282868887612aac565b611b6a57005b610c28936112376112459260405195869360208501612796565b6040516344fed6b160e11b8152600490fd5b604051639577b8b360e01b8152600490fd5b8481163314611b495760405163760b5acd60e01b81523360048201526001600160a01b038816602482015260448101879052606490fd5b34610341576020366003190112610341576004356001600160401b03811161034157611c0f90369060040161054d565b611c198151612073565b9060005b8151811015611c585780611c3c611c36600193856120d3565b51612054565b611c4682866120d3565b52611c5181856120d3565b5001611c1d565b6040518061039d85826105ab565b600080600319360112610e1a5761039d90611c7f615642565b611c8e6107b4600e5460ff1690565b611c9d610e9060085410615550565b611cb167016345785d8a000034101561558b565b336000908152600f60205260409020611ccc90600a906107f3565b336000908152600f60205260409020611ce58154613417565b9055611cf5610823600854613417565b6108be60085491611d7f611d0843613224565b60408051602081018781529240918101919091526bffffffffffffffffffffffff1933606090811b82168184015230901b166074820152611d4c8160888101610878565b519020611d576121ae565b50611d61336156e1565b15611db257611d6f33615761565b90815115611da2575b8533615918565b8080803473a81a6a910fed20374361b35c451a4a44f86ced465af16108b86121c1565b9050611dac6156bd565b90611d78565b611dac615698565b3461034157602036600319011261034157600435611dd78161094c565b611ddf6130a3565b6001600160a01b039081168015611e2d57600080546001600160a01b03198116831782559092167f8be0079c531659141344cd1fd0a4f28419497f9722a3daafe3b4186f6b6457e08380a380f35b60405162461bcd60e51b815260206004820152602660248201527f4f776e61626c653a206e6577206f776e657220697320746865207a65726f206160448201526564647265737360d01b6064820152608490fd5b34610341576040366003190112610341576001600160401b0360043560243582811161034157611eb5903690600401610728565b611ebe8261266a565b336001600160a01b0390911603611ffe57600092828452602090600d8252604085209183519182116104da57611efe82611ef88554610a0f565b85612557565b80601f8311600114611f6c575091817f0bab5fbabbf1262857155d5133d7829bd5739a99eb04ee435fe0e160483b1e8a9492611f5b948891611f61575b508160011b916000199060031b1c19161790555b60405191829182610441565b0390a280f35b905083015138611f3b565b90601f198316611f8185600052602060002090565b9288905b828210611fe657505092611f5b9492600192827f0bab5fbabbf1262857155d5133d7829bd5739a99eb04ee435fe0e160483b1e8a989610611fcd575b5050811b019055611f4f565b85015160001960f88460031b161c191690553880611fc1565b80600185968294968b01518155019501930190611f85565b60405162461bcd60e51b815260206004820152600f60248201526e2737ba103a37b5b2b71037bbb732b960891b6044820152606490fd5b346103415760203660031901126103415761039d610477600435613596565b6000526001602052610b15610452604060002060405192838092610a49565b9061207d82610536565b61208a6040519182610515565b828152809261209b601f1991610536565b019060005b8281106120ac57505050565b8060606020809385010152016120a0565b634e487b7160e01b600052603260045260246000fd5b80518210156120e75760209160051b010190565b6120bd565b600436106120fd57610452906121f1565b6044604051809263e5099ee360e01b825260206004830152806024830152806000848401376000828201840152601f01601f19168101030190fd5b3415612150576040516330fa4a2160e11b8152600490fd5b606460405163e5099ee360e01b8152602060048201526004602482015260006044820152fd5b908092918237016000815290565b9060349391816000823701916bffffffffffffffffffffffff199060601b16825260148201520190565b604051906121bb826104bf565b60008252565b3d156121ec573d906121d28261070d565b916121e06040519384610515565b82523d6000602084013e565b606090565b63ffffffff60e01b600035169061223e612239604051696773c5a04a6d4300884b60b11b60208201526000602a82015284602c82015260208152612234816104df565b61232c565b612054565b8051601481141590816122eb575b506122c65761225a906122f5565b60601c9182156122a2575060009182916040516122838161087860208201943490339087612184565b519134905af16122916121c1565b901561229a5790565b602081519101fd5b60405163bb370b2b60e01b81526001600160e01b0319919091166004820152602490fd5b6040516342bfe79f60e01b81526020600482015290819061127790602483019061041c565b905015153861224c565b90602082519201516bffffffffffffffffffffffff1990818116936014811061231d57505050565b60140360031b82901b16169150565b602081519101519060208110612340575090565b6000199060200360031b1b1690565b61238c612239604051696773c5a04a6d4300884b60b11b60208201526000602a8201526301ffc9a760e01b602c82015260208152612234816104df565b8051601481141590816123c2575b506122c6576123a8906122f5565b60601c9081156123bb5761045291613158565b5050600090565b905015153861239a565b907ff675e9361af1c1664c1868cfa3eb97672d6b1a513aa5b81dec34c9ee330e818d82146124e6577fdeba1e292f8ba88238e10ab3c7f88bd4be4fac56cad5194b6ecceaf653468af1820361242d576040516385c169bd60e01b8152600490fd5b7f2f0a68ab07768e01943a599e73362a0e17a63a72e94dd2e384d2c1d4db932756820361246657604051630eceab6760e31b8152600490fd5b7fe0261fa95db2eb3b5439bd033cda66d56b96f92f243a8228fd87550ed7bdfdb3820361249f57604051634ef6d7fb60e01b8152600490fd5b6124e181611f4f7fece574603820d07bc9b91f2a932baadf4628aabcb8afba49776529c14a6104b2936124dc866000526001602052604060002090565b61259c565b0390a2565b604051631b32400560e11b8152600490fd5b916125129183549060031b91821b91600019901b19161790565b9055565b818110612521575050565b60008155600101612516565b90601f811161253a575050565b61255591600052601f6020600020910160051c810190612516565b565b9190601f811161256657505050565b612555926000526020600020906020601f840160051c83019310612592575b601f0160051c0190612516565b9091508190612585565b91909182516001600160401b0381116104da576125c3816125bd8454610a0f565b84612557565b602080601f83116001146125ff5750819293946000926125f4575b50508160011b916000199060031b1c1916179055565b0151905038806125de565b90601f1983169561261585600052602060002090565b926000905b88821061265257505083600195969710612639575b505050811b019055565b015160001960f88460031b161c1916905538808061262f565b8060018596829496860151815501950193019061261a565b6000818152600360205260409020546001600160a01b0316908115610bae575090565b91908110156120e75760051b81013590601e19813603018212156103415701908135916001600160401b038311610341576020018236038113610341579190565b91906126d981612073565b92600091825b8181106126ec5750505050565b83806126f983858761268d565b6040939161270b855180938193612176565b0390305af4906127196121c1565b911561274057509060019161272e82896120d3565b5261273981886120d3565b50016126df565b81519192911561275257825160208401fd5b5163234eb81960e01b8152600481019190915260249150fd5b610452939260809260018060a01b03168252602082015260016040820152816060820152019061041c565b610452939260809260018060a01b03168252602082015260006040820152816060820152019061041c565b6001600160a01b03806127d38461266a565b1691169081149182156127e557505090565b61045292506000526005602052604060002060019160005201602052604060002054151590565b9092939161281a81336127c1565b156129be576128288161266a565b6001600160a01b03818116918482169182840361298e5780881693841561297c576128528661266a565b9182160361294c575050926129428380612555999794611237999761287a6129479887612c11565b6001600160a01b038616600090815260046020526040902061289d908490613288565b506001600160a01b03891660009081526004602052604090206128c19084906131a2565b506128f9896128da856000526003602052604060002090565b80546001600160a01b0319166001600160a01b03909216919091179055565b6040517fb333c813a7426a7a11e2b190cad52c44119421594b47f6f32ace6d8c7207b2bf908061292b8a8e3384612b75565b0390a4604051978894859288863360208701612bd7565b612f7b565b613017565b604051635a9c31d360e01b8152600481018690526001600160a01b03928316602482015291166044820152606490fd5b6040516324ecef4d60e01b8152600490fd5b604051632d938f5160e11b81526001600160a01b0383811660048301526024820187905287166044820152606490fd5b60449060405190631294d2a960e01b82526004820152336024820152fd5b949390919285519383518514801590612aa1575b8015612a96575b8015612a8b575b612a795760005b858110612a16575050505050509050565b80612a73612a36612a296001948c6120d3565b516001600160a01b031690565b612a43612a29848a6120d3565b612a4d84876120d3565b51612a61612a5b868a6120d3565b51151590565b91612a6c868b6120d3565b519361280c565b01612a05565b6040516393a8311960e01b8152600490fd5b5082518514156129fe565b5081518514156129f7565b5080518514156129f0565b91939284600052600560205260406000209260018060a01b0390612ad38282168096613288565b15612b22575090612b1d7fc78cd419d6136f9f1c1c6aec1d3fae098cffaf8bc86314a8f2685e32fe574e3c939260405193849315158452604060208501521695604083019061041c565b0390a4565b6040516312a8c6a360e21b81526001600160a01b0391909116600482015260248101879052604490fd5b6001600160a01b039091168152600160208201526060604082018190526104529291019061041c565b6001600160a01b03909116815290151560208201526060604082018190526104529291019061041c565b6001600160a01b0391821681526000602082015291166040820152606081019190915260a0608082018190526104529291019061041c565b6001600160a01b03918216815291811660208301529091166040820152606081019190915260a0608082018190526104529291019061041c565b9060009080825260059160209383855260409182812094855495825b878110612c3f57505050505050505050565b8154156120e7578184528884205486516001600160a01b0391821691612c64826104bf565b868252898752858c52612c79838a8920613288565b15612ccb57600193927fc78cd419d6136f9f1c1c6aec1d3fae098cffaf8bc86314a8f2685e32fe574e3c8d89612cc28e968e968e8880519687968752860152169683019061041c565b0390a401612c2d565b88516312a8c6a360e21b81526001600160a01b0384166004820152602481018b9052604490fd5b9190604051926020840152604083015260408252612555826104fa565b9091612d1b8383612cf2565b80516020809201206000526001908181526040600020918351916001600160401b0383116104da57612d5783612d518654610a0f565b86612557565b80601f8411600114612dc35750918080612db395937fa6e4251f855f750545fe414f120db91c76b88def14d120969e5bb2d3f05debbb9795600093612db8575b501b916000199060031b1c191617905560405191829182610441565b0390a3565b860151925038612d97565b90601f939293198316612ddb86600052602060002090565b926000905b828210612e26575050918391612db396947fa6e4251f855f750545fe414f120db91c76b88def14d120969e5bb2d3f05debbb98969410611fcd575050811b019055611f4f565b808785968294968c01518155019501930190612de0565b602081830312610341578051906001600160401b038211610341570181601f82011215610341578051612e6f8161070d565b92612e7d6040519485610515565b818452602082840101116103415761045291602080850191016103f9565b906040610452927f0b084a55ebf70fd3c06fd755269dac2212c4d3f0f4d09079780bfa50c1b2984d8152816020820152019061041c565b6040513d6000823e3d90fd5b612ee7816130fb565b612eef575050565b612f42600092918392604051948580948193631aed5a8560e21b83527f8a1c15a8799f71b547e08e2bcb2e85257e81b0a07eee2ce6712549eef1f00970600484015260406024840152604483019061041c565b03926001600160a01b03165af18015610c7157612f5c5750565b612f78903d806000833e612f708183610515565b810190612e3d565b50565b612f84816130fb565b612f8c575050565b612f42600092918392604051948580948193631aed5a8560e21b83527fb23eae7e6d1564b295b4c3e3be402d9a2f0776c57bdf365903496f6fa481ab00600484015260406024840152604483019061041c565b612fe8816130fb565b1561301357604051631aed5a8560e21b8152916000918391829084908290612f429060048301612e9b565b5050565b9190613022836130fb565b1561304c5750612f426000928392604051948580948193631aed5a8560e21b835260048301612e9b565b9050156130565750565b803b1561308057604051634349776d60e01b81526001600160a01b03919091166004820152602490fd5b604051630317313760e01b81526001600160a01b03919091166004820152602490fd5b6000546001600160a01b031633036130b757565b606460405162461bcd60e51b815260206004820152602060248201527f4f776e61626c653a2063616c6c6572206973206e6f7420746865206f776e65726044820152fd5b6000602091604051838101906301ffc9a760e01b8252631aed5a8560e21b60248201526024815261312b816104fa565b5191617530fa6000513d8261314c575b5081613145575090565b9050151590565b6020111591503861313b565b600090602092604051848101916301ffc9a760e01b835263ffffffff60e01b1660248201526024815261312b816104fa565b80548210156120e75760005260206000200190600090565b60008281526001820160205260409020546123bb57805490680100000000000000008210156104da57826131f76131e084600180960185558461318a565b819391549060031b91821b91600019901b19161790565b905580549260005201602052604060002055600190565b634e487b7160e01b600052601160045260246000fd5b60001981019190821161323357565b61320e565b9061032a91820391821161323357565b80549081156132725760001991820191613262838361318a565b909182549160031b1b1916905555565b634e487b7160e01b600052603160045260246000fd5b60018101918060005282602052604060002054928315156000146133345760001992848401908582116132335780549485019485116132335760009585836132dc946132eb98036132f1575b505050613248565b90600052602052604060002090565b55600190565b61331b6133159161330561332b948761318a565b90549060031b1c9283918761318a565b906124f8565b8590600052602052604060002090565b553880806132d4565b50505050600090565b9060405191828154918282526020928383019160005283600020936000905b8282106133725750505061255592500383610515565b85548452600195860195889550938101939091019061335c565b610452916001600160a01b0316906131a2565b604051906133ac826104df565b601082526f181899199a1a9b1b9c1cb0b131b232b360811b6020830152565b604051906133d8826104fa565b6040808352366020840137565b906133ef8261070d565b6133fc6040519182610515565b828152809261340d601f199161070d565b0190602036910137565b60001981146132335760010190565b8051156120e75760200190565b9081518110156120e7570160200190565b908160011b918083046002149015171561323357565b908160090291600983040361323357565b600281901b91906001600160fe1b0381160361323357565b908160370291603783040361323357565b8181029291811591840414171561323357565b906001820180921161323357565b90600a820180921161323357565b906030820180921161323357565b906002820180921161323357565b602301908160231161323357565b60b401908160b41161323357565b9061350461339f565b60405190613511826104df565b60068252602036818401376000805b6003811061353057509193505050565b613591906001600160f81b0319613576600f89841a83613556600483901c84168a613433565b511661356e61356487613444565b91891a918b613433565b531686613433565b5116611a50613587611a4184613444565b91851a9187613433565b613520565b801561361257806000908282935b6135fe57506135b2836133e5565b9290805b6135c05750505090565b600a90603092828206840180941161323357801561323357600019019260f81b6001600160f81b031916841a6135f68487613433565b5304806135b6565b9261360a600a91613417565b9304806135a4565b5060405161361f816104df565b60018152600360fc1b602082015290565b6040519061363d826104df565b600582526433b932b2b760d91b6020830152565b6040519061365e826104df565b6004825263626c756560e01b6020830152565b6040519061367e826104df565b60038252621c995960ea1b6020830152565b6040519061369d826104df565b6006825265707572706c6560d01b6020830152565b604051906136bf826104df565b600682526579656c6c6f7760d01b6020830152565b906136e7602092828151948592016103f9565b0190565b604051906136f8826104df565b60078252662366616363313560c81b6020830152565b6040519061371b826104df565b60078252662361383535663760c81b6020830152565b6040519061373e826104df565b600782526608d9598d0d0d0d60ca1b6020830152565b60405190613761826104df565b60078252661199b11c19331b60c91b6020830152565b60405190613784826104df565b60078252662361336536333560c81b6020830152565b604051906137a7826104df565b60078252660236666636330360cc1b6020830152565b604051906137ca826104df565b600782526611b1b19818333360c91b6020830152565b604051906137ed826104df565b600782526611b33318181b1b60c91b6020830152565b60405190613810826104df565b600782526611981831b1b33360c91b6020830152565b60405190613833826104df565b60078252660233030666630360cc1b6020830152565b60405190613856826104df565b600782526611b3331818333360c91b6020830152565b631e17b39f60e11b815260040190565b949395918260001461437a57815160209283810191822061389b613630565b805190860120036142c257505050506138b2613826565b945b60405194600360208701876138dc84836026918152650dac2e8e4d2f60d31b60208201520190565b03976138f0601f19998a8101835282610515565b51902084156142ba57811610965b83156142ac5761390c613849565b955b61392961392261391d8861345a565b613238565b600b900490565b92891561429e5761393861447c565b995b1561428c5761395761395761395161395d936146ae565b98613596565b94613596565b81519095901561427c57156141ea57613a176139f891613a0b6040519384926139f2602085016056907f3c7465787420783d223230302220793d223330302220636c6173733d2275736581527f726e616d6522207374796c653d22666f6e742d66616d696c793a2027436f6d69602082015275319029b0b7399026a993961031bab939b4bb329d911f60511b60408201520190565b906136d4565b661e17ba32bc3a1f60c91b815260070190565b03898101835282610515565b945b60405198899760208901613a9d906057907f3c73766720786d6c6e733d22687474703a2f2f7777772e77332e6f72672f323081527f30302f737667222076696577426f783d2230203020343030203430302220776960208201527f6474683d2234303022206865696768743d22343030223e00000000000000000060408201520190565b651e3232b3399f60d11b8152600601661e39ba3cb6329f60c91b81526007017f40696d706f72742075726c282268747470733a2f2f666f6e74732e676f6f676c81527f65617069732e636f6d2f637373323f66616d696c793d436f6d69632b53616e7360208201527f2b4d5326616d703b646973706c61793d7377617022293b00000000000000000060408201526057017f2e757365726e616d65207b20666f6e742d66616d696c793a2022436f6d69632081527f53616e73204d53222c20637572736976653b20666f6e742d73697a653a20313660208201527f70783b2066696c6c3a2077686974653b20746578742d616e63686f723a206d6960408201526664646c653b207d60c81b60608201526067017f2e6d61747269782d63686172207b20666f6e742d66616d696c793a206d6f6e6f81526c039b830b1b29d903334b6361d1609d1b6020820152602d01613bf5916136d4565b7f3b206f7061636974793a20302e333b20616e696d6174696f6e3a20666164652081527f337320696e66696e6974652c2066616c6c203873206c696e65617220696e66696020820152666e6974653b207d60c81b60408201526047017f406b65796672616d65732066616465207b203025207b206f7061636974793a2081527f302e323b207d20333025207b206f7061636974793a20302e393b207d2037302560208201527f207b206f7061636974793a20302e393b207d2031303025207b206f706163697460408201526a793a20302e323b207d207d60a81b6060820152606b017f406b65796672616d65732066616c6c207b2066726f6d207b207472616e73666f81527f726d3a207472616e736c61746559282d32307078293b207d20746f207b20747260208201527f616e73666f726d3a207472616e736c61746559283432307078293b207d207d006040820152605f01671e17b9ba3cb6329f60c11b8152600801613d63916136d4565b661e17b232b3399f60c91b81526007017f3c726563742077696474683d2234303022206865696768743d2234303022206681526c34b6361e91313630b1b591179f60991b6020820152602d01613db8916136d4565b7f3c6720636c6173733d226c6f6f6769652d636f6e7461696e6572223e000000008152601c016c1e339034b21e9132bcb298911f60991b8152600d017f3c656c6c69707365207374726f6b652d77696474683d2233222072793d22323981527f2e35222072783d2232392e35222069643d227376675f31222063793d2231353460208201527f2e35222063783d223138312e3522207374726f6b653d2223303030222066696c604082015269361e9111b3333311179f60b11b6060820152606a017f3c656c6c697073652072793d22332e35222072783d22322e35222069643d227381527f76675f33222063793d223135342e35222063783d223137332e3522207374726f60208201527f6b652d77696474683d223322207374726f6b653d2223303030222066696c6c3d60408201526a111198181818181811179f60a91b6060820152606b01613f089061386c565b6c1e339034b21e913432b0b2111f60991b8152600d016e1e32b63634b839b2903334b6361e9160891b8152600f01613f3f916136d4565b7f22207374726f6b652d77696474683d2233222063783d223230342e352220637981527f3d223231312e3830303635222069643d227376675f35222072783d22000000006020820152603c01613f94916136d4565b7f222072793d2235312e383030363522207374726f6b653d2223303030222f3e008152601f01613fc39061386c565b6c1e339034b21e9132bcb299111f60991b8152600d017f3c656c6c69707365207374726f6b652d77696474683d2233222072793d22323981527f2e35222072783d2232392e35222069643d227376675f32222063793d2231363860208201527f2e35222063783d223230392e3522207374726f6b653d2223303030222066696c604082015269361e9111b3333311179f60b11b6060820152606a017f3c656c6c697073652072793d22332e35222072783d2233222069643d2273766781527f5f34222063793d223136392e35222063783d2232303822207374726f6b652d7760208201527f696474683d2233222066696c6c3d222330303030303022207374726f6b653d226040820152661198181811179f60c91b60608201526067016140e99061386c565b7f3c6720636c6173733d226d6f75746822207472616e73666f726d3d227472616e8152650e6d8c2e8ca560d31b6020820152602601614127916136d4565b64161814911f60d91b81526005017f3c7061746820643d224d203133302032343020512031363520323530200000008152601d01614164916136d4565b7f2032333522207374726f6b653d22626c61636b22207374726f6b652d7769647481527f683d2233222066696c6c3d227472616e73706172656e74222f3e0000000000006020820152603a016141b99061386c565b6141c2916136d4565b6141cb9061386c565b651e17b9bb339f60d11b81526006010390810182526104529082610515565b6142776139f891613a0b6040519384926139f260208501605d907f3c7465787420783d223230302220793d223330302220666f6e742d66616d696c81527f793d22417269616c2220666f6e742d73697a653d223136222066696c6c3d222360208201527f6666666666662220746578742d616e63686f723d226d6964646c65223e00000060408201520190565b613a17565b50506142866121ae565b94613a19565b5061395d6139576139576139516121ae565b6142a66121ae565b9961393a565b6142b4613826565b9561390e565b1615966138fe565b805182206142ce613651565b805190860120036142eb57505050506142e5613803565b946138b4565b805182206142f7613671565b8051908601200361430e57505050506142e56137e0565b8051822061431a613690565b8051908601200361433157505050506142e56137bd565b51902061433c6136b2565b805190840120036143515750506142e561379a565b6139f2916108786143646142e5936134fb565b6040519485938401600190602360f81b81520190565b815160209283810191822061438d613630565b805190860120036143a457505050506142e5613777565b805182206143b0613651565b805190860120036143c757505050506142e5613754565b805182206143d3613671565b805190860120036143ea57505050506142e5613731565b805182206143f6613690565b8051908601200361440d57505050506142e561370e565b5190206144186136b2565b805190840120036143515750506142e56136eb565b7f3c6665436f6d706f7369746520696e3d22536f7572636547726170686963222081527f696e323d22626c757222206f70657261746f723d226f766572222f3e000000006020820152603c0190565b6040517f3c66696c7465722069643d226d61747269782d676c6f772220783d222d32302560208201527f2220793d222d323025222077696474683d223134302522206865696768743d22604082015265189a1812911f60d11b60608201527f3c6665476175737369616e426c757220737464446576696174696f6e3d22332260668201526f103932b9bab63a1e9131363ab911179f60811b6086820152610452816108786146126145d6604a6145346096860161442d565b681e17b334b63a32b91f60b91b81527f3c6c696e6561724772616469656e742069643d226d61747269782d626722207860098201527f313d223025222079313d223025222078323d223025222079323d2231303025226029820152601f60f91b60498201527f3c73746f70206f66667365743d223025222073746f702d636f6c6f723d22233091019081526718181c181811179f60c11b602082015260280190565b7f3c73746f70206f66667365743d2231303025222073746f702d636f6c6f723d228152691198181898181811179f60b11b6020820152602a0190565b701e17b634b732b0b923b930b234b2b73a1f60791b815260110190565b6040519061463c826104df565b601882527f3c6720636c6173733d226d61747269782d6368617273223e00000000000000006020830152565b604051906101e08083018381106001600160401b038211176104da57604052368337565b60ff1660ff81146132335760010190565b90600f8110156120e75760051b0190565b6146b661462f565b6146be614668565b9160005b60ff811690600f82101561473e576147346147399261472c61472561471f61471a8860405161470f816108788b6020830195869091602192825260ff60f81b9060f81b1660208201520190565b51902061017c900690565b6134b5565b60ff1690565b918861469d565b9060ff169052565b61468c565b6146c2565b505060005b60ff80821690600f8210156149be57906000915b6008818416106147725750505061476d9061468c565b614743565b90919460408787825192868987806020968c888a018a6147b48a848985919092602293835260ff60f81b809260f81b16602084015260f81b1660218201520190565b039a601f199b8c810182526147c99082610515565b51902061017c90066147da906134b5565b60ff1687518a81018781526001600160f81b031960f885811b821660208401528c901b1660218201526331b430b960e11b6022820152919691908060268301038d810182526148299082610515565b519020600a9006614839906134c3565b60ff1688518b81019283526001600160f81b031960f894851b811660208501529a90931b90991660218201526464656c617960d81b6022820152908060278301038b810182526148899082610515565b5190206005900660ff169461489d9161469d565b516148aa9060ff16613596565b92166148b590613596565b92166148c090613596565b835160f89590951b6001600160f81b03191686860190815290939085906001010387810186526148f09086610515565b5196879586016148ff916136d4565b681e3a32bc3a103c1e9160b91b815260090161491a916136d4565b6411103c9e9160d91b8152600501614931916136d4565b7f2220636c6173733d226d61747269782d6368617222207374796c653d22616e6981526d036b0ba34b7b716b232b630bc9d160951b6020820152602e01614977916136d4565b63399d911f60e11b815260040161498d916136d4565b661e17ba32bc3a1f60c91b81526007010390810182526149ad9082610515565b946149b79061468c565b9190614757565b505050506149de91506104529061087860405193849260208401906136d4565b61386c565b604080517f3c73766720786d6c6e733d22687474703a2f2f7777772e77332e6f72672f323060208201527f30302f737667222077696474683d2234303022206865696768743d2234303022918101919091527f2076696577426f783d223020302034303020343030223e00000000000000000060608201527f3c726563742077696474683d2234303022206865696768743d2234303022206660778201526b34b6361e911198181811179f60a11b6097820152711e3334b63a32b91034b21e9133b637bb911f60711b60a38201527f3c6665476175737369616e426c757220737464446576696174696f6e3d22332e60b5820152711a91103932b9bab63a1e9131363ab911179f60711b60d5820152614cd79190614ce381614c86614c74614bcd614b28614b1360e7860161442d565b681e17b334b63a32b91f60b91b815260090190565b7f3c7465787420783d223230302220793d223138302220666f6e742d66616d696c81527f793d22417269616c2220666f6e742d73697a653d223430222066696c6c3d222360208201527f6666662220746578742d616e63686f723d226d6964646c65222066696c74657260408201527f3d2275726c2823676c6f7729223e4c756b736f4c6f6f676965733c2f746578746060820152601f60f91b608082015260810190565b7f3c7465787420783d223230302220793d223233302220666f6e742d66616d696c81527f793d22417269616c2220666f6e742d73697a653d223230222066696c6c3d222360208201527f3066302220746578742d616e63686f723d226d6964646c65222066696c74657260408201527f3d2275726c2823676c6f7729223e4d61747269782045646974696f6e3c2f74656060820152623c3a1f60e91b608082015260830190565b651e17b9bb339f60d11b815260060190565b03614c99601f1991828101855284610515565b614ca283614d46565b6040517f646174613a696d6167652f7376672b786d6c3b6261736536342c0000000000006020820152958691603a83016139f2565b03908101855284610515565b9190565b60405190614cf4826104fa565b604082527f6768696a6b6c6d6e6f707172737475767778797a303132333435363738392b2f6040837f4142434445464748494a4b4c4d4e4f505152535455565758595a61626364656660208201520152565b805115614e2457614d55614ce7565b614d79614d74614d6f614d6885516134d1565b6003900490565b61346b565b6133e5565b91602083019181825183016020810191825193600084525b828210614dd25750505052516003900660018114614dbf57600214614db4575090565b603d90600019015390565b50603d9081600019820153600119015390565b9091956004906003809401938451600190603f9082828260121c16880101518553828282600c1c16880101518386015382828260061c1688010151600286015316850101519082015301959190614d91565b506104526121ae565b60405190614e3a826104df565b60018252601760f91b6020830152565b60405190614e57826104df565b601f82527f2e204f776e6564206279206120556e6976657273616c2050726f66696c6521006020830152565b60405190614e90826104df565b600582526466616c736560d81b6020830152565b60405190614eb1826104df565b60048252637472756560e01b6020830152565b969584614ef0614eea614ee4848a614f109a8a8f9a8a819f9b9d9c61387c565b986134fb565b996153c1565b604051674c6f6f676965202360c01b6020820152968791602883016139f2565b0398614f24601f199a8b8101895288610515565b614f2d85613596565b97614f3783613596565b9884156153b457614f46614e4a565b6040519a8b9260208401614f88906021907f54686973204d6174726978204c6f6f6769652069732074686520636f6c6f72208152602360f81b60208201520190565b614f9290876136d4565b750103bb4ba3410309031b43ab13134b732b9b99037b3160551b8152601601614fba916136d4565b7401030b7321036b7baba34103632b733ba341037b31605d1b8152601501614fe1916136d4565b614fea916136d4565b038b81018a52614ffa908a610515565b61500390614d46565b9461500d90613596565b9161501790613596565b92156153a657615025614ea4565b945b6040517f7b224c5350344d65746164617461223a207b226e616d65223a202200000000006020820152988998603b8a01615060916136d4565b711116113232b9b1b934b83a34b7b7111d101160711b8152601201615084916136d4565b7f222c226c696e6b73223a205b7b227469746c65223a2257656273697465222c2281527f75726c223a2268747470733a2f2f6c756b736f6c6f6f676965732e76657263656020820152721b0b985c1c089f574b089a58dbdb888e96d74b606a1b60408201526053017f22696d61676573223a205b5b7b227769647468223a203430302c22686569676881526f3a111d101a181816113ab936111d101160811b60208201526030017f646174613a696d6167652f7376672b786d6c3b6261736536342c0000000000008152601a0161515a916136d4565b64089f57574b60da1b81526005016d2261747472696275746573223a5b60901b8152600e017f7b226b6579223a22636f6c6f72222c2276616c7565223a22230000000000000081526019016151ae916136d4565b72088b089d1e5c19488e889cdd1c9a5b99c89f4b606a1b81526013017f7b226b6579223a226368756262696e657373222c2276616c7565223a000000008152601c016151f9916136d4565b710b089d1e5c19488e889b9d5b58995c889f4b60721b81526012017f7b226b6579223a226d6f7574684c656e677468222c2276616c7565223a0000008152601d01615243916136d4565b710b089d1e5c19488e889b9d5b58995c889f4b60721b81526012017f7b226b6579223a22757365726e616d65222c2276616c7565223a2200000000008152601b0161528d916136d4565b72088b089d1e5c19488e889cdd1c9a5b99c89f4b606a1b8152601301753d9135b2bc911d1134b9aaa81116113b30b63ab2911d60511b81526016016152d1916136d4565b720b089d1e5c19488e88989bdbdb19585b889f4b606a1b81526013017f7b226b6579223a2274797065222c2276616c7565223a22000000000000000000815260170161531c916136d4565b71222c2274797065223a22737472696e67227d60701b8152601201625d7d7d60e81b81526003010383810182526153539082610515565b61535c81614d46565b6040517f646174613a6170706c69636174696f6e2f6a736f6e3b6261736536342c000000602082015293908490603d8201615396916136d4565b039081018452614ce39084610515565b6153ae614e83565b94615027565b6153bc614e2d565b614f46565b806000917a184f03e93ff9f4daa797ed6e38ed64bf6a1f010000000000000000808210156154f6575b506d04ee2d6d415b85acef8100000000808310156154e7575b50662386f26fc10000808310156154d8575b506305f5e100808310156154c9575b50612710808310156154ba575b5060648210156154aa575b600a809210156154a0575b6001908160216154588287016133e5565b95860101905b61546a575b5050505090565b600019019083906f181899199a1a9b1b9c1cb0b131b232b360811b8282061a83530491821561549b5791908261545e565b615463565b9160010191615447565b919060646002910491019161543c565b60049193920491019138615431565b60089193920491019138615424565b60109193920491019138615415565b60209193920491019138615403565b6040935081049150386153ea565b1561550b57565b60405162461bcd60e51b815260206004820152601860248201527f5075626c6963206d696e74696e6720697320636c6f73656400000000000000006044820152606490fd5b1561555757565b60405162461bcd60e51b815260206004820152600c60248201526b444f4e45204d494e54494e4760a01b6044820152606490fd5b1561559257565b60405162461bcd60e51b815260206004820152600a60248201526909c9ea8408a9c9eaa8e960b31b6044820152606490fd5b156155cb57565b60405162461bcd60e51b8152602060048201526012602482015271135253950813125352550814915050d2115160721b6044820152606490fd5b1561560c57565b60405162461bcd60e51b815260206004820152600e60248201526d18dbdd5b19081b9bdd081cd95b9960921b6044820152606490fd5b600260075414615653576002600755565b60405162461bcd60e51b815260206004820152601f60248201527f5265656e7472616e637947756172643a207265656e7472616e742063616c6c006044820152606490fd5b604051906156a5826104df565b60098252681b1d5adcdbdb985d5d60ba1b6020830152565b604051906156ca826104df565b60088252672aa81027bbb732b960c11b6020830152565b6040516301ffc9a760e01b8152631c537ddf60e21b600482015290602090829060249082906001600160a01b03165afa60009181615725575b506104525750600090565b90916020823d8211615759575b8161573f60209383610515565b81010312610e1a575051615752816108d8565b903861571a565b3d9150615732565b61576d6111de826156e1565b614e24576040516354f6127f60e01b81527fa5f25703c828c6d3c468fa5542c279e8c98f1acc783318e4fcd67ea8fd61be026004820152906000908190839060249082906001600160a01b03165afa80928293615866575b506157d45750506104526121ae565b8151806157e7575b5050506104526121ae565b600180911180615849575b156157dc57615804614d748451613224565b9281805b615813575050505090565b815181101561549b578061582d611a0a6158439385613433565b611a5061583983613224565b91871a9188613433565b82615808565b506001600160f81b031961585f611a0a85613426565b16156157f2565b61587b9193503d8084833e612f708183610515565b91386157c5565b61589561588f8254610a0f565b8261252d565b600c6579656c6c6f7760d01b019055565b6158b361588f8254610a0f565b600c65707572706c6560d01b019055565b6158d161588f8254610a0f565b6006621c995960ea1b019055565b6158ec61588f8254610a0f565b600863626c756560e01b019055565b61590861588f8254610a0f565b600a6433b932b2b760d91b019055565b91612555936005615a2b9261597460ff60e81b8260021a60e81b1660ff60f01b8360011a60f01b1660ff60f81b8460001a60f81b161717615963876000526009602052604060002090565b9060e81c62ffffff19825416179055565b61599261598d6159868360031a613483565b60ff900490565b6134df565b6159a686600052600a602052604060002090565b556159dd6159d86159866159ce6159c789600052600a602052604060002090565b5460021c90565b8460041a90613494565b6134ed565b6159f186600052600b602052604060002090565b55811a0680615a395750615a17615a1284600052600c602052604060002090565b6158fb565b6124dc83600052600d602052604060002090565b615a336121ae565b91615ac7565b60018103615a635750615a5e615a5984600052600c602052604060002090565b6158df565b615a17565b60028103615a885750615a5e615a8384600052600c602052604060002090565b6158c4565b600303615aab57615a5e615aa684600052600c602052604060002090565b6158a6565b615a5e615ac284600052600c602052604060002090565b615882565b909291906001600160a01b038116801561297c576000858152600360205260409020546001600160a01b0316615bba576000858152600360205260409020546001600160a01b0316615bba57846125559495615bb592615b30615b2b600254613417565b600255565b6001600160a01b0385166000908152600460205260409020615b539083906131a2565b50615b6c856128da846000526003602052604060002090565b60007fb333c813a7426a7a11e2b190cad52c44119421594b47f6f32ace6d8c7207b2bf60405180615b9e8a3383612b4c565b0390a4611237604051948592853360208601612b9f565b612fdf565b6040516334c7b51160e01b815260048101869052602490fd5b604861255591939293604051948591650379abe3500160c51b60208401526028830152615c0981518092602086860191016103f9565b8101036028810185520183610515565b907f9afb95cacc9f95858ec44aa8c3b685511002e30ae54415823f406128b85b238e8103615d045750615cf781615cd9610b15615c72615c6661045296600052600c602052604060002090565b60405192838092610a49565b615c86836000526009602052604060002090565b5460e81b615c9e84600052600a602052604060002090565b5490615cb485600052600b602052604060002090565b5492615ce0615ccd87600052600d602052604060002090565b60405196878092610a49565b0386610515565b615cf1615cec8761266a565b6156e1565b95614ec4565b9060208151910120615bd3565b615d0d91612cf2565b602081519101206000526001602052610b15610452604060002060405192838092610a4956fea2646970667358221220c8fa8a6ac35e76faf5b5af745a909f117873761088c311a16fb9027a08c9685b64736f6c63430008140033deba1e292f8ba88238e10ab3c7f88bd4be4fac56cad5194b6ecceaf653468af19afb95cacc9f95858ec44aa8c3b685511002e30ae54415823f406128b85b238ea23ea79c706be4641bfd97c9afb5b71a552c5bc320930dbe09b3530ed76dee0fece574603820d07bc9b91f2a932baadf4628aabcb8afba49776529c14a6104b2","opcodes":"PUSH1 0x80 DUP1 PUSH1 0x40 MSTORE CALLVALUE PUSH3 0x1682 JUMPI PUSH1 0x20 DUP2 PUSH3 0x78F0 DUP1 CODESIZE SUB DUP1 SWAP2 PUSH3 0x23 DUP3 DUP6 PUSH3 0x16A3 JUMP JUMPDEST DUP4 CODECOPY DUP2 ADD SUB SLT PUSH3 0x1682 JUMPI MLOAD PUSH1 0x1 PUSH1 0x1 PUSH1 0xA0 SHL SUB DUP2 AND DUP1 DUP3 SUB PUSH3 0x1682 JUMPI PUSH1 0x40 MLOAD SWAP2 PUSH3 0x50 DUP4 PUSH3 0x1687 JUMP JUMPDEST PUSH1 0xC DUP4 MSTORE PUSH12 0x4C756B736F4C6F6F67696573 PUSH1 0xA0 SHL PUSH1 0x20 DUP5 ADD MSTORE PUSH1 0x40 MLOAD SWAP2 PUSH3 0x78 DUP4 PUSH3 0x1687 JUMP JUMPDEST PUSH1 0x7 DUP4 MSTORE PUSH7 0x4C554B4C4F4F47 PUSH1 0xC8 SHL PUSH1 0x20 DUP5 ADD MSTORE PUSH3 0x97 CALLER PUSH3 0x182A JUMP JUMPDEST ISZERO PUSH3 0x1670 JUMPI PUSH3 0xA8 SWAP1 PUSH3 0x182A JUMP JUMPDEST PUSH1 0x40 MLOAD PUSH3 0xB6 DUP2 PUSH3 0x1687 JUMP JUMPDEST PUSH1 0x4 DUP2 MSTORE PUSH4 0x29365989 PUSH1 0xE2 SHL PUSH1 0x20 DUP3 ADD MSTORE PUSH32 0xEAFEC4D89FA9619884B60000A4D96624A38F7AC2D8D9A604ECF07C12C77E480C SWAP1 DUP2 PUSH1 0x0 MSTORE PUSH1 0x1 PUSH1 0x20 MSTORE PUSH1 0x40 PUSH1 0x0 KECCAK256 DUP2 MLOAD PUSH1 0x1 DUP1 PUSH1 0x40 SHL SUB DUP2 GT PUSH3 0x7AE JUMPI PUSH3 0x11F DUP2 PUSH3 0x118 DUP5 SLOAD PUSH3 0x175A JUMP JUMPDEST DUP5 PUSH3 0x17B0 JUMP JUMPDEST PUSH1 0x20 PUSH1 0x1F DUP3 GT PUSH1 0x1 EQ PUSH3 0x160B JUMPI SWAP2 DUP2 PUSH1 0x0 DUP1 MLOAD PUSH1 0x20 PUSH3 0x78D0 DUP4 CODECOPY DUP2 MLOAD SWAP2 MSTORE SWAP5 SWAP3 PUSH3 0x170 SWAP5 PUSH1 0x0 SWAP2 PUSH3 0x1441 JUMPI JUMPDEST POP DUP2 PUSH1 0x1 SHL SWAP2 PUSH1 0x0 NOT SWAP1 PUSH1 0x3 SHL SHR NOT AND OR SWAP1 SSTORE JUMPDEST PUSH1 0x40 MLOAD SWAP2 DUP3 SWAP2 DUP3 PUSH3 0x17FC JUMP JUMPDEST SUB SWAP1 LOG2 PUSH1 0x0 DUP1 MLOAD PUSH1 0x20 PUSH3 0x7870 DUP4 CODECOPY DUP2 MLOAD SWAP2 MSTORE PUSH1 0x0 MSTORE PUSH1 0x1 PUSH1 0x20 MSTORE DUP2 MLOAD SWAP2 PUSH32 0x2A367AE1AC46D529739AA27AC74856F860E70AF05D3642D18BA60FD5D32A069A PUSH1 0x1 PUSH1 0x1 PUSH1 0x40 SHL SUB DUP5 GT PUSH3 0x7AE JUMPI PUSH3 0x1D6 DUP5 PUSH3 0x1CF DUP4 SLOAD PUSH3 0x175A JUMP JUMPDEST DUP4 PUSH3 0x17B0 JUMP JUMPDEST PUSH1 0x20 SWAP4 PUSH1 0x1F DUP2 GT PUSH1 0x1 EQ PUSH3 0x1596 JUMPI SWAP2 PUSH3 0x237 SWAP2 DUP4 PUSH1 0x0 DUP1 MLOAD PUSH1 0x20 PUSH3 0x78D0 DUP4 CODECOPY DUP2 MLOAD SWAP2 MSTORE SWAP5 PUSH1 0x0 DUP1 MLOAD PUSH1 0x20 PUSH3 0x7870 DUP4 CODECOPY DUP2 MLOAD SWAP2 MSTORE SWAP7 SWAP8 PUSH1 0x0 SWAP2 PUSH3 0x1441 JUMPI POP DUP2 PUSH1 0x1 SHL SWAP2 PUSH1 0x0 NOT SWAP1 PUSH1 0x3 SHL SHR NOT AND OR SWAP1 SSTORE PUSH1 0x40 MLOAD SWAP2 DUP3 SWAP2 DUP3 PUSH3 0x17FC JUMP JUMPDEST SUB SWAP1 LOG2 PUSH32 0x2F0A68AB07768E01943A599E73362A0E17A63A72E94DD2E384D2C1D4DB932756 PUSH1 0x0 DUP2 SWAP1 MSTORE PUSH1 0x1 PUSH1 0x20 MSTORE DUP2 MLOAD SWAP2 PUSH32 0x83B322886C7B7E25779E5D38E06E005C9E7ABA1E1267CE9210CF24E31833535A PUSH1 0x1 PUSH1 0x1 PUSH1 0x40 SHL SUB DUP5 GT PUSH3 0x7AE JUMPI PUSH3 0x2A9 DUP5 PUSH3 0x1CF DUP4 SLOAD PUSH3 0x175A JUMP JUMPDEST PUSH1 0x20 SWAP4 PUSH1 0x1F DUP2 GT PUSH1 0x1 EQ PUSH3 0x1531 JUMPI SWAP1 DUP2 PUSH3 0x2FA SWAP4 SWAP3 PUSH1 0x0 DUP1 MLOAD PUSH1 0x20 PUSH3 0x78D0 DUP4 CODECOPY DUP2 MLOAD SWAP2 MSTORE SWAP6 SWAP7 PUSH1 0x0 SWAP2 PUSH3 0x1441 JUMPI POP DUP2 PUSH1 0x1 SHL SWAP2 PUSH1 0x0 NOT SWAP1 PUSH1 0x3 SHL SHR NOT AND OR SWAP1 SSTORE PUSH1 0x40 MLOAD SWAP2 DUP3 SWAP2 DUP3 PUSH3 0x17FC JUMP JUMPDEST SUB SWAP1 LOG2 PUSH1 0x40 MLOAD PUSH1 0x2 PUSH1 0x20 DUP3 ADD MSTORE PUSH1 0x20 DUP2 MSTORE PUSH3 0x316 DUP2 PUSH3 0x1687 JUMP JUMPDEST PUSH32 0xE0261FA95DB2EB3B5439BD033CDA66D56B96F92F243A8228FD87550ED7BDFDB3 PUSH1 0x0 DUP2 SWAP1 MSTORE PUSH1 0x1 PUSH1 0x20 MSTORE DUP2 MLOAD SWAP2 PUSH32 0xF73B01B344A9BB3B96525B0CB731F6B14CDE20CE6CECEA8459266944490B411F PUSH1 0x1 PUSH1 0x1 PUSH1 0x40 SHL SUB DUP5 GT PUSH3 0x7AE JUMPI PUSH3 0x385 DUP5 PUSH3 0x1CF DUP4 SLOAD PUSH3 0x175A JUMP JUMPDEST PUSH1 0x20 SWAP4 PUSH1 0x1F DUP2 GT PUSH1 0x1 EQ PUSH3 0x14CC JUMPI SWAP1 DUP2 PUSH3 0x3D6 SWAP4 SWAP3 PUSH1 0x0 DUP1 MLOAD PUSH1 0x20 PUSH3 0x78D0 DUP4 CODECOPY DUP2 MLOAD SWAP2 MSTORE SWAP6 SWAP7 PUSH1 0x0 SWAP2 PUSH3 0x1441 JUMPI POP DUP2 PUSH1 0x1 SHL SWAP2 PUSH1 0x0 NOT SWAP1 PUSH1 0x3 SHL SHR NOT AND OR SWAP1 SSTORE PUSH1 0x40 MLOAD SWAP2 DUP3 SWAP2 DUP3 PUSH3 0x17FC JUMP JUMPDEST SUB SWAP1 LOG2 PUSH1 0x40 MLOAD PUSH1 0x0 PUSH1 0x20 DUP3 ADD MSTORE PUSH1 0x20 DUP2 MSTORE PUSH3 0x3F2 DUP2 PUSH3 0x1687 JUMP JUMPDEST PUSH32 0xF675E9361AF1C1664C1868CFA3EB97672D6B1A513AA5B81DEC34C9EE330E818D PUSH1 0x0 DUP2 SWAP1 MSTORE PUSH1 0x1 PUSH1 0x20 MSTORE DUP2 MLOAD SWAP2 PUSH32 0x1F5EB934E794DDCC86B89A579078013860F8FE92140885511742594F219AD0B PUSH1 0x1 PUSH1 0x1 PUSH1 0x40 SHL SUB DUP5 GT PUSH3 0x7AE JUMPI PUSH3 0x461 DUP5 PUSH3 0x1CF DUP4 SLOAD PUSH3 0x175A JUMP JUMPDEST PUSH1 0x20 SWAP4 PUSH1 0x1F DUP2 GT PUSH1 0x1 EQ PUSH3 0x144D JUMPI SWAP1 DUP2 PUSH3 0x4B2 SWAP4 SWAP3 PUSH1 0x0 DUP1 MLOAD PUSH1 0x20 PUSH3 0x78D0 DUP4 CODECOPY DUP2 MLOAD SWAP2 MSTORE SWAP6 SWAP7 PUSH1 0x0 SWAP2 PUSH3 0x1441 JUMPI POP DUP2 PUSH1 0x1 SHL SWAP2 PUSH1 0x0 NOT SWAP1 PUSH1 0x3 SHL SHR NOT AND OR SWAP1 SSTORE PUSH1 0x40 MLOAD SWAP2 DUP3 SWAP2 DUP3 PUSH3 0x17FC JUMP JUMPDEST SUB SWAP1 LOG2 PUSH1 0x1 PUSH1 0x7 SSTORE PUSH1 0xE DUP1 SLOAD PUSH1 0xFF NOT AND SWAP1 SSTORE PUSH1 0x40 MLOAD PUSH1 0xC0 DUP2 ADD PUSH1 0x1 PUSH1 0x1 PUSH1 0x40 SHL SUB DUP2 GT DUP3 DUP3 LT OR PUSH3 0x7AE JUMPI PUSH1 0x40 MSTORE PUSH1 0x5 DUP2 MSTORE PUSH1 0x0 JUMPDEST PUSH1 0xA0 DUP2 LT PUSH3 0x142F JUMPI POP PUSH1 0x40 MLOAD PUSH3 0x500 DUP2 PUSH3 0x1687 JUMP JUMPDEST PUSH1 0x5 DUP2 MSTORE PUSH5 0x33B932B2B7 PUSH1 0xD9 SHL PUSH1 0x20 DUP3 ADD MSTORE PUSH3 0x51D DUP3 PUSH3 0x16E3 JUMP JUMPDEST MSTORE PUSH3 0x529 DUP2 PUSH3 0x16E3 JUMP JUMPDEST POP PUSH1 0x40 MLOAD PUSH3 0x538 DUP2 PUSH3 0x1687 JUMP JUMPDEST PUSH1 0x4 DUP2 MSTORE PUSH4 0x626C7565 PUSH1 0xE0 SHL PUSH1 0x20 DUP3 ADD MSTORE PUSH3 0x554 DUP3 PUSH3 0x16F1 JUMP JUMPDEST MSTORE PUSH3 0x560 DUP2 PUSH3 0x16F1 JUMP JUMPDEST POP PUSH1 0x40 MLOAD PUSH3 0x56F DUP2 PUSH3 0x1687 JUMP JUMPDEST PUSH1 0x3 DUP2 MSTORE PUSH3 0x1C9959 PUSH1 0xEA SHL PUSH1 0x20 DUP3 ADD MSTORE PUSH3 0x58A DUP3 PUSH3 0x1702 JUMP JUMPDEST MSTORE PUSH3 0x596 DUP2 PUSH3 0x1702 JUMP JUMPDEST POP PUSH1 0x40 MLOAD PUSH3 0x5A5 DUP2 PUSH3 0x1687 JUMP JUMPDEST PUSH1 0x6 DUP2 MSTORE PUSH6 0x707572706C65 PUSH1 0xD0 SHL PUSH1 0x20 DUP3 ADD MSTORE PUSH3 0x5C3 DUP3 PUSH3 0x1713 JUMP JUMPDEST MSTORE PUSH3 0x5CF DUP2 PUSH3 0x1713 JUMP JUMPDEST POP PUSH1 0x40 MLOAD PUSH3 0x5DE DUP2 PUSH3 0x1687 JUMP JUMPDEST PUSH1 0x6 DUP2 MSTORE PUSH6 0x79656C6C6F77 PUSH1 0xD0 SHL PUSH1 0x20 DUP3 ADD MSTORE PUSH3 0x5FC DUP3 PUSH3 0x1724 JUMP JUMPDEST MSTORE PUSH3 0x608 DUP2 PUSH3 0x1724 JUMP JUMPDEST POP PUSH1 0x40 MLOAD PUSH3 0x617 DUP2 PUSH3 0x1687 JUMP JUMPDEST PUSH1 0x5 DUP2 MSTORE PUSH5 0x7479706573 PUSH1 0xD8 SHL PUSH1 0x20 DUP3 ADD MSTORE PUSH1 0x40 MLOAD PUSH1 0x0 JUMPDEST PUSH1 0x5 DUP2 LT PUSH3 0x141B JUMPI POP DUP1 PUSH1 0x6 PUSH1 0x5 PUSH1 0x25 SWAP4 ADD MSTORE KECCAK256 DUP1 SLOAD SWAP1 PUSH1 0x0 DUP2 SSTORE DUP2 PUSH3 0x13A5 JUMPI JUMPDEST POP POP SWAP1 PUSH1 0x0 SWAP2 JUMPDEST DUP2 MLOAD DUP4 LT ISZERO PUSH3 0x7DA JUMPI PUSH1 0x40 MLOAD PUSH1 0x20 DUP2 DUP4 MLOAD PUSH3 0x67A DUP2 DUP4 DUP6 DUP9 ADD PUSH3 0x1735 JUMP JUMPDEST DUP2 ADD PUSH1 0x6 DUP2 MSTORE SUB ADD SWAP1 KECCAK256 SWAP3 DUP3 MLOAD DUP2 LT ISZERO PUSH3 0x7C4 JUMPI PUSH1 0x20 DUP2 PUSH1 0x5 SHL DUP5 ADD ADD MLOAD SWAP4 DUP1 SLOAD SWAP1 PUSH9 0x10000000000000000 DUP3 LT ISZERO PUSH3 0x7AE JUMPI PUSH1 0x1 DUP3 ADD DUP1 DUP3 SSTORE DUP3 LT ISZERO PUSH3 0x7C4 JUMPI PUSH1 0x0 MSTORE PUSH1 0x20 PUSH1 0x0 KECCAK256 ADD DUP5 MLOAD SWAP5 PUSH1 0x1 DUP1 PUSH1 0x40 SHL SUB DUP7 GT PUSH3 0x7AE JUMPI PUSH3 0x6E9 DUP7 PUSH3 0x118 DUP5 SLOAD PUSH3 0x175A JUMP JUMPDEST PUSH1 0x20 SWAP1 PUSH1 0x1F DUP8 GT PUSH1 0x1 EQ PUSH3 0x739 JUMPI SWAP6 DUP1 SWAP2 PUSH3 0x725 SWAP6 SWAP7 SWAP8 PUSH1 0x0 SWAP3 PUSH3 0x72D JUMPI JUMPDEST POP POP DUP2 PUSH1 0x1 SHL SWAP2 PUSH1 0x0 NOT SWAP1 PUSH1 0x3 SHL SHR NOT AND OR SWAP1 SSTORE PUSH3 0x1871 JUMP JUMPDEST SWAP2 SWAP1 PUSH3 0x659 JUMP JUMPDEST ADD MLOAD SWAP1 POP CODESIZE DUP1 PUSH3 0x70B JUMP JUMPDEST SWAP1 DUP3 PUSH1 0x0 MSTORE PUSH1 0x20 PUSH1 0x0 KECCAK256 SWAP2 PUSH1 0x0 JUMPDEST PUSH1 0x1F NOT DUP10 AND DUP2 LT PUSH3 0x795 JUMPI POP SWAP2 DUP8 SWAP2 PUSH1 0x1 SWAP4 PUSH3 0x725 SWAP8 SWAP9 SWAP10 PUSH1 0x1F NOT DUP2 AND LT PUSH3 0x77B JUMPI JUMPDEST POP POP POP DUP2 SHL ADD SWAP1 SSTORE PUSH3 0x1871 JUMP JUMPDEST ADD MLOAD PUSH1 0x0 NOT PUSH1 0xF8 DUP5 PUSH1 0x3 SHL AND SHR NOT AND SWAP1 SSTORE CODESIZE DUP1 DUP1 PUSH3 0x76D JUMP JUMPDEST SWAP2 SWAP3 PUSH1 0x20 PUSH1 0x1 DUP2 SWAP3 DUP7 DUP6 ADD MLOAD DUP2 SSTORE ADD SWAP5 ADD SWAP3 ADD PUSH3 0x747 JUMP JUMPDEST PUSH4 0x4E487B71 PUSH1 0xE0 SHL PUSH1 0x0 MSTORE PUSH1 0x41 PUSH1 0x4 MSTORE PUSH1 0x24 PUSH1 0x0 REVERT JUMPDEST PUSH4 0x4E487B71 PUSH1 0xE0 SHL PUSH1 0x0 MSTORE PUSH1 0x32 PUSH1 0x4 MSTORE PUSH1 0x24 PUSH1 0x0 REVERT JUMPDEST PUSH1 0x40 DUP1 MLOAD PUSH32 0x3C73766720786D6C6E733D22687474703A2F2F7777772E77332E6F72672F3230 PUSH1 0x20 DUP3 ADD MSTORE PUSH32 0x30302F737667222077696474683D2234303022206865696768743D2234303022 SWAP2 DUP2 ADD SWAP2 SWAP1 SWAP2 MSTORE PUSH32 0x2076696577426F783D223020302034303020343030223E000000000000000000 PUSH1 0x60 DUP3 ADD MSTORE PUSH32 0x3C726563742077696474683D2234303022206865696768743D22343030222066 PUSH1 0x77 DUP3 ADD MSTORE PUSH12 0x34B6361E911198181811179F PUSH1 0xA1 SHL PUSH1 0x97 DUP3 ADD MSTORE PUSH18 0x1E3334B63A32B91034B21E9133B637BB911F PUSH1 0x71 SHL PUSH1 0xA3 DUP3 ADD MSTORE PUSH32 0x3C6665476175737369616E426C757220737464446576696174696F6E3D22332E PUSH1 0xB5 DUP3 ADD MSTORE PUSH18 0x1A91103932B9BAB63A1E9131363AB911179F PUSH1 0x71 SHL PUSH1 0xD5 DUP3 ADD MSTORE PUSH32 0x3C6665436F6D706F7369746520696E3D22536F75726365477261706869632220 PUSH1 0xE7 DUP3 ADD MSTORE PUSH32 0x696E323D22626C757222206F70657261746F723D226F766572222F3E00000000 PUSH2 0x107 DUP3 ADD MSTORE PUSH9 0x1E17B334B63A32B91F PUSH1 0xB9 SHL PUSH2 0x123 DUP3 ADD MSTORE PUSH32 0x3C7465787420783D223230302220793D223138302220666F6E742D66616D696C PUSH2 0x12C DUP3 ADD MSTORE PUSH32 0x793D22417269616C2220666F6E742D73697A653D223430222066696C6C3D2223 PUSH2 0x14C DUP3 ADD MSTORE PUSH32 0x6666662220746578742D616E63686F723D226D6964646C65222066696C746572 PUSH2 0x16C DUP3 ADD MSTORE PUSH32 0x3D2275726C2823676C6F7729223E4C756B736F4C6F6F676965733C2F74657874 PUSH2 0x18C DUP3 ADD MSTORE PUSH1 0x1F PUSH1 0xF9 SHL PUSH2 0x1AC DUP3 ADD MSTORE PUSH32 0x3C7465787420783D223230302220793D223233302220666F6E742D66616D696C PUSH2 0x1AD DUP3 ADD MSTORE PUSH32 0x793D22417269616C2220666F6E742D73697A653D223230222066696C6C3D2223 PUSH2 0x1CD DUP3 ADD MSTORE PUSH32 0x3066302220746578742D616E63686F723D226D6964646C65222066696C746572 PUSH2 0x1ED DUP3 ADD MSTORE PUSH32 0x3D2275726C2823676C6F7729223E4D61747269782045646974696F6E3C2F7465 PUSH2 0x20D DUP3 ADD MSTORE PUSH3 0x3C3A1F PUSH1 0xE9 SHL PUSH2 0x22D DUP3 ADD MSTORE PUSH6 0x1E17B9BB339F PUSH1 0xD1 SHL PUSH2 0x230 DUP3 ADD MSTORE PUSH2 0x216 DUP2 MSTORE PUSH2 0x240 DUP2 ADD SWAP1 PUSH1 0x1 PUSH1 0x1 PUSH1 0x40 SHL SUB DUP3 GT DUP2 DUP4 LT OR PUSH3 0x7AE JUMPI PUSH3 0xAD5 SWAP2 PUSH1 0x40 MSTORE PUSH3 0x1897 JUMP JUMPDEST PUSH3 0xFA8 PUSH1 0x48 PUSH1 0x40 MLOAD PUSH3 0xB33 PUSH1 0x3A DUP3 PUSH1 0x20 DUP2 ADD SWAP7 PUSH32 0x646174613A696D6167652F7376672B786D6C3B6261736536342C000000000000 DUP9 MSTORE PUSH3 0xB22 DUP2 MLOAD DUP1 SWAP3 PUSH1 0x20 DUP7 DUP7 ADD SWAP2 ADD PUSH3 0x1735 JUMP JUMPDEST DUP2 ADD SUB PUSH1 0x1A DUP2 ADD DUP5 MSTORE ADD DUP3 PUSH3 0x16A3 JUMP JUMPDEST PUSH3 0xF03 PUSH2 0x27E PUSH3 0xB44 PUSH3 0x1A3B JUMP JUMPDEST SWAP3 PUSH3 0xB4F PUSH3 0x1A3B JUMP JUMPDEST PUSH1 0x40 MLOAD SWAP8 DUP9 SWAP3 PUSH1 0x20 DUP5 ADD SWAP7 PUSH17 0x7B224C5350344D65746164617461223A7B PUSH1 0x78 SHL DUP9 MSTORE PUSH32 0x226E616D65223A224C756B736F4C6F6F67696573222C00000000000000000000 PUSH1 0x31 DUP7 ADD MSTORE PUSH32 0x226465736372697074696F6E223A224C756B736F4C6F6F676965732061726520 PUSH1 0x47 DUP7 ADD MSTORE PUSH32 0x4C554B534F205374616E64617264204C535038204E4654732077697468206120 PUSH1 0x67 DUP7 ADD MSTORE PUSH14 0x39B6B4B632901D149027B7363C9 PUSH1 0x95 SHL PUSH1 0x87 DUP7 ADD MSTORE PUSH3 0xC10 DUP2 MLOAD DUP1 SWAP3 PUSH1 0x20 PUSH1 0x95 DUP10 ADD SWAP2 ADD PUSH3 0x1735 JUMP JUMPDEST DUP5 ADD SWAP1 PUSH32 0x204C756B736F4C6F6F6769657320617661696C61626C65206F6E206120707269 PUSH1 0x95 DUP4 ADD MSTORE PUSH32 0x636520637572766520696E6372656173696E6720302E32252077697468206561 PUSH1 0xB5 DUP4 ADD MSTORE PUSH32 0x6368206E6577206D696E742E2054686973204D61747269782045646974696F6E PUSH1 0xD5 DUP4 ADD MSTORE PUSH32 0x20666561747572657320616E696D61746564204D61747269782D7374796C6520 PUSH1 0xF5 DUP4 ADD MSTORE PUSH32 0x64657369676E7320666F722065616368204C6F6F6769652E222C000000000000 PUSH2 0x115 DUP4 ADD MSTORE PUSH32 0x226C696E6B73223A5B7B227469746C65223A2257656273697465222C2275726C PUSH2 0x12F DUP4 ADD MSTORE PUSH32 0x223A2268747470733A2F2F6C756B736F6C6F6F676965732E76657263656C2E61 PUSH2 0x14F DUP4 ADD MSTORE PUSH32 0x7070227D2C7B227469746C65223A2254776974746572222C2275726C223A2268 PUSH2 0x16F DUP4 ADD MSTORE PUSH32 0x747470733A2F2F747769747465722E636F6D2F6C756B736F4C6F6F6769657322 PUSH2 0x18F DUP4 ADD MSTORE PUSH3 0x1F574B PUSH1 0xEA SHL PUSH2 0x1AF DUP4 ADD MSTORE PUSH32 0x22696D61676573223A5B5B7B227769647468223A3430302C2268656967687422 PUSH2 0x1B2 DUP4 ADD MSTORE PUSH12 0x1D1A181816113AB936111D11 PUSH1 0xA1 SHL PUSH2 0x1D2 DUP4 ADD MSTORE MLOAD SWAP1 PUSH3 0xDCD DUP3 PUSH2 0x1DE SWAP5 DUP6 DUP5 ADD SWAP1 PUSH3 0x1735 JUMP JUMPDEST ADD SWAP1 PUSH5 0x89F57574B PUSH1 0xDA SHL SWAP1 DUP3 ADD MSTORE PUSH14 0x2261747472696275746573223A5B PUSH1 0x90 SHL PUSH2 0x1E3 DUP3 ADD MSTORE PUSH32 0x7B226B6579223A2274797065222C2276616C7565223A22636F6C6C656374696F PUSH2 0x1F1 DUP3 ADD MSTORE PUSH32 0x6E222C2274797065223A22737472696E67227D2C000000000000000000000000 PUSH2 0x211 DUP3 ADD MSTORE PUSH32 0x7B226B6579223A226C696D6974222C2276616C7565223A000000000000000000 PUSH2 0x225 DUP3 ADD MSTORE DUP2 MLOAD SWAP1 PUSH3 0xE82 DUP3 PUSH2 0x23C SWAP5 PUSH1 0x20 DUP7 DUP6 ADD SWAP2 ADD PUSH3 0x1735 JUMP JUMPDEST PUSH18 0xB089D1E5C19488E889B9D5B58995C889F4B PUSH1 0x72 SHL SWAP2 ADD SWAP2 DUP3 ADD MSTORE PUSH32 0x7B226B6579223A226375727665222C2276616C7565223A3130302E322C227479 PUSH2 0x24E DUP3 ADD MSTORE PUSH13 0x7065223A226E756D626572227D PUSH1 0x98 SHL PUSH2 0x26E DUP3 ADD MSTORE PUSH1 0x5D PUSH1 0xF8 SHL PUSH2 0x27B DUP3 ADD MSTORE PUSH2 0x7D7D PUSH1 0xF0 SHL PUSH2 0x27C DUP3 ADD MSTORE SUB PUSH2 0x25E DUP2 ADD DUP8 MSTORE ADD DUP6 PUSH3 0x16A3 JUMP JUMPDEST PUSH3 0xF0E DUP5 PUSH3 0x1897 JUMP JUMPDEST SWAP1 PUSH1 0x40 MLOAD SWAP5 PUSH3 0xF68 PUSH1 0x3D DUP8 PUSH1 0x20 DUP2 ADD SWAP6 PUSH32 0x646174613A6170706C69636174696F6E2F6A736F6E3B6261736536342C000000 DUP8 MSTORE PUSH3 0xF57 DUP2 MLOAD DUP1 SWAP3 PUSH1 0x20 DUP7 DUP7 ADD SWAP2 ADD PUSH3 0x1735 JUMP JUMPDEST DUP2 ADD SUB PUSH1 0x1D DUP2 ADD DUP10 MSTORE ADD DUP8 PUSH3 0x16A3 JUMP JUMPDEST MLOAD SWAP1 KECCAK256 SWAP1 PUSH3 0xF97 PUSH1 0x40 MLOAD SWAP6 DUP7 SWAP4 PUSH6 0x379ABE35001 PUSH1 0xC5 SHL PUSH1 0x20 DUP7 ADD MSTORE PUSH1 0x28 DUP6 ADD MSTORE MLOAD DUP1 SWAP3 DUP6 DUP6 ADD SWAP1 PUSH3 0x1735 JUMP JUMPDEST DUP2 ADD SUB PUSH1 0x28 DUP2 ADD DUP5 MSTORE ADD DUP3 PUSH3 0x16A3 JUMP JUMPDEST PUSH1 0x0 DUP1 MLOAD PUSH1 0x20 PUSH3 0x7890 DUP4 CODECOPY DUP2 MLOAD SWAP2 MSTORE PUSH1 0x0 MSTORE PUSH1 0x1 PUSH1 0x20 MSTORE DUP1 MLOAD PUSH32 0xCE0CB05D718CBAC69F1841EA88F1ECBBD18B24F05BA47C3A562737C9F52148F3 SWAP1 PUSH1 0x1 PUSH1 0x1 PUSH1 0x40 SHL SUB DUP2 GT PUSH3 0x7AE JUMPI PUSH3 0x1004 DUP2 PUSH3 0x118 DUP5 SLOAD PUSH3 0x175A JUMP JUMPDEST PUSH1 0x20 PUSH1 0x1F DUP3 GT PUSH1 0x1 EQ PUSH3 0x132E JUMPI SWAP3 PUSH1 0x0 DUP1 MLOAD PUSH1 0x20 PUSH3 0x78D0 DUP4 CODECOPY DUP2 MLOAD SWAP2 MSTORE SWAP3 DUP3 PUSH3 0x1063 SWAP4 PUSH1 0x0 DUP1 MLOAD PUSH1 0x20 PUSH3 0x7890 DUP4 CODECOPY DUP2 MLOAD SWAP2 MSTORE SWAP7 PUSH1 0x0 SWAP2 PUSH3 0x122B JUMPI POP DUP2 PUSH1 0x1 SHL SWAP2 PUSH1 0x0 NOT SWAP1 PUSH1 0x3 SHL SHR NOT AND OR SWAP1 SSTORE PUSH1 0x40 MLOAD SWAP2 DUP3 SWAP2 DUP3 PUSH3 0x17FC JUMP JUMPDEST SUB SWAP1 LOG2 PUSH1 0x40 MLOAD PUSH2 0xE90 PUSH1 0x20 DUP3 ADD MSTORE PUSH1 0x20 DUP2 MSTORE PUSH3 0x1080 DUP2 PUSH3 0x1687 JUMP JUMPDEST PUSH1 0x0 DUP1 MLOAD PUSH1 0x20 PUSH3 0x78B0 DUP4 CODECOPY DUP2 MLOAD SWAP2 MSTORE PUSH1 0x0 MSTORE PUSH1 0x1 PUSH1 0x20 MSTORE DUP1 MLOAD PUSH32 0x4CBD1F2D64C647609FA4BDD3A58236F5DE1700B67AD10769949E53A351C3EA31 SWAP1 PUSH1 0x1 PUSH1 0x1 PUSH1 0x40 SHL SUB DUP2 GT PUSH3 0x7AE JUMPI PUSH3 0x10DC DUP2 PUSH3 0x118 DUP5 SLOAD PUSH3 0x175A JUMP JUMPDEST PUSH1 0x20 PUSH1 0x1F DUP3 GT PUSH1 0x1 EQ PUSH3 0x12B7 JUMPI SWAP3 PUSH1 0x0 DUP1 MLOAD PUSH1 0x20 PUSH3 0x78D0 DUP4 CODECOPY DUP2 MLOAD SWAP2 MSTORE SWAP3 DUP3 PUSH3 0x113B SWAP4 PUSH1 0x0 DUP1 MLOAD PUSH1 0x20 PUSH3 0x78B0 DUP4 CODECOPY DUP2 MLOAD SWAP2 MSTORE SWAP7 PUSH1 0x0 SWAP2 PUSH3 0x122B JUMPI POP DUP2 PUSH1 0x1 SHL SWAP2 PUSH1 0x0 NOT SWAP1 PUSH1 0x3 SHL SHR NOT AND OR SWAP1 SSTORE PUSH1 0x40 MLOAD SWAP2 DUP3 SWAP2 DUP3 PUSH3 0x17FC JUMP JUMPDEST SUB SWAP1 LOG2 PUSH1 0x40 MLOAD PUSH2 0xE90 PUSH1 0x20 DUP3 ADD MSTORE PUSH1 0x20 DUP2 MSTORE PUSH3 0x1158 DUP2 PUSH3 0x1687 JUMP JUMPDEST PUSH32 0xD28C95357CF4C94D638A4F572D5D3DF8D7E1415C8B650E747A219C559D1435C8 PUSH1 0x0 DUP2 SWAP1 MSTORE PUSH1 0x1 PUSH1 0x20 MSTORE DUP2 MLOAD SWAP2 PUSH32 0x9613C0ADFC28E5910313E791AD5AE672B5566422415144580003DC3FF108DD2D PUSH1 0x1 PUSH1 0x1 PUSH1 0x40 SHL SUB DUP5 GT PUSH3 0x7AE JUMPI PUSH3 0x11C7 DUP5 PUSH3 0x1CF DUP4 SLOAD PUSH3 0x175A JUMP JUMPDEST PUSH1 0x20 SWAP4 PUSH1 0x1F DUP2 GT PUSH1 0x1 EQ PUSH3 0x1237 JUMPI SWAP1 DUP2 PUSH3 0x1218 SWAP4 SWAP3 PUSH1 0x0 DUP1 MLOAD PUSH1 0x20 PUSH3 0x78D0 DUP4 CODECOPY DUP2 MLOAD SWAP2 MSTORE SWAP6 SWAP7 PUSH1 0x0 SWAP2 PUSH3 0x122B JUMPI POP DUP2 PUSH1 0x1 SHL SWAP2 PUSH1 0x0 NOT SWAP1 PUSH1 0x3 SHL SHR NOT AND OR SWAP1 SSTORE PUSH1 0x40 MLOAD SWAP2 DUP3 SWAP2 DUP3 PUSH3 0x17FC JUMP JUMPDEST SUB SWAP1 LOG2 PUSH1 0x40 MLOAD PUSH2 0x5D69 SWAP1 DUP2 PUSH3 0x1B07 DUP3 CODECOPY RETURN JUMPDEST SWAP1 POP DUP4 ADD MLOAD DUP8 PUSH3 0x14F JUMP JUMPDEST PUSH1 0x1F NOT DUP2 AND DUP3 PUSH1 0x0 MSTORE PUSH1 0x20 PUSH1 0x0 KECCAK256 SWAP1 PUSH1 0x0 JUMPDEST DUP2 DUP2 LT PUSH3 0x129E JUMPI POP SWAP2 PUSH1 0x1 SWAP2 PUSH1 0x0 DUP1 MLOAD PUSH1 0x20 PUSH3 0x78D0 DUP4 CODECOPY DUP2 MLOAD SWAP2 MSTORE SWAP7 SWAP8 DUP3 PUSH3 0x1218 SWAP8 SWAP7 SWAP6 LT PUSH3 0x1284 JUMPI JUMPDEST POP POP DUP2 SHL ADD SWAP1 SSTORE PUSH3 0x163 JUMP JUMPDEST DUP6 ADD MLOAD PUSH1 0x0 NOT PUSH1 0xF8 DUP5 PUSH1 0x3 SHL AND SHR NOT AND SWAP1 SSTORE DUP8 DUP1 PUSH3 0x1277 JUMP JUMPDEST DUP6 DUP9 ADD MLOAD DUP4 SSTORE PUSH1 0x20 SWAP8 DUP9 ADD SWAP8 PUSH1 0x1 SWAP1 SWAP4 ADD SWAP3 ADD PUSH3 0x1249 JUMP JUMPDEST DUP3 PUSH1 0x0 MSTORE PUSH1 0x20 PUSH1 0x0 KECCAK256 SWAP1 PUSH1 0x0 JUMPDEST PUSH1 0x1F NOT DUP5 AND DUP2 LT PUSH3 0x1315 JUMPI POP SWAP3 PUSH1 0x1 DUP4 PUSH1 0x0 DUP1 MLOAD PUSH1 0x20 PUSH3 0x78B0 DUP4 CODECOPY DUP2 MLOAD SWAP2 MSTORE SWAP7 SWAP4 PUSH1 0x0 DUP1 MLOAD PUSH1 0x20 PUSH3 0x78D0 DUP4 CODECOPY DUP2 MLOAD SWAP2 MSTORE SWAP7 PUSH3 0x113B SWAP7 PUSH1 0x1F NOT DUP2 AND LT PUSH3 0x1284 JUMPI POP POP DUP2 SHL ADD SWAP1 SSTORE PUSH3 0x163 JUMP JUMPDEST SWAP1 SWAP2 PUSH1 0x20 PUSH1 0x1 DUP2 SWAP3 DUP6 DUP10 ADD MLOAD DUP2 SSTORE ADD SWAP4 ADD SWAP2 ADD PUSH3 0x12C4 JUMP JUMPDEST DUP3 PUSH1 0x0 MSTORE PUSH1 0x20 PUSH1 0x0 KECCAK256 SWAP1 PUSH1 0x0 JUMPDEST PUSH1 0x1F NOT DUP5 AND DUP2 LT PUSH3 0x138C JUMPI POP SWAP3 PUSH1 0x1 DUP4 PUSH1 0x0 DUP1 MLOAD PUSH1 0x20 PUSH3 0x7890 DUP4 CODECOPY DUP2 MLOAD SWAP2 MSTORE SWAP7 SWAP4 PUSH1 0x0 DUP1 MLOAD PUSH1 0x20 PUSH3 0x78D0 DUP4 CODECOPY DUP2 MLOAD SWAP2 MSTORE SWAP7 PUSH3 0x1063 SWAP7 PUSH1 0x1F NOT DUP2 AND LT PUSH3 0x1284 JUMPI POP POP DUP2 SHL ADD SWAP1 SSTORE PUSH3 0x163 JUMP JUMPDEST SWAP1 SWAP2 PUSH1 0x20 PUSH1 0x1 DUP2 SWAP3 DUP6 DUP10 ADD MLOAD DUP2 SSTORE ADD SWAP4 ADD SWAP2 ADD PUSH3 0x133B JUMP JUMPDEST PUSH1 0x0 MSTORE PUSH1 0x20 PUSH1 0x0 KECCAK256 SWAP1 DUP2 ADD SWAP1 JUMPDEST DUP2 DUP2 LT ISZERO PUSH3 0x652 JUMPI DUP1 PUSH3 0x13CA PUSH1 0x1 SWAP3 SLOAD PUSH3 0x175A JUMP JUMPDEST DUP1 PUSH3 0x13D9 JUMPI JUMPDEST POP ADD PUSH3 0x13B2 JUMP JUMPDEST PUSH1 0x1F DUP2 GT DUP4 EQ PUSH3 0x13F1 JUMPI POP PUSH1 0x0 DUP2 SSTORE JUMPDEST CODESIZE PUSH3 0x13D1 JUMP JUMPDEST PUSH1 0x0 SWAP1 DUP3 DUP3 MSTORE PUSH3 0x1411 PUSH1 0x1F PUSH1 0x20 DUP5 KECCAK256 SWAP3 ADD PUSH1 0x5 SHR DUP3 ADD DUP6 DUP4 ADD PUSH3 0x1797 JUMP JUMPDEST DUP2 DUP4 SSTORE SSTORE PUSH3 0x13EA JUMP JUMPDEST DUP1 PUSH1 0x20 DUP1 SWAP3 DUP6 ADD ADD MLOAD DUP2 DUP5 ADD MSTORE ADD PUSH3 0x62F JUMP JUMPDEST DUP1 PUSH1 0x60 PUSH1 0x20 DUP1 SWAP4 DUP6 ADD ADD MSTORE ADD PUSH3 0x4E8 JUMP JUMPDEST SWAP1 POP DUP4 ADD MLOAD CODESIZE PUSH3 0x14F JUMP JUMPDEST PUSH1 0x1F NOT DUP2 AND DUP3 PUSH1 0x0 MSTORE PUSH1 0x20 PUSH1 0x0 KECCAK256 SWAP1 PUSH1 0x0 JUMPDEST DUP2 DUP2 LT PUSH3 0x14B3 JUMPI POP SWAP2 PUSH1 0x1 SWAP2 PUSH1 0x0 DUP1 MLOAD PUSH1 0x20 PUSH3 0x78D0 DUP4 CODECOPY DUP2 MLOAD SWAP2 MSTORE SWAP7 SWAP8 DUP3 PUSH3 0x4B2 SWAP8 SWAP7 SWAP6 LT PUSH3 0x1499 JUMPI POP POP DUP2 SHL ADD SWAP1 SSTORE PUSH3 0x163 JUMP JUMPDEST DUP6 ADD MLOAD PUSH1 0x0 NOT PUSH1 0xF8 DUP5 PUSH1 0x3 SHL AND SHR NOT AND SWAP1 SSTORE CODESIZE DUP1 PUSH3 0x1277 JUMP JUMPDEST DUP6 DUP9 ADD MLOAD DUP4 SSTORE PUSH1 0x20 SWAP8 DUP9 ADD SWAP8 PUSH1 0x1 SWAP1 SWAP4 ADD SWAP3 ADD PUSH3 0x145F JUMP JUMPDEST PUSH1 0x1F NOT DUP2 AND DUP3 PUSH1 0x0 MSTORE PUSH1 0x20 PUSH1 0x0 KECCAK256 SWAP1 PUSH1 0x0 JUMPDEST DUP2 DUP2 LT PUSH3 0x1518 JUMPI POP SWAP2 PUSH1 0x1 SWAP2 PUSH1 0x0 DUP1 MLOAD PUSH1 0x20 PUSH3 0x78D0 DUP4 CODECOPY DUP2 MLOAD SWAP2 MSTORE SWAP7 SWAP8 DUP3 PUSH3 0x3D6 SWAP8 SWAP7 SWAP6 LT PUSH3 0x1499 JUMPI POP POP DUP2 SHL ADD SWAP1 SSTORE PUSH3 0x163 JUMP JUMPDEST DUP6 DUP9 ADD MLOAD DUP4 SSTORE PUSH1 0x20 SWAP8 DUP9 ADD SWAP8 PUSH1 0x1 SWAP1 SWAP4 ADD SWAP3 ADD PUSH3 0x14DE JUMP JUMPDEST PUSH1 0x1F NOT DUP2 AND DUP3 PUSH1 0x0 MSTORE PUSH1 0x20 PUSH1 0x0 KECCAK256 SWAP1 PUSH1 0x0 JUMPDEST DUP2 DUP2 LT PUSH3 0x157D JUMPI POP SWAP2 PUSH1 0x1 SWAP2 PUSH1 0x0 DUP1 MLOAD PUSH1 0x20 PUSH3 0x78D0 DUP4 CODECOPY DUP2 MLOAD SWAP2 MSTORE SWAP7 SWAP8 DUP3 PUSH3 0x2FA SWAP8 SWAP7 SWAP6 LT PUSH3 0x1499 JUMPI POP POP DUP2 SHL ADD SWAP1 SSTORE PUSH3 0x163 JUMP JUMPDEST DUP6 DUP9 ADD MLOAD DUP4 SSTORE PUSH1 0x20 SWAP8 DUP9 ADD SWAP8 PUSH1 0x1 SWAP1 SWAP4 ADD SWAP3 ADD PUSH3 0x1543 JUMP JUMPDEST PUSH1 0x1F NOT DUP2 AND DUP3 PUSH1 0x0 MSTORE PUSH1 0x20 PUSH1 0x0 KECCAK256 SWAP1 PUSH1 0x0 JUMPDEST DUP2 DUP2 LT PUSH3 0x15F2 JUMPI POP DUP3 PUSH3 0x237 SWAP5 SWAP3 PUSH1 0x0 DUP1 MLOAD PUSH1 0x20 PUSH3 0x7870 DUP4 CODECOPY DUP2 MLOAD SWAP2 MSTORE SWAP8 SWAP9 PUSH1 0x0 DUP1 MLOAD PUSH1 0x20 PUSH3 0x78D0 DUP4 CODECOPY DUP2 MLOAD SWAP2 MSTORE SWAP8 SWAP6 PUSH1 0x1 SWAP5 LT PUSH3 0x1499 JUMPI POP POP DUP2 SHL ADD SWAP1 SSTORE PUSH3 0x163 JUMP JUMPDEST DUP6 DUP9 ADD MLOAD DUP4 SSTORE PUSH1 0x20 SWAP8 DUP9 ADD SWAP8 PUSH1 0x1 SWAP1 SWAP4 ADD SWAP3 ADD PUSH3 0x15A8 JUMP JUMPDEST PUSH1 0x1F NOT DUP3 AND SWAP1 DUP4 PUSH1 0x0 MSTORE PUSH1 0x20 PUSH1 0x0 KECCAK256 SWAP2 PUSH1 0x0 JUMPDEST DUP2 DUP2 LT PUSH3 0x1657 JUMPI POP SWAP3 PUSH3 0x170 SWAP5 SWAP3 PUSH1 0x1 SWAP3 DUP3 PUSH1 0x0 DUP1 MLOAD PUSH1 0x20 PUSH3 0x78D0 DUP4 CODECOPY DUP2 MLOAD SWAP2 MSTORE SWAP9 SWAP7 LT PUSH3 0x1499 JUMPI POP POP DUP2 SHL ADD SWAP1 SSTORE PUSH3 0x163 JUMP JUMPDEST SWAP2 SWAP3 PUSH1 0x20 PUSH1 0x1 DUP2 SWAP3 DUP7 DUP11 ADD MLOAD DUP2 SSTORE ADD SWAP5 ADD SWAP3 ADD PUSH3 0x161E JUMP JUMPDEST PUSH1 0x40 MLOAD PUSH4 0x6B620DB PUSH1 0xE2 SHL DUP2 MSTORE PUSH1 0x4 SWAP1 REVERT JUMPDEST PUSH1 0x0 DUP1 REVERT JUMPDEST PUSH1 0x40 DUP2 ADD SWAP1 DUP2 LT PUSH1 0x1 PUSH1 0x1 PUSH1 0x40 SHL SUB DUP3 GT OR PUSH3 0x7AE JUMPI PUSH1 0x40 MSTORE JUMP JUMPDEST PUSH1 0x1F SWAP1 SWAP2 ADD PUSH1 0x1F NOT AND DUP2 ADD SWAP1 PUSH1 0x1 PUSH1 0x1 PUSH1 0x40 SHL SUB DUP3 GT SWAP1 DUP3 LT OR PUSH3 0x7AE JUMPI PUSH1 0x40 MSTORE JUMP JUMPDEST PUSH1 0x1 PUSH1 0x1 PUSH1 0x40 SHL SUB DUP2 GT PUSH3 0x7AE JUMPI PUSH1 0x1F ADD PUSH1 0x1F NOT AND PUSH1 0x20 ADD SWAP1 JUMP JUMPDEST DUP1 MLOAD ISZERO PUSH3 0x7C4 JUMPI PUSH1 0x20 ADD SWAP1 JUMP JUMPDEST DUP1 MLOAD PUSH1 0x1 LT ISZERO PUSH3 0x7C4 JUMPI PUSH1 0x40 ADD SWAP1 JUMP JUMPDEST DUP1 MLOAD PUSH1 0x2 LT ISZERO PUSH3 0x7C4 JUMPI PUSH1 0x60 ADD SWAP1 JUMP JUMPDEST DUP1 MLOAD PUSH1 0x3 LT ISZERO PUSH3 0x7C4 JUMPI PUSH1 0x80 ADD SWAP1 JUMP JUMPDEST DUP1 MLOAD PUSH1 0x4 LT ISZERO PUSH3 0x7C4 JUMPI PUSH1 0xA0 ADD SWAP1 JUMP JUMPDEST PUSH1 0x0 JUMPDEST DUP4 DUP2 LT PUSH3 0x1749 JUMPI POP POP PUSH1 0x0 SWAP2 ADD MSTORE JUMP JUMPDEST DUP2 DUP2 ADD MLOAD DUP4 DUP3 ADD MSTORE PUSH1 0x20 ADD PUSH3 0x1738 JUMP JUMPDEST SWAP1 PUSH1 0x1 DUP3 DUP2 SHR SWAP3 AND DUP1 ISZERO PUSH3 0x178C JUMPI JUMPDEST PUSH1 0x20 DUP4 LT EQ PUSH3 0x1776 JUMPI JUMP JUMPDEST PUSH4 0x4E487B71 PUSH1 0xE0 SHL PUSH1 0x0 MSTORE PUSH1 0x22 PUSH1 0x4 MSTORE PUSH1 0x24 PUSH1 0x0 REVERT JUMPDEST SWAP2 PUSH1 0x7F AND SWAP2 PUSH3 0x176A JUMP JUMPDEST DUP2 DUP2 LT PUSH3 0x17A3 JUMPI POP POP JUMP JUMPDEST PUSH1 0x0 DUP2 SSTORE PUSH1 0x1 ADD PUSH3 0x1797 JUMP JUMPDEST SWAP2 SWAP1 PUSH1 0x1F DUP2 GT PUSH3 0x17C0 JUMPI POP POP POP JUMP JUMPDEST PUSH3 0x17EF SWAP3 PUSH1 0x0 MSTORE PUSH1 0x20 PUSH1 0x0 KECCAK256 SWAP1 PUSH1 0x20 PUSH1 0x1F DUP5 ADD PUSH1 0x5 SHR DUP4 ADD SWAP4 LT PUSH3 0x17F1 JUMPI JUMPDEST PUSH1 0x1F ADD PUSH1 0x5 SHR ADD SWAP1 PUSH3 0x1797 JUMP JUMPDEST JUMP JUMPDEST SWAP1 SWAP2 POP DUP2 SWAP1 PUSH3 0x17E1 JUMP JUMPDEST PUSH1 0x40 SWAP2 PUSH1 0x20 DUP3 MSTORE PUSH3 0x181E DUP2 MLOAD DUP1 SWAP3 DUP2 PUSH1 0x20 DUP7 ADD MSTORE PUSH1 0x20 DUP7 DUP7 ADD SWAP2 ADD PUSH3 0x1735 JUMP JUMPDEST PUSH1 0x1F ADD PUSH1 0x1F NOT AND ADD ADD SWAP1 JUMP JUMPDEST PUSH1 0x0 DUP1 SLOAD PUSH1 0x1 PUSH1 0x1 PUSH1 0xA0 SHL SUB SWAP3 DUP4 AND PUSH1 0x1 PUSH1 0x1 PUSH1 0xA0 SHL SUB NOT DUP3 AND DUP2 OR DUP4 SSTORE SWAP3 AND SWAP1 PUSH32 0x8BE0079C531659141344CD1FD0A4F28419497F9722A3DAAFE3B4186F6B6457E0 SWAP1 DUP1 LOG3 JUMP JUMPDEST PUSH1 0x0 NOT DUP2 EQ PUSH3 0x1881 JUMPI PUSH1 0x1 ADD SWAP1 JUMP JUMPDEST PUSH4 0x4E487B71 PUSH1 0xE0 SHL PUSH1 0x0 MSTORE PUSH1 0x11 PUSH1 0x4 MSTORE PUSH1 0x24 PUSH1 0x0 REVERT JUMPDEST DUP1 MLOAD ISZERO PUSH3 0x1A16 JUMPI PUSH1 0x40 MLOAD SWAP1 PUSH1 0x60 DUP3 ADD PUSH1 0x1 PUSH1 0x1 PUSH1 0x40 SHL SUB DUP2 GT DUP4 DUP3 LT OR PUSH3 0x7AE JUMPI PUSH1 0x40 MSTORE PUSH1 0x40 DUP3 MSTORE PUSH32 0x4142434445464748494A4B4C4D4E4F505152535455565758595A616263646566 PUSH1 0x20 DUP4 ADD MSTORE PUSH32 0x6768696A6B6C6D6E6F707172737475767778797A303132333435363738392B2F PUSH1 0x40 DUP4 ADD MSTORE DUP1 MLOAD PUSH1 0x2 SWAP2 DUP3 DUP3 ADD DUP1 SWAP3 GT PUSH3 0x1881 JUMPI PUSH1 0x3 SWAP2 DUP3 SWAP1 DIV DUP1 DUP5 SHL SWAP5 SWAP1 PUSH1 0x1 PUSH1 0x1 PUSH1 0xFE SHL SUB DUP2 AND SUB PUSH3 0x1881 JUMPI SWAP3 PUSH3 0x1961 PUSH3 0x1948 DUP7 PUSH3 0x16C7 JUMP JUMPDEST SWAP6 PUSH3 0x1958 PUSH1 0x40 MLOAD SWAP8 DUP9 PUSH3 0x16A3 JUMP JUMPDEST DUP1 DUP8 MSTORE PUSH3 0x16C7 JUMP JUMPDEST PUSH1 0x20 DUP7 ADD SWAP1 PUSH1 0x1F NOT ADD CALLDATASIZE DUP3 CALLDATACOPY SWAP4 DUP3 SWAP2 DUP4 MLOAD DUP5 ADD SWAP1 PUSH1 0x20 DUP3 ADD SWAP3 DUP4 MLOAD SWAP5 PUSH1 0x0 DUP6 MSTORE JUMPDEST DUP4 DUP2 LT PUSH3 0x19C4 JUMPI POP POP POP POP MSTORE MLOAD MOD DUP1 PUSH1 0x1 EQ PUSH3 0x19B1 JUMPI PUSH1 0x2 EQ PUSH3 0x19A6 JUMPI POP SWAP1 JUMP JUMPDEST PUSH1 0x3D SWAP1 PUSH1 0x0 NOT ADD MSTORE8 SWAP1 JUMP JUMPDEST POP PUSH1 0x3D SWAP1 DUP2 PUSH1 0x0 NOT DUP3 ADD MSTORE8 PUSH1 0x1 NOT ADD MSTORE8 SWAP1 JUMP JUMPDEST DUP8 PUSH1 0x4 SWAP2 SWAP10 SWAP3 SWAP4 SWAP5 SWAP10 ADD SWAP2 DUP3 MLOAD PUSH1 0x1 SWAP1 PUSH1 0x3F SWAP1 DUP3 DUP3 DUP3 PUSH1 0x12 SHR AND DUP9 ADD ADD MLOAD DUP5 MSTORE8 DUP3 DUP3 DUP3 PUSH1 0xC SHR AND DUP9 ADD ADD MLOAD DUP4 DUP6 ADD MSTORE8 DUP3 DUP3 DUP3 PUSH1 0x6 SHR AND DUP9 ADD ADD MLOAD DUP9 DUP6 ADD MSTORE8 AND DUP6 ADD ADD MLOAD DUP10 DUP3 ADD MSTORE8 ADD SWAP8 SWAP3 SWAP2 SWAP1 PUSH3 0x1982 JUMP JUMPDEST POP PUSH1 0x40 MLOAD PUSH1 0x20 DUP2 ADD PUSH1 0x1 PUSH1 0x1 PUSH1 0x40 SHL SUB DUP2 GT DUP3 DUP3 LT OR PUSH3 0x7AE JUMPI PUSH1 0x40 MSTORE PUSH1 0x0 DUP2 MSTORE SWAP1 JUMP JUMPDEST PUSH1 0x0 PUSH2 0xE90 DUP1 JUMPDEST PUSH3 0x1AEF JUMPI POP PUSH3 0x1A53 DUP2 PUSH3 0x16C7 JUMP JUMPDEST SWAP1 PUSH3 0x1A63 PUSH1 0x40 MLOAD SWAP3 DUP4 PUSH3 0x16A3 JUMP JUMPDEST DUP1 DUP3 MSTORE PUSH1 0x1F NOT PUSH3 0x1A74 DUP3 PUSH3 0x16C7 JUMP JUMPDEST ADD SWAP1 PUSH1 0x20 SWAP2 CALLDATASIZE DUP4 DUP6 ADD CALLDATACOPY SWAP1 PUSH2 0xE90 DUP1 JUMPDEST PUSH3 0x1A8F JUMPI POP POP POP SWAP1 JUMP JUMPDEST PUSH1 0xA SWAP1 PUSH1 0x30 SWAP4 DUP3 DUP3 MOD DUP6 ADD DUP1 SWAP6 GT PUSH3 0x1881 JUMPI DUP1 ISZERO PUSH3 0x1881 JUMPI PUSH1 0x0 NOT ADD DUP1 SWAP5 DUP7 MLOAD DUP3 LT ISZERO PUSH3 0x7C4 JUMPI PUSH1 0xF8 SHL PUSH32 0xFF00000000000000000000000000000000000000000000000000000000000000 AND PUSH1 0x0 BYTE SWAP1 DUP7 ADD DUP5 ADD MSTORE8 DIV DUP1 PUSH3 0x1A84 JUMP JUMPDEST SWAP1 PUSH3 0x1AFD PUSH1 0xA SWAP2 PUSH3 0x1871 JUMP JUMPDEST SWAP2 DIV DUP1 PUSH3 0x1A42 JUMP INVALID PUSH1 0x80 PUSH1 0x40 MSTORE PUSH1 0x4 CALLDATASIZE LT ISZERO PUSH2 0x2A JUMPI JUMPDEST CALLDATASIZE ISZERO PUSH2 0x25 JUMPI PUSH2 0x1D CALLDATASIZE PUSH2 0x20EC JUMP JUMPDEST PUSH1 0x20 DUP2 MLOAD SWAP2 ADD RETURN JUMPDEST PUSH2 0x2138 JUMP JUMPDEST PUSH1 0x0 CALLDATALOAD PUSH1 0xE0 SHR DUP1 PUSH4 0x17C96B8 EQ PUSH2 0x315 JUMPI DUP1 PUSH4 0x1FFC9A7 EQ PUSH2 0x310 JUMPI DUP1 PUSH4 0x16E023B3 EQ PUSH2 0x30B JUMPI DUP1 PUSH4 0x18160DDD EQ PUSH2 0x306 JUMPI DUP1 PUSH4 0x1D26FCE6 EQ PUSH2 0x301 JUMPI DUP1 PUSH4 0x1EAD90B0 EQ PUSH2 0x2FC JUMPI DUP1 PUSH4 0x1EF0352D EQ PUSH2 0x2F7 JUMPI DUP1 PUSH4 0x1F85E3CA EQ PUSH2 0x2F2 JUMPI DUP1 PUSH4 0x217B2270 EQ PUSH2 0x2ED JUMPI DUP1 PUSH4 0x2A3654A4 EQ PUSH2 0x2E8 JUMPI DUP1 PUSH4 0x32CB6B0C EQ PUSH2 0x2C5 JUMPI DUP1 PUSH4 0x3BE699F9 EQ PUSH2 0x2E3 JUMPI DUP1 PUSH4 0x3F879FAF EQ PUSH2 0x2DE JUMPI DUP1 PUSH4 0x472DFCFB EQ PUSH2 0x2D9 JUMPI DUP1 PUSH4 0x49A6078D EQ PUSH2 0x2D4 JUMPI DUP1 PUSH4 0x511B6952 EQ PUSH2 0x2CF JUMPI DUP1 PUSH4 0x51CFF8D9 EQ PUSH2 0x2CA JUMPI DUP1 PUSH4 0x52058D8A EQ PUSH2 0x2C5 JUMPI DUP1 PUSH4 0x54F6127F EQ PUSH2 0x2C0 JUMPI DUP1 PUSH4 0x5A9C2B1C EQ PUSH2 0x2BB JUMPI DUP1 PUSH4 0x6643A686 EQ PUSH2 0x2B6 JUMPI DUP1 PUSH4 0x66D003AC EQ PUSH2 0x2B1 JUMPI DUP1 PUSH4 0x6963D438 EQ PUSH2 0x2AC JUMPI DUP1 PUSH4 0x70A08231 EQ PUSH2 0x2A7 JUMPI DUP1 PUSH4 0x715018A6 EQ PUSH2 0x2A2 JUMPI DUP1 PUSH4 0x76799136 EQ PUSH2 0x29D JUMPI DUP1 PUSH4 0x7E87632C EQ PUSH2 0x298 JUMPI DUP1 PUSH4 0x7F23690C EQ PUSH2 0x293 JUMPI DUP1 PUSH4 0x8528247F EQ PUSH2 0x28E JUMPI DUP1 PUSH4 0x86A10DDD EQ PUSH2 0x289 JUMPI DUP1 PUSH4 0x8CDA5103 EQ PUSH2 0x284 JUMPI DUP1 PUSH4 0x8D859F3E EQ PUSH2 0x27F JUMPI DUP1 PUSH4 0x8DA5CB5B EQ PUSH2 0x27A JUMPI DUP1 PUSH4 0x97902421 EQ PUSH2 0x275 JUMPI DUP1 PUSH4 0xA3B261F2 EQ PUSH2 0x270 JUMPI DUP1 PUSH4 0xAD30DDBF EQ PUSH2 0x26B JUMPI DUP1 PUSH4 0xBE9F0E6F EQ PUSH2 0x266 JUMPI DUP1 PUSH4 0xC65EB180 EQ PUSH2 0x261 JUMPI DUP1 PUSH4 0xC68B3787 EQ PUSH2 0x25C JUMPI DUP1 PUSH4 0xD445B978 EQ PUSH2 0x257 JUMPI DUP1 PUSH4 0xD6C1407C EQ PUSH2 0x252 JUMPI DUP1 PUSH4 0xDB8C9663 EQ PUSH2 0x24D JUMPI DUP1 PUSH4 0xDEDFF9C6 EQ PUSH2 0x248 JUMPI DUP1 PUSH4 0xEB93406B EQ PUSH2 0x243 JUMPI DUP1 PUSH4 0xF2FDE38B EQ PUSH2 0x23E JUMPI DUP1 PUSH4 0xF3BA2059 EQ PUSH2 0x239 JUMPI PUSH4 0xF76F950E SUB PUSH2 0xE JUMPI PUSH2 0x2035 JUMP JUMPDEST PUSH2 0x1E81 JUMP JUMPDEST PUSH2 0x1DBA JUMP JUMPDEST PUSH2 0x1C66 JUMP JUMPDEST PUSH2 0x1BDF JUMP JUMPDEST PUSH2 0x1ADE JUMP JUMPDEST PUSH2 0x1A98 JUMP JUMPDEST PUSH2 0x1A5B JUMP JUMPDEST PUSH2 0x19A6 JUMP JUMPDEST PUSH2 0x1970 JUMP JUMPDEST PUSH2 0x1881 JUMP JUMPDEST PUSH2 0x1861 JUMP JUMPDEST PUSH2 0x17E1 JUMP JUMPDEST PUSH2 0x171D JUMP JUMPDEST PUSH2 0x16F4 JUMP JUMPDEST PUSH2 0x16D1 JUMP JUMPDEST PUSH2 0x12D0 JUMP JUMPDEST PUSH2 0x114F JUMP JUMPDEST PUSH2 0x1122 JUMP JUMPDEST PUSH2 0x1037 JUMP JUMPDEST PUSH2 0xF9E JUMP JUMPDEST PUSH2 0xE1D JUMP JUMPDEST PUSH2 0xDBF JUMP JUMPDEST PUSH2 0xD82 JUMP JUMPDEST PUSH2 0xD1D JUMP JUMPDEST PUSH2 0xCEE JUMP JUMPDEST PUSH2 0xCC2 JUMP JUMPDEST PUSH2 0xC9F JUMP JUMPDEST PUSH2 0xC80 JUMP JUMPDEST PUSH2 0x992 JUMP JUMPDEST PUSH2 0xC2A JUMP JUMPDEST PUSH2 0xBC6 JUMP JUMPDEST PUSH2 0xB1C JUMP JUMPDEST PUSH2 0xADF JUMP JUMPDEST PUSH2 0x9F3 JUMP JUMPDEST PUSH2 0x9AF JUMP JUMPDEST PUSH2 0x95D JUMP JUMPDEST PUSH2 0x91C JUMP JUMPDEST PUSH2 0x8E2 JUMP JUMPDEST PUSH2 0x76F JUMP JUMPDEST PUSH2 0x6D6 JUMP JUMPDEST PUSH2 0x60D JUMP JUMPDEST PUSH2 0x48B JUMP JUMPDEST PUSH2 0x455 JUMP JUMPDEST PUSH2 0x346 JUMP JUMPDEST CALLVALUE PUSH2 0x341 JUMPI PUSH1 0x20 CALLDATASIZE PUSH1 0x3 NOT ADD SLT PUSH2 0x341 JUMPI PUSH1 0x4 CALLDATALOAD PUSH1 0x0 MSTORE PUSH1 0xB PUSH1 0x20 MSTORE PUSH1 0x20 PUSH1 0x40 PUSH1 0x0 KECCAK256 SLOAD PUSH1 0x40 MLOAD SWAP1 DUP2 MSTORE RETURN JUMPDEST PUSH1 0x0 DUP1 REVERT JUMPDEST CALLVALUE PUSH2 0x341 JUMPI PUSH1 0x20 CALLDATASIZE PUSH1 0x3 NOT ADD SLT PUSH2 0x341 JUMPI PUSH1 0x4 CALLDATALOAD PUSH1 0x1 PUSH1 0x1 PUSH1 0xE0 SHL SUB NOT DUP2 AND DUP1 DUP3 SUB PUSH2 0x341 JUMPI PUSH2 0x39D SWAP2 PUSH4 0x1D138B83 PUSH1 0xE1 SHL DUP3 EQ SWAP2 DUP3 ISZERO PUSH2 0x3B1 JUMPI JUMPDEST POP DUP2 ISZERO PUSH2 0x3A1 JUMPI JUMPDEST POP PUSH1 0x40 MLOAD SWAP1 ISZERO ISZERO DUP2 MSTORE SWAP1 DUP2 SWAP1 PUSH1 0x20 DUP3 ADD SWAP1 JUMP JUMPDEST SUB SWAP1 RETURN JUMPDEST PUSH2 0x3AB SWAP2 POP PUSH2 0x234F JUMP JUMPDEST CODESIZE PUSH2 0x38A JUMP JUMPDEST SWAP1 SWAP2 POP PUSH4 0xA918FA6B PUSH1 0xE0 SHL DUP2 EQ SWAP1 DUP2 ISZERO PUSH2 0x3CE JUMPI JUMPDEST POP SWAP1 CODESIZE PUSH2 0x382 JUMP JUMPDEST PUSH4 0x18A6A9A5 PUSH1 0xE2 SHL DUP2 EQ SWAP2 POP DUP2 ISZERO PUSH2 0x3E8 JUMPI JUMPDEST POP CODESIZE PUSH2 0x3C6 JUMP JUMPDEST PUSH4 0x1FFC9A7 PUSH1 0xE0 SHL EQ SWAP1 POP CODESIZE PUSH2 0x3E1 JUMP JUMPDEST PUSH1 0x0 JUMPDEST DUP4 DUP2 LT PUSH2 0x40C JUMPI POP POP PUSH1 0x0 SWAP2 ADD MSTORE JUMP JUMPDEST DUP2 DUP2 ADD MLOAD DUP4 DUP3 ADD MSTORE PUSH1 0x20 ADD PUSH2 0x3FC JUMP JUMPDEST SWAP1 PUSH1 0x20 SWAP2 PUSH2 0x435 DUP2 MLOAD DUP1 SWAP3 DUP2 DUP6 MSTORE DUP6 DUP1 DUP7 ADD SWAP2 ADD PUSH2 0x3F9 JUMP JUMPDEST PUSH1 0x1F ADD PUSH1 0x1F NOT AND ADD ADD SWAP1 JUMP JUMPDEST SWAP1 PUSH1 0x20 PUSH2 0x452 SWAP3 DUP2 DUP2 MSTORE ADD SWAP1 PUSH2 0x41C JUMP JUMPDEST SWAP1 JUMP JUMPDEST CALLVALUE PUSH2 0x341 JUMPI PUSH1 0x40 CALLDATASIZE PUSH1 0x3 NOT ADD SLT PUSH2 0x341 JUMPI PUSH2 0x39D PUSH2 0x477 PUSH1 0x24 CALLDATALOAD PUSH1 0x4 CALLDATALOAD PUSH2 0x5C19 JUMP JUMPDEST PUSH1 0x40 MLOAD SWAP2 DUP3 SWAP2 PUSH1 0x20 DUP4 MSTORE PUSH1 0x20 DUP4 ADD SWAP1 PUSH2 0x41C JUMP JUMPDEST CALLVALUE PUSH2 0x341 JUMPI PUSH1 0x0 CALLDATASIZE PUSH1 0x3 NOT ADD SLT PUSH2 0x341 JUMPI PUSH1 0x20 PUSH1 0x8 SLOAD PUSH1 0x40 MLOAD SWAP1 DUP2 MSTORE RETURN JUMPDEST PUSH4 0x4E487B71 PUSH1 0xE0 SHL PUSH1 0x0 MSTORE PUSH1 0x41 PUSH1 0x4 MSTORE PUSH1 0x24 PUSH1 0x0 REVERT JUMPDEST PUSH1 0x20 DUP2 ADD SWAP1 DUP2 LT PUSH1 0x1 PUSH1 0x1 PUSH1 0x40 SHL SUB DUP3 GT OR PUSH2 0x4DA JUMPI PUSH1 0x40 MSTORE JUMP JUMPDEST PUSH2 0x4A9 JUMP JUMPDEST PUSH1 0x40 DUP2 ADD SWAP1 DUP2 LT PUSH1 0x1 PUSH1 0x1 PUSH1 0x40 SHL SUB DUP3 GT OR PUSH2 0x4DA JUMPI PUSH1 0x40 MSTORE JUMP JUMPDEST PUSH1 0x60 DUP2 ADD SWAP1 DUP2 LT PUSH1 0x1 PUSH1 0x1 PUSH1 0x40 SHL SUB DUP3 GT OR PUSH2 0x4DA JUMPI PUSH1 0x40 MSTORE JUMP JUMPDEST SWAP1 PUSH1 0x1F DUP1 NOT SWAP2 ADD AND DUP2 ADD SWAP1 DUP2 LT PUSH1 0x1 PUSH1 0x1 PUSH1 0x40 SHL SUB DUP3 GT OR PUSH2 0x4DA JUMPI PUSH1 0x40 MSTORE JUMP JUMPDEST PUSH1 0x1 PUSH1 0x1 PUSH1 0x40 SHL SUB DUP2 GT PUSH2 0x4DA JUMPI PUSH1 0x5 SHL PUSH1 0x20 ADD SWAP1 JUMP JUMPDEST DUP2 PUSH1 0x1F DUP3 ADD SLT ISZERO PUSH2 0x341 JUMPI DUP1 CALLDATALOAD SWAP2 PUSH2 0x564 DUP4 PUSH2 0x536 JUMP JUMPDEST SWAP3 PUSH2 0x572 PUSH1 0x40 MLOAD SWAP5 DUP6 PUSH2 0x515 JUMP JUMPDEST DUP1 DUP5 MSTORE PUSH1 0x20 SWAP3 DUP4 DUP1 DUP7 ADD SWAP3 PUSH1 0x5 SHL DUP3 ADD ADD SWAP3 DUP4 GT PUSH2 0x341 JUMPI DUP4 ADD SWAP1 JUMPDEST DUP3 DUP3 LT PUSH2 0x59C JUMPI POP POP POP POP SWAP1 JUMP JUMPDEST DUP2 CALLDATALOAD DUP2 MSTORE SWAP1 DUP4 ADD SWAP1 DUP4 ADD PUSH2 0x58E JUMP JUMPDEST PUSH1 0x20 DUP1 DUP3 ADD SWAP1 DUP1 DUP4 MSTORE DUP4 MLOAD DUP1 SWAP3 MSTORE PUSH1 0x40 DUP4 ADD SWAP3 DUP2 PUSH1 0x40 DUP5 PUSH1 0x5 SHL DUP4 ADD ADD SWAP6 ADD SWAP4 PUSH1 0x0 SWAP2 JUMPDEST DUP5 DUP4 LT PUSH2 0x5DF JUMPI POP POP POP POP POP POP SWAP1 JUMP JUMPDEST SWAP1 SWAP2 SWAP3 SWAP4 SWAP5 SWAP6 DUP5 DUP1 PUSH2 0x5FD PUSH1 0x1 SWAP4 PUSH1 0x3F NOT DUP7 DUP3 SUB ADD DUP8 MSTORE DUP11 MLOAD PUSH2 0x41C JUMP JUMPDEST SWAP9 ADD SWAP4 ADD SWAP4 ADD SWAP2 SWAP5 SWAP4 SWAP3 SWAP1 PUSH2 0x5CF JUMP JUMPDEST CALLVALUE PUSH2 0x341 JUMPI PUSH1 0x40 CALLDATASIZE PUSH1 0x3 NOT ADD SLT PUSH2 0x341 JUMPI PUSH1 0x1 PUSH1 0x1 PUSH1 0x40 SHL SUB PUSH1 0x4 CALLDATALOAD DUP2 DUP2 GT PUSH2 0x341 JUMPI PUSH2 0x63E SWAP1 CALLDATASIZE SWAP1 PUSH1 0x4 ADD PUSH2 0x54D JUMP JUMPDEST SWAP1 PUSH1 0x24 CALLDATALOAD SWAP1 DUP2 GT PUSH2 0x341 JUMPI PUSH2 0x657 SWAP1 CALLDATASIZE SWAP1 PUSH1 0x4 ADD PUSH2 0x54D JUMP JUMPDEST SWAP1 DUP1 MLOAD DUP3 MLOAD SUB PUSH2 0x6C4 JUMPI PUSH2 0x66B DUP2 MLOAD PUSH2 0x2073 JUMP JUMPDEST SWAP2 PUSH1 0x0 JUMPDEST DUP3 MLOAD DUP2 LT ISZERO PUSH2 0x6B6 JUMPI DUP1 PUSH2 0x69A PUSH2 0x688 PUSH1 0x1 SWAP4 DUP7 PUSH2 0x20D3 JUMP JUMPDEST MLOAD PUSH2 0x693 DUP4 DUP7 PUSH2 0x20D3 JUMP JUMPDEST MLOAD SWAP1 PUSH2 0x5C19 JUMP JUMPDEST PUSH2 0x6A4 DUP3 DUP8 PUSH2 0x20D3 JUMP JUMPDEST MSTORE PUSH2 0x6AF DUP2 DUP7 PUSH2 0x20D3 JUMP JUMPDEST POP ADD PUSH2 0x66F JUMP JUMPDEST PUSH1 0x40 MLOAD DUP1 PUSH2 0x39D DUP7 DUP3 PUSH2 0x5AB JUMP JUMPDEST PUSH1 0x40 MLOAD PUSH4 0x17D38EFF PUSH1 0xE1 SHL DUP2 MSTORE PUSH1 0x4 SWAP1 REVERT JUMPDEST CALLVALUE PUSH2 0x341 JUMPI PUSH1 0x20 CALLDATASIZE PUSH1 0x3 NOT ADD SLT PUSH2 0x341 JUMPI PUSH1 0x4 CALLDATALOAD PUSH1 0x0 MSTORE PUSH1 0x9 PUSH1 0x20 MSTORE PUSH1 0x20 PUSH1 0x40 PUSH1 0x0 KECCAK256 SLOAD PUSH1 0xE8 SHL PUSH1 0x40 MLOAD SWAP1 PUSH3 0xFFFFFF PUSH1 0xE8 SHL AND DUP2 MSTORE RETURN JUMPDEST PUSH1 0x1 PUSH1 0x1 PUSH1 0x40 SHL SUB DUP2 GT PUSH2 0x4DA JUMPI PUSH1 0x1F ADD PUSH1 0x1F NOT AND PUSH1 0x20 ADD SWAP1 JUMP JUMPDEST DUP2 PUSH1 0x1F DUP3 ADD SLT ISZERO PUSH2 0x341 JUMPI DUP1 CALLDATALOAD SWAP1 PUSH2 0x73F DUP3 PUSH2 0x70D JUMP JUMPDEST SWAP3 PUSH2 0x74D PUSH1 0x40 MLOAD SWAP5 DUP6 PUSH2 0x515 JUMP JUMPDEST DUP3 DUP5 MSTORE PUSH1 0x20 DUP4 DUP4 ADD ADD GT PUSH2 0x341 JUMPI DUP2 PUSH1 0x0 SWAP3 PUSH1 0x20 DUP1 SWAP4 ADD DUP4 DUP7 ADD CALLDATACOPY DUP4 ADD ADD MSTORE SWAP1 JUMP JUMPDEST PUSH1 0x20 CALLDATASIZE PUSH1 0x3 NOT ADD SLT PUSH2 0x341 JUMPI PUSH1 0x4 CALLDATALOAD PUSH1 0x1 PUSH1 0x1 PUSH1 0x40 SHL SUB DUP2 GT PUSH2 0x341 JUMPI PUSH2 0x79D PUSH2 0x39D SWAP2 CALLDATASIZE SWAP1 PUSH1 0x4 ADD PUSH2 0x728 JUMP JUMPDEST PUSH2 0x7A5 PUSH2 0x5642 JUMP JUMPDEST PUSH2 0x7B9 PUSH2 0x7B4 PUSH1 0xE SLOAD PUSH1 0xFF AND SWAP1 JUMP JUMPDEST PUSH2 0x5504 JUMP JUMPDEST PUSH2 0x7C8 PUSH2 0xE90 PUSH1 0x8 SLOAD LT PUSH2 0x5550 JUMP JUMPDEST PUSH2 0x7DC PUSH8 0x16345785D8A0000 CALLVALUE LT ISZERO PUSH2 0x558B JUMP JUMPDEST CALLER PUSH1 0x0 SWAP1 DUP2 MSTORE PUSH1 0xF PUSH1 0x20 MSTORE PUSH1 0x40 SWAP1 KECCAK256 PUSH2 0x7FA SWAP1 PUSH1 0xA SWAP1 JUMPDEST SLOAD LT PUSH2 0x55C4 JUMP JUMPDEST CALLER PUSH1 0x0 SWAP1 DUP2 MSTORE PUSH1 0xF PUSH1 0x20 MSTORE PUSH1 0x40 SWAP1 KECCAK256 PUSH2 0x813 DUP2 SLOAD PUSH2 0x3417 JUMP JUMPDEST SWAP1 SSTORE PUSH2 0x828 PUSH2 0x823 PUSH1 0x8 SLOAD PUSH2 0x3417 JUMP JUMPDEST PUSH1 0x8 SSTORE JUMP JUMPDEST PUSH2 0x890 PUSH1 0x8 SLOAD SWAP2 PUSH2 0x838 NUMBER PUSH2 0x3224 JUMP JUMPDEST PUSH1 0x40 DUP1 MLOAD PUSH1 0x20 DUP2 ADD DUP7 DUP2 MSTORE SWAP3 BLOCKHASH SWAP2 DUP2 ADD SWAP2 SWAP1 SWAP2 MSTORE PUSH12 0xFFFFFFFFFFFFFFFFFFFFFFFF NOT CALLER PUSH1 0x60 SWAP1 DUP2 SHL DUP3 AND DUP2 DUP5 ADD MSTORE ADDRESS SWAP1 SHL AND PUSH1 0x74 DUP3 ADD MSTORE PUSH2 0x886 DUP2 PUSH1 0x88 DUP2 ADD JUMPDEST SUB PUSH1 0x1F NOT DUP2 ADD DUP4 MSTORE DUP3 PUSH2 0x515 JUMP JUMPDEST MLOAD SWAP1 KECCAK256 DUP4 CALLER PUSH2 0x5918 JUMP JUMPDEST PUSH2 0x8BE PUSH1 0x0 DUP1 DUP1 DUP1 CALLVALUE PUSH20 0xA81A6A910FED20374361B35C451A4A44F86CED46 GAS CALL PUSH2 0x8B8 PUSH2 0x21C1 JUMP JUMPDEST POP PUSH2 0x5605 JUMP JUMPDEST PUSH2 0x8C8 PUSH1 0x1 PUSH1 0x7 SSTORE JUMP JUMPDEST PUSH1 0x40 MLOAD SWAP1 DUP2 MSTORE SWAP1 DUP2 SWAP1 PUSH1 0x20 DUP3 ADD SWAP1 JUMP JUMPDEST DUP1 ISZERO ISZERO SUB PUSH2 0x341 JUMPI JUMP JUMPDEST CALLVALUE PUSH2 0x341 JUMPI PUSH1 0x20 CALLDATASIZE PUSH1 0x3 NOT ADD SLT PUSH2 0x341 JUMPI PUSH1 0x4 CALLDATALOAD PUSH2 0x8FF DUP2 PUSH2 0x8D8 JUMP JUMPDEST PUSH2 0x907 PUSH2 0x30A3 JUMP JUMPDEST PUSH1 0xFF DUP1 NOT PUSH1 0xE SLOAD AND SWAP2 ISZERO ISZERO AND OR PUSH1 0xE SSTORE PUSH1 0x0 DUP1 RETURN JUMPDEST CALLVALUE PUSH2 0x341 JUMPI PUSH1 0x20 CALLDATASIZE PUSH1 0x3 NOT ADD SLT PUSH2 0x341 JUMPI PUSH1 0x20 PUSH2 0x93A PUSH1 0x4 CALLDATALOAD PUSH2 0x266A JUMP JUMPDEST PUSH1 0x40 MLOAD PUSH1 0x1 PUSH1 0x1 PUSH1 0xA0 SHL SUB SWAP1 SWAP2 AND DUP2 MSTORE RETURN JUMPDEST PUSH1 0x1 PUSH1 0x1 PUSH1 0xA0 SHL SUB DUP2 AND SUB PUSH2 0x341 JUMPI JUMP JUMPDEST CALLVALUE PUSH2 0x341 JUMPI PUSH1 0x40 CALLDATASIZE PUSH1 0x3 NOT ADD SLT PUSH2 0x341 JUMPI PUSH1 0x20 PUSH2 0x988 PUSH1 0x4 CALLDATALOAD PUSH2 0x97F DUP2 PUSH2 0x94C JUMP JUMPDEST PUSH1 0x24 CALLDATALOAD SWAP1 PUSH2 0x27C1 JUMP JUMPDEST PUSH1 0x40 MLOAD SWAP1 ISZERO ISZERO DUP2 MSTORE RETURN JUMPDEST CALLVALUE PUSH2 0x341 JUMPI PUSH1 0x0 CALLDATASIZE PUSH1 0x3 NOT ADD SLT PUSH2 0x341 JUMPI PUSH1 0x20 PUSH1 0x40 MLOAD PUSH2 0xE90 DUP2 MSTORE RETURN JUMPDEST CALLVALUE PUSH2 0x341 JUMPI PUSH1 0x0 CALLDATASIZE PUSH1 0x3 NOT ADD SLT PUSH2 0x341 JUMPI PUSH2 0x9E5 PUSH2 0x39D PUSH2 0x9CE PUSH2 0x49E3 JUMP JUMPDEST PUSH1 0x40 SWAP3 SWAP2 SWAP3 MLOAD SWAP4 DUP5 SWAP4 PUSH1 0x40 DUP6 MSTORE PUSH1 0x40 DUP6 ADD SWAP1 PUSH2 0x41C JUMP JUMPDEST SWAP1 DUP4 DUP3 SUB PUSH1 0x20 DUP6 ADD MSTORE PUSH2 0x41C JUMP JUMPDEST CALLVALUE PUSH2 0x341 JUMPI PUSH1 0x0 CALLDATASIZE PUSH1 0x3 NOT ADD SLT PUSH2 0x341 JUMPI PUSH1 0x20 PUSH1 0x40 MLOAD PUSH1 0xA DUP2 MSTORE RETURN JUMPDEST SWAP1 PUSH1 0x1 DUP3 DUP2 SHR SWAP3 AND DUP1 ISZERO PUSH2 0xA3F JUMPI JUMPDEST PUSH1 0x20 DUP4 LT EQ PUSH2 0xA29 JUMPI JUMP JUMPDEST PUSH4 0x4E487B71 PUSH1 0xE0 SHL PUSH1 0x0 MSTORE PUSH1 0x22 PUSH1 0x4 MSTORE PUSH1 0x24 PUSH1 0x0 REVERT JUMPDEST SWAP2 PUSH1 0x7F AND SWAP2 PUSH2 0xA1E JUMP JUMPDEST SWAP1 PUSH1 0x0 SWAP3 SWAP2 DUP1 SLOAD SWAP2 PUSH2 0xA5A DUP4 PUSH2 0xA0F JUMP JUMPDEST SWAP2 DUP3 DUP3 MSTORE PUSH1 0x1 SWAP4 DUP5 DUP2 AND SWAP1 DUP2 PUSH1 0x0 EQ PUSH2 0xABC JUMPI POP PUSH1 0x1 EQ PUSH2 0xA7C JUMPI JUMPDEST POP POP POP POP JUMP JUMPDEST SWAP1 SWAP2 SWAP4 SWAP5 POP PUSH1 0x0 MSTORE PUSH1 0x20 SWAP3 DUP4 PUSH1 0x0 KECCAK256 SWAP3 DUP5 PUSH1 0x0 SWAP5 JUMPDEST DUP4 DUP7 LT PUSH2 0xAA8 JUMPI POP POP POP POP ADD ADD SWAP1 CODESIZE DUP1 DUP1 DUP1 PUSH2 0xA76 JUMP JUMPDEST DUP1 SLOAD DUP6 DUP8 ADD DUP4 ADD MSTORE SWAP5 ADD SWAP4 DUP6 SWAP1 DUP3 ADD PUSH2 0xA91 JUMP JUMPDEST SWAP3 SWAP5 POP POP POP PUSH1 0x20 SWAP4 SWAP5 POP PUSH1 0xFF NOT AND DUP4 DUP4 ADD MSTORE ISZERO ISZERO PUSH1 0x5 SHL ADD ADD SWAP1 CODESIZE DUP1 DUP1 DUP1 PUSH2 0xA76 JUMP JUMPDEST CALLVALUE PUSH2 0x341 JUMPI PUSH1 0x20 CALLDATASIZE PUSH1 0x3 NOT ADD SLT PUSH2 0x341 JUMPI PUSH1 0x4 CALLDATALOAD PUSH1 0x0 MSTORE PUSH1 0xD PUSH1 0x20 MSTORE PUSH2 0x39D PUSH2 0xB15 PUSH2 0x477 PUSH1 0x40 PUSH1 0x0 KECCAK256 PUSH1 0x40 MLOAD SWAP3 DUP4 DUP1 SWAP3 PUSH2 0xA49 JUMP JUMPDEST SUB DUP3 PUSH2 0x515 JUMP JUMPDEST CALLVALUE PUSH2 0x341 JUMPI PUSH1 0x20 DUP1 PUSH1 0x3 NOT CALLDATASIZE ADD SLT PUSH2 0x341 JUMPI PUSH1 0x4 CALLDATALOAD PUSH1 0x0 DUP2 DUP2 MSTORE PUSH1 0x3 PUSH1 0x20 MSTORE PUSH1 0x40 SWAP1 KECCAK256 SLOAD PUSH1 0x1 PUSH1 0x1 PUSH1 0xA0 SHL SUB AND ISZERO PUSH2 0xBAE JUMPI PUSH1 0x0 MSTORE PUSH1 0x5 DUP2 MSTORE PUSH2 0xB62 PUSH1 0x40 PUSH1 0x0 KECCAK256 PUSH2 0x333D JUMP JUMPDEST SWAP1 PUSH1 0x40 MLOAD SWAP2 DUP2 DUP4 SWAP3 DUP4 ADD DUP2 DUP5 MSTORE DUP3 MLOAD DUP1 SWAP2 MSTORE DUP2 PUSH1 0x40 DUP6 ADD SWAP4 ADD SWAP2 PUSH1 0x0 JUMPDEST DUP3 DUP2 LT PUSH2 0xB8E JUMPI POP POP POP POP SUB SWAP1 RETURN JUMPDEST DUP4 MLOAD PUSH1 0x1 PUSH1 0x1 PUSH1 0xA0 SHL SUB AND DUP6 MSTORE DUP7 SWAP6 POP SWAP4 DUP2 ADD SWAP4 SWAP3 DUP2 ADD SWAP3 PUSH1 0x1 ADD PUSH2 0xB7F JUMP JUMPDEST PUSH1 0x24 SWAP1 PUSH1 0x40 MLOAD SWAP1 PUSH4 0x5747CD1B PUSH1 0xE1 SHL DUP3 MSTORE PUSH1 0x4 DUP3 ADD MSTORE REVERT JUMPDEST CALLVALUE PUSH2 0x341 JUMPI PUSH1 0xA0 CALLDATASIZE PUSH1 0x3 NOT ADD SLT PUSH2 0x341 JUMPI PUSH1 0x4 CALLDATALOAD PUSH2 0xBE3 DUP2 PUSH2 0x94C JUMP JUMPDEST PUSH1 0x24 CALLDATALOAD PUSH2 0xBEF DUP2 PUSH2 0x94C JUMP JUMPDEST PUSH1 0x64 CALLDATALOAD PUSH2 0xBFB DUP2 PUSH2 0x8D8 JUMP JUMPDEST PUSH1 0x84 CALLDATALOAD SWAP3 PUSH1 0x1 PUSH1 0x1 PUSH1 0x40 SHL SUB DUP5 GT PUSH2 0x341 JUMPI PUSH2 0xC1E PUSH2 0xC28 SWAP5 CALLDATASIZE SWAP1 PUSH1 0x4 ADD PUSH2 0x728 JUMP JUMPDEST SWAP3 PUSH1 0x44 CALLDATALOAD SWAP2 PUSH2 0x280C JUMP JUMPDEST STOP JUMPDEST CALLVALUE PUSH2 0x341 JUMPI PUSH1 0x20 CALLDATASIZE PUSH1 0x3 NOT ADD SLT PUSH2 0x341 JUMPI PUSH1 0x0 DUP1 DUP1 DUP1 PUSH1 0x4 CALLDATALOAD PUSH2 0xC4C DUP2 PUSH2 0x94C JUMP JUMPDEST PUSH2 0xC54 PUSH2 0x30A3 JUMP JUMPDEST SELFBALANCE SWAP1 DUP3 SWAP1 DUP3 ISZERO PUSH2 0xC76 JUMPI JUMPDEST PUSH1 0x1 PUSH1 0x1 PUSH1 0xA0 SHL SUB AND SWAP1 CALL ISZERO PUSH2 0xC71 JUMPI STOP JUMPDEST PUSH2 0x2ED2 JUMP JUMPDEST PUSH2 0x8FC SWAP2 POP PUSH2 0xC5F JUMP JUMPDEST CALLVALUE PUSH2 0x341 JUMPI PUSH1 0x20 CALLDATASIZE PUSH1 0x3 NOT ADD SLT PUSH2 0x341 JUMPI PUSH2 0x39D PUSH2 0x477 PUSH1 0x4 CALLDATALOAD PUSH2 0x2054 JUMP JUMPDEST CALLVALUE PUSH2 0x341 JUMPI PUSH1 0x0 CALLDATASIZE PUSH1 0x3 NOT ADD SLT PUSH2 0x341 JUMPI PUSH1 0x20 PUSH1 0xFF PUSH1 0xE SLOAD AND PUSH1 0x40 MLOAD SWAP1 ISZERO ISZERO DUP2 MSTORE RETURN JUMPDEST CALLVALUE PUSH2 0x341 JUMPI PUSH1 0x20 CALLDATASIZE PUSH1 0x3 NOT ADD SLT PUSH2 0x341 JUMPI PUSH1 0x4 CALLDATALOAD PUSH1 0x0 MSTORE PUSH1 0xA PUSH1 0x20 MSTORE PUSH1 0x20 PUSH1 0x40 PUSH1 0x0 KECCAK256 SLOAD PUSH1 0x40 MLOAD SWAP1 DUP2 MSTORE RETURN JUMPDEST CALLVALUE PUSH2 0x341 JUMPI PUSH1 0x0 CALLDATASIZE PUSH1 0x3 NOT ADD SLT PUSH2 0x341 JUMPI PUSH1 0x20 PUSH1 0x40 MLOAD PUSH20 0xA81A6A910FED20374361B35C451A4A44F86CED46 DUP2 MSTORE RETURN JUMPDEST CALLVALUE PUSH2 0x341 JUMPI PUSH1 0x20 CALLDATASIZE PUSH1 0x3 NOT ADD SLT PUSH2 0x341 JUMPI PUSH1 0x1 PUSH1 0x1 PUSH1 0x40 SHL SUB PUSH1 0x4 CALLDATALOAD DUP2 DUP2 GT PUSH2 0x341 JUMPI CALLDATASIZE PUSH1 0x23 DUP3 ADD SLT ISZERO PUSH2 0x341 JUMPI DUP1 PUSH1 0x4 ADD CALLDATALOAD SWAP2 DUP3 GT PUSH2 0x341 JUMPI CALLDATASIZE PUSH1 0x24 DUP4 PUSH1 0x5 SHL DUP4 ADD ADD GT PUSH2 0x341 JUMPI PUSH2 0x39D SWAP2 PUSH1 0x24 PUSH2 0xD76 SWAP3 ADD PUSH2 0x26CE JUMP JUMPDEST PUSH1 0x40 MLOAD SWAP2 DUP3 SWAP2 DUP3 PUSH2 0x5AB JUMP JUMPDEST CALLVALUE PUSH2 0x341 JUMPI PUSH1 0x20 CALLDATASIZE PUSH1 0x3 NOT ADD SLT PUSH2 0x341 JUMPI PUSH1 0x4 CALLDATALOAD PUSH2 0xD9F DUP2 PUSH2 0x94C JUMP JUMPDEST PUSH1 0x1 DUP1 PUSH1 0xA0 SHL SUB AND PUSH1 0x0 MSTORE PUSH1 0x4 PUSH1 0x20 MSTORE PUSH1 0x20 PUSH1 0x40 PUSH1 0x0 KECCAK256 SLOAD PUSH1 0x40 MLOAD SWAP1 DUP2 MSTORE RETURN JUMPDEST CALLVALUE PUSH2 0x341 JUMPI PUSH1 0x0 DUP1 PUSH1 0x3 NOT CALLDATASIZE ADD SLT PUSH2 0xE1A JUMPI PUSH2 0xDD9 PUSH2 0x30A3 JUMP JUMPDEST DUP1 SLOAD PUSH1 0x1 PUSH1 0x1 PUSH1 0xA0 SHL SUB NOT DUP2 AND DUP3 SSTORE DUP2 SWAP1 PUSH1 0x1 PUSH1 0x1 PUSH1 0xA0 SHL SUB AND PUSH32 0x8BE0079C531659141344CD1FD0A4F28419497F9722A3DAAFE3B4186F6B6457E0 DUP3 DUP1 LOG3 DUP1 RETURN JUMPDEST DUP1 REVERT JUMPDEST CALLVALUE PUSH2 0x341 JUMPI PUSH1 0x20 CALLDATASIZE PUSH1 0x3 NOT ADD SLT PUSH2 0x341 JUMPI PUSH1 0x4 CALLDATALOAD PUSH1 0x1 PUSH1 0x1 PUSH1 0xE8 SHL SUB NOT DUP2 AND DUP2 SUB PUSH2 0x341 JUMPI PUSH2 0x477 PUSH2 0x39D SWAP2 PUSH2 0x34FB JUMP JUMPDEST DUP2 PUSH1 0x1F DUP3 ADD SLT ISZERO PUSH2 0x341 JUMPI DUP1 CALLDATALOAD SWAP2 PUSH2 0xE65 DUP4 PUSH2 0x536 JUMP JUMPDEST SWAP3 PUSH2 0xE73 PUSH1 0x40 MLOAD SWAP5 DUP6 PUSH2 0x515 JUMP JUMPDEST DUP1 DUP5 MSTORE PUSH1 0x20 SWAP3 DUP4 DUP1 DUP7 ADD SWAP3 PUSH1 0x5 SHL DUP3 ADD ADD SWAP3 DUP4 GT PUSH2 0x341 JUMPI DUP4 ADD SWAP1 JUMPDEST DUP3 DUP3 LT PUSH2 0xE9D JUMPI POP POP POP POP SWAP1 JUMP JUMPDEST DUP4 DUP1 SWAP2 DUP4 CALLDATALOAD PUSH2 0xEAB DUP2 PUSH2 0x94C JUMP JUMPDEST DUP2 MSTORE ADD SWAP2 ADD SWAP1 PUSH2 0xE8F JUMP JUMPDEST DUP2 PUSH1 0x1F DUP3 ADD SLT ISZERO PUSH2 0x341 JUMPI DUP1 CALLDATALOAD SWAP2 PUSH2 0xECD DUP4 PUSH2 0x536 JUMP JUMPDEST SWAP3 PUSH2 0xEDB PUSH1 0x40 MLOAD SWAP5 DUP6 PUSH2 0x515 JUMP JUMPDEST DUP1 DUP5 MSTORE PUSH1 0x20 SWAP3 DUP4 DUP1 DUP7 ADD SWAP3 PUSH1 0x5 SHL DUP3 ADD ADD SWAP3 DUP4 GT PUSH2 0x341 JUMPI DUP4 ADD SWAP1 JUMPDEST DUP3 DUP3 LT PUSH2 0xF05 JUMPI POP POP POP POP SWAP1 JUMP JUMPDEST DUP4 DUP1 SWAP2 DUP4 CALLDATALOAD PUSH2 0xF13 DUP2 PUSH2 0x8D8 JUMP JUMPDEST DUP2 MSTORE ADD SWAP2 ADD SWAP1 PUSH2 0xEF7 JUMP JUMPDEST SWAP1 DUP1 PUSH1 0x1F DUP4 ADD SLT ISZERO PUSH2 0x341 JUMPI DUP2 CALLDATALOAD SWAP1 PUSH2 0xF36 DUP3 PUSH2 0x536 JUMP JUMPDEST SWAP3 PUSH2 0xF44 PUSH1 0x40 MLOAD SWAP5 DUP6 PUSH2 0x515 JUMP JUMPDEST DUP3 DUP5 MSTORE PUSH1 0x20 SWAP3 DUP4 DUP1 DUP7 ADD SWAP2 PUSH1 0x5 SHL DUP4 ADD ADD SWAP3 DUP1 DUP5 GT PUSH2 0x341 JUMPI DUP5 DUP4 ADD SWAP2 JUMPDEST DUP5 DUP4 LT PUSH2 0xF72 JUMPI POP POP POP POP POP POP SWAP1 JUMP JUMPDEST DUP3 CALLDATALOAD PUSH1 0x1 PUSH1 0x1 PUSH1 0x40 SHL SUB DUP2 GT PUSH2 0x341 JUMPI DUP7 SWAP2 PUSH2 0xF93 DUP5 DUP5 DUP1 SWAP5 DUP10 ADD ADD PUSH2 0x728 JUMP JUMPDEST DUP2 MSTORE ADD SWAP3 ADD SWAP2 PUSH2 0xF62 JUMP JUMPDEST CALLVALUE PUSH2 0x341 JUMPI PUSH1 0xA0 CALLDATASIZE PUSH1 0x3 NOT ADD SLT PUSH2 0x341 JUMPI PUSH1 0x4 PUSH1 0x1 PUSH1 0x1 PUSH1 0x40 SHL SUB DUP2 CALLDATALOAD DUP2 DUP2 GT PUSH2 0x341 JUMPI PUSH2 0xFCF SWAP1 CALLDATASIZE SWAP1 DUP5 ADD PUSH2 0xE4E JUMP JUMPDEST SWAP1 PUSH1 0x24 CALLDATALOAD DUP2 DUP2 GT PUSH2 0x341 JUMPI PUSH2 0xFE7 SWAP1 CALLDATASIZE SWAP1 DUP6 ADD PUSH2 0xE4E JUMP JUMPDEST PUSH1 0x44 CALLDATALOAD DUP3 DUP2 GT PUSH2 0x341 JUMPI PUSH2 0xFFE SWAP1 CALLDATASIZE SWAP1 DUP7 ADD PUSH2 0x54D JUMP JUMPDEST SWAP1 PUSH1 0x64 CALLDATALOAD DUP4 DUP2 GT PUSH2 0x341 JUMPI PUSH2 0x1016 SWAP1 CALLDATASIZE SWAP1 DUP8 ADD PUSH2 0xEB6 JUMP JUMPDEST SWAP3 PUSH1 0x84 CALLDATALOAD SWAP1 DUP2 GT PUSH2 0x341 JUMPI PUSH2 0xC28 SWAP6 PUSH2 0x1031 SWAP2 CALLDATASIZE SWAP2 ADD PUSH2 0xF1E JUMP JUMPDEST SWAP4 PUSH2 0x29DC JUMP JUMPDEST PUSH1 0x40 CALLDATASIZE PUSH1 0x3 NOT ADD SLT PUSH2 0x341 JUMPI PUSH1 0x24 CALLDATALOAD PUSH1 0x1 PUSH1 0x1 PUSH1 0x40 SHL SUB DUP2 GT PUSH2 0x341 JUMPI PUSH2 0x1062 SWAP1 CALLDATASIZE SWAP1 PUSH1 0x4 ADD PUSH2 0x728 JUMP JUMPDEST PUSH2 0x106A PUSH2 0x30A3 JUMP JUMPDEST CALLVALUE PUSH2 0x107B JUMPI PUSH2 0xC28 SWAP1 PUSH1 0x4 CALLDATALOAD PUSH2 0x23CC JUMP JUMPDEST PUSH1 0x40 MLOAD PUSH4 0xF36BA737 PUSH1 0xE0 SHL DUP2 MSTORE PUSH1 0x4 SWAP1 REVERT JUMPDEST PUSH1 0xE0 PUSH1 0x3 NOT DUP3 ADD SLT PUSH2 0x341 JUMPI PUSH1 0x4 CALLDATALOAD SWAP2 PUSH1 0x1 PUSH1 0x1 PUSH1 0x40 SHL SUB PUSH1 0x24 CALLDATALOAD DUP2 DUP2 GT PUSH2 0x341 JUMPI DUP4 PUSH2 0x10BC SWAP2 PUSH1 0x4 ADD PUSH2 0x728 JUMP JUMPDEST SWAP3 PUSH1 0x44 CALLDATALOAD PUSH1 0x1 PUSH1 0x1 PUSH1 0xE8 SHL SUB NOT DUP2 AND DUP2 SUB PUSH2 0x341 JUMPI SWAP3 PUSH1 0x64 CALLDATALOAD SWAP3 PUSH1 0x84 CALLDATALOAD SWAP3 PUSH1 0xA4 CALLDATALOAD SWAP2 DUP3 GT PUSH2 0x341 JUMPI PUSH2 0x10F0 SWAP2 PUSH1 0x4 ADD PUSH2 0x728 JUMP JUMPDEST SWAP1 PUSH1 0xC4 CALLDATALOAD PUSH2 0x452 DUP2 PUSH2 0x8D8 JUMP JUMPDEST SWAP1 SWAP2 PUSH2 0x1114 PUSH2 0x452 SWAP4 PUSH1 0x40 DUP5 MSTORE PUSH1 0x40 DUP5 ADD SWAP1 PUSH2 0x41C JUMP JUMPDEST SWAP2 PUSH1 0x20 DUP2 DUP5 SUB SWAP2 ADD MSTORE PUSH2 0x41C JUMP JUMPDEST CALLVALUE PUSH2 0x341 JUMPI PUSH2 0x113F PUSH2 0x1133 CALLDATASIZE PUSH2 0x108D JUMP JUMPDEST SWAP6 SWAP5 SWAP1 SWAP5 SWAP4 SWAP2 SWAP4 PUSH2 0x4EC4 JUMP JUMPDEST SWAP1 PUSH2 0x39D PUSH1 0x40 MLOAD SWAP3 DUP4 SWAP3 DUP4 PUSH2 0x10FD JUMP JUMPDEST CALLVALUE PUSH2 0x341 JUMPI PUSH1 0x60 CALLDATASIZE PUSH1 0x3 NOT ADD SLT PUSH2 0x341 JUMPI PUSH1 0x4 DUP1 CALLDATALOAD SWAP1 PUSH2 0x116E DUP3 PUSH2 0x94C JUMP JUMPDEST PUSH1 0x24 CALLDATALOAD PUSH1 0x44 CALLDATALOAD PUSH1 0x1 PUSH1 0x1 PUSH1 0x40 SHL SUB DUP2 GT PUSH2 0x341 JUMPI PUSH2 0x118F SWAP1 CALLDATASIZE SWAP1 DUP5 ADD PUSH2 0x728 JUMP JUMPDEST SWAP2 PUSH2 0x1199 DUP3 PUSH2 0x266A JUMP JUMPDEST PUSH1 0x1 PUSH1 0x1 PUSH1 0xA0 SHL SUB DUP1 DUP3 AND SWAP3 SWAP2 CALLER DUP5 SUB PUSH2 0x1299 JUMPI POP DUP6 AND SWAP1 DUP2 ISZERO PUSH2 0x128A JUMPI DUP2 DUP4 EQ PUSH2 0x127B JUMPI PUSH2 0x11E2 PUSH2 0x11DE DUP8 PUSH2 0x11D9 DUP8 PUSH1 0x0 MSTORE PUSH1 0x5 PUSH1 0x20 MSTORE PUSH1 0x40 PUSH1 0x0 KECCAK256 SWAP1 JUMP JUMPDEST PUSH2 0x338C JUMP JUMPDEST ISZERO SWAP1 JUMP JUMPDEST PUSH2 0x124A JUMPI POP SWAP2 DUP1 PUSH2 0x1245 SWAP3 PUSH2 0xC28 SWAP7 SWAP5 PUSH32 0x1B1B58AA2EC0CEC2228B2D37124556D41F5A1F7B12F089171F896CC236671215 PUSH1 0x40 MLOAD DUP1 PUSH2 0x1221 DUP11 DUP3 PUSH2 0x441 JUMP JUMPDEST SUB SWAP1 LOG4 PUSH2 0x1237 PUSH1 0x40 MLOAD SWAP5 DUP6 SWAP3 CALLER PUSH1 0x20 DUP6 ADD PUSH2 0x276B JUMP JUMPDEST SUB PUSH1 0x1F NOT DUP2 ADD DUP5 MSTORE DUP4 PUSH2 0x515 JUMP JUMPDEST PUSH2 0x2EDE JUMP JUMPDEST PUSH1 0x40 DUP1 MLOAD PUSH4 0x14EC4D6D PUSH1 0xE3 SHL DUP2 MSTORE PUSH1 0x1 PUSH1 0x1 PUSH1 0xA0 SHL SUB DUP9 AND SWAP3 DUP2 ADD SWAP3 DUP4 MSTORE PUSH1 0x20 DUP4 ADD DUP7 SWAP1 MSTORE SWAP2 DUP3 SWAP2 ADD SUB SWAP1 REVERT JUMPDEST SUB SWAP1 REVERT JUMPDEST PUSH1 0x40 MLOAD PUSH4 0x44FED6B1 PUSH1 0xE1 SHL DUP2 MSTORE REVERT JUMPDEST PUSH1 0x40 MLOAD PUSH4 0x9577B8B3 PUSH1 0xE0 SHL DUP2 MSTORE REVERT JUMPDEST PUSH1 0x40 DUP1 MLOAD PUSH4 0x2D938F51 PUSH1 0xE1 SHL DUP2 MSTORE PUSH1 0x1 PUSH1 0x1 PUSH1 0xA0 SHL SUB SWAP1 SWAP3 AND DUP3 DUP6 ADD SWAP1 DUP2 MSTORE PUSH1 0x20 DUP2 ADD DUP8 SWAP1 MSTORE CALLER SWAP2 DUP2 ADD SWAP2 SWAP1 SWAP2 MSTORE DUP2 SWAP1 PUSH1 0x60 ADD SUB SWAP1 REVERT JUMPDEST CALLVALUE PUSH2 0x341 JUMPI PUSH1 0x20 CALLDATASIZE PUSH1 0x3 NOT ADD SLT PUSH2 0x341 JUMPI PUSH1 0x4 CALLDATALOAD PUSH2 0x12EC PUSH2 0x49E3 JUMP JUMPDEST SWAP2 SWAP1 POP PUSH2 0x12F8 DUP2 PUSH2 0x3596 JUMP JUMPDEST SWAP1 PUSH2 0x1302 SWAP1 PUSH2 0x3596 JUMP JUMPDEST PUSH1 0x40 MLOAD PUSH17 0x7B224C5350344D65746164617461223A7B PUSH1 0x78 SHL PUSH1 0x20 DUP3 ADD MSTORE PUSH22 0x89B985B59488E88931D5ADCDBD31BDBD9DA595CC88B PUSH1 0x52 SHL PUSH1 0x31 DUP3 ADD MSTORE PUSH32 0x226465736372697074696F6E223A224C756B736F4C6F6F676965732061726520 PUSH1 0x47 DUP3 ADD MSTORE PUSH32 0x4C554B534F205374616E64617264204C535038204E4654732077697468206120 PUSH1 0x67 DUP3 ADD MSTORE PUSH14 0x39B6B4B632901D149027B7363C9 PUSH1 0x95 SHL PUSH1 0x87 DUP3 ADD MSTORE SWAP3 DUP4 SWAP3 PUSH1 0x95 DUP5 ADD PUSH2 0x13B1 SWAP2 PUSH2 0x36D4 JUMP JUMPDEST PUSH32 0x204C756B736F4C6F6F6769657320617661696C61626C65206F6E206120707269 DUP2 MSTORE PUSH32 0x636520637572766520696E6372656173696E6720302E32252077697468206561 PUSH1 0x20 DUP3 ADD MSTORE PUSH32 0x6368206E6577206D696E742E2054686973204D61747269782045646974696F6E PUSH1 0x40 DUP3 ADD MSTORE PUSH32 0x20666561747572657320616E696D61746564204D61747269782D7374796C6520 PUSH1 0x60 DUP3 ADD MSTORE PUSH32 0x64657369676E7320666F722065616368204C6F6F6769652E222C000000000000 PUSH1 0x80 DUP3 ADD MSTORE PUSH1 0x9A ADD PUSH32 0x226C696E6B73223A5B7B227469746C65223A2257656273697465222C2275726C DUP2 MSTORE PUSH32 0x223A2268747470733A2F2F6C756B736F6C6F6F676965732E76657263656C2E61 PUSH1 0x20 DUP3 ADD MSTORE PUSH32 0x7070227D2C7B227469746C65223A2254776974746572222C2275726C223A2268 PUSH1 0x40 DUP3 ADD MSTORE PUSH32 0x747470733A2F2F747769747465722E636F6D2F6C756B736F4C6F6F6769657322 PUSH1 0x60 DUP3 ADD MSTORE PUSH3 0x1F574B PUSH1 0xEA SHL PUSH1 0x80 DUP3 ADD MSTORE PUSH1 0x83 ADD PUSH32 0x22696D61676573223A5B5B7B227769647468223A3430302C2268656967687422 DUP2 MSTORE PUSH12 0x1D1A181816113AB936111D11 PUSH1 0xA1 SHL PUSH1 0x20 DUP3 ADD MSTORE PUSH1 0x2C ADD PUSH2 0x1557 SWAP2 PUSH2 0x36D4 JUMP JUMPDEST PUSH5 0x89F57574B PUSH1 0xDA SHL DUP2 MSTORE PUSH1 0x5 ADD PUSH14 0x2261747472696275746573223A5B PUSH1 0x90 SHL DUP2 MSTORE PUSH1 0xE ADD PUSH32 0x7B226B6579223A2274797065222C2276616C7565223A22636F6C6C656374696F DUP2 MSTORE PUSH20 0x1B888B089D1E5C19488E889CDD1C9A5B99C89F4B PUSH1 0x62 SHL PUSH1 0x20 DUP3 ADD MSTORE PUSH1 0x34 ADD PUSH32 0x7B226B6579223A226C696D6974222C2276616C7565223A000000000000000000 DUP2 MSTORE PUSH1 0x17 ADD PUSH2 0x15EE SWAP2 PUSH2 0x36D4 JUMP JUMPDEST PUSH18 0xB089D1E5C19488E889B9D5B58995C889F4B PUSH1 0x72 SHL DUP2 MSTORE PUSH1 0x12 ADD PUSH32 0x7B226B6579223A226375727665222C2276616C7565223A3130302E322C227479 DUP2 MSTORE PUSH13 0x7065223A226E756D626572227D PUSH1 0x98 SHL PUSH1 0x20 DUP3 ADD MSTORE PUSH1 0x2D ADD PUSH1 0x5D PUSH1 0xF8 SHL DUP2 MSTORE PUSH1 0x1 ADD PUSH2 0x7D7D PUSH1 0xF0 SHL DUP2 MSTORE PUSH1 0x2 ADD SUB PUSH1 0x1F NOT SWAP1 DUP2 DUP2 ADD DUP4 MSTORE PUSH2 0x166E SWAP1 DUP4 PUSH2 0x515 JUMP JUMPDEST PUSH2 0x1677 DUP3 PUSH2 0x4D46 JUMP JUMPDEST PUSH1 0x40 MLOAD PUSH32 0x646174613A6170706C69636174696F6E2F6A736F6E3B6261736536342C000000 PUSH1 0x20 DUP3 ADD MSTORE SWAP2 SWAP1 DUP3 SWAP1 PUSH1 0x3D DUP3 ADD PUSH2 0x16B1 SWAP2 PUSH2 0x36D4 JUMP JUMPDEST SUB SWAP1 DUP2 ADD DUP3 MSTORE PUSH2 0x16C1 SWAP1 DUP3 PUSH2 0x515 JUMP JUMPDEST PUSH1 0x40 MLOAD SWAP2 DUP3 SWAP2 PUSH2 0x39D SWAP2 DUP4 PUSH2 0x10FD JUMP JUMPDEST CALLVALUE PUSH2 0x341 JUMPI PUSH1 0x0 CALLDATASIZE PUSH1 0x3 NOT ADD SLT PUSH2 0x341 JUMPI PUSH1 0x20 PUSH1 0x40 MLOAD PUSH8 0x16345785D8A0000 DUP2 MSTORE RETURN JUMPDEST CALLVALUE PUSH2 0x341 JUMPI PUSH1 0x0 CALLDATASIZE PUSH1 0x3 NOT ADD SLT PUSH2 0x341 JUMPI PUSH1 0x0 SLOAD PUSH1 0x40 MLOAD PUSH1 0x1 PUSH1 0x1 PUSH1 0xA0 SHL SUB SWAP1 SWAP2 AND DUP2 MSTORE PUSH1 0x20 SWAP1 RETURN JUMPDEST PUSH1 0x40 CALLDATASIZE PUSH1 0x3 NOT ADD SLT PUSH2 0x341 JUMPI PUSH1 0x4 PUSH1 0x1 PUSH1 0x1 PUSH1 0x40 SHL SUB DUP2 CALLDATALOAD DUP2 DUP2 GT PUSH2 0x341 JUMPI PUSH2 0x1749 SWAP1 CALLDATASIZE SWAP1 DUP5 ADD PUSH2 0x54D JUMP JUMPDEST SWAP1 PUSH1 0x24 CALLDATALOAD SWAP1 DUP2 GT PUSH2 0x341 JUMPI PUSH2 0x1761 SWAP1 CALLDATASIZE SWAP1 DUP5 ADD PUSH2 0xF1E JUMP JUMPDEST SWAP2 PUSH2 0x176A PUSH2 0x30A3 JUMP JUMPDEST CALLVALUE PUSH2 0x17D2 JUMPI DUP2 MLOAD DUP4 MLOAD SUB PUSH2 0x17C3 JUMPI DUP2 MLOAD ISZERO PUSH2 0x17B4 JUMPI POP PUSH1 0x0 JUMPDEST DUP2 MLOAD DUP2 LT ISZERO PUSH2 0xC28 JUMPI DUP1 PUSH2 0x17AE PUSH2 0x179C PUSH1 0x1 SWAP4 DUP6 PUSH2 0x20D3 JUMP JUMPDEST MLOAD PUSH2 0x17A7 DUP4 DUP8 PUSH2 0x20D3 JUMP JUMPDEST MLOAD SWAP1 PUSH2 0x23CC JUMP JUMPDEST ADD PUSH2 0x1783 JUMP JUMPDEST PUSH1 0x40 MLOAD PUSH4 0x97DA5F95 PUSH1 0xE0 SHL DUP2 MSTORE REVERT JUMPDEST PUSH1 0x40 MLOAD PUSH4 0x3BCC8979 PUSH1 0xE0 SHL DUP2 MSTORE REVERT JUMPDEST PUSH1 0x40 MLOAD PUSH4 0xF36BA737 PUSH1 0xE0 SHL DUP2 MSTORE REVERT JUMPDEST CALLVALUE PUSH2 0x341 JUMPI PUSH1 0x20 DUP1 PUSH1 0x3 NOT CALLDATASIZE ADD SLT PUSH2 0x341 JUMPI PUSH1 0x4 CALLDATALOAD PUSH2 0x17FF DUP2 PUSH2 0x94C JUMP JUMPDEST PUSH1 0x1 PUSH1 0x1 PUSH1 0xA0 SHL SUB AND PUSH1 0x0 SWAP1 DUP2 MSTORE PUSH1 0x4 DUP3 MSTORE PUSH1 0x40 SWAP1 KECCAK256 PUSH2 0x181E SWAP1 PUSH2 0x333D JUMP JUMPDEST SWAP1 PUSH1 0x40 MLOAD SWAP2 DUP2 DUP4 SWAP3 DUP4 ADD DUP2 DUP5 MSTORE DUP3 MLOAD DUP1 SWAP2 MSTORE DUP2 PUSH1 0x40 DUP6 ADD SWAP4 ADD SWAP2 PUSH1 0x0 JUMPDEST DUP3 DUP2 LT PUSH2 0x184A JUMPI POP POP POP POP SUB SWAP1 RETURN JUMPDEST DUP4 MLOAD DUP6 MSTORE DUP7 SWAP6 POP SWAP4 DUP2 ADD SWAP4 SWAP3 DUP2 ADD SWAP3 PUSH1 0x1 ADD PUSH2 0x183B JUMP JUMPDEST CALLVALUE PUSH2 0x341 JUMPI PUSH2 0x39D PUSH2 0x477 PUSH2 0x1875 CALLDATASIZE PUSH2 0x108D JUMP JUMPDEST SWAP6 SWAP5 SWAP1 SWAP5 SWAP4 SWAP2 SWAP4 PUSH2 0x387C JUMP JUMPDEST CALLVALUE PUSH2 0x341 JUMPI PUSH1 0x60 CALLDATASIZE PUSH1 0x3 NOT ADD SLT PUSH2 0x341 JUMPI PUSH1 0x4 PUSH1 0x1 PUSH1 0x1 PUSH1 0x40 SHL SUB DUP2 CALLDATALOAD DUP2 DUP2 GT PUSH2 0x341 JUMPI PUSH2 0x18B2 SWAP1 CALLDATASIZE SWAP1 DUP5 ADD PUSH2 0x54D JUMP JUMPDEST PUSH1 0x24 CALLDATALOAD DUP3 DUP2 GT PUSH2 0x341 JUMPI PUSH2 0x18C9 SWAP1 CALLDATASIZE SWAP1 DUP6 ADD PUSH2 0x54D JUMP JUMPDEST SWAP2 PUSH1 0x44 CALLDATALOAD SWAP1 DUP2 GT PUSH2 0x341 JUMPI PUSH2 0x18E1 SWAP1 CALLDATASIZE SWAP1 DUP6 ADD PUSH2 0xF1E JUMP JUMPDEST SWAP3 PUSH2 0x18EA PUSH2 0x30A3 JUMP JUMPDEST DUP2 MLOAD DUP4 MLOAD DUP1 SWAP2 EQ SWAP1 DUP2 ISZERO SWAP2 PUSH2 0x1964 JUMPI JUMPDEST POP PUSH2 0x1955 JUMPI DUP2 MLOAD ISZERO PUSH2 0x1946 JUMPI POP PUSH1 0x0 JUMPDEST DUP2 MLOAD DUP2 LT ISZERO PUSH2 0xC28 JUMPI DUP1 PUSH2 0x1940 PUSH2 0x1923 PUSH1 0x1 SWAP4 DUP6 PUSH2 0x20D3 JUMP JUMPDEST MLOAD PUSH2 0x192E DUP4 DUP8 PUSH2 0x20D3 JUMP JUMPDEST MLOAD PUSH2 0x1939 DUP5 DUP10 PUSH2 0x20D3 JUMP JUMPDEST MLOAD SWAP2 PUSH2 0x2D0F JUMP JUMPDEST ADD PUSH2 0x190A JUMP JUMPDEST PUSH1 0x40 MLOAD PUSH4 0x80C98305 PUSH1 0xE0 SHL DUP2 MSTORE REVERT JUMPDEST PUSH1 0x40 MLOAD PUSH4 0x17D38EFF PUSH1 0xE1 SHL DUP2 MSTORE REVERT JUMPDEST SWAP1 POP DUP5 MLOAD EQ ISZERO CODESIZE PUSH2 0x18FA JUMP JUMPDEST CALLVALUE PUSH2 0x341 JUMPI PUSH1 0x20 CALLDATASIZE PUSH1 0x3 NOT ADD SLT PUSH2 0x341 JUMPI PUSH1 0x4 CALLDATALOAD PUSH1 0x0 MSTORE PUSH1 0xC PUSH1 0x20 MSTORE PUSH2 0x39D PUSH2 0xB15 PUSH2 0x477 PUSH1 0x40 PUSH1 0x0 KECCAK256 PUSH1 0x40 MLOAD SWAP3 DUP4 DUP1 SWAP3 PUSH2 0xA49 JUMP JUMPDEST CALLVALUE PUSH2 0x341 JUMPI PUSH1 0x20 DUP1 PUSH1 0x3 NOT CALLDATASIZE ADD SLT PUSH2 0x341 JUMPI PUSH1 0x4 SWAP1 DUP2 CALLDATALOAD PUSH2 0x19C5 PUSH2 0x339F JUMP JUMPDEST PUSH2 0x19CD PUSH2 0x33CB JUMP JUMPDEST SWAP4 PUSH1 0x0 SWAP3 DUP4 JUMPDEST DUP6 DUP2 LT PUSH2 0x19E8 JUMPI PUSH1 0x40 MLOAD DUP1 PUSH2 0x39D DUP10 DUP3 PUSH2 0x441 JUMP JUMPDEST PUSH2 0x1A56 SWAP1 PUSH2 0x1A32 PUSH2 0x1A0A PUSH1 0xF DUP6 DUP5 BYTE DUP12 PUSH2 0x1A2A PUSH2 0x1A18 DUP6 DUP5 DUP13 SHR DUP7 AND DUP14 PUSH2 0x3433 JUMP JUMPDEST MLOAD PUSH1 0x1 PUSH1 0x1 PUSH1 0xF8 SHL SUB NOT AND SWAP1 JUMP JUMPDEST PUSH2 0x1A21 DUP9 PUSH2 0x3444 JUMP JUMPDEST SWAP1 DUP14 BYTE SWAP3 PUSH2 0x3433 JUMP JUMPDEST MSTORE8 AND DUP8 PUSH2 0x3433 JUMP JUMPDEST PUSH2 0x1A50 PUSH2 0x1A46 PUSH2 0x1A41 DUP5 PUSH2 0x3444 JUMP JUMPDEST PUSH2 0x34A7 JUMP JUMPDEST SWAP2 DUP9 BYTE SWAP2 DUP11 PUSH2 0x3433 JUMP JUMPDEST MSTORE8 PUSH2 0x3417 JUMP JUMPDEST PUSH2 0x19D3 JUMP JUMPDEST CALLVALUE PUSH2 0x341 JUMPI PUSH1 0x20 CALLDATASIZE PUSH1 0x3 NOT ADD SLT PUSH2 0x341 JUMPI PUSH1 0x4 CALLDATALOAD PUSH2 0x1A78 DUP2 PUSH2 0x94C JUMP JUMPDEST PUSH1 0x1 DUP1 PUSH1 0xA0 SHL SUB AND PUSH1 0x0 MSTORE PUSH1 0xF PUSH1 0x20 MSTORE PUSH1 0x20 PUSH1 0x40 PUSH1 0x0 KECCAK256 SLOAD PUSH1 0x40 MLOAD SWAP1 DUP2 MSTORE RETURN JUMPDEST CALLVALUE PUSH2 0x341 JUMPI PUSH1 0x60 CALLDATASIZE PUSH1 0x3 NOT ADD SLT PUSH2 0x341 JUMPI PUSH1 0x44 CALLDATALOAD PUSH1 0x1 PUSH1 0x1 PUSH1 0x40 SHL SUB DUP2 GT PUSH2 0x341 JUMPI PUSH2 0x1ACB PUSH2 0xC28 SWAP2 CALLDATASIZE SWAP1 PUSH1 0x4 ADD PUSH2 0x728 JUMP JUMPDEST PUSH2 0x1AD3 PUSH2 0x30A3 JUMP JUMPDEST PUSH1 0x24 CALLDATALOAD PUSH1 0x4 CALLDATALOAD PUSH2 0x2D0F JUMP JUMPDEST CALLVALUE PUSH2 0x341 JUMPI PUSH1 0x80 CALLDATASIZE PUSH1 0x3 NOT ADD SLT PUSH2 0x341 JUMPI PUSH1 0x4 CALLDATALOAD PUSH2 0x1AFB DUP2 PUSH2 0x94C JUMP JUMPDEST PUSH1 0x24 CALLDATALOAD PUSH1 0x44 CALLDATALOAD SWAP2 PUSH2 0x1B0B DUP4 PUSH2 0x8D8 JUMP JUMPDEST PUSH1 0x64 CALLDATALOAD PUSH1 0x1 PUSH1 0x1 PUSH1 0x40 SHL SUB DUP2 GT PUSH2 0x341 JUMPI PUSH2 0x1B2A SWAP1 CALLDATASIZE SWAP1 PUSH1 0x4 ADD PUSH2 0x728 JUMP JUMPDEST PUSH2 0x1B33 DUP4 PUSH2 0x266A JUMP JUMPDEST SWAP4 PUSH1 0x1 PUSH1 0x1 PUSH1 0xA0 SHL SUB DUP1 DUP7 AND SWAP1 CALLER DUP3 SWAP1 SUB PUSH2 0x1BA8 JUMPI JUMPDEST DUP5 AND SWAP1 DUP2 ISZERO PUSH2 0x1B96 JUMPI EQ PUSH2 0x1B84 JUMPI PUSH2 0x1B64 DUP3 DUP3 DUP7 DUP9 DUP8 PUSH2 0x2AAC JUMP JUMPDEST PUSH2 0x1B6A JUMPI STOP JUMPDEST PUSH2 0xC28 SWAP4 PUSH2 0x1237 PUSH2 0x1245 SWAP3 PUSH1 0x40 MLOAD SWAP6 DUP7 SWAP4 PUSH1 0x20 DUP6 ADD PUSH2 0x2796 JUMP JUMPDEST PUSH1 0x40 MLOAD PUSH4 0x44FED6B1 PUSH1 0xE1 SHL DUP2 MSTORE PUSH1 0x4 SWAP1 REVERT JUMPDEST PUSH1 0x40 MLOAD PUSH4 0x9577B8B3 PUSH1 0xE0 SHL DUP2 MSTORE PUSH1 0x4 SWAP1 REVERT JUMPDEST DUP5 DUP2 AND CALLER EQ PUSH2 0x1B49 JUMPI PUSH1 0x40 MLOAD PUSH4 0x760B5ACD PUSH1 0xE0 SHL DUP2 MSTORE CALLER PUSH1 0x4 DUP3 ADD MSTORE PUSH1 0x1 PUSH1 0x1 PUSH1 0xA0 SHL SUB DUP9 AND PUSH1 0x24 DUP3 ADD MSTORE PUSH1 0x44 DUP2 ADD DUP8 SWAP1 MSTORE PUSH1 0x64 SWAP1 REVERT JUMPDEST CALLVALUE PUSH2 0x341 JUMPI PUSH1 0x20 CALLDATASIZE PUSH1 0x3 NOT ADD SLT PUSH2 0x341 JUMPI PUSH1 0x4 CALLDATALOAD PUSH1 0x1 PUSH1 0x1 PUSH1 0x40 SHL SUB DUP2 GT PUSH2 0x341 JUMPI PUSH2 0x1C0F SWAP1 CALLDATASIZE SWAP1 PUSH1 0x4 ADD PUSH2 0x54D JUMP JUMPDEST PUSH2 0x1C19 DUP2 MLOAD PUSH2 0x2073 JUMP JUMPDEST SWAP1 PUSH1 0x0 JUMPDEST DUP2 MLOAD DUP2 LT ISZERO PUSH2 0x1C58 JUMPI DUP1 PUSH2 0x1C3C PUSH2 0x1C36 PUSH1 0x1 SWAP4 DUP6 PUSH2 0x20D3 JUMP JUMPDEST MLOAD PUSH2 0x2054 JUMP JUMPDEST PUSH2 0x1C46 DUP3 DUP7 PUSH2 0x20D3 JUMP JUMPDEST MSTORE PUSH2 0x1C51 DUP2 DUP6 PUSH2 0x20D3 JUMP JUMPDEST POP ADD PUSH2 0x1C1D JUMP JUMPDEST PUSH1 0x40 MLOAD DUP1 PUSH2 0x39D DUP6 DUP3 PUSH2 0x5AB JUMP JUMPDEST PUSH1 0x0 DUP1 PUSH1 0x3 NOT CALLDATASIZE ADD SLT PUSH2 0xE1A JUMPI PUSH2 0x39D SWAP1 PUSH2 0x1C7F PUSH2 0x5642 JUMP JUMPDEST PUSH2 0x1C8E PUSH2 0x7B4 PUSH1 0xE SLOAD PUSH1 0xFF AND SWAP1 JUMP JUMPDEST PUSH2 0x1C9D PUSH2 0xE90 PUSH1 0x8 SLOAD LT PUSH2 0x5550 JUMP JUMPDEST PUSH2 0x1CB1 PUSH8 0x16345785D8A0000 CALLVALUE LT ISZERO PUSH2 0x558B JUMP JUMPDEST CALLER PUSH1 0x0 SWAP1 DUP2 MSTORE PUSH1 0xF PUSH1 0x20 MSTORE PUSH1 0x40 SWAP1 KECCAK256 PUSH2 0x1CCC SWAP1 PUSH1 0xA SWAP1 PUSH2 0x7F3 JUMP JUMPDEST CALLER PUSH1 0x0 SWAP1 DUP2 MSTORE PUSH1 0xF PUSH1 0x20 MSTORE PUSH1 0x40 SWAP1 KECCAK256 PUSH2 0x1CE5 DUP2 SLOAD PUSH2 0x3417 JUMP JUMPDEST SWAP1 SSTORE PUSH2 0x1CF5 PUSH2 0x823 PUSH1 0x8 SLOAD PUSH2 0x3417 JUMP JUMPDEST PUSH2 0x8BE PUSH1 0x8 SLOAD SWAP2 PUSH2 0x1D7F PUSH2 0x1D08 NUMBER PUSH2 0x3224 JUMP JUMPDEST PUSH1 0x40 DUP1 MLOAD PUSH1 0x20 DUP2 ADD DUP8 DUP2 MSTORE SWAP3 BLOCKHASH SWAP2 DUP2 ADD SWAP2 SWAP1 SWAP2 MSTORE PUSH12 0xFFFFFFFFFFFFFFFFFFFFFFFF NOT CALLER PUSH1 0x60 SWAP1 DUP2 SHL DUP3 AND DUP2 DUP5 ADD MSTORE ADDRESS SWAP1 SHL AND PUSH1 0x74 DUP3 ADD MSTORE PUSH2 0x1D4C DUP2 PUSH1 0x88 DUP2 ADD PUSH2 0x878 JUMP JUMPDEST MLOAD SWAP1 KECCAK256 PUSH2 0x1D57 PUSH2 0x21AE JUMP JUMPDEST POP PUSH2 0x1D61 CALLER PUSH2 0x56E1 JUMP JUMPDEST ISZERO PUSH2 0x1DB2 JUMPI PUSH2 0x1D6F CALLER PUSH2 0x5761 JUMP JUMPDEST SWAP1 DUP2 MLOAD ISZERO PUSH2 0x1DA2 JUMPI JUMPDEST DUP6 CALLER PUSH2 0x5918 JUMP JUMPDEST DUP1 DUP1 DUP1 CALLVALUE PUSH20 0xA81A6A910FED20374361B35C451A4A44F86CED46 GAS CALL PUSH2 0x8B8 PUSH2 0x21C1 JUMP JUMPDEST SWAP1 POP PUSH2 0x1DAC PUSH2 0x56BD JUMP JUMPDEST SWAP1 PUSH2 0x1D78 JUMP JUMPDEST PUSH2 0x1DAC PUSH2 0x5698 JUMP JUMPDEST CALLVALUE PUSH2 0x341 JUMPI PUSH1 0x20 CALLDATASIZE PUSH1 0x3 NOT ADD SLT PUSH2 0x341 JUMPI PUSH1 0x4 CALLDATALOAD PUSH2 0x1DD7 DUP2 PUSH2 0x94C JUMP JUMPDEST PUSH2 0x1DDF PUSH2 0x30A3 JUMP JUMPDEST PUSH1 0x1 PUSH1 0x1 PUSH1 0xA0 SHL SUB SWAP1 DUP2 AND DUP1 ISZERO PUSH2 0x1E2D JUMPI PUSH1 0x0 DUP1 SLOAD PUSH1 0x1 PUSH1 0x1 PUSH1 0xA0 SHL SUB NOT DUP2 AND DUP4 OR DUP3 SSTORE SWAP1 SWAP3 AND PUSH32 0x8BE0079C531659141344CD1FD0A4F28419497F9722A3DAAFE3B4186F6B6457E0 DUP4 DUP1 LOG3 DUP1 RETURN JUMPDEST PUSH1 0x40 MLOAD PUSH3 0x461BCD PUSH1 0xE5 SHL DUP2 MSTORE PUSH1 0x20 PUSH1 0x4 DUP3 ADD MSTORE PUSH1 0x26 PUSH1 0x24 DUP3 ADD MSTORE PUSH32 0x4F776E61626C653A206E6577206F776E657220697320746865207A65726F2061 PUSH1 0x44 DUP3 ADD MSTORE PUSH6 0x646472657373 PUSH1 0xD0 SHL PUSH1 0x64 DUP3 ADD MSTORE PUSH1 0x84 SWAP1 REVERT JUMPDEST CALLVALUE PUSH2 0x341 JUMPI PUSH1 0x40 CALLDATASIZE PUSH1 0x3 NOT ADD SLT PUSH2 0x341 JUMPI PUSH1 0x1 PUSH1 0x1 PUSH1 0x40 SHL SUB PUSH1 0x4 CALLDATALOAD PUSH1 0x24 CALLDATALOAD DUP3 DUP2 GT PUSH2 0x341 JUMPI PUSH2 0x1EB5 SWAP1 CALLDATASIZE SWAP1 PUSH1 0x4 ADD PUSH2 0x728 JUMP JUMPDEST PUSH2 0x1EBE DUP3 PUSH2 0x266A JUMP JUMPDEST CALLER PUSH1 0x1 PUSH1 0x1 PUSH1 0xA0 SHL SUB SWAP1 SWAP2 AND SUB PUSH2 0x1FFE JUMPI PUSH1 0x0 SWAP3 DUP3 DUP5 MSTORE PUSH1 0x20 SWAP1 PUSH1 0xD DUP3 MSTORE PUSH1 0x40 DUP6 KECCAK256 SWAP2 DUP4 MLOAD SWAP2 DUP3 GT PUSH2 0x4DA JUMPI PUSH2 0x1EFE DUP3 PUSH2 0x1EF8 DUP6 SLOAD PUSH2 0xA0F JUMP JUMPDEST DUP6 PUSH2 0x2557 JUMP JUMPDEST DUP1 PUSH1 0x1F DUP4 GT PUSH1 0x1 EQ PUSH2 0x1F6C JUMPI POP SWAP2 DUP2 PUSH32 0xBAB5FBABBF1262857155D5133D7829BD5739A99EB04EE435FE0E160483B1E8A SWAP5 SWAP3 PUSH2 0x1F5B SWAP5 DUP9 SWAP2 PUSH2 0x1F61 JUMPI JUMPDEST POP DUP2 PUSH1 0x1 SHL SWAP2 PUSH1 0x0 NOT SWAP1 PUSH1 0x3 SHL SHR NOT AND OR SWAP1 SSTORE JUMPDEST PUSH1 0x40 MLOAD SWAP2 DUP3 SWAP2 DUP3 PUSH2 0x441 JUMP JUMPDEST SUB SWAP1 LOG2 DUP1 RETURN JUMPDEST SWAP1 POP DUP4 ADD MLOAD CODESIZE PUSH2 0x1F3B JUMP JUMPDEST SWAP1 PUSH1 0x1F NOT DUP4 AND PUSH2 0x1F81 DUP6 PUSH1 0x0 MSTORE PUSH1 0x20 PUSH1 0x0 KECCAK256 SWAP1 JUMP JUMPDEST SWAP3 DUP9 SWAP1 JUMPDEST DUP3 DUP3 LT PUSH2 0x1FE6 JUMPI POP POP SWAP3 PUSH2 0x1F5B SWAP5 SWAP3 PUSH1 0x1 SWAP3 DUP3 PUSH32 0xBAB5FBABBF1262857155D5133D7829BD5739A99EB04EE435FE0E160483B1E8A SWAP9 SWAP7 LT PUSH2 0x1FCD JUMPI JUMPDEST POP POP DUP2 SHL ADD SWAP1 SSTORE PUSH2 0x1F4F JUMP JUMPDEST DUP6 ADD MLOAD PUSH1 0x0 NOT PUSH1 0xF8 DUP5 PUSH1 0x3 SHL AND SHR NOT AND SWAP1 SSTORE CODESIZE DUP1 PUSH2 0x1FC1 JUMP JUMPDEST DUP1 PUSH1 0x1 DUP6 SWAP7 DUP3 SWAP5 SWAP7 DUP12 ADD MLOAD DUP2 SSTORE ADD SWAP6 ADD SWAP4 ADD SWAP1 PUSH2 0x1F85 JUMP JUMPDEST PUSH1 0x40 MLOAD PUSH3 0x461BCD PUSH1 0xE5 SHL DUP2 MSTORE PUSH1 0x20 PUSH1 0x4 DUP3 ADD MSTORE PUSH1 0xF PUSH1 0x24 DUP3 ADD MSTORE PUSH15 0x2737BA103A37B5B2B71037BBB732B9 PUSH1 0x89 SHL PUSH1 0x44 DUP3 ADD MSTORE PUSH1 0x64 SWAP1 REVERT JUMPDEST CALLVALUE PUSH2 0x341 JUMPI PUSH1 0x20 CALLDATASIZE PUSH1 0x3 NOT ADD SLT PUSH2 0x341 JUMPI PUSH2 0x39D PUSH2 0x477 PUSH1 0x4 CALLDATALOAD PUSH2 0x3596 JUMP JUMPDEST PUSH1 0x0 MSTORE PUSH1 0x1 PUSH1 0x20 MSTORE PUSH2 0xB15 PUSH2 0x452 PUSH1 0x40 PUSH1 0x0 KECCAK256 PUSH1 0x40 MLOAD SWAP3 DUP4 DUP1 SWAP3 PUSH2 0xA49 JUMP JUMPDEST SWAP1 PUSH2 0x207D DUP3 PUSH2 0x536 JUMP JUMPDEST PUSH2 0x208A PUSH1 0x40 MLOAD SWAP2 DUP3 PUSH2 0x515 JUMP JUMPDEST DUP3 DUP2 MSTORE DUP1 SWAP3 PUSH2 0x209B PUSH1 0x1F NOT SWAP2 PUSH2 0x536 JUMP JUMPDEST ADD SWAP1 PUSH1 0x0 JUMPDEST DUP3 DUP2 LT PUSH2 0x20AC JUMPI POP POP POP JUMP JUMPDEST DUP1 PUSH1 0x60 PUSH1 0x20 DUP1 SWAP4 DUP6 ADD ADD MSTORE ADD PUSH2 0x20A0 JUMP JUMPDEST PUSH4 0x4E487B71 PUSH1 0xE0 SHL PUSH1 0x0 MSTORE PUSH1 0x32 PUSH1 0x4 MSTORE PUSH1 0x24 PUSH1 0x0 REVERT JUMPDEST DUP1 MLOAD DUP3 LT ISZERO PUSH2 0x20E7 JUMPI PUSH1 0x20 SWAP2 PUSH1 0x5 SHL ADD ADD SWAP1 JUMP JUMPDEST PUSH2 0x20BD JUMP JUMPDEST PUSH1 0x4 CALLDATASIZE LT PUSH2 0x20FD JUMPI PUSH2 0x452 SWAP1 PUSH2 0x21F1 JUMP JUMPDEST PUSH1 0x44 PUSH1 0x40 MLOAD DUP1 SWAP3 PUSH4 0xE5099EE3 PUSH1 0xE0 SHL DUP3 MSTORE PUSH1 0x20 PUSH1 0x4 DUP4 ADD MSTORE DUP1 PUSH1 0x24 DUP4 ADD MSTORE DUP1 PUSH1 0x0 DUP5 DUP5 ADD CALLDATACOPY PUSH1 0x0 DUP3 DUP3 ADD DUP5 ADD MSTORE PUSH1 0x1F ADD PUSH1 0x1F NOT AND DUP2 ADD SUB ADD SWAP1 REVERT JUMPDEST CALLVALUE ISZERO PUSH2 0x2150 JUMPI PUSH1 0x40 MLOAD PUSH4 0x30FA4A21 PUSH1 0xE1 SHL DUP2 MSTORE PUSH1 0x4 SWAP1 REVERT JUMPDEST PUSH1 0x64 PUSH1 0x40 MLOAD PUSH4 0xE5099EE3 PUSH1 0xE0 SHL DUP2 MSTORE PUSH1 0x20 PUSH1 0x4 DUP3 ADD MSTORE PUSH1 0x4 PUSH1 0x24 DUP3 ADD MSTORE PUSH1 0x0 PUSH1 0x44 DUP3 ADD MSTORE REVERT JUMPDEST SWAP1 DUP1 SWAP3 SWAP2 DUP3 CALLDATACOPY ADD PUSH1 0x0 DUP2 MSTORE SWAP1 JUMP JUMPDEST SWAP1 PUSH1 0x34 SWAP4 SWAP2 DUP2 PUSH1 0x0 DUP3 CALLDATACOPY ADD SWAP2 PUSH12 0xFFFFFFFFFFFFFFFFFFFFFFFF NOT SWAP1 PUSH1 0x60 SHL AND DUP3 MSTORE PUSH1 0x14 DUP3 ADD MSTORE ADD SWAP1 JUMP JUMPDEST PUSH1 0x40 MLOAD SWAP1 PUSH2 0x21BB DUP3 PUSH2 0x4BF JUMP JUMPDEST PUSH1 0x0 DUP3 MSTORE JUMP JUMPDEST RETURNDATASIZE ISZERO PUSH2 0x21EC JUMPI RETURNDATASIZE SWAP1 PUSH2 0x21D2 DUP3 PUSH2 0x70D JUMP JUMPDEST SWAP2 PUSH2 0x21E0 PUSH1 0x40 MLOAD SWAP4 DUP5 PUSH2 0x515 JUMP JUMPDEST DUP3 MSTORE RETURNDATASIZE PUSH1 0x0 PUSH1 0x20 DUP5 ADD RETURNDATACOPY JUMP JUMPDEST PUSH1 0x60 SWAP1 JUMP JUMPDEST PUSH4 0xFFFFFFFF PUSH1 0xE0 SHL PUSH1 0x0 CALLDATALOAD AND SWAP1 PUSH2 0x223E PUSH2 0x2239 PUSH1 0x40 MLOAD PUSH10 0x6773C5A04A6D4300884B PUSH1 0xB1 SHL PUSH1 0x20 DUP3 ADD MSTORE PUSH1 0x0 PUSH1 0x2A DUP3 ADD MSTORE DUP5 PUSH1 0x2C DUP3 ADD MSTORE PUSH1 0x20 DUP2 MSTORE PUSH2 0x2234 DUP2 PUSH2 0x4DF JUMP JUMPDEST PUSH2 0x232C JUMP JUMPDEST PUSH2 0x2054 JUMP JUMPDEST DUP1 MLOAD PUSH1 0x14 DUP2 EQ ISZERO SWAP1 DUP2 PUSH2 0x22EB JUMPI JUMPDEST POP PUSH2 0x22C6 JUMPI PUSH2 0x225A SWAP1 PUSH2 0x22F5 JUMP JUMPDEST PUSH1 0x60 SHR SWAP2 DUP3 ISZERO PUSH2 0x22A2 JUMPI POP PUSH1 0x0 SWAP2 DUP3 SWAP2 PUSH1 0x40 MLOAD PUSH2 0x2283 DUP2 PUSH2 0x878 PUSH1 0x20 DUP3 ADD SWAP5 CALLVALUE SWAP1 CALLER SWAP1 DUP8 PUSH2 0x2184 JUMP JUMPDEST MLOAD SWAP2 CALLVALUE SWAP1 GAS CALL PUSH2 0x2291 PUSH2 0x21C1 JUMP JUMPDEST SWAP1 ISZERO PUSH2 0x229A JUMPI SWAP1 JUMP JUMPDEST PUSH1 0x20 DUP2 MLOAD SWAP2 ADD REVERT JUMPDEST PUSH1 0x40 MLOAD PUSH4 0xBB370B2B PUSH1 0xE0 SHL DUP2 MSTORE PUSH1 0x1 PUSH1 0x1 PUSH1 0xE0 SHL SUB NOT SWAP2 SWAP1 SWAP2 AND PUSH1 0x4 DUP3 ADD MSTORE PUSH1 0x24 SWAP1 REVERT JUMPDEST PUSH1 0x40 MLOAD PUSH4 0x42BFE79F PUSH1 0xE0 SHL DUP2 MSTORE PUSH1 0x20 PUSH1 0x4 DUP3 ADD MSTORE SWAP1 DUP2 SWAP1 PUSH2 0x1277 SWAP1 PUSH1 0x24 DUP4 ADD SWAP1 PUSH2 0x41C JUMP JUMPDEST SWAP1 POP ISZERO ISZERO CODESIZE PUSH2 0x224C JUMP JUMPDEST SWAP1 PUSH1 0x20 DUP3 MLOAD SWAP3 ADD MLOAD PUSH12 0xFFFFFFFFFFFFFFFFFFFFFFFF NOT SWAP1 DUP2 DUP2 AND SWAP4 PUSH1 0x14 DUP2 LT PUSH2 0x231D JUMPI POP POP POP JUMP JUMPDEST PUSH1 0x14 SUB PUSH1 0x3 SHL DUP3 SWAP1 SHL AND AND SWAP2 POP JUMP JUMPDEST PUSH1 0x20 DUP2 MLOAD SWAP2 ADD MLOAD SWAP1 PUSH1 0x20 DUP2 LT PUSH2 0x2340 JUMPI POP SWAP1 JUMP JUMPDEST PUSH1 0x0 NOT SWAP1 PUSH1 0x20 SUB PUSH1 0x3 SHL SHL AND SWAP1 JUMP JUMPDEST PUSH2 0x238C PUSH2 0x2239 PUSH1 0x40 MLOAD PUSH10 0x6773C5A04A6D4300884B PUSH1 0xB1 SHL PUSH1 0x20 DUP3 ADD MSTORE PUSH1 0x0 PUSH1 0x2A DUP3 ADD MSTORE PUSH4 0x1FFC9A7 PUSH1 0xE0 SHL PUSH1 0x2C DUP3 ADD MSTORE PUSH1 0x20 DUP2 MSTORE PUSH2 0x2234 DUP2 PUSH2 0x4DF JUMP JUMPDEST DUP1 MLOAD PUSH1 0x14 DUP2 EQ ISZERO SWAP1 DUP2 PUSH2 0x23C2 JUMPI JUMPDEST POP PUSH2 0x22C6 JUMPI PUSH2 0x23A8 SWAP1 PUSH2 0x22F5 JUMP JUMPDEST PUSH1 0x60 SHR SWAP1 DUP2 ISZERO PUSH2 0x23BB JUMPI PUSH2 0x452 SWAP2 PUSH2 0x3158 JUMP JUMPDEST POP POP PUSH1 0x0 SWAP1 JUMP JUMPDEST SWAP1 POP ISZERO ISZERO CODESIZE PUSH2 0x239A JUMP JUMPDEST SWAP1 PUSH32 0xF675E9361AF1C1664C1868CFA3EB97672D6B1A513AA5B81DEC34C9EE330E818D DUP3 EQ PUSH2 0x24E6 JUMPI PUSH32 0xDEBA1E292F8BA88238E10AB3C7F88BD4BE4FAC56CAD5194B6ECCEAF653468AF1 DUP3 SUB PUSH2 0x242D JUMPI PUSH1 0x40 MLOAD PUSH4 0x85C169BD PUSH1 0xE0 SHL DUP2 MSTORE PUSH1 0x4 SWAP1 REVERT JUMPDEST PUSH32 0x2F0A68AB07768E01943A599E73362A0E17A63A72E94DD2E384D2C1D4DB932756 DUP3 SUB PUSH2 0x2466 JUMPI PUSH1 0x40 MLOAD PUSH4 0xECEAB67 PUSH1 0xE3 SHL DUP2 MSTORE PUSH1 0x4 SWAP1 REVERT JUMPDEST PUSH32 0xE0261FA95DB2EB3B5439BD033CDA66D56B96F92F243A8228FD87550ED7BDFDB3 DUP3 SUB PUSH2 0x249F JUMPI PUSH1 0x40 MLOAD PUSH4 0x4EF6D7FB PUSH1 0xE0 SHL DUP2 MSTORE PUSH1 0x4 SWAP1 REVERT JUMPDEST PUSH2 0x24E1 DUP2 PUSH2 0x1F4F PUSH32 0xECE574603820D07BC9B91F2A932BAADF4628AABCB8AFBA49776529C14A6104B2 SWAP4 PUSH2 0x24DC DUP7 PUSH1 0x0 MSTORE PUSH1 0x1 PUSH1 0x20 MSTORE PUSH1 0x40 PUSH1 0x0 KECCAK256 SWAP1 JUMP JUMPDEST PUSH2 0x259C JUMP JUMPDEST SUB SWAP1 LOG2 JUMP JUMPDEST PUSH1 0x40 MLOAD PUSH4 0x1B324005 PUSH1 0xE1 SHL DUP2 MSTORE PUSH1 0x4 SWAP1 REVERT JUMPDEST SWAP2 PUSH2 0x2512 SWAP2 DUP4 SLOAD SWAP1 PUSH1 0x3 SHL SWAP2 DUP3 SHL SWAP2 PUSH1 0x0 NOT SWAP1 SHL NOT AND OR SWAP1 JUMP JUMPDEST SWAP1 SSTORE JUMP JUMPDEST DUP2 DUP2 LT PUSH2 0x2521 JUMPI POP POP JUMP JUMPDEST PUSH1 0x0 DUP2 SSTORE PUSH1 0x1 ADD PUSH2 0x2516 JUMP JUMPDEST SWAP1 PUSH1 0x1F DUP2 GT PUSH2 0x253A JUMPI POP POP JUMP JUMPDEST PUSH2 0x2555 SWAP2 PUSH1 0x0 MSTORE PUSH1 0x1F PUSH1 0x20 PUSH1 0x0 KECCAK256 SWAP2 ADD PUSH1 0x5 SHR DUP2 ADD SWAP1 PUSH2 0x2516 JUMP JUMPDEST JUMP JUMPDEST SWAP2 SWAP1 PUSH1 0x1F DUP2 GT PUSH2 0x2566 JUMPI POP POP POP JUMP JUMPDEST PUSH2 0x2555 SWAP3 PUSH1 0x0 MSTORE PUSH1 0x20 PUSH1 0x0 KECCAK256 SWAP1 PUSH1 0x20 PUSH1 0x1F DUP5 ADD PUSH1 0x5 SHR DUP4 ADD SWAP4 LT PUSH2 0x2592 JUMPI JUMPDEST PUSH1 0x1F ADD PUSH1 0x5 SHR ADD SWAP1 PUSH2 0x2516 JUMP JUMPDEST SWAP1 SWAP2 POP DUP2 SWAP1 PUSH2 0x2585 JUMP JUMPDEST SWAP2 SWAP1 SWAP2 DUP3 MLOAD PUSH1 0x1 PUSH1 0x1 PUSH1 0x40 SHL SUB DUP2 GT PUSH2 0x4DA JUMPI PUSH2 0x25C3 DUP2 PUSH2 0x25BD DUP5 SLOAD PUSH2 0xA0F JUMP JUMPDEST DUP5 PUSH2 0x2557 JUMP JUMPDEST PUSH1 0x20 DUP1 PUSH1 0x1F DUP4 GT PUSH1 0x1 EQ PUSH2 0x25FF JUMPI POP DUP2 SWAP3 SWAP4 SWAP5 PUSH1 0x0 SWAP3 PUSH2 0x25F4 JUMPI JUMPDEST POP POP DUP2 PUSH1 0x1 SHL SWAP2 PUSH1 0x0 NOT SWAP1 PUSH1 0x3 SHL SHR NOT AND OR SWAP1 SSTORE JUMP JUMPDEST ADD MLOAD SWAP1 POP CODESIZE DUP1 PUSH2 0x25DE JUMP JUMPDEST SWAP1 PUSH1 0x1F NOT DUP4 AND SWAP6 PUSH2 0x2615 DUP6 PUSH1 0x0 MSTORE PUSH1 0x20 PUSH1 0x0 KECCAK256 SWAP1 JUMP JUMPDEST SWAP3 PUSH1 0x0 SWAP1 JUMPDEST DUP9 DUP3 LT PUSH2 0x2652 JUMPI POP POP DUP4 PUSH1 0x1 SWAP6 SWAP7 SWAP8 LT PUSH2 0x2639 JUMPI JUMPDEST POP POP POP DUP2 SHL ADD SWAP1 SSTORE JUMP JUMPDEST ADD MLOAD PUSH1 0x0 NOT PUSH1 0xF8 DUP5 PUSH1 0x3 SHL AND SHR NOT AND SWAP1 SSTORE CODESIZE DUP1 DUP1 PUSH2 0x262F JUMP JUMPDEST DUP1 PUSH1 0x1 DUP6 SWAP7 DUP3 SWAP5 SWAP7 DUP7 ADD MLOAD DUP2 SSTORE ADD SWAP6 ADD SWAP4 ADD SWAP1 PUSH2 0x261A JUMP JUMPDEST PUSH1 0x0 DUP2 DUP2 MSTORE PUSH1 0x3 PUSH1 0x20 MSTORE PUSH1 0x40 SWAP1 KECCAK256 SLOAD PUSH1 0x1 PUSH1 0x1 PUSH1 0xA0 SHL SUB AND SWAP1 DUP2 ISZERO PUSH2 0xBAE JUMPI POP SWAP1 JUMP JUMPDEST SWAP2 SWAP1 DUP2 LT ISZERO PUSH2 0x20E7 JUMPI PUSH1 0x5 SHL DUP2 ADD CALLDATALOAD SWAP1 PUSH1 0x1E NOT DUP2 CALLDATASIZE SUB ADD DUP3 SLT ISZERO PUSH2 0x341 JUMPI ADD SWAP1 DUP2 CALLDATALOAD SWAP2 PUSH1 0x1 PUSH1 0x1 PUSH1 0x40 SHL SUB DUP4 GT PUSH2 0x341 JUMPI PUSH1 0x20 ADD DUP3 CALLDATASIZE SUB DUP2 SGT PUSH2 0x341 JUMPI SWAP2 SWAP1 JUMP JUMPDEST SWAP2 SWAP1 PUSH2 0x26D9 DUP2 PUSH2 0x2073 JUMP JUMPDEST SWAP3 PUSH1 0x0 SWAP2 DUP3 JUMPDEST DUP2 DUP2 LT PUSH2 0x26EC JUMPI POP POP POP POP JUMP JUMPDEST DUP4 DUP1 PUSH2 0x26F9 DUP4 DUP6 DUP8 PUSH2 0x268D JUMP JUMPDEST PUSH1 0x40 SWAP4 SWAP2 PUSH2 0x270B DUP6 MLOAD DUP1 SWAP4 DUP2 SWAP4 PUSH2 0x2176 JUMP JUMPDEST SUB SWAP1 ADDRESS GAS DELEGATECALL SWAP1 PUSH2 0x2719 PUSH2 0x21C1 JUMP JUMPDEST SWAP2 ISZERO PUSH2 0x2740 JUMPI POP SWAP1 PUSH1 0x1 SWAP2 PUSH2 0x272E DUP3 DUP10 PUSH2 0x20D3 JUMP JUMPDEST MSTORE PUSH2 0x2739 DUP2 DUP9 PUSH2 0x20D3 JUMP JUMPDEST POP ADD PUSH2 0x26DF JUMP JUMPDEST DUP2 MLOAD SWAP2 SWAP3 SWAP2 ISZERO PUSH2 0x2752 JUMPI DUP3 MLOAD PUSH1 0x20 DUP5 ADD REVERT JUMPDEST MLOAD PUSH4 0x234EB819 PUSH1 0xE0 SHL DUP2 MSTORE PUSH1 0x4 DUP2 ADD SWAP2 SWAP1 SWAP2 MSTORE PUSH1 0x24 SWAP2 POP REVERT JUMPDEST PUSH2 0x452 SWAP4 SWAP3 PUSH1 0x80 SWAP3 PUSH1 0x1 DUP1 PUSH1 0xA0 SHL SUB AND DUP3 MSTORE PUSH1 0x20 DUP3 ADD MSTORE PUSH1 0x1 PUSH1 0x40 DUP3 ADD MSTORE DUP2 PUSH1 0x60 DUP3 ADD MSTORE ADD SWAP1 PUSH2 0x41C JUMP JUMPDEST PUSH2 0x452 SWAP4 SWAP3 PUSH1 0x80 SWAP3 PUSH1 0x1 DUP1 PUSH1 0xA0 SHL SUB AND DUP3 MSTORE PUSH1 0x20 DUP3 ADD MSTORE PUSH1 0x0 PUSH1 0x40 DUP3 ADD MSTORE DUP2 PUSH1 0x60 DUP3 ADD MSTORE ADD SWAP1 PUSH2 0x41C JUMP JUMPDEST PUSH1 0x1 PUSH1 0x1 PUSH1 0xA0 SHL SUB DUP1 PUSH2 0x27D3 DUP5 PUSH2 0x266A JUMP JUMPDEST AND SWAP2 AND SWAP1 DUP2 EQ SWAP2 DUP3 ISZERO PUSH2 0x27E5 JUMPI POP POP SWAP1 JUMP JUMPDEST PUSH2 0x452 SWAP3 POP PUSH1 0x0 MSTORE PUSH1 0x5 PUSH1 0x20 MSTORE PUSH1 0x40 PUSH1 0x0 KECCAK256 PUSH1 0x1 SWAP2 PUSH1 0x0 MSTORE ADD PUSH1 0x20 MSTORE PUSH1 0x40 PUSH1 0x0 KECCAK256 SLOAD ISZERO ISZERO SWAP1 JUMP JUMPDEST SWAP1 SWAP3 SWAP4 SWAP2 PUSH2 0x281A DUP2 CALLER PUSH2 0x27C1 JUMP JUMPDEST ISZERO PUSH2 0x29BE JUMPI PUSH2 0x2828 DUP2 PUSH2 0x266A JUMP JUMPDEST PUSH1 0x1 PUSH1 0x1 PUSH1 0xA0 SHL SUB DUP2 DUP2 AND SWAP2 DUP5 DUP3 AND SWAP2 DUP3 DUP5 SUB PUSH2 0x298E JUMPI DUP1 DUP9 AND SWAP4 DUP5 ISZERO PUSH2 0x297C JUMPI PUSH2 0x2852 DUP7 PUSH2 0x266A JUMP JUMPDEST SWAP2 DUP3 AND SUB PUSH2 0x294C JUMPI POP POP SWAP3 PUSH2 0x2942 DUP4 DUP1 PUSH2 0x2555 SWAP10 SWAP8 SWAP5 PUSH2 0x1237 SWAP10 SWAP8 PUSH2 0x287A PUSH2 0x2947 SWAP9 DUP8 PUSH2 0x2C11 JUMP JUMPDEST PUSH1 0x1 PUSH1 0x1 PUSH1 0xA0 SHL SUB DUP7 AND PUSH1 0x0 SWAP1 DUP2 MSTORE PUSH1 0x4 PUSH1 0x20 MSTORE PUSH1 0x40 SWAP1 KECCAK256 PUSH2 0x289D SWAP1 DUP5 SWAP1 PUSH2 0x3288 JUMP JUMPDEST POP PUSH1 0x1 PUSH1 0x1 PUSH1 0xA0 SHL SUB DUP10 AND PUSH1 0x0 SWAP1 DUP2 MSTORE PUSH1 0x4 PUSH1 0x20 MSTORE PUSH1 0x40 SWAP1 KECCAK256 PUSH2 0x28C1 SWAP1 DUP5 SWAP1 PUSH2 0x31A2 JUMP JUMPDEST POP PUSH2 0x28F9 DUP10 PUSH2 0x28DA DUP6 PUSH1 0x0 MSTORE PUSH1 0x3 PUSH1 0x20 MSTORE PUSH1 0x40 PUSH1 0x0 KECCAK256 SWAP1 JUMP JUMPDEST DUP1 SLOAD PUSH1 0x1 PUSH1 0x1 PUSH1 0xA0 SHL SUB NOT AND PUSH1 0x1 PUSH1 0x1 PUSH1 0xA0 SHL SUB SWAP1 SWAP3 AND SWAP2 SWAP1 SWAP2 OR SWAP1 SSTORE JUMP JUMPDEST PUSH1 0x40 MLOAD PUSH32 0xB333C813A7426A7A11E2B190CAD52C44119421594B47F6F32ACE6D8C7207B2BF SWAP1 DUP1 PUSH2 0x292B DUP11 DUP15 CALLER DUP5 PUSH2 0x2B75 JUMP JUMPDEST SUB SWAP1 LOG4 PUSH1 0x40 MLOAD SWAP8 DUP9 SWAP5 DUP6 SWAP3 DUP9 DUP7 CALLER PUSH1 0x20 DUP8 ADD PUSH2 0x2BD7 JUMP JUMPDEST PUSH2 0x2F7B JUMP JUMPDEST PUSH2 0x3017 JUMP JUMPDEST PUSH1 0x40 MLOAD PUSH4 0x5A9C31D3 PUSH1 0xE0 SHL DUP2 MSTORE PUSH1 0x4 DUP2 ADD DUP7 SWAP1 MSTORE PUSH1 0x1 PUSH1 0x1 PUSH1 0xA0 SHL SUB SWAP3 DUP4 AND PUSH1 0x24 DUP3 ADD MSTORE SWAP2 AND PUSH1 0x44 DUP3 ADD MSTORE PUSH1 0x64 SWAP1 REVERT JUMPDEST PUSH1 0x40 MLOAD PUSH4 0x24ECEF4D PUSH1 0xE0 SHL DUP2 MSTORE PUSH1 0x4 SWAP1 REVERT JUMPDEST PUSH1 0x40 MLOAD PUSH4 0x2D938F51 PUSH1 0xE1 SHL DUP2 MSTORE PUSH1 0x1 PUSH1 0x1 PUSH1 0xA0 SHL SUB DUP4 DUP2 AND PUSH1 0x4 DUP4 ADD MSTORE PUSH1 0x24 DUP3 ADD DUP8 SWAP1 MSTORE DUP8 AND PUSH1 0x44 DUP3 ADD MSTORE PUSH1 0x64 SWAP1 REVERT JUMPDEST PUSH1 0x44 SWAP1 PUSH1 0x40 MLOAD SWAP1 PUSH4 0x1294D2A9 PUSH1 0xE0 SHL DUP3 MSTORE PUSH1 0x4 DUP3 ADD MSTORE CALLER PUSH1 0x24 DUP3 ADD MSTORE REVERT JUMPDEST SWAP5 SWAP4 SWAP1 SWAP2 SWAP3 DUP6 MLOAD SWAP4 DUP4 MLOAD DUP6 EQ DUP1 ISZERO SWAP1 PUSH2 0x2AA1 JUMPI JUMPDEST DUP1 ISZERO PUSH2 0x2A96 JUMPI JUMPDEST DUP1 ISZERO PUSH2 0x2A8B JUMPI JUMPDEST PUSH2 0x2A79 JUMPI PUSH1 0x0 JUMPDEST DUP6 DUP2 LT PUSH2 0x2A16 JUMPI POP POP POP POP POP POP SWAP1 POP JUMP JUMPDEST DUP1 PUSH2 0x2A73 PUSH2 0x2A36 PUSH2 0x2A29 PUSH1 0x1 SWAP5 DUP13 PUSH2 0x20D3 JUMP JUMPDEST MLOAD PUSH1 0x1 PUSH1 0x1 PUSH1 0xA0 SHL SUB AND SWAP1 JUMP JUMPDEST PUSH2 0x2A43 PUSH2 0x2A29 DUP5 DUP11 PUSH2 0x20D3 JUMP JUMPDEST PUSH2 0x2A4D DUP5 DUP8 PUSH2 0x20D3 JUMP JUMPDEST MLOAD PUSH2 0x2A61 PUSH2 0x2A5B DUP7 DUP11 PUSH2 0x20D3 JUMP JUMPDEST MLOAD ISZERO ISZERO SWAP1 JUMP JUMPDEST SWAP2 PUSH2 0x2A6C DUP7 DUP12 PUSH2 0x20D3 JUMP JUMPDEST MLOAD SWAP4 PUSH2 0x280C JUMP JUMPDEST ADD PUSH2 0x2A05 JUMP JUMPDEST PUSH1 0x40 MLOAD PUSH4 0x93A83119 PUSH1 0xE0 SHL DUP2 MSTORE PUSH1 0x4 SWAP1 REVERT JUMPDEST POP DUP3 MLOAD DUP6 EQ ISZERO PUSH2 0x29FE JUMP JUMPDEST POP DUP2 MLOAD DUP6 EQ ISZERO PUSH2 0x29F7 JUMP JUMPDEST POP DUP1 MLOAD DUP6 EQ ISZERO PUSH2 0x29F0 JUMP JUMPDEST SWAP2 SWAP4 SWAP3 DUP5 PUSH1 0x0 MSTORE PUSH1 0x5 PUSH1 0x20 MSTORE PUSH1 0x40 PUSH1 0x0 KECCAK256 SWAP3 PUSH1 0x1 DUP1 PUSH1 0xA0 SHL SUB SWAP1 PUSH2 0x2AD3 DUP3 DUP3 AND DUP1 SWAP7 PUSH2 0x3288 JUMP JUMPDEST ISZERO PUSH2 0x2B22 JUMPI POP SWAP1 PUSH2 0x2B1D PUSH32 0xC78CD419D6136F9F1C1C6AEC1D3FAE098CFFAF8BC86314A8F2685E32FE574E3C SWAP4 SWAP3 PUSH1 0x40 MLOAD SWAP4 DUP5 SWAP4 ISZERO ISZERO DUP5 MSTORE PUSH1 0x40 PUSH1 0x20 DUP6 ADD MSTORE AND SWAP6 PUSH1 0x40 DUP4 ADD SWAP1 PUSH2 0x41C JUMP JUMPDEST SUB SWAP1 LOG4 JUMP JUMPDEST PUSH1 0x40 MLOAD PUSH4 0x12A8C6A3 PUSH1 0xE2 SHL DUP2 MSTORE PUSH1 0x1 PUSH1 0x1 PUSH1 0xA0 SHL SUB SWAP2 SWAP1 SWAP2 AND PUSH1 0x4 DUP3 ADD MSTORE PUSH1 0x24 DUP2 ADD DUP8 SWAP1 MSTORE PUSH1 0x44 SWAP1 REVERT JUMPDEST PUSH1 0x1 PUSH1 0x1 PUSH1 0xA0 SHL SUB SWAP1 SWAP2 AND DUP2 MSTORE PUSH1 0x1 PUSH1 0x20 DUP3 ADD MSTORE PUSH1 0x60 PUSH1 0x40 DUP3 ADD DUP2 SWAP1 MSTORE PUSH2 0x452 SWAP3 SWAP2 ADD SWAP1 PUSH2 0x41C JUMP JUMPDEST PUSH1 0x1 PUSH1 0x1 PUSH1 0xA0 SHL SUB SWAP1 SWAP2 AND DUP2 MSTORE SWAP1 ISZERO ISZERO PUSH1 0x20 DUP3 ADD MSTORE PUSH1 0x60 PUSH1 0x40 DUP3 ADD DUP2 SWAP1 MSTORE PUSH2 0x452 SWAP3 SWAP2 ADD SWAP1 PUSH2 0x41C JUMP JUMPDEST PUSH1 0x1 PUSH1 0x1 PUSH1 0xA0 SHL SUB SWAP2 DUP3 AND DUP2 MSTORE PUSH1 0x0 PUSH1 0x20 DUP3 ADD MSTORE SWAP2 AND PUSH1 0x40 DUP3 ADD MSTORE PUSH1 0x60 DUP2 ADD SWAP2 SWAP1 SWAP2 MSTORE PUSH1 0xA0 PUSH1 0x80 DUP3 ADD DUP2 SWAP1 MSTORE PUSH2 0x452 SWAP3 SWAP2 ADD SWAP1 PUSH2 0x41C JUMP JUMPDEST PUSH1 0x1 PUSH1 0x1 PUSH1 0xA0 SHL SUB SWAP2 DUP3 AND DUP2 MSTORE SWAP2 DUP2 AND PUSH1 0x20 DUP4 ADD MSTORE SWAP1 SWAP2 AND PUSH1 0x40 DUP3 ADD MSTORE PUSH1 0x60 DUP2 ADD SWAP2 SWAP1 SWAP2 MSTORE PUSH1 0xA0 PUSH1 0x80 DUP3 ADD DUP2 SWAP1 MSTORE PUSH2 0x452 SWAP3 SWAP2 ADD SWAP1 PUSH2 0x41C JUMP JUMPDEST SWAP1 PUSH1 0x0 SWAP1 DUP1 DUP3 MSTORE PUSH1 0x5 SWAP2 PUSH1 0x20 SWAP4 DUP4 DUP6 MSTORE PUSH1 0x40 SWAP2 DUP3 DUP2 KECCAK256 SWAP5 DUP6 SLOAD SWAP6 DUP3 JUMPDEST DUP8 DUP2 LT PUSH2 0x2C3F JUMPI POP POP POP POP POP POP POP POP POP JUMP JUMPDEST DUP2 SLOAD ISZERO PUSH2 0x20E7 JUMPI DUP2 DUP5 MSTORE DUP9 DUP5 KECCAK256 SLOAD DUP7 MLOAD PUSH1 0x1 PUSH1 0x1 PUSH1 0xA0 SHL SUB SWAP2 DUP3 AND SWAP2 PUSH2 0x2C64 DUP3 PUSH2 0x4BF JUMP JUMPDEST DUP7 DUP3 MSTORE DUP10 DUP8 MSTORE DUP6 DUP13 MSTORE PUSH2 0x2C79 DUP4 DUP11 DUP10 KECCAK256 PUSH2 0x3288 JUMP JUMPDEST ISZERO PUSH2 0x2CCB JUMPI PUSH1 0x1 SWAP4 SWAP3 PUSH32 0xC78CD419D6136F9F1C1C6AEC1D3FAE098CFFAF8BC86314A8F2685E32FE574E3C DUP14 DUP10 PUSH2 0x2CC2 DUP15 SWAP7 DUP15 SWAP7 DUP15 DUP9 DUP1 MLOAD SWAP7 DUP8 SWAP7 DUP8 MSTORE DUP7 ADD MSTORE AND SWAP7 DUP4 ADD SWAP1 PUSH2 0x41C JUMP JUMPDEST SUB SWAP1 LOG4 ADD PUSH2 0x2C2D JUMP JUMPDEST DUP9 MLOAD PUSH4 0x12A8C6A3 PUSH1 0xE2 SHL DUP2 MSTORE PUSH1 0x1 PUSH1 0x1 PUSH1 0xA0 SHL SUB DUP5 AND PUSH1 0x4 DUP3 ADD MSTORE PUSH1 0x24 DUP2 ADD DUP12 SWAP1 MSTORE PUSH1 0x44 SWAP1 REVERT JUMPDEST SWAP2 SWAP1 PUSH1 0x40 MLOAD SWAP3 PUSH1 0x20 DUP5 ADD MSTORE PUSH1 0x40 DUP4 ADD MSTORE PUSH1 0x40 DUP3 MSTORE PUSH2 0x2555 DUP3 PUSH2 0x4FA JUMP JUMPDEST SWAP1 SWAP2 PUSH2 0x2D1B DUP4 DUP4 PUSH2 0x2CF2 JUMP JUMPDEST DUP1 MLOAD PUSH1 0x20 DUP1 SWAP3 ADD KECCAK256 PUSH1 0x0 MSTORE PUSH1 0x1 SWAP1 DUP2 DUP2 MSTORE PUSH1 0x40 PUSH1 0x0 KECCAK256 SWAP2 DUP4 MLOAD SWAP2 PUSH1 0x1 PUSH1 0x1 PUSH1 0x40 SHL SUB DUP4 GT PUSH2 0x4DA JUMPI PUSH2 0x2D57 DUP4 PUSH2 0x2D51 DUP7 SLOAD PUSH2 0xA0F JUMP JUMPDEST DUP7 PUSH2 0x2557 JUMP JUMPDEST DUP1 PUSH1 0x1F DUP5 GT PUSH1 0x1 EQ PUSH2 0x2DC3 JUMPI POP SWAP2 DUP1 DUP1 PUSH2 0x2DB3 SWAP6 SWAP4 PUSH32 0xA6E4251F855F750545FE414F120DB91C76B88DEF14D120969E5BB2D3F05DEBBB SWAP8 SWAP6 PUSH1 0x0 SWAP4 PUSH2 0x2DB8 JUMPI JUMPDEST POP SHL SWAP2 PUSH1 0x0 NOT SWAP1 PUSH1 0x3 SHL SHR NOT AND OR SWAP1 SSTORE PUSH1 0x40 MLOAD SWAP2 DUP3 SWAP2 DUP3 PUSH2 0x441 JUMP JUMPDEST SUB SWAP1 LOG3 JUMP JUMPDEST DUP7 ADD MLOAD SWAP3 POP CODESIZE PUSH2 0x2D97 JUMP JUMPDEST SWAP1 PUSH1 0x1F SWAP4 SWAP3 SWAP4 NOT DUP4 AND PUSH2 0x2DDB DUP7 PUSH1 0x0 MSTORE PUSH1 0x20 PUSH1 0x0 KECCAK256 SWAP1 JUMP JUMPDEST SWAP3 PUSH1 0x0 SWAP1 JUMPDEST DUP3 DUP3 LT PUSH2 0x2E26 JUMPI POP POP SWAP2 DUP4 SWAP2 PUSH2 0x2DB3 SWAP7 SWAP5 PUSH32 0xA6E4251F855F750545FE414F120DB91C76B88DEF14D120969E5BB2D3F05DEBBB SWAP9 SWAP7 SWAP5 LT PUSH2 0x1FCD JUMPI POP POP DUP2 SHL ADD SWAP1 SSTORE PUSH2 0x1F4F JUMP JUMPDEST DUP1 DUP8 DUP6 SWAP7 DUP3 SWAP5 SWAP7 DUP13 ADD MLOAD DUP2 SSTORE ADD SWAP6 ADD SWAP4 ADD SWAP1 PUSH2 0x2DE0 JUMP JUMPDEST PUSH1 0x20 DUP2 DUP4 SUB SLT PUSH2 0x341 JUMPI DUP1 MLOAD SWAP1 PUSH1 0x1 PUSH1 0x1 PUSH1 0x40 SHL SUB DUP3 GT PUSH2 0x341 JUMPI ADD DUP2 PUSH1 0x1F DUP3 ADD SLT ISZERO PUSH2 0x341 JUMPI DUP1 MLOAD PUSH2 0x2E6F DUP2 PUSH2 0x70D JUMP JUMPDEST SWAP3 PUSH2 0x2E7D PUSH1 0x40 MLOAD SWAP5 DUP6 PUSH2 0x515 JUMP JUMPDEST DUP2 DUP5 MSTORE PUSH1 0x20 DUP3 DUP5 ADD ADD GT PUSH2 0x341 JUMPI PUSH2 0x452 SWAP2 PUSH1 0x20 DUP1 DUP6 ADD SWAP2 ADD PUSH2 0x3F9 JUMP JUMPDEST SWAP1 PUSH1 0x40 PUSH2 0x452 SWAP3 PUSH32 0xB084A55EBF70FD3C06FD755269DAC2212C4D3F0F4D09079780BFA50C1B2984D DUP2 MSTORE DUP2 PUSH1 0x20 DUP3 ADD MSTORE ADD SWAP1 PUSH2 0x41C JUMP JUMPDEST PUSH1 0x40 MLOAD RETURNDATASIZE PUSH1 0x0 DUP3 RETURNDATACOPY RETURNDATASIZE SWAP1 REVERT JUMPDEST PUSH2 0x2EE7 DUP2 PUSH2 0x30FB JUMP JUMPDEST PUSH2 0x2EEF JUMPI POP POP JUMP JUMPDEST PUSH2 0x2F42 PUSH1 0x0 SWAP3 SWAP2 DUP4 SWAP3 PUSH1 0x40 MLOAD SWAP5 DUP6 DUP1 SWAP5 DUP2 SWAP4 PUSH4 0x1AED5A85 PUSH1 0xE2 SHL DUP4 MSTORE PUSH32 0x8A1C15A8799F71B547E08E2BCB2E85257E81B0A07EEE2CE6712549EEF1F00970 PUSH1 0x4 DUP5 ADD MSTORE PUSH1 0x40 PUSH1 0x24 DUP5 ADD MSTORE PUSH1 0x44 DUP4 ADD SWAP1 PUSH2 0x41C JUMP JUMPDEST SUB SWAP3 PUSH1 0x1 PUSH1 0x1 PUSH1 0xA0 SHL SUB AND GAS CALL DUP1 ISZERO PUSH2 0xC71 JUMPI PUSH2 0x2F5C JUMPI POP JUMP JUMPDEST PUSH2 0x2F78 SWAP1 RETURNDATASIZE DUP1 PUSH1 0x0 DUP4 RETURNDATACOPY PUSH2 0x2F70 DUP2 DUP4 PUSH2 0x515 JUMP JUMPDEST DUP2 ADD SWAP1 PUSH2 0x2E3D JUMP JUMPDEST POP JUMP JUMPDEST PUSH2 0x2F84 DUP2 PUSH2 0x30FB JUMP JUMPDEST PUSH2 0x2F8C JUMPI POP POP JUMP JUMPDEST PUSH2 0x2F42 PUSH1 0x0 SWAP3 SWAP2 DUP4 SWAP3 PUSH1 0x40 MLOAD SWAP5 DUP6 DUP1 SWAP5 DUP2 SWAP4 PUSH4 0x1AED5A85 PUSH1 0xE2 SHL DUP4 MSTORE PUSH32 0xB23EAE7E6D1564B295B4C3E3BE402D9A2F0776C57BDF365903496F6FA481AB00 PUSH1 0x4 DUP5 ADD MSTORE PUSH1 0x40 PUSH1 0x24 DUP5 ADD MSTORE PUSH1 0x44 DUP4 ADD SWAP1 PUSH2 0x41C JUMP JUMPDEST PUSH2 0x2FE8 DUP2 PUSH2 0x30FB JUMP JUMPDEST ISZERO PUSH2 0x3013 JUMPI PUSH1 0x40 MLOAD PUSH4 0x1AED5A85 PUSH1 0xE2 SHL DUP2 MSTORE SWAP2 PUSH1 0x0 SWAP2 DUP4 SWAP2 DUP3 SWAP1 DUP5 SWAP1 DUP3 SWAP1 PUSH2 0x2F42 SWAP1 PUSH1 0x4 DUP4 ADD PUSH2 0x2E9B JUMP JUMPDEST POP POP JUMP JUMPDEST SWAP2 SWAP1 PUSH2 0x3022 DUP4 PUSH2 0x30FB JUMP JUMPDEST ISZERO PUSH2 0x304C JUMPI POP PUSH2 0x2F42 PUSH1 0x0 SWAP3 DUP4 SWAP3 PUSH1 0x40 MLOAD SWAP5 DUP6 DUP1 SWAP5 DUP2 SWAP4 PUSH4 0x1AED5A85 PUSH1 0xE2 SHL DUP4 MSTORE PUSH1 0x4 DUP4 ADD PUSH2 0x2E9B JUMP JUMPDEST SWAP1 POP ISZERO PUSH2 0x3056 JUMPI POP JUMP JUMPDEST DUP1 EXTCODESIZE ISZERO PUSH2 0x3080 JUMPI PUSH1 0x40 MLOAD PUSH4 0x4349776D PUSH1 0xE0 SHL DUP2 MSTORE PUSH1 0x1 PUSH1 0x1 PUSH1 0xA0 SHL SUB SWAP2 SWAP1 SWAP2 AND PUSH1 0x4 DUP3 ADD MSTORE PUSH1 0x24 SWAP1 REVERT JUMPDEST PUSH1 0x40 MLOAD PUSH4 0x3173137 PUSH1 0xE0 SHL DUP2 MSTORE PUSH1 0x1 PUSH1 0x1 PUSH1 0xA0 SHL SUB SWAP2 SWAP1 SWAP2 AND PUSH1 0x4 DUP3 ADD MSTORE PUSH1 0x24 SWAP1 REVERT JUMPDEST PUSH1 0x0 SLOAD PUSH1 0x1 PUSH1 0x1 PUSH1 0xA0 SHL SUB AND CALLER SUB PUSH2 0x30B7 JUMPI JUMP JUMPDEST PUSH1 0x64 PUSH1 0x40 MLOAD PUSH3 0x461BCD PUSH1 0xE5 SHL DUP2 MSTORE PUSH1 0x20 PUSH1 0x4 DUP3 ADD MSTORE PUSH1 0x20 PUSH1 0x24 DUP3 ADD MSTORE PUSH32 0x4F776E61626C653A2063616C6C6572206973206E6F7420746865206F776E6572 PUSH1 0x44 DUP3 ADD MSTORE REVERT JUMPDEST PUSH1 0x0 PUSH1 0x20 SWAP2 PUSH1 0x40 MLOAD DUP4 DUP2 ADD SWAP1 PUSH4 0x1FFC9A7 PUSH1 0xE0 SHL DUP3 MSTORE PUSH4 0x1AED5A85 PUSH1 0xE2 SHL PUSH1 0x24 DUP3 ADD MSTORE PUSH1 0x24 DUP2 MSTORE PUSH2 0x312B DUP2 PUSH2 0x4FA JUMP JUMPDEST MLOAD SWAP2 PUSH2 0x7530 STATICCALL PUSH1 0x0 MLOAD RETURNDATASIZE DUP3 PUSH2 0x314C JUMPI JUMPDEST POP DUP2 PUSH2 0x3145 JUMPI POP SWAP1 JUMP JUMPDEST SWAP1 POP ISZERO ISZERO SWAP1 JUMP JUMPDEST PUSH1 0x20 GT ISZERO SWAP2 POP CODESIZE PUSH2 0x313B JUMP JUMPDEST PUSH1 0x0 SWAP1 PUSH1 0x20 SWAP3 PUSH1 0x40 MLOAD DUP5 DUP2 ADD SWAP2 PUSH4 0x1FFC9A7 PUSH1 0xE0 SHL DUP4 MSTORE PUSH4 0xFFFFFFFF PUSH1 0xE0 SHL AND PUSH1 0x24 DUP3 ADD MSTORE PUSH1 0x24 DUP2 MSTORE PUSH2 0x312B DUP2 PUSH2 0x4FA JUMP JUMPDEST DUP1 SLOAD DUP3 LT ISZERO PUSH2 0x20E7 JUMPI PUSH1 0x0 MSTORE PUSH1 0x20 PUSH1 0x0 KECCAK256 ADD SWAP1 PUSH1 0x0 SWAP1 JUMP JUMPDEST PUSH1 0x0 DUP3 DUP2 MSTORE PUSH1 0x1 DUP3 ADD PUSH1 0x20 MSTORE PUSH1 0x40 SWAP1 KECCAK256 SLOAD PUSH2 0x23BB JUMPI DUP1 SLOAD SWAP1 PUSH9 0x10000000000000000 DUP3 LT ISZERO PUSH2 0x4DA JUMPI DUP3 PUSH2 0x31F7 PUSH2 0x31E0 DUP5 PUSH1 0x1 DUP1 SWAP7 ADD DUP6 SSTORE DUP5 PUSH2 0x318A JUMP JUMPDEST DUP2 SWAP4 SWAP2 SLOAD SWAP1 PUSH1 0x3 SHL SWAP2 DUP3 SHL SWAP2 PUSH1 0x0 NOT SWAP1 SHL NOT AND OR SWAP1 JUMP JUMPDEST SWAP1 SSTORE DUP1 SLOAD SWAP3 PUSH1 0x0 MSTORE ADD PUSH1 0x20 MSTORE PUSH1 0x40 PUSH1 0x0 KECCAK256 SSTORE PUSH1 0x1 SWAP1 JUMP JUMPDEST PUSH4 0x4E487B71 PUSH1 0xE0 SHL PUSH1 0x0 MSTORE PUSH1 0x11 PUSH1 0x4 MSTORE PUSH1 0x24 PUSH1 0x0 REVERT JUMPDEST PUSH1 0x0 NOT DUP2 ADD SWAP2 SWAP1 DUP3 GT PUSH2 0x3233 JUMPI JUMP JUMPDEST PUSH2 0x320E JUMP JUMPDEST SWAP1 PUSH2 0x32A SWAP2 DUP3 SUB SWAP2 DUP3 GT PUSH2 0x3233 JUMPI JUMP JUMPDEST DUP1 SLOAD SWAP1 DUP2 ISZERO PUSH2 0x3272 JUMPI PUSH1 0x0 NOT SWAP2 DUP3 ADD SWAP2 PUSH2 0x3262 DUP4 DUP4 PUSH2 0x318A JUMP JUMPDEST SWAP1 SWAP2 DUP3 SLOAD SWAP2 PUSH1 0x3 SHL SHL NOT AND SWAP1 SSTORE SSTORE JUMP JUMPDEST PUSH4 0x4E487B71 PUSH1 0xE0 SHL PUSH1 0x0 MSTORE PUSH1 0x31 PUSH1 0x4 MSTORE PUSH1 0x24 PUSH1 0x0 REVERT JUMPDEST PUSH1 0x1 DUP2 ADD SWAP2 DUP1 PUSH1 0x0 MSTORE DUP3 PUSH1 0x20 MSTORE PUSH1 0x40 PUSH1 0x0 KECCAK256 SLOAD SWAP3 DUP4 ISZERO ISZERO PUSH1 0x0 EQ PUSH2 0x3334 JUMPI PUSH1 0x0 NOT SWAP3 DUP5 DUP5 ADD SWAP1 DUP6 DUP3 GT PUSH2 0x3233 JUMPI DUP1 SLOAD SWAP5 DUP6 ADD SWAP5 DUP6 GT PUSH2 0x3233 JUMPI PUSH1 0x0 SWAP6 DUP6 DUP4 PUSH2 0x32DC SWAP5 PUSH2 0x32EB SWAP9 SUB PUSH2 0x32F1 JUMPI JUMPDEST POP POP POP PUSH2 0x3248 JUMP JUMPDEST SWAP1 PUSH1 0x0 MSTORE PUSH1 0x20 MSTORE PUSH1 0x40 PUSH1 0x0 KECCAK256 SWAP1 JUMP JUMPDEST SSTORE PUSH1 0x1 SWAP1 JUMP JUMPDEST PUSH2 0x331B PUSH2 0x3315 SWAP2 PUSH2 0x3305 PUSH2 0x332B SWAP5 DUP8 PUSH2 0x318A JUMP JUMPDEST SWAP1 SLOAD SWAP1 PUSH1 0x3 SHL SHR SWAP3 DUP4 SWAP2 DUP8 PUSH2 0x318A JUMP JUMPDEST SWAP1 PUSH2 0x24F8 JUMP JUMPDEST DUP6 SWAP1 PUSH1 0x0 MSTORE PUSH1 0x20 MSTORE PUSH1 0x40 PUSH1 0x0 KECCAK256 SWAP1 JUMP JUMPDEST SSTORE CODESIZE DUP1 DUP1 PUSH2 0x32D4 JUMP JUMPDEST POP POP POP POP PUSH1 0x0 SWAP1 JUMP JUMPDEST SWAP1 PUSH1 0x40 MLOAD SWAP2 DUP3 DUP2 SLOAD SWAP2 DUP3 DUP3 MSTORE PUSH1 0x20 SWAP3 DUP4 DUP4 ADD SWAP2 PUSH1 0x0 MSTORE DUP4 PUSH1 0x0 KECCAK256 SWAP4 PUSH1 0x0 SWAP1 JUMPDEST DUP3 DUP3 LT PUSH2 0x3372 JUMPI POP POP POP PUSH2 0x2555 SWAP3 POP SUB DUP4 PUSH2 0x515 JUMP JUMPDEST DUP6 SLOAD DUP5 MSTORE PUSH1 0x1 SWAP6 DUP7 ADD SWAP6 DUP9 SWAP6 POP SWAP4 DUP2 ADD SWAP4 SWAP1 SWAP2 ADD SWAP1 PUSH2 0x335C JUMP JUMPDEST PUSH2 0x452 SWAP2 PUSH1 0x1 PUSH1 0x1 PUSH1 0xA0 SHL SUB AND SWAP1 PUSH2 0x31A2 JUMP JUMPDEST PUSH1 0x40 MLOAD SWAP1 PUSH2 0x33AC DUP3 PUSH2 0x4DF JUMP JUMPDEST PUSH1 0x10 DUP3 MSTORE PUSH16 0x181899199A1A9B1B9C1CB0B131B232B3 PUSH1 0x81 SHL PUSH1 0x20 DUP4 ADD MSTORE JUMP JUMPDEST PUSH1 0x40 MLOAD SWAP1 PUSH2 0x33D8 DUP3 PUSH2 0x4FA JUMP JUMPDEST PUSH1 0x40 DUP1 DUP4 MSTORE CALLDATASIZE PUSH1 0x20 DUP5 ADD CALLDATACOPY JUMP JUMPDEST SWAP1 PUSH2 0x33EF DUP3 PUSH2 0x70D JUMP JUMPDEST PUSH2 0x33FC PUSH1 0x40 MLOAD SWAP2 DUP3 PUSH2 0x515 JUMP JUMPDEST DUP3 DUP2 MSTORE DUP1 SWAP3 PUSH2 0x340D PUSH1 0x1F NOT SWAP2 PUSH2 0x70D JUMP JUMPDEST ADD SWAP1 PUSH1 0x20 CALLDATASIZE SWAP2 ADD CALLDATACOPY JUMP JUMPDEST PUSH1 0x0 NOT DUP2 EQ PUSH2 0x3233 JUMPI PUSH1 0x1 ADD SWAP1 JUMP JUMPDEST DUP1 MLOAD ISZERO PUSH2 0x20E7 JUMPI PUSH1 0x20 ADD SWAP1 JUMP JUMPDEST SWAP1 DUP2 MLOAD DUP2 LT ISZERO PUSH2 0x20E7 JUMPI ADD PUSH1 0x20 ADD SWAP1 JUMP JUMPDEST SWAP1 DUP2 PUSH1 0x1 SHL SWAP2 DUP1 DUP4 DIV PUSH1 0x2 EQ SWAP1 ISZERO OR ISZERO PUSH2 0x3233 JUMPI JUMP JUMPDEST SWAP1 DUP2 PUSH1 0x9 MUL SWAP2 PUSH1 0x9 DUP4 DIV SUB PUSH2 0x3233 JUMPI JUMP JUMPDEST PUSH1 0x2 DUP2 SWAP1 SHL SWAP2 SWAP1 PUSH1 0x1 PUSH1 0x1 PUSH1 0xFE SHL SUB DUP2 AND SUB PUSH2 0x3233 JUMPI JUMP JUMPDEST SWAP1 DUP2 PUSH1 0x37 MUL SWAP2 PUSH1 0x37 DUP4 DIV SUB PUSH2 0x3233 JUMPI JUMP JUMPDEST DUP2 DUP2 MUL SWAP3 SWAP2 DUP2 ISZERO SWAP2 DUP5 DIV EQ OR ISZERO PUSH2 0x3233 JUMPI JUMP JUMPDEST SWAP1 PUSH1 0x1 DUP3 ADD DUP1 SWAP3 GT PUSH2 0x3233 JUMPI JUMP JUMPDEST SWAP1 PUSH1 0xA DUP3 ADD DUP1 SWAP3 GT PUSH2 0x3233 JUMPI JUMP JUMPDEST SWAP1 PUSH1 0x30 DUP3 ADD DUP1 SWAP3 GT PUSH2 0x3233 JUMPI JUMP JUMPDEST SWAP1 PUSH1 0x2 DUP3 ADD DUP1 SWAP3 GT PUSH2 0x3233 JUMPI JUMP JUMPDEST PUSH1 0x23 ADD SWAP1 DUP2 PUSH1 0x23 GT PUSH2 0x3233 JUMPI JUMP JUMPDEST PUSH1 0xB4 ADD SWAP1 DUP2 PUSH1 0xB4 GT PUSH2 0x3233 JUMPI JUMP JUMPDEST SWAP1 PUSH2 0x3504 PUSH2 0x339F JUMP JUMPDEST PUSH1 0x40 MLOAD SWAP1 PUSH2 0x3511 DUP3 PUSH2 0x4DF JUMP JUMPDEST PUSH1 0x6 DUP3 MSTORE PUSH1 0x20 CALLDATASIZE DUP2 DUP5 ADD CALLDATACOPY PUSH1 0x0 DUP1 JUMPDEST PUSH1 0x3 DUP2 LT PUSH2 0x3530 JUMPI POP SWAP2 SWAP4 POP POP POP JUMP JUMPDEST PUSH2 0x3591 SWAP1 PUSH1 0x1 PUSH1 0x1 PUSH1 0xF8 SHL SUB NOT PUSH2 0x3576 PUSH1 0xF DUP10 DUP5 BYTE DUP4 PUSH2 0x3556 PUSH1 0x4 DUP4 SWAP1 SHR DUP5 AND DUP11 PUSH2 0x3433 JUMP JUMPDEST MLOAD AND PUSH2 0x356E PUSH2 0x3564 DUP8 PUSH2 0x3444 JUMP JUMPDEST SWAP2 DUP10 BYTE SWAP2 DUP12 PUSH2 0x3433 JUMP JUMPDEST MSTORE8 AND DUP7 PUSH2 0x3433 JUMP JUMPDEST MLOAD AND PUSH2 0x1A50 PUSH2 0x3587 PUSH2 0x1A41 DUP5 PUSH2 0x3444 JUMP JUMPDEST SWAP2 DUP6 BYTE SWAP2 DUP8 PUSH2 0x3433 JUMP JUMPDEST PUSH2 0x3520 JUMP JUMPDEST DUP1 ISZERO PUSH2 0x3612 JUMPI DUP1 PUSH1 0x0 SWAP1 DUP3 DUP3 SWAP4 JUMPDEST PUSH2 0x35FE JUMPI POP PUSH2 0x35B2 DUP4 PUSH2 0x33E5 JUMP JUMPDEST SWAP3 SWAP1 DUP1 JUMPDEST PUSH2 0x35C0 JUMPI POP POP POP SWAP1 JUMP JUMPDEST PUSH1 0xA SWAP1 PUSH1 0x30 SWAP3 DUP3 DUP3 MOD DUP5 ADD DUP1 SWAP5 GT PUSH2 0x3233 JUMPI DUP1 ISZERO PUSH2 0x3233 JUMPI PUSH1 0x0 NOT ADD SWAP3 PUSH1 0xF8 SHL PUSH1 0x1 PUSH1 0x1 PUSH1 0xF8 SHL SUB NOT AND DUP5 BYTE PUSH2 0x35F6 DUP5 DUP8 PUSH2 0x3433 JUMP JUMPDEST MSTORE8 DIV DUP1 PUSH2 0x35B6 JUMP JUMPDEST SWAP3 PUSH2 0x360A PUSH1 0xA SWAP2 PUSH2 0x3417 JUMP JUMPDEST SWAP4 DIV DUP1 PUSH2 0x35A4 JUMP JUMPDEST POP PUSH1 0x40 MLOAD PUSH2 0x361F DUP2 PUSH2 0x4DF JUMP JUMPDEST PUSH1 0x1 DUP2 MSTORE PUSH1 0x3 PUSH1 0xFC SHL PUSH1 0x20 DUP3 ADD MSTORE SWAP1 JUMP JUMPDEST PUSH1 0x40 MLOAD SWAP1 PUSH2 0x363D DUP3 PUSH2 0x4DF JUMP JUMPDEST PUSH1 0x5 DUP3 MSTORE PUSH5 0x33B932B2B7 PUSH1 0xD9 SHL PUSH1 0x20 DUP4 ADD MSTORE JUMP JUMPDEST PUSH1 0x40 MLOAD SWAP1 PUSH2 0x365E DUP3 PUSH2 0x4DF JUMP JUMPDEST PUSH1 0x4 DUP3 MSTORE PUSH4 0x626C7565 PUSH1 0xE0 SHL PUSH1 0x20 DUP4 ADD MSTORE JUMP JUMPDEST PUSH1 0x40 MLOAD SWAP1 PUSH2 0x367E DUP3 PUSH2 0x4DF JUMP JUMPDEST PUSH1 0x3 DUP3 MSTORE PUSH3 0x1C9959 PUSH1 0xEA SHL PUSH1 0x20 DUP4 ADD MSTORE JUMP JUMPDEST PUSH1 0x40 MLOAD SWAP1 PUSH2 0x369D DUP3 PUSH2 0x4DF JUMP JUMPDEST PUSH1 0x6 DUP3 MSTORE PUSH6 0x707572706C65 PUSH1 0xD0 SHL PUSH1 0x20 DUP4 ADD MSTORE JUMP JUMPDEST PUSH1 0x40 MLOAD SWAP1 PUSH2 0x36BF DUP3 PUSH2 0x4DF JUMP JUMPDEST PUSH1 0x6 DUP3 MSTORE PUSH6 0x79656C6C6F77 PUSH1 0xD0 SHL PUSH1 0x20 DUP4 ADD MSTORE JUMP JUMPDEST SWAP1 PUSH2 0x36E7 PUSH1 0x20 SWAP3 DUP3 DUP2 MLOAD SWAP5 DUP6 SWAP3 ADD PUSH2 0x3F9 JUMP JUMPDEST ADD SWAP1 JUMP JUMPDEST PUSH1 0x40 MLOAD SWAP1 PUSH2 0x36F8 DUP3 PUSH2 0x4DF JUMP JUMPDEST PUSH1 0x7 DUP3 MSTORE PUSH7 0x23666163633135 PUSH1 0xC8 SHL PUSH1 0x20 DUP4 ADD MSTORE JUMP JUMPDEST PUSH1 0x40 MLOAD SWAP1 PUSH2 0x371B DUP3 PUSH2 0x4DF JUMP JUMPDEST PUSH1 0x7 DUP3 MSTORE PUSH7 0x23613835356637 PUSH1 0xC8 SHL PUSH1 0x20 DUP4 ADD MSTORE JUMP JUMPDEST PUSH1 0x40 MLOAD SWAP1 PUSH2 0x373E DUP3 PUSH2 0x4DF JUMP JUMPDEST PUSH1 0x7 DUP3 MSTORE PUSH7 0x8D9598D0D0D0D PUSH1 0xCA SHL PUSH1 0x20 DUP4 ADD MSTORE JUMP JUMPDEST PUSH1 0x40 MLOAD SWAP1 PUSH2 0x3761 DUP3 PUSH2 0x4DF JUMP JUMPDEST PUSH1 0x7 DUP3 MSTORE PUSH7 0x1199B11C19331B PUSH1 0xC9 SHL PUSH1 0x20 DUP4 ADD MSTORE JUMP JUMPDEST PUSH1 0x40 MLOAD SWAP1 PUSH2 0x3784 DUP3 PUSH2 0x4DF JUMP JUMPDEST PUSH1 0x7 DUP3 MSTORE PUSH7 0x23613365363335 PUSH1 0xC8 SHL PUSH1 0x20 DUP4 ADD MSTORE JUMP JUMPDEST PUSH1 0x40 MLOAD SWAP1 PUSH2 0x37A7 DUP3 PUSH2 0x4DF JUMP JUMPDEST PUSH1 0x7 DUP3 MSTORE PUSH7 0x2366666363303 PUSH1 0xCC SHL PUSH1 0x20 DUP4 ADD MSTORE JUMP JUMPDEST PUSH1 0x40 MLOAD SWAP1 PUSH2 0x37CA DUP3 PUSH2 0x4DF JUMP JUMPDEST PUSH1 0x7 DUP3 MSTORE PUSH7 0x11B1B198183333 PUSH1 0xC9 SHL PUSH1 0x20 DUP4 ADD MSTORE JUMP JUMPDEST PUSH1 0x40 MLOAD SWAP1 PUSH2 0x37ED DUP3 PUSH2 0x4DF JUMP JUMPDEST PUSH1 0x7 DUP3 MSTORE PUSH7 0x11B33318181B1B PUSH1 0xC9 SHL PUSH1 0x20 DUP4 ADD MSTORE JUMP JUMPDEST PUSH1 0x40 MLOAD SWAP1 PUSH2 0x3810 DUP3 PUSH2 0x4DF JUMP JUMPDEST PUSH1 0x7 DUP3 MSTORE PUSH7 0x11981831B1B333 PUSH1 0xC9 SHL PUSH1 0x20 DUP4 ADD MSTORE JUMP JUMPDEST PUSH1 0x40 MLOAD SWAP1 PUSH2 0x3833 DUP3 PUSH2 0x4DF JUMP JUMPDEST PUSH1 0x7 DUP3 MSTORE PUSH7 0x2330306666303 PUSH1 0xCC SHL PUSH1 0x20 DUP4 ADD MSTORE JUMP JUMPDEST PUSH1 0x40 MLOAD SWAP1 PUSH2 0x3856 DUP3 PUSH2 0x4DF JUMP JUMPDEST PUSH1 0x7 DUP3 MSTORE PUSH7 0x11B33318183333 PUSH1 0xC9 SHL PUSH1 0x20 DUP4 ADD MSTORE JUMP JUMPDEST PUSH4 0x1E17B39F PUSH1 0xE1 SHL DUP2 MSTORE PUSH1 0x4 ADD SWAP1 JUMP JUMPDEST SWAP5 SWAP4 SWAP6 SWAP2 DUP3 PUSH1 0x0 EQ PUSH2 0x437A JUMPI DUP2 MLOAD PUSH1 0x20 SWAP3 DUP4 DUP2 ADD SWAP2 DUP3 KECCAK256 PUSH2 0x389B PUSH2 0x3630 JUMP JUMPDEST DUP1 MLOAD SWAP1 DUP7 ADD KECCAK256 SUB PUSH2 0x42C2 JUMPI POP POP POP POP PUSH2 0x38B2 PUSH2 0x3826 JUMP JUMPDEST SWAP5 JUMPDEST PUSH1 0x40 MLOAD SWAP5 PUSH1 0x3 PUSH1 0x20 DUP8 ADD DUP8 PUSH2 0x38DC DUP5 DUP4 PUSH1 0x26 SWAP2 DUP2 MSTORE PUSH6 0xDAC2E8E4D2F PUSH1 0xD3 SHL PUSH1 0x20 DUP3 ADD MSTORE ADD SWAP1 JUMP JUMPDEST SUB SWAP8 PUSH2 0x38F0 PUSH1 0x1F NOT SWAP10 DUP11 DUP2 ADD DUP4 MSTORE DUP3 PUSH2 0x515 JUMP JUMPDEST MLOAD SWAP1 KECCAK256 DUP5 ISZERO PUSH2 0x42BA JUMPI DUP2 AND LT SWAP7 JUMPDEST DUP4 ISZERO PUSH2 0x42AC JUMPI PUSH2 0x390C PUSH2 0x3849 JUMP JUMPDEST SWAP6 JUMPDEST PUSH2 0x3929 PUSH2 0x3922 PUSH2 0x391D DUP9 PUSH2 0x345A JUMP JUMPDEST PUSH2 0x3238 JUMP JUMPDEST PUSH1 0xB SWAP1 DIV SWAP1 JUMP JUMPDEST SWAP3 DUP10 ISZERO PUSH2 0x429E JUMPI PUSH2 0x3938 PUSH2 0x447C JUMP JUMPDEST SWAP10 JUMPDEST ISZERO PUSH2 0x428C JUMPI PUSH2 0x3957 PUSH2 0x3957 PUSH2 0x3951 PUSH2 0x395D SWAP4 PUSH2 0x46AE JUMP JUMPDEST SWAP9 PUSH2 0x3596 JUMP JUMPDEST SWAP5 PUSH2 0x3596 JUMP JUMPDEST DUP2 MLOAD SWAP1 SWAP6 SWAP1 ISZERO PUSH2 0x427C JUMPI ISZERO PUSH2 0x41EA JUMPI PUSH2 0x3A17 PUSH2 0x39F8 SWAP2 PUSH2 0x3A0B PUSH1 0x40 MLOAD SWAP4 DUP5 SWAP3 PUSH2 0x39F2 PUSH1 0x20 DUP6 ADD PUSH1 0x56 SWAP1 PUSH32 0x3C7465787420783D223230302220793D223330302220636C6173733D22757365 DUP2 MSTORE PUSH32 0x726E616D6522207374796C653D22666F6E742D66616D696C793A2027436F6D69 PUSH1 0x20 DUP3 ADD MSTORE PUSH22 0x319029B0B7399026A993961031BAB939B4BB329D911F PUSH1 0x51 SHL PUSH1 0x40 DUP3 ADD MSTORE ADD SWAP1 JUMP JUMPDEST SWAP1 PUSH2 0x36D4 JUMP JUMPDEST PUSH7 0x1E17BA32BC3A1F PUSH1 0xC9 SHL DUP2 MSTORE PUSH1 0x7 ADD SWAP1 JUMP JUMPDEST SUB DUP10 DUP2 ADD DUP4 MSTORE DUP3 PUSH2 0x515 JUMP JUMPDEST SWAP5 JUMPDEST PUSH1 0x40 MLOAD SWAP9 DUP10 SWAP8 PUSH1 0x20 DUP10 ADD PUSH2 0x3A9D SWAP1 PUSH1 0x57 SWAP1 PUSH32 0x3C73766720786D6C6E733D22687474703A2F2F7777772E77332E6F72672F3230 DUP2 MSTORE PUSH32 0x30302F737667222076696577426F783D22302030203430302034303022207769 PUSH1 0x20 DUP3 ADD MSTORE PUSH32 0x6474683D2234303022206865696768743D22343030223E000000000000000000 PUSH1 0x40 DUP3 ADD MSTORE ADD SWAP1 JUMP JUMPDEST PUSH6 0x1E3232B3399F PUSH1 0xD1 SHL DUP2 MSTORE PUSH1 0x6 ADD PUSH7 0x1E39BA3CB6329F PUSH1 0xC9 SHL DUP2 MSTORE PUSH1 0x7 ADD PUSH32 0x40696D706F72742075726C282268747470733A2F2F666F6E74732E676F6F676C DUP2 MSTORE PUSH32 0x65617069732E636F6D2F637373323F66616D696C793D436F6D69632B53616E73 PUSH1 0x20 DUP3 ADD MSTORE PUSH32 0x2B4D5326616D703B646973706C61793D7377617022293B000000000000000000 PUSH1 0x40 DUP3 ADD MSTORE PUSH1 0x57 ADD PUSH32 0x2E757365726E616D65207B20666F6E742D66616D696C793A2022436F6D696320 DUP2 MSTORE PUSH32 0x53616E73204D53222C20637572736976653B20666F6E742D73697A653A203136 PUSH1 0x20 DUP3 ADD MSTORE PUSH32 0x70783B2066696C6C3A2077686974653B20746578742D616E63686F723A206D69 PUSH1 0x40 DUP3 ADD MSTORE PUSH7 0x64646C653B207D PUSH1 0xC8 SHL PUSH1 0x60 DUP3 ADD MSTORE PUSH1 0x67 ADD PUSH32 0x2E6D61747269782D63686172207B20666F6E742D66616D696C793A206D6F6E6F DUP2 MSTORE PUSH13 0x39B830B1B29D903334B6361D1 PUSH1 0x9D SHL PUSH1 0x20 DUP3 ADD MSTORE PUSH1 0x2D ADD PUSH2 0x3BF5 SWAP2 PUSH2 0x36D4 JUMP JUMPDEST PUSH32 0x3B206F7061636974793A20302E333B20616E696D6174696F6E3A206661646520 DUP2 MSTORE PUSH32 0x337320696E66696E6974652C2066616C6C203873206C696E65617220696E6669 PUSH1 0x20 DUP3 ADD MSTORE PUSH7 0x6E6974653B207D PUSH1 0xC8 SHL PUSH1 0x40 DUP3 ADD MSTORE PUSH1 0x47 ADD PUSH32 0x406B65796672616D65732066616465207B203025207B206F7061636974793A20 DUP2 MSTORE PUSH32 0x302E323B207D20333025207B206F7061636974793A20302E393B207D20373025 PUSH1 0x20 DUP3 ADD MSTORE PUSH32 0x207B206F7061636974793A20302E393B207D2031303025207B206F7061636974 PUSH1 0x40 DUP3 ADD MSTORE PUSH11 0x793A20302E323B207D207D PUSH1 0xA8 SHL PUSH1 0x60 DUP3 ADD MSTORE PUSH1 0x6B ADD PUSH32 0x406B65796672616D65732066616C6C207B2066726F6D207B207472616E73666F DUP2 MSTORE PUSH32 0x726D3A207472616E736C61746559282D32307078293B207D20746F207B207472 PUSH1 0x20 DUP3 ADD MSTORE PUSH32 0x616E73666F726D3A207472616E736C61746559283432307078293B207D207D00 PUSH1 0x40 DUP3 ADD MSTORE PUSH1 0x5F ADD PUSH8 0x1E17B9BA3CB6329F PUSH1 0xC1 SHL DUP2 MSTORE PUSH1 0x8 ADD PUSH2 0x3D63 SWAP2 PUSH2 0x36D4 JUMP JUMPDEST PUSH7 0x1E17B232B3399F PUSH1 0xC9 SHL DUP2 MSTORE PUSH1 0x7 ADD PUSH32 0x3C726563742077696474683D2234303022206865696768743D22343030222066 DUP2 MSTORE PUSH13 0x34B6361E91313630B1B591179F PUSH1 0x99 SHL PUSH1 0x20 DUP3 ADD MSTORE PUSH1 0x2D ADD PUSH2 0x3DB8 SWAP2 PUSH2 0x36D4 JUMP JUMPDEST PUSH32 0x3C6720636C6173733D226C6F6F6769652D636F6E7461696E6572223E00000000 DUP2 MSTORE PUSH1 0x1C ADD PUSH13 0x1E339034B21E9132BCB298911F PUSH1 0x99 SHL DUP2 MSTORE PUSH1 0xD ADD PUSH32 0x3C656C6C69707365207374726F6B652D77696474683D2233222072793D223239 DUP2 MSTORE PUSH32 0x2E35222072783D2232392E35222069643D227376675F31222063793D22313534 PUSH1 0x20 DUP3 ADD MSTORE PUSH32 0x2E35222063783D223138312E3522207374726F6B653D2223303030222066696C PUSH1 0x40 DUP3 ADD MSTORE PUSH10 0x361E9111B3333311179F PUSH1 0xB1 SHL PUSH1 0x60 DUP3 ADD MSTORE PUSH1 0x6A ADD PUSH32 0x3C656C6C697073652072793D22332E35222072783D22322E35222069643D2273 DUP2 MSTORE PUSH32 0x76675F33222063793D223135342E35222063783D223137332E3522207374726F PUSH1 0x20 DUP3 ADD MSTORE PUSH32 0x6B652D77696474683D223322207374726F6B653D2223303030222066696C6C3D PUSH1 0x40 DUP3 ADD MSTORE PUSH11 0x111198181818181811179F PUSH1 0xA9 SHL PUSH1 0x60 DUP3 ADD MSTORE PUSH1 0x6B ADD PUSH2 0x3F08 SWAP1 PUSH2 0x386C JUMP JUMPDEST PUSH13 0x1E339034B21E913432B0B2111F PUSH1 0x99 SHL DUP2 MSTORE PUSH1 0xD ADD PUSH15 0x1E32B63634B839B2903334B6361E91 PUSH1 0x89 SHL DUP2 MSTORE PUSH1 0xF ADD PUSH2 0x3F3F SWAP2 PUSH2 0x36D4 JUMP JUMPDEST PUSH32 0x22207374726F6B652D77696474683D2233222063783D223230342E3522206379 DUP2 MSTORE PUSH32 0x3D223231312E3830303635222069643D227376675F35222072783D2200000000 PUSH1 0x20 DUP3 ADD MSTORE PUSH1 0x3C ADD PUSH2 0x3F94 SWAP2 PUSH2 0x36D4 JUMP JUMPDEST PUSH32 0x222072793D2235312E383030363522207374726F6B653D2223303030222F3E00 DUP2 MSTORE PUSH1 0x1F ADD PUSH2 0x3FC3 SWAP1 PUSH2 0x386C JUMP JUMPDEST PUSH13 0x1E339034B21E9132BCB299111F PUSH1 0x99 SHL DUP2 MSTORE PUSH1 0xD ADD PUSH32 0x3C656C6C69707365207374726F6B652D77696474683D2233222072793D223239 DUP2 MSTORE PUSH32 0x2E35222072783D2232392E35222069643D227376675F32222063793D22313638 PUSH1 0x20 DUP3 ADD MSTORE PUSH32 0x2E35222063783D223230392E3522207374726F6B653D2223303030222066696C PUSH1 0x40 DUP3 ADD MSTORE PUSH10 0x361E9111B3333311179F PUSH1 0xB1 SHL PUSH1 0x60 DUP3 ADD MSTORE PUSH1 0x6A ADD PUSH32 0x3C656C6C697073652072793D22332E35222072783D2233222069643D22737667 DUP2 MSTORE PUSH32 0x5F34222063793D223136392E35222063783D2232303822207374726F6B652D77 PUSH1 0x20 DUP3 ADD MSTORE PUSH32 0x696474683D2233222066696C6C3D222330303030303022207374726F6B653D22 PUSH1 0x40 DUP3 ADD MSTORE PUSH7 0x1198181811179F PUSH1 0xC9 SHL PUSH1 0x60 DUP3 ADD MSTORE PUSH1 0x67 ADD PUSH2 0x40E9 SWAP1 PUSH2 0x386C JUMP JUMPDEST PUSH32 0x3C6720636C6173733D226D6F75746822207472616E73666F726D3D227472616E DUP2 MSTORE PUSH6 0xE6D8C2E8CA5 PUSH1 0xD3 SHL PUSH1 0x20 DUP3 ADD MSTORE PUSH1 0x26 ADD PUSH2 0x4127 SWAP2 PUSH2 0x36D4 JUMP JUMPDEST PUSH5 0x161814911F PUSH1 0xD9 SHL DUP2 MSTORE PUSH1 0x5 ADD PUSH32 0x3C7061746820643D224D20313330203234302051203136352032353020000000 DUP2 MSTORE PUSH1 0x1D ADD PUSH2 0x4164 SWAP2 PUSH2 0x36D4 JUMP JUMPDEST PUSH32 0x2032333522207374726F6B653D22626C61636B22207374726F6B652D77696474 DUP2 MSTORE PUSH32 0x683D2233222066696C6C3D227472616E73706172656E74222F3E000000000000 PUSH1 0x20 DUP3 ADD MSTORE PUSH1 0x3A ADD PUSH2 0x41B9 SWAP1 PUSH2 0x386C JUMP JUMPDEST PUSH2 0x41C2 SWAP2 PUSH2 0x36D4 JUMP JUMPDEST PUSH2 0x41CB SWAP1 PUSH2 0x386C JUMP JUMPDEST PUSH6 0x1E17B9BB339F PUSH1 0xD1 SHL DUP2 MSTORE PUSH1 0x6 ADD SUB SWAP1 DUP2 ADD DUP3 MSTORE PUSH2 0x452 SWAP1 DUP3 PUSH2 0x515 JUMP JUMPDEST PUSH2 0x4277 PUSH2 0x39F8 SWAP2 PUSH2 0x3A0B PUSH1 0x40 MLOAD SWAP4 DUP5 SWAP3 PUSH2 0x39F2 PUSH1 0x20 DUP6 ADD PUSH1 0x5D SWAP1 PUSH32 0x3C7465787420783D223230302220793D223330302220666F6E742D66616D696C DUP2 MSTORE PUSH32 0x793D22417269616C2220666F6E742D73697A653D223136222066696C6C3D2223 PUSH1 0x20 DUP3 ADD MSTORE PUSH32 0x6666666666662220746578742D616E63686F723D226D6964646C65223E000000 PUSH1 0x40 DUP3 ADD MSTORE ADD SWAP1 JUMP JUMPDEST PUSH2 0x3A17 JUMP JUMPDEST POP POP PUSH2 0x4286 PUSH2 0x21AE JUMP JUMPDEST SWAP5 PUSH2 0x3A19 JUMP JUMPDEST POP PUSH2 0x395D PUSH2 0x3957 PUSH2 0x3957 PUSH2 0x3951 PUSH2 0x21AE JUMP JUMPDEST PUSH2 0x42A6 PUSH2 0x21AE JUMP JUMPDEST SWAP10 PUSH2 0x393A JUMP JUMPDEST PUSH2 0x42B4 PUSH2 0x3826 JUMP JUMPDEST SWAP6 PUSH2 0x390E JUMP JUMPDEST AND ISZERO SWAP7 PUSH2 0x38FE JUMP JUMPDEST DUP1 MLOAD DUP3 KECCAK256 PUSH2 0x42CE PUSH2 0x3651 JUMP JUMPDEST DUP1 MLOAD SWAP1 DUP7 ADD KECCAK256 SUB PUSH2 0x42EB JUMPI POP POP POP POP PUSH2 0x42E5 PUSH2 0x3803 JUMP JUMPDEST SWAP5 PUSH2 0x38B4 JUMP JUMPDEST DUP1 MLOAD DUP3 KECCAK256 PUSH2 0x42F7 PUSH2 0x3671 JUMP JUMPDEST DUP1 MLOAD SWAP1 DUP7 ADD KECCAK256 SUB PUSH2 0x430E JUMPI POP POP POP POP PUSH2 0x42E5 PUSH2 0x37E0 JUMP JUMPDEST DUP1 MLOAD DUP3 KECCAK256 PUSH2 0x431A PUSH2 0x3690 JUMP JUMPDEST DUP1 MLOAD SWAP1 DUP7 ADD KECCAK256 SUB PUSH2 0x4331 JUMPI POP POP POP POP PUSH2 0x42E5 PUSH2 0x37BD JUMP JUMPDEST MLOAD SWAP1 KECCAK256 PUSH2 0x433C PUSH2 0x36B2 JUMP JUMPDEST DUP1 MLOAD SWAP1 DUP5 ADD KECCAK256 SUB PUSH2 0x4351 JUMPI POP POP PUSH2 0x42E5 PUSH2 0x379A JUMP JUMPDEST PUSH2 0x39F2 SWAP2 PUSH2 0x878 PUSH2 0x4364 PUSH2 0x42E5 SWAP4 PUSH2 0x34FB JUMP JUMPDEST PUSH1 0x40 MLOAD SWAP5 DUP6 SWAP4 DUP5 ADD PUSH1 0x1 SWAP1 PUSH1 0x23 PUSH1 0xF8 SHL DUP2 MSTORE ADD SWAP1 JUMP JUMPDEST DUP2 MLOAD PUSH1 0x20 SWAP3 DUP4 DUP2 ADD SWAP2 DUP3 KECCAK256 PUSH2 0x438D PUSH2 0x3630 JUMP JUMPDEST DUP1 MLOAD SWAP1 DUP7 ADD KECCAK256 SUB PUSH2 0x43A4 JUMPI POP POP POP POP PUSH2 0x42E5 PUSH2 0x3777 JUMP JUMPDEST DUP1 MLOAD DUP3 KECCAK256 PUSH2 0x43B0 PUSH2 0x3651 JUMP JUMPDEST DUP1 MLOAD SWAP1 DUP7 ADD KECCAK256 SUB PUSH2 0x43C7 JUMPI POP POP POP POP PUSH2 0x42E5 PUSH2 0x3754 JUMP JUMPDEST DUP1 MLOAD DUP3 KECCAK256 PUSH2 0x43D3 PUSH2 0x3671 JUMP JUMPDEST DUP1 MLOAD SWAP1 DUP7 ADD KECCAK256 SUB PUSH2 0x43EA JUMPI POP POP POP POP PUSH2 0x42E5 PUSH2 0x3731 JUMP JUMPDEST DUP1 MLOAD DUP3 KECCAK256 PUSH2 0x43F6 PUSH2 0x3690 JUMP JUMPDEST DUP1 MLOAD SWAP1 DUP7 ADD KECCAK256 SUB PUSH2 0x440D JUMPI POP POP POP POP PUSH2 0x42E5 PUSH2 0x370E JUMP JUMPDEST MLOAD SWAP1 KECCAK256 PUSH2 0x4418 PUSH2 0x36B2 JUMP JUMPDEST DUP1 MLOAD SWAP1 DUP5 ADD KECCAK256 SUB PUSH2 0x4351 JUMPI POP POP PUSH2 0x42E5 PUSH2 0x36EB JUMP JUMPDEST PUSH32 0x3C6665436F6D706F7369746520696E3D22536F75726365477261706869632220 DUP2 MSTORE PUSH32 0x696E323D22626C757222206F70657261746F723D226F766572222F3E00000000 PUSH1 0x20 DUP3 ADD MSTORE PUSH1 0x3C ADD SWAP1 JUMP JUMPDEST PUSH1 0x40 MLOAD PUSH32 0x3C66696C7465722069643D226D61747269782D676C6F772220783D222D323025 PUSH1 0x20 DUP3 ADD MSTORE PUSH32 0x2220793D222D323025222077696474683D223134302522206865696768743D22 PUSH1 0x40 DUP3 ADD MSTORE PUSH6 0x189A1812911F PUSH1 0xD1 SHL PUSH1 0x60 DUP3 ADD MSTORE PUSH32 0x3C6665476175737369616E426C757220737464446576696174696F6E3D223322 PUSH1 0x66 DUP3 ADD MSTORE PUSH16 0x103932B9BAB63A1E9131363AB911179F PUSH1 0x81 SHL PUSH1 0x86 DUP3 ADD MSTORE PUSH2 0x452 DUP2 PUSH2 0x878 PUSH2 0x4612 PUSH2 0x45D6 PUSH1 0x4A PUSH2 0x4534 PUSH1 0x96 DUP7 ADD PUSH2 0x442D JUMP JUMPDEST PUSH9 0x1E17B334B63A32B91F PUSH1 0xB9 SHL DUP2 MSTORE PUSH32 0x3C6C696E6561724772616469656E742069643D226D61747269782D6267222078 PUSH1 0x9 DUP3 ADD MSTORE PUSH32 0x313D223025222079313D223025222078323D223025222079323D223130302522 PUSH1 0x29 DUP3 ADD MSTORE PUSH1 0x1F PUSH1 0xF9 SHL PUSH1 0x49 DUP3 ADD MSTORE PUSH32 0x3C73746F70206F66667365743D223025222073746F702D636F6C6F723D222330 SWAP2 ADD SWAP1 DUP2 MSTORE PUSH8 0x18181C181811179F PUSH1 0xC1 SHL PUSH1 0x20 DUP3 ADD MSTORE PUSH1 0x28 ADD SWAP1 JUMP JUMPDEST PUSH32 0x3C73746F70206F66667365743D2231303025222073746F702D636F6C6F723D22 DUP2 MSTORE PUSH10 0x1198181898181811179F PUSH1 0xB1 SHL PUSH1 0x20 DUP3 ADD MSTORE PUSH1 0x2A ADD SWAP1 JUMP JUMPDEST PUSH17 0x1E17B634B732B0B923B930B234B2B73A1F PUSH1 0x79 SHL DUP2 MSTORE PUSH1 0x11 ADD SWAP1 JUMP JUMPDEST PUSH1 0x40 MLOAD SWAP1 PUSH2 0x463C DUP3 PUSH2 0x4DF JUMP JUMPDEST PUSH1 0x18 DUP3 MSTORE PUSH32 0x3C6720636C6173733D226D61747269782D6368617273223E0000000000000000 PUSH1 0x20 DUP4 ADD MSTORE JUMP JUMPDEST PUSH1 0x40 MLOAD SWAP1 PUSH2 0x1E0 DUP1 DUP4 ADD DUP4 DUP2 LT PUSH1 0x1 PUSH1 0x1 PUSH1 0x40 SHL SUB DUP3 GT OR PUSH2 0x4DA JUMPI PUSH1 0x40 MSTORE CALLDATASIZE DUP4 CALLDATACOPY JUMP JUMPDEST PUSH1 0xFF AND PUSH1 0xFF DUP2 EQ PUSH2 0x3233 JUMPI PUSH1 0x1 ADD SWAP1 JUMP JUMPDEST SWAP1 PUSH1 0xF DUP2 LT ISZERO PUSH2 0x20E7 JUMPI PUSH1 0x5 SHL ADD SWAP1 JUMP JUMPDEST PUSH2 0x46B6 PUSH2 0x462F JUMP JUMPDEST PUSH2 0x46BE PUSH2 0x4668 JUMP JUMPDEST SWAP2 PUSH1 0x0 JUMPDEST PUSH1 0xFF DUP2 AND SWAP1 PUSH1 0xF DUP3 LT ISZERO PUSH2 0x473E JUMPI PUSH2 0x4734 PUSH2 0x4739 SWAP3 PUSH2 0x472C PUSH2 0x4725 PUSH2 0x471F PUSH2 0x471A DUP9 PUSH1 0x40 MLOAD PUSH2 0x470F DUP2 PUSH2 0x878 DUP12 PUSH1 0x20 DUP4 ADD SWAP6 DUP7 SWAP1 SWAP2 PUSH1 0x21 SWAP3 DUP3 MSTORE PUSH1 0xFF PUSH1 0xF8 SHL SWAP1 PUSH1 0xF8 SHL AND PUSH1 0x20 DUP3 ADD MSTORE ADD SWAP1 JUMP JUMPDEST MLOAD SWAP1 KECCAK256 PUSH2 0x17C SWAP1 MOD SWAP1 JUMP JUMPDEST PUSH2 0x34B5 JUMP JUMPDEST PUSH1 0xFF AND SWAP1 JUMP JUMPDEST SWAP2 DUP9 PUSH2 0x469D JUMP JUMPDEST SWAP1 PUSH1 0xFF AND SWAP1 MSTORE JUMP JUMPDEST PUSH2 0x468C JUMP JUMPDEST PUSH2 0x46C2 JUMP JUMPDEST POP POP PUSH1 0x0 JUMPDEST PUSH1 0xFF DUP1 DUP3 AND SWAP1 PUSH1 0xF DUP3 LT ISZERO PUSH2 0x49BE JUMPI SWAP1 PUSH1 0x0 SWAP2 JUMPDEST PUSH1 0x8 DUP2 DUP5 AND LT PUSH2 0x4772 JUMPI POP POP POP PUSH2 0x476D SWAP1 PUSH2 0x468C JUMP JUMPDEST PUSH2 0x4743 JUMP JUMPDEST SWAP1 SWAP2 SWAP5 PUSH1 0x40 DUP8 DUP8 DUP3 MLOAD SWAP3 DUP7 DUP10 DUP8 DUP1 PUSH1 0x20 SWAP7 DUP13 DUP9 DUP11 ADD DUP11 PUSH2 0x47B4 DUP11 DUP5 DUP10 DUP6 SWAP2 SWAP1 SWAP3 PUSH1 0x22 SWAP4 DUP4 MSTORE PUSH1 0xFF PUSH1 0xF8 SHL DUP1 SWAP3 PUSH1 0xF8 SHL AND PUSH1 0x20 DUP5 ADD MSTORE PUSH1 0xF8 SHL AND PUSH1 0x21 DUP3 ADD MSTORE ADD SWAP1 JUMP JUMPDEST SUB SWAP11 PUSH1 0x1F NOT SWAP12 DUP13 DUP2 ADD DUP3 MSTORE PUSH2 0x47C9 SWAP1 DUP3 PUSH2 0x515 JUMP JUMPDEST MLOAD SWAP1 KECCAK256 PUSH2 0x17C SWAP1 MOD PUSH2 0x47DA SWAP1 PUSH2 0x34B5 JUMP JUMPDEST PUSH1 0xFF AND DUP8 MLOAD DUP11 DUP2 ADD DUP8 DUP2 MSTORE PUSH1 0x1 PUSH1 0x1 PUSH1 0xF8 SHL SUB NOT PUSH1 0xF8 DUP6 DUP2 SHL DUP3 AND PUSH1 0x20 DUP5 ADD MSTORE DUP13 SWAP1 SHL AND PUSH1 0x21 DUP3 ADD MSTORE PUSH4 0x31B430B9 PUSH1 0xE1 SHL PUSH1 0x22 DUP3 ADD MSTORE SWAP2 SWAP7 SWAP2 SWAP1 DUP1 PUSH1 0x26 DUP4 ADD SUB DUP14 DUP2 ADD DUP3 MSTORE PUSH2 0x4829 SWAP1 DUP3 PUSH2 0x515 JUMP JUMPDEST MLOAD SWAP1 KECCAK256 PUSH1 0xA SWAP1 MOD PUSH2 0x4839 SWAP1 PUSH2 0x34C3 JUMP JUMPDEST PUSH1 0xFF AND DUP9 MLOAD DUP12 DUP2 ADD SWAP3 DUP4 MSTORE PUSH1 0x1 PUSH1 0x1 PUSH1 0xF8 SHL SUB NOT PUSH1 0xF8 SWAP5 DUP6 SHL DUP2 AND PUSH1 0x20 DUP6 ADD MSTORE SWAP11 SWAP1 SWAP4 SHL SWAP1 SWAP10 AND PUSH1 0x21 DUP3 ADD MSTORE PUSH5 0x64656C6179 PUSH1 0xD8 SHL PUSH1 0x22 DUP3 ADD MSTORE SWAP1 DUP1 PUSH1 0x27 DUP4 ADD SUB DUP12 DUP2 ADD DUP3 MSTORE PUSH2 0x4889 SWAP1 DUP3 PUSH2 0x515 JUMP JUMPDEST MLOAD SWAP1 KECCAK256 PUSH1 0x5 SWAP1 MOD PUSH1 0xFF AND SWAP5 PUSH2 0x489D SWAP2 PUSH2 0x469D JUMP JUMPDEST MLOAD PUSH2 0x48AA SWAP1 PUSH1 0xFF AND PUSH2 0x3596 JUMP JUMPDEST SWAP3 AND PUSH2 0x48B5 SWAP1 PUSH2 0x3596 JUMP JUMPDEST SWAP3 AND PUSH2 0x48C0 SWAP1 PUSH2 0x3596 JUMP JUMPDEST DUP4 MLOAD PUSH1 0xF8 SWAP6 SWAP1 SWAP6 SHL PUSH1 0x1 PUSH1 0x1 PUSH1 0xF8 SHL SUB NOT AND DUP7 DUP7 ADD SWAP1 DUP2 MSTORE SWAP1 SWAP4 SWAP1 DUP6 SWAP1 PUSH1 0x1 ADD SUB DUP8 DUP2 ADD DUP7 MSTORE PUSH2 0x48F0 SWAP1 DUP7 PUSH2 0x515 JUMP JUMPDEST MLOAD SWAP7 DUP8 SWAP6 DUP7 ADD PUSH2 0x48FF SWAP2 PUSH2 0x36D4 JUMP JUMPDEST PUSH9 0x1E3A32BC3A103C1E91 PUSH1 0xB9 SHL DUP2 MSTORE PUSH1 0x9 ADD PUSH2 0x491A SWAP2 PUSH2 0x36D4 JUMP JUMPDEST PUSH5 0x11103C9E91 PUSH1 0xD9 SHL DUP2 MSTORE PUSH1 0x5 ADD PUSH2 0x4931 SWAP2 PUSH2 0x36D4 JUMP JUMPDEST PUSH32 0x2220636C6173733D226D61747269782D6368617222207374796C653D22616E69 DUP2 MSTORE PUSH14 0x36B0BA34B7B716B232B630BC9D1 PUSH1 0x95 SHL PUSH1 0x20 DUP3 ADD MSTORE PUSH1 0x2E ADD PUSH2 0x4977 SWAP2 PUSH2 0x36D4 JUMP JUMPDEST PUSH4 0x399D911F PUSH1 0xE1 SHL DUP2 MSTORE PUSH1 0x4 ADD PUSH2 0x498D SWAP2 PUSH2 0x36D4 JUMP JUMPDEST PUSH7 0x1E17BA32BC3A1F PUSH1 0xC9 SHL DUP2 MSTORE PUSH1 0x7 ADD SUB SWAP1 DUP2 ADD DUP3 MSTORE PUSH2 0x49AD SWAP1 DUP3 PUSH2 0x515 JUMP JUMPDEST SWAP5 PUSH2 0x49B7 SWAP1 PUSH2 0x468C JUMP JUMPDEST SWAP2 SWAP1 PUSH2 0x4757 JUMP JUMPDEST POP POP POP POP PUSH2 0x49DE SWAP2 POP PUSH2 0x452 SWAP1 PUSH2 0x878 PUSH1 0x40 MLOAD SWAP4 DUP5 SWAP3 PUSH1 0x20 DUP5 ADD SWAP1 PUSH2 0x36D4 JUMP JUMPDEST PUSH2 0x386C JUMP JUMPDEST PUSH1 0x40 DUP1 MLOAD PUSH32 0x3C73766720786D6C6E733D22687474703A2F2F7777772E77332E6F72672F3230 PUSH1 0x20 DUP3 ADD MSTORE PUSH32 0x30302F737667222077696474683D2234303022206865696768743D2234303022 SWAP2 DUP2 ADD SWAP2 SWAP1 SWAP2 MSTORE PUSH32 0x2076696577426F783D223020302034303020343030223E000000000000000000 PUSH1 0x60 DUP3 ADD MSTORE PUSH32 0x3C726563742077696474683D2234303022206865696768743D22343030222066 PUSH1 0x77 DUP3 ADD MSTORE PUSH12 0x34B6361E911198181811179F PUSH1 0xA1 SHL PUSH1 0x97 DUP3 ADD MSTORE PUSH18 0x1E3334B63A32B91034B21E9133B637BB911F PUSH1 0x71 SHL PUSH1 0xA3 DUP3 ADD MSTORE PUSH32 0x3C6665476175737369616E426C757220737464446576696174696F6E3D22332E PUSH1 0xB5 DUP3 ADD MSTORE PUSH18 0x1A91103932B9BAB63A1E9131363AB911179F PUSH1 0x71 SHL PUSH1 0xD5 DUP3 ADD MSTORE PUSH2 0x4CD7 SWAP2 SWAP1 PUSH2 0x4CE3 DUP2 PUSH2 0x4C86 PUSH2 0x4C74 PUSH2 0x4BCD PUSH2 0x4B28 PUSH2 0x4B13 PUSH1 0xE7 DUP7 ADD PUSH2 0x442D JUMP JUMPDEST PUSH9 0x1E17B334B63A32B91F PUSH1 0xB9 SHL DUP2 MSTORE PUSH1 0x9 ADD SWAP1 JUMP JUMPDEST PUSH32 0x3C7465787420783D223230302220793D223138302220666F6E742D66616D696C DUP2 MSTORE PUSH32 0x793D22417269616C2220666F6E742D73697A653D223430222066696C6C3D2223 PUSH1 0x20 DUP3 ADD MSTORE PUSH32 0x6666662220746578742D616E63686F723D226D6964646C65222066696C746572 PUSH1 0x40 DUP3 ADD MSTORE PUSH32 0x3D2275726C2823676C6F7729223E4C756B736F4C6F6F676965733C2F74657874 PUSH1 0x60 DUP3 ADD MSTORE PUSH1 0x1F PUSH1 0xF9 SHL PUSH1 0x80 DUP3 ADD MSTORE PUSH1 0x81 ADD SWAP1 JUMP JUMPDEST PUSH32 0x3C7465787420783D223230302220793D223233302220666F6E742D66616D696C DUP2 MSTORE PUSH32 0x793D22417269616C2220666F6E742D73697A653D223230222066696C6C3D2223 PUSH1 0x20 DUP3 ADD MSTORE PUSH32 0x3066302220746578742D616E63686F723D226D6964646C65222066696C746572 PUSH1 0x40 DUP3 ADD MSTORE PUSH32 0x3D2275726C2823676C6F7729223E4D61747269782045646974696F6E3C2F7465 PUSH1 0x60 DUP3 ADD MSTORE PUSH3 0x3C3A1F PUSH1 0xE9 SHL PUSH1 0x80 DUP3 ADD MSTORE PUSH1 0x83 ADD SWAP1 JUMP JUMPDEST PUSH6 0x1E17B9BB339F PUSH1 0xD1 SHL DUP2 MSTORE PUSH1 0x6 ADD SWAP1 JUMP JUMPDEST SUB PUSH2 0x4C99 PUSH1 0x1F NOT SWAP2 DUP3 DUP2 ADD DUP6 MSTORE DUP5 PUSH2 0x515 JUMP JUMPDEST PUSH2 0x4CA2 DUP4 PUSH2 0x4D46 JUMP JUMPDEST PUSH1 0x40 MLOAD PUSH32 0x646174613A696D6167652F7376672B786D6C3B6261736536342C000000000000 PUSH1 0x20 DUP3 ADD MSTORE SWAP6 DUP7 SWAP2 PUSH1 0x3A DUP4 ADD PUSH2 0x39F2 JUMP JUMPDEST SUB SWAP1 DUP2 ADD DUP6 MSTORE DUP5 PUSH2 0x515 JUMP JUMPDEST SWAP2 SWAP1 JUMP JUMPDEST PUSH1 0x40 MLOAD SWAP1 PUSH2 0x4CF4 DUP3 PUSH2 0x4FA JUMP JUMPDEST PUSH1 0x40 DUP3 MSTORE PUSH32 0x6768696A6B6C6D6E6F707172737475767778797A303132333435363738392B2F PUSH1 0x40 DUP4 PUSH32 0x4142434445464748494A4B4C4D4E4F505152535455565758595A616263646566 PUSH1 0x20 DUP3 ADD MSTORE ADD MSTORE JUMP JUMPDEST DUP1 MLOAD ISZERO PUSH2 0x4E24 JUMPI PUSH2 0x4D55 PUSH2 0x4CE7 JUMP JUMPDEST PUSH2 0x4D79 PUSH2 0x4D74 PUSH2 0x4D6F PUSH2 0x4D68 DUP6 MLOAD PUSH2 0x34D1 JUMP JUMPDEST PUSH1 0x3 SWAP1 DIV SWAP1 JUMP JUMPDEST PUSH2 0x346B JUMP JUMPDEST PUSH2 0x33E5 JUMP JUMPDEST SWAP2 PUSH1 0x20 DUP4 ADD SWAP2 DUP2 DUP3 MLOAD DUP4 ADD PUSH1 0x20 DUP2 ADD SWAP2 DUP3 MLOAD SWAP4 PUSH1 0x0 DUP5 MSTORE JUMPDEST DUP3 DUP3 LT PUSH2 0x4DD2 JUMPI POP POP POP MSTORE MLOAD PUSH1 0x3 SWAP1 MOD PUSH1 0x1 DUP2 EQ PUSH2 0x4DBF JUMPI PUSH1 0x2 EQ PUSH2 0x4DB4 JUMPI POP SWAP1 JUMP JUMPDEST PUSH1 0x3D SWAP1 PUSH1 0x0 NOT ADD MSTORE8 SWAP1 JUMP JUMPDEST POP PUSH1 0x3D SWAP1 DUP2 PUSH1 0x0 NOT DUP3 ADD MSTORE8 PUSH1 0x1 NOT ADD MSTORE8 SWAP1 JUMP JUMPDEST SWAP1 SWAP2 SWAP6 PUSH1 0x4 SWAP1 PUSH1 0x3 DUP1 SWAP5 ADD SWAP4 DUP5 MLOAD PUSH1 0x1 SWAP1 PUSH1 0x3F SWAP1 DUP3 DUP3 DUP3 PUSH1 0x12 SHR AND DUP9 ADD ADD MLOAD DUP6 MSTORE8 DUP3 DUP3 DUP3 PUSH1 0xC SHR AND DUP9 ADD ADD MLOAD DUP4 DUP7 ADD MSTORE8 DUP3 DUP3 DUP3 PUSH1 0x6 SHR AND DUP9 ADD ADD MLOAD PUSH1 0x2 DUP7 ADD MSTORE8 AND DUP6 ADD ADD MLOAD SWAP1 DUP3 ADD MSTORE8 ADD SWAP6 SWAP2 SWAP1 PUSH2 0x4D91 JUMP JUMPDEST POP PUSH2 0x452 PUSH2 0x21AE JUMP JUMPDEST PUSH1 0x40 MLOAD SWAP1 PUSH2 0x4E3A DUP3 PUSH2 0x4DF JUMP JUMPDEST PUSH1 0x1 DUP3 MSTORE PUSH1 0x17 PUSH1 0xF9 SHL PUSH1 0x20 DUP4 ADD MSTORE JUMP JUMPDEST PUSH1 0x40 MLOAD SWAP1 PUSH2 0x4E57 DUP3 PUSH2 0x4DF JUMP JUMPDEST PUSH1 0x1F DUP3 MSTORE PUSH32 0x2E204F776E6564206279206120556E6976657273616C2050726F66696C652100 PUSH1 0x20 DUP4 ADD MSTORE JUMP JUMPDEST PUSH1 0x40 MLOAD SWAP1 PUSH2 0x4E90 DUP3 PUSH2 0x4DF JUMP JUMPDEST PUSH1 0x5 DUP3 MSTORE PUSH5 0x66616C7365 PUSH1 0xD8 SHL PUSH1 0x20 DUP4 ADD MSTORE JUMP JUMPDEST PUSH1 0x40 MLOAD SWAP1 PUSH2 0x4EB1 DUP3 PUSH2 0x4DF JUMP JUMPDEST PUSH1 0x4 DUP3 MSTORE PUSH4 0x74727565 PUSH1 0xE0 SHL PUSH1 0x20 DUP4 ADD MSTORE JUMP JUMPDEST SWAP7 SWAP6 DUP5 PUSH2 0x4EF0 PUSH2 0x4EEA PUSH2 0x4EE4 DUP5 DUP11 PUSH2 0x4F10 SWAP11 DUP11 DUP16 SWAP11 DUP11 DUP2 SWAP16 SWAP12 SWAP14 SWAP13 PUSH2 0x387C JUMP JUMPDEST SWAP9 PUSH2 0x34FB JUMP JUMPDEST SWAP10 PUSH2 0x53C1 JUMP JUMPDEST PUSH1 0x40 MLOAD PUSH8 0x4C6F6F6769652023 PUSH1 0xC0 SHL PUSH1 0x20 DUP3 ADD MSTORE SWAP7 DUP8 SWAP2 PUSH1 0x28 DUP4 ADD PUSH2 0x39F2 JUMP JUMPDEST SUB SWAP9 PUSH2 0x4F24 PUSH1 0x1F NOT SWAP11 DUP12 DUP2 ADD DUP10 MSTORE DUP9 PUSH2 0x515 JUMP JUMPDEST PUSH2 0x4F2D DUP6 PUSH2 0x3596 JUMP JUMPDEST SWAP8 PUSH2 0x4F37 DUP4 PUSH2 0x3596 JUMP JUMPDEST SWAP9 DUP5 ISZERO PUSH2 0x53B4 JUMPI PUSH2 0x4F46 PUSH2 0x4E4A JUMP JUMPDEST PUSH1 0x40 MLOAD SWAP11 DUP12 SWAP3 PUSH1 0x20 DUP5 ADD PUSH2 0x4F88 SWAP1 PUSH1 0x21 SWAP1 PUSH32 0x54686973204D6174726978204C6F6F6769652069732074686520636F6C6F7220 DUP2 MSTORE PUSH1 0x23 PUSH1 0xF8 SHL PUSH1 0x20 DUP3 ADD MSTORE ADD SWAP1 JUMP JUMPDEST PUSH2 0x4F92 SWAP1 DUP8 PUSH2 0x36D4 JUMP JUMPDEST PUSH22 0x103BB4BA3410309031B43AB13134B732B9B99037B31 PUSH1 0x55 SHL DUP2 MSTORE PUSH1 0x16 ADD PUSH2 0x4FBA SWAP2 PUSH2 0x36D4 JUMP JUMPDEST PUSH21 0x1030B7321036B7BABA34103632B733BA341037B31 PUSH1 0x5D SHL DUP2 MSTORE PUSH1 0x15 ADD PUSH2 0x4FE1 SWAP2 PUSH2 0x36D4 JUMP JUMPDEST PUSH2 0x4FEA SWAP2 PUSH2 0x36D4 JUMP JUMPDEST SUB DUP12 DUP2 ADD DUP11 MSTORE PUSH2 0x4FFA SWAP1 DUP11 PUSH2 0x515 JUMP JUMPDEST PUSH2 0x5003 SWAP1 PUSH2 0x4D46 JUMP JUMPDEST SWAP5 PUSH2 0x500D SWAP1 PUSH2 0x3596 JUMP JUMPDEST SWAP2 PUSH2 0x5017 SWAP1 PUSH2 0x3596 JUMP JUMPDEST SWAP3 ISZERO PUSH2 0x53A6 JUMPI PUSH2 0x5025 PUSH2 0x4EA4 JUMP JUMPDEST SWAP5 JUMPDEST PUSH1 0x40 MLOAD PUSH32 0x7B224C5350344D65746164617461223A207B226E616D65223A20220000000000 PUSH1 0x20 DUP3 ADD MSTORE SWAP9 DUP10 SWAP9 PUSH1 0x3B DUP11 ADD PUSH2 0x5060 SWAP2 PUSH2 0x36D4 JUMP JUMPDEST PUSH18 0x1116113232B9B1B934B83A34B7B7111D1011 PUSH1 0x71 SHL DUP2 MSTORE PUSH1 0x12 ADD PUSH2 0x5084 SWAP2 PUSH2 0x36D4 JUMP JUMPDEST PUSH32 0x222C226C696E6B73223A205B7B227469746C65223A2257656273697465222C22 DUP2 MSTORE PUSH32 0x75726C223A2268747470733A2F2F6C756B736F6C6F6F676965732E7665726365 PUSH1 0x20 DUP3 ADD MSTORE PUSH19 0x1B0B985C1C089F574B089A58DBDB888E96D74B PUSH1 0x6A SHL PUSH1 0x40 DUP3 ADD MSTORE PUSH1 0x53 ADD PUSH32 0x22696D61676573223A205B5B7B227769647468223A203430302C226865696768 DUP2 MSTORE PUSH16 0x3A111D101A181816113AB936111D1011 PUSH1 0x81 SHL PUSH1 0x20 DUP3 ADD MSTORE PUSH1 0x30 ADD PUSH32 0x646174613A696D6167652F7376672B786D6C3B6261736536342C000000000000 DUP2 MSTORE PUSH1 0x1A ADD PUSH2 0x515A SWAP2 PUSH2 0x36D4 JUMP JUMPDEST PUSH5 0x89F57574B PUSH1 0xDA SHL DUP2 MSTORE PUSH1 0x5 ADD PUSH14 0x2261747472696275746573223A5B PUSH1 0x90 SHL DUP2 MSTORE PUSH1 0xE ADD PUSH32 0x7B226B6579223A22636F6C6F72222C2276616C7565223A222300000000000000 DUP2 MSTORE PUSH1 0x19 ADD PUSH2 0x51AE SWAP2 PUSH2 0x36D4 JUMP JUMPDEST PUSH19 0x88B089D1E5C19488E889CDD1C9A5B99C89F4B PUSH1 0x6A SHL DUP2 MSTORE PUSH1 0x13 ADD PUSH32 0x7B226B6579223A226368756262696E657373222C2276616C7565223A00000000 DUP2 MSTORE PUSH1 0x1C ADD PUSH2 0x51F9 SWAP2 PUSH2 0x36D4 JUMP JUMPDEST PUSH18 0xB089D1E5C19488E889B9D5B58995C889F4B PUSH1 0x72 SHL DUP2 MSTORE PUSH1 0x12 ADD PUSH32 0x7B226B6579223A226D6F7574684C656E677468222C2276616C7565223A000000 DUP2 MSTORE PUSH1 0x1D ADD PUSH2 0x5243 SWAP2 PUSH2 0x36D4 JUMP JUMPDEST PUSH18 0xB089D1E5C19488E889B9D5B58995C889F4B PUSH1 0x72 SHL DUP2 MSTORE PUSH1 0x12 ADD PUSH32 0x7B226B6579223A22757365726E616D65222C2276616C7565223A220000000000 DUP2 MSTORE PUSH1 0x1B ADD PUSH2 0x528D SWAP2 PUSH2 0x36D4 JUMP JUMPDEST PUSH19 0x88B089D1E5C19488E889CDD1C9A5B99C89F4B PUSH1 0x6A SHL DUP2 MSTORE PUSH1 0x13 ADD PUSH22 0x3D9135B2BC911D1134B9AAA81116113B30B63AB2911D PUSH1 0x51 SHL DUP2 MSTORE PUSH1 0x16 ADD PUSH2 0x52D1 SWAP2 PUSH2 0x36D4 JUMP JUMPDEST PUSH19 0xB089D1E5C19488E88989BDBDB19585B889F4B PUSH1 0x6A SHL DUP2 MSTORE PUSH1 0x13 ADD PUSH32 0x7B226B6579223A2274797065222C2276616C7565223A22000000000000000000 DUP2 MSTORE PUSH1 0x17 ADD PUSH2 0x531C SWAP2 PUSH2 0x36D4 JUMP JUMPDEST PUSH18 0x222C2274797065223A22737472696E67227D PUSH1 0x70 SHL DUP2 MSTORE PUSH1 0x12 ADD PUSH3 0x5D7D7D PUSH1 0xE8 SHL DUP2 MSTORE PUSH1 0x3 ADD SUB DUP4 DUP2 ADD DUP3 MSTORE PUSH2 0x5353 SWAP1 DUP3 PUSH2 0x515 JUMP JUMPDEST PUSH2 0x535C DUP2 PUSH2 0x4D46 JUMP JUMPDEST PUSH1 0x40 MLOAD PUSH32 0x646174613A6170706C69636174696F6E2F6A736F6E3B6261736536342C000000 PUSH1 0x20 DUP3 ADD MSTORE SWAP4 SWAP1 DUP5 SWAP1 PUSH1 0x3D DUP3 ADD PUSH2 0x5396 SWAP2 PUSH2 0x36D4 JUMP JUMPDEST SUB SWAP1 DUP2 ADD DUP5 MSTORE PUSH2 0x4CE3 SWAP1 DUP5 PUSH2 0x515 JUMP JUMPDEST PUSH2 0x53AE PUSH2 0x4E83 JUMP JUMPDEST SWAP5 PUSH2 0x5027 JUMP JUMPDEST PUSH2 0x53BC PUSH2 0x4E2D JUMP JUMPDEST PUSH2 0x4F46 JUMP JUMPDEST DUP1 PUSH1 0x0 SWAP2 PUSH27 0x184F03E93FF9F4DAA797ED6E38ED64BF6A1F010000000000000000 DUP1 DUP3 LT ISZERO PUSH2 0x54F6 JUMPI JUMPDEST POP PUSH14 0x4EE2D6D415B85ACEF8100000000 DUP1 DUP4 LT ISZERO PUSH2 0x54E7 JUMPI JUMPDEST POP PUSH7 0x2386F26FC10000 DUP1 DUP4 LT ISZERO PUSH2 0x54D8 JUMPI JUMPDEST POP PUSH4 0x5F5E100 DUP1 DUP4 LT ISZERO PUSH2 0x54C9 JUMPI JUMPDEST POP PUSH2 0x2710 DUP1 DUP4 LT ISZERO PUSH2 0x54BA JUMPI JUMPDEST POP PUSH1 0x64 DUP3 LT ISZERO PUSH2 0x54AA JUMPI JUMPDEST PUSH1 0xA DUP1 SWAP3 LT ISZERO PUSH2 0x54A0 JUMPI JUMPDEST PUSH1 0x1 SWAP1 DUP2 PUSH1 0x21 PUSH2 0x5458 DUP3 DUP8 ADD PUSH2 0x33E5 JUMP JUMPDEST SWAP6 DUP7 ADD ADD SWAP1 JUMPDEST PUSH2 0x546A JUMPI JUMPDEST POP POP POP POP SWAP1 JUMP JUMPDEST PUSH1 0x0 NOT ADD SWAP1 DUP4 SWAP1 PUSH16 0x181899199A1A9B1B9C1CB0B131B232B3 PUSH1 0x81 SHL DUP3 DUP3 MOD BYTE DUP4 MSTORE8 DIV SWAP2 DUP3 ISZERO PUSH2 0x549B JUMPI SWAP2 SWAP1 DUP3 PUSH2 0x545E JUMP JUMPDEST PUSH2 0x5463 JUMP JUMPDEST SWAP2 PUSH1 0x1 ADD SWAP2 PUSH2 0x5447 JUMP JUMPDEST SWAP2 SWAP1 PUSH1 0x64 PUSH1 0x2 SWAP2 DIV SWAP2 ADD SWAP2 PUSH2 0x543C JUMP JUMPDEST PUSH1 0x4 SWAP2 SWAP4 SWAP3 DIV SWAP2 ADD SWAP2 CODESIZE PUSH2 0x5431 JUMP JUMPDEST PUSH1 0x8 SWAP2 SWAP4 SWAP3 DIV SWAP2 ADD SWAP2 CODESIZE PUSH2 0x5424 JUMP JUMPDEST PUSH1 0x10 SWAP2 SWAP4 SWAP3 DIV SWAP2 ADD SWAP2 CODESIZE PUSH2 0x5415 JUMP JUMPDEST PUSH1 0x20 SWAP2 SWAP4 SWAP3 DIV SWAP2 ADD SWAP2 CODESIZE PUSH2 0x5403 JUMP JUMPDEST PUSH1 0x40 SWAP4 POP DUP2 DIV SWAP2 POP CODESIZE PUSH2 0x53EA JUMP JUMPDEST ISZERO PUSH2 0x550B JUMPI JUMP JUMPDEST PUSH1 0x40 MLOAD PUSH3 0x461BCD PUSH1 0xE5 SHL DUP2 MSTORE PUSH1 0x20 PUSH1 0x4 DUP3 ADD MSTORE PUSH1 0x18 PUSH1 0x24 DUP3 ADD MSTORE PUSH32 0x5075626C6963206D696E74696E6720697320636C6F7365640000000000000000 PUSH1 0x44 DUP3 ADD MSTORE PUSH1 0x64 SWAP1 REVERT JUMPDEST ISZERO PUSH2 0x5557 JUMPI JUMP JUMPDEST PUSH1 0x40 MLOAD PUSH3 0x461BCD PUSH1 0xE5 SHL DUP2 MSTORE PUSH1 0x20 PUSH1 0x4 DUP3 ADD MSTORE PUSH1 0xC PUSH1 0x24 DUP3 ADD MSTORE PUSH12 0x444F4E45204D494E54494E47 PUSH1 0xA0 SHL PUSH1 0x44 DUP3 ADD MSTORE PUSH1 0x64 SWAP1 REVERT JUMPDEST ISZERO PUSH2 0x5592 JUMPI JUMP JUMPDEST PUSH1 0x40 MLOAD PUSH3 0x461BCD PUSH1 0xE5 SHL DUP2 MSTORE PUSH1 0x20 PUSH1 0x4 DUP3 ADD MSTORE PUSH1 0xA PUSH1 0x24 DUP3 ADD MSTORE PUSH10 0x9C9EA8408A9C9EAA8E9 PUSH1 0xB3 SHL PUSH1 0x44 DUP3 ADD MSTORE PUSH1 0x64 SWAP1 REVERT JUMPDEST ISZERO PUSH2 0x55CB JUMPI JUMP JUMPDEST PUSH1 0x40 MLOAD PUSH3 0x461BCD PUSH1 0xE5 SHL DUP2 MSTORE PUSH1 0x20 PUSH1 0x4 DUP3 ADD MSTORE PUSH1 0x12 PUSH1 0x24 DUP3 ADD MSTORE PUSH18 0x135253950813125352550814915050D21151 PUSH1 0x72 SHL PUSH1 0x44 DUP3 ADD MSTORE PUSH1 0x64 SWAP1 REVERT JUMPDEST ISZERO PUSH2 0x560C JUMPI JUMP JUMPDEST PUSH1 0x40 MLOAD PUSH3 0x461BCD PUSH1 0xE5 SHL DUP2 MSTORE PUSH1 0x20 PUSH1 0x4 DUP3 ADD MSTORE PUSH1 0xE PUSH1 0x24 DUP3 ADD MSTORE PUSH14 0x18DBDD5B19081B9BDD081CD95B99 PUSH1 0x92 SHL PUSH1 0x44 DUP3 ADD MSTORE PUSH1 0x64 SWAP1 REVERT JUMPDEST PUSH1 0x2 PUSH1 0x7 SLOAD EQ PUSH2 0x5653 JUMPI PUSH1 0x2 PUSH1 0x7 SSTORE JUMP JUMPDEST PUSH1 0x40 MLOAD PUSH3 0x461BCD PUSH1 0xE5 SHL DUP2 MSTORE PUSH1 0x20 PUSH1 0x4 DUP3 ADD MSTORE PUSH1 0x1F PUSH1 0x24 DUP3 ADD MSTORE PUSH32 0x5265656E7472616E637947756172643A207265656E7472616E742063616C6C00 PUSH1 0x44 DUP3 ADD MSTORE PUSH1 0x64 SWAP1 REVERT JUMPDEST PUSH1 0x40 MLOAD SWAP1 PUSH2 0x56A5 DUP3 PUSH2 0x4DF JUMP JUMPDEST PUSH1 0x9 DUP3 MSTORE PUSH9 0x1B1D5ADCDBDB985D5D PUSH1 0xBA SHL PUSH1 0x20 DUP4 ADD MSTORE JUMP JUMPDEST PUSH1 0x40 MLOAD SWAP1 PUSH2 0x56CA DUP3 PUSH2 0x4DF JUMP JUMPDEST PUSH1 0x8 DUP3 MSTORE PUSH8 0x2AA81027BBB732B9 PUSH1 0xC1 SHL PUSH1 0x20 DUP4 ADD MSTORE JUMP JUMPDEST PUSH1 0x40 MLOAD PUSH4 0x1FFC9A7 PUSH1 0xE0 SHL DUP2 MSTORE PUSH4 0x1C537DDF PUSH1 0xE2 SHL PUSH1 0x4 DUP3 ADD MSTORE SWAP1 PUSH1 0x20 SWAP1 DUP3 SWAP1 PUSH1 0x24 SWAP1 DUP3 SWAP1 PUSH1 0x1 PUSH1 0x1 PUSH1 0xA0 SHL SUB AND GAS STATICCALL PUSH1 0x0 SWAP2 DUP2 PUSH2 0x5725 JUMPI JUMPDEST POP PUSH2 0x452 JUMPI POP PUSH1 0x0 SWAP1 JUMP JUMPDEST SWAP1 SWAP2 PUSH1 0x20 DUP3 RETURNDATASIZE DUP3 GT PUSH2 0x5759 JUMPI JUMPDEST DUP2 PUSH2 0x573F PUSH1 0x20 SWAP4 DUP4 PUSH2 0x515 JUMP JUMPDEST DUP2 ADD SUB SLT PUSH2 0xE1A JUMPI POP MLOAD PUSH2 0x5752 DUP2 PUSH2 0x8D8 JUMP JUMPDEST SWAP1 CODESIZE PUSH2 0x571A JUMP JUMPDEST RETURNDATASIZE SWAP2 POP PUSH2 0x5732 JUMP JUMPDEST PUSH2 0x576D PUSH2 0x11DE DUP3 PUSH2 0x56E1 JUMP JUMPDEST PUSH2 0x4E24 JUMPI PUSH1 0x40 MLOAD PUSH4 0x54F6127F PUSH1 0xE0 SHL DUP2 MSTORE PUSH32 0xA5F25703C828C6D3C468FA5542C279E8C98F1ACC783318E4FCD67EA8FD61BE02 PUSH1 0x4 DUP3 ADD MSTORE SWAP1 PUSH1 0x0 SWAP1 DUP2 SWAP1 DUP4 SWAP1 PUSH1 0x24 SWAP1 DUP3 SWAP1 PUSH1 0x1 PUSH1 0x1 PUSH1 0xA0 SHL SUB AND GAS STATICCALL DUP1 SWAP3 DUP3 SWAP4 PUSH2 0x5866 JUMPI JUMPDEST POP PUSH2 0x57D4 JUMPI POP POP PUSH2 0x452 PUSH2 0x21AE JUMP JUMPDEST DUP2 MLOAD DUP1 PUSH2 0x57E7 JUMPI JUMPDEST POP POP POP PUSH2 0x452 PUSH2 0x21AE JUMP JUMPDEST PUSH1 0x1 DUP1 SWAP2 GT DUP1 PUSH2 0x5849 JUMPI JUMPDEST ISZERO PUSH2 0x57DC JUMPI PUSH2 0x5804 PUSH2 0x4D74 DUP5 MLOAD PUSH2 0x3224 JUMP JUMPDEST SWAP3 DUP2 DUP1 JUMPDEST PUSH2 0x5813 JUMPI POP POP POP POP SWAP1 JUMP JUMPDEST DUP2 MLOAD DUP2 LT ISZERO PUSH2 0x549B JUMPI DUP1 PUSH2 0x582D PUSH2 0x1A0A PUSH2 0x5843 SWAP4 DUP6 PUSH2 0x3433 JUMP JUMPDEST PUSH2 0x1A50 PUSH2 0x5839 DUP4 PUSH2 0x3224 JUMP JUMPDEST SWAP2 DUP8 BYTE SWAP2 DUP9 PUSH2 0x3433 JUMP JUMPDEST DUP3 PUSH2 0x5808 JUMP JUMPDEST POP PUSH1 0x1 PUSH1 0x1 PUSH1 0xF8 SHL SUB NOT PUSH2 0x585F PUSH2 0x1A0A DUP6 PUSH2 0x3426 JUMP JUMPDEST AND ISZERO PUSH2 0x57F2 JUMP JUMPDEST PUSH2 0x587B SWAP2 SWAP4 POP RETURNDATASIZE DUP1 DUP5 DUP4 RETURNDATACOPY PUSH2 0x2F70 DUP2 DUP4 PUSH2 0x515 JUMP JUMPDEST SWAP2 CODESIZE PUSH2 0x57C5 JUMP JUMPDEST PUSH2 0x5895 PUSH2 0x588F DUP3 SLOAD PUSH2 0xA0F JUMP JUMPDEST DUP3 PUSH2 0x252D JUMP JUMPDEST PUSH1 0xC PUSH6 0x79656C6C6F77 PUSH1 0xD0 SHL ADD SWAP1 SSTORE JUMP JUMPDEST PUSH2 0x58B3 PUSH2 0x588F DUP3 SLOAD PUSH2 0xA0F JUMP JUMPDEST PUSH1 0xC PUSH6 0x707572706C65 PUSH1 0xD0 SHL ADD SWAP1 SSTORE JUMP JUMPDEST PUSH2 0x58D1 PUSH2 0x588F DUP3 SLOAD PUSH2 0xA0F JUMP JUMPDEST PUSH1 0x6 PUSH3 0x1C9959 PUSH1 0xEA SHL ADD SWAP1 SSTORE JUMP JUMPDEST PUSH2 0x58EC PUSH2 0x588F DUP3 SLOAD PUSH2 0xA0F JUMP JUMPDEST PUSH1 0x8 PUSH4 0x626C7565 PUSH1 0xE0 SHL ADD SWAP1 SSTORE JUMP JUMPDEST PUSH2 0x5908 PUSH2 0x588F DUP3 SLOAD PUSH2 0xA0F JUMP JUMPDEST PUSH1 0xA PUSH5 0x33B932B2B7 PUSH1 0xD9 SHL ADD SWAP1 SSTORE JUMP JUMPDEST SWAP2 PUSH2 0x2555 SWAP4 PUSH1 0x5 PUSH2 0x5A2B SWAP3 PUSH2 0x5974 PUSH1 0xFF PUSH1 0xE8 SHL DUP3 PUSH1 0x2 BYTE PUSH1 0xE8 SHL AND PUSH1 0xFF PUSH1 0xF0 SHL DUP4 PUSH1 0x1 BYTE PUSH1 0xF0 SHL AND PUSH1 0xFF PUSH1 0xF8 SHL DUP5 PUSH1 0x0 BYTE PUSH1 0xF8 SHL AND OR OR PUSH2 0x5963 DUP8 PUSH1 0x0 MSTORE PUSH1 0x9 PUSH1 0x20 MSTORE PUSH1 0x40 PUSH1 0x0 KECCAK256 SWAP1 JUMP JUMPDEST SWAP1 PUSH1 0xE8 SHR PUSH3 0xFFFFFF NOT DUP3 SLOAD AND OR SWAP1 SSTORE JUMP JUMPDEST PUSH2 0x5992 PUSH2 0x598D PUSH2 0x5986 DUP4 PUSH1 0x3 BYTE PUSH2 0x3483 JUMP JUMPDEST PUSH1 0xFF SWAP1 DIV SWAP1 JUMP JUMPDEST PUSH2 0x34DF JUMP JUMPDEST PUSH2 0x59A6 DUP7 PUSH1 0x0 MSTORE PUSH1 0xA PUSH1 0x20 MSTORE PUSH1 0x40 PUSH1 0x0 KECCAK256 SWAP1 JUMP JUMPDEST SSTORE PUSH2 0x59DD PUSH2 0x59D8 PUSH2 0x5986 PUSH2 0x59CE PUSH2 0x59C7 DUP10 PUSH1 0x0 MSTORE PUSH1 0xA PUSH1 0x20 MSTORE PUSH1 0x40 PUSH1 0x0 KECCAK256 SWAP1 JUMP JUMPDEST SLOAD PUSH1 0x2 SHR SWAP1 JUMP JUMPDEST DUP5 PUSH1 0x4 BYTE SWAP1 PUSH2 0x3494 JUMP JUMPDEST PUSH2 0x34ED JUMP JUMPDEST PUSH2 0x59F1 DUP7 PUSH1 0x0 MSTORE PUSH1 0xB PUSH1 0x20 MSTORE PUSH1 0x40 PUSH1 0x0 KECCAK256 SWAP1 JUMP JUMPDEST SSTORE DUP2 BYTE MOD DUP1 PUSH2 0x5A39 JUMPI POP PUSH2 0x5A17 PUSH2 0x5A12 DUP5 PUSH1 0x0 MSTORE PUSH1 0xC PUSH1 0x20 MSTORE PUSH1 0x40 PUSH1 0x0 KECCAK256 SWAP1 JUMP JUMPDEST PUSH2 0x58FB JUMP JUMPDEST PUSH2 0x24DC DUP4 PUSH1 0x0 MSTORE PUSH1 0xD PUSH1 0x20 MSTORE PUSH1 0x40 PUSH1 0x0 KECCAK256 SWAP1 JUMP JUMPDEST PUSH2 0x5A33 PUSH2 0x21AE JUMP JUMPDEST SWAP2 PUSH2 0x5AC7 JUMP JUMPDEST PUSH1 0x1 DUP2 SUB PUSH2 0x5A63 JUMPI POP PUSH2 0x5A5E PUSH2 0x5A59 DUP5 PUSH1 0x0 MSTORE PUSH1 0xC PUSH1 0x20 MSTORE PUSH1 0x40 PUSH1 0x0 KECCAK256 SWAP1 JUMP JUMPDEST PUSH2 0x58DF JUMP JUMPDEST PUSH2 0x5A17 JUMP JUMPDEST PUSH1 0x2 DUP2 SUB PUSH2 0x5A88 JUMPI POP PUSH2 0x5A5E PUSH2 0x5A83 DUP5 PUSH1 0x0 MSTORE PUSH1 0xC PUSH1 0x20 MSTORE PUSH1 0x40 PUSH1 0x0 KECCAK256 SWAP1 JUMP JUMPDEST PUSH2 0x58C4 JUMP JUMPDEST PUSH1 0x3 SUB PUSH2 0x5AAB JUMPI PUSH2 0x5A5E PUSH2 0x5AA6 DUP5 PUSH1 0x0 MSTORE PUSH1 0xC PUSH1 0x20 MSTORE PUSH1 0x40 PUSH1 0x0 KECCAK256 SWAP1 JUMP JUMPDEST PUSH2 0x58A6 JUMP JUMPDEST PUSH2 0x5A5E PUSH2 0x5AC2 DUP5 PUSH1 0x0 MSTORE PUSH1 0xC PUSH1 0x20 MSTORE PUSH1 0x40 PUSH1 0x0 KECCAK256 SWAP1 JUMP JUMPDEST PUSH2 0x5882 JUMP JUMPDEST SWAP1 SWAP3 SWAP2 SWAP1 PUSH1 0x1 PUSH1 0x1 PUSH1 0xA0 SHL SUB DUP2 AND DUP1 ISZERO PUSH2 0x297C JUMPI PUSH1 0x0 DUP6 DUP2 MSTORE PUSH1 0x3 PUSH1 0x20 MSTORE PUSH1 0x40 SWAP1 KECCAK256 SLOAD PUSH1 0x1 PUSH1 0x1 PUSH1 0xA0 SHL SUB AND PUSH2 0x5BBA JUMPI PUSH1 0x0 DUP6 DUP2 MSTORE PUSH1 0x3 PUSH1 0x20 MSTORE PUSH1 0x40 SWAP1 KECCAK256 SLOAD PUSH1 0x1 PUSH1 0x1 PUSH1 0xA0 SHL SUB AND PUSH2 0x5BBA JUMPI DUP5 PUSH2 0x2555 SWAP5 SWAP6 PUSH2 0x5BB5 SWAP3 PUSH2 0x5B30 PUSH2 0x5B2B PUSH1 0x2 SLOAD PUSH2 0x3417 JUMP JUMPDEST PUSH1 0x2 SSTORE JUMP JUMPDEST PUSH1 0x1 PUSH1 0x1 PUSH1 0xA0 SHL SUB DUP6 AND PUSH1 0x0 SWAP1 DUP2 MSTORE PUSH1 0x4 PUSH1 0x20 MSTORE PUSH1 0x40 SWAP1 KECCAK256 PUSH2 0x5B53 SWAP1 DUP4 SWAP1 PUSH2 0x31A2 JUMP JUMPDEST POP PUSH2 0x5B6C DUP6 PUSH2 0x28DA DUP5 PUSH1 0x0 MSTORE PUSH1 0x3 PUSH1 0x20 MSTORE PUSH1 0x40 PUSH1 0x0 KECCAK256 SWAP1 JUMP JUMPDEST PUSH1 0x0 PUSH32 0xB333C813A7426A7A11E2B190CAD52C44119421594B47F6F32ACE6D8C7207B2BF PUSH1 0x40 MLOAD DUP1 PUSH2 0x5B9E DUP11 CALLER DUP4 PUSH2 0x2B4C JUMP JUMPDEST SUB SWAP1 LOG4 PUSH2 0x1237 PUSH1 0x40 MLOAD SWAP5 DUP6 SWAP3 DUP6 CALLER PUSH1 0x20 DUP7 ADD PUSH2 0x2B9F JUMP JUMPDEST PUSH2 0x2FDF JUMP JUMPDEST PUSH1 0x40 MLOAD PUSH4 0x34C7B511 PUSH1 0xE0 SHL DUP2 MSTORE PUSH1 0x4 DUP2 ADD DUP7 SWAP1 MSTORE PUSH1 0x24 SWAP1 REVERT JUMPDEST PUSH1 0x48 PUSH2 0x2555 SWAP2 SWAP4 SWAP3 SWAP4 PUSH1 0x40 MLOAD SWAP5 DUP6 SWAP2 PUSH6 0x379ABE35001 PUSH1 0xC5 SHL PUSH1 0x20 DUP5 ADD MSTORE PUSH1 0x28 DUP4 ADD MSTORE PUSH2 0x5C09 DUP2 MLOAD DUP1 SWAP3 PUSH1 0x20 DUP7 DUP7 ADD SWAP2 ADD PUSH2 0x3F9 JUMP JUMPDEST DUP2 ADD SUB PUSH1 0x28 DUP2 ADD DUP6 MSTORE ADD DUP4 PUSH2 0x515 JUMP JUMPDEST SWAP1 PUSH32 0x9AFB95CACC9F95858EC44AA8C3B685511002E30AE54415823F406128B85B238E DUP2 SUB PUSH2 0x5D04 JUMPI POP PUSH2 0x5CF7 DUP2 PUSH2 0x5CD9 PUSH2 0xB15 PUSH2 0x5C72 PUSH2 0x5C66 PUSH2 0x452 SWAP7 PUSH1 0x0 MSTORE PUSH1 0xC PUSH1 0x20 MSTORE PUSH1 0x40 PUSH1 0x0 KECCAK256 SWAP1 JUMP JUMPDEST PUSH1 0x40 MLOAD SWAP3 DUP4 DUP1 SWAP3 PUSH2 0xA49 JUMP JUMPDEST PUSH2 0x5C86 DUP4 PUSH1 0x0 MSTORE PUSH1 0x9 PUSH1 0x20 MSTORE PUSH1 0x40 PUSH1 0x0 KECCAK256 SWAP1 JUMP JUMPDEST SLOAD PUSH1 0xE8 SHL PUSH2 0x5C9E DUP5 PUSH1 0x0 MSTORE PUSH1 0xA PUSH1 0x20 MSTORE PUSH1 0x40 PUSH1 0x0 KECCAK256 SWAP1 JUMP JUMPDEST SLOAD SWAP1 PUSH2 0x5CB4 DUP6 PUSH1 0x0 MSTORE PUSH1 0xB PUSH1 0x20 MSTORE PUSH1 0x40 PUSH1 0x0 KECCAK256 SWAP1 JUMP JUMPDEST SLOAD SWAP3 PUSH2 0x5CE0 PUSH2 0x5CCD DUP8 PUSH1 0x0 MSTORE PUSH1 0xD PUSH1 0x20 MSTORE PUSH1 0x40 PUSH1 0x0 KECCAK256 SWAP1 JUMP JUMPDEST PUSH1 0x40 MLOAD SWAP7 DUP8 DUP1 SWAP3 PUSH2 0xA49 JUMP JUMPDEST SUB DUP7 PUSH2 0x515 JUMP JUMPDEST PUSH2 0x5CF1 PUSH2 0x5CEC DUP8 PUSH2 0x266A JUMP JUMPDEST PUSH2 0x56E1 JUMP JUMPDEST SWAP6 PUSH2 0x4EC4 JUMP JUMPDEST SWAP1 PUSH1 0x20 DUP2 MLOAD SWAP2 ADD KECCAK256 PUSH2 0x5BD3 JUMP JUMPDEST PUSH2 0x5D0D SWAP2 PUSH2 0x2CF2 JUMP JUMPDEST PUSH1 0x20 DUP2 MLOAD SWAP2 ADD KECCAK256 PUSH1 0x0 MSTORE PUSH1 0x1 PUSH1 0x20 MSTORE PUSH2 0xB15 PUSH2 0x452 PUSH1 0x40 PUSH1 0x0 KECCAK256 PUSH1 0x40 MLOAD SWAP3 DUP4 DUP1 SWAP3 PUSH2 0xA49 JUMP INVALID LOG2 PUSH5 0x6970667358 0x22 SLT KECCAK256 0xC8 STATICCALL DUP11 PUSH11 0xC35E76FAF5B5AF745A909F GT PUSH25 0x73761088C311A16FB9027A08C9685B64736F6C634300081400 CALLER 0xDE 0xBA 0x1E 0x29 0x2F DUP12 0xA8 DUP3 CODESIZE 0xE1 EXP 0xB3 0xC7 0xF8 DUP12 0xD4 0xBE 0x4F 0xAC JUMP 0xCA 0xD5 NOT 0x4B PUSH15 0xCCEAF653468AF19AFB95CACC9F9585 DUP15 0xC4 0x4A 0xA8 0xC3 0xB6 DUP6 MLOAD LT MUL 0xE3 EXP 0xE5 PREVRANDAO ISZERO DUP3 EXTCODEHASH BLOCKHASH PUSH2 0x28B8 JUMPDEST 0x23 DUP15 LOG2 RETURNDATACOPY 0xA7 SWAP13 PUSH17 0x6BE4641BFD97C9AFB5B71A552C5BC32093 0xD 0xBE MULMOD 0xB3 MSTORE8 0xE 0xD7 PUSH14 0xEE0FECE574603820D07BC9B91F2A SWAP4 0x2B 0xAA 0xDF CHAINID 0x28 0xAA 0xBC 0xB8 0xAF 0xBA 0x49 PUSH24 0x6529C14A6104B20000000000000000000000000000000000 "},"methodIdentifiers":{"MAX_MINTABLE()":"3f879faf","MAX_SUPPLY()":"32cb6b0c","PRICE()":"8d859f3e","authorizeOperator(address,bytes32,bytes)":"86a10ddd","balanceOf(address)":"70a08231","batchCalls(bytes[])":"6963d438","bytes32ToHexString(bytes32)":"c68b3787","chubbiness(bytes32)":"6643a686","color(bytes32)":"1ead90b0","generateCollectionSVG()":"3be699f9","generateLoogieSVG(bytes32,string,bytes3,uint256,uint256,string,bool)":"ad30ddbf","getCollectionMetadataBytes(uint256)":"8cda5103","getData(bytes32)":"54f6127f","getDataBatch(bytes32[])":"dedff9c6","getDataBatchForTokenIds(bytes32[],bytes32[])":"1d26fce6","getDataForTokenId(bytes32,bytes32)":"16e023b3","getMetadataBytes(bytes32,string,bytes3,uint256,uint256,string,bool)":"8528247f","getOperatorsOf(bytes32)":"49a6078d","isOperatorFor(address,bytes32)":"2a3654a4","loogieTypes(bytes32)":"c65eb180","mintItem()":"eb93406b","mintItemWithUsername(string)":"1ef0352d","mintedPerAddress(address)":"d445b978","mouthLength(bytes32)":"017c96b8","owner()":"8da5cb5b","publicMintSet()":"5a9c2b1c","recipient()":"66d003ac","renounceOwnership()":"715018a6","revokeOperator(address,bytes32,bool,bytes)":"db8c9663","setData(bytes32,bytes)":"7f23690c","setDataBatch(bytes32[],bytes[])":"97902421","setDataBatchForTokenIds(bytes32[],bytes32[],bytes[])":"be9f0e6f","setDataForTokenId(bytes32,bytes32,bytes)":"d6c1407c","setMintStatus(bool)":"1f85e3ca","setUsername(bytes32,string)":"f3ba2059","supportsInterface(bytes4)":"01ffc9a7","toColorHexString(bytes3)":"76799136","tokenIdsOf(address)":"a3b261f2","tokenOwnerOf(bytes32)":"217b2270","tokenSupplyCap()":"52058d8a","totalSupply()":"18160ddd","transfer(address,address,bytes32,bool,bytes)":"511b6952","transferBatch(address[],address[],bytes32[],bool[],bytes[])":"7e87632c","transferOwnership(address)":"f2fde38b","uint2str(uint256)":"f76f950e","upUsernames(bytes32)":"472dfcfb","withdraw(address)":"51cff8d9"}}}}}