{"contracts/standalone/LSP8LoogiesEnhanced.sol":{"OnChainMetadata":{"abi":[{"inputs":[{"internalType":"bytes32","name":"value","type":"bytes32"}],"name":"bytes32ToHexString","outputs":[{"internalType":"string","name":"","type":"string"}],"stateMutability":"pure","type":"function"},{"inputs":[],"name":"generateCollectionSVG","outputs":[{"internalType":"string","name":"svg","type":"string"},{"internalType":"string","name":"encodedSvg","type":"string"}],"stateMutability":"pure","type":"function"},{"inputs":[{"internalType":"bytes32","name":"tokenId","type":"bytes32"},{"internalType":"string","name":"loogieType","type":"string"},{"internalType":"bytes3","name":"colorValue","type":"bytes3"},{"internalType":"uint256","name":"chubbinessValue","type":"uint256"},{"internalType":"uint256","name":"mouthLengthValue","type":"uint256"},{"internalType":"string","name":"username","type":"string"},{"internalType":"bool","name":"isUP","type":"bool"}],"name":"generateLoogieSVG","outputs":[{"internalType":"string","name":"","type":"string"}],"stateMutability":"view","type":"function"},{"inputs":[{"internalType":"uint256","name":"limit","type":"uint256"}],"name":"getCollectionMetadataBytes","outputs":[{"internalType":"bytes","name":"raw","type":"bytes"},{"internalType":"bytes","name":"encoded","type":"bytes"}],"stateMutability":"pure","type":"function"},{"inputs":[{"internalType":"bytes32","name":"tokenId","type":"bytes32"},{"internalType":"string","name":"loogieTypeValue","type":"string"},{"internalType":"bytes3","name":"colorBytes","type":"bytes3"},{"internalType":"uint256","name":"chubbiness","type":"uint256"},{"internalType":"uint256","name":"mouthLength","type":"uint256"},{"internalType":"string","name":"username","type":"string"},{"internalType":"bool","name":"isUP","type":"bool"}],"name":"getMetadataBytes","outputs":[{"internalType":"bytes","name":"raw","type":"bytes"},{"internalType":"bytes","name":"encoded","type":"bytes"}],"stateMutability":"view","type":"function"},{"inputs":[{"internalType":"bytes3","name":"_color","type":"bytes3"}],"name":"toColorHexString","outputs":[{"internalType":"string","name":"","type":"string"}],"stateMutability":"pure","type":"function"},{"inputs":[{"internalType":"uint256","name":"_i","type":"uint256"}],"name":"uint2str","outputs":[{"internalType":"string","name":"_uintAsString","type":"string"}],"stateMutability":"pure","type":"function"}],"evm":{"bytecode":{"linkReferences":{},"object":"6080806040523461001657612a21908161001c8239f35b600080fdfe604060808152600436101561001357600080fd5b600090813560e01c80633be699f914610d9e5780637679913614610d6a5780638528247f146106055780638cda5103146101c0578063ad30ddbf1461019e578063c68b3787146100a75763f76f950e1461006c57600080fd5b346100a35760203660031901126100a35761009f9061008c600435611133565b9051918291602083526020830190610e02565b0390f35b5080fd5b50346100a3576020908160031936011261019a57600435926100c7610fb7565b938251946100d486610e59565b838652833686880137825b8581106100f85784518681528061009f8189018a610e02565b6001600160f81b031983821a81610116600483901c60ff168661103a565b51169160019184831b93858504600214861517156101865761014991600f918a1a610141878f61103a565b53168661103a565b5116908201809211610172579061016761016d9392871a918a61103a565b53611015565b6100df565b634e487b7160e01b86526011600452602486fd5b634e487b7160e01b89526011600452602489fd5b8280fd5b50346100a35761009f9061008c6101b436610f1b565b95949094939193611292565b5090346106025760209081600319360112610602575061009f6105e8926105f8603d600435946105a661027e6101f461259f565b98905061020961020382611133565b91611133565b8751998a92707b224c5350344d65746164617461223a7b60781b8785015275089b985b59488e88931d5adcdbd31bdbd9da595cc88b60521b60318501527f226465736372697074696f6e223a224c756b736f4c6f6f67696573206172652060478501527f4c554b534f205374616e64617264204c535038204e465473207769746820612060678501526d039b6b4b632901d149027b7363c960951b60878501526102bc8151809289609588019101610ddf565b83017f204c756b736f4c6f6f6769657320617661696c61626c65206f6e20612070726960958201527f636520637572766520696e6372656173696e6720302e3225207769746820656160b58201527f6368206e6577206d696e742e2054686973204d61747269782045646974696f6e60d58201527f20666561747572657320616e696d61746564204d61747269782d7374796c652060f58201527f64657369676e7320666f722065616368204c6f6f6769652e222c0000000000006101158201527f226c696e6b73223a5b7b227469746c65223a2257656273697465222c2275726c61012f8201527f223a2268747470733a2f2f6c756b736f6c6f6f676965732e76657263656c2e6161014f8201527f7070227d2c7b227469746c65223a2254776974746572222c2275726c223a226861016f8201527f747470733a2f2f747769747465722e636f6d2f6c756b736f4c6f6f676965732261018f820152621f574b60ea1b6101af8201527f22696d61676573223a5b5b7b227769647468223a3430302c22686569676874226101b28201526b1d1a181816113ab936111d1160a11b6101d2820152815190610479826101de948a8685019101610ddf565b64089f57574b60da1b9101918201526d2261747472696275746573223a5b60901b6101e38201527f7b226b6579223a2274797065222c2276616c7565223a22636f6c6c656374696f6101f1820152731b888b089d1e5c19488e889cdd1c9a5b99c89f4b60621b6102118201527f7b226b6579223a226c696d6974222c2276616c7565223a000000000000000000610225820152815161023c92909190610526908390858401908a01610ddf565b710b089d1e5c19488e889b9d5b58995c889f4b60721b9101918201527f7b226b6579223a226375727665222c2276616c7565223a3130302e322c22747961024e8201526c7065223a226e756d626572227d60981b61026e820152605d60f81b61027b820152617d7d60f01b61027c8201520361025e810189520187610e91565b6105af86612897565b845197827f646174613a6170706c69636174696f6e2f6a736f6e3b6261736536342c0000008a9485015282519283918686019101610ddf565b810103601d810187520185610e91565b5192839283610f8f565b80fd5b50346100a3576106309161063661061b36610f1b565b9399848284868e8a8c9e999c9d979b9d611292565b99611061565b87889084997a184f03e93ff9f4daa797ed6e38ed64bf6a1f0100000000000000009081811015610d5d575b50506d04ee2d6d415b85acef810000000080831015610d4e575b50662386f26fc1000080831015610d3f575b506305f5e10080831015610d30575b5061271080831015610d21575b506064821015610d11575b600a80921015610d07575b8160216106ce60018d01610fe3565b9b8c01015b60001901916f181899199a1a9b1b9c1cb0b131b232b360811b8282061a835304908b8215610703575082906106d3565b989250505061074560288851809b674c6f6f676965202360c01b60208301526107358151809260208686019101610ddf565b810103600881018c52018a610e91565b61074e81611133565b9461075884611133565b9b8115610ce857885161076a81610e27565b601f81527f2e204f776e6564206279206120556e6976657273616c2050726f66696c65210060208201529c5b8951809e8192602083019c7f54686973204d6174726978204c6f6f6769652069732074686520636f6c6f72208e528301602360f81b905287519a602089019b8c81604187016107e492610ddf565b840160418101750103bb4ba3410309031b43ab13134b732b9b99037b3160551b90528151918260578301916020019161081c92610ddf565b01605781017401030b7321036b7baba34103632b733ba341037b31605d1b905281519182606c8301916020019161085292610ddf565b0181519182606c8301916020019161086992610ddf565b0103604c81018252606c0161087d91610e91565b61088690612897565b9161089090611133565b9361089a90611133565b945015610cc55789516108ac81610e27565b60048152637472756560e01b6020820152965b8a519b8c809b602082017f7b224c5350344d65746164617461223a207b226e616d65223a2022000000000090528051603b819301916020019161090192610ddf565b8b0190711116113232b9b1b934b83a34b7b7111d101160711b603b830152519182604d830161092f92610ddf565b7f222c226c696e6b73223a205b7b227469746c65223a2257656273697465222c22604d92909101918201527f75726c223a2268747470733a2f2f6c756b736f6c6f6f676965732e7665726365606d820152721b0b985c1c089f574b089a58dbdb888e96d74b606a1b608d8201527f22696d61676573223a205b5b7b227769647468223a203430302c22686569676860a08201526f3a111d101a181816113ab936111d101160811b60c08201527f646174613a696d6167652f7376672b786d6c3b6261736536342c00000000000060d0820152815191610a1790839060ea840190602001610ddf565b019064089f57574b60da1b60ea8301526d2261747472696275746573223a5b60901b60ef83015260fd82017f7b226b6579223a22636f6c6f72222c2276616c7565223a222300000000000000905251906101169482868301610a7892610ddf565b0172088b089d1e5c19488e889cdd1c9a5b99c89f4b606a1b809482015261012981017f7b226b6579223a226368756262696e657373222c2276616c7565223a00000000905281519061014592828483019160200191610ad692610ddf565b01710b089d1e5c19488e889b9d5b58995c889f4b60721b809282015261015781017f7b226b6579223a226d6f7574684c656e677468222c2276616c7565223a000000905282519061017493828583019160200191610b3392610ddf565b019182015261018681017f7b226b6579223a22757365726e616d65222c2276616c7565223a22000000000090528251906101a193828583019160200191610b7992610ddf565b0191820152753d9135b2bc911d1134b9aaa81116113b30b63ab2911d60511b6101b48201528151906101ca92828483019160200191610bb792610ddf565b720b089d1e5c19488e88989bdbdb19585b889f4b606a1b9101918201527f7b226b6579223a2274797065222c2276616c7565223a220000000000000000006101dd82015281516101f492909190610c1690839085840190602001610ddf565b019071222c2274797065223a22737472696e67227d60701b908201526102068101625d7d7d60e81b9052036101e98101835261020901610c569083610e91565b610c5f82612897565b9080518092602082017f646174613a6170706c69636174696f6e2f6a736f6e3b6261736536342c000000905280519081603d84019160200191610ca192610ddf565b810103601d81018352603d01610cb79083610e91565b5191829161009f9183610f8f565b8951610cd081610e27565b600581526466616c736560d81b6020820152966108bf565b8851610cf381610e27565b60018152601760f91b60208201529c610796565b98600101986106bf565b98906064600291049101986106b4565b6004919a9204910198386106a9565b6008919a92049101983861069c565b6010919a92049101983861068d565b6020919a92049101983861067b565b8c9b500491503880610661565b50346100a35760203660031901126100a357600435916001600160e81b031983168303610602575061008c61009f92611061565b50346100a357816003193601126100a35761009f90610dbb61259f565b610dd18394929451948486958652850190610e02565b908382036020850152610e02565b60005b838110610df25750506000910152565b8181015183820152602001610de2565b90602091610e1b81518092818552858086019101610ddf565b601f01601f1916010190565b6040810190811067ffffffffffffffff821117610e4357604052565b634e487b7160e01b600052604160045260246000fd5b6060810190811067ffffffffffffffff821117610e4357604052565b6020810190811067ffffffffffffffff821117610e4357604052565b90601f8019910116810190811067ffffffffffffffff821117610e4357604052565b67ffffffffffffffff8111610e4357601f01601f191660200190565b81601f82011215610f1657803590610ee682610eb3565b92610ef46040519485610e91565b82845260208383010111610f1657816000926020809301838601378301015290565b600080fd5b60e0600319820112610f16576004359167ffffffffffffffff602435818111610f165783610f4b91600401610ecf565b926044356001600160e81b031981168103610f165792606435926084359260a435918211610f1657610f7f91600401610ecf565b9060c4358015158103610f165790565b9091610fa6610fb493604084526040840190610e02565b916020818403910152610e02565b90565b60405190610fc482610e27565b601082526f181899199a1a9b1b9c1cb0b131b232b360811b6020830152565b90610fed82610eb3565b610ffa6040519182610e91565b828152809261100b601f1991610eb3565b0190602036910137565b60001981146110245760010190565b634e487b7160e01b600052601160045260246000fd5b90815181101561104b570160200190565b634e487b7160e01b600052603260045260246000fd5b611069610fb7565b6040519161107683610e27565b600683526020368185013760005b600381106110925750505090565b6001600160f81b031982821a6004826110b083831c60ff168861103a565b51169260019285841b948686046002148715171561111e576110e491600f9160001a6110dc888d61103a565b53168861103a565b5116918301809311611109575090610167611104939260001a918761103a565b611084565b601190634e487b7160e01b6000525260246000fd5b601184634e487b7160e01b6000525260246000fd5b80156111ad5780816000925b611199575061114d82610fe3565b9190805b61115a57505090565b600a90603092828206840180941161102457801561102457600019019260f81b6001600160f81b03191660001a611191848661103a565b530480611151565b916111a5600a91611015565b92048061113f565b506040516111ba81610e27565b60018152600360fc1b602082015290565b604051906111d882610e27565b600582526433b932b2b760d91b6020830152565b604051906111f982610e27565b6004825263626c756560e01b6020830152565b6040519061121982610e27565b60038252621c995960ea1b6020830152565b6040519061123882610e27565b6006825265707572706c6560d01b6020830152565b6040519061125a82610e27565b600682526579656c6c6f7760d01b6020830152565b6040519061127c82610e27565b60078252660233030666630360cc1b6020830152565b94959492939185156124305781516020928381019182206112b16111cb565b8051908601200361231857505050506112c861126f565b955b60036040516020810190858252650dac2e8e4d2f60d31b6040820152602681526112f381610e59565b5190208615612311578116105b85156123035760405161131281610e27565b600781526611b3331818333360c91b6020820152905b85600902956009870481036110245761032a97888881031161102457600083156122ee57506040517f3c66696c7465722069643d226d61747269782d676c6f772220783d222d32302560208201527f2220793d222d323025222077696474683d223134302522206865696768743d22604082015265189a1812911f60d11b60608201527f3c6665476175737369616e426c757220737464446576696174696f6e3d22332260668201526f103932b9bab63a1e9131363ab911179f60811b60868201526114f960ad826113fc6096820161252e565b681e17b334b63a32b91f60b91b81527f3c6c696e6561724772616469656e742069643d226d61747269782d626722207860098201527f313d223025222079313d223025222078323d223025222079323d2231303025226029820152601f60f91b60498201527f3c73746f70206f66667365743d223025222073746f702d636f6c6f723d222330604a8201526718181c181811179f60c11b606a8201527f3c73746f70206f66667365743d2231303025222073746f702d636f6c6f723d226072820152691198181898181811179f60b11b6092820152701e17b634b732b0b923b930b234b2b73a1f60791b609c82015203608d810184520182610e91565b925b60009015612257575060405161151081610e27565b601881527f3c6720636c6173733d226d61747269782d6368617273223e0000000000000000602082015295604051996101e0808c018c811067ffffffffffffffff821117610e4357604052368c3760005b60ff9081811691600f8310156115c65761017c8c6040516020810191825260ff60f81b8560f81b1660408201526021815261159b81610e59565b51902006600a8101809111611024576115c1938f926115bb92169261258e565b5261257d565b611561565b50505091939597999b90929496989a60ff9b600f60009d8e5b16101561182e5760008e5b600860ff83161061160b575050600f61160460ff9e61257d565b9d8e6115df565b909b8c8f918f90604051602081019383855260ff60f81b60f89261017c82808a871b1694856040850152861b169760419289848201526022815261164e81610e59565b5190200697600a998a8a01809a11611024576331b430b960e11b9a60405160208101908a82528760408201528b8682015260429d8e8201526026815261169381610e59565b5190200692603084018094116110245760ff6117128161170b6118289f95826118229f60679f600590661e17ba32bc3a1f60c91b9e6464656c617960d81b6117199c86956102039d60405194602086019687526040860152840152820152602781526116fe81610e59565b519020061698169061258e565b5116611133565b9b16611133565b926040519260208401961b1685526001825261173482610e27565b7f2220636c6173733d226d61747269782d6368617222207374796c653d22616e69604051998761176e8c995180926020808d019101610ddf565b8801681e3a32bc3a103c1e9160b91b60208201528151906117988260299460208685019101610ddf565b01906411103c9e9160d91b908201528251906117bd82602e9560208785019101610ddf565b01918201526d036b0ba34b7b716b232b630bc9d160951b604e8201528251906117ef82605c9560208785019101610ddf565b019163399d911f60e11b90830152519061180f8260609586840190610ddf565b0191820152036047810184520182610e91565b9b61257d565b8e6115ea565b7f2032333522207374726f6b653d22626c61636b22207374726f6b652d7769647495969798999d507f3b206f7061636974793a20302e333b20616e696d6174696f6e3a2066616465209c50610fb49b50906118fe6118f8600b7f3c6720636c6173733d226c6f6f6769652d636f6e7461696e6572223e00000000946118f06105ab9f6118ea6024604051836118cd829551809260208086019101610ddf565b8101631e17b39f60e11b6020820152036004810184520182610e91565b9c611133565b970304611133565b95611133565b81519097906000901561223f57501561218a576119ba607d60405180937f3c7465787420783d223230302220793d223330302220636c6173733d2275736560208301527f726e616d6522207374796c653d22666f6e742d66616d696c793a2027436f6d69604083015275319029b0b7399026a993961031bab939b4bb329d911f60511b606083015261199a815180926020607686019101610ddf565b8101661e17ba32bc3a1f60c91b607682015203605d810184520182610e91565b975b661e17b232b3399f60c91b604051809e819c7f3c73766720786d6c6e733d22687474703a2f2f7777772e77332e6f72672f323060208401527f30302f737667222076696577426f783d2230203020343030203430302220776960408401527f6474683d2234303022206865696768743d22343030223e0000000000000000006060840152651e3232b3399f60d11b6077840152661e39ba3cb6329f60c91b607d8401527f40696d706f72742075726c282268747470733a2f2f666f6e74732e676f6f676c60848401527f65617069732e636f6d2f637373323f66616d696c793d436f6d69632b53616e7360a48401527f2b4d5326616d703b646973706c61793d7377617022293b00000000000000000060c48401527f2e757365726e616d65207b20666f6e742d66616d696c793a2022436f6d69632060db8401527f53616e73204d53222c20637572736976653b20666f6e742d73697a653a20313660fb8401527f70783b2066696c6c3a2077686974653b20746578742d616e63686f723a206d6961011b8401526664646c653b207d60c81b61013b8401527f2e6d61747269782d63686172207b20666f6e742d66616d696c793a206d6f6e6f6101428401526c039b830b1b29d903334b6361d1609d1b610162840152611ba981518092602061016f8097019101610ddf565b8d01918201527f337320696e66696e6974652c2066616c6c203873206c696e65617220696e666961018f820152666e6974653b207d60c81b6101af8201527f406b65796672616d65732066616465207b203025207b206f7061636974793a206101b68201527f302e323b207d20333025207b206f7061636974793a20302e393b207d203730256101d68201527f207b206f7061636974793a20302e393b207d2031303025207b206f70616369746101f68201526a793a20302e323b207d207d60a81b6102168201527f406b65796672616d65732066616c6c207b2066726f6d207b207472616e73666f6102218201527f726d3a207472616e736c61746559282d32307078293b207d20746f207b2074726102418201527f616e73666f726d3a207472616e736c61746559283432307078293b207d207d00610261820152671e17b9ba3cb6329f60c11b610280820152825190611d0f826102889560208785019101610ddf565b01918201527f3c726563742077696474683d2234303022206865696768743d2234303022206661028f8201526c34b6361e91313630b1b591179f60991b6102af820152875190611d69826102bc9a60208c85019101610ddf565b01968701526c1e339034b21e9132bcb298911f60991b6102d88701527f3c656c6c69707365207374726f6b652d77696474683d2233222072793d223239806102e58801527f2e35222072783d2232392e35222069643d227376675f31222063793d223135346103058801527f2e35222063783d223138312e3522207374726f6b653d2223303030222066696c6103258801527f222072793d2235312e383030363522207374726f6b653d2223303030222f3e0069361e9111b3333311179f60b11b92836103458a01527f3c656c6c697073652072793d22332e35222072783d22322e35222069643d227361034f8a01527f76675f33222063793d223135342e35222063783d223137332e3522207374726f61036f8a01527f6b652d77696474683d223322207374726f6b653d2223303030222066696c6c3d61038f8a01526a111198181818181811179f60a91b6103af8a01527f22207374726f6b652d77696474683d2233222063783d223230342e3522206379631e17b39f60e11b998a6103ba8201526c1e339034b21e913432b0b2111f60991b6103be8201526e1e32b63634b839b2903334b6361e9160891b6103cb820152825190611f34826103da9560208785019101610ddf565b01918201527f3d223231312e3830303635222069643d227376675f35222072783d22000000006103fa820152845190611f77826104169760208985019101610ddf565b0193840152866104358401526c1e339034b21e9132bcb299111f60991b6104398401526104468301527f2e35222072783d2232392e35222069643d227376675f32222063793d223136386104668301527f2e35222063783d223230392e3522207374726f6b653d2223303030222066696c6104868301526104a68201527f3c656c6c697073652072793d22332e35222072783d2233222069643d227376676104b08201527f5f34222063793d223136392e35222063783d2232303822207374726f6b652d776104d08201527f696474683d2233222066696c6c3d222330303030303022207374726f6b653d226104f0820152661198181811179f60c91b610510820152846105178201527f3c6720636c6173733d226d6f75746822207472616e73666f726d3d227472616e61051b820152650e6d8c2e8ca560d31b61053b8201528151906120cf826105419460208685019101610ddf565b019064161814911f60d91b908201527f3c7061746820643d224d2031333020323430205120313635203235302000000061054682015282519061211c826105639560208785019101610ddf565b01918201527f683d2233222066696c6c3d227472616e73706172656e74222f3e0000000000006105838201528161059d820152825190612166826105a19560208785019101610ddf565b0191820152651e17b9bb339f60d11b6105a58201520361058b810184520182610e91565b61223a608460405180937f3c7465787420783d223230302220793d223330302220666f6e742d66616d696c60208301527f793d22417269616c2220666f6e742d73697a653d223136222066696c6c3d222360408301527f6666666666662220746578742d616e63686f723d226d6964646c65223e000000606083015261221a815180926020607d86019101610ddf565b8101661e17ba32bc3a1f60c91b607d820152036064810184520182610e91565b6119ba565b9150506040519061224f82610e75565b8152976119bc565b610fb499919497509a7f3c6720636c6173733d226c6f6f6769652d636f6e7461696e6572223e000000007f3b206f7061636974793a20302e333b20616e696d6174696f6e3a2066616465209b6118fe6118f87f2032333522207374726f6b653d22626c61636b22207374726f6b652d77696474979a96999f6105ab9d6118f0600b92604051906122e682610e75565b81529c611133565b604051906122fb82610e75565b8152926114fb565b61230b61126f565b90611328565b1615611300565b805182206123246111ec565b80519086012003612357575050506611981831b1b33360c91b6040519161234a83610e27565b60078352820152956112ca565b8051822061236361120c565b80519086012003612389575050506611b33318181b1b60c91b6040519161234a83610e27565b8051822061239561122b565b805190860120036123bb575050506611b1b19818333360c91b6040519161234a83610e27565b5190206123c661124d565b805190840120036123ea5750660236666636330360cc1b6040519161234a83610e27565b602161241a926123fc61242a93611061565b6040519482602360f81b879485015282519283918686019101610ddf565b8101036001810184520182610e91565b956112ca565b81516020928381019182206124436111cb565b8051908601200361246957505050662361336536333560c81b6040519161234a83610e27565b805182206124756111ec565b8051908601200361249b57505050661199b11c19331b60c91b6040519161234a83610e27565b805182206124a761120c565b805190860120036124cd575050506608d9598d0d0d0d60ca1b6040519161234a83610e27565b805182206124d961122b565b805190860120036124ff57505050662361383535663760c81b6040519161234a83610e27565b51902061250a61124d565b805190840120036123ea5750662366616363313560c81b6040519161234a83610e27565b7f3c6665436f6d706f7369746520696e3d22536f7572636547726170686963222081527f696e323d22626c757222206f70657261746f723d226f766572222f3e000000006020820152603c0190565b60ff1660ff81146110245760010190565b90600f81101561104b5760051b0190565b604080517f3c73766720786d6c6e733d22687474703a2f2f7777772e77332e6f72672f323060208201527f30302f737667222077696474683d2234303022206865696768743d2234303022918101919091527f2076696577426f783d223020302034303020343030223e00000000000000000060608201527f3c726563742077696474683d2234303022206865696768743d2234303022206660778201526b34b6361e911198181811179f60a11b6097820152711e3334b63a32b91034b21e9133b637bb911f60711b60a38201527f3c6665476175737369616e426c757220737464446576696174696f6e3d22332e60b5820152711a91103932b9bab63a1e9131363ab911179f60711b60d582015290612836610113836126c260e7820161252e565b681e17b334b63a32b91f60b91b81527f3c7465787420783d223230302220793d223138302220666f6e742d66616d696c60098201527f793d22417269616c2220666f6e742d73697a653d223430222066696c6c3d222360298201527f6666662220746578742d616e63686f723d226d6964646c65222066696c74657260498201527f3d2275726c2823676c6f7729223e4c756b736f4c6f6f676965733c2f746578746069820152601f60f91b60898201527f3c7465787420783d223230302220793d223233302220666f6e742d66616d696c608a8201527f793d22417269616c2220666f6e742d73697a653d223230222066696c6c3d222360aa8201527f3066302220746578742d616e63686f723d226d6964646c65222066696c74657260ca8201527f3d2275726c2823676c6f7729223e4d61747269782045646974696f6e3c2f746560ea820152623c3a1f60e91b61010a820152651e17b9bb339f60d11b61010d8201520360f3810185520183610e91565b61283f82612897565b91612893603a60405180957f646174613a696d6167652f7376672b786d6c3b6261736536342c00000000000060208301526128838151809260208686019101610ddf565b810103601a810186520184610e91565b9190565b8051156129d757604051906128ab82610e59565b604082527f4142434445464748494a4b4c4d4e4f505152535455565758595a61626364656660208301527f6768696a6b6c6d6e6f707172737475767778797a303132333435363738392b2f60408301528051600291828201809211611024576003918290046001600160fe1b03811681036110245761292d908495941b610fe3565b936020850193829183518401906020820192835194600085525b83811061298657505050505251068060011461297357600214612968575090565b603d90600019015390565b50603d9081600019820153600119015390565b87600491999293949901918251600190603f9082828260121c16880101518453828282600c1c16880101518385015382828260061c1688010151888501531685010151898201530197929190612947565b506040516129e481610e75565b600081529056fea264697066735822122099ee386245555d1a2c1a2a6e6099d829ca03411ba3a550fd95fcce2ace7dc93264736f6c63430008140033","opcodes":"PUSH1 0x80 DUP1 PUSH1 0x40 MSTORE CALLVALUE PUSH2 0x16 JUMPI PUSH2 0x2A21 SWAP1 DUP2 PUSH2 0x1C DUP3 CODECOPY RETURN JUMPDEST PUSH1 0x0 DUP1 REVERT INVALID PUSH1 0x40 PUSH1 0x80 DUP2 MSTORE PUSH1 0x4 CALLDATASIZE LT ISZERO PUSH2 0x13 JUMPI PUSH1 0x0 DUP1 REVERT JUMPDEST PUSH1 0x0 SWAP1 DUP2 CALLDATALOAD PUSH1 0xE0 SHR DUP1 PUSH4 0x3BE699F9 EQ PUSH2 0xD9E JUMPI DUP1 PUSH4 0x76799136 EQ PUSH2 0xD6A JUMPI DUP1 PUSH4 0x8528247F EQ PUSH2 0x605 JUMPI DUP1 PUSH4 0x8CDA5103 EQ PUSH2 0x1C0 JUMPI DUP1 PUSH4 0xAD30DDBF EQ PUSH2 0x19E JUMPI DUP1 PUSH4 0xC68B3787 EQ PUSH2 0xA7 JUMPI PUSH4 0xF76F950E EQ PUSH2 0x6C JUMPI PUSH1 0x0 DUP1 REVERT JUMPDEST CALLVALUE PUSH2 0xA3 JUMPI PUSH1 0x20 CALLDATASIZE PUSH1 0x3 NOT ADD SLT PUSH2 0xA3 JUMPI PUSH2 0x9F SWAP1 PUSH2 0x8C PUSH1 0x4 CALLDATALOAD PUSH2 0x1133 JUMP JUMPDEST SWAP1 MLOAD SWAP2 DUP3 SWAP2 PUSH1 0x20 DUP4 MSTORE PUSH1 0x20 DUP4 ADD SWAP1 PUSH2 0xE02 JUMP JUMPDEST SUB SWAP1 RETURN JUMPDEST POP DUP1 REVERT JUMPDEST POP CALLVALUE PUSH2 0xA3 JUMPI PUSH1 0x20 SWAP1 DUP2 PUSH1 0x3 NOT CALLDATASIZE ADD SLT PUSH2 0x19A JUMPI PUSH1 0x4 CALLDATALOAD SWAP3 PUSH2 0xC7 PUSH2 0xFB7 JUMP JUMPDEST SWAP4 DUP3 MLOAD SWAP5 PUSH2 0xD4 DUP7 PUSH2 0xE59 JUMP JUMPDEST DUP4 DUP7 MSTORE DUP4 CALLDATASIZE DUP7 DUP9 ADD CALLDATACOPY DUP3 JUMPDEST DUP6 DUP2 LT PUSH2 0xF8 JUMPI DUP5 MLOAD DUP7 DUP2 MSTORE DUP1 PUSH2 0x9F DUP2 DUP10 ADD DUP11 PUSH2 0xE02 JUMP JUMPDEST PUSH1 0x1 PUSH1 0x1 PUSH1 0xF8 SHL SUB NOT DUP4 DUP3 BYTE DUP2 PUSH2 0x116 PUSH1 0x4 DUP4 SWAP1 SHR PUSH1 0xFF AND DUP7 PUSH2 0x103A JUMP JUMPDEST MLOAD AND SWAP2 PUSH1 0x1 SWAP2 DUP5 DUP4 SHL SWAP4 DUP6 DUP6 DIV PUSH1 0x2 EQ DUP7 ISZERO OR ISZERO PUSH2 0x186 JUMPI PUSH2 0x149 SWAP2 PUSH1 0xF SWAP2 DUP11 BYTE PUSH2 0x141 DUP8 DUP16 PUSH2 0x103A JUMP JUMPDEST MSTORE8 AND DUP7 PUSH2 0x103A JUMP JUMPDEST MLOAD AND SWAP1 DUP3 ADD DUP1 SWAP3 GT PUSH2 0x172 JUMPI SWAP1 PUSH2 0x167 PUSH2 0x16D SWAP4 SWAP3 DUP8 BYTE SWAP2 DUP11 PUSH2 0x103A JUMP JUMPDEST MSTORE8 PUSH2 0x1015 JUMP JUMPDEST PUSH2 0xDF JUMP JUMPDEST PUSH4 0x4E487B71 PUSH1 0xE0 SHL DUP7 MSTORE PUSH1 0x11 PUSH1 0x4 MSTORE PUSH1 0x24 DUP7 REVERT JUMPDEST PUSH4 0x4E487B71 PUSH1 0xE0 SHL DUP10 MSTORE PUSH1 0x11 PUSH1 0x4 MSTORE PUSH1 0x24 DUP10 REVERT JUMPDEST DUP3 DUP1 REVERT JUMPDEST POP CALLVALUE PUSH2 0xA3 JUMPI PUSH2 0x9F SWAP1 PUSH2 0x8C PUSH2 0x1B4 CALLDATASIZE PUSH2 0xF1B JUMP JUMPDEST SWAP6 SWAP5 SWAP1 SWAP5 SWAP4 SWAP2 SWAP4 PUSH2 0x1292 JUMP JUMPDEST POP SWAP1 CALLVALUE PUSH2 0x602 JUMPI PUSH1 0x20 SWAP1 DUP2 PUSH1 0x3 NOT CALLDATASIZE ADD SLT PUSH2 0x602 JUMPI POP PUSH2 0x9F PUSH2 0x5E8 SWAP3 PUSH2 0x5F8 PUSH1 0x3D PUSH1 0x4 CALLDATALOAD SWAP5 PUSH2 0x5A6 PUSH2 0x27E PUSH2 0x1F4 PUSH2 0x259F JUMP JUMPDEST SWAP9 SWAP1 POP PUSH2 0x209 PUSH2 0x203 DUP3 PUSH2 0x1133 JUMP JUMPDEST SWAP2 PUSH2 0x1133 JUMP JUMPDEST DUP8 MLOAD SWAP10 DUP11 SWAP3 PUSH17 0x7B224C5350344D65746164617461223A7B PUSH1 0x78 SHL DUP8 DUP6 ADD MSTORE PUSH22 0x89B985B59488E88931D5ADCDBD31BDBD9DA595CC88B PUSH1 0x52 SHL PUSH1 0x31 DUP6 ADD MSTORE PUSH32 0x226465736372697074696F6E223A224C756B736F4C6F6F676965732061726520 PUSH1 0x47 DUP6 ADD MSTORE PUSH32 0x4C554B534F205374616E64617264204C535038204E4654732077697468206120 PUSH1 0x67 DUP6 ADD MSTORE PUSH14 0x39B6B4B632901D149027B7363C9 PUSH1 0x95 SHL PUSH1 0x87 DUP6 ADD MSTORE PUSH2 0x2BC DUP2 MLOAD DUP1 SWAP3 DUP10 PUSH1 0x95 DUP9 ADD SWAP2 ADD PUSH2 0xDDF JUMP JUMPDEST DUP4 ADD PUSH32 0x204C756B736F4C6F6F6769657320617661696C61626C65206F6E206120707269 PUSH1 0x95 DUP3 ADD MSTORE PUSH32 0x636520637572766520696E6372656173696E6720302E32252077697468206561 PUSH1 0xB5 DUP3 ADD MSTORE PUSH32 0x6368206E6577206D696E742E2054686973204D61747269782045646974696F6E PUSH1 0xD5 DUP3 ADD MSTORE PUSH32 0x20666561747572657320616E696D61746564204D61747269782D7374796C6520 PUSH1 0xF5 DUP3 ADD MSTORE PUSH32 0x64657369676E7320666F722065616368204C6F6F6769652E222C000000000000 PUSH2 0x115 DUP3 ADD MSTORE PUSH32 0x226C696E6B73223A5B7B227469746C65223A2257656273697465222C2275726C PUSH2 0x12F DUP3 ADD MSTORE PUSH32 0x223A2268747470733A2F2F6C756B736F6C6F6F676965732E76657263656C2E61 PUSH2 0x14F DUP3 ADD MSTORE PUSH32 0x7070227D2C7B227469746C65223A2254776974746572222C2275726C223A2268 PUSH2 0x16F DUP3 ADD MSTORE PUSH32 0x747470733A2F2F747769747465722E636F6D2F6C756B736F4C6F6F6769657322 PUSH2 0x18F DUP3 ADD MSTORE PUSH3 0x1F574B PUSH1 0xEA SHL PUSH2 0x1AF DUP3 ADD MSTORE PUSH32 0x22696D61676573223A5B5B7B227769647468223A3430302C2268656967687422 PUSH2 0x1B2 DUP3 ADD MSTORE PUSH12 0x1D1A181816113AB936111D11 PUSH1 0xA1 SHL PUSH2 0x1D2 DUP3 ADD MSTORE DUP2 MLOAD SWAP1 PUSH2 0x479 DUP3 PUSH2 0x1DE SWAP5 DUP11 DUP7 DUP6 ADD SWAP2 ADD PUSH2 0xDDF JUMP JUMPDEST PUSH5 0x89F57574B PUSH1 0xDA SHL SWAP2 ADD SWAP2 DUP3 ADD MSTORE PUSH14 0x2261747472696275746573223A5B PUSH1 0x90 SHL PUSH2 0x1E3 DUP3 ADD MSTORE PUSH32 0x7B226B6579223A2274797065222C2276616C7565223A22636F6C6C656374696F PUSH2 0x1F1 DUP3 ADD MSTORE PUSH20 0x1B888B089D1E5C19488E889CDD1C9A5B99C89F4B PUSH1 0x62 SHL PUSH2 0x211 DUP3 ADD MSTORE PUSH32 0x7B226B6579223A226C696D6974222C2276616C7565223A000000000000000000 PUSH2 0x225 DUP3 ADD MSTORE DUP2 MLOAD PUSH2 0x23C SWAP3 SWAP1 SWAP2 SWAP1 PUSH2 0x526 SWAP1 DUP4 SWAP1 DUP6 DUP5 ADD SWAP1 DUP11 ADD PUSH2 0xDDF JUMP JUMPDEST PUSH18 0xB089D1E5C19488E889B9D5B58995C889F4B PUSH1 0x72 SHL SWAP2 ADD SWAP2 DUP3 ADD MSTORE PUSH32 0x7B226B6579223A226375727665222C2276616C7565223A3130302E322C227479 PUSH2 0x24E DUP3 ADD MSTORE PUSH13 0x7065223A226E756D626572227D PUSH1 0x98 SHL PUSH2 0x26E DUP3 ADD MSTORE PUSH1 0x5D PUSH1 0xF8 SHL PUSH2 0x27B DUP3 ADD MSTORE PUSH2 0x7D7D PUSH1 0xF0 SHL PUSH2 0x27C DUP3 ADD MSTORE SUB PUSH2 0x25E DUP2 ADD DUP10 MSTORE ADD DUP8 PUSH2 0xE91 JUMP JUMPDEST PUSH2 0x5AF DUP7 PUSH2 0x2897 JUMP JUMPDEST DUP5 MLOAD SWAP8 DUP3 PUSH32 0x646174613A6170706C69636174696F6E2F6A736F6E3B6261736536342C000000 DUP11 SWAP5 DUP6 ADD MSTORE DUP3 MLOAD SWAP3 DUP4 SWAP2 DUP7 DUP7 ADD SWAP2 ADD PUSH2 0xDDF JUMP JUMPDEST DUP2 ADD SUB PUSH1 0x1D DUP2 ADD DUP8 MSTORE ADD DUP6 PUSH2 0xE91 JUMP JUMPDEST MLOAD SWAP3 DUP4 SWAP3 DUP4 PUSH2 0xF8F JUMP JUMPDEST DUP1 REVERT JUMPDEST POP CALLVALUE PUSH2 0xA3 JUMPI PUSH2 0x630 SWAP2 PUSH2 0x636 PUSH2 0x61B CALLDATASIZE PUSH2 0xF1B JUMP JUMPDEST SWAP4 SWAP10 DUP5 DUP3 DUP5 DUP7 DUP15 DUP11 DUP13 SWAP15 SWAP10 SWAP13 SWAP14 SWAP8 SWAP12 SWAP14 PUSH2 0x1292 JUMP JUMPDEST SWAP10 PUSH2 0x1061 JUMP JUMPDEST DUP8 DUP9 SWAP1 DUP5 SWAP10 PUSH27 0x184F03E93FF9F4DAA797ED6E38ED64BF6A1F010000000000000000 SWAP1 DUP2 DUP2 LT ISZERO PUSH2 0xD5D JUMPI JUMPDEST POP POP PUSH14 0x4EE2D6D415B85ACEF8100000000 DUP1 DUP4 LT ISZERO PUSH2 0xD4E JUMPI JUMPDEST POP PUSH7 0x2386F26FC10000 DUP1 DUP4 LT ISZERO PUSH2 0xD3F JUMPI JUMPDEST POP PUSH4 0x5F5E100 DUP1 DUP4 LT ISZERO PUSH2 0xD30 JUMPI JUMPDEST POP PUSH2 0x2710 DUP1 DUP4 LT ISZERO PUSH2 0xD21 JUMPI JUMPDEST POP PUSH1 0x64 DUP3 LT ISZERO PUSH2 0xD11 JUMPI JUMPDEST PUSH1 0xA DUP1 SWAP3 LT ISZERO PUSH2 0xD07 JUMPI JUMPDEST DUP2 PUSH1 0x21 PUSH2 0x6CE PUSH1 0x1 DUP14 ADD PUSH2 0xFE3 JUMP JUMPDEST SWAP12 DUP13 ADD ADD JUMPDEST PUSH1 0x0 NOT ADD SWAP2 PUSH16 0x181899199A1A9B1B9C1CB0B131B232B3 PUSH1 0x81 SHL DUP3 DUP3 MOD BYTE DUP4 MSTORE8 DIV SWAP1 DUP12 DUP3 ISZERO PUSH2 0x703 JUMPI POP DUP3 SWAP1 PUSH2 0x6D3 JUMP JUMPDEST SWAP9 SWAP3 POP POP POP PUSH2 0x745 PUSH1 0x28 DUP9 MLOAD DUP1 SWAP12 PUSH8 0x4C6F6F6769652023 PUSH1 0xC0 SHL PUSH1 0x20 DUP4 ADD MSTORE PUSH2 0x735 DUP2 MLOAD DUP1 SWAP3 PUSH1 0x20 DUP7 DUP7 ADD SWAP2 ADD PUSH2 0xDDF JUMP JUMPDEST DUP2 ADD SUB PUSH1 0x8 DUP2 ADD DUP13 MSTORE ADD DUP11 PUSH2 0xE91 JUMP JUMPDEST PUSH2 0x74E DUP2 PUSH2 0x1133 JUMP JUMPDEST SWAP5 PUSH2 0x758 DUP5 PUSH2 0x1133 JUMP JUMPDEST SWAP12 DUP2 ISZERO PUSH2 0xCE8 JUMPI DUP9 MLOAD PUSH2 0x76A DUP2 PUSH2 0xE27 JUMP JUMPDEST PUSH1 0x1F DUP2 MSTORE PUSH32 0x2E204F776E6564206279206120556E6976657273616C2050726F66696C652100 PUSH1 0x20 DUP3 ADD MSTORE SWAP13 JUMPDEST DUP10 MLOAD DUP1 SWAP15 DUP2 SWAP3 PUSH1 0x20 DUP4 ADD SWAP13 PUSH32 0x54686973204D6174726978204C6F6F6769652069732074686520636F6C6F7220 DUP15 MSTORE DUP4 ADD PUSH1 0x23 PUSH1 0xF8 SHL SWAP1 MSTORE DUP8 MLOAD SWAP11 PUSH1 0x20 DUP10 ADD SWAP12 DUP13 DUP2 PUSH1 0x41 DUP8 ADD PUSH2 0x7E4 SWAP3 PUSH2 0xDDF JUMP JUMPDEST DUP5 ADD PUSH1 0x41 DUP2 ADD PUSH22 0x103BB4BA3410309031B43AB13134B732B9B99037B31 PUSH1 0x55 SHL SWAP1 MSTORE DUP2 MLOAD SWAP2 DUP3 PUSH1 0x57 DUP4 ADD SWAP2 PUSH1 0x20 ADD SWAP2 PUSH2 0x81C SWAP3 PUSH2 0xDDF JUMP JUMPDEST ADD PUSH1 0x57 DUP2 ADD PUSH21 0x1030B7321036B7BABA34103632B733BA341037B31 PUSH1 0x5D SHL SWAP1 MSTORE DUP2 MLOAD SWAP2 DUP3 PUSH1 0x6C DUP4 ADD SWAP2 PUSH1 0x20 ADD SWAP2 PUSH2 0x852 SWAP3 PUSH2 0xDDF JUMP JUMPDEST ADD DUP2 MLOAD SWAP2 DUP3 PUSH1 0x6C DUP4 ADD SWAP2 PUSH1 0x20 ADD SWAP2 PUSH2 0x869 SWAP3 PUSH2 0xDDF JUMP JUMPDEST ADD SUB PUSH1 0x4C DUP2 ADD DUP3 MSTORE PUSH1 0x6C ADD PUSH2 0x87D SWAP2 PUSH2 0xE91 JUMP JUMPDEST PUSH2 0x886 SWAP1 PUSH2 0x2897 JUMP JUMPDEST SWAP2 PUSH2 0x890 SWAP1 PUSH2 0x1133 JUMP JUMPDEST SWAP4 PUSH2 0x89A SWAP1 PUSH2 0x1133 JUMP JUMPDEST SWAP5 POP ISZERO PUSH2 0xCC5 JUMPI DUP10 MLOAD PUSH2 0x8AC DUP2 PUSH2 0xE27 JUMP JUMPDEST PUSH1 0x4 DUP2 MSTORE PUSH4 0x74727565 PUSH1 0xE0 SHL PUSH1 0x20 DUP3 ADD MSTORE SWAP7 JUMPDEST DUP11 MLOAD SWAP12 DUP13 DUP1 SWAP12 PUSH1 0x20 DUP3 ADD PUSH32 0x7B224C5350344D65746164617461223A207B226E616D65223A20220000000000 SWAP1 MSTORE DUP1 MLOAD PUSH1 0x3B DUP2 SWAP4 ADD SWAP2 PUSH1 0x20 ADD SWAP2 PUSH2 0x901 SWAP3 PUSH2 0xDDF JUMP JUMPDEST DUP12 ADD SWAP1 PUSH18 0x1116113232B9B1B934B83A34B7B7111D1011 PUSH1 0x71 SHL PUSH1 0x3B DUP4 ADD MSTORE MLOAD SWAP2 DUP3 PUSH1 0x4D DUP4 ADD PUSH2 0x92F SWAP3 PUSH2 0xDDF JUMP JUMPDEST PUSH32 0x222C226C696E6B73223A205B7B227469746C65223A2257656273697465222C22 PUSH1 0x4D SWAP3 SWAP1 SWAP2 ADD SWAP2 DUP3 ADD MSTORE PUSH32 0x75726C223A2268747470733A2F2F6C756B736F6C6F6F676965732E7665726365 PUSH1 0x6D DUP3 ADD MSTORE PUSH19 0x1B0B985C1C089F574B089A58DBDB888E96D74B PUSH1 0x6A SHL PUSH1 0x8D DUP3 ADD MSTORE PUSH32 0x22696D61676573223A205B5B7B227769647468223A203430302C226865696768 PUSH1 0xA0 DUP3 ADD MSTORE PUSH16 0x3A111D101A181816113AB936111D1011 PUSH1 0x81 SHL PUSH1 0xC0 DUP3 ADD MSTORE PUSH32 0x646174613A696D6167652F7376672B786D6C3B6261736536342C000000000000 PUSH1 0xD0 DUP3 ADD MSTORE DUP2 MLOAD SWAP2 PUSH2 0xA17 SWAP1 DUP4 SWAP1 PUSH1 0xEA DUP5 ADD SWAP1 PUSH1 0x20 ADD PUSH2 0xDDF JUMP JUMPDEST ADD SWAP1 PUSH5 0x89F57574B PUSH1 0xDA SHL PUSH1 0xEA DUP4 ADD MSTORE PUSH14 0x2261747472696275746573223A5B PUSH1 0x90 SHL PUSH1 0xEF DUP4 ADD MSTORE PUSH1 0xFD DUP3 ADD PUSH32 0x7B226B6579223A22636F6C6F72222C2276616C7565223A222300000000000000 SWAP1 MSTORE MLOAD SWAP1 PUSH2 0x116 SWAP5 DUP3 DUP7 DUP4 ADD PUSH2 0xA78 SWAP3 PUSH2 0xDDF JUMP JUMPDEST ADD PUSH19 0x88B089D1E5C19488E889CDD1C9A5B99C89F4B PUSH1 0x6A SHL DUP1 SWAP5 DUP3 ADD MSTORE PUSH2 0x129 DUP2 ADD PUSH32 0x7B226B6579223A226368756262696E657373222C2276616C7565223A00000000 SWAP1 MSTORE DUP2 MLOAD SWAP1 PUSH2 0x145 SWAP3 DUP3 DUP5 DUP4 ADD SWAP2 PUSH1 0x20 ADD SWAP2 PUSH2 0xAD6 SWAP3 PUSH2 0xDDF JUMP JUMPDEST ADD PUSH18 0xB089D1E5C19488E889B9D5B58995C889F4B PUSH1 0x72 SHL DUP1 SWAP3 DUP3 ADD MSTORE PUSH2 0x157 DUP2 ADD PUSH32 0x7B226B6579223A226D6F7574684C656E677468222C2276616C7565223A000000 SWAP1 MSTORE DUP3 MLOAD SWAP1 PUSH2 0x174 SWAP4 DUP3 DUP6 DUP4 ADD SWAP2 PUSH1 0x20 ADD SWAP2 PUSH2 0xB33 SWAP3 PUSH2 0xDDF JUMP JUMPDEST ADD SWAP2 DUP3 ADD MSTORE PUSH2 0x186 DUP2 ADD PUSH32 0x7B226B6579223A22757365726E616D65222C2276616C7565223A220000000000 SWAP1 MSTORE DUP3 MLOAD SWAP1 PUSH2 0x1A1 SWAP4 DUP3 DUP6 DUP4 ADD SWAP2 PUSH1 0x20 ADD SWAP2 PUSH2 0xB79 SWAP3 PUSH2 0xDDF JUMP JUMPDEST ADD SWAP2 DUP3 ADD MSTORE PUSH22 0x3D9135B2BC911D1134B9AAA81116113B30B63AB2911D PUSH1 0x51 SHL PUSH2 0x1B4 DUP3 ADD MSTORE DUP2 MLOAD SWAP1 PUSH2 0x1CA SWAP3 DUP3 DUP5 DUP4 ADD SWAP2 PUSH1 0x20 ADD SWAP2 PUSH2 0xBB7 SWAP3 PUSH2 0xDDF JUMP JUMPDEST PUSH19 0xB089D1E5C19488E88989BDBDB19585B889F4B PUSH1 0x6A SHL SWAP2 ADD SWAP2 DUP3 ADD MSTORE PUSH32 0x7B226B6579223A2274797065222C2276616C7565223A22000000000000000000 PUSH2 0x1DD DUP3 ADD MSTORE DUP2 MLOAD PUSH2 0x1F4 SWAP3 SWAP1 SWAP2 SWAP1 PUSH2 0xC16 SWAP1 DUP4 SWAP1 DUP6 DUP5 ADD SWAP1 PUSH1 0x20 ADD PUSH2 0xDDF JUMP JUMPDEST ADD SWAP1 PUSH18 0x222C2274797065223A22737472696E67227D PUSH1 0x70 SHL SWAP1 DUP3 ADD MSTORE PUSH2 0x206 DUP2 ADD PUSH3 0x5D7D7D PUSH1 0xE8 SHL SWAP1 MSTORE SUB PUSH2 0x1E9 DUP2 ADD DUP4 MSTORE PUSH2 0x209 ADD PUSH2 0xC56 SWAP1 DUP4 PUSH2 0xE91 JUMP JUMPDEST PUSH2 0xC5F DUP3 PUSH2 0x2897 JUMP JUMPDEST SWAP1 DUP1 MLOAD DUP1 SWAP3 PUSH1 0x20 DUP3 ADD PUSH32 0x646174613A6170706C69636174696F6E2F6A736F6E3B6261736536342C000000 SWAP1 MSTORE DUP1 MLOAD SWAP1 DUP2 PUSH1 0x3D DUP5 ADD SWAP2 PUSH1 0x20 ADD SWAP2 PUSH2 0xCA1 SWAP3 PUSH2 0xDDF JUMP JUMPDEST DUP2 ADD SUB PUSH1 0x1D DUP2 ADD DUP4 MSTORE PUSH1 0x3D ADD PUSH2 0xCB7 SWAP1 DUP4 PUSH2 0xE91 JUMP JUMPDEST MLOAD SWAP2 DUP3 SWAP2 PUSH2 0x9F SWAP2 DUP4 PUSH2 0xF8F JUMP JUMPDEST DUP10 MLOAD PUSH2 0xCD0 DUP2 PUSH2 0xE27 JUMP JUMPDEST PUSH1 0x5 DUP2 MSTORE PUSH5 0x66616C7365 PUSH1 0xD8 SHL PUSH1 0x20 DUP3 ADD MSTORE SWAP7 PUSH2 0x8BF JUMP JUMPDEST DUP9 MLOAD PUSH2 0xCF3 DUP2 PUSH2 0xE27 JUMP JUMPDEST PUSH1 0x1 DUP2 MSTORE PUSH1 0x17 PUSH1 0xF9 SHL PUSH1 0x20 DUP3 ADD MSTORE SWAP13 PUSH2 0x796 JUMP JUMPDEST SWAP9 PUSH1 0x1 ADD SWAP9 PUSH2 0x6BF JUMP JUMPDEST SWAP9 SWAP1 PUSH1 0x64 PUSH1 0x2 SWAP2 DIV SWAP2 ADD SWAP9 PUSH2 0x6B4 JUMP JUMPDEST PUSH1 0x4 SWAP2 SWAP11 SWAP3 DIV SWAP2 ADD SWAP9 CODESIZE PUSH2 0x6A9 JUMP JUMPDEST PUSH1 0x8 SWAP2 SWAP11 SWAP3 DIV SWAP2 ADD SWAP9 CODESIZE PUSH2 0x69C JUMP JUMPDEST PUSH1 0x10 SWAP2 SWAP11 SWAP3 DIV SWAP2 ADD SWAP9 CODESIZE PUSH2 0x68D JUMP JUMPDEST PUSH1 0x20 SWAP2 SWAP11 SWAP3 DIV SWAP2 ADD SWAP9 CODESIZE PUSH2 0x67B JUMP JUMPDEST DUP13 SWAP12 POP DIV SWAP2 POP CODESIZE DUP1 PUSH2 0x661 JUMP JUMPDEST POP CALLVALUE PUSH2 0xA3 JUMPI PUSH1 0x20 CALLDATASIZE PUSH1 0x3 NOT ADD SLT PUSH2 0xA3 JUMPI PUSH1 0x4 CALLDATALOAD SWAP2 PUSH1 0x1 PUSH1 0x1 PUSH1 0xE8 SHL SUB NOT DUP4 AND DUP4 SUB PUSH2 0x602 JUMPI POP PUSH2 0x8C PUSH2 0x9F SWAP3 PUSH2 0x1061 JUMP JUMPDEST POP CALLVALUE PUSH2 0xA3 JUMPI DUP2 PUSH1 0x3 NOT CALLDATASIZE ADD SLT PUSH2 0xA3 JUMPI PUSH2 0x9F SWAP1 PUSH2 0xDBB PUSH2 0x259F JUMP JUMPDEST PUSH2 0xDD1 DUP4 SWAP5 SWAP3 SWAP5 MLOAD SWAP5 DUP5 DUP7 SWAP6 DUP7 MSTORE DUP6 ADD SWAP1 PUSH2 0xE02 JUMP JUMPDEST SWAP1 DUP4 DUP3 SUB PUSH1 0x20 DUP6 ADD MSTORE PUSH2 0xE02 JUMP JUMPDEST PUSH1 0x0 JUMPDEST DUP4 DUP2 LT PUSH2 0xDF2 JUMPI POP POP PUSH1 0x0 SWAP2 ADD MSTORE JUMP JUMPDEST DUP2 DUP2 ADD MLOAD DUP4 DUP3 ADD MSTORE PUSH1 0x20 ADD PUSH2 0xDE2 JUMP JUMPDEST SWAP1 PUSH1 0x20 SWAP2 PUSH2 0xE1B DUP2 MLOAD DUP1 SWAP3 DUP2 DUP6 MSTORE DUP6 DUP1 DUP7 ADD SWAP2 ADD PUSH2 0xDDF JUMP JUMPDEST PUSH1 0x1F ADD PUSH1 0x1F NOT AND ADD ADD SWAP1 JUMP JUMPDEST PUSH1 0x40 DUP2 ADD SWAP1 DUP2 LT PUSH8 0xFFFFFFFFFFFFFFFF DUP3 GT OR PUSH2 0xE43 JUMPI PUSH1 0x40 MSTORE JUMP JUMPDEST PUSH4 0x4E487B71 PUSH1 0xE0 SHL PUSH1 0x0 MSTORE PUSH1 0x41 PUSH1 0x4 MSTORE PUSH1 0x24 PUSH1 0x0 REVERT JUMPDEST PUSH1 0x60 DUP2 ADD SWAP1 DUP2 LT PUSH8 0xFFFFFFFFFFFFFFFF DUP3 GT OR PUSH2 0xE43 JUMPI PUSH1 0x40 MSTORE JUMP JUMPDEST PUSH1 0x20 DUP2 ADD SWAP1 DUP2 LT PUSH8 0xFFFFFFFFFFFFFFFF DUP3 GT OR PUSH2 0xE43 JUMPI PUSH1 0x40 MSTORE JUMP JUMPDEST SWAP1 PUSH1 0x1F DUP1 NOT SWAP2 ADD AND DUP2 ADD SWAP1 DUP2 LT PUSH8 0xFFFFFFFFFFFFFFFF DUP3 GT OR PUSH2 0xE43 JUMPI PUSH1 0x40 MSTORE JUMP JUMPDEST PUSH8 0xFFFFFFFFFFFFFFFF DUP2 GT PUSH2 0xE43 JUMPI PUSH1 0x1F ADD PUSH1 0x1F NOT AND PUSH1 0x20 ADD SWAP1 JUMP JUMPDEST DUP2 PUSH1 0x1F DUP3 ADD SLT ISZERO PUSH2 0xF16 JUMPI DUP1 CALLDATALOAD SWAP1 PUSH2 0xEE6 DUP3 PUSH2 0xEB3 JUMP JUMPDEST SWAP3 PUSH2 0xEF4 PUSH1 0x40 MLOAD SWAP5 DUP6 PUSH2 0xE91 JUMP JUMPDEST DUP3 DUP5 MSTORE PUSH1 0x20 DUP4 DUP4 ADD ADD GT PUSH2 0xF16 JUMPI DUP2 PUSH1 0x0 SWAP3 PUSH1 0x20 DUP1 SWAP4 ADD DUP4 DUP7 ADD CALLDATACOPY DUP4 ADD ADD MSTORE SWAP1 JUMP JUMPDEST PUSH1 0x0 DUP1 REVERT JUMPDEST PUSH1 0xE0 PUSH1 0x3 NOT DUP3 ADD SLT PUSH2 0xF16 JUMPI PUSH1 0x4 CALLDATALOAD SWAP2 PUSH8 0xFFFFFFFFFFFFFFFF PUSH1 0x24 CALLDATALOAD DUP2 DUP2 GT PUSH2 0xF16 JUMPI DUP4 PUSH2 0xF4B SWAP2 PUSH1 0x4 ADD PUSH2 0xECF JUMP JUMPDEST SWAP3 PUSH1 0x44 CALLDATALOAD PUSH1 0x1 PUSH1 0x1 PUSH1 0xE8 SHL SUB NOT DUP2 AND DUP2 SUB PUSH2 0xF16 JUMPI SWAP3 PUSH1 0x64 CALLDATALOAD SWAP3 PUSH1 0x84 CALLDATALOAD SWAP3 PUSH1 0xA4 CALLDATALOAD SWAP2 DUP3 GT PUSH2 0xF16 JUMPI PUSH2 0xF7F SWAP2 PUSH1 0x4 ADD PUSH2 0xECF JUMP JUMPDEST SWAP1 PUSH1 0xC4 CALLDATALOAD DUP1 ISZERO ISZERO DUP2 SUB PUSH2 0xF16 JUMPI SWAP1 JUMP JUMPDEST SWAP1 SWAP2 PUSH2 0xFA6 PUSH2 0xFB4 SWAP4 PUSH1 0x40 DUP5 MSTORE PUSH1 0x40 DUP5 ADD SWAP1 PUSH2 0xE02 JUMP JUMPDEST SWAP2 PUSH1 0x20 DUP2 DUP5 SUB SWAP2 ADD MSTORE PUSH2 0xE02 JUMP JUMPDEST SWAP1 JUMP JUMPDEST PUSH1 0x40 MLOAD SWAP1 PUSH2 0xFC4 DUP3 PUSH2 0xE27 JUMP JUMPDEST PUSH1 0x10 DUP3 MSTORE PUSH16 0x181899199A1A9B1B9C1CB0B131B232B3 PUSH1 0x81 SHL PUSH1 0x20 DUP4 ADD MSTORE JUMP JUMPDEST SWAP1 PUSH2 0xFED DUP3 PUSH2 0xEB3 JUMP JUMPDEST PUSH2 0xFFA PUSH1 0x40 MLOAD SWAP2 DUP3 PUSH2 0xE91 JUMP JUMPDEST DUP3 DUP2 MSTORE DUP1 SWAP3 PUSH2 0x100B PUSH1 0x1F NOT SWAP2 PUSH2 0xEB3 JUMP JUMPDEST ADD SWAP1 PUSH1 0x20 CALLDATASIZE SWAP2 ADD CALLDATACOPY JUMP JUMPDEST PUSH1 0x0 NOT DUP2 EQ PUSH2 0x1024 JUMPI PUSH1 0x1 ADD SWAP1 JUMP JUMPDEST PUSH4 0x4E487B71 PUSH1 0xE0 SHL PUSH1 0x0 MSTORE PUSH1 0x11 PUSH1 0x4 MSTORE PUSH1 0x24 PUSH1 0x0 REVERT JUMPDEST SWAP1 DUP2 MLOAD DUP2 LT ISZERO PUSH2 0x104B JUMPI ADD PUSH1 0x20 ADD SWAP1 JUMP JUMPDEST PUSH4 0x4E487B71 PUSH1 0xE0 SHL PUSH1 0x0 MSTORE PUSH1 0x32 PUSH1 0x4 MSTORE PUSH1 0x24 PUSH1 0x0 REVERT JUMPDEST PUSH2 0x1069 PUSH2 0xFB7 JUMP JUMPDEST PUSH1 0x40 MLOAD SWAP2 PUSH2 0x1076 DUP4 PUSH2 0xE27 JUMP JUMPDEST PUSH1 0x6 DUP4 MSTORE PUSH1 0x20 CALLDATASIZE DUP2 DUP6 ADD CALLDATACOPY PUSH1 0x0 JUMPDEST PUSH1 0x3 DUP2 LT PUSH2 0x1092 JUMPI POP POP POP SWAP1 JUMP JUMPDEST PUSH1 0x1 PUSH1 0x1 PUSH1 0xF8 SHL SUB NOT DUP3 DUP3 BYTE PUSH1 0x4 DUP3 PUSH2 0x10B0 DUP4 DUP4 SHR PUSH1 0xFF AND DUP9 PUSH2 0x103A JUMP JUMPDEST MLOAD AND SWAP3 PUSH1 0x1 SWAP3 DUP6 DUP5 SHL SWAP5 DUP7 DUP7 DIV PUSH1 0x2 EQ DUP8 ISZERO OR ISZERO PUSH2 0x111E JUMPI PUSH2 0x10E4 SWAP2 PUSH1 0xF SWAP2 PUSH1 0x0 BYTE PUSH2 0x10DC DUP9 DUP14 PUSH2 0x103A JUMP JUMPDEST MSTORE8 AND DUP9 PUSH2 0x103A JUMP JUMPDEST MLOAD AND SWAP2 DUP4 ADD DUP1 SWAP4 GT PUSH2 0x1109 JUMPI POP SWAP1 PUSH2 0x167 PUSH2 0x1104 SWAP4 SWAP3 PUSH1 0x0 BYTE SWAP2 DUP8 PUSH2 0x103A JUMP JUMPDEST PUSH2 0x1084 JUMP JUMPDEST PUSH1 0x11 SWAP1 PUSH4 0x4E487B71 PUSH1 0xE0 SHL PUSH1 0x0 MSTORE MSTORE PUSH1 0x24 PUSH1 0x0 REVERT JUMPDEST PUSH1 0x11 DUP5 PUSH4 0x4E487B71 PUSH1 0xE0 SHL PUSH1 0x0 MSTORE MSTORE PUSH1 0x24 PUSH1 0x0 REVERT JUMPDEST DUP1 ISZERO PUSH2 0x11AD JUMPI DUP1 DUP2 PUSH1 0x0 SWAP3 JUMPDEST PUSH2 0x1199 JUMPI POP PUSH2 0x114D DUP3 PUSH2 0xFE3 JUMP JUMPDEST SWAP2 SWAP1 DUP1 JUMPDEST PUSH2 0x115A JUMPI POP POP SWAP1 JUMP JUMPDEST PUSH1 0xA SWAP1 PUSH1 0x30 SWAP3 DUP3 DUP3 MOD DUP5 ADD DUP1 SWAP5 GT PUSH2 0x1024 JUMPI DUP1 ISZERO PUSH2 0x1024 JUMPI PUSH1 0x0 NOT ADD SWAP3 PUSH1 0xF8 SHL PUSH1 0x1 PUSH1 0x1 PUSH1 0xF8 SHL SUB NOT AND PUSH1 0x0 BYTE PUSH2 0x1191 DUP5 DUP7 PUSH2 0x103A JUMP JUMPDEST MSTORE8 DIV DUP1 PUSH2 0x1151 JUMP JUMPDEST SWAP2 PUSH2 0x11A5 PUSH1 0xA SWAP2 PUSH2 0x1015 JUMP JUMPDEST SWAP3 DIV DUP1 PUSH2 0x113F JUMP JUMPDEST POP PUSH1 0x40 MLOAD PUSH2 0x11BA DUP2 PUSH2 0xE27 JUMP JUMPDEST PUSH1 0x1 DUP2 MSTORE PUSH1 0x3 PUSH1 0xFC SHL PUSH1 0x20 DUP3 ADD MSTORE SWAP1 JUMP JUMPDEST PUSH1 0x40 MLOAD SWAP1 PUSH2 0x11D8 DUP3 PUSH2 0xE27 JUMP JUMPDEST PUSH1 0x5 DUP3 MSTORE PUSH5 0x33B932B2B7 PUSH1 0xD9 SHL PUSH1 0x20 DUP4 ADD MSTORE JUMP JUMPDEST PUSH1 0x40 MLOAD SWAP1 PUSH2 0x11F9 DUP3 PUSH2 0xE27 JUMP JUMPDEST PUSH1 0x4 DUP3 MSTORE PUSH4 0x626C7565 PUSH1 0xE0 SHL PUSH1 0x20 DUP4 ADD MSTORE JUMP JUMPDEST PUSH1 0x40 MLOAD SWAP1 PUSH2 0x1219 DUP3 PUSH2 0xE27 JUMP JUMPDEST PUSH1 0x3 DUP3 MSTORE PUSH3 0x1C9959 PUSH1 0xEA SHL PUSH1 0x20 DUP4 ADD MSTORE JUMP JUMPDEST PUSH1 0x40 MLOAD SWAP1 PUSH2 0x1238 DUP3 PUSH2 0xE27 JUMP JUMPDEST PUSH1 0x6 DUP3 MSTORE PUSH6 0x707572706C65 PUSH1 0xD0 SHL PUSH1 0x20 DUP4 ADD MSTORE JUMP JUMPDEST PUSH1 0x40 MLOAD SWAP1 PUSH2 0x125A DUP3 PUSH2 0xE27 JUMP JUMPDEST PUSH1 0x6 DUP3 MSTORE PUSH6 0x79656C6C6F77 PUSH1 0xD0 SHL PUSH1 0x20 DUP4 ADD MSTORE JUMP JUMPDEST PUSH1 0x40 MLOAD SWAP1 PUSH2 0x127C DUP3 PUSH2 0xE27 JUMP JUMPDEST PUSH1 0x7 DUP3 MSTORE PUSH7 0x2330306666303 PUSH1 0xCC SHL PUSH1 0x20 DUP4 ADD MSTORE JUMP JUMPDEST SWAP5 SWAP6 SWAP5 SWAP3 SWAP4 SWAP2 DUP6 ISZERO PUSH2 0x2430 JUMPI DUP2 MLOAD PUSH1 0x20 SWAP3 DUP4 DUP2 ADD SWAP2 DUP3 KECCAK256 PUSH2 0x12B1 PUSH2 0x11CB JUMP JUMPDEST DUP1 MLOAD SWAP1 DUP7 ADD KECCAK256 SUB PUSH2 0x2318 JUMPI POP POP POP POP PUSH2 0x12C8 PUSH2 0x126F JUMP JUMPDEST SWAP6 JUMPDEST PUSH1 0x3 PUSH1 0x40 MLOAD PUSH1 0x20 DUP2 ADD SWAP1 DUP6 DUP3 MSTORE PUSH6 0xDAC2E8E4D2F PUSH1 0xD3 SHL PUSH1 0x40 DUP3 ADD MSTORE PUSH1 0x26 DUP2 MSTORE PUSH2 0x12F3 DUP2 PUSH2 0xE59 JUMP JUMPDEST MLOAD SWAP1 KECCAK256 DUP7 ISZERO PUSH2 0x2311 JUMPI DUP2 AND LT JUMPDEST DUP6 ISZERO PUSH2 0x2303 JUMPI PUSH1 0x40 MLOAD PUSH2 0x1312 DUP2 PUSH2 0xE27 JUMP JUMPDEST PUSH1 0x7 DUP2 MSTORE PUSH7 0x11B33318183333 PUSH1 0xC9 SHL PUSH1 0x20 DUP3 ADD MSTORE SWAP1 JUMPDEST DUP6 PUSH1 0x9 MUL SWAP6 PUSH1 0x9 DUP8 DIV DUP2 SUB PUSH2 0x1024 JUMPI PUSH2 0x32A SWAP8 DUP9 DUP9 DUP2 SUB GT PUSH2 0x1024 JUMPI PUSH1 0x0 DUP4 ISZERO PUSH2 0x22EE JUMPI POP PUSH1 0x40 MLOAD PUSH32 0x3C66696C7465722069643D226D61747269782D676C6F772220783D222D323025 PUSH1 0x20 DUP3 ADD MSTORE PUSH32 0x2220793D222D323025222077696474683D223134302522206865696768743D22 PUSH1 0x40 DUP3 ADD MSTORE PUSH6 0x189A1812911F PUSH1 0xD1 SHL PUSH1 0x60 DUP3 ADD MSTORE PUSH32 0x3C6665476175737369616E426C757220737464446576696174696F6E3D223322 PUSH1 0x66 DUP3 ADD MSTORE PUSH16 0x103932B9BAB63A1E9131363AB911179F PUSH1 0x81 SHL PUSH1 0x86 DUP3 ADD MSTORE PUSH2 0x14F9 PUSH1 0xAD DUP3 PUSH2 0x13FC PUSH1 0x96 DUP3 ADD PUSH2 0x252E JUMP JUMPDEST PUSH9 0x1E17B334B63A32B91F PUSH1 0xB9 SHL DUP2 MSTORE PUSH32 0x3C6C696E6561724772616469656E742069643D226D61747269782D6267222078 PUSH1 0x9 DUP3 ADD MSTORE PUSH32 0x313D223025222079313D223025222078323D223025222079323D223130302522 PUSH1 0x29 DUP3 ADD MSTORE PUSH1 0x1F PUSH1 0xF9 SHL PUSH1 0x49 DUP3 ADD MSTORE PUSH32 0x3C73746F70206F66667365743D223025222073746F702D636F6C6F723D222330 PUSH1 0x4A DUP3 ADD MSTORE PUSH8 0x18181C181811179F PUSH1 0xC1 SHL PUSH1 0x6A DUP3 ADD MSTORE PUSH32 0x3C73746F70206F66667365743D2231303025222073746F702D636F6C6F723D22 PUSH1 0x72 DUP3 ADD MSTORE PUSH10 0x1198181898181811179F PUSH1 0xB1 SHL PUSH1 0x92 DUP3 ADD MSTORE PUSH17 0x1E17B634B732B0B923B930B234B2B73A1F PUSH1 0x79 SHL PUSH1 0x9C DUP3 ADD MSTORE SUB PUSH1 0x8D DUP2 ADD DUP5 MSTORE ADD DUP3 PUSH2 0xE91 JUMP JUMPDEST SWAP3 JUMPDEST PUSH1 0x0 SWAP1 ISZERO PUSH2 0x2257 JUMPI POP PUSH1 0x40 MLOAD PUSH2 0x1510 DUP2 PUSH2 0xE27 JUMP JUMPDEST PUSH1 0x18 DUP2 MSTORE PUSH32 0x3C6720636C6173733D226D61747269782D6368617273223E0000000000000000 PUSH1 0x20 DUP3 ADD MSTORE SWAP6 PUSH1 0x40 MLOAD SWAP10 PUSH2 0x1E0 DUP1 DUP13 ADD DUP13 DUP2 LT PUSH8 0xFFFFFFFFFFFFFFFF DUP3 GT OR PUSH2 0xE43 JUMPI PUSH1 0x40 MSTORE CALLDATASIZE DUP13 CALLDATACOPY PUSH1 0x0 JUMPDEST PUSH1 0xFF SWAP1 DUP2 DUP2 AND SWAP2 PUSH1 0xF DUP4 LT ISZERO PUSH2 0x15C6 JUMPI PUSH2 0x17C DUP13 PUSH1 0x40 MLOAD PUSH1 0x20 DUP2 ADD SWAP2 DUP3 MSTORE PUSH1 0xFF PUSH1 0xF8 SHL DUP6 PUSH1 0xF8 SHL AND PUSH1 0x40 DUP3 ADD MSTORE PUSH1 0x21 DUP2 MSTORE PUSH2 0x159B DUP2 PUSH2 0xE59 JUMP JUMPDEST MLOAD SWAP1 KECCAK256 MOD PUSH1 0xA DUP2 ADD DUP1 SWAP2 GT PUSH2 0x1024 JUMPI PUSH2 0x15C1 SWAP4 DUP16 SWAP3 PUSH2 0x15BB SWAP3 AND SWAP3 PUSH2 0x258E JUMP JUMPDEST MSTORE PUSH2 0x257D JUMP JUMPDEST PUSH2 0x1561 JUMP JUMPDEST POP POP POP SWAP2 SWAP4 SWAP6 SWAP8 SWAP10 SWAP12 SWAP1 SWAP3 SWAP5 SWAP7 SWAP9 SWAP11 PUSH1 0xFF SWAP12 PUSH1 0xF PUSH1 0x0 SWAP14 DUP15 JUMPDEST AND LT ISZERO PUSH2 0x182E JUMPI PUSH1 0x0 DUP15 JUMPDEST PUSH1 0x8 PUSH1 0xFF DUP4 AND LT PUSH2 0x160B JUMPI POP POP PUSH1 0xF PUSH2 0x1604 PUSH1 0xFF SWAP15 PUSH2 0x257D JUMP JUMPDEST SWAP14 DUP15 PUSH2 0x15DF JUMP JUMPDEST SWAP1 SWAP12 DUP13 DUP16 SWAP2 DUP16 SWAP1 PUSH1 0x40 MLOAD PUSH1 0x20 DUP2 ADD SWAP4 DUP4 DUP6 MSTORE PUSH1 0xFF PUSH1 0xF8 SHL PUSH1 0xF8 SWAP3 PUSH2 0x17C DUP3 DUP1 DUP11 DUP8 SHL AND SWAP5 DUP6 PUSH1 0x40 DUP6 ADD MSTORE DUP7 SHL AND SWAP8 PUSH1 0x41 SWAP3 DUP10 DUP5 DUP3 ADD MSTORE PUSH1 0x22 DUP2 MSTORE PUSH2 0x164E DUP2 PUSH2 0xE59 JUMP JUMPDEST MLOAD SWAP1 KECCAK256 MOD SWAP8 PUSH1 0xA SWAP10 DUP11 DUP11 ADD DUP1 SWAP11 GT PUSH2 0x1024 JUMPI PUSH4 0x31B430B9 PUSH1 0xE1 SHL SWAP11 PUSH1 0x40 MLOAD PUSH1 0x20 DUP2 ADD SWAP1 DUP11 DUP3 MSTORE DUP8 PUSH1 0x40 DUP3 ADD MSTORE DUP12 DUP7 DUP3 ADD MSTORE PUSH1 0x42 SWAP14 DUP15 DUP3 ADD MSTORE PUSH1 0x26 DUP2 MSTORE PUSH2 0x1693 DUP2 PUSH2 0xE59 JUMP JUMPDEST MLOAD SWAP1 KECCAK256 MOD SWAP3 PUSH1 0x30 DUP5 ADD DUP1 SWAP5 GT PUSH2 0x1024 JUMPI PUSH1 0xFF PUSH2 0x1712 DUP2 PUSH2 0x170B PUSH2 0x1828 SWAP16 SWAP6 DUP3 PUSH2 0x1822 SWAP16 PUSH1 0x67 SWAP16 PUSH1 0x5 SWAP1 PUSH7 0x1E17BA32BC3A1F PUSH1 0xC9 SHL SWAP15 PUSH5 0x64656C6179 PUSH1 0xD8 SHL PUSH2 0x1719 SWAP13 DUP7 SWAP6 PUSH2 0x203 SWAP14 PUSH1 0x40 MLOAD SWAP5 PUSH1 0x20 DUP7 ADD SWAP7 DUP8 MSTORE PUSH1 0x40 DUP7 ADD MSTORE DUP5 ADD MSTORE DUP3 ADD MSTORE PUSH1 0x27 DUP2 MSTORE PUSH2 0x16FE DUP2 PUSH2 0xE59 JUMP JUMPDEST MLOAD SWAP1 KECCAK256 MOD AND SWAP9 AND SWAP1 PUSH2 0x258E JUMP JUMPDEST MLOAD AND PUSH2 0x1133 JUMP JUMPDEST SWAP12 AND PUSH2 0x1133 JUMP JUMPDEST SWAP3 PUSH1 0x40 MLOAD SWAP3 PUSH1 0x20 DUP5 ADD SWAP7 SHL AND DUP6 MSTORE PUSH1 0x1 DUP3 MSTORE PUSH2 0x1734 DUP3 PUSH2 0xE27 JUMP JUMPDEST PUSH32 0x2220636C6173733D226D61747269782D6368617222207374796C653D22616E69 PUSH1 0x40 MLOAD SWAP10 DUP8 PUSH2 0x176E DUP13 SWAP10 MLOAD DUP1 SWAP3 PUSH1 0x20 DUP1 DUP14 ADD SWAP2 ADD PUSH2 0xDDF JUMP JUMPDEST DUP9 ADD PUSH9 0x1E3A32BC3A103C1E91 PUSH1 0xB9 SHL PUSH1 0x20 DUP3 ADD MSTORE DUP2 MLOAD SWAP1 PUSH2 0x1798 DUP3 PUSH1 0x29 SWAP5 PUSH1 0x20 DUP7 DUP6 ADD SWAP2 ADD PUSH2 0xDDF JUMP JUMPDEST ADD SWAP1 PUSH5 0x11103C9E91 PUSH1 0xD9 SHL SWAP1 DUP3 ADD MSTORE DUP3 MLOAD SWAP1 PUSH2 0x17BD DUP3 PUSH1 0x2E SWAP6 PUSH1 0x20 DUP8 DUP6 ADD SWAP2 ADD PUSH2 0xDDF JUMP JUMPDEST ADD SWAP2 DUP3 ADD MSTORE PUSH14 0x36B0BA34B7B716B232B630BC9D1 PUSH1 0x95 SHL PUSH1 0x4E DUP3 ADD MSTORE DUP3 MLOAD SWAP1 PUSH2 0x17EF DUP3 PUSH1 0x5C SWAP6 PUSH1 0x20 DUP8 DUP6 ADD SWAP2 ADD PUSH2 0xDDF JUMP JUMPDEST ADD SWAP2 PUSH4 0x399D911F PUSH1 0xE1 SHL SWAP1 DUP4 ADD MSTORE MLOAD SWAP1 PUSH2 0x180F DUP3 PUSH1 0x60 SWAP6 DUP7 DUP5 ADD SWAP1 PUSH2 0xDDF JUMP JUMPDEST ADD SWAP2 DUP3 ADD MSTORE SUB PUSH1 0x47 DUP2 ADD DUP5 MSTORE ADD DUP3 PUSH2 0xE91 JUMP JUMPDEST SWAP12 PUSH2 0x257D JUMP JUMPDEST DUP15 PUSH2 0x15EA JUMP JUMPDEST PUSH32 0x2032333522207374726F6B653D22626C61636B22207374726F6B652D77696474 SWAP6 SWAP7 SWAP8 SWAP9 SWAP10 SWAP14 POP PUSH32 0x3B206F7061636974793A20302E333B20616E696D6174696F6E3A206661646520 SWAP13 POP PUSH2 0xFB4 SWAP12 POP SWAP1 PUSH2 0x18FE PUSH2 0x18F8 PUSH1 0xB PUSH32 0x3C6720636C6173733D226C6F6F6769652D636F6E7461696E6572223E00000000 SWAP5 PUSH2 0x18F0 PUSH2 0x5AB SWAP16 PUSH2 0x18EA PUSH1 0x24 PUSH1 0x40 MLOAD DUP4 PUSH2 0x18CD DUP3 SWAP6 MLOAD DUP1 SWAP3 PUSH1 0x20 DUP1 DUP7 ADD SWAP2 ADD PUSH2 0xDDF JUMP JUMPDEST DUP2 ADD PUSH4 0x1E17B39F PUSH1 0xE1 SHL PUSH1 0x20 DUP3 ADD MSTORE SUB PUSH1 0x4 DUP2 ADD DUP5 MSTORE ADD DUP3 PUSH2 0xE91 JUMP JUMPDEST SWAP13 PUSH2 0x1133 JUMP JUMPDEST SWAP8 SUB DIV PUSH2 0x1133 JUMP JUMPDEST SWAP6 PUSH2 0x1133 JUMP JUMPDEST DUP2 MLOAD SWAP1 SWAP8 SWAP1 PUSH1 0x0 SWAP1 ISZERO PUSH2 0x223F JUMPI POP ISZERO PUSH2 0x218A JUMPI PUSH2 0x19BA PUSH1 0x7D PUSH1 0x40 MLOAD DUP1 SWAP4 PUSH32 0x3C7465787420783D223230302220793D223330302220636C6173733D22757365 PUSH1 0x20 DUP4 ADD MSTORE PUSH32 0x726E616D6522207374796C653D22666F6E742D66616D696C793A2027436F6D69 PUSH1 0x40 DUP4 ADD MSTORE PUSH22 0x319029B0B7399026A993961031BAB939B4BB329D911F PUSH1 0x51 SHL PUSH1 0x60 DUP4 ADD MSTORE PUSH2 0x199A DUP2 MLOAD DUP1 SWAP3 PUSH1 0x20 PUSH1 0x76 DUP7 ADD SWAP2 ADD PUSH2 0xDDF JUMP JUMPDEST DUP2 ADD PUSH7 0x1E17BA32BC3A1F PUSH1 0xC9 SHL PUSH1 0x76 DUP3 ADD MSTORE SUB PUSH1 0x5D DUP2 ADD DUP5 MSTORE ADD DUP3 PUSH2 0xE91 JUMP JUMPDEST SWAP8 JUMPDEST PUSH7 0x1E17B232B3399F PUSH1 0xC9 SHL PUSH1 0x40 MLOAD DUP1 SWAP15 DUP2 SWAP13 PUSH32 0x3C73766720786D6C6E733D22687474703A2F2F7777772E77332E6F72672F3230 PUSH1 0x20 DUP5 ADD MSTORE PUSH32 0x30302F737667222076696577426F783D22302030203430302034303022207769 PUSH1 0x40 DUP5 ADD MSTORE PUSH32 0x6474683D2234303022206865696768743D22343030223E000000000000000000 PUSH1 0x60 DUP5 ADD MSTORE PUSH6 0x1E3232B3399F PUSH1 0xD1 SHL PUSH1 0x77 DUP5 ADD MSTORE PUSH7 0x1E39BA3CB6329F PUSH1 0xC9 SHL PUSH1 0x7D DUP5 ADD MSTORE PUSH32 0x40696D706F72742075726C282268747470733A2F2F666F6E74732E676F6F676C PUSH1 0x84 DUP5 ADD MSTORE PUSH32 0x65617069732E636F6D2F637373323F66616D696C793D436F6D69632B53616E73 PUSH1 0xA4 DUP5 ADD MSTORE PUSH32 0x2B4D5326616D703B646973706C61793D7377617022293B000000000000000000 PUSH1 0xC4 DUP5 ADD MSTORE PUSH32 0x2E757365726E616D65207B20666F6E742D66616D696C793A2022436F6D696320 PUSH1 0xDB DUP5 ADD MSTORE PUSH32 0x53616E73204D53222C20637572736976653B20666F6E742D73697A653A203136 PUSH1 0xFB DUP5 ADD MSTORE PUSH32 0x70783B2066696C6C3A2077686974653B20746578742D616E63686F723A206D69 PUSH2 0x11B DUP5 ADD MSTORE PUSH7 0x64646C653B207D PUSH1 0xC8 SHL PUSH2 0x13B DUP5 ADD MSTORE PUSH32 0x2E6D61747269782D63686172207B20666F6E742D66616D696C793A206D6F6E6F PUSH2 0x142 DUP5 ADD MSTORE PUSH13 0x39B830B1B29D903334B6361D1 PUSH1 0x9D SHL PUSH2 0x162 DUP5 ADD MSTORE PUSH2 0x1BA9 DUP2 MLOAD DUP1 SWAP3 PUSH1 0x20 PUSH2 0x16F DUP1 SWAP8 ADD SWAP2 ADD PUSH2 0xDDF JUMP JUMPDEST DUP14 ADD SWAP2 DUP3 ADD MSTORE PUSH32 0x337320696E66696E6974652C2066616C6C203873206C696E65617220696E6669 PUSH2 0x18F DUP3 ADD MSTORE PUSH7 0x6E6974653B207D PUSH1 0xC8 SHL PUSH2 0x1AF DUP3 ADD MSTORE PUSH32 0x406B65796672616D65732066616465207B203025207B206F7061636974793A20 PUSH2 0x1B6 DUP3 ADD MSTORE PUSH32 0x302E323B207D20333025207B206F7061636974793A20302E393B207D20373025 PUSH2 0x1D6 DUP3 ADD MSTORE PUSH32 0x207B206F7061636974793A20302E393B207D2031303025207B206F7061636974 PUSH2 0x1F6 DUP3 ADD MSTORE PUSH11 0x793A20302E323B207D207D PUSH1 0xA8 SHL PUSH2 0x216 DUP3 ADD MSTORE PUSH32 0x406B65796672616D65732066616C6C207B2066726F6D207B207472616E73666F PUSH2 0x221 DUP3 ADD MSTORE PUSH32 0x726D3A207472616E736C61746559282D32307078293B207D20746F207B207472 PUSH2 0x241 DUP3 ADD MSTORE PUSH32 0x616E73666F726D3A207472616E736C61746559283432307078293B207D207D00 PUSH2 0x261 DUP3 ADD MSTORE PUSH8 0x1E17B9BA3CB6329F PUSH1 0xC1 SHL PUSH2 0x280 DUP3 ADD MSTORE DUP3 MLOAD SWAP1 PUSH2 0x1D0F DUP3 PUSH2 0x288 SWAP6 PUSH1 0x20 DUP8 DUP6 ADD SWAP2 ADD PUSH2 0xDDF JUMP JUMPDEST ADD SWAP2 DUP3 ADD MSTORE PUSH32 0x3C726563742077696474683D2234303022206865696768743D22343030222066 PUSH2 0x28F DUP3 ADD MSTORE PUSH13 0x34B6361E91313630B1B591179F PUSH1 0x99 SHL PUSH2 0x2AF DUP3 ADD MSTORE DUP8 MLOAD SWAP1 PUSH2 0x1D69 DUP3 PUSH2 0x2BC SWAP11 PUSH1 0x20 DUP13 DUP6 ADD SWAP2 ADD PUSH2 0xDDF JUMP JUMPDEST ADD SWAP7 DUP8 ADD MSTORE PUSH13 0x1E339034B21E9132BCB298911F PUSH1 0x99 SHL PUSH2 0x2D8 DUP8 ADD MSTORE PUSH32 0x3C656C6C69707365207374726F6B652D77696474683D2233222072793D223239 DUP1 PUSH2 0x2E5 DUP9 ADD MSTORE PUSH32 0x2E35222072783D2232392E35222069643D227376675F31222063793D22313534 PUSH2 0x305 DUP9 ADD MSTORE PUSH32 0x2E35222063783D223138312E3522207374726F6B653D2223303030222066696C PUSH2 0x325 DUP9 ADD MSTORE PUSH32 0x222072793D2235312E383030363522207374726F6B653D2223303030222F3E00 PUSH10 0x361E9111B3333311179F PUSH1 0xB1 SHL SWAP3 DUP4 PUSH2 0x345 DUP11 ADD MSTORE PUSH32 0x3C656C6C697073652072793D22332E35222072783D22322E35222069643D2273 PUSH2 0x34F DUP11 ADD MSTORE PUSH32 0x76675F33222063793D223135342E35222063783D223137332E3522207374726F PUSH2 0x36F DUP11 ADD MSTORE PUSH32 0x6B652D77696474683D223322207374726F6B653D2223303030222066696C6C3D PUSH2 0x38F DUP11 ADD MSTORE PUSH11 0x111198181818181811179F PUSH1 0xA9 SHL PUSH2 0x3AF DUP11 ADD MSTORE PUSH32 0x22207374726F6B652D77696474683D2233222063783D223230342E3522206379 PUSH4 0x1E17B39F PUSH1 0xE1 SHL SWAP10 DUP11 PUSH2 0x3BA DUP3 ADD MSTORE PUSH13 0x1E339034B21E913432B0B2111F PUSH1 0x99 SHL PUSH2 0x3BE DUP3 ADD MSTORE PUSH15 0x1E32B63634B839B2903334B6361E91 PUSH1 0x89 SHL PUSH2 0x3CB DUP3 ADD MSTORE DUP3 MLOAD SWAP1 PUSH2 0x1F34 DUP3 PUSH2 0x3DA SWAP6 PUSH1 0x20 DUP8 DUP6 ADD SWAP2 ADD PUSH2 0xDDF JUMP JUMPDEST ADD SWAP2 DUP3 ADD MSTORE PUSH32 0x3D223231312E3830303635222069643D227376675F35222072783D2200000000 PUSH2 0x3FA DUP3 ADD MSTORE DUP5 MLOAD SWAP1 PUSH2 0x1F77 DUP3 PUSH2 0x416 SWAP8 PUSH1 0x20 DUP10 DUP6 ADD SWAP2 ADD PUSH2 0xDDF JUMP JUMPDEST ADD SWAP4 DUP5 ADD MSTORE DUP7 PUSH2 0x435 DUP5 ADD MSTORE PUSH13 0x1E339034B21E9132BCB299111F PUSH1 0x99 SHL PUSH2 0x439 DUP5 ADD MSTORE PUSH2 0x446 DUP4 ADD MSTORE PUSH32 0x2E35222072783D2232392E35222069643D227376675F32222063793D22313638 PUSH2 0x466 DUP4 ADD MSTORE PUSH32 0x2E35222063783D223230392E3522207374726F6B653D2223303030222066696C PUSH2 0x486 DUP4 ADD MSTORE PUSH2 0x4A6 DUP3 ADD MSTORE PUSH32 0x3C656C6C697073652072793D22332E35222072783D2233222069643D22737667 PUSH2 0x4B0 DUP3 ADD MSTORE PUSH32 0x5F34222063793D223136392E35222063783D2232303822207374726F6B652D77 PUSH2 0x4D0 DUP3 ADD MSTORE PUSH32 0x696474683D2233222066696C6C3D222330303030303022207374726F6B653D22 PUSH2 0x4F0 DUP3 ADD MSTORE PUSH7 0x1198181811179F PUSH1 0xC9 SHL PUSH2 0x510 DUP3 ADD MSTORE DUP5 PUSH2 0x517 DUP3 ADD MSTORE PUSH32 0x3C6720636C6173733D226D6F75746822207472616E73666F726D3D227472616E PUSH2 0x51B DUP3 ADD MSTORE PUSH6 0xE6D8C2E8CA5 PUSH1 0xD3 SHL PUSH2 0x53B DUP3 ADD MSTORE DUP2 MLOAD SWAP1 PUSH2 0x20CF DUP3 PUSH2 0x541 SWAP5 PUSH1 0x20 DUP7 DUP6 ADD SWAP2 ADD PUSH2 0xDDF JUMP JUMPDEST ADD SWAP1 PUSH5 0x161814911F PUSH1 0xD9 SHL SWAP1 DUP3 ADD MSTORE PUSH32 0x3C7061746820643D224D20313330203234302051203136352032353020000000 PUSH2 0x546 DUP3 ADD MSTORE DUP3 MLOAD SWAP1 PUSH2 0x211C DUP3 PUSH2 0x563 SWAP6 PUSH1 0x20 DUP8 DUP6 ADD SWAP2 ADD PUSH2 0xDDF JUMP JUMPDEST ADD SWAP2 DUP3 ADD MSTORE PUSH32 0x683D2233222066696C6C3D227472616E73706172656E74222F3E000000000000 PUSH2 0x583 DUP3 ADD MSTORE DUP2 PUSH2 0x59D DUP3 ADD MSTORE DUP3 MLOAD SWAP1 PUSH2 0x2166 DUP3 PUSH2 0x5A1 SWAP6 PUSH1 0x20 DUP8 DUP6 ADD SWAP2 ADD PUSH2 0xDDF JUMP JUMPDEST ADD SWAP2 DUP3 ADD MSTORE PUSH6 0x1E17B9BB339F PUSH1 0xD1 SHL PUSH2 0x5A5 DUP3 ADD MSTORE SUB PUSH2 0x58B DUP2 ADD DUP5 MSTORE ADD DUP3 PUSH2 0xE91 JUMP JUMPDEST PUSH2 0x223A PUSH1 0x84 PUSH1 0x40 MLOAD DUP1 SWAP4 PUSH32 0x3C7465787420783D223230302220793D223330302220666F6E742D66616D696C PUSH1 0x20 DUP4 ADD MSTORE PUSH32 0x793D22417269616C2220666F6E742D73697A653D223136222066696C6C3D2223 PUSH1 0x40 DUP4 ADD MSTORE PUSH32 0x6666666666662220746578742D616E63686F723D226D6964646C65223E000000 PUSH1 0x60 DUP4 ADD MSTORE PUSH2 0x221A DUP2 MLOAD DUP1 SWAP3 PUSH1 0x20 PUSH1 0x7D DUP7 ADD SWAP2 ADD PUSH2 0xDDF JUMP JUMPDEST DUP2 ADD PUSH7 0x1E17BA32BC3A1F PUSH1 0xC9 SHL PUSH1 0x7D DUP3 ADD MSTORE SUB PUSH1 0x64 DUP2 ADD DUP5 MSTORE ADD DUP3 PUSH2 0xE91 JUMP JUMPDEST PUSH2 0x19BA JUMP JUMPDEST SWAP2 POP POP PUSH1 0x40 MLOAD SWAP1 PUSH2 0x224F DUP3 PUSH2 0xE75 JUMP JUMPDEST DUP2 MSTORE SWAP8 PUSH2 0x19BC JUMP JUMPDEST PUSH2 0xFB4 SWAP10 SWAP2 SWAP5 SWAP8 POP SWAP11 PUSH32 0x3C6720636C6173733D226C6F6F6769652D636F6E7461696E6572223E00000000 PUSH32 0x3B206F7061636974793A20302E333B20616E696D6174696F6E3A206661646520 SWAP12 PUSH2 0x18FE PUSH2 0x18F8 PUSH32 0x2032333522207374726F6B653D22626C61636B22207374726F6B652D77696474 SWAP8 SWAP11 SWAP7 SWAP10 SWAP16 PUSH2 0x5AB SWAP14 PUSH2 0x18F0 PUSH1 0xB SWAP3 PUSH1 0x40 MLOAD SWAP1 PUSH2 0x22E6 DUP3 PUSH2 0xE75 JUMP JUMPDEST DUP2 MSTORE SWAP13 PUSH2 0x1133 JUMP JUMPDEST PUSH1 0x40 MLOAD SWAP1 PUSH2 0x22FB DUP3 PUSH2 0xE75 JUMP JUMPDEST DUP2 MSTORE SWAP3 PUSH2 0x14FB JUMP JUMPDEST PUSH2 0x230B PUSH2 0x126F JUMP JUMPDEST SWAP1 PUSH2 0x1328 JUMP JUMPDEST AND ISZERO PUSH2 0x1300 JUMP JUMPDEST DUP1 MLOAD DUP3 KECCAK256 PUSH2 0x2324 PUSH2 0x11EC JUMP JUMPDEST DUP1 MLOAD SWAP1 DUP7 ADD KECCAK256 SUB PUSH2 0x2357 JUMPI POP POP POP PUSH7 0x11981831B1B333 PUSH1 0xC9 SHL PUSH1 0x40 MLOAD SWAP2 PUSH2 0x234A DUP4 PUSH2 0xE27 JUMP JUMPDEST PUSH1 0x7 DUP4 MSTORE DUP3 ADD MSTORE SWAP6 PUSH2 0x12CA JUMP JUMPDEST DUP1 MLOAD DUP3 KECCAK256 PUSH2 0x2363 PUSH2 0x120C JUMP JUMPDEST DUP1 MLOAD SWAP1 DUP7 ADD KECCAK256 SUB PUSH2 0x2389 JUMPI POP POP POP PUSH7 0x11B33318181B1B PUSH1 0xC9 SHL PUSH1 0x40 MLOAD SWAP2 PUSH2 0x234A DUP4 PUSH2 0xE27 JUMP JUMPDEST DUP1 MLOAD DUP3 KECCAK256 PUSH2 0x2395 PUSH2 0x122B JUMP JUMPDEST DUP1 MLOAD SWAP1 DUP7 ADD KECCAK256 SUB PUSH2 0x23BB JUMPI POP POP POP PUSH7 0x11B1B198183333 PUSH1 0xC9 SHL PUSH1 0x40 MLOAD SWAP2 PUSH2 0x234A DUP4 PUSH2 0xE27 JUMP JUMPDEST MLOAD SWAP1 KECCAK256 PUSH2 0x23C6 PUSH2 0x124D JUMP JUMPDEST DUP1 MLOAD SWAP1 DUP5 ADD KECCAK256 SUB PUSH2 0x23EA JUMPI POP PUSH7 0x2366666363303 PUSH1 0xCC SHL PUSH1 0x40 MLOAD SWAP2 PUSH2 0x234A DUP4 PUSH2 0xE27 JUMP JUMPDEST PUSH1 0x21 PUSH2 0x241A SWAP3 PUSH2 0x23FC PUSH2 0x242A SWAP4 PUSH2 0x1061 JUMP JUMPDEST PUSH1 0x40 MLOAD SWAP5 DUP3 PUSH1 0x23 PUSH1 0xF8 SHL DUP8 SWAP5 DUP6 ADD MSTORE DUP3 MLOAD SWAP3 DUP4 SWAP2 DUP7 DUP7 ADD SWAP2 ADD PUSH2 0xDDF JUMP JUMPDEST DUP2 ADD SUB PUSH1 0x1 DUP2 ADD DUP5 MSTORE ADD DUP3 PUSH2 0xE91 JUMP JUMPDEST SWAP6 PUSH2 0x12CA JUMP JUMPDEST DUP2 MLOAD PUSH1 0x20 SWAP3 DUP4 DUP2 ADD SWAP2 DUP3 KECCAK256 PUSH2 0x2443 PUSH2 0x11CB JUMP JUMPDEST DUP1 MLOAD SWAP1 DUP7 ADD KECCAK256 SUB PUSH2 0x2469 JUMPI POP POP POP PUSH7 0x23613365363335 PUSH1 0xC8 SHL PUSH1 0x40 MLOAD SWAP2 PUSH2 0x234A DUP4 PUSH2 0xE27 JUMP JUMPDEST DUP1 MLOAD DUP3 KECCAK256 PUSH2 0x2475 PUSH2 0x11EC JUMP JUMPDEST DUP1 MLOAD SWAP1 DUP7 ADD KECCAK256 SUB PUSH2 0x249B JUMPI POP POP POP PUSH7 0x1199B11C19331B PUSH1 0xC9 SHL PUSH1 0x40 MLOAD SWAP2 PUSH2 0x234A DUP4 PUSH2 0xE27 JUMP JUMPDEST DUP1 MLOAD DUP3 KECCAK256 PUSH2 0x24A7 PUSH2 0x120C JUMP JUMPDEST DUP1 MLOAD SWAP1 DUP7 ADD KECCAK256 SUB PUSH2 0x24CD JUMPI POP POP POP PUSH7 0x8D9598D0D0D0D PUSH1 0xCA SHL PUSH1 0x40 MLOAD SWAP2 PUSH2 0x234A DUP4 PUSH2 0xE27 JUMP JUMPDEST DUP1 MLOAD DUP3 KECCAK256 PUSH2 0x24D9 PUSH2 0x122B JUMP JUMPDEST DUP1 MLOAD SWAP1 DUP7 ADD KECCAK256 SUB PUSH2 0x24FF JUMPI POP POP POP PUSH7 0x23613835356637 PUSH1 0xC8 SHL PUSH1 0x40 MLOAD SWAP2 PUSH2 0x234A DUP4 PUSH2 0xE27 JUMP JUMPDEST MLOAD SWAP1 KECCAK256 PUSH2 0x250A PUSH2 0x124D JUMP JUMPDEST DUP1 MLOAD SWAP1 DUP5 ADD KECCAK256 SUB PUSH2 0x23EA JUMPI POP PUSH7 0x23666163633135 PUSH1 0xC8 SHL PUSH1 0x40 MLOAD SWAP2 PUSH2 0x234A DUP4 PUSH2 0xE27 JUMP JUMPDEST PUSH32 0x3C6665436F6D706F7369746520696E3D22536F75726365477261706869632220 DUP2 MSTORE PUSH32 0x696E323D22626C757222206F70657261746F723D226F766572222F3E00000000 PUSH1 0x20 DUP3 ADD MSTORE PUSH1 0x3C ADD SWAP1 JUMP JUMPDEST PUSH1 0xFF AND PUSH1 0xFF DUP2 EQ PUSH2 0x1024 JUMPI PUSH1 0x1 ADD SWAP1 JUMP JUMPDEST SWAP1 PUSH1 0xF DUP2 LT ISZERO PUSH2 0x104B JUMPI PUSH1 0x5 SHL ADD SWAP1 JUMP JUMPDEST PUSH1 0x40 DUP1 MLOAD PUSH32 0x3C73766720786D6C6E733D22687474703A2F2F7777772E77332E6F72672F3230 PUSH1 0x20 DUP3 ADD MSTORE PUSH32 0x30302F737667222077696474683D2234303022206865696768743D2234303022 SWAP2 DUP2 ADD SWAP2 SWAP1 SWAP2 MSTORE PUSH32 0x2076696577426F783D223020302034303020343030223E000000000000000000 PUSH1 0x60 DUP3 ADD MSTORE PUSH32 0x3C726563742077696474683D2234303022206865696768743D22343030222066 PUSH1 0x77 DUP3 ADD MSTORE PUSH12 0x34B6361E911198181811179F PUSH1 0xA1 SHL PUSH1 0x97 DUP3 ADD MSTORE PUSH18 0x1E3334B63A32B91034B21E9133B637BB911F PUSH1 0x71 SHL PUSH1 0xA3 DUP3 ADD MSTORE PUSH32 0x3C6665476175737369616E426C757220737464446576696174696F6E3D22332E PUSH1 0xB5 DUP3 ADD MSTORE PUSH18 0x1A91103932B9BAB63A1E9131363AB911179F PUSH1 0x71 SHL PUSH1 0xD5 DUP3 ADD MSTORE SWAP1 PUSH2 0x2836 PUSH2 0x113 DUP4 PUSH2 0x26C2 PUSH1 0xE7 DUP3 ADD PUSH2 0x252E JUMP JUMPDEST PUSH9 0x1E17B334B63A32B91F PUSH1 0xB9 SHL DUP2 MSTORE PUSH32 0x3C7465787420783D223230302220793D223138302220666F6E742D66616D696C PUSH1 0x9 DUP3 ADD MSTORE PUSH32 0x793D22417269616C2220666F6E742D73697A653D223430222066696C6C3D2223 PUSH1 0x29 DUP3 ADD MSTORE PUSH32 0x6666662220746578742D616E63686F723D226D6964646C65222066696C746572 PUSH1 0x49 DUP3 ADD MSTORE PUSH32 0x3D2275726C2823676C6F7729223E4C756B736F4C6F6F676965733C2F74657874 PUSH1 0x69 DUP3 ADD MSTORE PUSH1 0x1F PUSH1 0xF9 SHL PUSH1 0x89 DUP3 ADD MSTORE PUSH32 0x3C7465787420783D223230302220793D223233302220666F6E742D66616D696C PUSH1 0x8A DUP3 ADD MSTORE PUSH32 0x793D22417269616C2220666F6E742D73697A653D223230222066696C6C3D2223 PUSH1 0xAA DUP3 ADD MSTORE PUSH32 0x3066302220746578742D616E63686F723D226D6964646C65222066696C746572 PUSH1 0xCA DUP3 ADD MSTORE PUSH32 0x3D2275726C2823676C6F7729223E4D61747269782045646974696F6E3C2F7465 PUSH1 0xEA DUP3 ADD MSTORE PUSH3 0x3C3A1F PUSH1 0xE9 SHL PUSH2 0x10A DUP3 ADD MSTORE PUSH6 0x1E17B9BB339F PUSH1 0xD1 SHL PUSH2 0x10D DUP3 ADD MSTORE SUB PUSH1 0xF3 DUP2 ADD DUP6 MSTORE ADD DUP4 PUSH2 0xE91 JUMP JUMPDEST PUSH2 0x283F DUP3 PUSH2 0x2897 JUMP JUMPDEST SWAP2 PUSH2 0x2893 PUSH1 0x3A PUSH1 0x40 MLOAD DUP1 SWAP6 PUSH32 0x646174613A696D6167652F7376672B786D6C3B6261736536342C000000000000 PUSH1 0x20 DUP4 ADD MSTORE PUSH2 0x2883 DUP2 MLOAD DUP1 SWAP3 PUSH1 0x20 DUP7 DUP7 ADD SWAP2 ADD PUSH2 0xDDF JUMP JUMPDEST DUP2 ADD SUB PUSH1 0x1A DUP2 ADD DUP7 MSTORE ADD DUP5 PUSH2 0xE91 JUMP JUMPDEST SWAP2 SWAP1 JUMP JUMPDEST DUP1 MLOAD ISZERO PUSH2 0x29D7 JUMPI PUSH1 0x40 MLOAD SWAP1 PUSH2 0x28AB DUP3 PUSH2 0xE59 JUMP JUMPDEST PUSH1 0x40 DUP3 MSTORE PUSH32 0x4142434445464748494A4B4C4D4E4F505152535455565758595A616263646566 PUSH1 0x20 DUP4 ADD MSTORE PUSH32 0x6768696A6B6C6D6E6F707172737475767778797A303132333435363738392B2F PUSH1 0x40 DUP4 ADD MSTORE DUP1 MLOAD PUSH1 0x2 SWAP2 DUP3 DUP3 ADD DUP1 SWAP3 GT PUSH2 0x1024 JUMPI PUSH1 0x3 SWAP2 DUP3 SWAP1 DIV PUSH1 0x1 PUSH1 0x1 PUSH1 0xFE SHL SUB DUP2 AND DUP2 SUB PUSH2 0x1024 JUMPI PUSH2 0x292D SWAP1 DUP5 SWAP6 SWAP5 SHL PUSH2 0xFE3 JUMP JUMPDEST SWAP4 PUSH1 0x20 DUP6 ADD SWAP4 DUP3 SWAP2 DUP4 MLOAD DUP5 ADD SWAP1 PUSH1 0x20 DUP3 ADD SWAP3 DUP4 MLOAD SWAP5 PUSH1 0x0 DUP6 MSTORE JUMPDEST DUP4 DUP2 LT PUSH2 0x2986 JUMPI POP POP POP POP MSTORE MLOAD MOD DUP1 PUSH1 0x1 EQ PUSH2 0x2973 JUMPI PUSH1 0x2 EQ PUSH2 0x2968 JUMPI POP SWAP1 JUMP JUMPDEST PUSH1 0x3D SWAP1 PUSH1 0x0 NOT ADD MSTORE8 SWAP1 JUMP JUMPDEST POP PUSH1 0x3D SWAP1 DUP2 PUSH1 0x0 NOT DUP3 ADD MSTORE8 PUSH1 0x1 NOT ADD MSTORE8 SWAP1 JUMP JUMPDEST DUP8 PUSH1 0x4 SWAP2 SWAP10 SWAP3 SWAP4 SWAP5 SWAP10 ADD SWAP2 DUP3 MLOAD PUSH1 0x1 SWAP1 PUSH1 0x3F SWAP1 DUP3 DUP3 DUP3 PUSH1 0x12 SHR AND DUP9 ADD ADD MLOAD DUP5 MSTORE8 DUP3 DUP3 DUP3 PUSH1 0xC SHR AND DUP9 ADD ADD MLOAD DUP4 DUP6 ADD MSTORE8 DUP3 DUP3 DUP3 PUSH1 0x6 SHR AND DUP9 ADD ADD MLOAD DUP9 DUP6 ADD MSTORE8 AND DUP6 ADD ADD MLOAD DUP10 DUP3 ADD MSTORE8 ADD SWAP8 SWAP3 SWAP2 SWAP1 PUSH2 0x2947 JUMP JUMPDEST POP PUSH1 0x40 MLOAD PUSH2 0x29E4 DUP2 PUSH2 0xE75 JUMP JUMPDEST PUSH1 0x0 DUP2 MSTORE SWAP1 JUMP INVALID LOG2 PUSH5 0x6970667358 0x22 SLT KECCAK256 SWAP10 0xEE CODESIZE PUSH3 0x45555D BYTE 0x2C BYTE 0x2A PUSH15 0x6099D829CA03411BA3A550FD95FCCE 0x2A 0xCE PUSH30 0xC93264736F6C634300081400330000000000000000000000000000000000 "},"methodIdentifiers":{"bytes32ToHexString(bytes32)":"c68b3787","generateCollectionSVG()":"3be699f9","generateLoogieSVG(bytes32,string,bytes3,uint256,uint256,string,bool)":"ad30ddbf","getCollectionMetadataBytes(uint256)":"8cda5103","getMetadataBytes(bytes32,string,bytes3,uint256,uint256,string,bool)":"8528247f","toColorHexString(bytes3)":"76799136","uint2str(uint256)":"f76f950e"}}}}}