{
  "address": "0xC7a17F95fA09b88242A1a3594c3d7f9f8897E70B",
  "abi": [
    {
      "inputs": [
        {
          "internalType": "address",
          "name": "contractOwner",
          "type": "address"
        }
      ],
      "stateMutability": "nonpayable",
      "type": "constructor"
    },
    {
      "inputs": [],
      "name": "ERC725Y_DataKeysValuesEmptyArray",
      "type": "error"
    },
    {
      "inputs": [],
      "name": "ERC725Y_DataKeysValuesLengthMismatch",
      "type": "error"
    },
    {
      "inputs": [],
      "name": "ERC725Y_MsgValueDisallowed",
      "type": "error"
    },
    {
      "inputs": [
        {
          "internalType": "bytes",
          "name": "storedData",
          "type": "bytes"
        }
      ],
      "name": "InvalidExtensionAddress",
      "type": "error"
    },
    {
      "inputs": [
        {
          "internalType": "bytes",
          "name": "data",
          "type": "bytes"
        }
      ],
      "name": "InvalidFunctionSelector",
      "type": "error"
    },
    {
      "inputs": [],
      "name": "LSP4TokenNameNotEditable",
      "type": "error"
    },
    {
      "inputs": [],
      "name": "LSP4TokenSymbolNotEditable",
      "type": "error"
    },
    {
      "inputs": [],
      "name": "LSP4TokenTypeNotEditable",
      "type": "error"
    },
    {
      "inputs": [
        {
          "internalType": "uint256",
          "name": "callIndex",
          "type": "uint256"
        }
      ],
      "name": "LSP8BatchCallFailed",
      "type": "error"
    },
    {
      "inputs": [],
      "name": "LSP8CannotSendToAddressZero",
      "type": "error"
    },
    {
      "inputs": [],
      "name": "LSP8CannotUseAddressZeroAsOperator",
      "type": "error"
    },
    {
      "inputs": [],
      "name": "LSP8InvalidTransferBatch",
      "type": "error"
    },
    {
      "inputs": [
        {
          "internalType": "bytes32",
          "name": "tokenId",
          "type": "bytes32"
        }
      ],
      "name": "LSP8NonExistentTokenId",
      "type": "error"
    },
    {
      "inputs": [
        {
          "internalType": "address",
          "name": "operator",
          "type": "address"
        },
        {
          "internalType": "bytes32",
          "name": "tokenId",
          "type": "bytes32"
        }
      ],
      "name": "LSP8NonExistingOperator",
      "type": "error"
    },
    {
      "inputs": [
        {
          "internalType": "bytes32",
          "name": "tokenId",
          "type": "bytes32"
        },
        {
          "internalType": "address",
          "name": "caller",
          "type": "address"
        }
      ],
      "name": "LSP8NotTokenOperator",
      "type": "error"
    },
    {
      "inputs": [
        {
          "internalType": "address",
          "name": "tokenOwner",
          "type": "address"
        },
        {
          "internalType": "bytes32",
          "name": "tokenId",
          "type": "bytes32"
        },
        {
          "internalType": "address",
          "name": "caller",
          "type": "address"
        }
      ],
      "name": "LSP8NotTokenOwner",
      "type": "error"
    },
    {
      "inputs": [
        {
          "internalType": "address",
          "name": "tokenReceiver",
          "type": "address"
        }
      ],
      "name": "LSP8NotifyTokenReceiverContractMissingLSP1Interface",
      "type": "error"
    },
    {
      "inputs": [
        {
          "internalType": "address",
          "name": "tokenReceiver",
          "type": "address"
        }
      ],
      "name": "LSP8NotifyTokenReceiverIsEOA",
      "type": "error"
    },
    {
      "inputs": [
        {
          "internalType": "address",
          "name": "operator",
          "type": "address"
        },
        {
          "internalType": "bytes32",
          "name": "tokenId",
          "type": "bytes32"
        }
      ],
      "name": "LSP8OperatorAlreadyAuthorized",
      "type": "error"
    },
    {
      "inputs": [
        {
          "internalType": "address",
          "name": "caller",
          "type": "address"
        },
        {
          "internalType": "address",
          "name": "tokenOwner",
          "type": "address"
        },
        {
          "internalType": "bytes32",
          "name": "tokenId",
          "type": "bytes32"
        }
      ],
      "name": "LSP8RevokeOperatorNotAuthorized",
      "type": "error"
    },
    {
      "inputs": [],
      "name": "LSP8TokenContractCannotHoldValue",
      "type": "error"
    },
    {
      "inputs": [
        {
          "internalType": "bytes32",
          "name": "tokenId",
          "type": "bytes32"
        }
      ],
      "name": "LSP8TokenIdAlreadyMinted",
      "type": "error"
    },
    {
      "inputs": [],
      "name": "LSP8TokenIdFormatNotEditable",
      "type": "error"
    },
    {
      "inputs": [],
      "name": "LSP8TokenIdsDataEmptyArray",
      "type": "error"
    },
    {
      "inputs": [],
      "name": "LSP8TokenIdsDataLengthMismatch",
      "type": "error"
    },
    {
      "inputs": [],
      "name": "LSP8TokenOwnerCannotBeOperator",
      "type": "error"
    },
    {
      "inputs": [
        {
          "internalType": "bytes32",
          "name": "tokenId",
          "type": "bytes32"
        },
        {
          "internalType": "address",
          "name": "oldOwner",
          "type": "address"
        },
        {
          "internalType": "address",
          "name": "newOwner",
          "type": "address"
        }
      ],
      "name": "LSP8TokenOwnerChanged",
      "type": "error"
    },
    {
      "inputs": [
        {
          "internalType": "bytes4",
          "name": "functionSelector",
          "type": "bytes4"
        }
      ],
      "name": "NoExtensionFoundForFunctionSelector",
      "type": "error"
    },
    {
      "inputs": [],
      "name": "OwnableCannotSetZeroAddressAsOwner",
      "type": "error"
    },
    {
      "anonymous": false,
      "inputs": [
        {
          "indexed": true,
          "internalType": "bytes32",
          "name": "dataKey",
          "type": "bytes32"
        },
        {
          "indexed": false,
          "internalType": "bytes",
          "name": "dataValue",
          "type": "bytes"
        }
      ],
      "name": "DataChanged",
      "type": "event"
    },
    {
      "anonymous": false,
      "inputs": [
        {
          "indexed": true,
          "internalType": "address",
          "name": "operator",
          "type": "address"
        },
        {
          "indexed": true,
          "internalType": "address",
          "name": "tokenOwner",
          "type": "address"
        },
        {
          "indexed": true,
          "internalType": "bytes32",
          "name": "tokenId",
          "type": "bytes32"
        },
        {
          "indexed": false,
          "internalType": "bytes",
          "name": "operatorNotificationData",
          "type": "bytes"
        }
      ],
      "name": "OperatorAuthorizationChanged",
      "type": "event"
    },
    {
      "anonymous": false,
      "inputs": [
        {
          "indexed": true,
          "internalType": "address",
          "name": "operator",
          "type": "address"
        },
        {
          "indexed": true,
          "internalType": "address",
          "name": "tokenOwner",
          "type": "address"
        },
        {
          "indexed": true,
          "internalType": "bytes32",
          "name": "tokenId",
          "type": "bytes32"
        },
        {
          "indexed": false,
          "internalType": "bool",
          "name": "notified",
          "type": "bool"
        },
        {
          "indexed": false,
          "internalType": "bytes",
          "name": "operatorNotificationData",
          "type": "bytes"
        }
      ],
      "name": "OperatorRevoked",
      "type": "event"
    },
    {
      "anonymous": false,
      "inputs": [
        {
          "indexed": true,
          "internalType": "address",
          "name": "previousOwner",
          "type": "address"
        },
        {
          "indexed": true,
          "internalType": "address",
          "name": "newOwner",
          "type": "address"
        }
      ],
      "name": "OwnershipTransferred",
      "type": "event"
    },
    {
      "anonymous": false,
      "inputs": [
        {
          "indexed": true,
          "internalType": "bytes32",
          "name": "tokenId",
          "type": "bytes32"
        },
        {
          "indexed": true,
          "internalType": "bytes32",
          "name": "dataKey",
          "type": "bytes32"
        },
        {
          "indexed": false,
          "internalType": "bytes",
          "name": "dataValue",
          "type": "bytes"
        }
      ],
      "name": "TokenIdDataChanged",
      "type": "event"
    },
    {
      "anonymous": false,
      "inputs": [
        {
          "indexed": false,
          "internalType": "address",
          "name": "operator",
          "type": "address"
        },
        {
          "indexed": true,
          "internalType": "address",
          "name": "from",
          "type": "address"
        },
        {
          "indexed": true,
          "internalType": "address",
          "name": "to",
          "type": "address"
        },
        {
          "indexed": true,
          "internalType": "bytes32",
          "name": "tokenId",
          "type": "bytes32"
        },
        {
          "indexed": false,
          "internalType": "bool",
          "name": "force",
          "type": "bool"
        },
        {
          "indexed": false,
          "internalType": "bytes",
          "name": "data",
          "type": "bytes"
        }
      ],
      "name": "Transfer",
      "type": "event"
    },
    {
      "stateMutability": "payable",
      "type": "fallback"
    },
    {
      "inputs": [
        {
          "internalType": "address",
          "name": "operator",
          "type": "address"
        },
        {
          "internalType": "bytes32",
          "name": "tokenId",
          "type": "bytes32"
        },
        {
          "internalType": "bytes",
          "name": "operatorNotificationData",
          "type": "bytes"
        }
      ],
      "name": "authorizeOperator",
      "outputs": [],
      "stateMutability": "nonpayable",
      "type": "function"
    },
    {
      "inputs": [
        {
          "internalType": "address",
          "name": "tokenOwner",
          "type": "address"
        }
      ],
      "name": "balanceOf",
      "outputs": [
        {
          "internalType": "uint256",
          "name": "",
          "type": "uint256"
        }
      ],
      "stateMutability": "view",
      "type": "function"
    },
    {
      "inputs": [
        {
          "internalType": "bytes[]",
          "name": "data",
          "type": "bytes[]"
        }
      ],
      "name": "batchCalls",
      "outputs": [
        {
          "internalType": "bytes[]",
          "name": "results",
          "type": "bytes[]"
        }
      ],
      "stateMutability": "nonpayable",
      "type": "function"
    },
    {
      "inputs": [
        {
          "internalType": "bytes32",
          "name": "",
          "type": "bytes32"
        }
      ],
      "name": "chubbiness",
      "outputs": [
        {
          "internalType": "uint256",
          "name": "",
          "type": "uint256"
        }
      ],
      "stateMutability": "view",
      "type": "function"
    },
    {
      "inputs": [
        {
          "internalType": "bytes32",
          "name": "",
          "type": "bytes32"
        }
      ],
      "name": "color",
      "outputs": [
        {
          "internalType": "bytes3",
          "name": "",
          "type": "bytes3"
        }
      ],
      "stateMutability": "view",
      "type": "function"
    },
    {
      "inputs": [],
      "name": "curve",
      "outputs": [
        {
          "internalType": "uint256",
          "name": "",
          "type": "uint256"
        }
      ],
      "stateMutability": "view",
      "type": "function"
    },
    {
      "inputs": [
        {
          "internalType": "bytes32",
          "name": "dataKey",
          "type": "bytes32"
        }
      ],
      "name": "getData",
      "outputs": [
        {
          "internalType": "bytes",
          "name": "dataValue",
          "type": "bytes"
        }
      ],
      "stateMutability": "view",
      "type": "function"
    },
    {
      "inputs": [
        {
          "internalType": "bytes32[]",
          "name": "dataKeys",
          "type": "bytes32[]"
        }
      ],
      "name": "getDataBatch",
      "outputs": [
        {
          "internalType": "bytes[]",
          "name": "dataValues",
          "type": "bytes[]"
        }
      ],
      "stateMutability": "view",
      "type": "function"
    },
    {
      "inputs": [
        {
          "internalType": "bytes32[]",
          "name": "tokenIds",
          "type": "bytes32[]"
        },
        {
          "internalType": "bytes32[]",
          "name": "dataKeys",
          "type": "bytes32[]"
        }
      ],
      "name": "getDataBatchForTokenIds",
      "outputs": [
        {
          "internalType": "bytes[]",
          "name": "dataValues",
          "type": "bytes[]"
        }
      ],
      "stateMutability": "view",
      "type": "function"
    },
    {
      "inputs": [
        {
          "internalType": "bytes32",
          "name": "tokenId",
          "type": "bytes32"
        },
        {
          "internalType": "bytes32",
          "name": "dataKey",
          "type": "bytes32"
        }
      ],
      "name": "getDataForTokenId",
      "outputs": [
        {
          "internalType": "bytes",
          "name": "dataValue",
          "type": "bytes"
        }
      ],
      "stateMutability": "view",
      "type": "function"
    },
    {
      "inputs": [
        {
          "internalType": "bytes32",
          "name": "tokenId",
          "type": "bytes32"
        }
      ],
      "name": "getOperatorsOf",
      "outputs": [
        {
          "internalType": "address[]",
          "name": "",
          "type": "address[]"
        }
      ],
      "stateMutability": "view",
      "type": "function"
    },
    {
      "inputs": [
        {
          "internalType": "address",
          "name": "operator",
          "type": "address"
        },
        {
          "internalType": "bytes32",
          "name": "tokenId",
          "type": "bytes32"
        }
      ],
      "name": "isOperatorFor",
      "outputs": [
        {
          "internalType": "bool",
          "name": "",
          "type": "bool"
        }
      ],
      "stateMutability": "view",
      "type": "function"
    },
    {
      "inputs": [
        {
          "internalType": "address",
          "name": "account",
          "type": "address"
        }
      ],
      "name": "isUniversalProfile",
      "outputs": [
        {
          "internalType": "bool",
          "name": "",
          "type": "bool"
        }
      ],
      "stateMutability": "view",
      "type": "function"
    },
    {
      "inputs": [],
      "name": "limit",
      "outputs": [
        {
          "internalType": "uint256",
          "name": "",
          "type": "uint256"
        }
      ],
      "stateMutability": "view",
      "type": "function"
    },
    {
      "inputs": [],
      "name": "mintItem",
      "outputs": [
        {
          "internalType": "bytes32",
          "name": "",
          "type": "bytes32"
        }
      ],
      "stateMutability": "payable",
      "type": "function"
    },
    {
      "inputs": [
        {
          "internalType": "address",
          "name": "to",
          "type": "address"
        }
      ],
      "name": "mintLoogie",
      "outputs": [
        {
          "internalType": "bytes32",
          "name": "",
          "type": "bytes32"
        }
      ],
      "stateMutability": "nonpayable",
      "type": "function"
    },
    {
      "inputs": [
        {
          "internalType": "bytes32",
          "name": "",
          "type": "bytes32"
        }
      ],
      "name": "mouthLength",
      "outputs": [
        {
          "internalType": "uint256",
          "name": "",
          "type": "uint256"
        }
      ],
      "stateMutability": "view",
      "type": "function"
    },
    {
      "inputs": [],
      "name": "name",
      "outputs": [
        {
          "internalType": "string",
          "name": "",
          "type": "string"
        }
      ],
      "stateMutability": "view",
      "type": "function"
    },
    {
      "inputs": [],
      "name": "owner",
      "outputs": [
        {
          "internalType": "address",
          "name": "",
          "type": "address"
        }
      ],
      "stateMutability": "view",
      "type": "function"
    },
    {
      "inputs": [],
      "name": "price",
      "outputs": [
        {
          "internalType": "uint256",
          "name": "",
          "type": "uint256"
        }
      ],
      "stateMutability": "view",
      "type": "function"
    },
    {
      "inputs": [],
      "name": "recipient",
      "outputs": [
        {
          "internalType": "address payable",
          "name": "",
          "type": "address"
        }
      ],
      "stateMutability": "view",
      "type": "function"
    },
    {
      "inputs": [],
      "name": "renounceOwnership",
      "outputs": [],
      "stateMutability": "nonpayable",
      "type": "function"
    },
    {
      "inputs": [
        {
          "internalType": "address",
          "name": "operator",
          "type": "address"
        },
        {
          "internalType": "bytes32",
          "name": "tokenId",
          "type": "bytes32"
        },
        {
          "internalType": "bool",
          "name": "notify",
          "type": "bool"
        },
        {
          "internalType": "bytes",
          "name": "operatorNotificationData",
          "type": "bytes"
        }
      ],
      "name": "revokeOperator",
      "outputs": [],
      "stateMutability": "nonpayable",
      "type": "function"
    },
    {
      "inputs": [
        {
          "internalType": "bytes32",
          "name": "dataKey",
          "type": "bytes32"
        },
        {
          "internalType": "bytes",
          "name": "dataValue",
          "type": "bytes"
        }
      ],
      "name": "setData",
      "outputs": [],
      "stateMutability": "payable",
      "type": "function"
    },
    {
      "inputs": [
        {
          "internalType": "bytes32[]",
          "name": "dataKeys",
          "type": "bytes32[]"
        },
        {
          "internalType": "bytes[]",
          "name": "dataValues",
          "type": "bytes[]"
        }
      ],
      "name": "setDataBatch",
      "outputs": [],
      "stateMutability": "payable",
      "type": "function"
    },
    {
      "inputs": [
        {
          "internalType": "bytes32[]",
          "name": "tokenIds",
          "type": "bytes32[]"
        },
        {
          "internalType": "bytes32[]",
          "name": "dataKeys",
          "type": "bytes32[]"
        },
        {
          "internalType": "bytes[]",
          "name": "dataValues",
          "type": "bytes[]"
        }
      ],
      "name": "setDataBatchForTokenIds",
      "outputs": [],
      "stateMutability": "nonpayable",
      "type": "function"
    },
    {
      "inputs": [
        {
          "internalType": "bytes32",
          "name": "tokenId",
          "type": "bytes32"
        },
        {
          "internalType": "bytes32",
          "name": "dataKey",
          "type": "bytes32"
        },
        {
          "internalType": "bytes",
          "name": "dataValue",
          "type": "bytes"
        }
      ],
      "name": "setDataForTokenId",
      "outputs": [],
      "stateMutability": "nonpayable",
      "type": "function"
    },
    {
      "inputs": [
        {
          "internalType": "bytes32",
          "name": "tokenId",
          "type": "bytes32"
        },
        {
          "internalType": "string",
          "name": "username",
          "type": "string"
        }
      ],
      "name": "setUPUsername",
      "outputs": [],
      "stateMutability": "nonpayable",
      "type": "function"
    },
    {
      "inputs": [
        {
          "internalType": "bytes4",
          "name": "interfaceId",
          "type": "bytes4"
        }
      ],
      "name": "supportsInterface",
      "outputs": [
        {
          "internalType": "bool",
          "name": "",
          "type": "bool"
        }
      ],
      "stateMutability": "view",
      "type": "function"
    },
    {
      "inputs": [],
      "name": "symbol",
      "outputs": [
        {
          "internalType": "string",
          "name": "",
          "type": "string"
        }
      ],
      "stateMutability": "view",
      "type": "function"
    },
    {
      "inputs": [
        {
          "internalType": "uint256",
          "name": "id",
          "type": "uint256"
        }
      ],
      "name": "tokenExists",
      "outputs": [
        {
          "internalType": "bool",
          "name": "",
          "type": "bool"
        }
      ],
      "stateMutability": "view",
      "type": "function"
    },
    {
      "inputs": [
        {
          "internalType": "address",
          "name": "tokenOwner",
          "type": "address"
        }
      ],
      "name": "tokenIdsOf",
      "outputs": [
        {
          "internalType": "bytes32[]",
          "name": "",
          "type": "bytes32[]"
        }
      ],
      "stateMutability": "view",
      "type": "function"
    },
    {
      "inputs": [
        {
          "internalType": "bytes32",
          "name": "tokenId",
          "type": "bytes32"
        }
      ],
      "name": "tokenOwnerOf",
      "outputs": [
        {
          "internalType": "address",
          "name": "",
          "type": "address"
        }
      ],
      "stateMutability": "view",
      "type": "function"
    },
    {
      "inputs": [],
      "name": "totalSupply",
      "outputs": [
        {
          "internalType": "uint256",
          "name": "",
          "type": "uint256"
        }
      ],
      "stateMutability": "view",
      "type": "function"
    },
    {
      "inputs": [
        {
          "internalType": "address",
          "name": "from",
          "type": "address"
        },
        {
          "internalType": "address",
          "name": "to",
          "type": "address"
        },
        {
          "internalType": "bytes32",
          "name": "tokenId",
          "type": "bytes32"
        },
        {
          "internalType": "bool",
          "name": "force",
          "type": "bool"
        },
        {
          "internalType": "bytes",
          "name": "data",
          "type": "bytes"
        }
      ],
      "name": "transfer",
      "outputs": [],
      "stateMutability": "nonpayable",
      "type": "function"
    },
    {
      "inputs": [
        {
          "internalType": "address[]",
          "name": "from",
          "type": "address[]"
        },
        {
          "internalType": "address[]",
          "name": "to",
          "type": "address[]"
        },
        {
          "internalType": "bytes32[]",
          "name": "tokenId",
          "type": "bytes32[]"
        },
        {
          "internalType": "bool[]",
          "name": "force",
          "type": "bool[]"
        },
        {
          "internalType": "bytes[]",
          "name": "data",
          "type": "bytes[]"
        }
      ],
      "name": "transferBatch",
      "outputs": [],
      "stateMutability": "nonpayable",
      "type": "function"
    },
    {
      "inputs": [
        {
          "internalType": "address",
          "name": "newOwner",
          "type": "address"
        }
      ],
      "name": "transferOwnership",
      "outputs": [],
      "stateMutability": "nonpayable",
      "type": "function"
    },
    {
      "inputs": [
        {
          "internalType": "bytes32",
          "name": "",
          "type": "bytes32"
        }
      ],
      "name": "upUsernames",
      "outputs": [
        {
          "internalType": "string",
          "name": "",
          "type": "string"
        }
      ],
      "stateMutability": "view",
      "type": "function"
    },
    {
      "inputs": [],
      "name": "updateCollectionMetadata",
      "outputs": [],
      "stateMutability": "nonpayable",
      "type": "function"
    },
    {
      "stateMutability": "payable",
      "type": "receive"
    }
  ],
  "transactionHash": "0xea74d26cb7d37aa61398223b47d756920397c8f78c7a7c687382e37649089686",
  "args": [
    "0x02224842340dA3392cae9df5cbA5D777C33Fe299"
  ],
  "numDeployments": 2,
  "solcInputHash": "9951e0c46bf4cc543a6a4d60ffd583e6",
  "bytecode": "0x608060409080825234620015f05780620063d6803803809162000023828562001627565b8339602092839181010312620015f057516001600160a01b0381169290838103620015f0578151906200005682620015f5565b6012825271131d5adcdbd31bdbd9da595cc8119a5e195960721b848301528251946200008286620015f5565b6009865268098aa96989e8e8c92b60bb1b85870152620000a233620016dc565b15620015df57620000b390620016dc565b620000bd62001667565b927feafec4d89fa9619884b60000a4d96624a38f7ac2d8d9a604ecf07c12c77e480c6000928184526001918284528585209787519260018060401b0398898511620015cb578a54948686811c96168015620015c0575b88871014620015ac57601f9586811162001564575b5087868211600114620014f9579b818693928b9c9d9e6200018b9c91620014ed575b50600019600383901b1c191690891b1790555b8a51807fece574603820d07bc9b91f2a932baadf4628aabcb8afba49776529c14a6104b29a8b9382620016ae565b0390a27fdeba1e292f8ba88238e10ab3c7f88bd4be4fac56cad5194b6ecceaf653468af190818952858752898920908051918c8311620014d95780548881811c91168015620014ce575b8a821014620014ba579081888c94931162001465575b5089938c898211600114620013f65762000226949582620013ea575b50600019600383901b1c1916908a1b1790555b8b5191829182620016ae565b0390a27f2f0a68ab07768e01943a599e73362a0e17a63a72e94dd2e384d2c1d4db93275690818852848652888820908051918b831162000f065780548781811c91168015620013df575b89821014620010ff579081878b9493116200138a575b508893878111600114620013375780620002c294958d9162001030575b50600019600383901b1c191690891b1790555b8a5191829182620016ae565b0390a28651600285820152848152620002db81620015f5565b7fe0261fa95db2eb3b5439bd033cda66d56b96f92f243a8228fd87550ed7bdfdb390818852848652888820908051918b831162000f065780548781811c911680156200132c575b89821014620010ff579081878b949311620012d7575b5088938781116001146200128457806200037294958d91620010305750600019600383901b1c191690891b1790558a5191829182620016ae565b0390a2865186858201528481526200038a81620015f5565b7ff675e9361af1c1664c1868cfa3eb97672d6b1a513aa5b81dec34c9ee330e818d90818852848652888820908051918b831162000f065780548781811c9116801562001279575b89821014620010ff579081878b94931162001224575b508893878111600114620011d157806200042194958d91620010305750600019600383901b1c191690891b1790558a5191829182620016ae565b0390a267016345785d8a0000600c556200043a62001667565b818752838552878720908051918a83116200101c5780548681811c91168015620011c6575b8882101462000ffd579081868a94931162001171575b5087938681116001146200111e5780620004b194958c9162000f2e575b50600019600383901b1c191690881b1790555b895191829182620016ae565b0390a28551610e90908185820152848152620004cd81620015f5565b7fa23ea79c706be4641bfd97c9afb5b71a552c5bc320930dbe09b3530ed76dee0f90818852848652888820908051918b831162000f065780548781811c9116801562001113575b89821014620010ff579081878b949311620010aa575b5088938781116001146200103c57806200056494958d91620010305750600019600383901b1c191690891b1790558a5191829182620016ae565b0390a2865190848201528381526200057c81620015f5565b7fd28c95357cf4c94d638a4f572d5d3df8d7e1415c8b650e747a219c559d1435c890818752838552878720908051918a83116200101c5780548681811c9116801562001011575b8882101462000ffd579081868a94931162000fa8575b50879386811160011462000f3a57806200061394958c9162000f2e5750600019600383901b1c191690881b179055895191829182620016ae565b0390a285516101a081018181108982111762000f1a578752620007f06101648083528583017f3c73766720786d6c6e733d22687474703a2f2f7777772e77332e6f72672f323081527f30302f737667222077696474683d2234303022206865696768743d22343030228a8501527f2076696577426f783d223020302034303020343030223e3c726563742077696460608501527f74683d2234303022206865696768743d22343030222066696c6c3d222330303060808501527f222f3e3c7465787420783d223230302220793d223138302220666f6e742d666160a08501527f6d696c793d22417269616c2220666f6e742d73697a653d223430222066696c6c60c08501527f3d22236666662220746578742d616e63686f723d226d6964646c65223e4c756b60e08501527f736f4c6f6f676965733c2f746578743e3c7465787420783d223230302220793d6101008501527f223233302220666f6e742d66616d696c793d22417269616c2220666f6e742d736101208501527f697a653d223230222066696c6c3d22233066302220746578742d616e63686f726101408501527f3d226d6964646c65223e46697865642045646974696f6e3c2f746578743e3c2f6101608501526339bb339f60e11b610180850152209162001723565b908751620007fe81620015f5565b601081526f181899199a1a9b1b9c1cb0b131b232b360811b86820152885191608083018381108c82111762000f06578a526042835286830191606036843783511562000ef25760308353835187101562000ef25790839291607860218a9998979601538a5b88811062000dfd5750508a51707b224c5350344d65746164617461223a7b60781b8982019081527f226e616d65223a224c756b736f4c6f6f67696573204669786564222c0000000060318301527f226465736372697074696f6e223a224c756b736f4c6f6f676965732061726520604d8301527f4c554b534f205374616e64617264204c535038204e4654732077697468206120606d8301527f736d696c65203a29204f6e6c792033373238204c756b736f4c6f6f6769657320608d8301527f617661696c61626c65206f6e206120707269636520637572766520696e63726560ad8301527f6173696e6720302e322520776974682065616368206e6577206d696e742e205460cd8301527f6869732066697865642076657273696f6e2073686f77732070726f706572207460ed8301527f6f6b656e206174747269627574657320616e64205356472072656e646572696e61010d8301526319cb888b60e21b61012d8301527f226c696e6b73223a5b7b227469746c65223a2257656273697465222c2275726c6101318301527f223a2268747470733a2f2f6c756b736f6c6f6f676965732e76657263656c2e616101518301527f7070227d2c7b227469746c65223a2254776974746572222c2275726c223a22686101718301527f747470733a2f2f747769747465722e636f6d2f6c756b736f4c6f6f6769657322610191830152621f574b60ea1b6101b18301526b22696d61676573223a5b5b7b60a01b6101b48301526b089dda591d1a088e8d0c0c0b60a21b6101c08301526c089a195a59da1d088e8d0c0c0b609a1b6101cc8301527f2275726c223a22646174613a696d6167652f7376672b786d6c3b6261736536346101d9830152600b60fa1b6101f98301528551919962000c5f96604896929562000bbe9550610237948d9491936101fa9362000b19918391868901910162001689565b84019161088b60f21b908301527f22766572696669636174696f6e223a7b226d6574686f64223a226b656363616b6101fc8301527f32353628627974657329222c2264617461223a2200000000000000000000000061021c830152519062000b8982610230948584019062001689565b019061227d60f01b90820152627d5d5d60e81b610232820152617d7d60f01b6102358201520361021781018a52018862001627565b62000bc98762001723565b908a519762000c21603d8a8a8101957f646174613a6170706c69636174696f6e2f6a736f6e3b6261736536342c000000875262000c108c8251928391868601910162001689565b810103601d81018c52018a62001627565b5190209062000c4e8b51988993650379abe3500160c51b8a86015260288501525180928585019062001689565b810103602881018752018562001627565b7f9afb95cacc9f95858ec44aa8c3b685511002e30ae54415823f406128b85b238e95868152828452878120938551998a1162000de95784548481811c9116801562000dde575b8282101462000dca5780848c921162000d80575b505080928a1160011462000d165750978092819262000cf99798999a9362000d0a575b501b916000199060031b1c19161790555b845191829182620016ae565b0390a251614ad09081620019068239f35b86015192503862000cdc565b9891601f1983169985835280832092905b8b821062000d685750508262000cf99798999a1062000d4e575b5050811b01905562000ced565b85015160001960f88460031b161c19169055388062000d41565b808684958294958b0151815501940192019062000d27565b86845284838520918482850160051c8401941062000dc0575b0160051c019085905b82811062000db457508b915062000cb9565b84815501859062000da2565b9250819262000d99565b634e487b7160e01b83526022600452602483fd5b90607f169062000ca5565b634e487b7160e01b82526041600452602482fd5b90918093949596979850811a60ff60f81b908162000e2260ff8360041c1686620018dd565b511691838b1b918483046002148515171562000ede5782600201938460021162000ec9578f600393928b62000e618862000e6a95600f951a92620018dd565b531687620018dd565b5116910180921162000eb55762000e85908d1a9187620018dd565b53600019811462000ea157870190889796959493929162000863565b634e487b7160e01b8b52601160045260248bfd5b634e487b7160e01b8d52601160045260248dfd5b50634e487b7160e01b8f52601160045260248ffd5b634e487b7160e01b8f52601160045260248ffd5b634e487b7160e01b8a52603260045260248afd5b634e487b7160e01b8a52604160045260248afd5b634e487b7160e01b87526041600452602487fd5b90508301513862000492565b818b52888b2094889190601f1982168d5b8c82821062000f8d5750509082620006139798921062000f73575b5050811b019055620004a5565b85015160001960f88460031b161c19169055388062000f66565b878401518a5598909401978d97508b94928101920162000f4b565b90809293508a52878a208680860160051c8201928a871062000ff3575b9189918c969594930160051c01915b82811062000fe4575050620005d9565b8c81558b955089910162000fd4565b9250819262000fc5565b634e487b7160e01b8a52602260045260248afd5b90607f1690620005c3565b634e487b7160e01b89526041600452602489fd5b905083015138620002a3565b818c52898c2094899190601f1982168e5b8d8282106200108f5750509082620005649798921062001075575b5050811b019055620002b6565b85015160001960f88460031b161c19169055388062001068565b878401518a5598909401978e97508c9492810192016200104d565b90809293508b52888b208780860160051c8201928b8710620010f5575b918a918d969594930160051c01915b828110620010e65750506200052a565b8d81558c95508a9101620010d6565b92508192620010c7565b634e487b7160e01b8b52602260045260248bfd5b90607f169062000514565b818b52888b2094889190601f1982168d5b8c828210620011565750509082620004b19798921062000f73575050811b019055620004a5565b878401518a5598909401978d97508b9492810192016200112f565b90809293508a52878a208680860160051c8201928a8710620011bc575b9189918c969594930160051c01915b828110620011ad57505062000475565b8c81558b95508991016200119d565b925081926200118e565b90607f16906200045f565b818c52898c2094899190601f1982168e5b8d828210620012095750509082620004219798921062001075575050811b019055620002b6565b878401518a5598909401978e97508c949281019201620011e2565b90809293508b52888b208780860160051c8201928b87106200126f575b918a918d969594930160051c01915b82811062001260575050620003e7565b8d81558c95508a910162001250565b9250819262001241565b90607f1690620003d1565b818c52898c2094899190601f1982168e5b8d828210620012bc5750509082620003729798921062001075575050811b019055620002b6565b878401518a5598909401978e97508c94928101920162001295565b90809293508b52888b208780860160051c8201928b871062001322575b918a918d969594930160051c01915b8281106200131357505062000338565b8d81558c95508a910162001303565b92508192620012f4565b90607f169062000322565b818c52898c2094899190601f1982168e5b8d8282106200136f5750509082620002c29798921062001075575050811b019055620002b6565b878401518a5598909401978e97508c94928101920162001348565b90809293508b52888b208780860160051c8201928b8710620013d5575b918a918d969594930160051c01915b828110620013c657505062000286565b8d81558c95508a9101620013b6565b92508192620013a7565b90607f169062000270565b90508301513862000207565b8281528b8120958b9291601f198316908e5b82821062001449575050908262000226979892106200142f575b5050811b0190556200021a565b85015160001960f88460031b161c19169055388062001422565b878401518a5598909401978f97508d9492810192018e62001408565b90809293508c52898c208880860160051c8201928c8710620014b0575b918b918e969594930160051c01915b828110620014a1575050620001eb565b8e81558d95508b910162001491565b9250819262001482565b634e487b7160e01b8c52602260045260248cfd5b90607f1690620001d5565b634e487b7160e01b8b52604160045260248bfd5b9050830151386200014a565b8c8a52888a2090601f1983168b5b8181106200154e5750926200018b9b9c9d9e928a92828a97961062001534575b5050811b0190556200015d565b85015160001960f88460031b161c19169055388062001527565b858301518455928a0192918b01918b0162001507565b8c8a52888a208780840160051c8201928b8510620015a2575b0160051c019088905b8281106200159657505062000128565b8b815501889062001586565b925081926200157d565b634e487b7160e01b89526022600452602489fd5b95607f169562000113565b634e487b7160e01b88526041600452602488fd5b82516306b620db60e21b8152600490fd5b600080fd5b604081019081106001600160401b038211176200161157604052565b634e487b7160e01b600052604160045260246000fd5b601f909101601f19168101906001600160401b038211908210176200161157604052565b6001600160401b0381116200161157601f01601f191660200190565b604051906200167682620015f5565b60048252632936598960e21b6020830152565b60005b8381106200169d5750506000910152565b81810151838201526020016200168c565b60409160208252620016d0815180928160208601526020868601910162001689565b601f01601f1916010190565b600080546001600160a01b039283166001600160a01b03198216811783559216907f8be0079c531659141344cd1fd0a4f28419497f9722a3daafe3b4186f6b6457e09080a3565b805115620018b85760405190606082016001600160401b038111838210176200161157604052604082527f4142434445464748494a4b4c4d4e4f505152535455565758595a61626364656660208301527f6768696a6b6c6d6e6f707172737475767778797a303132333435363738392b2f60408301528051600291828201809211620018a25760039182900480841b94906001600160fe1b03811603620018a25792620017ed620017d4866200164b565b95620017e4604051978862001627565b8087526200164b565b6020860190601f190136823793829183518401906020820192835194600085525b838110620018505750505050525106806001146200183d5760021462001832575090565b603d90600019015390565b50603d9081600019820153600119015390565b87600491999293949901918251600190603f9082828260121c16880101518453828282600c1c16880101518385015382828260061c16880101518885015316850101518982015301979291906200180e565b634e487b7160e01b600052601160045260246000fd5b50604051602081016001600160401b0381118282101762001611576040526000815290565b908151811015620018ef570160200190565b634e487b7160e01b600052603260045260246000fdfe60806040526004361015610033575b3615610026575b61001e36611f68565b602081519101f35b61002e611fb4565b610015565b60003560e01c8062923f9e1461033e578063017c96b81461033557806301ffc9a71461032c57806306fdde031461032357806316e023b31461031a57806318160ddd1461031157806319c9d79b146103085780631d26fce6146102ff5780631ead90b0146102f6578063217b2270146102ed5780632a3654a4146102e4578063472dfcfb146102db578063475a590d146102d257806349a6078d146102c9578063511b6952146102c057806354f6127f146102b75780636643a686146102ae57806366d003ac146102a55780636963d4381461029c57806370a0823114610293578063715018a61461028a5780637165485d14610281578063791790c9146102785780637e87632c1461026f5780637f23690c1461026657806386a10ddd1461025d5780638da5cb5b1461025457806395d89b411461024b5780639790242114610242578063a035b1fe14610239578063a3b261f214610230578063a4d66daf14610227578063be9f0e6f1461021e578063d6c1407c14610215578063d91a61d01461020c578063db8c966314610203578063dedff9c6146101fa578063eb93406b146101f15763f2fde38b0361000e576101ec611e14565b61000e565b506101ec611ce2565b506101ec611c5a565b506101ec611b80565b506101ec611701565b506101ec6116ba565b506101ec6115ca565b506101ec6115ac565b506101ec611531565b506101ec611512565b506101ec61144d565b506101ec6113ef565b506101ec6113c5565b506101ec61126e565b506101ec611217565b506101ec61117d565b506101ec611003565b506101ec610fe5565b506101ec610f98565b506101ec610f5d565b506101ec610ef7565b506101ec610ec7565b506101ec610e9a565b506101ec610e7a565b506101ec610e12565b506101ec610d51565b506101ec610be8565b506101ec610bb1565b506101ec610a92565b506101ec610a4b565b506101ec610a00565b506101ec610936565b506101ec6106f2565b506101ec6105a3565b506101ec610580565b506101ec610507565b506101ec6103e2565b506101ec6103b5565b503461037057602036600319011261037057600435600052600a602052602060ff604060002054166040519015158152f35b600080fd5b6000526007602052604060002090565b6000526008602052604060002090565b6000526009602052604060002090565b600052600b602052604060002090565b50346103705760203660031901126103705760043560005260096020526020604060002054604051908152f35b5034610370576020366003190112610370576004356001600160e01b03198116908181036103705761043791631d138b8360e11b8114918215918261043b575b50506040519115158252509081906020820190565b0390f35b9091610463575b508115610453575b50388080610422565b61045d91506135d0565b3861044a565b90915063a918fa6b60e01b8114908115610480575b509038610442565b6318a6a9a560e21b81149150811561049a575b5038610478565b6301ffc9a760e01b14905038610493565b60005b8381106104be5750506000910152565b81810151838201526020016104ae565b906020916104e7815180928185528580860191016104ab565b601f01601f1916010190565b9060206105049281815201906104ce565b90565b5034610370576000366003190112610370576000805160206148db83398151915260005260016020526040516104379061056c81610565817f2a367ae1ac46d529739aa27ac74856f860e70af05d3642d18ba60fd5d32a069a610afe565b038261066e565b6040519182916020835260208301906104ce565b50346103705760403660031901126103705761043761056c6024356004356137f2565b5034610370576000366003190112610370576020600654604051908152f35b50634e487b7160e01b600052604160045260246000fd5b6101a081019081106001600160401b038211176105f557604052565b6105fd6105c2565b604052565b602081019081106001600160401b038211176105f557604052565b604081019081106001600160401b038211176105f557604052565b606081019081106001600160401b038211176105f557604052565b608081019081106001600160401b038211176105f557604052565b601f909101601f19168101906001600160401b038211908210176105f557604052565b6020906001600160401b0381116106ae575b601f01601f19160190565b6106b66105c2565b6106a3565b9291926106c782610691565b916106d5604051938461066e565b829481845281830111610370578281602093846000960137010152565b5034610370576040366003190112610370576001600160401b036004356024358281116103705736602382011215610370576107389036906024816004013591016106bb565b9161075f6107458361247c565b6001600160a01b0381163314908115610840575b5061349e565b6000918252602090600b825260408320918451918211610833575b61078e826107888554610ac4565b85612341565b80601f83116001146107c857508394829394926107bd575b50508160011b916000199060031b1c191617905580f35b0151905038806107a6565b90601f198316956107de85600052602060002090565b9286905b88821061081b57505083600195969710610802575b505050811b01905580f35b015160001960f88460031b161c191690553880806107f7565b806001859682949686015181550195019301906107e2565b61083b6105c2565b61077a565b61084a91506134f6565b38610759565b6020906001600160401b038111610869575b60051b0190565b6108716105c2565b610862565b81601f820112156103705780359161088d83610850565b9261089b604051948561066e565b808452602092838086019260051b820101928311610370578301905b8282106108c5575050505090565b813581529083019083016108b7565b602080820190808352835180925260408301928160408460051b8301019501936000915b8483106109085750505050505090565b9091929394958480610926600193603f198682030187528a516104ce565b98019301930191949392906108f8565b5034610370576040366003190112610370576001600160401b0360043581811161037057610968903690600401610876565b9060243590811161037057610981903690600401610876565b9080518251036109ee576109958151611ee5565b9160005b82518110156109e057806109c46109b260019386611f46565b516109bd8386611f46565b51906137f2565b6109ce8287611f46565b526109d98186611f46565b5001610999565b6040518061043786826108d4565b6040516317d38eff60e11b8152600490fd5b5034610370576020366003190112610370576004356000526007602052602060406000205460e81b6040519062ffffff60e81b168152f35b6001600160a01b03909116815260200190565b5034610370576020366003190112610370576020610a6a60043561247c565b6040516001600160a01b039091168152f35b600435906001600160a01b038216820361037057565b5034610370576040366003190112610370576020610aba610ab1610a7c565b6024359061261f565b6040519015158152f35b90600182811c92168015610af4575b6020831014610ade57565b634e487b7160e01b600052602260045260246000fd5b91607f1691610ad3565b9060009291805491610b0f83610ac4565b918282526001938481169081600014610b715750600114610b31575b50505050565b90919394506000526020928360002092846000945b838610610b5d575050505001019038808080610b2b565b805485870183015294019385908201610b46565b9294505050602093945060ff191683830152151560051b01019038808080610b2b565b90610baf610ba89260405193848092610afe565b038361066e565b565b503461037057602036600319011261037057600435600052600b60205261043761056561056c604060002060405192838092610afe565b503461037057602036600319011261037057610437610c05610a7c565b610c18610c136006546132c2565b600655565b610d4160065491610c43610c3684600052600a602052604060002090565b805460ff19166001179055565b610d17610d12610cdf610c554361303e565b40604051610c7d81610c6f60208201948930918d88613308565b03601f19810183528261066e565b519020610ccd600082901a60f81b6001600160f81b031916600183901a60f01b60ff60f01b1617600283901a60e81b60ff60e81b1617610cbc89610375565b9060e81c62ffffff19825416179055565b610ceb610ce6610cdf8360031a613248565b60ff900490565b6132d0565b610cf488610385565b55610d08610d0188610385565b5460021c90565b9060041a906132af565b6132de565b610d2084610395565b55610d32610d2d846103a5565b613335565b82610d3b612029565b916133d8565b6040519081529081906020820190565b50346103705760208060031936011261037057600435610d7081612936565b15610dd55760005260058152610d896040600020613172565b906040519181839283018184528251809152816040850193019160005b828110610db557505050500390f35b83516001600160a01b031685528695509381019392810192600101610da6565b60249060405190635747cd1b60e11b82526004820152fd5b8015150361037057565b9080601f8301121561037057816020610504933591016106bb565b50346103705760a036600319011261037057610e2c610a7c565b6024356001600160a01b038116810361037057606435610e4b81610ded565b608435926001600160401b03841161037057610e6e610e78943690600401610df7565b926044359161265a565b005b50346103705760203660031901126103705761043761056c600435611ec6565b50346103705760203660031901126103705760043560005260086020526020604060002054604051908152f35b503461037057600036600319011261037057602060405173a81a6a910fed20374361b35c451a4a44f86ced468152f35b5034610370576020366003190112610370576001600160401b036004358181116103705736602382011215610370578060040135918211610370573660248360051b8301011161037057610437916024610f5192016124ee565b604051918291826108d4565b5034610370576020366003190112610370576001600160a01b03610f7f610a7c565b1660005260046020526020604060002054604051908152f35b503461037057600080600319360112610fe257610fb3612ea0565b80546001600160a01b03198116825581906001600160a01b031660008051602061499b8339815191528280a380f35b80fd5b50346103705760003660031901126103705760206040516103ea8152f35b5034610370576020366003190112610370576020610aba611022610a7c565b6134f6565b81601f820112156103705780359161103e83610850565b9261104c604051948561066e565b808452602092838086019260051b820101928311610370578301905b828210611076575050505090565b81356001600160a01b0381168103610370578152908301908301611068565b81601f82011215610370578035916110ac83610850565b926110ba604051948561066e565b808452602092838086019260051b820101928311610370578301905b8282106110e4575050505090565b83809183356110f281610ded565b8152019101906110d6565b9080601f830112156103705781359061111582610850565b92611123604051948561066e565b828452602092838086019160051b8301019280841161037057848301915b8483106111515750505050505090565b82356001600160401b03811161037057869161117284848094890101610df7565b815201920191611141565b50346103705760a03660031901126103705760046001600160401b038135818111610370576111af9036908401611027565b90602435818111610370576111c79036908501611027565b604435828111610370576111de9036908601610876565b90606435838111610370576111f69036908701611095565b9260843590811161037057610e7895611211913691016110fd565b936127e3565b506040366003190112610370576024356001600160401b03811161037057611243903690600401610df7565b61124b612ea0565b3461125c57610e7890600435612208565b60405163f36ba73760e01b8152600490fd5b503461037057606036600319011261037057611288610a7c565b602435906044356001600160401b038111610370576112ab903690600401610df7565b906112b58361247c565b6001600160a01b03818116913383036113a657508216801561139457808214611382576112fc6112f8846112f3886000526005602052604060002090565b6131c1565b1590565b61136257938061135d92610e78967f1b1b58aa2ec0cec2228b2d37124556d41f5a1f7b12f089171f896cc236671215604051806113398a826104f3565b0390a461134f60405194859233602085016125c9565b03601f19810184528361066e565b612cd9565b6040516314ec4d6d60e31b81528061137e8786600484016125ae565b0390fd5b6040516344fed6b160e11b8152600490fd5b604051639577b8b360e01b8152600490fd5b8561137e604051928392632d938f5160e11b845233916004850161258b565b5034610370576000366003190112610370576000546040516001600160a01b039091168152602090f35b5034610370576000366003190112610370576000805160206149bb83398151915260005260016020526040516104379061056c81610565817f83b322886c7b7e25779e5d38e06e005c9e7aba1e1267ce9210cf24e31833535a610afe565b5060403660031901126103705760046001600160401b0381358181116103705761147a9036908401610876565b906024359081116103705761149290369084016110fd565b9161149b612ea0565b346115035781518351036114f4578151156114e5575060005b8151811015610e7857806114df6114cd60019385611f46565b516114d88387611f46565b5190612208565b016114b4565b6040516397da5f9560e01b8152fd5b604051633bcc897960e01b8152fd5b60405163f36ba73760e01b8152fd5b5034610370576000366003190112610370576020600c54604051908152f35b503461037057602080600319360112610370576001600160a01b03611554610a7c565b16600052600481526115696040600020613172565b906040519181839283018184528251809152816040850193019160005b82811061159557505050500390f35b835185528695509381019392810192600101611586565b5034610370576000366003190112610370576020604051610e908152f35b50346103705760603660031901126103705760046001600160401b038135818111610370576115fc9036908401610876565b602435828111610370576116139036908501610876565b916044359081116103705761162b90369085016110fd565b92611634612ea0565b81518351809114908115916116ae575b5061169f57815115611690575060005b8151811015610e78578061168a61166d60019385611f46565b516116788387611f46565b516116838489611f46565b5191612b06565b01611654565b6040516380c9830560e01b8152fd5b6040516317d38eff60e11b8152fd5b90508451141538611644565b5034610370576060366003190112610370576044356001600160401b038111610370576116ee610e78913690600401610df7565b6116f6612ea0565b602435600435612b06565b503461037057600080600319360112610fe257805461172a906001600160a01b0316331461349e565b604051611736816105d9565b61016480825260008051602061489b833981519152602083019081526000805160206149db83398151915260408401527f2076696577426f783d223020302034303020343030223e3c726563742077696460608401527f74683d2234303022206865696768743d22343030222066696c6c3d222330303060808401527f222f3e3c7465787420783d223230302220793d223138302220666f6e742d666160a08401527f6d696c793d22417269616c2220666f6e742d73697a653d223430222066696c6c60c08401527f3d22236666662220746578742d616e63686f723d226d6964646c65223e4c756b60e08401527f736f4c6f6f676965733c2f746578743e3c7465787420783d223230302220793d6101008401527f223233302220666f6e742d66616d696c793d22417269616c2220666f6e742d736101208401527f697a653d223230222066696c6c3d22233066302220746578742d616e63686f726101408401527f3d226d6964646c65223e46697865642045646974696f6e3c2f746578743e3c2f6101608401526339bb339f60e11b61018084015220906118d9906143af565b906118e390614645565b90604051809260208201926118f784613678565b7b089b985b59488e88931d5adcdbd31bdbd9da595cc8119a5e1959088b60221b8152601c017f226465736372697074696f6e223a224c756b736f4c6f6f67696573206172652081527f4c554b534f205374616e64617264204c535038204e465473207769746820612060208201527f736d696c65203a29204f6e6c792033373238204c756b736f4c6f6f676965732060408201527f617661696c61626c65206f6e206120707269636520637572766520696e63726560608201527f6173696e6720302e322520776974682065616368206e6577206d696e742e205460808201527f6869732066697865642076657273696f6e2073686f77732070726f706572207460a08201527f6f6b656e206174747269627574657320616e64205356472072656e646572696e60c08201526319cb888b60e21b60e082015260e4016000805160206148bb833981519152815260008051602061497b83398151915260208201527f7070227d2c7b227469746c65223a2254776974746572222c2275726c223a226860408201527f747470733a2f2f747769747465722e636f6d2f6c756b736f4c6f6f67696573226060820152621f574b60ea1b6080820152608301611abc906136a3565b611ac5906136bb565b611ace906136d3565b611ad7906136ec565b611ae091613665565b611ae990613695565b611af29061371f565b611afb91613665565b61227d60f01b8152600201627d5d5d60e81b8152600301617d7d60f01b81526002010391601f19928381018252611b32908261066e565b611b3b816143af565b92604051809460208201611b4e90613783565b611b5791613665565b039081018452611b67908461066e565b51902090611b74916137ac565b611b7d906121ca565b80f35b503461037057608036600319011261037057611b9a610a7c565b60243560443591611baa83610ded565b6064356001600160401b03811161037057611bc9903690600401610df7565b611bd28361247c565b936001600160a01b038086169033829003611c23575b8416908115611394571461138257611c0382828688876128b3565b611c0957005b610e789361134f61135d92604051958693602085016125f4565b8481163314611be85760405163760b5acd60e01b81523360048201526001600160a01b038816602482015260448101879052606490fd5b5034610370576020366003190112610370576004356001600160401b03811161037057611c8b903690600401610876565b611c958151611ee5565b9060005b8151811015611cd45780611cb8611cb260019385611f46565b51611ec6565b611cc28286611f46565b52611ccd8185611f46565b5001611c99565b6040518061043785826108d4565b50600080600319360112610fe25761043790611d03610e90600654106131d4565b611d2d611d28611d20600c54611d1b8134101561320f565b613259565b6103e8900490565b600c55565b611d3b610c136006546132c2565b610d4160065491611d59610c3684600052600a602052604060002090565b611dc3610d12610cdf611d6b4361303e565b40604051611d8681610c6f6020820194309033908d88613308565b519020610ccd81861a60f81b6001600160f81b031916600183901a60f01b60ff60f01b1617600283901a60e81b60ff60e81b1617610cbc89610375565b611dcc84610395565b55611dd9610d2d846103a5565b611deb611de4612029565b84336133d8565b8080803473a81a6a910fed20374361b35c451a4a44f86ced465af1611e0e61203c565b5061337f565b503461037057602036600319011261037057611e2e610a7c565b611e36612ea0565b6001600160a01b039081168015611e7257600080546001600160a01b031981168317825590921660008051602061499b8339815191528380a380f35b60405162461bcd60e51b815260206004820152602660248201527f4f776e61626c653a206e6577206f776e657220697320746865207a65726f206160448201526564647265737360d01b6064820152608490fd5b6000526001602052610565610504604060002060405192838092610afe565b90611eef82610850565b611efc604051918261066e565b8281528092611f0d601f1991610850565b019060005b828110611f1e57505050565b806060602080938501015201611f12565b50634e487b7160e01b600052603260045260246000fd5b6020918151811015611f5b575b60051b010190565b611f63611f2f565b611f53565b60043610611f79576105049061206c565b6044604051809263e5099ee360e01b825260206004830152806024830152806000848401376000828201840152601f01601f19168101030190fd5b503415611fcd576040516330fa4a2160e11b8152600490fd5b606460405163e5099ee360e01b8152602060048201526004602482015260006044820152fd5b908092918237016000815290565b9060349391816000823760609390931b6001600160601b031916920191825260148201520190565b6040519061203682610602565b60008252565b3d15612067573d9061204d82610691565b9161205b604051938461066e565b82523d6000602084013e565b606090565b60609063ffffffff60e01b60003516916120bc6120b7604051696773c5a04a6d4300884b60b11b60208201526000602a82015285602c820152602081526120b28161061d565b6121a7565b611ec6565b805160148114159081612168575b50612143576120d890612172565b901c91821561211f5750600091829160405161210081610c6f60208201943490339087612001565b519134905af161210e61203c565b90156121175790565b602081519101fd5b60405163bb370b2b60e01b81526001600160e01b0319919091166004820152602490fd5b6040516342bfe79f60e01b81526020600482015290819061137e9060248301906104ce565b90501515386120ca565b80516020909101516001600160601b031980821693929091906014811061219857505050565b60140360031b82901b16169150565b6020815191015190602081106121bb575090565b6000199060200360031b1b1690565b600080516020614a7b83398151915261220360008051602061495b8339815191529283600052600160205261056c816040600020612386565b0390a2565b907ff675e9361af1c1664c1868cfa3eb97672d6b1a513aa5b81dec34c9ee330e818d82146122f3576000805160206148db8339815191528203612257576040516385c169bd60e01b8152600490fd5b6000805160206149bb833981519152820361227e57604051630eceab6760e31b8152600490fd5b7fe0261fa95db2eb3b5439bd033cda66d56b96f92f243a8228fd87550ed7bdfdb382036122b757604051634ef6d7fb60e01b8152600490fd5b612203816122e7600080516020614a7b833981519152936122e2866000526001602052604060002090565b612386565b604051918291826104f3565b604051631b32400560e11b8152600490fd5b9060031b600019811b9283911b169119161790565b91612326918354612305565b9055565b818110612335575050565b6000815560010161232a565b9190601f811161235057505050565b610baf926000526020600020906020601f840160051c8301931061237c575b601f0160051c019061232a565b909150819061236f565b81519192916001600160401b038111612455575b6123ae816123a88454610ac4565b84612341565b602080601f83116001146123ea5750819293946000926123df575b50508160011b916000199060031b1c1916179055565b0151905038806123c9565b90601f1983169561240085600052602060002090565b926000905b88821061243d57505083600195969710612424575b505050811b019055565b015160001960f88460031b161c1916905538808061241a565b80600185968294968601518155019501930190612405565b61245d6105c2565b61239a565b6001600160a01b0316600090815260046020526040902090565b6000818152600360205260409020546001600160a01b0316908115610dd5575090565b91908110156124e1575b60051b81013590601e19813603018212156103705701803591906001600160401b038311610370576020018236038113610370579190565b6124e9611f2f565b6124a9565b91906124f981611ee5565b92600091825b81811061250c5750505050565b838061251983858761249f565b6040939161252b855180938193611ff3565b0390305af49061253961203c565b911561256057509060019161254e8289611f46565b526125598188611f46565b50016124ff565b81519192911561257257825160208401fd5b5163234eb81960e01b8152600481019190915260249150fd5b6001600160a01b0391821681526020810192909252909116604082015260600190565b6001600160a01b039091168152602081019190915260400190565b610504939260809260018060a01b0316825260208201526001604082015281606082015201906104ce565b610504939260809260018060a01b0316825260208201526000604082015281606082015201906104ce565b6001600160a01b03806126318461247c565b16911690811491821561264357505090565b610504925060005260056020526040600020613012565b90929391612668813361261f565b156127c5576126768161247c565b6001600160a01b0381811691848216918284036127a857808816938415612796576126a08661247c565b918216036127665750509261275c8380610baf99979461134f99976126c86127619887612a18565b6126da836126d588612462565b6130a5565b506126ed836126e88b612462565b612fad565b5061272589612706856000526003602052604060002090565b80546001600160a01b0319166001600160a01b03909216919091179055565b604051600080516020614a1b83398151915290806127458a8e338461297c565b0390a46040519788948592888633602087016129de565b612d84565b612e20565b604051635a9c31d360e01b8152600481018690526001600160a01b03928316602482015291166044820152606490fd5b6040516324ecef4d60e01b8152600490fd5b604051632d938f5160e11b81528061137e8888866004850161258b565b60449060405190631294d2a960e01b82526004820152336024820152fd5b9493909192855193835185148015906128a8575b801561289d575b8015612892575b6128805760005b85811061281d575050505050509050565b8061287a61283d6128306001948c611f46565b516001600160a01b031690565b61284a612830848a611f46565b6128548487611f46565b51612868612862868a611f46565b51151590565b91612873868b611f46565b519361265a565b0161280c565b6040516393a8311960e01b8152600490fd5b508251851415612805565b5081518514156127fe565b5080518514156127f7565b91939284600052600560205260406000209260018060a01b03906128da82821680966130a5565b156129175750906129126000805160206149fb83398151915293926040519384931515845260406020850152169560408301906104ce565b0390a4565b6040516312a8c6a360e21b815290819061137e908990600484016125ae565b6000908152600360205260409020546001600160a01b0316151590565b6001600160a01b03909116815260016020820152606060408201819052610504929101906104ce565b6001600160a01b0390911681529015156020820152606060408201819052610504929101906104ce565b6001600160a01b0391821681526000602082015291166040820152606081019190915260a060808201819052610504929101906104ce565b6001600160a01b03918216815291811660208301529091166040820152606081019190915260a060808201819052610504929101906104ce565b9060009080825260059160209383855260409182812094855495825b878110612a4657505050505050505050565b815415612adc575b8184528884205486516001600160a01b0391821691612a6c82610602565b868252898752858c52612a81838a89206130a5565b15612ac157600193926000805160206149fb8339815191528d89612ab88e968e968e888051968796875286015216968301906104ce565b0390a401612a34565b88516312a8c6a360e21b81528061137e8c86600484016125ae565b612ae4611f2f565b612a4e565b9190604051926020840152604083015260408252610baf82610638565b9091612b128383612ae9565b805160208092012060005260019081815260406000209183519160018060401b038311612c2a575b612b4e83612b488654610ac4565b86612341565b80601f8411600114612ba85750918080612b98959360008051602061487b8339815191529795600093612b9d575b501b916000199060031b1c1916179055604051918291826104f3565b0390a3565b860151925038612b7c565b90601f939293198316612bc086600052602060002090565b926000905b828210612c13575050918391612b98969460008051602061487b83398151915298969410612bfa575b5050811b0190556122e7565b85015160001960f88460031b161c191690553880612bee565b808785968294968c01518155019501930190612bc5565b612c326105c2565b612b3a565b602081830312610370578051906001600160401b038211610370570181601f82011215610370578051612c6981610691565b92612c77604051948561066e565b818452602082840101116103705761050491602080850191016104ab565b906040610504927f0b084a55ebf70fd3c06fd755269dac2212c4d3f0f4d09079780bfa50c1b2984d815281602082015201906104ce565b506040513d6000823e3d90fd5b612ce281612ef8565b612cea575050565b612d3d600092918392604051948580948193631aed5a8560e21b83527f8a1c15a8799f71b547e08e2bcb2e85257e81b0a07eee2ce6712549eef1f0097060048401526040602484015260448301906104ce565b03926001600160a01b03165af18015612d77575b612d585750565b612d74903d806000833e612d6c818361066e565b810190612c37565b50565b612d7f612ccc565b612d51565b612d8d81612ef8565b612d95575050565b612d3d600092918392604051948580948193631aed5a8560e21b83527fb23eae7e6d1564b295b4c3e3be402d9a2f0776c57bdf365903496f6fa481ab0060048401526040602484015260448301906104ce565b612df181612ef8565b15612e1c57604051631aed5a8560e21b8152916000918391829084908290612d3d9060048301612c95565b5050565b9190612e2b83612ef8565b15612e555750612d3d6000928392604051948580948193631aed5a8560e21b835260048301612c95565b905015612e5f5750565b803b15612e8357604051634349776d60e01b815290819061137e9060048301610a38565b604051630317313760e01b815290819061137e9060048301610a38565b6000546001600160a01b03163303612eb457565b606460405162461bcd60e51b815260206004820152602060248201527f4f776e61626c653a2063616c6c6572206973206e6f7420746865206f776e65726044820152fd5b6000602091604051838101906301ffc9a760e01b8252631aed5a8560e21b602482015260248152612f2881610638565b5191617530fa6000513d82612f49575b5081612f42575090565b9050151590565b60201115915038612f38565b600090602092604051848101916301ffc9a760e01b835263ffffffff60e01b16602482015260248152612f2881610638565b8054821015612fa0575b60005260206000200190600090565b612fa8611f2f565b612f91565b612fb78282613012565b61300b578082612fe7612fde600194548560401b811015612ffe575b858101855584612f87565b81939154612305565b905580549260005201602052604060002055600190565b6130066105c2565b612fd3565b5050600090565b60019160005201602052604060002054151590565b50634e487b7160e01b600052601160045260246000fd5b60001981019190821161304d57565b610baf613027565b9061032a91820391821161304d57565b805490811561308f576000199182019161307f8383612f87565b909182549160031b1b1916905555565b634e487b7160e01b600052603160045260246000fd5b6001810191806000528260205260406000205492831515600014613169576130f761310693600095861980820182811161315c575b835491820191821161314f575b80820361310c575b505050613065565b90600052602052604060002090565b55600190565b613136613130916131206131469487612f87565b90549060031b1c92839187612f87565b9061231a565b8590600052602052604060002090565b553880806130ef565b613157613027565b6130e7565b613164613027565b6130da565b50505050600090565b9060405191828154918282526020928383019160005283600020936000905b8282106131a757505050610baf9250038361066e565b855484526001958601958895509381019390910190613191565b610504916001600160a01b031690612fad565b156131db57565b60405162461bcd60e51b815260206004820152600c60248201526b444f4e45204d494e54494e4760a01b6044820152606490fd5b1561321657565b60405162461bcd60e51b815260206004820152600a60248201526909c9ea8408a9c9eaa8e960b31b6044820152606490fd5b908160370291603783040361304d57565b906103ea9182810292818404149015171561304d57565b908160090291600983040361304d57565b600281901b91906001600160fe1b0381160361304d57565b908160011b918083046002149015171561304d57565b8181029291811591840414171561304d57565b906001820180921161304d57565b602301908160231161304d57565b60b401908160b41161304d57565b906002820180921161304d57565b600201908160021161304d57565b9291606894918452602084015260018060601b0319809260601b16604084015260601b1660548201520190565b61333f8154610ac4565b601f811161335d575b506012681b1d5adcdbdb985d5d60ba1b019055565b6133799082600052601f6020600020910160051c81019061232a565b38613348565b1561338657565b60405162461bcd60e51b815260206004820152600e60248201526d18dbdd5b19081b9bdd081cd95b9960921b6044820152606490fd5b60019060001981146133cc570190565b6133d4613027565b0190565b909291906001600160a01b0381168015612796576133f585612936565b6134855761340285612936565b6134855784610baf94956134809261342361341e6002546133bc565b600255565b613430826126e887612462565b5061344985612706846000526003602052604060002090565b6000600080516020614a1b833981519152604051806134698a3383612953565b0390a461134f6040519485928533602086016129a6565b612de8565b6040516334c7b51160e01b815260048101869052602490fd5b156134a557565b60405162461bcd60e51b81526020600482015260146024820152731314d40e0e88139bdd08185d5d1a1bdc9a5e995960621b6044820152606490fd5b90816020910312610370575161050481610ded565b6040516301ffc9a760e01b808252633a271fff60e01b60048301526001600160a01b0392909216916020918281602481875afa600091816135b1575b506135405750505050600090565b61354c57505050600090565b604051908152631aed5a8560e21b6004820152918190839060249082905afa918291600093613582575b50506105045750600090565b6135a2929350803d106135aa575b61359a818361066e565b8101906134e1565b903880613576565b503d613590565b6135c9919250843d86116135aa5761359a818361066e565b9038613532565b61360d6120b7604051696773c5a04a6d4300884b60b11b60208201526000602a8201526301ffc9a760e01b602c820152602081526120b28161061d565b80516014811415908161363c575b506121435761362990612172565b60601c90811561300b5761050491612f55565b905015153861361b565b621e339f60e91b815260030190565b631e17b39f60e11b815260040190565b906133d4602092828151948592016104ab565b707b224c5350344d65746164617461223a7b60781b815260110190565b61088b60f21b815260020190565b6b22696d61676573223a5b5b7b60a01b8152600c0190565b6b089dda591d1a088e8d0c0c0b60a21b8152600c0190565b6c089a195a59da1d088e8d0c0c0b609a1b8152600d0190565b7f2275726c223a22646174613a696d6167652f7376672b786d6c3b6261736536348152600b60fa1b602082015260210190565b7f22766572696669636174696f6e223a7b226d6574686f64223a226b656363616b815273191a9b14313cba32b9949116113230ba30911d1160611b602082015260340190565b710b089d1e5c19488e889b9d5b58995c889f4b60721b815260120190565b7f646174613a6170706c69636174696f6e2f6a736f6e3b6261736536342c0000008152601d0190565b6048610baf91939293604051948591650379abe3500160c51b602084015260288301526137e281518092602086860191016104ab565b810103602881018552018361066e565b9060008051602061495b83398151915281036142ea57506138128161247c565b61381b906134f6565b50613825816103a5565b61382e90610b94565b9061383881610385565b5461384290614717565b9161384c82610375565b5460e81b613859906147bf565b61386283610395565b5461386c90614717565b9061387684610385565b5461388090613270565b61388990613055565b600b900461389690614717565b60405192839260208401976138f18960579060008051602061489b83398151915281526000805160206149db833981519152602082015276103b34b2bba137bc1e91181018101a1818101a1818111f60491b60408201520190565b7f3c726563742077696474683d2234303022206865696768743d2234303022206681526b34b6361e911198181811179f60a11b6020820152602c0161393590613646565b7f3c7465787420783d2235302220793d223530222066696c6c3d2223304630222081527f666f6e742d66616d696c793d226d6f6e6f7370616365223e313c2f746578743e60208201526040017f3c7465787420783d223130302220793d223830222066696c6c3d22233046302281526000805160206148fb8339815191526020820152601f60f91b60408201526041017f3c7465787420783d223135302220793d22313230222066696c6c3d2223304630815260008051602061485b8339815191526020820152613a1f60f11b60408201526042017f3c7465787420783d223230302220793d223630222066696c6c3d22233046302281526000805160206148fb8339815191526020820152601f60f91b60408201526041017f3c7465787420783d223235302220793d223930222066696c6c3d2223304630228152600080516020614a5b8339815191526020820152601f60f91b60408201526041017f3c7465787420783d223330302220793d22313530222066696c6c3d2223304630815260008051602061493b8339815191526020820152613a1f60f11b60408201526042017f3c7465787420783d2237302220793d22323030222066696c6c3d2223304630228152600080516020614a5b8339815191526020820152601f60f91b60408201526041017f3c7465787420783d223133302220793d22323530222066696c6c3d2223304630815260008051602061493b8339815191526020820152613a1f60f11b60408201526042017f3c7465787420783d223232302220793d22333030222066696c6c3d2223304630815260008051602061485b8339815191526020820152613a1f60f11b60408201526042017f3c7465787420783d223238302220793d22333530222066696c6c3d2223304630815260008051602061493b8339815191526020820152613a1f60f11b6040820152604201613bf390613655565b613bfc90613646565b7f3c656c6c697073652063783d223230342e35222063793d223231312e382220728152623c1e9160e91b6020820152602301613c3791613665565b72222072793d2235312e38222066696c6c3d222360681b8152601301613c5c91613665565b7f22207374726f6b653d222330303022207374726f6b652d77696474683d223322815261179f60f11b60208201526022017f3c656c6c697073652063783d223138312e35222063793d223135342e35222072815260008051602061491b8339815191526020820152600080516020614a3b8339815191526040820152605f017f3c656c6c697073652063783d223230392e35222063793d223136382e35222072815260008051602061491b8339815191526020820152600080516020614a3b8339815191526040820152605f017f3c636972636c652063783d223137332e35222063793d223135342e352220723d8152721119971a91103334b6361e911198181811179f60691b60208201526033017f3c636972636c652063783d22323038222063793d223136392e352220723d2233815270171a91103334b6361e911198181811179f60791b60208201526031017f3c7061746820643d224d203133302032343020512031363520323530200000008152601d01613dda91613665565b7f2032333522207374726f6b653d222330303022207374726f6b652d776964746881527f3d2233222066696c6c3d227472616e73706172656e7422207472616e73666f7260208201526c0da7a44e8e4c2dce6d8c2e8ca5609b1b6040820152604d01613e4591613665565b6516181491179f60d11b81526006017f3c7465787420783d223230302220793d223239302220746578742d616e63686f81527f723d226d6964646c65222066696c6c3d22234646462220666f6e742d66616d6960208201527f6c793d2273616e732d73657269662220666f6e742d73697a653d223136223e006040820152605f01613ed09084613665565b661e17ba32bc3a1f60c91b8152600701613ee990613655565b651e17b9bb339f60d11b81526006010393601f19948581018352613f0d908361066e565b8151902090613f1b906143af565b91613f2584614496565b604051674c6f6f676965202360c01b60208201529490859060288201613f4a91613665565b038681018652613f5a908661066e565b613f6381610375565b5460e81b613f70906147bf565b92613f7a82610385565b54613f8490614717565b93613f8e83610395565b54613f9890614717565b6040517954686973204c6f6f6769652069732074686520636f6c6f72202360301b6020820152958692603a8401613fce91613665565b750103bb4ba3410309031b43ab13134b732b9b99037b3160551b8152601601613ff691613665565b7401030b7321036b7baba34103632b733ba341037b31605d1b815260150161401d91613665565b601760f91b8152600101038781018552614037908561066e565b61404090614645565b9061404a81610375565b5460e81b614057906147bf565b61406082610385565b5461406a90614717565b9161407490610395565b5461407e90614717565b9260405196879660208801996140938b613678565b67113730b6b2911d1160c11b81526008016140ad91613665565b6140b690613695565b6e113232b9b1b934b83a34b7b7111d1160891b8152600f016140d791613665565b6140e090613695565b6000805160206148bb833981519152815260008051602061497b8339815191526020820152651c1c089f574b60d21b6040820152604601614120906136a3565b614129906136bb565b614132906136d3565b61413b906136ec565b61414491613665565b61414d90613695565b6141569061371f565b61415f91613665565b61227d60f01b8152600201631f57574b60e21b81526004016d2261747472696275746573223a5b60901b8152600e01787b226b6579223a22636f6c6f72222c2276616c7565223a222360381b81526019016141b991613665565b72088b089d1e5c19488e889cdd1c9a5b99c89f4b606a1b81526013017b3d9135b2bc911d1131b43ab13134b732b9b99116113b30b63ab2911d60211b8152601c0161420391613665565b61420c90613765565b7f7b226b6579223a226d6f7574684c656e677468222c2276616c7565223a0000008152601d0161423b91613665565b61424490613765565b7a3d9135b2bc911d113ab9b2b93730b6b29116113b30b63ab2911d1160291b8152601b0161427191613665565b71222c2274797065223a22737472696e67227d60701b8152601201625d7d7d60e81b81526003010383810182526142a8908261066e565b6142b1816143af565b926040518094602082016142c490613783565b6142cd91613665565b0390810184526142dd908461066e565b51902090610504916137ac565b61050491906142f891612ae9565b602081519101206000526001602052610565610504604060002060405192838092610afe565b6040519061432b82610638565b604082527f6768696a6b6c6d6e6f707172737475767778797a303132333435363738392b2f6040837f4142434445464748494a4b4c4d4e4f505152535455565758595a61626364656660208201520152565b9061438782610691565b614394604051918261066e565b82815280926143a5601f1991610691565b0190602036910137565b80511561448d576143be61431e565b6143e26143dd6143d86143d185516132ec565b6003900490565b613281565b61437d565b91602083019181825183016020810191825193600084525b82821061443b57505050525160039006600181146144285760021461441d575090565b603d90600019015390565b50603d9081600019820153600119015390565b9091956004906003809401938451600190603f9082828260121c16880101518553828282600c1c16880101518386015382828260061c16880101516002860153168501015190820153019591906143fa565b50610504612029565b6000908072184f03e93ff9f4daa797ed6e38ed64bf6a1f0160401b808210156145c5575b506904ee2d6d415b85acef8160201b808310156145b6575b50662386f26fc10000808310156145a7575b506305f5e10080831015614598575b5061271080831015614589575b506064821015614579575b600a8092101561456f575b60019081602161452782870161437d565b95860101905b614539575b5050505090565b600019019083906f181899199a1a9b1b9c1cb0b131b232b360811b8282061a83530491821561456a5791908261452d565b614532565b9160010191614516565b919060646002910491019161450b565b60049193920491019138614500565b600891939204910191386144f3565b601091939204910191386144e4565b602091939204910191386144d2565b6040935081049150386144ba565b604051906145e08261061d565b601082526f181899199a1a9b1b9c1cb0b131b232b360811b6020830152565b60209080511561460d570190565b6133d4611f2f565b60219080516001101561460d570190565b90602091805182101561463857010190565b614640611f2f565b010190565b9061464e6145d3565b916040519061465c82610653565b60428252602090606036838501376030614675846145ff565b53607861468184614615565b53600090815b8381106146975750929450505050565b614712906146eb6146b7600f85841a6146c583600483901c84168e614626565b516001600160f81b03191690565b6146e36146d96146d488613299565b6132fa565b918a1a918c614626565b53168a614626565b61470c6147026146fd6146d485613299565b6132c2565b91861a9188614626565b536133bc565b614687565b80156147a1576000818181805b61478957506147328161437d565b935b61473e5750505090565b6147479061303e565b90600a906030828206810180911161477c575b60f81b6001600160f81b031916841a6147738487614626565b53049081614734565b614784613027565b61475a565b9150614796600a916133bc565b910480849291614724565b506040516147ae8161061d565b60018152600360fc1b602082015290565b906147c86145d3565b604051906147d58261061d565b60068252602036818401376000805b600381106147f457509193505050565b614855906001600160f81b031961483a600f89841a8361481a600483901c84168a614626565b511661483261482887613299565b91891a918b614626565b531686614626565b511661470c61484b6146fd84613299565b91851a9187614626565b6147e456fe2220666f6e742d66616d696c793d226d6f6e6f7370616365223e313c2f746578a6e4251f855f750545fe414f120db91c76b88def14d120969e5bb2d3f05debbb3c73766720786d6c6e733d22687474703a2f2f7777772e77332e6f72672f3230226c696e6b73223a5b7b227469746c65223a2257656273697465222c2275726cdeba1e292f8ba88238e10ab3c7f88bd4be4fac56cad5194b6ecceaf653468af120666f6e742d66616d696c793d226d6f6e6f7370616365223e303c2f74657874783d2232392e35222072793d2232392e35222066696c6c3d22234646462220732220666f6e742d66616d696c793d226d6f6e6f7370616365223e303c2f7465789afb95cacc9f95858ec44aa8c3b685511002e30ae54415823f406128b85b238e223a2268747470733a2f2f6c756b736f6c6f6f676965732e76657263656c2e618be0079c531659141344cd1fd0a4f28419497f9722a3daafe3b4186f6b6457e02f0a68ab07768e01943a599e73362a0e17a63a72e94dd2e384d2c1d4db93275630302f737667222077696474683d2234303022206865696768743d2234303022c78cd419d6136f9f1c1c6aec1d3fae098cffaf8bc86314a8f2685e32fe574e3cb333c813a7426a7a11e2b190cad52c44119421594b47f6f32ace6d8c7207b2bf74726f6b653d222330303022207374726f6b652d77696474683d2233222f3e0020666f6e742d66616d696c793d226d6f6e6f7370616365223e313c2f74657874ece574603820d07bc9b91f2a932baadf4628aabcb8afba49776529c14a6104b2a26469706673582212201f6f0dc780a61a283099e2136984bb6dc8959e383eb76c47e1e033a86bf5832964736f6c63430008110033",
  "devdoc": {
    "errors": {
      "ERC725Y_DataKeysValuesEmptyArray()": [
        {
          "details": "Reverts when one of the array parameter provided to {setDataBatch} function is an empty array."
        }
      ],
      "ERC725Y_DataKeysValuesLengthMismatch()": [
        {
          "details": "Reverts when there is not the same number of elements in the `datakeys` and `dataValues` array parameters provided when calling the {setDataBatch} function."
        }
      ],
      "ERC725Y_MsgValueDisallowed()": [
        {
          "details": "Reverts when sending value to the {setData} or {setDataBatch} function."
        }
      ],
      "InvalidExtensionAddress(bytes)": [
        {
          "details": "reverts when the bytes retrieved from the LSP17 data key is not a valid address (not 20 bytes)"
        }
      ],
      "InvalidFunctionSelector(bytes)": [
        {
          "details": "reverts when the contract is called with a function selector not valid (less than 4 bytes of data)"
        }
      ],
      "LSP4TokenNameNotEditable()": [
        {
          "details": "Reverts when trying to edit the data key `LSP4TokenName` after the digital asset contract has been deployed / initialized. The `LSP4TokenName` data key is located inside the ERC725Y data key-value store of the digital asset contract. It can be set only once inside the constructor/initializer when the digital asset contract is being deployed / initialized."
        }
      ],
      "LSP4TokenSymbolNotEditable()": [
        {
          "details": "Reverts when trying to edit the data key `LSP4TokenSymbol` after the digital asset contract has been deployed / initialized. The `LSP4TokenSymbol` data key is located inside the ERC725Y data key-value store of the digital asset contract. It can be set only once inside the constructor/initializer when the digital asset contract is being deployed / initialized."
        }
      ],
      "LSP4TokenTypeNotEditable()": [
        {
          "details": "Reverts when trying to edit the data key `LSP4TokenType` after the digital asset contract has been deployed / initialized. The `LSP4TokenType` data key is located inside the ERC725Y data key-value store of the digital asset contract. It can be set only once inside the constructor / initializer when the digital asset contract is being deployed / initialized."
        }
      ],
      "LSP8BatchCallFailed(uint256)": [
        {
          "details": "Reverts when a batch call failed."
        }
      ],
      "LSP8CannotSendToAddressZero()": [
        {
          "details": "Reverts when trying to send token to the zero address."
        }
      ],
      "LSP8CannotUseAddressZeroAsOperator()": [
        {
          "details": "Reverts when trying to set the zero address as an operator."
        }
      ],
      "LSP8InvalidTransferBatch()": [
        {
          "details": "Reverts when the parameters used for `transferBatch` have different lengths."
        }
      ],
      "LSP8NonExistentTokenId(bytes32)": [
        {
          "details": "Reverts when `tokenId` has not been minted."
        }
      ],
      "LSP8NonExistingOperator(address,bytes32)": [
        {
          "details": "Reverts when `operator` is not an operator for the `tokenId`."
        }
      ],
      "LSP8NotTokenOperator(bytes32,address)": [
        {
          "details": "Reverts when `caller` is not an allowed operator for `tokenId`."
        }
      ],
      "LSP8NotTokenOwner(address,bytes32,address)": [
        {
          "details": "Reverts when `caller` is not the `tokenOwner` of the `tokenId`."
        }
      ],
      "LSP8NotifyTokenReceiverContractMissingLSP1Interface(address)": [
        {
          "details": "Reverts if the `tokenReceiver` does not implement LSP1 when minting or transferring tokens with `bool force` set as `false`."
        }
      ],
      "LSP8NotifyTokenReceiverIsEOA(address)": [
        {
          "details": "Reverts if the `tokenReceiver` is an EOA when minting or transferring tokens with `bool force` set as `false`."
        }
      ],
      "LSP8OperatorAlreadyAuthorized(address,bytes32)": [
        {
          "details": "Reverts when `operator` is already authorized for the `tokenId`."
        }
      ],
      "LSP8RevokeOperatorNotAuthorized(address,address,bytes32)": [
        {
          "details": "Reverts when the call to revoke operator is not authorized."
        }
      ],
      "LSP8TokenContractCannotHoldValue()": [
        {
          "details": "Error occurs when sending native tokens to the LSP8 contract without sending any data. E.g. Sending value without passing a bytes4 function selector to call a LSP17 Extension."
        }
      ],
      "LSP8TokenIdAlreadyMinted(bytes32)": [
        {
          "details": "Reverts when `tokenId` has already been minted."
        }
      ],
      "LSP8TokenIdFormatNotEditable()": [
        {
          "details": "Reverts when trying to edit the data key `LSP8TokenIdFormat` after the identifiable digital asset contract has been deployed. The `LSP8TokenIdFormat` data key is located inside the ERC725Y Data key-value store of the identifiable digital asset contract. It can be set only once inside the constructor/initializer when the identifiable digital asset contract is being deployed."
        }
      ],
      "LSP8TokenIdsDataEmptyArray()": [
        {
          "details": "Reverts when empty arrays is passed to the function"
        }
      ],
      "LSP8TokenIdsDataLengthMismatch()": [
        {
          "details": "Reverts when the length of the token IDs data arrays is not equal"
        }
      ],
      "LSP8TokenOwnerCannotBeOperator()": [
        {
          "details": "Reverts when trying to authorize or revoke the token's owner as an operator."
        }
      ],
      "LSP8TokenOwnerChanged(bytes32,address,address)": [
        {
          "details": "Reverts when the token owner changed inside the {_beforeTokenTransfer} hook."
        }
      ],
      "NoExtensionFoundForFunctionSelector(bytes4)": [
        {
          "details": "reverts when there is no extension for the function selector being called with"
        }
      ],
      "OwnableCannotSetZeroAddressAsOwner()": [
        {
          "details": "Reverts when trying to set `address(0)` as the contract owner when deploying the contract or initializing it."
        }
      ]
    },
    "kind": "dev",
    "methods": {
      "authorizeOperator(address,bytes32,bytes)": {
        "details": "Allow an `operator` address to transfer or burn a specific `tokenId` on behalf of its token owner. See {isOperatorFor}. Notify the operator based on the LSP1-UniversalReceiver standard",
        "params": {
          "operator": "The address to authorize as an operator.",
          "operatorNotificationData": "The data to notify the operator about via LSP1.",
          "tokenId": "The token ID operator has access to."
        }
      },
      "balanceOf(address)": {
        "details": "Get the number of token IDs owned by `tokenOwner`.",
        "params": {
          "tokenOwner": "The address to query     *"
        },
        "returns": {
          "_0": "The total number of token IDs that `tokenOwner` owns."
        }
      },
      "batchCalls(bytes[])": {
        "custom:info": "It's not possible to send value along the functions call due to the use of `delegatecall`.",
        "details": "Allows a caller to batch different function calls in one call. Perform a `delegatecall` on self, to call different functions with preserving the context.",
        "params": {
          "data": "An array of ABI encoded function calls to be called on the contract."
        },
        "returns": {
          "results": "An array of abi-encoded data returned by the functions executed."
        }
      },
      "getData(bytes32)": {
        "details": "Get in the ERC725Y storage the bytes data stored at a specific data key `dataKey`.",
        "params": {
          "dataKey": "The data key for which to retrieve the value."
        },
        "returns": {
          "dataValue": "The bytes value stored under the specified data key."
        }
      },
      "getDataBatch(bytes32[])": {
        "details": "Get in the ERC725Y storage the bytes data stored at multiple data keys `dataKeys`.",
        "params": {
          "dataKeys": "The array of keys which values to retrieve"
        },
        "returns": {
          "dataValues": "The array of data stored at multiple keys"
        }
      },
      "getDataBatchForTokenIds(bytes32[],bytes32[])": {
        "params": {
          "dataKeys": "An array of data keys corresponding to the token IDs.",
          "tokenIds": "An array of token IDs."
        },
        "returns": {
          "dataValues": "An array of data values for each pair of `tokenId` and `dataKey`."
        }
      },
      "getDataForTokenId(bytes32,bytes32)": {
        "params": {
          "dataKey": "The key for the data to retrieve.",
          "tokenId": "The unique identifier for a token."
        },
        "returns": {
          "dataValue": "The data value associated with the given `tokenId` and `dataKey`."
        }
      },
      "getOperatorsOf(bytes32)": {
        "details": "Returns all `operator` addresses that are allowed to transfer or burn a specific `tokenId` on behalf of its owner.",
        "params": {
          "tokenId": "The token ID to get the operators for."
        },
        "returns": {
          "_0": "An array of operators allowed to transfer or burn a specific `tokenId`. Requirements - `tokenId` must exist."
        }
      },
      "isOperatorFor(address,bytes32)": {
        "details": "Returns whether `operator` address is an operator for a given `tokenId`.",
        "params": {
          "operator": "The address to query operator status for.",
          "tokenId": "The token ID to check if `operator` is allowed to operate on."
        },
        "returns": {
          "_0": "`true` if `operator` is an operator for `tokenId`, `false` otherwise."
        }
      },
      "owner()": {
        "details": "Returns the address of the current owner."
      },
      "renounceOwnership()": {
        "details": "Leaves the contract without owner. It will not be possible to call `onlyOwner` functions. Can only be called by the current owner. NOTE: Renouncing ownership will leave the contract without an owner, thereby disabling any functionality that is only available to the owner."
      },
      "revokeOperator(address,bytes32,bool,bytes)": {
        "details": "Remove access of `operator` for a given `tokenId`, disallowing it to transfer `tokenId` on behalf of its owner. See also {isOperatorFor}.",
        "params": {
          "notify": "Boolean indicating whether to notify the operator or not",
          "operator": "The address to revoke as an operator.",
          "operatorNotificationData": "The data to notify the operator about via LSP1.",
          "tokenId": "The tokenId `operator` is revoked from operating on."
        }
      },
      "setData(bytes32,bytes)": {
        "custom:events": "{DataChanged} event.",
        "custom:requirements": "- SHOULD only be callable by the {owner}.",
        "custom:warning": "**Note for developers:** despite the fact that this function is set as `payable`, the function is not intended to receive value (= native tokens). **An additional check has been implemented to ensure that `msg.value` sent was equal to 0**. If you want to allow this function to receive value in your inheriting contract, this function can be overriden to remove this check.",
        "details": "Sets a single bytes value `dataValue` in the ERC725Y storage for a specific data key `dataKey`. The function is marked as payable to enable flexibility on child contracts. For instance to implement a fee mechanism for setting specific data.",
        "params": {
          "dataKey": "The data key for which to set a new value.",
          "dataValue": "The new bytes value to set."
        }
      },
      "setDataBatch(bytes32[],bytes[])": {
        "custom:events": "{DataChanged} event **for each data key/value pair set**.",
        "custom:requirements": "- SHOULD only be callable by the {owner} of the contract.",
        "custom:warning": "**Note for developers:** despite the fact that this function is set as `payable`, the function is not intended to receive value (= native tokens). **An additional check has been implemented to ensure that `msg.value` sent was equal to 0**. If you want to allow this function to receive value in your inheriting contract, this function can be overriden to remove this check.",
        "details": "Batch data setting function that behaves the same as {setData} but allowing to set multiple data key/value pairs in the ERC725Y storage in the same transaction.",
        "params": {
          "dataKeys": "An array of data keys to set bytes values for.",
          "dataValues": "An array of bytes values to set for each `dataKeys`."
        }
      },
      "setDataBatchForTokenIds(bytes32[],bytes32[],bytes[])": {
        "params": {
          "dataKeys": "An array of data keys corresponding to the token IDs.",
          "dataValues": "An array of values to set for the given data keys.",
          "tokenIds": "An array of token IDs."
        }
      },
      "setDataForTokenId(bytes32,bytes32,bytes)": {
        "params": {
          "dataKey": "The key for the data to set.",
          "dataValue": "The value to set for the given data key.",
          "tokenId": "The unique identifier for a token."
        }
      },
      "supportsInterface(bytes4)": {
        "details": "See {IERC165-supportsInterface}."
      },
      "tokenIdsOf(address)": {
        "details": "Returns the list of token IDs that the `tokenOwner` address owns.",
        "params": {
          "tokenOwner": "The address that we want to get the list of token IDs for."
        },
        "returns": {
          "_0": "An array of `bytes32[] tokenIds` owned by `tokenOwner`."
        }
      },
      "tokenOwnerOf(bytes32)": {
        "details": "Returns the address that owns a given `tokenId`.",
        "params": {
          "tokenId": "The token ID to query the owner for."
        },
        "returns": {
          "_0": "The owner address of the given `tokenId`."
        }
      },
      "totalSupply()": {
        "details": "Returns the number of existing tokens that have been minted in this contract.",
        "returns": {
          "_0": "The number of existing tokens."
        }
      },
      "transfer(address,address,bytes32,bool,bytes)": {
        "details": "Transfer a given `tokenId` token from the `from` address to the `to` address. If operators are set for a specific `tokenId`, all the operators are revoked after the tokenId have been transferred. The `force` parameter MUST be set to `true` when transferring tokens to Externally Owned Accounts (EOAs) or contracts that do not implement the LSP1 standard.",
        "params": {
          "data": "Any additional data the caller wants included in the emitted event, and sent in the hooks of the `from` and `to` addresses.",
          "force": "When set to `true`, the `to` address CAN be any address. When set to `false`, the `to` address MUST be a contract that supports the LSP1 UniversalReceiver standard.",
          "from": "The address that owns the given `tokenId`.",
          "to": "The address that will receive the `tokenId`.",
          "tokenId": "The token ID to transfer."
        }
      },
      "transferBatch(address[],address[],bytes32[],bool[],bytes[])": {
        "details": "Transfers multiple tokens at once based on the arrays of `from`, `to` and `tokenId`. If any transfer fails, the whole call will revert.",
        "params": {
          "data": "Any additional data the caller wants included in the emitted event, and sent in the hooks to the `from` and `to` addresses.",
          "force": "When set to `true`, `to` may be any address. When set to `false`, `to` must be a contract that supports the LSP1 standard and not revert.",
          "from": "An array of sending addresses.",
          "to": "An array of recipient addresses.",
          "tokenId": "An array of token IDs to transfer."
        }
      },
      "transferOwnership(address)": {
        "details": "Transfers ownership of the contract to a new account (`newOwner`). Can only be called by the current owner."
      }
    },
    "title": "LSP8LoogiesFixed",
    "version": 1
  },
  "userdoc": {
    "errors": {
      "LSP8BatchCallFailed(uint256)": [
        {
          "notice": "Batch call failed."
        }
      ],
      "LSP8TokenContractCannotHoldValue()": [
        {
          "notice": "LSP8 contract cannot receive native tokens."
        }
      ]
    },
    "events": {
      "DataChanged(bytes32,bytes)": {
        "notice": "The following data key/value pair has been changed in the ERC725Y storage: Data key: `dataKey`, data value: `dataValue`."
      }
    },
    "kind": "user",
    "methods": {
      "batchCalls(bytes[])": {
        "notice": "Executing the following batch of abi-encoded function calls on the contract: `data`."
      },
      "getData(bytes32)": {
        "notice": "Reading the ERC725Y storage for data key `dataKey` returned the following value: `dataValue`."
      },
      "getDataBatch(bytes32[])": {
        "notice": "Reading the ERC725Y storage for data keys `dataKeys` returned the following values: `dataValues`."
      },
      "getDataBatchForTokenIds(bytes32[],bytes32[])": {
        "notice": "Retrieves data in batch for multiple `tokenId` and `dataKey` pairs."
      },
      "getDataForTokenId(bytes32,bytes32)": {
        "notice": "Retrieves data for a specific `tokenId` and `dataKey`."
      },
      "setData(bytes32,bytes)": {
        "notice": "Setting the following data key value pair in the ERC725Y storage. Data key: `dataKey`, data value: `dataValue`."
      },
      "setDataBatch(bytes32[],bytes[])": {
        "notice": "Setting the following data key value pairs in the ERC725Y storage. Data keys: `dataKeys`, data values: `dataValues`."
      },
      "setDataBatchForTokenIds(bytes32[],bytes32[],bytes[])": {
        "notice": "Sets data in batch for multiple `tokenId` and `dataKey` pairs."
      },
      "setDataForTokenId(bytes32,bytes32,bytes)": {
        "notice": "Sets data for a specific `tokenId` and `dataKey`."
      }
    },
    "notice": "A fixed version that follows the Beans.sol pattern, with proper SVG rendering and numeric attributes in token metadata",
    "version": 1
  },
  "storageLayout": {
    "storage": [
      {
        "astId": 3617,
        "contract": "contracts/LSP8LoogiesFixed.sol:LSP8LoogiesFixed",
        "label": "_owner",
        "offset": 0,
        "slot": "0",
        "type": "t_address"
      },
      {
        "astId": 26,
        "contract": "contracts/LSP8LoogiesFixed.sol:LSP8LoogiesFixed",
        "label": "_store",
        "offset": 0,
        "slot": "1",
        "type": "t_mapping(t_bytes32,t_bytes_storage)"
      },
      {
        "astId": 2066,
        "contract": "contracts/LSP8LoogiesFixed.sol:LSP8LoogiesFixed",
        "label": "_existingTokens",
        "offset": 0,
        "slot": "2",
        "type": "t_uint256"
      },
      {
        "astId": 2070,
        "contract": "contracts/LSP8LoogiesFixed.sol:LSP8LoogiesFixed",
        "label": "_tokenOwners",
        "offset": 0,
        "slot": "3",
        "type": "t_mapping(t_bytes32,t_address)"
      },
      {
        "astId": 2075,
        "contract": "contracts/LSP8LoogiesFixed.sol:LSP8LoogiesFixed",
        "label": "_ownedTokens",
        "offset": 0,
        "slot": "4",
        "type": "t_mapping(t_address,t_struct(Bytes32Set)5434_storage)"
      },
      {
        "astId": 2080,
        "contract": "contracts/LSP8LoogiesFixed.sol:LSP8LoogiesFixed",
        "label": "_operators",
        "offset": 0,
        "slot": "5",
        "type": "t_mapping(t_bytes32,t_struct(AddressSet)5555_storage)"
      },
      {
        "astId": 5932,
        "contract": "contracts/LSP8LoogiesFixed.sol:LSP8LoogiesFixed",
        "label": "_tokenIds",
        "offset": 0,
        "slot": "6",
        "type": "t_uint256"
      },
      {
        "astId": 5936,
        "contract": "contracts/LSP8LoogiesFixed.sol:LSP8LoogiesFixed",
        "label": "color",
        "offset": 0,
        "slot": "7",
        "type": "t_mapping(t_bytes32,t_bytes3)"
      },
      {
        "astId": 5940,
        "contract": "contracts/LSP8LoogiesFixed.sol:LSP8LoogiesFixed",
        "label": "chubbiness",
        "offset": 0,
        "slot": "8",
        "type": "t_mapping(t_bytes32,t_uint256)"
      },
      {
        "astId": 5944,
        "contract": "contracts/LSP8LoogiesFixed.sol:LSP8LoogiesFixed",
        "label": "mouthLength",
        "offset": 0,
        "slot": "9",
        "type": "t_mapping(t_bytes32,t_uint256)"
      },
      {
        "astId": 5948,
        "contract": "contracts/LSP8LoogiesFixed.sol:LSP8LoogiesFixed",
        "label": "_tokenIdExists",
        "offset": 0,
        "slot": "10",
        "type": "t_mapping(t_uint256,t_bool)"
      },
      {
        "astId": 5952,
        "contract": "contracts/LSP8LoogiesFixed.sol:LSP8LoogiesFixed",
        "label": "upUsernames",
        "offset": 0,
        "slot": "11",
        "type": "t_mapping(t_bytes32,t_string_storage)"
      },
      {
        "astId": 5967,
        "contract": "contracts/LSP8LoogiesFixed.sol:LSP8LoogiesFixed",
        "label": "price",
        "offset": 0,
        "slot": "12",
        "type": "t_uint256"
      }
    ],
    "types": {
      "t_address": {
        "encoding": "inplace",
        "label": "address",
        "numberOfBytes": "20"
      },
      "t_array(t_bytes32)dyn_storage": {
        "base": "t_bytes32",
        "encoding": "dynamic_array",
        "label": "bytes32[]",
        "numberOfBytes": "32"
      },
      "t_bool": {
        "encoding": "inplace",
        "label": "bool",
        "numberOfBytes": "1"
      },
      "t_bytes3": {
        "encoding": "inplace",
        "label": "bytes3",
        "numberOfBytes": "3"
      },
      "t_bytes32": {
        "encoding": "inplace",
        "label": "bytes32",
        "numberOfBytes": "32"
      },
      "t_bytes_storage": {
        "encoding": "bytes",
        "label": "bytes",
        "numberOfBytes": "32"
      },
      "t_mapping(t_address,t_struct(Bytes32Set)5434_storage)": {
        "encoding": "mapping",
        "key": "t_address",
        "label": "mapping(address => struct EnumerableSet.Bytes32Set)",
        "numberOfBytes": "32",
        "value": "t_struct(Bytes32Set)5434_storage"
      },
      "t_mapping(t_bytes32,t_address)": {
        "encoding": "mapping",
        "key": "t_bytes32",
        "label": "mapping(bytes32 => address)",
        "numberOfBytes": "32",
        "value": "t_address"
      },
      "t_mapping(t_bytes32,t_bytes3)": {
        "encoding": "mapping",
        "key": "t_bytes32",
        "label": "mapping(bytes32 => bytes3)",
        "numberOfBytes": "32",
        "value": "t_bytes3"
      },
      "t_mapping(t_bytes32,t_bytes_storage)": {
        "encoding": "mapping",
        "key": "t_bytes32",
        "label": "mapping(bytes32 => bytes)",
        "numberOfBytes": "32",
        "value": "t_bytes_storage"
      },
      "t_mapping(t_bytes32,t_string_storage)": {
        "encoding": "mapping",
        "key": "t_bytes32",
        "label": "mapping(bytes32 => string)",
        "numberOfBytes": "32",
        "value": "t_string_storage"
      },
      "t_mapping(t_bytes32,t_struct(AddressSet)5555_storage)": {
        "encoding": "mapping",
        "key": "t_bytes32",
        "label": "mapping(bytes32 => struct EnumerableSet.AddressSet)",
        "numberOfBytes": "32",
        "value": "t_struct(AddressSet)5555_storage"
      },
      "t_mapping(t_bytes32,t_uint256)": {
        "encoding": "mapping",
        "key": "t_bytes32",
        "label": "mapping(bytes32 => uint256)",
        "numberOfBytes": "32",
        "value": "t_uint256"
      },
      "t_mapping(t_uint256,t_bool)": {
        "encoding": "mapping",
        "key": "t_uint256",
        "label": "mapping(uint256 => bool)",
        "numberOfBytes": "32",
        "value": "t_bool"
      },
      "t_string_storage": {
        "encoding": "bytes",
        "label": "string",
        "numberOfBytes": "32"
      },
      "t_struct(AddressSet)5555_storage": {
        "encoding": "inplace",
        "label": "struct EnumerableSet.AddressSet",
        "members": [
          {
            "astId": 5554,
            "contract": "contracts/LSP8LoogiesFixed.sol:LSP8LoogiesFixed",
            "label": "_inner",
            "offset": 0,
            "slot": "0",
            "type": "t_struct(Set)5240_storage"
          }
        ],
        "numberOfBytes": "64"
      },
      "t_struct(Bytes32Set)5434_storage": {
        "encoding": "inplace",
        "label": "struct EnumerableSet.Bytes32Set",
        "members": [
          {
            "astId": 5433,
            "contract": "contracts/LSP8LoogiesFixed.sol:LSP8LoogiesFixed",
            "label": "_inner",
            "offset": 0,
            "slot": "0",
            "type": "t_struct(Set)5240_storage"
          }
        ],
        "numberOfBytes": "64"
      },
      "t_struct(Set)5240_storage": {
        "encoding": "inplace",
        "label": "struct EnumerableSet.Set",
        "members": [
          {
            "astId": 5235,
            "contract": "contracts/LSP8LoogiesFixed.sol:LSP8LoogiesFixed",
            "label": "_values",
            "offset": 0,
            "slot": "0",
            "type": "t_array(t_bytes32)dyn_storage"
          },
          {
            "astId": 5239,
            "contract": "contracts/LSP8LoogiesFixed.sol:LSP8LoogiesFixed",
            "label": "_indexes",
            "offset": 0,
            "slot": "1",
            "type": "t_mapping(t_bytes32,t_uint256)"
          }
        ],
        "numberOfBytes": "64"
      },
      "t_uint256": {
        "encoding": "inplace",
        "label": "uint256",
        "numberOfBytes": "32"
      }
    }
  }
}