{
  "address": "0xe1D75B438a4272DEFCa481B660F3781f171d3127",
  "abi": [
    {
      "inputs": [
        {
          "internalType": "address",
          "name": "contractOwner",
          "type": "address"
        }
      ],
      "stateMutability": "nonpayable",
      "type": "constructor"
    },
    {
      "inputs": [],
      "name": "ERC725Y_DataKeysValuesEmptyArray",
      "type": "error"
    },
    {
      "inputs": [],
      "name": "ERC725Y_DataKeysValuesLengthMismatch",
      "type": "error"
    },
    {
      "inputs": [],
      "name": "ERC725Y_MsgValueDisallowed",
      "type": "error"
    },
    {
      "inputs": [
        {
          "internalType": "bytes",
          "name": "storedData",
          "type": "bytes"
        }
      ],
      "name": "InvalidExtensionAddress",
      "type": "error"
    },
    {
      "inputs": [
        {
          "internalType": "bytes",
          "name": "data",
          "type": "bytes"
        }
      ],
      "name": "InvalidFunctionSelector",
      "type": "error"
    },
    {
      "inputs": [],
      "name": "LSP4TokenNameNotEditable",
      "type": "error"
    },
    {
      "inputs": [],
      "name": "LSP4TokenSymbolNotEditable",
      "type": "error"
    },
    {
      "inputs": [],
      "name": "LSP4TokenTypeNotEditable",
      "type": "error"
    },
    {
      "inputs": [
        {
          "internalType": "uint256",
          "name": "callIndex",
          "type": "uint256"
        }
      ],
      "name": "LSP8BatchCallFailed",
      "type": "error"
    },
    {
      "inputs": [],
      "name": "LSP8CannotSendToAddressZero",
      "type": "error"
    },
    {
      "inputs": [],
      "name": "LSP8CannotUseAddressZeroAsOperator",
      "type": "error"
    },
    {
      "inputs": [],
      "name": "LSP8InvalidTransferBatch",
      "type": "error"
    },
    {
      "inputs": [
        {
          "internalType": "bytes32",
          "name": "tokenId",
          "type": "bytes32"
        }
      ],
      "name": "LSP8NonExistentTokenId",
      "type": "error"
    },
    {
      "inputs": [
        {
          "internalType": "address",
          "name": "operator",
          "type": "address"
        },
        {
          "internalType": "bytes32",
          "name": "tokenId",
          "type": "bytes32"
        }
      ],
      "name": "LSP8NonExistingOperator",
      "type": "error"
    },
    {
      "inputs": [
        {
          "internalType": "bytes32",
          "name": "tokenId",
          "type": "bytes32"
        },
        {
          "internalType": "address",
          "name": "caller",
          "type": "address"
        }
      ],
      "name": "LSP8NotTokenOperator",
      "type": "error"
    },
    {
      "inputs": [
        {
          "internalType": "address",
          "name": "tokenOwner",
          "type": "address"
        },
        {
          "internalType": "bytes32",
          "name": "tokenId",
          "type": "bytes32"
        },
        {
          "internalType": "address",
          "name": "caller",
          "type": "address"
        }
      ],
      "name": "LSP8NotTokenOwner",
      "type": "error"
    },
    {
      "inputs": [
        {
          "internalType": "address",
          "name": "tokenReceiver",
          "type": "address"
        }
      ],
      "name": "LSP8NotifyTokenReceiverContractMissingLSP1Interface",
      "type": "error"
    },
    {
      "inputs": [
        {
          "internalType": "address",
          "name": "tokenReceiver",
          "type": "address"
        }
      ],
      "name": "LSP8NotifyTokenReceiverIsEOA",
      "type": "error"
    },
    {
      "inputs": [
        {
          "internalType": "address",
          "name": "operator",
          "type": "address"
        },
        {
          "internalType": "bytes32",
          "name": "tokenId",
          "type": "bytes32"
        }
      ],
      "name": "LSP8OperatorAlreadyAuthorized",
      "type": "error"
    },
    {
      "inputs": [
        {
          "internalType": "address",
          "name": "caller",
          "type": "address"
        },
        {
          "internalType": "address",
          "name": "tokenOwner",
          "type": "address"
        },
        {
          "internalType": "bytes32",
          "name": "tokenId",
          "type": "bytes32"
        }
      ],
      "name": "LSP8RevokeOperatorNotAuthorized",
      "type": "error"
    },
    {
      "inputs": [],
      "name": "LSP8TokenContractCannotHoldValue",
      "type": "error"
    },
    {
      "inputs": [
        {
          "internalType": "bytes32",
          "name": "tokenId",
          "type": "bytes32"
        }
      ],
      "name": "LSP8TokenIdAlreadyMinted",
      "type": "error"
    },
    {
      "inputs": [],
      "name": "LSP8TokenIdFormatNotEditable",
      "type": "error"
    },
    {
      "inputs": [],
      "name": "LSP8TokenIdsDataEmptyArray",
      "type": "error"
    },
    {
      "inputs": [],
      "name": "LSP8TokenIdsDataLengthMismatch",
      "type": "error"
    },
    {
      "inputs": [],
      "name": "LSP8TokenOwnerCannotBeOperator",
      "type": "error"
    },
    {
      "inputs": [
        {
          "internalType": "bytes32",
          "name": "tokenId",
          "type": "bytes32"
        },
        {
          "internalType": "address",
          "name": "oldOwner",
          "type": "address"
        },
        {
          "internalType": "address",
          "name": "newOwner",
          "type": "address"
        }
      ],
      "name": "LSP8TokenOwnerChanged",
      "type": "error"
    },
    {
      "inputs": [
        {
          "internalType": "bytes4",
          "name": "functionSelector",
          "type": "bytes4"
        }
      ],
      "name": "NoExtensionFoundForFunctionSelector",
      "type": "error"
    },
    {
      "inputs": [],
      "name": "OwnableCannotSetZeroAddressAsOwner",
      "type": "error"
    },
    {
      "anonymous": false,
      "inputs": [
        {
          "indexed": true,
          "internalType": "bytes32",
          "name": "dataKey",
          "type": "bytes32"
        },
        {
          "indexed": false,
          "internalType": "bytes",
          "name": "dataValue",
          "type": "bytes"
        }
      ],
      "name": "DataChanged",
      "type": "event"
    },
    {
      "anonymous": false,
      "inputs": [
        {
          "indexed": true,
          "internalType": "address",
          "name": "operator",
          "type": "address"
        },
        {
          "indexed": true,
          "internalType": "address",
          "name": "tokenOwner",
          "type": "address"
        },
        {
          "indexed": true,
          "internalType": "bytes32",
          "name": "tokenId",
          "type": "bytes32"
        },
        {
          "indexed": false,
          "internalType": "bytes",
          "name": "operatorNotificationData",
          "type": "bytes"
        }
      ],
      "name": "OperatorAuthorizationChanged",
      "type": "event"
    },
    {
      "anonymous": false,
      "inputs": [
        {
          "indexed": true,
          "internalType": "address",
          "name": "operator",
          "type": "address"
        },
        {
          "indexed": true,
          "internalType": "address",
          "name": "tokenOwner",
          "type": "address"
        },
        {
          "indexed": true,
          "internalType": "bytes32",
          "name": "tokenId",
          "type": "bytes32"
        },
        {
          "indexed": false,
          "internalType": "bool",
          "name": "notified",
          "type": "bool"
        },
        {
          "indexed": false,
          "internalType": "bytes",
          "name": "operatorNotificationData",
          "type": "bytes"
        }
      ],
      "name": "OperatorRevoked",
      "type": "event"
    },
    {
      "anonymous": false,
      "inputs": [
        {
          "indexed": true,
          "internalType": "address",
          "name": "previousOwner",
          "type": "address"
        },
        {
          "indexed": true,
          "internalType": "address",
          "name": "newOwner",
          "type": "address"
        }
      ],
      "name": "OwnershipTransferred",
      "type": "event"
    },
    {
      "anonymous": false,
      "inputs": [
        {
          "indexed": true,
          "internalType": "bytes32",
          "name": "tokenId",
          "type": "bytes32"
        },
        {
          "indexed": true,
          "internalType": "bytes32",
          "name": "dataKey",
          "type": "bytes32"
        },
        {
          "indexed": false,
          "internalType": "bytes",
          "name": "dataValue",
          "type": "bytes"
        }
      ],
      "name": "TokenIdDataChanged",
      "type": "event"
    },
    {
      "anonymous": false,
      "inputs": [
        {
          "indexed": false,
          "internalType": "address",
          "name": "operator",
          "type": "address"
        },
        {
          "indexed": true,
          "internalType": "address",
          "name": "from",
          "type": "address"
        },
        {
          "indexed": true,
          "internalType": "address",
          "name": "to",
          "type": "address"
        },
        {
          "indexed": true,
          "internalType": "bytes32",
          "name": "tokenId",
          "type": "bytes32"
        },
        {
          "indexed": false,
          "internalType": "bool",
          "name": "force",
          "type": "bool"
        },
        {
          "indexed": false,
          "internalType": "bytes",
          "name": "data",
          "type": "bytes"
        }
      ],
      "name": "Transfer",
      "type": "event"
    },
    {
      "stateMutability": "payable",
      "type": "fallback"
    },
    {
      "inputs": [
        {
          "internalType": "address",
          "name": "operator",
          "type": "address"
        },
        {
          "internalType": "bytes32",
          "name": "tokenId",
          "type": "bytes32"
        },
        {
          "internalType": "bytes",
          "name": "operatorNotificationData",
          "type": "bytes"
        }
      ],
      "name": "authorizeOperator",
      "outputs": [],
      "stateMutability": "nonpayable",
      "type": "function"
    },
    {
      "inputs": [
        {
          "internalType": "address",
          "name": "tokenOwner",
          "type": "address"
        }
      ],
      "name": "balanceOf",
      "outputs": [
        {
          "internalType": "uint256",
          "name": "",
          "type": "uint256"
        }
      ],
      "stateMutability": "view",
      "type": "function"
    },
    {
      "inputs": [
        {
          "internalType": "bytes[]",
          "name": "data",
          "type": "bytes[]"
        }
      ],
      "name": "batchCalls",
      "outputs": [
        {
          "internalType": "bytes[]",
          "name": "results",
          "type": "bytes[]"
        }
      ],
      "stateMutability": "nonpayable",
      "type": "function"
    },
    {
      "inputs": [
        {
          "internalType": "uint256",
          "name": "count",
          "type": "uint256"
        }
      ],
      "name": "batchMintItems",
      "outputs": [
        {
          "internalType": "bytes32[]",
          "name": "",
          "type": "bytes32[]"
        }
      ],
      "stateMutability": "payable",
      "type": "function"
    },
    {
      "inputs": [
        {
          "internalType": "uint256[]",
          "name": "ids",
          "type": "uint256[]"
        }
      ],
      "name": "batchTokenExists",
      "outputs": [
        {
          "internalType": "bool[]",
          "name": "",
          "type": "bool[]"
        }
      ],
      "stateMutability": "view",
      "type": "function"
    },
    {
      "inputs": [
        {
          "internalType": "bytes32",
          "name": "",
          "type": "bytes32"
        }
      ],
      "name": "chubbiness",
      "outputs": [
        {
          "internalType": "uint256",
          "name": "",
          "type": "uint256"
        }
      ],
      "stateMutability": "view",
      "type": "function"
    },
    {
      "inputs": [
        {
          "internalType": "bytes32",
          "name": "",
          "type": "bytes32"
        }
      ],
      "name": "color",
      "outputs": [
        {
          "internalType": "bytes3",
          "name": "",
          "type": "bytes3"
        }
      ],
      "stateMutability": "view",
      "type": "function"
    },
    {
      "inputs": [],
      "name": "curve",
      "outputs": [
        {
          "internalType": "uint256",
          "name": "",
          "type": "uint256"
        }
      ],
      "stateMutability": "view",
      "type": "function"
    },
    {
      "inputs": [],
      "name": "getAllTokenIds",
      "outputs": [
        {
          "internalType": "uint256[]",
          "name": "",
          "type": "uint256[]"
        }
      ],
      "stateMutability": "view",
      "type": "function"
    },
    {
      "inputs": [
        {
          "internalType": "bytes32",
          "name": "key",
          "type": "bytes32"
        }
      ],
      "name": "getData",
      "outputs": [
        {
          "internalType": "bytes",
          "name": "",
          "type": "bytes"
        }
      ],
      "stateMutability": "view",
      "type": "function"
    },
    {
      "inputs": [
        {
          "internalType": "bytes32[]",
          "name": "keys",
          "type": "bytes32[]"
        }
      ],
      "name": "getDataBatch",
      "outputs": [
        {
          "internalType": "bytes[]",
          "name": "",
          "type": "bytes[]"
        }
      ],
      "stateMutability": "view",
      "type": "function"
    },
    {
      "inputs": [
        {
          "internalType": "bytes32[]",
          "name": "tokenIds",
          "type": "bytes32[]"
        },
        {
          "internalType": "bytes32[]",
          "name": "dataKeys",
          "type": "bytes32[]"
        }
      ],
      "name": "getDataBatchForTokenIds",
      "outputs": [
        {
          "internalType": "bytes[]",
          "name": "dataValues",
          "type": "bytes[]"
        }
      ],
      "stateMutability": "view",
      "type": "function"
    },
    {
      "inputs": [
        {
          "internalType": "bytes32",
          "name": "tokenId",
          "type": "bytes32"
        },
        {
          "internalType": "bytes32",
          "name": "dataKey",
          "type": "bytes32"
        }
      ],
      "name": "getDataForTokenId",
      "outputs": [
        {
          "internalType": "bytes",
          "name": "dataValue",
          "type": "bytes"
        }
      ],
      "stateMutability": "view",
      "type": "function"
    },
    {
      "inputs": [
        {
          "internalType": "bytes32",
          "name": "tokenId",
          "type": "bytes32"
        }
      ],
      "name": "getOperatorsOf",
      "outputs": [
        {
          "internalType": "address[]",
          "name": "",
          "type": "address[]"
        }
      ],
      "stateMutability": "view",
      "type": "function"
    },
    {
      "inputs": [
        {
          "internalType": "uint256",
          "name": "offset",
          "type": "uint256"
        },
        {
          "internalType": "uint256",
          "name": "pageSize",
          "type": "uint256"
        }
      ],
      "name": "getTokenIdsPaginated",
      "outputs": [
        {
          "internalType": "uint256[]",
          "name": "",
          "type": "uint256[]"
        }
      ],
      "stateMutability": "view",
      "type": "function"
    },
    {
      "inputs": [
        {
          "internalType": "address",
          "name": "upAddress",
          "type": "address"
        }
      ],
      "name": "getUPName",
      "outputs": [
        {
          "internalType": "string",
          "name": "",
          "type": "string"
        }
      ],
      "stateMutability": "view",
      "type": "function"
    },
    {
      "inputs": [
        {
          "internalType": "uint256[]",
          "name": "tokenIds",
          "type": "uint256[]"
        },
        {
          "internalType": "address[]",
          "name": "owners",
          "type": "address[]"
        },
        {
          "internalType": "bytes3[]",
          "name": "tokenColors",
          "type": "bytes3[]"
        },
        {
          "internalType": "uint256[]",
          "name": "tokenChubbiness",
          "type": "uint256[]"
        },
        {
          "internalType": "uint256[]",
          "name": "tokenMouthLength",
          "type": "uint256[]"
        },
        {
          "internalType": "string[]",
          "name": "tokenUsernames",
          "type": "string[]"
        }
      ],
      "name": "importLegacyTokens",
      "outputs": [],
      "stateMutability": "nonpayable",
      "type": "function"
    },
    {
      "inputs": [
        {
          "internalType": "uint256[]",
          "name": "tokenIds",
          "type": "uint256[]"
        },
        {
          "internalType": "address[]",
          "name": "owners",
          "type": "address[]"
        }
      ],
      "name": "importLegacyTokensSimple",
      "outputs": [],
      "stateMutability": "nonpayable",
      "type": "function"
    },
    {
      "inputs": [
        {
          "internalType": "address",
          "name": "operator",
          "type": "address"
        },
        {
          "internalType": "bytes32",
          "name": "tokenId",
          "type": "bytes32"
        }
      ],
      "name": "isOperatorFor",
      "outputs": [
        {
          "internalType": "bool",
          "name": "",
          "type": "bool"
        }
      ],
      "stateMutability": "view",
      "type": "function"
    },
    {
      "inputs": [
        {
          "internalType": "address",
          "name": "account",
          "type": "address"
        }
      ],
      "name": "isUniversalProfile",
      "outputs": [
        {
          "internalType": "bool",
          "name": "",
          "type": "bool"
        }
      ],
      "stateMutability": "view",
      "type": "function"
    },
    {
      "inputs": [],
      "name": "limit",
      "outputs": [
        {
          "internalType": "uint256",
          "name": "",
          "type": "uint256"
        }
      ],
      "stateMutability": "view",
      "type": "function"
    },
    {
      "inputs": [],
      "name": "mintItem",
      "outputs": [
        {
          "internalType": "bytes32",
          "name": "",
          "type": "bytes32"
        }
      ],
      "stateMutability": "payable",
      "type": "function"
    },
    {
      "inputs": [
        {
          "internalType": "address",
          "name": "to",
          "type": "address"
        }
      ],
      "name": "mintLoogie",
      "outputs": [
        {
          "internalType": "bytes32",
          "name": "",
          "type": "bytes32"
        }
      ],
      "stateMutability": "nonpayable",
      "type": "function"
    },
    {
      "inputs": [
        {
          "internalType": "bytes32",
          "name": "",
          "type": "bytes32"
        }
      ],
      "name": "mouthLength",
      "outputs": [
        {
          "internalType": "uint256",
          "name": "",
          "type": "uint256"
        }
      ],
      "stateMutability": "view",
      "type": "function"
    },
    {
      "inputs": [],
      "name": "name",
      "outputs": [
        {
          "internalType": "string",
          "name": "",
          "type": "string"
        }
      ],
      "stateMutability": "view",
      "type": "function"
    },
    {
      "inputs": [],
      "name": "owner",
      "outputs": [
        {
          "internalType": "address",
          "name": "",
          "type": "address"
        }
      ],
      "stateMutability": "view",
      "type": "function"
    },
    {
      "inputs": [],
      "name": "price",
      "outputs": [
        {
          "internalType": "uint256",
          "name": "",
          "type": "uint256"
        }
      ],
      "stateMutability": "view",
      "type": "function"
    },
    {
      "inputs": [],
      "name": "recipient",
      "outputs": [
        {
          "internalType": "address payable",
          "name": "",
          "type": "address"
        }
      ],
      "stateMutability": "view",
      "type": "function"
    },
    {
      "inputs": [
        {
          "internalType": "bytes32",
          "name": "tokenId",
          "type": "bytes32"
        }
      ],
      "name": "renderTokenById",
      "outputs": [
        {
          "internalType": "string",
          "name": "",
          "type": "string"
        }
      ],
      "stateMutability": "view",
      "type": "function"
    },
    {
      "inputs": [],
      "name": "renounceOwnership",
      "outputs": [],
      "stateMutability": "nonpayable",
      "type": "function"
    },
    {
      "inputs": [
        {
          "internalType": "address",
          "name": "operator",
          "type": "address"
        },
        {
          "internalType": "bytes32",
          "name": "tokenId",
          "type": "bytes32"
        },
        {
          "internalType": "bool",
          "name": "notify",
          "type": "bool"
        },
        {
          "internalType": "bytes",
          "name": "operatorNotificationData",
          "type": "bytes"
        }
      ],
      "name": "revokeOperator",
      "outputs": [],
      "stateMutability": "nonpayable",
      "type": "function"
    },
    {
      "inputs": [
        {
          "internalType": "bytes32",
          "name": "key",
          "type": "bytes32"
        },
        {
          "internalType": "bytes",
          "name": "value",
          "type": "bytes"
        }
      ],
      "name": "setData",
      "outputs": [],
      "stateMutability": "payable",
      "type": "function"
    },
    {
      "inputs": [
        {
          "internalType": "bytes32[]",
          "name": "keys",
          "type": "bytes32[]"
        },
        {
          "internalType": "bytes[]",
          "name": "values",
          "type": "bytes[]"
        }
      ],
      "name": "setDataBatch",
      "outputs": [],
      "stateMutability": "payable",
      "type": "function"
    },
    {
      "inputs": [
        {
          "internalType": "bytes32[]",
          "name": "tokenIds",
          "type": "bytes32[]"
        },
        {
          "internalType": "bytes32[]",
          "name": "dataKeys",
          "type": "bytes32[]"
        },
        {
          "internalType": "bytes[]",
          "name": "dataValues",
          "type": "bytes[]"
        }
      ],
      "name": "setDataBatchForTokenIds",
      "outputs": [],
      "stateMutability": "nonpayable",
      "type": "function"
    },
    {
      "inputs": [
        {
          "internalType": "bytes32",
          "name": "tokenId",
          "type": "bytes32"
        },
        {
          "internalType": "bytes32",
          "name": "dataKey",
          "type": "bytes32"
        },
        {
          "internalType": "bytes",
          "name": "dataValue",
          "type": "bytes"
        }
      ],
      "name": "setDataForTokenId",
      "outputs": [],
      "stateMutability": "nonpayable",
      "type": "function"
    },
    {
      "inputs": [
        {
          "internalType": "bytes32",
          "name": "tokenId",
          "type": "bytes32"
        },
        {
          "internalType": "string",
          "name": "username",
          "type": "string"
        }
      ],
      "name": "setUPUsername",
      "outputs": [],
      "stateMutability": "nonpayable",
      "type": "function"
    },
    {
      "inputs": [
        {
          "internalType": "address",
          "name": "account",
          "type": "address"
        },
        {
          "internalType": "bytes4",
          "name": "interfaceId",
          "type": "bytes4"
        }
      ],
      "name": "supportsERC165InterfaceUnchecked",
      "outputs": [
        {
          "internalType": "bool",
          "name": "",
          "type": "bool"
        }
      ],
      "stateMutability": "view",
      "type": "function"
    },
    {
      "inputs": [
        {
          "internalType": "bytes4",
          "name": "interfaceId",
          "type": "bytes4"
        }
      ],
      "name": "supportsInterface",
      "outputs": [
        {
          "internalType": "bool",
          "name": "",
          "type": "bool"
        }
      ],
      "stateMutability": "view",
      "type": "function"
    },
    {
      "inputs": [],
      "name": "symbol",
      "outputs": [
        {
          "internalType": "string",
          "name": "",
          "type": "string"
        }
      ],
      "stateMutability": "view",
      "type": "function"
    },
    {
      "inputs": [
        {
          "internalType": "uint256",
          "name": "id",
          "type": "uint256"
        }
      ],
      "name": "tokenExists",
      "outputs": [
        {
          "internalType": "bool",
          "name": "",
          "type": "bool"
        }
      ],
      "stateMutability": "view",
      "type": "function"
    },
    {
      "inputs": [
        {
          "internalType": "address",
          "name": "tokenOwner",
          "type": "address"
        }
      ],
      "name": "tokenIdsOf",
      "outputs": [
        {
          "internalType": "bytes32[]",
          "name": "",
          "type": "bytes32[]"
        }
      ],
      "stateMutability": "view",
      "type": "function"
    },
    {
      "inputs": [
        {
          "internalType": "bytes32",
          "name": "tokenId",
          "type": "bytes32"
        }
      ],
      "name": "tokenOwnerOf",
      "outputs": [
        {
          "internalType": "address",
          "name": "",
          "type": "address"
        }
      ],
      "stateMutability": "view",
      "type": "function"
    },
    {
      "inputs": [
        {
          "internalType": "bytes32",
          "name": "tokenId",
          "type": "bytes32"
        }
      ],
      "name": "tokenURI",
      "outputs": [
        {
          "internalType": "string",
          "name": "",
          "type": "string"
        }
      ],
      "stateMutability": "view",
      "type": "function"
    },
    {
      "inputs": [],
      "name": "totalSupply",
      "outputs": [
        {
          "internalType": "uint256",
          "name": "",
          "type": "uint256"
        }
      ],
      "stateMutability": "view",
      "type": "function"
    },
    {
      "inputs": [
        {
          "internalType": "address",
          "name": "from",
          "type": "address"
        },
        {
          "internalType": "address",
          "name": "to",
          "type": "address"
        },
        {
          "internalType": "bytes32",
          "name": "tokenId",
          "type": "bytes32"
        },
        {
          "internalType": "bool",
          "name": "force",
          "type": "bool"
        },
        {
          "internalType": "bytes",
          "name": "data",
          "type": "bytes"
        }
      ],
      "name": "transfer",
      "outputs": [],
      "stateMutability": "nonpayable",
      "type": "function"
    },
    {
      "inputs": [
        {
          "internalType": "address[]",
          "name": "from",
          "type": "address[]"
        },
        {
          "internalType": "address[]",
          "name": "to",
          "type": "address[]"
        },
        {
          "internalType": "bytes32[]",
          "name": "tokenId",
          "type": "bytes32[]"
        },
        {
          "internalType": "bool[]",
          "name": "force",
          "type": "bool[]"
        },
        {
          "internalType": "bytes[]",
          "name": "data",
          "type": "bytes[]"
        }
      ],
      "name": "transferBatch",
      "outputs": [],
      "stateMutability": "nonpayable",
      "type": "function"
    },
    {
      "inputs": [
        {
          "internalType": "address",
          "name": "newOwner",
          "type": "address"
        }
      ],
      "name": "transferOwnership",
      "outputs": [],
      "stateMutability": "nonpayable",
      "type": "function"
    },
    {
      "inputs": [
        {
          "internalType": "bytes32",
          "name": "",
          "type": "bytes32"
        }
      ],
      "name": "upUsernames",
      "outputs": [
        {
          "internalType": "string",
          "name": "",
          "type": "string"
        }
      ],
      "stateMutability": "view",
      "type": "function"
    },
    {
      "stateMutability": "payable",
      "type": "receive"
    }
  ],
  "transactionHash": "0x46909a36de38c1cf2a0953e5c86374b4577a33f1715e65aa78fd15a1daec7c6a",
  "args": [
    "0x02224842340dA3392cae9df5cbA5D777C33Fe299"
  ],
  "numDeployments": 1,
  "solcInputHash": "ecc175e27ff7e53db7f69f4b85c83501",
  "bytecode": "0x6080346200090e576200628b80380391601f1990601f828186011682019360018060401b0395838610878711176200091357808492604097885283396020938491810103126200090e57516001600160a01b038116918282036200090e578551916200006b8362000929565b600c83526b4c756b736f4c6f6f6769657360a01b85840152865193620000918562000929565b60078552664c554b4c4f4f4760c81b86860152620000af3362000990565b15620008fd57620000c09062000990565b855191620000ce8362000929565b600493848452632936598960e21b868501527feafec4d89fa9619884b60000a4d96624a38f7ac2d8d9a604ecf07c12c77e480c916000928084526001958689528a852081518d8111620008ea5781548981811c91168015620008df575b8c821014620008cc5780898d921162000882575b50508a8882116001146200081557908088979695949392620001a79d9c9b9a999162000809575b50600019600383901b1c191690891b1790555b8b51807fece574603820d07bc9b91f2a932baadf4628aabcb8afba49776529c14a6104b29b8c938262000945565b0390a27fdeba1e292f8ba88238e10ab3c7f88bd4be4fac56cad5194b6ecceaf653468af1908184528588528a8420908051918d8311620007f65780548881811c91168015620007eb575b8b821014620007d8579081888d94931162000783575b508a938881116001146200070d5780620002439495899162000701575b50600019600383901b1c1916908a1b1790555b8c519182918262000945565b0390a27f2f0a68ab07768e01943a599e73362a0e17a63a72e94dd2e384d2c1d4db93275690818352848752898320908051918c83116200063c5780548781811c91168015620006f6575b8a8210146200061e579081878c949311620006a1575b5089938781116001146200064f5780620002df9495889162000550575b50600019600383901b1c191690891b1790555b8b519182918262000945565b0390a287518386820152858152620002f78162000929565b7fe0261fa95db2eb3b5439bd033cda66d56b96f92f243a8228fd87550ed7bdfdb390818352848752898320908051918c83116200063c5780548781811c9116801562000631575b8a8210146200061e579081878c949311620005c9575b5089938781116001146200055c57806200038e94958891620005505750600019600383901b1c191690891b1790558b519182918262000945565b0390a28751948181870152808652620003a78662000929565b7ff675e9361af1c1664c1868cfa3eb97672d6b1a513aa5b81dec34c9ee330e818d978883528482528983209587519b8c116200053d578654908682811c9216801562000532575b848310146200051f575080858d9211620004d5575b505081938b116001146200046d5750509780928192620004449798999a9362000461575b501b916000199060031b1c19161790555b84519182918262000945565b0390a267016345785d8a0000600c55516158b39081620009d88239f35b86015192503862000427565b8a93919a169985835280832092905b8b8210620004bd57505082620004449798999a10620004a3575b5050811b01905562000438565b85015160001960f88460031b161c19169055388062000496565b808684958294958b015181550194019201906200047c565b87855285848620918582850160051c8401941062000515575b0160051c019086905b8281106200050957508c915062000403565b858155018690620004f7565b92508192620004ee565b634e487b7160e01b855260229052602484fd5b91607f1691620003ee565b634e487b7160e01b845260419052602483fd5b905083015138620002c0565b8187528a8720948991908e8216898e5b828210620005ad57505090826200038e9798921062000593575b5050811b019055620002d3565b85015160001960f88460031b161c19169055388062000586565b878401518a5598909401978f97508c9492810192018e6200056c565b908092935086528986208780860160051c8201928c871062000614575b918a918e969594930160051c01915b8281106200060557505062000354565b8881558d95508a9101620005f5565b92508192620005e6565b634e487b7160e01b865260228952602486fd5b90607f16906200033e565b634e487b7160e01b855260418852602485fd5b8187528a8720948991908e8216898e5b828210620006855750509082620002df9798921062000593575050811b019055620002d3565b878401518a5598909401978f97508c9492810192018e6200065f565b908092935086528986208780860160051c8201928c8710620006ec575b918a918e969594930160051c01915b828110620006dd575050620002a3565b8881558d95508a9101620006cd565b92508192620006be565b90607f16906200028d565b90508301513862000224565b8188528b8820948a91908f82168a8f5b8282106200075e5750509082620002439798921062000744575b5050811b01905562000237565b85015160001960f88460031b161c19169055388062000737565b929597509386988684939598015181550194019201918e95939694918c938f6200071d565b908092935087528a87208880860160051c8201928d8710620007ce575b918b918f969594930160051c01915b828110620007bf57505062000207565b8981558e95508b9101620007af565b92508192620007a0565b634e487b7160e01b875260228a52602487fd5b90607f1690620001f1565b634e487b7160e01b865260418952602486fd5b90508301513862000166565b8288528b882090828e16895b8181106200086c57509183918c9b9a999897969594620001a79f9e9d941062000852575b5050811b01905562000179565b85015160001960f88460031b161c19169055388062000845565b868301518455928c0192918e01918e0162000821565b83895289828a209181850160051c8301938510620008c2575b0160051c01908a905b828110620008b657508c91506200013f565b898155018a90620008a4565b925081926200089b565b634e487b7160e01b885260228b52602488fd5b90607f16906200012b565b634e487b7160e01b875260418a52602487fd5b86516306b620db60e21b8152600490fd5b600080fd5b634e487b7160e01b600052604160045260246000fd5b604081019081106001600160401b038211176200091357604052565b6020808252825181830181905290939260005b8281106200097b57505060409293506000838284010152601f8019910116010190565b81810186015184820160400152850162000958565b600080546001600160a01b039283166001600160a01b03198216811783559216907f8be0079c531659141344cd1fd0a4f28419497f9722a3daafe3b4186f6b6457e09080a356fe60806040526004361015610033575b3615610026575b61001e3661252d565b602081519101f35b61002e612579565b610015565b60003560e01c8062923f9e146103f2578063017c96b8146103e957806301ffc9a7146103e057806306fdde03146103d757806316e023b3146103ce57806318160ddd146103c557806319c9d79b146103bc5780631d26fce6146103b35780631ead90b0146103aa578063217b2270146103a15780632a3654a4146103985780632bb11db11461038f578063472dfcfb14610386578063475a590d1461037d57806349a6078d146103745780634b5496661461036b578063511b69521461036257806354f6127f1461035957806355a89975146103505780636643a6861461034757806366d003ac1461033e57806369113ff7146103355780636963d4381461032c57806370a0823114610323578063715018a61461031a5780637165485d14610311578063791790c9146103085780637e87632c146102ff5780637f23690c146102f657806386a10ddd146102ed57806388b924ed146102e45780638da5cb5b146102db57806395d89b41146102d257806396a7952a146102c957806397902421146102c0578063a035b1fe146102b7578063a3b261f2146102ae578063a4d66daf146102a5578063afbb8d511461029c578063bc317f9614610293578063bdbed7221461028a578063be9f0e6f14610281578063d6a73f8a14610278578063d6c1407c1461026f578063db8c966314610266578063dedff9c61461025d578063eb93406b146102545763f2fde38b0361000e5761024f612469565b61000e565b5061024f612355565b5061024f6122cd565b5061024f6121f3565b5061024f6121ac565b5061024f6120f1565b5061024f612001565b5061024f611f83565b5061024f611d78565b5061024f611927565b5061024f611909565b5061024f6118ce565b5061024f6118af565b5061024f6117ea565b5061024f611754565b5061024f6116a7565b5061024f61167d565b5061024f61165d565b5061024f61150a565b5061024f6114b3565b5061024f611419565b5061024f61129f565b5061024f611281565b5061024f611222565b5061024f6111e7565b5061024f611107565b5061024f6110d8565b5061024f61106d565b5061024f611040565b5061024f61100f565b5061024f610fef565b5061024f610f89565b5061024f610f3f565b5061024f610ea3565b5061024f610d57565b5061024f610d20565b5061024f610afb565b5061024f610a99565b5061024f610a52565b5061024f610a1a565b5061024f610950565b5061024f610785565b5061024f61066f565b5061024f61064c565b5061024f6105bd565b5061024f6104b8565b5061024f610479565b503461042457602036600319011261042457600435600052600a602052602060ff604060002054166040519015158152f35b600080fd5b600052600a602052604060002090565b6000526007602052604060002090565b6000526008602052604060002090565b6000526009602052604060002090565b600052600b602052604060002090565b50346104245760203660031901126104245760043560005260096020526020604060002054604051908152f35b6001600160e01b031981160361042457565b50346104245760203660031901126104245760206004356104d8816104a6565b6001600160e01b03198116631d138b8360e11b811491908215610519575b508115610509575b506040519015158152f35b61051391506127ae565b386104fe565b90915063a918fa6b60e01b8114908115610536575b5090386104f6565b6318a6a9a560e21b811491508115610550575b503861052e565b6301ffc9a760e01b14905038610549565b60005b8381106105745750506000910152565b8181015183820152602001610564565b9060209161059d81518092818552858086019101610561565b601f01601f1916010190565b9060206105ba928181520190610584565b90565b5034610424576000366003190112610424577fdeba1e292f8ba88238e10ab3c7f88bd4be4fac56cad5194b6ecceaf653468af16000526001602052604051610648906106348161062d817f2a367ae1ac46d529739aa27ac74856f860e70af05d3642d18ba60fd5d32a069a610c6d565b0382610703565b604051918291602083526020830190610584565b0390f35b5034610424576040366003190112610424576106486106346024356004356131aa565b5034610424576000366003190112610424576020600654604051908152f35b50634e487b7160e01b600052604160045260246000fd5b602081019081106001600160401b038211176106c057604052565b6106c861068e565b604052565b604081019081106001600160401b038211176106c057604052565b606081019081106001600160401b038211176106c057604052565b90601f801991011681019081106001600160401b038211176106c057604052565b6020906001600160401b038111610741575b601f01601f19160190565b61074961068e565b610736565b92919261075a82610724565b916107686040519384610703565b829481845281830111610424578281602093846000960137010152565b5034610424576040366003190112610424576004356024356001600160401b0381116104245736602382011215610424576107ca90369060248160040135910161074e565b6107d382612845565b6001600160a01b0381163314908115610841575b50156108055761080391600052600b6020526040600020612f77565b005b60405162461bcd60e51b81526020600482015260146024820152731314d40e0e88139bdd08185d5d1a1bdc9a5e995960621b6044820152606490fd5b905061084c8161561a565b908161085a575b50386107e7565b6108649150613b27565b38610853565b6020906001600160401b038111610883575b60051b0190565b61088b61068e565b61087c565b81601f82011215610424578035916108a78361086a565b926108b56040519485610703565b808452602092838086019260051b820101928311610424578301905b8282106108df575050505090565b813581529083019083016108d1565b602080820190808352835180925260408301928160408460051b8301019501936000915b8483106109225750505050505090565b9091929394958480610940600193603f198682030187528a51610584565b9801930193019194939290610912565b5034610424576040366003190112610424576001600160401b0360043581811161042457610982903690600401610890565b906024359081116104245761099b903690600401610890565b908051825103610a08576109af8151612868565b9160005b82518110156109fa57806109de6109cc600193866128c9565b516109d783866128c9565b51906131aa565b6109e882876128c9565b526109f381866128c9565b50016109b3565b6040518061064886826108ee565b6040516317d38eff60e11b8152600490fd5b5034610424576020366003190112610424576004356000526007602052602060406000205460e81b6040519062ffffff60e81b168152f35b5034610424576020366003190112610424576020610a71600435612845565b6040516001600160a01b039091168152f35b600435906001600160a01b038216820361042457565b5034610424576040366003190112610424576020610ac1610ab8610a83565b602435906129ce565b6040519015158152f35b9181601f84011215610424578235916001600160401b038311610424576020808501948460051b01011161042457565b5034610424576040366003190112610424576001600160401b0360043581811161042457610b2d903690600401610acb565b909160243590811161042457610b4a610b7c913690600401610acb565b600054909150610b7590610b6e906001600160a01b03165b6001600160a01b031690565b3314613cd3565b8214613d2e565b60005b818110610b8857005b80610b97610c25928486613d79565b35610bab610ba482610429565b5460ff1690565b610c1f57610bc8610bbb82610429565b805460ff19166001179055565b610be0610bd482610439565b805462ffffff19169055565b610bf2610bec82610449565b603c9055565b610c04610bfe82610459565b60e69055565b610c15610c1082610469565b6138de565b6006548111610c2a575b50613965565b610b7f565b60065538610c1f565b90600182811c92168015610c63575b6020831014610c4d57565b634e487b7160e01b600052602260045260246000fd5b91607f1691610c42565b9060009291805491610c7e83610c33565b918282526001938481169081600014610ce05750600114610ca0575b50505050565b90919394506000526020928360002092846000945b838610610ccc575050505001019038808080610c9a565b805485870183015294019385908201610cb5565b9294505050602093945060ff191683830152151560051b01019038808080610c9a565b90610d1e610d179260405193848092610c6d565b0383610703565b565b503461042457602036600319011261042457600435600052600b60205261064861062d610634604060002060405192838092610c6d565b503461042457602036600319011261042457610648610d74610a83565b610d87610d8260065461386c565b600655565b610e9360065491610d9a610bbb84610429565b610e6e610e69610e36610dac436135e8565b40604051610dd481610dc660208201948930918d886138b1565b03601f198101835282610703565b519020610e24600082901a60f81b6001600160f81b031916600183901a60f01b60ff60f01b1617600283901a60e81b60ff60e81b1617610e1389610439565b9060e81c62ffffff19825416179055565b610e42610e3d610e368360031a6137f2565b60ff900490565b61387a565b610e4b88610449565b55610e5f610e5888610449565b5460021c90565b9060041a90613859565b613888565b610e7784610459565b55610e84610c1084610469565b82610e8d6125ee565b91613981565b6040519081529081906020820190565b50346104245760208060031936011261042457600435610ec281612d19565b15610f275760005260058152610edb604060002061371c565b906040519181839283018184528251809152816040850193019160005b828110610f0757505050500390f35b83516001600160a01b031685528695509381019392810192600101610ef8565b60249060405190635747cd1b60e11b82526004820152fd5b503461042457602036600319011261042457610648610634610f5f610a83565b613be7565b8015150361042457565b9080601f83011215610424578160206105ba9335910161074e565b50346104245760a036600319011261042457610fa3610a83565b6024356001600160a01b038116810361042457606435610fc281610f64565b608435926001600160401b03841161042457610fe5610803943690600401610f6e565b9260443591612a19565b50346104245760203660031901126104245761064861063460043561276c565b5034610424576040366003190112610424576020610ac161102e610a83565b6024359061103b826104a6565b615703565b50346104245760203660031901126104245760043560005260086020526020604060002054604051908152f35b503461042457600036600319011261042457602060405173a81a6a910fed20374361b35c451a4a44f86ced468152f35b6020908160408183019282815285518094520193019160005b8281106110c4575050505090565b8351855293810193928101926001016110b6565b5034610424576040366003190112610424576106486110fb602435600435614034565b6040519182918261109d565b5034610424576020806003193601126104245760049081356001600160401b0381116104245761113a9036908401610acb565b9161114483612868565b93600093845b81811061115f576040518061064889826108ee565b858061116c8385896128eb565b6040939161117e8551809381936125b8565b0390305af49061118c612601565b91156111b35750906001916111a1828a6128c9565b526111ac81896128c9565b500161114a565b81518693918691156111c85750505080519101fd5b5163234eb81960e01b81529081019182529081906020010390fd5b0390fd5b5034610424576020366003190112610424576001600160a01b03611209610a83565b1660005260046020526020604060002054604051908152f35b50346104245760008060031936011261127e5761123d61344f565b80546001600160a01b03198116825581906001600160a01b03167f8be0079c531659141344cd1fd0a4f28419497f9722a3daafe3b4186f6b6457e08280a380f35b80fd5b50346104245760003660031901126104245760206040516103ea8152f35b5034610424576020366003190112610424576020610ac16112be610a83565b61561a565b81601f82011215610424578035916112da8361086a565b926112e86040519485610703565b808452602092838086019260051b820101928311610424578301905b828210611312575050505090565b81356001600160a01b0381168103610424578152908301908301611304565b81601f82011215610424578035916113488361086a565b926113566040519485610703565b808452602092838086019260051b820101928311610424578301905b828210611380575050505090565b838091833561138e81610f64565b815201910190611372565b9080601f83011215610424578135906113b18261086a565b926113bf6040519485610703565b828452602092838086019160051b8301019280841161042457848301915b8483106113ed5750505050505090565b82356001600160401b03811161042457869161140e84848094890101610f6e565b8152019201916113dd565b50346104245760a03660031901126104245760046001600160401b0381358181116104245761144b90369084016112c3565b906024358181116104245761146390369085016112c3565b6044358281116104245761147a9036908601610890565b90606435838111610424576114929036908701611331565b9260843590811161042457610803956114ad91369101611399565b93612bb4565b506040366003190112610424576024356001600160401b038111610424576114df903690600401610f6e565b6114e761344f565b346114f857610803906004356154d9565b60405163f36ba73760e01b8152600490fd5b503461042457606036600319011261042457611524610a83565b602435906044356001600160401b03811161042457611547903690600401610f6e565b9061155183612845565b6001600160a01b038181169133830361163e57508216801561162c5780821461161a576115986115948461158f886000526005602052604060002090565b61376b565b1590565b6115fe5793806115f992610803967f1b1b58aa2ec0cec2228b2d37124556d41f5a1f7b12f089171f896cc236671215604051806115d58a826105a9565b0390a46115eb6040519485923360208501612978565b03601f198101845283610703565b61327c565b6040516314ec4d6d60e31b8152806111e387866004840161295d565b6040516344fed6b160e11b8152600490fd5b604051639577b8b360e01b8152600490fd5b856111e3604051928392632d938f5160e11b845233916004850161293a565b503461042457602036600319011261042457610648610634600435614f09565b5034610424576000366003190112610424576000546040516001600160a01b039091168152602090f35b5034610424576000366003190112610424577f2f0a68ab07768e01943a599e73362a0e17a63a72e94dd2e384d2c1d4db9327566000526001602052604051610648906106348161062d817f83b322886c7b7e25779e5d38e06e005c9e7aba1e1267ce9210cf24e31833535a610c6d565b6020908160408183019282815285518094520193019160005b82811061173e575050505090565b8351151585529381019392810192600101611730565b503461042457602080600319360112610424576004356001600160401b0381116104245736602382011215610424578060040135906117928261086a565b916117a06040519384610703565b80835260248484019160051b8301019136831161042457602401905b8282106117db576106486117cf85613f9b565b60405191829182611717565b813581529084019084016117bc565b5060403660031901126104245760046001600160401b038135818111610424576118179036908401610890565b906024359081116104245761182f9036908401611399565b9161183861344f565b346118a057815183510361189157815115611882575060005b8151811015610803578061187c61186a600193856128c9565b5161187583876128c9565b51906154d9565b01611851565b6040516397da5f9560e01b8152fd5b604051633bcc897960e01b8152fd5b60405163f36ba73760e01b8152fd5b5034610424576000366003190112610424576020600c54604051908152f35b5034610424576020366003190112610424576001600160a01b036118f0610a83565b1660005260046020526106486110fb604060002061371c565b5034610424576000366003190112610424576020604051610e908152f35b5034610424576020366003190112610424576004356001600160a01b0361194d82612845565b1615156119599061410d565b61196281614359565b604051674c6f6f676965202360c01b6020820152919082906028820161198791614156565b0391601f1992838101825261199c9082610703565b6119a582610439565b5460e81b6119b2906157a4565b916119bc81610449565b546119c690615434565b926119d082610459565b546119da90615434565b6040517954686973204c6f6f6769652069732074686520636f6c6f72202360301b6020820152948592603a8401611a1091614156565b750103bb4ba3410309031b43ab13134b732b9b99037b3160551b8152601601611a3891614156565b7401030b7321036b7baba34103632b733ba341037b31605d1b8152601501611a5f91614156565b6221212160e81b8152600301038481018452611a7b9084610703565b611a84816145ba565b611a8d90614272565b90611a9781614359565b90611aa181610439565b5460e81b611aae906157a4565b611ab782610449565b54611ac190615434565b611aca83610459565b54611ad490615434565b91611ade84610469565b93611ae890612845565b611afa906001600160a01b03166144e9565b604051683d913730b6b2911d1160b91b602082015298899891969160298a01611b2291614156565b71111610113232b9b1b934b83a34b7b7111d1160711b8152601201611b4691614156565b7f222c202265787465726e616c5f75726c223a2268747470733a2f2f6275726e7981526e626f79732e636f6d2f746f6b656e2f60881b6020820152602f01611b8d91614156565b7f222c202261747472696275746573223a205b7b2274726169745f74797065223a8152742022636f6c6f72222c202276616c7565223a20222360581b6020820152603501611bda91614156565b7f227d2c7b2274726169745f74797065223a20226368756262696e657373222c208152680113b30b63ab2911d160bd1b6020820152602901611c1b91614156565b7f7d2c7b2274726169745f74797065223a20226d6f7574684c656e677468222c208152680113b30b63ab2911d160bd1b6020820152602901611c5c91614156565b7f7d2c7b2274726169745f74797065223a20227570557365726e616d65222c20228152683b30b63ab2911d101160b91b6020820152602901611c9d91614169565b6d113eae96101137bbb732b9111d1160911b8152600e01611cbd91614156565b7f222c2022696d616765223a2022646174613a696d6167652f7376672b786d6c3b81526618985cd94d8d0b60ca1b6020820152602701611cfc91614156565b61227d60f01b8152600201038281018252611d179082610703565b611d2090614272565b6040517f646174613a6170706c69636174696f6e2f6a736f6e3b6261736536342c000000602082015291908290603d8201611d5a91614156565b039081018252611d6a9082610703565b6040516106488192826105a9565b50602080600319360112610424576004803590611d96821515613a59565b600692611db1610e90611daa8587546138a4565b1115613aa4565b600091600c92835490805b868110611f5b5750611dd191503410156137b9565b611dda84613ae0565b9460005b858110611e1757610648876110fb60008080803473a81a6a910fed20374361b35c451a4a44f86ced465af1611e11612601565b50613928565b611f5690611e28610d82845461386c565b8254611e36610bbb82610429565b611f01610e69610e36611e48436135e8565b60408051808c018781529240602084015233606090811b6001600160601b03199081169385019390935230901b909116605483015260688201879052611e918160888401610dc6565b519020611ed0600082901a60f81b6001600160f81b031916600183901a60f01b60ff60f01b1617600283901a60e81b60ff60e81b1617610e1387610439565b611ee2610e3d610e368360031a6137f2565b611eeb86610449565b55611ef8610e5886610449565b90891a90613859565b611f0a82610459565b55611f17610c1082610469565b611f29611f226125ee565b8233613981565b611f33828a6128c9565b52611f51611f4c611f448854613803565b6103e8900490565b600c55565b613965565b611dde565b90611f75611f44611f6f85611f7b946138a4565b94613803565b91613965565b919091611dbc565b50346104245760008060031936011261127e57600654611fa281613ae0565b918060015b83811115611fbd5760405180610648878261109d565b808252600a60205260ff604083205416611fe0575b611fdb90613965565b611fa7565b91611ff98184611ff3611fdb94896128c9565b52613965565b929050611fd2565b50346104245760603660031901126104245760046001600160401b038135818111610424576120339036908401610890565b6024358281116104245761204a9036908501610890565b91604435908111610424576120629036908501611399565b9261206b61344f565b81518351809114908115916120e5575b506120d6578151156120c7575060005b815181101561080357806120c16120a4600193856128c9565b516120af83876128c9565b516120ba84896128c9565b5191613053565b0161208b565b6040516380c9830560e01b8152fd5b6040516317d38eff60e11b8152fd5b9050845114153861207b565b50346104245760c03660031901126104245760046001600160401b038135818111610424576121239036908401610acb565b916024358181116104245761213b9036908601610acb565b919050604435818111610424576121559036908701610acb565b906064358381116104245761216d9036908901610acb565b929091608435858111610424576121879036908b01610acb565b96909560a435908111610424576108039a6121a491369101610acb565b999098613e73565b5034610424576060366003190112610424576044356001600160401b038111610424576121e0610803913690600401610f6e565b6121e861344f565b602435600435613053565b50346104245760803660031901126104245761220d610a83565b6024356044359161221d83610f64565b6064356001600160401b0381116104245761223c903690600401610f6e565b61224583612845565b936001600160a01b038086169033829003612296575b841690811561162c571461161a576122768282868887612c84565b61227c57005b610803936115eb6115f992604051958693602085016129a3565b848116331461225b5760405163760b5acd60e01b81523360048201526001600160a01b038816602482015260448101879052606490fd5b5034610424576020366003190112610424576004356001600160401b038111610424576122fe903690600401610890565b6123088151612868565b9060005b8151811015612347578061232b612325600193856128c9565b5161276c565b61233582866128c9565b5261234081856128c9565b500161230c565b6040518061064885826108ee565b5060008060031936011261127e5761064890612376610e906006541061377e565b612393611f4c611f44600c5461238e813410156137b9565b613803565b6123a1610d8260065461386c565b610e93600654916123b4610bbb84610429565b61241e610e69610e366123c6436135e8565b406040516123e181610dc66020820194309033908d886138b1565b519020610e2481861a60f81b6001600160f81b031916600183901a60f01b60ff60f01b1617600283901a60e81b60ff60e81b1617610e1389610439565b61242784610459565b55612434610c1084610469565b61244661243f6125ee565b8433613981565b8080803473a81a6a910fed20374361b35c451a4a44f86ced465af1611e11612601565b503461042457602036600319011261042457612483610a83565b61248b61344f565b6001600160a01b0390811680156124d957600080546001600160a01b03198116831782559092167f8be0079c531659141344cd1fd0a4f28419497f9722a3daafe3b4186f6b6457e08380a380f35b60405162461bcd60e51b815260206004820152602660248201527f4f776e61626c653a206e6577206f776e657220697320746865207a65726f206160448201526564647265737360d01b6064820152608490fd5b6004361061253e576105ba90612631565b6044604051809263e5099ee360e01b825260206004830152806024830152806000848401376000828201840152601f01601f19168101030190fd5b503415612592576040516330fa4a2160e11b8152600490fd5b606460405163e5099ee360e01b8152602060048201526004602482015260006044820152fd5b908092918237016000815290565b9060349391816000823760609390931b6001600160601b031916920191825260148201520190565b604051906125fb826106a5565b60008252565b3d1561262c573d9061261282610724565b916126206040519384610703565b82523d6000602084013e565b606090565b60609063ffffffff60e01b600035169161268161267c604051696773c5a04a6d4300884b60b11b60208201526000602a82015285602c82015260208152612677816106cd565b61278b565b61276c565b80516014811415908161272d575b506127085761269d90612737565b901c9182156126e4575060009182916040516126c581610dc6602082019434903390876125c6565b519134905af16126d3612601565b90156126dc5790565b602081519101fd5b60405163bb370b2b60e01b81526001600160e01b0319919091166004820152602490fd5b6040516342bfe79f60e01b8152602060048201529081906111e3906024830190610584565b905015153861268f565b80516020909101516001600160601b031980821693929091906014811061275d57505050565b60140360031b82901b16169150565b600052600160205261062d6105ba604060002060405192838092610c6d565b60208151910151906020811061279f575090565b6000199060200360031b1b1690565b6127eb61267c604051696773c5a04a6d4300884b60b11b60208201526000602a8201526301ffc9a760e01b602c82015260208152612677816106cd565b805160148114159081612821575b506127085761280790612737565b60601c90811561281a576105ba91613504565b5050600090565b90501515386127f9565b6001600160a01b0316600090815260046020526040902090565b6000818152600360205260409020546001600160a01b0316908115610f27575090565b906128728261086a565b61287f6040519182610703565b8281528092612890601f199161086a565b019060005b8281106128a157505050565b806060602080938501015201612895565b50634e487b7160e01b600052603260045260246000fd5b60209181518110156128de575b60051b010190565b6128e66128b2565b6128d6565b919081101561292d575b60051b81013590601e19813603018212156104245701908135916001600160401b038311610424576020018236038113610424579190565b6129356128b2565b6128f5565b6001600160a01b0391821681526020810192909252909116604082015260600190565b6001600160a01b039091168152602081019190915260400190565b6105ba939260809260018060a01b031682526020820152600160408201528160608201520190610584565b6105ba939260809260018060a01b031682526020820152600060408201528160608201520190610584565b6001600160a01b03806129e084612845565b1691169081149182156129f257505090565b6105ba92506000526005602052604060002060019160005201602052604060002054151590565b90929391612a2781336129ce565b15612b9657612a3581612845565b6001600160a01b038181169184821691828403612b7957808816938415612b6757612a5f86612845565b91821603612b3757505092612b2d8380610d1e9997946115eb9997612a87612b329887612dfb565b612a9983612a948861282b565b61364f565b50612aac83612aa78b61282b565b61355c565b50612ae489612ac5856000526003602052604060002090565b80546001600160a01b0319166001600160a01b03909216919091179055565b6040517fb333c813a7426a7a11e2b190cad52c44119421594b47f6f32ace6d8c7207b2bf9080612b168a8e3384612d5f565b0390a4604051978894859288863360208701612dc1565b613327565b6133c3565b604051635a9c31d360e01b8152600481018690526001600160a01b03928316602482015291166044820152606490fd5b6040516324ecef4d60e01b8152600490fd5b604051632d938f5160e11b8152806111e38888866004850161293a565b60449060405190631294d2a960e01b82526004820152336024820152fd5b949390919285519383518514801590612c79575b8015612c6e575b8015612c63575b612c515760005b858110612bee575050505050509050565b80612c4b612c0e612c016001948c6128c9565b516001600160a01b031690565b612c1b612c01848a6128c9565b612c2584876128c9565b51612c39612c33868a6128c9565b51151590565b91612c44868b6128c9565b5193612a19565b01612bdd565b6040516393a8311960e01b8152600490fd5b508251851415612bd6565b508151851415612bcf565b508051851415612bc8565b91939284600052600560205260406000209260018060a01b0390612cab828216809661364f565b15612cfa575090612cf57fc78cd419d6136f9f1c1c6aec1d3fae098cffaf8bc86314a8f2685e32fe574e3c9392604051938493151584526040602085015216956040830190610584565b0390a4565b6040516312a8c6a360e21b81529081906111e39089906004840161295d565b6000908152600360205260409020546001600160a01b0316151590565b6001600160a01b039091168152600160208201526060604082018190526105ba92910190610584565b6001600160a01b03909116815290151560208201526060604082018190526105ba92910190610584565b6001600160a01b0391821681526000602082015291166040820152606081019190915260a0608082018190526105ba92910190610584565b6001600160a01b03918216815291811660208301529091166040820152606081019190915260a0608082018190526105ba92910190610584565b9060009080825260059160209383855260409182812094855495825b878110612e2957505050505050505050565b815415612ed1575b8184528884205486516001600160a01b0391821691612e4f826106a5565b868252898752858c52612e64838a892061364f565b15612eb657600193927fc78cd419d6136f9f1c1c6aec1d3fae098cffaf8bc86314a8f2685e32fe574e3c8d89612ead8e968e968e88805196879687528601521696830190610584565b0390a401612e17565b88516312a8c6a360e21b8152806111e38c866004840161295d565b612ed96128b2565b612e31565b9190604051926020840152604083015260408252610d1e826106e8565b91612f179183549060031b600019811b9283911b169119161790565b9055565b818110612f26575050565b60008155600101612f1b565b9190601f8111612f4157505050565b610d1e926000526020600020906020601f840160051c83019310612f6d575b601f0160051c0190612f1b565b9091508190612f60565b91909182516001600160401b038111613046575b612f9f81612f998454610c33565b84612f32565b602080601f8311600114612fdb575081929394600092612fd0575b50508160011b916000199060031b1c1916179055565b015190503880612fba565b90601f19831695612ff185600052602060002090565b926000905b88821061302e57505083600195969710613015575b505050811b019055565b015160001960f88460031b161c1916905538808061300b565b80600185968294968601518155019501930190612ff6565b61304e61068e565b612f8b565b909161305f8383612ede565b80516020809201206000526001908181526040600020918351916001600160401b03831161319d575b61309c836130968654610c33565b86612f32565b80601f841160011461310957509180806130f995937fa6e4251f855f750545fe414f120db91c76b88def14d120969e5bb2d3f05debbb97956000936130fe575b501b916000199060031b1c19161790555b604051918291826105a9565b0390a3565b8601519250386130dc565b90601f93929319831661312186600052602060002090565b926000905b8282106131865750509183916130f996947fa6e4251f855f750545fe414f120db91c76b88def14d120969e5bb2d3f05debbb9896941061316d575b5050811b0190556130ed565b85015160001960f88460031b161c191690553880613161565b808785968294968c01518155019501930190613126565b6131a561068e565b613088565b906131b491612ede565b60208151910120600052600160205261062d6105ba604060002060405192838092610c6d565b602081830312610424578051906001600160401b038211610424570181601f8201121561042457805161320c81610724565b9261321a6040519485610703565b81845260208284010111610424576105ba9160208085019101610561565b9060406105ba927f0b084a55ebf70fd3c06fd755269dac2212c4d3f0f4d09079780bfa50c1b2984d81528160208201520190610584565b506040513d6000823e3d90fd5b613285816134a7565b61328d575050565b6132e0600092918392604051948580948193631aed5a8560e21b83527f8a1c15a8799f71b547e08e2bcb2e85257e81b0a07eee2ce6712549eef1f009706004840152604060248401526044830190610584565b03926001600160a01b03165af1801561331a575b6132fb5750565b613317903d806000833e61330f8183610703565b8101906131da565b50565b61332261326f565b6132f4565b613330816134a7565b613338575050565b6132e0600092918392604051948580948193631aed5a8560e21b83527fb23eae7e6d1564b295b4c3e3be402d9a2f0776c57bdf365903496f6fa481ab006004840152604060248401526044830190610584565b613394816134a7565b156133bf57604051631aed5a8560e21b81529160009183918290849082906132e09060048301613238565b5050565b91906133ce836134a7565b156133f857506132e06000928392604051948580948193631aed5a8560e21b835260048301613238565b9050156134025750565b803b1561342c57604051634349776d60e01b81526001600160a01b03919091166004820152602490fd5b604051630317313760e01b81526001600160a01b03919091166004820152602490fd5b6000546001600160a01b0316330361346357565b606460405162461bcd60e51b815260206004820152602060248201527f4f776e61626c653a2063616c6c6572206973206e6f7420746865206f776e65726044820152fd5b6000602091604051838101906301ffc9a760e01b8252631aed5a8560e21b6024820152602481526134d7816106e8565b5191617530fa6000513d826134f8575b50816134f1575090565b9050151590565b602011159150386134e7565b600090602092604051848101916301ffc9a760e01b835263ffffffff60e01b166024820152602481526134d7816106e8565b805482101561354f575b60005260206000200190600090565b6135576128b2565b613540565b600082815260018201602052604090205461281a5780826135ad613594600194548560401b8110156135c4575b858101855584613536565b819391549060031b600019811b9283911b169119161790565b905580549260005201602052604060002055600190565b6135cc61068e565b613589565b50634e487b7160e01b600052601160045260246000fd5b6000198101919082116135f757565b610d1e6135d1565b9061032a9182039182116135f757565b805490811561363957600019918201916136298383613536565b909182549160031b1b1916905555565b634e487b7160e01b600052603160045260246000fd5b6001810191806000528260205260406000205492831515600014613713576136a16136b0936000958619808201828111613706575b83549182019182116136f9575b8082036136b6575b50505061360f565b90600052602052604060002090565b55600190565b6136e06136da916136ca6136f09487613536565b90549060031b1c92839187613536565b90612efb565b8590600052602052604060002090565b55388080613699565b6137016135d1565b613691565b61370e6135d1565b613684565b50505050600090565b9060405191828154918282526020928383019160005283600020936000905b82821061375157505050610d1e92500383610703565b85548452600195860195889550938101939091019061373b565b6105ba916001600160a01b03169061355c565b1561378557565b60405162461bcd60e51b815260206004820152600c60248201526b444f4e45204d494e54494e4760a01b6044820152606490fd5b156137c057565b60405162461bcd60e51b815260206004820152600a60248201526909c9ea8408a9c9eaa8e960b31b6044820152606490fd5b90816037029160378304036135f757565b906103ea918281029281840414901517156135f757565b600281901b91906001600160fe1b038116036135f757565b90816009029160098304036135f757565b908160011b91808304600214901517156135f757565b818102929181159184041417156135f757565b90600182018092116135f757565b60230190816023116135f757565b60b401908160b4116135f757565b90600282018092116135f757565b919082018092116135f757565b9291606894918452602084015260018060601b0319809260601b16604084015260601b1660548201520190565b6138e88154610c33565b601f8111613906575b506012681b1d5adcdbdb985d5d60ba1b019055565b6139229082600052601f6020600020910160051c810190612f1b565b386138f1565b1561392f57565b60405162461bcd60e51b815260206004820152600e60248201526d18dbdd5b19081b9bdd081cd95b9960921b6044820152606490fd5b6001906000198114613975570190565b61397d6135d1565b0190565b909291906001600160a01b0381168015612b675761399e85612d19565b613a40576139ab85612d19565b613a405784610d1e9495613a3b926139cc6139c7600254613965565b600255565b6139d982612aa78761282b565b506139f285612ac5846000526003602052604060002090565b60007fb333c813a7426a7a11e2b190cad52c44119421594b47f6f32ace6d8c7207b2bf60405180613a248a3383612d36565b0390a46115eb604051948592853360208601612d89565b61338b565b6040516334c7b51160e01b815260048101869052602490fd5b15613a6057565b60405162461bcd60e51b815260206004820152601c60248201527b0436f756e74206d7573742062652067726561746572207468616e20360241b6044820152606490fd5b15613aab57565b60405162461bcd60e51b815260206004820152600d60248201526c115610d1515114c81312535255609a1b6044820152606490fd5b90613aea8261086a565b613af76040519182610703565b8281528092613b08601f199161086a565b0190602036910137565b9081602091031261042457516105ba816104a6565b6020613b719160405190630b135d3f60e11b808484015260048352613b4b836106cd565b604051809581948293835263123456786004840152604060248401526044830190610584565b03916001600160a01b03165afa9081613b94575b50613b8f57600090565b600190565b613bb49060203d8111613bbb575b613bac8183610703565b810190613b12565b5038613b85565b503d613ba2565b60405190613bcf826106cd565b60098252681b1d5adcdbdb985d5d60ba1b6020830152565b613bf36115948261561a565b613c7a576040516305f5f79f60e21b81526001600160a01b0391909116906000908181600481865afa829181613cb7575b50613caa575b506040516354f6127f60e01b81527f536fbeb67a345fe31b11f6c68e54aca1fa6cc14b84822bc99ef0cd248d4a30cb6004820152918190839060249082905afa90918282613c8d575b5050613c83575b506105ba613bc2565b805115613c7a5790565b613ca29293503d8091833e61330f8183610703565b903880613c73565b805115613c2a5791505090565b613ccc9192503d8085833e61330f8183610703565b9038613c24565b15613cda57565b60405162461bcd60e51b815260206004820152602660248201527f4c5350383a2043616c6c6572206973206e6f742074686520636f6e74726163746044820152651037bbb732b960d11b6064820152608490fd5b15613d3557565b60405162461bcd60e51b815260206004820152601c60248201527b098a6a070744082e4e4c2f240d8cadccee8d0e640dad2e6dac2e8c6d60231b6044820152606490fd5b9190811015613d895760051b0190565b61088b6128b2565b356001600160e81b0319811681036104245790565b9092916001600160401b038111613e66575b613dc681612f998454610c33565b6000601f8211600114613dff5781929394600092613df45750508160011b916000199060031b1c1916179055565b013590503880612fba565b601f19821694613e1484600052602060002090565b91805b878110613e4e575083600195969710613e3457505050811b019055565b0135600019600384901b60f8161c1916905538808061300b565b90926020600181928686013581550194019101613e17565b613e6e61068e565b613db8565b99959397919894929698613e94610b6e610b6260005460018060a01b031690565b811480613f92575b80613f89575b80613f80575b80613f77575b613eb790613d2e565b60005b818110613ece575050505050505050505050565b80898982868f8f90613f679789613ee492613d79565b3594613ef2610ba487610429565b613f6c57613f1b613f1685613f2493613f3f98613f11610bbb8c610429565b613d79565b613d91565b610e1387610439565b613f2f838c8c613d79565b35613f3986610449565b55613d79565b35613f4982610459565b55610c15613f58838b8b6128eb565b90613f6284610469565b613da6565b613eba565b505050505050613965565b50808614613eae565b50818114613ea8565b50838114613ea2565b50878114613e9c565b90815191613fa88361086a565b90604093613fb885519384610703565b808352613fc7601f199161086a565b016020903682850137600091825b81518110156140135780613fec61400e92846128c9565b518552600a845260ff888620541661400482886128c9565b9015159052613965565b613fd5565b50929450505050565b604051614028816106a5565b60008152906000368137565b9060065490818310156141025761404b90836138a4565b908082116140fa575b5060006140608361386c565b828111156140c6575061407290613ae0565b9161407e60009161386c565b8281111561408c5750505090565b614098610ba482610429565b6140ab575b6140a690613965565b61407e565b906140be8183611ff36140a694886128c9565b91905061409d565b6140d2610ba482610429565b6140e5575b6140e090613965565b614060565b906140f26140e091613965565b9190506140d7565b905038614054565b5050506105ba61401c565b1561411457565b60405162461bcd60e51b815260206004820152601a6024820152791314d40e0e88151bdad95b88191bd95cc81b9bdd08195e1a5cdd60321b6044820152606490fd5b9061397d60209282815194859201610561565b60009291815461417881610c33565b926001918083169081156141d057506001146141945750505050565b90919293945060005260209081600020906000915b8583106141bf5750505050019038808080610c9a565b8054858401529183019181016141a9565b60ff1916845250505081151590910201915038808080610c9a565b604051906141f8826106e8565b604082527f6768696a6b6c6d6e6f707172737475767778797a303132333435363738392b2f6040837f4142434445464748494a4b4c4d4e4f505152535455565758595a61626364656660208201520152565b9061425482610724565b6142616040519182610703565b8281528092613b08601f1991610724565b805115614350576142816141eb565b6142a56142a061429b6142948551613896565b6003900490565b61381a565b61424a565b91602083019181825183016020810191825193600084525b8282106142fe57505050525160039006600181146142eb576002146142e0575090565b603d90600019015390565b50603d9081600019820153600119015390565b9091956004906003809401938451600190603f9082828260121c16880101518553828282600c1c16880101518386015382828260061c16880101516002860153168501015190820153019591906142bd565b506105ba6125ee565b6000908072184f03e93ff9f4daa797ed6e38ed64bf6a1f0160401b80821015614488575b506904ee2d6d415b85acef8160201b80831015614479575b50662386f26fc100008083101561446a575b506305f5e1008083101561445b575b506127108083101561444c575b50606482101561443c575b600a80921015614432575b6001908160216143ea82870161424a565b95860101905b6143fc575b5050505090565b600019019083906f181899199a1a9b1b9c1cb0b131b232b360811b8282061a83530491821561442d579190826143f0565b6143f5565b91600101916143d9565b91906064600291049101916143ce565b600491939204910191386143c3565b600891939204910191386143b6565b601091939204910191386143a7565b60209193920491019138614395565b60409350810491503861437d565b6021908051600110156144a7570190565b61397d6128b2565b9060209180518210156144c157010190565b6144c96128b2565b010190565b80156144dc575b6000190190565b6144e46135d1565b6144d5565b604051906144f6826106e8565b602a8252603060208301604036823783511561457a575b53607861451983614496565b536029905b6001821161452b57505090565b80600f6145679216601081101561456d575b6f181899199a1a9b1b9c1cb0b131b232b360811b901a61455d84866144af565b5360041c916144ce565b9061451e565b6145756128b2565b61453d565b6145826128b2565b61450d565b60405190614594826106cd565b600782526611a3231818232360c91b6020830152565b631e17b39f60e11b815260040190565b6145c66112be82612845565b15614a1e576145d3614587565b6145dc82614afe565b916145e690614f09565b6040519283926020840161464e906041907f3c7376672077696474683d2234303022206865696768743d223430302220786d81527f6c6e733d22687474703a2f2f7777772e77332e6f72672f323030302f737667226020820152601f60f91b60408201520190565b651e3232b3399f60d11b8152600601661e39ba3cb6329f60c91b81526007016b40666f6e742d66616365207b60a01b8152600c017f666f6e742d66616d696c793a2022436f6d69632053616e73204d53223b0000008152601d017f7372633a2075726c282268747470733a2f2f666f6e74732e63646e666f6e74738152752e636f6d2f6373732f636f6d69632d73616e7322293b60501b6020820152603601607d60f81b81526001017f2e757365726e616d65207b20666f6e742d66616d696c793a2022436f6d69632081527f53616e73204d53222c20637572736976653b20666f6e742d73697a653a20313660208201527170783b2066696c6c3a2077686974653b207d60701b60408201526052017f2e6d61747269782d63686172207b20666f6e742d66616d696c793a206d6f6e6f81526c039b830b1b29d903334b6361d1609d1b6020820152602d016147a391614156565b703b206f7061636974793a20302e383b207d60781b81526011017f406b65796672616d65732066616465207b203025207b206f7061636974793a2081527f302e323b207d20333025207b206f7061636974793a20302e393b207d2037302560208201527f207b206f7061636974793a20302e393b207d2031303025207b206f706163697460408201526a793a20302e323b207d207d60a81b6060820152606b017f406b65796672616d65732066616c6c207b2066726f6d207b207472616e73666f81527f726d3a207472616e736c61746559282d32307078293b207d20746f207b20747260208201527f616e73666f726d3a207472616e736c61746559283432307078293b207d207d006040820152605f01671e17b9ba3cb6329f60c11b8152600801661e17b232b3399f60c91b81526007017f3c726563742077696474683d2234303022206865696768743d2234303022206681527834b6361e913933b1309418161816181618171c1a949110179f60391b60208201526039017f3c6720636c6173733d226d61747269782d6261636b67726f756e64223e0000008152601d0161494d91614156565b614956906145aa565b7b1e339031b630b9b99e913637b7b3b4b296b1b7b73a30b4b732b9111f60211b8152601c017f3c656c6c697073652063783d22323030222063793d22323030222072783d223181527f3230222072793d22313230222066696c6c3d227267626128302c302c302c302e6020820152791a9491103334b63a32b91e9131363ab9141918383c149110179f60311b6040820152605a016149f391614156565b6149fc906145aa565b651e17b9bb339f60d11b81526006015b03601f19810182526105ba9082610703565b604051614a2a816106cd565b60048152630233046360e41b60208201526145d3565b60ff6001911660ff8114613975570190565b90606461ffff809316029182169182036135f757565b9061ffff8092166014019182116135f757565b91909161ffff808094169116019182116135f757565b60ff60019116019060ff82116135f757565b60ff60029116019060ff82116135f757565b60ff60419116019060ff82116135f757565b60ff166009019060ff82116135f757565b60ff6009199116019060ff82116135f757565b661e17ba32bc3a1f60c91b815260070190565b9060409182519060209082614b2983820192836026918152650dac2e8e4d2f60d31b60208201520190565b0392614b3d601f1994858101835282610703565b51902092614b496125ee565b9360009586955b60ff8088169060c8821015614efc5790878a8689858d614b76849998600f890416614a52565b94601f821684811015614eef575b858c61ffff9889809981951a1660649006614b9e91614a7b565b99614ba886614a91565b601f1660ff169188831015614bd3610168600397614c2597600697602495614ee2575b1a1606614a68565b9f614bef614be9614be38b614aa3565b601f1690565b60ff1690565b8b811015614ed5575b1a0691614c036125ee565b5082891691600a831015614e80575050614c1d9150615434565b9a5b06614ac7565b9216905080614d76575091614ca4614c6a614c47614cb094614c649616615434565b8c519586948501693337b73a16b9b4bd329d60b11b8152600a0190565b90614156565b60008051602061585e8339815191528152792066616c6c20313873206c696e65617220696e66696e6974653b60301b6020820152603a0190565b038d8101835282610703565b925b16614cbc90615434565b9416614cc790615434565b85519485948a8601614cd891614156565b681e3a32bc3a103c1e9160b91b8152600901614cf391614156565b6411103c9e9160d91b8152600501614d0a91614156565b7f2220636c6173733d226d61747269782d6368617222207374796c653d220000008152601d01614d3991614156565b61111f60f11b8152600201614d4d91614156565b614d5690614aeb565b038681018252614d669082610703565b95614d7090614a40565b95614b50565b60018103614dd7575091614ca4614d97614c47614dd194614c649616615434565b60008051602061585e8339815191528152792066616c6c20313273206c696e65617220696e66696e6974653b60301b6020820152603a0190565b92614cb2565b600203614e2f5791614ca4614df6614c47614dd194614c649616615434565b60008051602061585e8339815191528152782066616c6c203973206c696e65617220696e66696e6974653b60381b602082015260390190565b91614ca4614e47614c47614dd194614c649616615434565b60008051602061585e8339815191528152782066616c6c203773206c696e65617220696e66696e6974653b60381b602082015260390190565b614ecf9250614eac614e9c614e97614ec396614ad8565b614ab5565b60f81b6001600160f81b03191690565b90519384918c830160019160ff60f81b1681520190565b03908101835282610703565b9a614c1f565b614edd6128b2565b614bf8565b614eea6128b2565b614bcb565b614ef76128b2565b614b84565b5050955050509350505090565b614f1281612845565b614f1b8161561a565b1561540e57614f2990613be7565b614f3282610439565b5460e81b614f3f906157a4565b90614f4983610449565b54614f5390615434565b92614f5d81610449565b54614f6790613832565b614f70906135ff565b600b9004614f7d90615434565b90614f8790610459565b54614f9190615434565b6040516c1e339034b21e9132bcb298911f60991b60208201527f3c656c6c69707365207374726f6b652d77696474683d2233222072793d223239602d8201527f2e35222072783d2232392e35222069643d227376675f31222063793d22313534604d8201527f2e35222063783d223138312e3522207374726f6b653d2223303030222066696c606d82015269361e9111b3333311179f60b11b608d8201527f3c656c6c697073652072793d22332e35222072783d22322e35222069643d227360978201527f76675f33222063793d223135342e35222063783d223137332e3522207374726f60b78201527f6b652d77696474683d223322207374726f6b653d2223303030222066696c6c3d60d78201526a111198181818181811179f60a91b60f78201529485949192916150c861010287016145aa565b6c1e339034b21e913432b0b2111f60991b8152600d016f3c656c6c697073652066696c6c3d222360801b815260100161510091614156565b7f22207374726f6b652d77696474683d2233222063783d223230342e352220637981527b1e91191898971c18181b1a911034b21e9139bb33af9a9110393c1e9160211b6020820152603c0161515491614156565b7f222072793d2235312e383030363522207374726f6b653d2223303030222f3e008152601f01615183906145aa565b6c1e339034b21e9132bcb299111f60991b8152600d017f3c656c6c69707365207374726f6b652d77696474683d2233222072793d22323981527f2e35222072783d2232392e35222069643d227376675f32222063793d2231363860208201527f2e35222063783d223230392e3522207374726f6b653d2223303030222066696c604082015269361e9111b3333311179f60b11b6060820152606a017f3c656c6c697073652072793d22332e35222072783d2233222069643d2273766781527f5f34222063793d223136392e35222063783d2232303822207374726f6b652d7760208201527f696474683d2233222066696c6c3d222330303030303022207374726f6b653d226040820152661198181811179f60c91b60608201526067016152a9906145aa565b7f3c6720636c6173733d226d6f75746822207472616e73666f726d3d227472616e8152650e6d8c2e8ca560d31b60208201526026016152e791614156565b64161814911f60d91b81526005017f3c7061746820643d224d203133302032343020512031363520323530200000008152601d0161532491614156565b7f2032333522207374726f6b653d22626c61636b22207374726f6b652d77696474815279341e911991103334b6361e913a3930b739b830b932b73a11179f60311b6020820152603a01615376906145aa565b7f3c7465787420783d223230302220793d223239302220746578742d616e63686f81527f723d226d6964646c652220636c6173733d22757365726e616d65222066696c6c60208201527f3d22776869746522207374726f6b653d22626c61636b22207374726f6b652d7760408201526a34b23a341e9118171a911f60a91b6060820152606b0161540591614156565b614a0c90614aeb565b5061542061541b82610469565b610d03565b8051614f29575061542f613bc2565b614f29565b80156154bb57806000908282935b6154a757506154508361424a565b9290805b61545e5750505090565b600a90615478603093838306850180951161549a576144ce565b9260f81b6001600160f81b031916841a61549284876144af565b530480615454565b6154a26135d1565b6144ce565b926154b3600a91613965565b930480615442565b506040516154c8816106cd565b60018152600360fc1b602082015290565b907ff675e9361af1c1664c1868cfa3eb97672d6b1a513aa5b81dec34c9ee330e818d82146155f3577fdeba1e292f8ba88238e10ab3c7f88bd4be4fac56cad5194b6ecceaf653468af1820361553a576040516385c169bd60e01b8152600490fd5b7f2f0a68ab07768e01943a599e73362a0e17a63a72e94dd2e384d2c1d4db932756820361557357604051630eceab6760e31b8152600490fd5b7fe0261fa95db2eb3b5439bd033cda66d56b96f92f243a8228fd87550ed7bdfdb382036155ac57604051634ef6d7fb60e01b8152600490fd5b6155ee816130ed7fece574603820d07bc9b91f2a932baadf4628aabcb8afba49776529c14a6104b2936155e9866000526001602052604060002090565b612f77565b0390a2565b604051631b32400560e11b8152600490fd5b9081602091031261042457516105ba81610f64565b6040516355a8997560e01b8082526001600160a01b0383166004830152633a271fff60e01b60248301526020918281604481305afa600091816156e4575b506156665750505050600090565b61567257505050600090565b6040519081526001600160a01b03929092166004830152631aed5a8560e21b60248301528082604481305afa9182916000936156b5575b50506105ba5750600090565b6156d5929350803d106156dd575b6156cd8183610703565b810190615605565b9038806156a9565b503d6156c3565b6156fc919250843d86116156dd576156cd8183610703565b9038615658565b6040516301ffc9a760e01b808252600482018190526001600160a01b039290921692602092918381602481885afa60009181615785575b50615749575050505050600090565b15613713576040519182526001600160e01b0319166004820152918190839060249082905afa9182916000936156b55750506105ba5750600090565b61579d919250853d87116156dd576156cd8183610703565b903861573a565b906040516157b1816106cd565b600681526020368183013760005b600381106157cc57509150565b61583e90600f85821a8181169160109182841015615850575b6f181899199a1a9b1b9c1cb0b131b232b360811b9384901a61581761581161580c88613843565b61386c565b896144af565b5360041c1690811015615843575b1a61583861583283613843565b856144af565b53613965565b6157bf565b61584b6128b2565b615825565b6158586128b2565b6157e556fe70783b20616e696d6174696f6e3a206661646520347320696e66696e6974652ca2646970667358221220ca1506d654c5c630a4d3d2ae1afa6eb3b03564ad110d28cbd65480761d4d9d6064736f6c63430008110033",
  "devdoc": {
    "errors": {
      "ERC725Y_DataKeysValuesEmptyArray()": [
        {
          "details": "Reverts when one of the array parameter provided to {setDataBatch} function is an empty array."
        }
      ],
      "ERC725Y_DataKeysValuesLengthMismatch()": [
        {
          "details": "Reverts when there is not the same number of elements in the `datakeys` and `dataValues` array parameters provided when calling the {setDataBatch} function."
        }
      ],
      "ERC725Y_MsgValueDisallowed()": [
        {
          "details": "Reverts when sending value to the {setData} or {setDataBatch} function."
        }
      ],
      "InvalidExtensionAddress(bytes)": [
        {
          "details": "reverts when the bytes retrieved from the LSP17 data key is not a valid address (not 20 bytes)"
        }
      ],
      "InvalidFunctionSelector(bytes)": [
        {
          "details": "reverts when the contract is called with a function selector not valid (less than 4 bytes of data)"
        }
      ],
      "LSP4TokenNameNotEditable()": [
        {
          "details": "Reverts when trying to edit the data key `LSP4TokenName` after the digital asset contract has been deployed / initialized. The `LSP4TokenName` data key is located inside the ERC725Y data key-value store of the digital asset contract. It can be set only once inside the constructor/initializer when the digital asset contract is being deployed / initialized."
        }
      ],
      "LSP4TokenSymbolNotEditable()": [
        {
          "details": "Reverts when trying to edit the data key `LSP4TokenSymbol` after the digital asset contract has been deployed / initialized. The `LSP4TokenSymbol` data key is located inside the ERC725Y data key-value store of the digital asset contract. It can be set only once inside the constructor/initializer when the digital asset contract is being deployed / initialized."
        }
      ],
      "LSP4TokenTypeNotEditable()": [
        {
          "details": "Reverts when trying to edit the data key `LSP4TokenType` after the digital asset contract has been deployed / initialized. The `LSP4TokenType` data key is located inside the ERC725Y data key-value store of the digital asset contract. It can be set only once inside the constructor / initializer when the digital asset contract is being deployed / initialized."
        }
      ],
      "LSP8BatchCallFailed(uint256)": [
        {
          "details": "Reverts when a batch call failed."
        }
      ],
      "LSP8CannotSendToAddressZero()": [
        {
          "details": "Reverts when trying to send token to the zero address."
        }
      ],
      "LSP8CannotUseAddressZeroAsOperator()": [
        {
          "details": "Reverts when trying to set the zero address as an operator."
        }
      ],
      "LSP8InvalidTransferBatch()": [
        {
          "details": "Reverts when the parameters used for `transferBatch` have different lengths."
        }
      ],
      "LSP8NonExistentTokenId(bytes32)": [
        {
          "details": "Reverts when `tokenId` has not been minted."
        }
      ],
      "LSP8NonExistingOperator(address,bytes32)": [
        {
          "details": "Reverts when `operator` is not an operator for the `tokenId`."
        }
      ],
      "LSP8NotTokenOperator(bytes32,address)": [
        {
          "details": "Reverts when `caller` is not an allowed operator for `tokenId`."
        }
      ],
      "LSP8NotTokenOwner(address,bytes32,address)": [
        {
          "details": "Reverts when `caller` is not the `tokenOwner` of the `tokenId`."
        }
      ],
      "LSP8NotifyTokenReceiverContractMissingLSP1Interface(address)": [
        {
          "details": "Reverts if the `tokenReceiver` does not implement LSP1 when minting or transferring tokens with `bool force` set as `false`."
        }
      ],
      "LSP8NotifyTokenReceiverIsEOA(address)": [
        {
          "details": "Reverts if the `tokenReceiver` is an EOA when minting or transferring tokens with `bool force` set as `false`."
        }
      ],
      "LSP8OperatorAlreadyAuthorized(address,bytes32)": [
        {
          "details": "Reverts when `operator` is already authorized for the `tokenId`."
        }
      ],
      "LSP8RevokeOperatorNotAuthorized(address,address,bytes32)": [
        {
          "details": "Reverts when the call to revoke operator is not authorized."
        }
      ],
      "LSP8TokenContractCannotHoldValue()": [
        {
          "details": "Error occurs when sending native tokens to the LSP8 contract without sending any data. E.g. Sending value without passing a bytes4 function selector to call a LSP17 Extension."
        }
      ],
      "LSP8TokenIdAlreadyMinted(bytes32)": [
        {
          "details": "Reverts when `tokenId` has already been minted."
        }
      ],
      "LSP8TokenIdFormatNotEditable()": [
        {
          "details": "Reverts when trying to edit the data key `LSP8TokenIdFormat` after the identifiable digital asset contract has been deployed. The `LSP8TokenIdFormat` data key is located inside the ERC725Y Data key-value store of the identifiable digital asset contract. It can be set only once inside the constructor/initializer when the identifiable digital asset contract is being deployed."
        }
      ],
      "LSP8TokenIdsDataEmptyArray()": [
        {
          "details": "Reverts when empty arrays is passed to the function"
        }
      ],
      "LSP8TokenIdsDataLengthMismatch()": [
        {
          "details": "Reverts when the length of the token IDs data arrays is not equal"
        }
      ],
      "LSP8TokenOwnerCannotBeOperator()": [
        {
          "details": "Reverts when trying to authorize or revoke the token's owner as an operator."
        }
      ],
      "LSP8TokenOwnerChanged(bytes32,address,address)": [
        {
          "details": "Reverts when the token owner changed inside the {_beforeTokenTransfer} hook."
        }
      ],
      "NoExtensionFoundForFunctionSelector(bytes4)": [
        {
          "details": "reverts when there is no extension for the function selector being called with"
        }
      ],
      "OwnableCannotSetZeroAddressAsOwner()": [
        {
          "details": "Reverts when trying to set `address(0)` as the contract owner when deploying the contract or initializing it."
        }
      ]
    },
    "kind": "dev",
    "methods": {
      "authorizeOperator(address,bytes32,bytes)": {
        "details": "Allow an `operator` address to transfer or burn a specific `tokenId` on behalf of its token owner. See {isOperatorFor}. Notify the operator based on the LSP1-UniversalReceiver standard",
        "params": {
          "operator": "The address to authorize as an operator.",
          "operatorNotificationData": "The data to notify the operator about via LSP1.",
          "tokenId": "The token ID operator has access to."
        }
      },
      "balanceOf(address)": {
        "details": "Get the number of token IDs owned by `tokenOwner`.",
        "params": {
          "tokenOwner": "The address to query     *"
        },
        "returns": {
          "_0": "The total number of token IDs that `tokenOwner` owns."
        }
      },
      "batchCalls(bytes[])": {
        "custom:info": "It's not possible to send value along the functions call due to the use of `delegatecall`.",
        "details": "Allows a caller to batch different function calls in one call. Perform a `delegatecall` on self, to call different functions with preserving the context.",
        "params": {
          "data": "An array of ABI encoded function calls to be called on the contract."
        },
        "returns": {
          "results": "An array of abi-encoded data returned by the functions executed."
        }
      },
      "getDataBatchForTokenIds(bytes32[],bytes32[])": {
        "params": {
          "dataKeys": "An array of data keys corresponding to the token IDs.",
          "tokenIds": "An array of token IDs."
        },
        "returns": {
          "dataValues": "An array of data values for each pair of `tokenId` and `dataKey`."
        }
      },
      "getDataForTokenId(bytes32,bytes32)": {
        "params": {
          "dataKey": "The key for the data to retrieve.",
          "tokenId": "The unique identifier for a token."
        },
        "returns": {
          "dataValue": "The data value associated with the given `tokenId` and `dataKey`."
        }
      },
      "getOperatorsOf(bytes32)": {
        "details": "Returns all `operator` addresses that are allowed to transfer or burn a specific `tokenId` on behalf of its owner.",
        "params": {
          "tokenId": "The token ID to get the operators for."
        },
        "returns": {
          "_0": "An array of operators allowed to transfer or burn a specific `tokenId`. Requirements - `tokenId` must exist."
        }
      },
      "isOperatorFor(address,bytes32)": {
        "details": "Returns whether `operator` address is an operator for a given `tokenId`.",
        "params": {
          "operator": "The address to query operator status for.",
          "tokenId": "The token ID to check if `operator` is allowed to operate on."
        },
        "returns": {
          "_0": "`true` if `operator` is an operator for `tokenId`, `false` otherwise."
        }
      },
      "owner()": {
        "details": "Returns the address of the current owner."
      },
      "renounceOwnership()": {
        "details": "Leaves the contract without owner. It will not be possible to call `onlyOwner` functions. Can only be called by the current owner. NOTE: Renouncing ownership will leave the contract without an owner, thereby disabling any functionality that is only available to the owner."
      },
      "revokeOperator(address,bytes32,bool,bytes)": {
        "details": "Remove access of `operator` for a given `tokenId`, disallowing it to transfer `tokenId` on behalf of its owner. See also {isOperatorFor}.",
        "params": {
          "notify": "Boolean indicating whether to notify the operator or not",
          "operator": "The address to revoke as an operator.",
          "operatorNotificationData": "The data to notify the operator about via LSP1.",
          "tokenId": "The tokenId `operator` is revoked from operating on."
        }
      },
      "setDataBatchForTokenIds(bytes32[],bytes32[],bytes[])": {
        "params": {
          "dataKeys": "An array of data keys corresponding to the token IDs.",
          "dataValues": "An array of values to set for the given data keys.",
          "tokenIds": "An array of token IDs."
        }
      },
      "setDataForTokenId(bytes32,bytes32,bytes)": {
        "params": {
          "dataKey": "The key for the data to set.",
          "dataValue": "The value to set for the given data key.",
          "tokenId": "The unique identifier for a token."
        }
      },
      "supportsInterface(bytes4)": {
        "details": "See {IERC165-supportsInterface}."
      },
      "tokenIdsOf(address)": {
        "details": "Returns the list of token IDs that the `tokenOwner` address owns.",
        "params": {
          "tokenOwner": "The address that we want to get the list of token IDs for."
        },
        "returns": {
          "_0": "An array of `bytes32[] tokenIds` owned by `tokenOwner`."
        }
      },
      "tokenOwnerOf(bytes32)": {
        "details": "Returns the address that owns a given `tokenId`.",
        "params": {
          "tokenId": "The token ID to query the owner for."
        },
        "returns": {
          "_0": "The owner address of the given `tokenId`."
        }
      },
      "totalSupply()": {
        "details": "Returns the number of existing tokens that have been minted in this contract.",
        "returns": {
          "_0": "The number of existing tokens."
        }
      },
      "transfer(address,address,bytes32,bool,bytes)": {
        "details": "Transfer a given `tokenId` token from the `from` address to the `to` address. If operators are set for a specific `tokenId`, all the operators are revoked after the tokenId have been transferred. The `force` parameter MUST be set to `true` when transferring tokens to Externally Owned Accounts (EOAs) or contracts that do not implement the LSP1 standard.",
        "params": {
          "data": "Any additional data the caller wants included in the emitted event, and sent in the hooks of the `from` and `to` addresses.",
          "force": "When set to `true`, the `to` address CAN be any address. When set to `false`, the `to` address MUST be a contract that supports the LSP1 UniversalReceiver standard.",
          "from": "The address that owns the given `tokenId`.",
          "to": "The address that will receive the `tokenId`.",
          "tokenId": "The token ID to transfer."
        }
      },
      "transferBatch(address[],address[],bytes32[],bool[],bytes[])": {
        "details": "Transfers multiple tokens at once based on the arrays of `from`, `to` and `tokenId`. If any transfer fails, the whole call will revert.",
        "params": {
          "data": "Any additional data the caller wants included in the emitted event, and sent in the hooks to the `from` and `to` addresses.",
          "force": "When set to `true`, `to` may be any address. When set to `false`, `to` must be a contract that supports the LSP1 standard and not revert.",
          "from": "An array of sending addresses.",
          "to": "An array of recipient addresses.",
          "tokenId": "An array of token IDs to transfer."
        }
      },
      "transferOwnership(address)": {
        "details": "Transfers ownership of the contract to a new account (`newOwner`). Can only be called by the current owner."
      }
    },
    "version": 1
  },
  "userdoc": {
    "errors": {
      "LSP8BatchCallFailed(uint256)": [
        {
          "notice": "Batch call failed."
        }
      ],
      "LSP8TokenContractCannotHoldValue()": [
        {
          "notice": "LSP8 contract cannot receive native tokens."
        }
      ]
    },
    "events": {
      "DataChanged(bytes32,bytes)": {
        "notice": "The following data key/value pair has been changed in the ERC725Y storage: Data key: `dataKey`, data value: `dataValue`."
      }
    },
    "kind": "user",
    "methods": {
      "batchCalls(bytes[])": {
        "notice": "Executing the following batch of abi-encoded function calls on the contract: `data`."
      },
      "getDataBatchForTokenIds(bytes32[],bytes32[])": {
        "notice": "Retrieves data in batch for multiple `tokenId` and `dataKey` pairs."
      },
      "getDataForTokenId(bytes32,bytes32)": {
        "notice": "Retrieves data for a specific `tokenId` and `dataKey`."
      },
      "setDataBatchForTokenIds(bytes32[],bytes32[],bytes[])": {
        "notice": "Sets data in batch for multiple `tokenId` and `dataKey` pairs."
      },
      "setDataForTokenId(bytes32,bytes32,bytes)": {
        "notice": "Sets data for a specific `tokenId` and `dataKey`."
      }
    },
    "version": 1
  },
  "storageLayout": {
    "storage": [
      {
        "astId": 3617,
        "contract": "contracts/LSP8Loogies.sol:LSP8Loogies",
        "label": "_owner",
        "offset": 0,
        "slot": "0",
        "type": "t_address"
      },
      {
        "astId": 26,
        "contract": "contracts/LSP8Loogies.sol:LSP8Loogies",
        "label": "_store",
        "offset": 0,
        "slot": "1",
        "type": "t_mapping(t_bytes32,t_bytes_storage)"
      },
      {
        "astId": 2066,
        "contract": "contracts/LSP8Loogies.sol:LSP8Loogies",
        "label": "_existingTokens",
        "offset": 0,
        "slot": "2",
        "type": "t_uint256"
      },
      {
        "astId": 2070,
        "contract": "contracts/LSP8Loogies.sol:LSP8Loogies",
        "label": "_tokenOwners",
        "offset": 0,
        "slot": "3",
        "type": "t_mapping(t_bytes32,t_address)"
      },
      {
        "astId": 2075,
        "contract": "contracts/LSP8Loogies.sol:LSP8Loogies",
        "label": "_ownedTokens",
        "offset": 0,
        "slot": "4",
        "type": "t_mapping(t_address,t_struct(Bytes32Set)5434_storage)"
      },
      {
        "astId": 2080,
        "contract": "contracts/LSP8Loogies.sol:LSP8Loogies",
        "label": "_operators",
        "offset": 0,
        "slot": "5",
        "type": "t_mapping(t_bytes32,t_struct(AddressSet)5555_storage)"
      },
      {
        "astId": 6016,
        "contract": "contracts/LSP8Loogies.sol:LSP8Loogies",
        "label": "_tokenIds",
        "offset": 0,
        "slot": "6",
        "type": "t_uint256"
      },
      {
        "astId": 6020,
        "contract": "contracts/LSP8Loogies.sol:LSP8Loogies",
        "label": "color",
        "offset": 0,
        "slot": "7",
        "type": "t_mapping(t_bytes32,t_bytes3)"
      },
      {
        "astId": 6024,
        "contract": "contracts/LSP8Loogies.sol:LSP8Loogies",
        "label": "chubbiness",
        "offset": 0,
        "slot": "8",
        "type": "t_mapping(t_bytes32,t_uint256)"
      },
      {
        "astId": 6028,
        "contract": "contracts/LSP8Loogies.sol:LSP8Loogies",
        "label": "mouthLength",
        "offset": 0,
        "slot": "9",
        "type": "t_mapping(t_bytes32,t_uint256)"
      },
      {
        "astId": 6032,
        "contract": "contracts/LSP8Loogies.sol:LSP8Loogies",
        "label": "_tokenIdExists",
        "offset": 0,
        "slot": "10",
        "type": "t_mapping(t_uint256,t_bool)"
      },
      {
        "astId": 6036,
        "contract": "contracts/LSP8Loogies.sol:LSP8Loogies",
        "label": "upUsernames",
        "offset": 0,
        "slot": "11",
        "type": "t_mapping(t_bytes32,t_string_storage)"
      },
      {
        "astId": 6051,
        "contract": "contracts/LSP8Loogies.sol:LSP8Loogies",
        "label": "price",
        "offset": 0,
        "slot": "12",
        "type": "t_uint256"
      }
    ],
    "types": {
      "t_address": {
        "encoding": "inplace",
        "label": "address",
        "numberOfBytes": "20"
      },
      "t_array(t_bytes32)dyn_storage": {
        "base": "t_bytes32",
        "encoding": "dynamic_array",
        "label": "bytes32[]",
        "numberOfBytes": "32"
      },
      "t_bool": {
        "encoding": "inplace",
        "label": "bool",
        "numberOfBytes": "1"
      },
      "t_bytes3": {
        "encoding": "inplace",
        "label": "bytes3",
        "numberOfBytes": "3"
      },
      "t_bytes32": {
        "encoding": "inplace",
        "label": "bytes32",
        "numberOfBytes": "32"
      },
      "t_bytes_storage": {
        "encoding": "bytes",
        "label": "bytes",
        "numberOfBytes": "32"
      },
      "t_mapping(t_address,t_struct(Bytes32Set)5434_storage)": {
        "encoding": "mapping",
        "key": "t_address",
        "label": "mapping(address => struct EnumerableSet.Bytes32Set)",
        "numberOfBytes": "32",
        "value": "t_struct(Bytes32Set)5434_storage"
      },
      "t_mapping(t_bytes32,t_address)": {
        "encoding": "mapping",
        "key": "t_bytes32",
        "label": "mapping(bytes32 => address)",
        "numberOfBytes": "32",
        "value": "t_address"
      },
      "t_mapping(t_bytes32,t_bytes3)": {
        "encoding": "mapping",
        "key": "t_bytes32",
        "label": "mapping(bytes32 => bytes3)",
        "numberOfBytes": "32",
        "value": "t_bytes3"
      },
      "t_mapping(t_bytes32,t_bytes_storage)": {
        "encoding": "mapping",
        "key": "t_bytes32",
        "label": "mapping(bytes32 => bytes)",
        "numberOfBytes": "32",
        "value": "t_bytes_storage"
      },
      "t_mapping(t_bytes32,t_string_storage)": {
        "encoding": "mapping",
        "key": "t_bytes32",
        "label": "mapping(bytes32 => string)",
        "numberOfBytes": "32",
        "value": "t_string_storage"
      },
      "t_mapping(t_bytes32,t_struct(AddressSet)5555_storage)": {
        "encoding": "mapping",
        "key": "t_bytes32",
        "label": "mapping(bytes32 => struct EnumerableSet.AddressSet)",
        "numberOfBytes": "32",
        "value": "t_struct(AddressSet)5555_storage"
      },
      "t_mapping(t_bytes32,t_uint256)": {
        "encoding": "mapping",
        "key": "t_bytes32",
        "label": "mapping(bytes32 => uint256)",
        "numberOfBytes": "32",
        "value": "t_uint256"
      },
      "t_mapping(t_uint256,t_bool)": {
        "encoding": "mapping",
        "key": "t_uint256",
        "label": "mapping(uint256 => bool)",
        "numberOfBytes": "32",
        "value": "t_bool"
      },
      "t_string_storage": {
        "encoding": "bytes",
        "label": "string",
        "numberOfBytes": "32"
      },
      "t_struct(AddressSet)5555_storage": {
        "encoding": "inplace",
        "label": "struct EnumerableSet.AddressSet",
        "members": [
          {
            "astId": 5554,
            "contract": "contracts/LSP8Loogies.sol:LSP8Loogies",
            "label": "_inner",
            "offset": 0,
            "slot": "0",
            "type": "t_struct(Set)5240_storage"
          }
        ],
        "numberOfBytes": "64"
      },
      "t_struct(Bytes32Set)5434_storage": {
        "encoding": "inplace",
        "label": "struct EnumerableSet.Bytes32Set",
        "members": [
          {
            "astId": 5433,
            "contract": "contracts/LSP8Loogies.sol:LSP8Loogies",
            "label": "_inner",
            "offset": 0,
            "slot": "0",
            "type": "t_struct(Set)5240_storage"
          }
        ],
        "numberOfBytes": "64"
      },
      "t_struct(Set)5240_storage": {
        "encoding": "inplace",
        "label": "struct EnumerableSet.Set",
        "members": [
          {
            "astId": 5235,
            "contract": "contracts/LSP8Loogies.sol:LSP8Loogies",
            "label": "_values",
            "offset": 0,
            "slot": "0",
            "type": "t_array(t_bytes32)dyn_storage"
          },
          {
            "astId": 5239,
            "contract": "contracts/LSP8Loogies.sol:LSP8Loogies",
            "label": "_indexes",
            "offset": 0,
            "slot": "1",
            "type": "t_mapping(t_bytes32,t_uint256)"
          }
        ],
        "numberOfBytes": "64"
      },
      "t_uint256": {
        "encoding": "inplace",
        "label": "uint256",
        "numberOfBytes": "32"
      }
    }
  }
}