{
  "address": "0xC483Ddfa5950140e35B3C65eD174777137323776",
  "abi": [
    {
      "inputs": [
        {
          "internalType": "address",
          "name": "contractOwner",
          "type": "address"
        }
      ],
      "stateMutability": "nonpayable",
      "type": "constructor"
    },
    {
      "inputs": [],
      "name": "ERC725Y_DataKeysValuesEmptyArray",
      "type": "error"
    },
    {
      "inputs": [],
      "name": "ERC725Y_DataKeysValuesLengthMismatch",
      "type": "error"
    },
    {
      "inputs": [],
      "name": "ERC725Y_MsgValueDisallowed",
      "type": "error"
    },
    {
      "inputs": [
        {
          "internalType": "bytes",
          "name": "storedData",
          "type": "bytes"
        }
      ],
      "name": "InvalidExtensionAddress",
      "type": "error"
    },
    {
      "inputs": [
        {
          "internalType": "bytes",
          "name": "data",
          "type": "bytes"
        }
      ],
      "name": "InvalidFunctionSelector",
      "type": "error"
    },
    {
      "inputs": [],
      "name": "LSP4TokenNameNotEditable",
      "type": "error"
    },
    {
      "inputs": [],
      "name": "LSP4TokenSymbolNotEditable",
      "type": "error"
    },
    {
      "inputs": [],
      "name": "LSP4TokenTypeNotEditable",
      "type": "error"
    },
    {
      "inputs": [
        {
          "internalType": "uint256",
          "name": "callIndex",
          "type": "uint256"
        }
      ],
      "name": "LSP8BatchCallFailed",
      "type": "error"
    },
    {
      "inputs": [],
      "name": "LSP8CannotSendToAddressZero",
      "type": "error"
    },
    {
      "inputs": [],
      "name": "LSP8CannotUseAddressZeroAsOperator",
      "type": "error"
    },
    {
      "inputs": [],
      "name": "LSP8InvalidTransferBatch",
      "type": "error"
    },
    {
      "inputs": [
        {
          "internalType": "bytes32",
          "name": "tokenId",
          "type": "bytes32"
        }
      ],
      "name": "LSP8NonExistentTokenId",
      "type": "error"
    },
    {
      "inputs": [
        {
          "internalType": "address",
          "name": "operator",
          "type": "address"
        },
        {
          "internalType": "bytes32",
          "name": "tokenId",
          "type": "bytes32"
        }
      ],
      "name": "LSP8NonExistingOperator",
      "type": "error"
    },
    {
      "inputs": [
        {
          "internalType": "bytes32",
          "name": "tokenId",
          "type": "bytes32"
        },
        {
          "internalType": "address",
          "name": "caller",
          "type": "address"
        }
      ],
      "name": "LSP8NotTokenOperator",
      "type": "error"
    },
    {
      "inputs": [
        {
          "internalType": "address",
          "name": "tokenOwner",
          "type": "address"
        },
        {
          "internalType": "bytes32",
          "name": "tokenId",
          "type": "bytes32"
        },
        {
          "internalType": "address",
          "name": "caller",
          "type": "address"
        }
      ],
      "name": "LSP8NotTokenOwner",
      "type": "error"
    },
    {
      "inputs": [
        {
          "internalType": "address",
          "name": "tokenReceiver",
          "type": "address"
        }
      ],
      "name": "LSP8NotifyTokenReceiverContractMissingLSP1Interface",
      "type": "error"
    },
    {
      "inputs": [
        {
          "internalType": "address",
          "name": "tokenReceiver",
          "type": "address"
        }
      ],
      "name": "LSP8NotifyTokenReceiverIsEOA",
      "type": "error"
    },
    {
      "inputs": [
        {
          "internalType": "address",
          "name": "operator",
          "type": "address"
        },
        {
          "internalType": "bytes32",
          "name": "tokenId",
          "type": "bytes32"
        }
      ],
      "name": "LSP8OperatorAlreadyAuthorized",
      "type": "error"
    },
    {
      "inputs": [
        {
          "internalType": "address",
          "name": "caller",
          "type": "address"
        },
        {
          "internalType": "address",
          "name": "tokenOwner",
          "type": "address"
        },
        {
          "internalType": "bytes32",
          "name": "tokenId",
          "type": "bytes32"
        }
      ],
      "name": "LSP8RevokeOperatorNotAuthorized",
      "type": "error"
    },
    {
      "inputs": [],
      "name": "LSP8TokenContractCannotHoldValue",
      "type": "error"
    },
    {
      "inputs": [
        {
          "internalType": "bytes32",
          "name": "tokenId",
          "type": "bytes32"
        }
      ],
      "name": "LSP8TokenIdAlreadyMinted",
      "type": "error"
    },
    {
      "inputs": [],
      "name": "LSP8TokenIdFormatNotEditable",
      "type": "error"
    },
    {
      "inputs": [],
      "name": "LSP8TokenIdsDataEmptyArray",
      "type": "error"
    },
    {
      "inputs": [],
      "name": "LSP8TokenIdsDataLengthMismatch",
      "type": "error"
    },
    {
      "inputs": [],
      "name": "LSP8TokenOwnerCannotBeOperator",
      "type": "error"
    },
    {
      "inputs": [
        {
          "internalType": "bytes32",
          "name": "tokenId",
          "type": "bytes32"
        },
        {
          "internalType": "address",
          "name": "oldOwner",
          "type": "address"
        },
        {
          "internalType": "address",
          "name": "newOwner",
          "type": "address"
        }
      ],
      "name": "LSP8TokenOwnerChanged",
      "type": "error"
    },
    {
      "inputs": [
        {
          "internalType": "bytes4",
          "name": "functionSelector",
          "type": "bytes4"
        }
      ],
      "name": "NoExtensionFoundForFunctionSelector",
      "type": "error"
    },
    {
      "inputs": [],
      "name": "OwnableCannotSetZeroAddressAsOwner",
      "type": "error"
    },
    {
      "anonymous": false,
      "inputs": [
        {
          "indexed": true,
          "internalType": "bytes32",
          "name": "dataKey",
          "type": "bytes32"
        },
        {
          "indexed": false,
          "internalType": "bytes",
          "name": "dataValue",
          "type": "bytes"
        }
      ],
      "name": "DataChanged",
      "type": "event"
    },
    {
      "anonymous": false,
      "inputs": [
        {
          "indexed": true,
          "internalType": "address",
          "name": "operator",
          "type": "address"
        },
        {
          "indexed": true,
          "internalType": "address",
          "name": "tokenOwner",
          "type": "address"
        },
        {
          "indexed": true,
          "internalType": "bytes32",
          "name": "tokenId",
          "type": "bytes32"
        },
        {
          "indexed": false,
          "internalType": "bytes",
          "name": "operatorNotificationData",
          "type": "bytes"
        }
      ],
      "name": "OperatorAuthorizationChanged",
      "type": "event"
    },
    {
      "anonymous": false,
      "inputs": [
        {
          "indexed": true,
          "internalType": "address",
          "name": "operator",
          "type": "address"
        },
        {
          "indexed": true,
          "internalType": "address",
          "name": "tokenOwner",
          "type": "address"
        },
        {
          "indexed": true,
          "internalType": "bytes32",
          "name": "tokenId",
          "type": "bytes32"
        },
        {
          "indexed": false,
          "internalType": "bool",
          "name": "notified",
          "type": "bool"
        },
        {
          "indexed": false,
          "internalType": "bytes",
          "name": "operatorNotificationData",
          "type": "bytes"
        }
      ],
      "name": "OperatorRevoked",
      "type": "event"
    },
    {
      "anonymous": false,
      "inputs": [
        {
          "indexed": true,
          "internalType": "address",
          "name": "previousOwner",
          "type": "address"
        },
        {
          "indexed": true,
          "internalType": "address",
          "name": "newOwner",
          "type": "address"
        }
      ],
      "name": "OwnershipTransferred",
      "type": "event"
    },
    {
      "anonymous": false,
      "inputs": [
        {
          "indexed": true,
          "internalType": "bytes32",
          "name": "tokenId",
          "type": "bytes32"
        },
        {
          "indexed": true,
          "internalType": "bytes32",
          "name": "dataKey",
          "type": "bytes32"
        },
        {
          "indexed": false,
          "internalType": "bytes",
          "name": "dataValue",
          "type": "bytes"
        }
      ],
      "name": "TokenIdDataChanged",
      "type": "event"
    },
    {
      "anonymous": false,
      "inputs": [
        {
          "indexed": false,
          "internalType": "address",
          "name": "operator",
          "type": "address"
        },
        {
          "indexed": true,
          "internalType": "address",
          "name": "from",
          "type": "address"
        },
        {
          "indexed": true,
          "internalType": "address",
          "name": "to",
          "type": "address"
        },
        {
          "indexed": true,
          "internalType": "bytes32",
          "name": "tokenId",
          "type": "bytes32"
        },
        {
          "indexed": false,
          "internalType": "bool",
          "name": "force",
          "type": "bool"
        },
        {
          "indexed": false,
          "internalType": "bytes",
          "name": "data",
          "type": "bytes"
        }
      ],
      "name": "Transfer",
      "type": "event"
    },
    {
      "stateMutability": "payable",
      "type": "fallback"
    },
    {
      "inputs": [
        {
          "internalType": "address",
          "name": "_addr",
          "type": "address"
        }
      ],
      "name": "addressToString",
      "outputs": [
        {
          "internalType": "string",
          "name": "",
          "type": "string"
        }
      ],
      "stateMutability": "pure",
      "type": "function"
    },
    {
      "inputs": [
        {
          "internalType": "address",
          "name": "operator",
          "type": "address"
        },
        {
          "internalType": "bytes32",
          "name": "tokenId",
          "type": "bytes32"
        },
        {
          "internalType": "bytes",
          "name": "operatorNotificationData",
          "type": "bytes"
        }
      ],
      "name": "authorizeOperator",
      "outputs": [],
      "stateMutability": "nonpayable",
      "type": "function"
    },
    {
      "inputs": [
        {
          "internalType": "address",
          "name": "tokenOwner",
          "type": "address"
        }
      ],
      "name": "balanceOf",
      "outputs": [
        {
          "internalType": "uint256",
          "name": "",
          "type": "uint256"
        }
      ],
      "stateMutability": "view",
      "type": "function"
    },
    {
      "inputs": [
        {
          "internalType": "bytes[]",
          "name": "data",
          "type": "bytes[]"
        }
      ],
      "name": "batchCalls",
      "outputs": [
        {
          "internalType": "bytes[]",
          "name": "results",
          "type": "bytes[]"
        }
      ],
      "stateMutability": "nonpayable",
      "type": "function"
    },
    {
      "inputs": [
        {
          "internalType": "bytes32",
          "name": "_bytes",
          "type": "bytes32"
        }
      ],
      "name": "bytes32ToString",
      "outputs": [
        {
          "internalType": "string",
          "name": "",
          "type": "string"
        }
      ],
      "stateMutability": "pure",
      "type": "function"
    },
    {
      "inputs": [
        {
          "internalType": "bytes32",
          "name": "",
          "type": "bytes32"
        }
      ],
      "name": "chubbiness",
      "outputs": [
        {
          "internalType": "uint256",
          "name": "",
          "type": "uint256"
        }
      ],
      "stateMutability": "view",
      "type": "function"
    },
    {
      "inputs": [
        {
          "internalType": "bytes32",
          "name": "",
          "type": "bytes32"
        }
      ],
      "name": "color",
      "outputs": [
        {
          "internalType": "bytes3",
          "name": "",
          "type": "bytes3"
        }
      ],
      "stateMutability": "view",
      "type": "function"
    },
    {
      "inputs": [],
      "name": "createCollectionMetadata",
      "outputs": [
        {
          "internalType": "bytes",
          "name": "raw",
          "type": "bytes"
        },
        {
          "internalType": "bytes",
          "name": "encoded",
          "type": "bytes"
        }
      ],
      "stateMutability": "pure",
      "type": "function"
    },
    {
      "inputs": [
        {
          "internalType": "bytes32",
          "name": "tokenId",
          "type": "bytes32"
        },
        {
          "internalType": "bytes3",
          "name": "color",
          "type": "bytes3"
        },
        {
          "internalType": "uint256",
          "name": "chubbiness",
          "type": "uint256"
        },
        {
          "internalType": "uint256",
          "name": "mouthLength",
          "type": "uint256"
        },
        {
          "internalType": "string",
          "name": "username",
          "type": "string"
        },
        {
          "internalType": "bool",
          "name": "isUP",
          "type": "bool"
        },
        {
          "internalType": "address",
          "name": "contractAddress",
          "type": "address"
        }
      ],
      "name": "createTokenMetadata",
      "outputs": [
        {
          "internalType": "bytes",
          "name": "raw",
          "type": "bytes"
        },
        {
          "internalType": "bytes",
          "name": "encoded",
          "type": "bytes"
        }
      ],
      "stateMutability": "pure",
      "type": "function"
    },
    {
      "inputs": [],
      "name": "curve",
      "outputs": [
        {
          "internalType": "uint256",
          "name": "",
          "type": "uint256"
        }
      ],
      "stateMutability": "view",
      "type": "function"
    },
    {
      "inputs": [
        {
          "internalType": "bytes3",
          "name": "color",
          "type": "bytes3"
        },
        {
          "internalType": "uint256",
          "name": "chubbiness",
          "type": "uint256"
        },
        {
          "internalType": "uint256",
          "name": "mouthLength",
          "type": "uint256"
        },
        {
          "internalType": "string",
          "name": "username",
          "type": "string"
        },
        {
          "internalType": "bool",
          "name": "isUP",
          "type": "bool"
        },
        {
          "internalType": "bytes32",
          "name": "matrixSeed",
          "type": "bytes32"
        }
      ],
      "name": "generateLoogieSVG",
      "outputs": [
        {
          "internalType": "string",
          "name": "",
          "type": "string"
        }
      ],
      "stateMutability": "pure",
      "type": "function"
    },
    {
      "inputs": [
        {
          "internalType": "bytes32",
          "name": "tokenId",
          "type": "bytes32"
        }
      ],
      "name": "generateMatrixRainEffect",
      "outputs": [
        {
          "internalType": "string",
          "name": "",
          "type": "string"
        }
      ],
      "stateMutability": "pure",
      "type": "function"
    },
    {
      "inputs": [
        {
          "internalType": "bytes32",
          "name": "dataKey",
          "type": "bytes32"
        }
      ],
      "name": "getData",
      "outputs": [
        {
          "internalType": "bytes",
          "name": "dataValue",
          "type": "bytes"
        }
      ],
      "stateMutability": "view",
      "type": "function"
    },
    {
      "inputs": [
        {
          "internalType": "bytes32[]",
          "name": "dataKeys",
          "type": "bytes32[]"
        }
      ],
      "name": "getDataBatch",
      "outputs": [
        {
          "internalType": "bytes[]",
          "name": "dataValues",
          "type": "bytes[]"
        }
      ],
      "stateMutability": "view",
      "type": "function"
    },
    {
      "inputs": [
        {
          "internalType": "bytes32[]",
          "name": "tokenIds",
          "type": "bytes32[]"
        },
        {
          "internalType": "bytes32[]",
          "name": "dataKeys",
          "type": "bytes32[]"
        }
      ],
      "name": "getDataBatchForTokenIds",
      "outputs": [
        {
          "internalType": "bytes[]",
          "name": "dataValues",
          "type": "bytes[]"
        }
      ],
      "stateMutability": "view",
      "type": "function"
    },
    {
      "inputs": [
        {
          "internalType": "bytes32",
          "name": "tokenId",
          "type": "bytes32"
        },
        {
          "internalType": "bytes32",
          "name": "dataKey",
          "type": "bytes32"
        }
      ],
      "name": "getDataForTokenId",
      "outputs": [
        {
          "internalType": "bytes",
          "name": "dataValue",
          "type": "bytes"
        }
      ],
      "stateMutability": "view",
      "type": "function"
    },
    {
      "inputs": [
        {
          "internalType": "bytes32",
          "name": "tokenId",
          "type": "bytes32"
        }
      ],
      "name": "getOperatorsOf",
      "outputs": [
        {
          "internalType": "address[]",
          "name": "",
          "type": "address[]"
        }
      ],
      "stateMutability": "view",
      "type": "function"
    },
    {
      "inputs": [
        {
          "internalType": "address",
          "name": "operator",
          "type": "address"
        },
        {
          "internalType": "bytes32",
          "name": "tokenId",
          "type": "bytes32"
        }
      ],
      "name": "isOperatorFor",
      "outputs": [
        {
          "internalType": "bool",
          "name": "",
          "type": "bool"
        }
      ],
      "stateMutability": "view",
      "type": "function"
    },
    {
      "inputs": [
        {
          "internalType": "address",
          "name": "account",
          "type": "address"
        }
      ],
      "name": "isUniversalProfile",
      "outputs": [
        {
          "internalType": "bool",
          "name": "",
          "type": "bool"
        }
      ],
      "stateMutability": "view",
      "type": "function"
    },
    {
      "inputs": [],
      "name": "limit",
      "outputs": [
        {
          "internalType": "uint256",
          "name": "",
          "type": "uint256"
        }
      ],
      "stateMutability": "view",
      "type": "function"
    },
    {
      "inputs": [],
      "name": "mintItem",
      "outputs": [
        {
          "internalType": "bytes32",
          "name": "",
          "type": "bytes32"
        }
      ],
      "stateMutability": "payable",
      "type": "function"
    },
    {
      "inputs": [
        {
          "internalType": "address",
          "name": "to",
          "type": "address"
        }
      ],
      "name": "mintLoogie",
      "outputs": [
        {
          "internalType": "bytes32",
          "name": "",
          "type": "bytes32"
        }
      ],
      "stateMutability": "nonpayable",
      "type": "function"
    },
    {
      "inputs": [
        {
          "internalType": "bytes32",
          "name": "",
          "type": "bytes32"
        }
      ],
      "name": "mouthLength",
      "outputs": [
        {
          "internalType": "uint256",
          "name": "",
          "type": "uint256"
        }
      ],
      "stateMutability": "view",
      "type": "function"
    },
    {
      "inputs": [],
      "name": "name",
      "outputs": [
        {
          "internalType": "string",
          "name": "",
          "type": "string"
        }
      ],
      "stateMutability": "view",
      "type": "function"
    },
    {
      "inputs": [],
      "name": "owner",
      "outputs": [
        {
          "internalType": "address",
          "name": "",
          "type": "address"
        }
      ],
      "stateMutability": "view",
      "type": "function"
    },
    {
      "inputs": [],
      "name": "price",
      "outputs": [
        {
          "internalType": "uint256",
          "name": "",
          "type": "uint256"
        }
      ],
      "stateMutability": "view",
      "type": "function"
    },
    {
      "inputs": [],
      "name": "recipient",
      "outputs": [
        {
          "internalType": "address payable",
          "name": "",
          "type": "address"
        }
      ],
      "stateMutability": "view",
      "type": "function"
    },
    {
      "inputs": [],
      "name": "renounceOwnership",
      "outputs": [],
      "stateMutability": "nonpayable",
      "type": "function"
    },
    {
      "inputs": [
        {
          "internalType": "address",
          "name": "operator",
          "type": "address"
        },
        {
          "internalType": "bytes32",
          "name": "tokenId",
          "type": "bytes32"
        },
        {
          "internalType": "bool",
          "name": "notify",
          "type": "bool"
        },
        {
          "internalType": "bytes",
          "name": "operatorNotificationData",
          "type": "bytes"
        }
      ],
      "name": "revokeOperator",
      "outputs": [],
      "stateMutability": "nonpayable",
      "type": "function"
    },
    {
      "inputs": [
        {
          "internalType": "bytes32",
          "name": "dataKey",
          "type": "bytes32"
        },
        {
          "internalType": "bytes",
          "name": "dataValue",
          "type": "bytes"
        }
      ],
      "name": "setData",
      "outputs": [],
      "stateMutability": "payable",
      "type": "function"
    },
    {
      "inputs": [
        {
          "internalType": "bytes32[]",
          "name": "dataKeys",
          "type": "bytes32[]"
        },
        {
          "internalType": "bytes[]",
          "name": "dataValues",
          "type": "bytes[]"
        }
      ],
      "name": "setDataBatch",
      "outputs": [],
      "stateMutability": "payable",
      "type": "function"
    },
    {
      "inputs": [
        {
          "internalType": "bytes32[]",
          "name": "tokenIds",
          "type": "bytes32[]"
        },
        {
          "internalType": "bytes32[]",
          "name": "dataKeys",
          "type": "bytes32[]"
        },
        {
          "internalType": "bytes[]",
          "name": "dataValues",
          "type": "bytes[]"
        }
      ],
      "name": "setDataBatchForTokenIds",
      "outputs": [],
      "stateMutability": "nonpayable",
      "type": "function"
    },
    {
      "inputs": [
        {
          "internalType": "bytes32",
          "name": "tokenId",
          "type": "bytes32"
        },
        {
          "internalType": "bytes32",
          "name": "dataKey",
          "type": "bytes32"
        },
        {
          "internalType": "bytes",
          "name": "dataValue",
          "type": "bytes"
        }
      ],
      "name": "setDataForTokenId",
      "outputs": [],
      "stateMutability": "nonpayable",
      "type": "function"
    },
    {
      "inputs": [
        {
          "internalType": "bytes32",
          "name": "tokenId",
          "type": "bytes32"
        },
        {
          "internalType": "string",
          "name": "username",
          "type": "string"
        }
      ],
      "name": "setUPUsername",
      "outputs": [],
      "stateMutability": "nonpayable",
      "type": "function"
    },
    {
      "inputs": [
        {
          "internalType": "bytes4",
          "name": "interfaceId",
          "type": "bytes4"
        }
      ],
      "name": "supportsInterface",
      "outputs": [
        {
          "internalType": "bool",
          "name": "",
          "type": "bool"
        }
      ],
      "stateMutability": "view",
      "type": "function"
    },
    {
      "inputs": [],
      "name": "symbol",
      "outputs": [
        {
          "internalType": "string",
          "name": "",
          "type": "string"
        }
      ],
      "stateMutability": "view",
      "type": "function"
    },
    {
      "inputs": [
        {
          "internalType": "bytes3",
          "name": "_color",
          "type": "bytes3"
        }
      ],
      "name": "toColorHexString",
      "outputs": [
        {
          "internalType": "string",
          "name": "",
          "type": "string"
        }
      ],
      "stateMutability": "pure",
      "type": "function"
    },
    {
      "inputs": [
        {
          "internalType": "uint256",
          "name": "id",
          "type": "uint256"
        }
      ],
      "name": "tokenExists",
      "outputs": [
        {
          "internalType": "bool",
          "name": "",
          "type": "bool"
        }
      ],
      "stateMutability": "view",
      "type": "function"
    },
    {
      "inputs": [
        {
          "internalType": "address",
          "name": "tokenOwner",
          "type": "address"
        }
      ],
      "name": "tokenIdsOf",
      "outputs": [
        {
          "internalType": "bytes32[]",
          "name": "",
          "type": "bytes32[]"
        }
      ],
      "stateMutability": "view",
      "type": "function"
    },
    {
      "inputs": [
        {
          "internalType": "bytes32",
          "name": "tokenId",
          "type": "bytes32"
        }
      ],
      "name": "tokenOwnerOf",
      "outputs": [
        {
          "internalType": "address",
          "name": "",
          "type": "address"
        }
      ],
      "stateMutability": "view",
      "type": "function"
    },
    {
      "inputs": [],
      "name": "totalSupply",
      "outputs": [
        {
          "internalType": "uint256",
          "name": "",
          "type": "uint256"
        }
      ],
      "stateMutability": "view",
      "type": "function"
    },
    {
      "inputs": [
        {
          "internalType": "address",
          "name": "from",
          "type": "address"
        },
        {
          "internalType": "address",
          "name": "to",
          "type": "address"
        },
        {
          "internalType": "bytes32",
          "name": "tokenId",
          "type": "bytes32"
        },
        {
          "internalType": "bool",
          "name": "force",
          "type": "bool"
        },
        {
          "internalType": "bytes",
          "name": "data",
          "type": "bytes"
        }
      ],
      "name": "transfer",
      "outputs": [],
      "stateMutability": "nonpayable",
      "type": "function"
    },
    {
      "inputs": [
        {
          "internalType": "address[]",
          "name": "from",
          "type": "address[]"
        },
        {
          "internalType": "address[]",
          "name": "to",
          "type": "address[]"
        },
        {
          "internalType": "bytes32[]",
          "name": "tokenId",
          "type": "bytes32[]"
        },
        {
          "internalType": "bool[]",
          "name": "force",
          "type": "bool[]"
        },
        {
          "internalType": "bytes[]",
          "name": "data",
          "type": "bytes[]"
        }
      ],
      "name": "transferBatch",
      "outputs": [],
      "stateMutability": "nonpayable",
      "type": "function"
    },
    {
      "inputs": [
        {
          "internalType": "address",
          "name": "newOwner",
          "type": "address"
        }
      ],
      "name": "transferOwnership",
      "outputs": [],
      "stateMutability": "nonpayable",
      "type": "function"
    },
    {
      "inputs": [
        {
          "internalType": "uint256",
          "name": "_i",
          "type": "uint256"
        }
      ],
      "name": "uint2str",
      "outputs": [
        {
          "internalType": "string",
          "name": "_uintAsString",
          "type": "string"
        }
      ],
      "stateMutability": "pure",
      "type": "function"
    },
    {
      "inputs": [
        {
          "internalType": "bytes32",
          "name": "",
          "type": "bytes32"
        }
      ],
      "name": "upUsernames",
      "outputs": [
        {
          "internalType": "string",
          "name": "",
          "type": "string"
        }
      ],
      "stateMutability": "view",
      "type": "function"
    },
    {
      "inputs": [],
      "name": "updateCollectionMetadata",
      "outputs": [],
      "stateMutability": "nonpayable",
      "type": "function"
    },
    {
      "stateMutability": "payable",
      "type": "receive"
    }
  ],
  "transactionHash": "0x3d01c77fb1cbcb8299661c18da869f7d2c2dd031e5e95dd2487ee9460bf76ec9",
  "args": [
    "0x02224842340dA3392cae9df5cbA5D777C33Fe299"
  ],
  "numDeployments": 1,
  "solcInputHash": "2cd2a536b32f98ca63c2f7a3bb4b521d",
  "bytecode": "0x6080604090808252346200131f5760208162006c3b803803809162000025828562001340565b8339810103126200131f57516001600160a01b038116908181036200131f57825190620000528262001324565b600c82526b4c756b736f4c6f6f6769657360a01b6020830152835192620000798462001324565b60078452664c554b4c4f4f4760c81b60208501526200009833620013f5565b156200130e57620000a990620013f5565b620000b362001380565b7feafec4d89fa9619884b60000a4d96624a38f7ac2d8d9a604ecf07c12c77e480c6000818152600160205285902082516001600160401b039592949293909186831162000d3b57805492600184811c9416801562001303575b602085101462000d1a5783601f889511620012a7575b506020601f82116001146200122457918160008051602062006c1b8339815191529492620001739460009162001218575b508160011b916000199060031b1c19161790555b885191829182620013c7565b0390a27fdeba1e292f8ba88238e10ab3c7f88bd4be4fac56cad5194b6ecceaf653468af19081600052600160205285600020815186811162000d3b578154600181811c911680156200120d575b602082101462000d1a57601f8111620011c0575b506020601f82116001146200115b57918160008051602062006c1b8339815191529492620002259460009162000efd575b508160011b916000199060031b1c19161790555b875191829182620013c7565b0390a27f2f0a68ab07768e01943a599e73362a0e17a63a72e94dd2e384d2c1d4db9327569081600052600160205284600020815185811162000d3b578154600181811c9116801562001150575b602082101462000d1a57601f811162001103575b506020601f82116001146200109e57918160008051602062006c1b8339815191529492620002d79460009162000e19575b508160011b916000199060031b1c19161790555b865191829182620013c7565b0390a282519060029182602082015260208152620002f58162001324565b7fe0261fa95db2eb3b5439bd033cda66d56b96f92f243a8228fd87550ed7bdfdb39081600052600160205285600020815186811162000d3b578154600181811c9116801562001093575b602082101462000d1a57601f811162001046575b506020601f821160011462000fe157918160008051602062006c1b8339815191529492620003a29460009162000efd57508160011b916000199060031b1c1916179055875191829182620013c7565b0390a283516000602082015260208152620003bd8162001324565b7ff675e9361af1c1664c1868cfa3eb97672d6b1a513aa5b81dec34c9ee330e818d9081600052600160205285600020815186811162000d3b578154600181811c9116801562000fd6575b602082101462000d1a57601f811162000f89575b506020601f821160011462000f0957918160008051602062006c1b83398151915294926200046a9460009162000efd57508160011b916000199060031b1c1916179055875191829182620013c7565b0390a267016345785d8a0000600c556200048362001380565b81600052600160205284600020815185811162000d3b578154600181811c9116801562000ef2575b602082101462000d1a57601f811162000ea5575b506020601f821160011462000e2557918160008051602062006c1b83398151915294926200050e9460009162000e1957508160011b916000199060031b1c1916179055865191829182620013c7565b0390a2825161018081018181108482111762000d3b57845261014f90818152620006d460208201927f3c7376672077696474683d2234303022206865696768743d223430302220786d84527f6c6e733d22687474703a2f2f7777772e77332e6f72672f323030302f73766722878401527f3e3c726563742077696474683d2234303022206865696768743d22343030222060608401527f66696c6c3d2223303030222f3e3c7465787420783d223230302220793d22313860808401527f302220666f6e742d66616d696c793d22417269616c2220666f6e742d73697a6560a08401527f3d223430222066696c6c3d22236666662220746578742d616e63686f723d226d60c08401527f6964646c65223e4c756b736f4c6f6f676965733c2f746578743e3c746578742060e08401527f783d223230302220793d223233302220666f6e742d66616d696c793d22417269610100840152610120937f616c2220666f6e742d73697a653d223230222066696c6c3d2223306630222074858501527f6578742d616e63686f723d226d6964646c65223e4d61747269782045646974696101408501526e37b71e17ba32bc3a1f1e17b9bb339f60891b61016085015220916200143c565b90855193608085018581108782111762000d3b57875260428552606036602087013784511562000e03576030602086015384516001101562000e03576078602186015360005b6020811062000d515750505062000b809162000add6102c160489388519687917f20636f646520626568696e642065616368204c6f6f6769652e222c000000000060208401967f7b224c5350344d65746164617461223a7b226e616d65223a224c756b736f4c6f88527f6f67696573222c226465736372697074696f6e223a224c756b736f4c6f6f67698d8601527f657320617265204c554b534f205374616e64617264204c535038204e4654732060608601527f77697468206120736d696c65203a29204f6e6c792033373238204c756b736f4c60808601527f6f6f6769657320617661696c61626c65206f6e2061207072696365206375727660a08601527f6520696e6372656173696e6720302e322520776974682065616368206e65772060c08601527f6d696e742e2054686973204d61747269782045646974696f6e2066656174757260e08601527f657320616e696d61746564204d61747269782d7374796c652066616c6c696e676101008601528401527f226c696e6b73223a5b7b227469746c65223a2257656273697465222c2275726c61013b8401527f223a2268747470733a2f2f6c756b736f6c6f6f676965732e76657263656c2e6161015b8401527f7070227d2c7b227469746c65223a2254776974746572222c2275726c223a226861017b8401527f747470733a2f2f747769747465722e636f6d2f6c756b736f4c6f6f676965732261019b840152621f574b60ea1b6101bb8401527f22696d61676573223a5b5b7b227769647468223a3430302c22686569676874226101be8401527f3a3430302c2275726c223a22646174613a696d6167652f7376672b786d6c3b626101de84015265185cd94d8d0b60d21b6101fe8401527f222c22766572696669636174696f6e223a7b226d6574686f64223a226b6563638151620009d0816102049460208689019101620013a2565b8401918201527f616b32353628627974657329222c2264617461223a220000000000000000000061022482015281519062000a168261023a9460208685019101620013a2565b019065089f5f57574b60d21b908201527f22617373657473223a5b5d2c2261747472696275746573223a5b7b226b6579226102408201527f3a2274797065222c2276616c7565223a22636f6c6c656374696f6e222c2274796102608201527f7065223a22737472696e67227d2c7b226b6579223a227374796c65222c2276616102808201527f6c7565223a226d6174726978222c2274797065223a22737472696e67227d5d7d6102a0820152607d60f81b6102c0820152036102a181018752018562001340565b62000ae8846200143c565b9086519462000b41603d8760208101957f646174613a6170706c69636174696f6e2f6a736f6e3b6261736536342c000000875262000b308151809260208686019101620013a2565b810103601d81018952018762001340565b5190209062000b6f8751958693650379abe3500160c51b6020860152602885015251809285850190620013a2565b810103602881018452018262001340565b7f9afb95cacc9f95858ec44aa8c3b685511002e30ae54415823f406128b85b238e918260005260016020528360002090825190811162000d3b578154600181811c9116801562000d30575b602082101462000d1a57601f811162000ccd575b506020601f821160011462000c4d57918160008051602062006c1b833981519152949262000c309460009162000c41575b508160011b916000199060031b1c19161790555b845191829182620013c7565b0390a2516155e39081620016388239f35b90508301513862000c10565b601f198216908360005260206000209160005b81811062000cb457509262000c3094926001928260008051602062006c1b83398151915298961062000c9a575b5050811b01905562000c24565b85015160001960f88460031b161c19169055388062000c8d565b9192602060018192868a01518155019401920162000c60565b826000526020600020601f830160051c8101916020841062000d0f575b601f0160051c01905b81811062000d02575062000bdf565b6000815560010162000cf3565b909150819062000cea565b634e487b7160e01b600052602260045260246000fd5b90607f169062000bcb565b634e487b7160e01b600052604160045260246000fd5b62000d6b83821a60f41b6001600160f81b031916620015f2565b818060011b0483148215171562000ded578160011b8301831162000ded5760001a62000d9d8260011b840188620015e0565b5362000db483821a60f81b600f60f81b16620015f2565b60038260011b0190818360011b85011162000ded5762000dd99060001a9188620015e0565b53600019811462000ded576001016200071a565b634e487b7160e01b600052601160045260246000fd5b634e487b7160e01b600052603260045260246000fd5b905083015138620002b7565b601f198216908360005260206000209160005b81811062000e8c5750926200050e94926001928260008051602062006c1b83398151915298961062000e72575b5050811b019055620002cb565b85015160001960f88460031b161c19169055388062000e65565b9192602060018192868a01518155019401920162000e38565b826000526020600020601f830160051c8101916020841062000ee7575b601f0160051c01905b81811062000eda5750620004bf565b6000815560010162000ecb565b909150819062000ec2565b90607f1690620004ab565b90508301513862000205565b601f198216908360005260206000209160005b81811062000f705750926200046a94926001928260008051602062006c1b83398151915298961062000f56575b5050811b01905562000219565b85015160001960f88460031b161c19169055388062000f49565b9192602060018192868a01518155019401920162000f1c565b826000526020600020601f830160051c8101916020841062000fcb575b601f0160051c01905b81811062000fbe57506200041b565b6000815560010162000faf565b909150819062000fa6565b90607f169062000407565b601f198216908360005260206000209160005b8181106200102d575092620003a294926001928260008051602062006c1b83398151915298961062000f56575050811b01905562000219565b9192602060018192868a01518155019401920162000ff4565b826000526020600020601f830160051c8101916020841062001088575b601f0160051c01905b8181106200107b575062000353565b600081556001016200106c565b909150819062001063565b90607f16906200033f565b601f198216908360005260206000209160005b818110620010ea575092620002d794926001928260008051602062006c1b83398151915298961062000e72575050811b019055620002cb565b9192602060018192868a015181550194019201620010b1565b826000526020600020601f830160051c8101916020841062001145575b601f0160051c01905b81811062001138575062000286565b6000815560010162001129565b909150819062001120565b90607f169062000272565b601f198216908360005260206000209160005b818110620011a75750926200022594926001928260008051602062006c1b83398151915298961062000f56575050811b01905562000219565b9192602060018192868a0151815501940192016200116e565b826000526020600020601f830160051c8101916020841062001202575b601f0160051c01905b818110620011f55750620001d4565b60008155600101620011e6565b9091508190620011dd565b90607f1690620001c0565b90508301513862000153565b601f198216908360005260206000209160005b8181106200128b5750926200017394926001928260008051602062006c1b83398151915298961062001271575b5050811b01905562000167565b85015160001960f88460031b161c19169055388062001264565b8287015184558a97506001909301926020928301920162001237565b9091809394506000526020600020601f830160051c81019160208410620012f8575b90601f8996959493920160051c01905b818110620012e8575062000122565b60008155889550600101620012d9565b9091508190620012c9565b93607f16936200010c565b83516306b620db60e21b8152600490fd5b600080fd5b604081019081106001600160401b0382111762000d3b57604052565b601f909101601f19168101906001600160401b0382119082101762000d3b57604052565b6001600160401b03811162000d3b57601f01601f191660200190565b604051906200138f8262001324565b60048252632936598960e21b6020830152565b60005b838110620013b65750506000910152565b8181015183820152602001620013a5565b60409160208252620013e98151809281602086015260208686019101620013a2565b601f01601f1916010190565b600080546001600160a01b039283166001600160a01b03198216811783559216907f8be0079c531659141344cd1fd0a4f28419497f9722a3daafe3b4186f6b6457e09080a3565b805115620015bb5760405190606082016001600160401b0381118382101762000d3b57604052604082527f4142434445464748494a4b4c4d4e4f505152535455565758595a61626364656660208301527f6768696a6b6c6d6e6f707172737475767778797a303132333435363738392b2f6040830152805160029182820180921162000ded5760039182900480841b94906001600160fe1b0381160362000ded579262001506620014ed8662001364565b95620014fd604051978862001340565b80875262001364565b6020860190601f190136823793829183518401906020820192835194600085525b8381106200156957505050505251068060011462001556576002146200154b575090565b603d90600019015390565b50603d9081600019820153600119015390565b87600491999293949901918251600190603f9082828260121c16880101518453828282600c1c16880101518385015382828260061c168801015188850153168501015189820153019792919062001527565b50604051602081016001600160401b0381118282101762000d3b576040526000815290565b90815181101562000e03570160200190565b60f81c600a8110156200161b5760300160ff811162000ded5760f81b6001600160f81b03191690565b60570160ff811162000ded5760f81b6001600160f81b0319169056fe60806040526004361015610033575b3615610026575b61001e36611da4565b602081519101f35b61002e611df0565b610015565b60003560e01c8062923f9e146103de578063017c96b8146103d557806301ffc9a7146103cc57806306fdde03146103c357806316e023b3146103ba57806318160ddd146103b157806319c9d79b146103a85780631d26fce61461039f5780631ead90b014610396578063217b22701461038d5780632a3654a4146103845780633bdf428a1461037b578063472dfcfb14610372578063475a590d1461036957806349a6078d14610360578063511b69521461035757806354f6127f1461034e5780635e57966d146103455780636643a6861461033c57806366d003ac146103335780636963d4381461032a57806370a0823114610321578063715018a6146103185780637165485d1461030f5780637679913614610306578063791790c9146102fd5780637e87632c146102f45780637f23690c146102eb5780638494c87a146102e257806386a10ddd146102d95780638da5cb5b146102d05780639201de55146102c757806395d89b41146102be57806397902421146102b5578063a035b1fe146102ac578063a3b261f2146102a3578063a4d66daf1461029a578063aef5bb7314610291578063be9f0e6f14610288578063cfafca001461027f578063d6c1407c14610276578063d91a61d01461026d578063db8c966314610264578063dedff9c61461025b578063eb93406b14610252578063f2fde38b146102495763f76f950e0361000e57610244611ce2565b61000e565b50610244611c30565b50610244611afe565b50610244611a76565b5061024461199c565b50610244611920565b506102446118d9565b506102446118b9565b506102446117c9565b5061024461175a565b5061024461173c565b506102446116c1565b506102446116a2565b506102446115dd565b5061024461157f565b5061024461155f565b50610244611535565b506102446113de565b50610244611380565b50610244611329565b5061024461128f565b50610244611115565b506102446110f0565b506102446110bb565b5061024461106e565b50610244611033565b50610244610fcd565b50610244610f9d565b50610244610f70565b50610244610f4b565b50610244610f2b565b50610244610ec3565b50610244610e1d565b50610244610cb4565b50610244610c7d565b50610244610b83565b50610244610b2c565b50610244610acf565b50610244610a84565b506102446109ba565b50610244610787565b50610244610643565b50610244610620565b506102446105a7565b50610244610482565b50610244610455565b503461041057602036600319011261041057600435600052600a602052602060ff604060002054166040519015158152f35b600080fd5b6000526007602052604060002090565b6000526008602052604060002090565b6000526009602052604060002090565b600052600b602052604060002090565b50346104105760203660031901126104105760043560005260096020526020604060002054604051908152f35b5034610410576020366003190112610410576004356001600160e01b0319811690818103610410576104d791631d138b8360e11b811491821591826104db575b50506040519115158252509081906020820190565b0390f35b9091610503575b5081156104f3575b503880806104c2565b6104fd91506133c4565b386104ea565b90915063a918fa6b60e01b8114908115610520575b5090386104e2565b6318a6a9a560e21b81149150811561053a575b5038610518565b6301ffc9a760e01b14905038610533565b60005b83811061055e5750506000910152565b818101518382015260200161054e565b906020916105878151809281855285808601910161054b565b601f01601f1916010190565b9060206105a492818152019061056e565b90565b50346104105760003660031901126104105760008051602061546e83398151915260005260016020526040516104d79061060c81610605817f2a367ae1ac46d529739aa27ac74856f860e70af05d3642d18ba60fd5d32a069a610be7565b03826106f3565b60405191829160208352602083019061056e565b5034610410576040366003190112610410576104d761060c602435600435613493565b5034610410576000366003190112610410576020600654604051908152f35b50634e487b7160e01b600052604160045260246000fd5b602081019081106001600160401b0382111761069457604052565b61069c610662565b604052565b604081019081106001600160401b0382111761069457604052565b606081019081106001600160401b0382111761069457604052565b61018081019081106001600160401b0382111761069457604052565b601f909101601f19168101906001600160401b0382119082101761069457604052565b6020906001600160401b038111610733575b601f01601f19160190565b61073b610662565b610728565b81601f820112156104105780359061075782610716565b9261076560405194856106f3565b8284526020838301011161041057816000926020809301838601378301015290565b5034610410576040366003190112610410576001600160401b03600435602435828111610410576107bc903690600401610740565b916107e36107c983612281565b6001600160a01b03811633149081156108c4575b50613292565b6000918252602090600b8252604083209184519182116108b7575b6108128261080c8554610bad565b85612144565b80601f831160011461084c5750839482939492610841575b50508160011b916000199060031b1c191617905580f35b01519050388061082a565b90601f1983169561086285600052602060002090565b9286905b88821061089f57505083600195969710610886575b505050811b01905580f35b015160001960f88460031b161c1916905538808061087b565b80600185968294968601518155019501930190610866565b6108bf610662565b6107fe565b6108ce91506132ea565b386107dd565b6020906001600160401b0381116108ed575b60051b0190565b6108f5610662565b6108e6565b81601f8201121561041057803591610911836108d4565b9261091f60405194856106f3565b808452602092838086019260051b820101928311610410578301905b828210610949575050505090565b8135815290830190830161093b565b602080820190808352835180925260408301928160408460051b8301019501936000915b84831061098c5750505050505090565b90919293949584806109aa600193603f198682030187528a5161056e565b980193019301919493929061097c565b5034610410576040366003190112610410576001600160401b03600435818111610410576109ec9036906004016108fa565b9060243590811161041057610a059036906004016108fa565b908051825103610a7257610a198151611d21565b9160005b8251811015610a645780610a48610a3660019386611d82565b51610a418386611d82565b5190613493565b610a528287611d82565b52610a5d8186611d82565b5001610a1d565b604051806104d78682610958565b6040516317d38eff60e11b8152600490fd5b5034610410576020366003190112610410576004356000526007602052602060406000205460e81b6040519062ffffff60e81b168152f35b6001600160a01b03909116815260200190565b5034610410576020366003190112610410576020610aee600435612281565b6040516001600160a01b039091168152f35b600435906001600160a01b038216820361041057565b60c435906001600160a01b038216820361041057565b5034610410576040366003190112610410576020610b54610b4b610b00565b60243590612424565b6040519015158152f35b9091610b756105a49360408452604084019061056e565b91602081840391015261056e565b503461041057600036600319011261041057610b9d614f15565b906104d760405192839283610b5e565b90600182811c92168015610bdd575b6020831014610bc757565b634e487b7160e01b600052602260045260246000fd5b91607f1691610bbc565b9060009291805491610bf883610bad565b918282526001938481169081600014610c5a5750600114610c1a575b50505050565b90919394506000526020928360002092846000945b838610610c46575050505001019038808080610c14565b805485870183015294019385908201610c2f565b9294505050602093945060ff191683830152151560051b01019038808080610c14565b503461041057602036600319011261041057600435600052600b6020526104d761060561060c604060002060405192838092610be7565b5034610410576020366003190112610410576104d7610cd1610b00565b610ce4610cdf6006546130b6565b600655565b610e0d60065491610d0f610d0284600052600a602052604060002090565b805460ff19166001179055565b610de3610dde610dab610d2143612e43565b40604051610d4981610d3b60208201948930918d886130fc565b03601f1981018352826106f3565b519020610d99600082901a60f81b6001600160f81b031916600183901a60f01b60ff60f01b1617600283901a60e81b60ff60e81b1617610d8889610415565b9060e81c62ffffff19825416179055565b610db7610db2610dab8360031a61304d565b60ff900490565b6130c4565b610dc088610425565b55610dd4610dcd88610425565b5460021c90565b9060041a906130a3565b6130d2565b610dec84610435565b55610dfe610df984610445565b613129565b82610e07611e65565b916131cc565b6040519081529081906020820190565b50346104105760208060031936011261041057600435610e3c8161273b565b15610ea15760005260058152610e556040600020612f77565b906040519181839283018184528251809152816040850193019160005b828110610e8157505050500390f35b83516001600160a01b031685528695509381019392810192600101610e72565b60249060405190635747cd1b60e11b82526004820152fd5b8015150361041057565b50346104105760a036600319011261041057610edd610b00565b6024356001600160a01b038116810361041057606435610efc81610eb9565b608435926001600160401b03841161041057610f1f610f29943690600401610740565b926044359161245f565b005b5034610410576020366003190112610410576104d761060c600435611d02565b5034610410576020366003190112610410576104d761060c610f6b610b00565b613747565b50346104105760203660031901126104105760043560005260086020526020604060002054604051908152f35b503461041057600036600319011261041057602060405173a81a6a910fed20374361b35c451a4a44f86ced468152f35b5034610410576020366003190112610410576001600160401b036004358181116104105736602382011215610410578060040135918211610410573660248360051b83010111610410576104d791602461102792016122f3565b60405191829182610958565b5034610410576020366003190112610410576001600160a01b03611055610b00565b1660005260046020526020604060002054604051908152f35b5034610410576000806003193601126110b857611089612ca5565b80546001600160a01b03198116825581906001600160a01b03166000805160206154ee8339815191528280a380f35b80fd5b50346104105760003660031901126104105760206040516103ea8152f35b600435906001600160e81b03198216820361041057565b5034610410576020366003190112610410576104d761060c6111106110d9565b6135c3565b5034610410576020366003190112610410576020610b54611134610b00565b6132ea565b81601f8201121561041057803591611150836108d4565b9261115e60405194856106f3565b808452602092838086019260051b820101928311610410578301905b828210611188575050505090565b81356001600160a01b038116810361041057815290830190830161117a565b81601f82011215610410578035916111be836108d4565b926111cc60405194856106f3565b808452602092838086019260051b820101928311610410578301905b8282106111f6575050505090565b838091833561120481610eb9565b8152019101906111e8565b9080601f8301121561041057813590611227826108d4565b9261123560405194856106f3565b828452602092838086019160051b8301019280841161041057848301915b8483106112635750505050505090565b82356001600160401b03811161041057869161128484848094890101610740565b815201920191611253565b50346104105760a03660031901126104105760046001600160401b038135818111610410576112c19036908401611139565b90602435818111610410576112d99036908501611139565b604435828111610410576112f090369086016108fa565b906064358381116104105761130890369087016111a7565b9260843590811161041057610f29956113239136910161120f565b936125e8565b506040366003190112610410576024356001600160401b03811161041057611355903690600401610740565b61135d612ca5565b3461136e57610f2990600435612006565b60405163f36ba73760e01b8152600490fd5b50346104105760c03660031901126104105761139a6110d9565b6064356001600160401b038111610410576104d7916113c061060c923690600401610740565b608435906113cd82610eb9565b60a435926044359060243590613e4e565b5034610410576060366003190112610410576113f8610b00565b602435906044356001600160401b0381116104105761141b903690600401610740565b9061142583612281565b6001600160a01b0381811691338303611516575082168015611504578082146114f25761146c61146884611463886000526005602052604060002090565b612fc6565b1590565b6114d25793806114cd92610f29967f1b1b58aa2ec0cec2228b2d37124556d41f5a1f7b12f089171f896cc236671215604051806114a98a82610593565b0390a46114bf60405194859233602085016123ce565b03601f1981018452836106f3565b612ade565b6040516314ec4d6d60e31b8152806114ee8786600484016123b3565b0390fd5b6040516344fed6b160e11b8152600490fd5b604051639577b8b360e01b8152600490fd5b856114ee604051928392632d938f5160e11b8452339160048501612390565b5034610410576000366003190112610410576000546040516001600160a01b039091168152602090f35b5034610410576020366003190112610410576104d761060c600435613851565b50346104105760003660031901126104105760008051602061550e83398151915260005260016020526040516104d79061060c81610605817f83b322886c7b7e25779e5d38e06e005c9e7aba1e1267ce9210cf24e31833535a610be7565b5060403660031901126104105760046001600160401b0381358181116104105761160a90369084016108fa565b9060243590811161041057611622903690840161120f565b9161162b612ca5565b3461169357815183510361168457815115611675575060005b8151811015610f29578061166f61165d60019385611d82565b516116688387611d82565b5190612006565b01611644565b6040516397da5f9560e01b8152fd5b604051633bcc897960e01b8152fd5b60405163f36ba73760e01b8152fd5b5034610410576000366003190112610410576020600c54604051908152f35b503461041057602080600319360112610410576001600160a01b036116e4610b00565b16600052600481526116f96040600020612f77565b906040519181839283018184528251809152816040850193019160005b82811061172557505050500390f35b835185528695509381019392810192600101611716565b5034610410576000366003190112610410576020604051610e908152f35b50346104105760e0366003190112610410576024356001600160e81b03198116810361041057608435906001600160401b038211610410576117a3610b9d923690600401610740565b60a435906117b082610eb9565b6117b8610b16565b9260643590604435906004356147c1565b50346104105760603660031901126104105760046001600160401b038135818111610410576117fb90369084016108fa565b6024358281116104105761181290369085016108fa565b916044359081116104105761182a903690850161120f565b92611833612ca5565b81518351809114908115916118ad575b5061189e5781511561188f575060005b8151811015610f29578061188961186c60019385611d82565b516118778387611d82565b516118828489611d82565b519161290b565b01611853565b6040516380c9830560e01b8152fd5b6040516317d38eff60e11b8152fd5b90508451141538611843565b5034610410576020366003190112610410576104d761060c600435613a33565b5034610410576060366003190112610410576044356001600160401b0381116104105761190d610f29913690600401610740565b611915612ca5565b60243560043561290b565b5034610410576000806003193601126110b85761194760018060a01b038254163314613292565b61195f611952614f15565b906020815191012061344d565b60008051602061558e8339815191526119966000805160206154ce83398151915292838552600160205261060c816040872061218b565b0390a280f35b5034610410576080366003190112610410576119b6610b00565b602435604435916119c683610eb9565b6064356001600160401b038111610410576119e5903690600401610740565b6119ee83612281565b936001600160a01b038086169033829003611a3f575b841690811561150457146114f257611a1f82828688876126b8565b611a2557005b610f29936114bf6114cd92604051958693602085016123f9565b8481163314611a045760405163760b5acd60e01b81523360048201526001600160a01b038816602482015260448101879052606490fd5b5034610410576020366003190112610410576004356001600160401b03811161041057611aa79036906004016108fa565b611ab18151611d21565b9060005b8151811015611af05780611ad4611ace60019385611d82565b51611d02565b611ade8286611d82565b52611ae98185611d82565b5001611ab5565b604051806104d78582610958565b506000806003193601126110b8576104d790611b1f610e9060065410612fd9565b611b49611b44611b3c600c54611b3781341015613014565b61305e565b6103e8900490565b600c55565b611b57610cdf6006546130b6565b610e0d60065491611b75610d0284600052600a602052604060002090565b611bdf610dde610dab611b8743612e43565b40604051611ba281610d3b6020820194309033908d886130fc565b519020610d9981861a60f81b6001600160f81b031916600183901a60f01b60ff60f01b1617600283901a60e81b60ff60e81b1617610d8889610415565b611be884610435565b55611bf5610df984610445565b611c07611c00611e65565b84336131cc565b8080803473a81a6a910fed20374361b35c451a4a44f86ced465af1611c2a611e78565b50613173565b503461041057602036600319011261041057611c4a610b00565b611c52612ca5565b6001600160a01b039081168015611c8e57600080546001600160a01b03198116831782559092166000805160206154ee8339815191528380a380f35b60405162461bcd60e51b815260206004820152602660248201527f4f776e61626c653a206e6577206f776e657220697320746865207a65726f206160448201526564647265737360d01b6064820152608490fd5b5034610410576020366003190112610410576104d761060c600435613691565b60005260016020526106056105a4604060002060405192838092610be7565b90611d2b826108d4565b611d3860405191826106f3565b8281528092611d49601f19916108d4565b019060005b828110611d5a57505050565b806060602080938501015201611d4e565b50634e487b7160e01b600052603260045260246000fd5b6020918151811015611d97575b60051b010190565b611d9f611d6b565b611d8f565b60043610611db5576105a490611ea8565b6044604051809263e5099ee360e01b825260206004830152806024830152806000848401376000828201840152601f01601f19168101030190fd5b503415611e09576040516330fa4a2160e11b8152600490fd5b606460405163e5099ee360e01b8152602060048201526004602482015260006044820152fd5b908092918237016000815290565b9060349391816000823760609390931b6001600160601b031916920191825260148201520190565b60405190611e7282610679565b60008252565b3d15611ea3573d90611e8982610716565b91611e9760405193846106f3565b82523d6000602084013e565b606090565b60609063ffffffff60e01b6000351691611ef8611ef3604051696773c5a04a6d4300884b60b11b60208201526000602a82015285602c82015260208152611eee816106a1565b611fe3565b611d02565b805160148114159081611fa4575b50611f7f57611f1490611fae565b901c918215611f5b57506000918291604051611f3c81610d3b60208201943490339087611e3d565b519134905af1611f4a611e78565b9015611f535790565b602081519101fd5b60405163bb370b2b60e01b81526001600160e01b0319919091166004820152602490fd5b6040516342bfe79f60e01b8152602060048201529081906114ee90602483019061056e565b9050151538611f06565b80516020909101516001600160601b0319808216939290919060148110611fd457505050565b60140360031b82901b16169150565b602081519101519060208110611ff7575090565b6000199060200360031b1b1690565b907ff675e9361af1c1664c1868cfa3eb97672d6b1a513aa5b81dec34c9ee330e818d82146120f65760008051602061546e8339815191528203612055576040516385c169bd60e01b8152600490fd5b60008051602061550e833981519152820361207c57604051630eceab6760e31b8152600490fd5b7fe0261fa95db2eb3b5439bd033cda66d56b96f92f243a8228fd87550ed7bdfdb382036120b557604051634ef6d7fb60e01b8152600490fd5b6120f1816120e560008051602061558e833981519152936120e0866000526001602052604060002090565b61218b565b60405191829182610593565b0390a2565b604051631b32400560e11b8152600490fd5b9060031b600019811b9283911b169119161790565b91612129918354612108565b9055565b818110612138575050565b6000815560010161212d565b9190601f811161215357505050565b61217f926000526020600020906020601f840160051c83019310612181575b601f0160051c019061212d565b565b9091508190612172565b81519192916001600160401b03811161225a575b6121b3816121ad8454610bad565b84612144565b602080601f83116001146121ef5750819293946000926121e4575b50508160011b916000199060031b1c1916179055565b0151905038806121ce565b90601f1983169561220585600052602060002090565b926000905b88821061224257505083600195969710612229575b505050811b019055565b015160001960f88460031b161c1916905538808061221f565b8060018596829496860151815501950193019061220a565b612262610662565b61219f565b6001600160a01b0316600090815260046020526040902090565b6000818152600360205260409020546001600160a01b0316908115610ea1575090565b91908110156122e6575b60051b81013590601e19813603018212156104105701803591906001600160401b038311610410576020018236038113610410579190565b6122ee611d6b565b6122ae565b91906122fe81611d21565b92600091825b8181106123115750505050565b838061231e8385876122a4565b60409391612330855180938193611e2f565b0390305af49061233e611e78565b91156123655750906001916123538289611d82565b5261235e8188611d82565b5001612304565b81519192911561237757825160208401fd5b5163234eb81960e01b8152600481019190915260249150fd5b6001600160a01b0391821681526020810192909252909116604082015260600190565b6001600160a01b039091168152602081019190915260400190565b6105a4939260809260018060a01b03168252602082015260016040820152816060820152019061056e565b6105a4939260809260018060a01b03168252602082015260006040820152816060820152019061056e565b6001600160a01b038061243684612281565b16911690811491821561244857505090565b6105a4925060005260056020526040600020612e17565b9092939161246d8133612424565b156125ca5761247b81612281565b6001600160a01b0381811691848216918284036125ad5780881693841561259b576124a586612281565b9182160361256b57505092612561838061217f9997946114bf99976124cd612566988761281d565b6124df836124da88612267565b612eaa565b506124f2836124ed8b612267565b612db2565b5061252a8961250b856000526003602052604060002090565b80546001600160a01b0319166001600160a01b03909216919091179055565b60405160008051602061554e833981519152908061254a8a8e3384612781565b0390a46040519788948592888633602087016127e3565b612b89565b612c25565b604051635a9c31d360e01b8152600481018690526001600160a01b03928316602482015291166044820152606490fd5b6040516324ecef4d60e01b8152600490fd5b604051632d938f5160e11b8152806114ee88888660048501612390565b60449060405190631294d2a960e01b82526004820152336024820152fd5b9493909192855193835185148015906126ad575b80156126a2575b8015612697575b6126855760005b858110612622575050505050509050565b8061267f6126426126356001948c611d82565b516001600160a01b031690565b61264f612635848a611d82565b6126598487611d82565b5161266d612667868a611d82565b51151590565b91612678868b611d82565b519361245f565b01612611565b6040516393a8311960e01b8152600490fd5b50825185141561260a565b508151851415612603565b5080518514156125fc565b91939284600052600560205260406000209260018060a01b03906126df8282168096612eaa565b1561271c57509061271760008051602061552e833981519152939260405193849315158452604060208501521695604083019061056e565b0390a4565b6040516312a8c6a360e21b81529081906114ee908990600484016123b3565b6000908152600360205260409020546001600160a01b0316151590565b6001600160a01b039091168152600160208201526060604082018190526105a49291019061056e565b6001600160a01b03909116815290151560208201526060604082018190526105a49291019061056e565b6001600160a01b0391821681526000602082015291166040820152606081019190915260a0608082018190526105a49291019061056e565b6001600160a01b03918216815291811660208301529091166040820152606081019190915260a0608082018190526105a49291019061056e565b9060009080825260059160209383855260409182812094855495825b87811061284b57505050505050505050565b8154156128e1575b8184528884205486516001600160a01b039182169161287182610679565b868252898752858c52612886838a8920612eaa565b156128c6576001939260008051602061552e8339815191528d896128bd8e968e968e8880519687968752860152169683019061056e565b0390a401612839565b88516312a8c6a360e21b8152806114ee8c86600484016123b3565b6128e9611d6b565b612853565b919060405192602084015260408301526040825261217f826106bc565b909161291783836128ee565b805160208092012060005260019081815260406000209183519160018060401b038311612a2f575b6129538361294d8654610bad565b86612144565b80601f84116001146129ad575091808061299d959360008051602061542e83398151915297956000936129a2575b501b916000199060031b1c191617905560405191829182610593565b0390a3565b860151925038612981565b90601f9392931983166129c586600052602060002090565b926000905b828210612a1857505091839161299d969460008051602061542e833981519152989694106129ff575b5050811b0190556120e5565b85015160001960f88460031b161c1916905538806129f3565b808785968294968c015181550195019301906129ca565b612a37610662565b61293f565b602081830312610410578051906001600160401b038211610410570181601f82011215610410578051612a6e81610716565b92612a7c60405194856106f3565b81845260208284010111610410576105a4916020808501910161054b565b9060406105a4927f0b084a55ebf70fd3c06fd755269dac2212c4d3f0f4d09079780bfa50c1b2984d8152816020820152019061056e565b506040513d6000823e3d90fd5b612ae781612cfd565b612aef575050565b612b42600092918392604051948580948193631aed5a8560e21b83527f8a1c15a8799f71b547e08e2bcb2e85257e81b0a07eee2ce6712549eef1f00970600484015260406024840152604483019061056e565b03926001600160a01b03165af18015612b7c575b612b5d5750565b612b79903d806000833e612b7181836106f3565b810190612a3c565b50565b612b84612ad1565b612b56565b612b9281612cfd565b612b9a575050565b612b42600092918392604051948580948193631aed5a8560e21b83527fb23eae7e6d1564b295b4c3e3be402d9a2f0776c57bdf365903496f6fa481ab00600484015260406024840152604483019061056e565b612bf681612cfd565b15612c2157604051631aed5a8560e21b8152916000918391829084908290612b429060048301612a9a565b5050565b9190612c3083612cfd565b15612c5a5750612b426000928392604051948580948193631aed5a8560e21b835260048301612a9a565b905015612c645750565b803b15612c8857604051634349776d60e01b81529081906114ee9060048301610abc565b604051630317313760e01b81529081906114ee9060048301610abc565b6000546001600160a01b03163303612cb957565b606460405162461bcd60e51b815260206004820152602060248201527f4f776e61626c653a2063616c6c6572206973206e6f7420746865206f776e65726044820152fd5b6000602091604051838101906301ffc9a760e01b8252631aed5a8560e21b602482015260248152612d2d816106bc565b5191617530fa6000513d82612d4e575b5081612d47575090565b9050151590565b60201115915038612d3d565b600090602092604051848101916301ffc9a760e01b835263ffffffff60e01b16602482015260248152612d2d816106bc565b8054821015612da5575b60005260206000200190600090565b612dad611d6b565b612d96565b612dbc8282612e17565b612e10578082612dec612de3600194548560401b811015612e03575b858101855584612d8c565b81939154612108565b905580549260005201602052604060002055600190565b612e0b610662565b612dd8565b5050600090565b60019160005201602052604060002054151590565b50634e487b7160e01b600052601160045260246000fd5b600019810191908211612e5257565b61217f612e2c565b9061032a918203918211612e5257565b8054908115612e945760001991820191612e848383612d8c565b909182549160031b1b1916905555565b634e487b7160e01b600052603160045260246000fd5b6001810191806000528260205260406000205492831515600014612f6e57612efc612f0b936000958619808201828111612f61575b8354918201918211612f54575b808203612f11575b505050612e6a565b90600052602052604060002090565b55600190565b612f3b612f3591612f25612f4b9487612d8c565b90549060031b1c92839187612d8c565b9061211d565b8590600052602052604060002090565b55388080612ef4565b612f5c612e2c565b612eec565b612f69612e2c565b612edf565b50505050600090565b9060405191828154918282526020928383019160005283600020936000905b828210612fac5750505061217f925003836106f3565b855484526001958601958895509381019390910190612f96565b6105a4916001600160a01b031690612db2565b15612fe057565b60405162461bcd60e51b815260206004820152600c60248201526b444f4e45204d494e54494e4760a01b6044820152606490fd5b1561301b57565b60405162461bcd60e51b815260206004820152600a60248201526909c9ea8408a9c9eaa8e960b31b6044820152606490fd5b9081603702916037830403612e5257565b906103ea91828102928184041490151715612e5257565b908160011b9180830460021490151715612e5257565b600281901b91906001600160fe1b03811603612e5257565b81810292918115918404141715612e5257565b9060018201809211612e5257565b6023019081602311612e5257565b60b401908160b411612e5257565b6002019081600211612e5257565b9060028201809211612e5257565b9291606894918452602084015260018060601b0319809260601b16604084015260601b1660548201520190565b6131338154610bad565b601f8111613151575b506012681b1d5adcdbdb985d5d60ba1b019055565b61316d9082600052601f6020600020910160051c81019061212d565b3861313c565b1561317a57565b60405162461bcd60e51b815260206004820152600e60248201526d18dbdd5b19081b9bdd081cd95b9960921b6044820152606490fd5b60019060001981146131c0570190565b6131c8612e2c565b0190565b909291906001600160a01b038116801561259b576131e98561273b565b613279576131f68561273b565b613279578461217f9495613274926132176132126002546131b0565b600255565b613224826124ed87612267565b5061323d8561250b846000526003602052604060002090565b600060008051602061554e8339815191526040518061325d8a3383612758565b0390a46114bf6040519485928533602086016127ab565b612bed565b6040516334c7b51160e01b815260048101869052602490fd5b1561329957565b60405162461bcd60e51b81526020600482015260146024820152731314d40e0e88139bdd08185d5d1a1bdc9a5e995960621b6044820152606490fd5b9081602091031261041057516105a481610eb9565b6040516301ffc9a760e01b808252633a271fff60e01b60048301526001600160a01b0392909216916020918281602481875afa600091816133a5575b506133345750505050600090565b61334057505050600090565b604051908152631aed5a8560e21b6004820152918190839060249082905afa918291600093613376575b50506105a45750600090565b613396929350803d1061339e575b61338e81836106f3565b8101906132d5565b90388061336a565b503d613384565b6133bd919250843d861161339e5761338e81836106f3565b9038613326565b613401611ef3604051696773c5a04a6d4300884b60b11b60208201526000602a8201526301ffc9a760e01b602c82015260208152611eee816106a1565b805160148114159081613430575b50611f7f5761341d90611fae565b60601c908115612e10576105a491612d5a565b905015153861340f565b906131c86020928281519485920161054b565b604861217f91939293604051948591650379abe3500160c51b60208401526028830152613483815180926020868601910161054b565b81010360288101855201836106f3565b906000805160206154ce83398151915281036135015750611952816134bd6111346105a494612281565b6106056134d86134cc84610445565b60405192838092610be7565b6134e183610415565b5460e81b6134ee84610425565b546134f885610435565b549130956147c1565b61350a916128ee565b6020815191012060005260016020526106056105a4604060002060405192838092610be7565b6040519061353d826106bc565b602a82526040366020840137565b9061355582610716565b61356260405191826106f3565b8281528092613573601f1991610716565b0190602036910137565b60209080511561358b570190565b6131c8611d6b565b60219080516001101561358b570190565b9060209180518210156135b657010190565b6135be611d6b565b010190565b90604051916135d1836106a1565b601083526f181899199a1a9b1b9c1cb0b131b232b360811b6020840152604051906135fb826106a1565b60068252602036818401376000805b6003811061361a57509193505050565b8061366861363c8561368c941a600f9061364a61363c838360041c168d6135a4565b516001600160f81b03191690565b61366061365687613075565b91891a918b6135a4565b5316896135a4565b61368661367c61367784613075565b6130b6565b91851a91876135a4565b536131b0565b61360a565b801561372957806000908282935b61371557506136ad8361354b565b9290805b6136bb5750505090565b600a906030928282068401809411613708575b80156136fb575b600019019260f81b6001600160f81b031916841a6136f384876135a4565b5304806136b1565b613703612e2c565b6136d5565b613710612e2c565b6136ce565b92613721600a916131b0565b93048061369f565b50604051613736816106a1565b60018152600360fc1b602082015290565b60405160609190911b6001600160601b03191660208201529061376d82603481016114bf565b613775613530565b60306137808261357d565b53607861378c82613593565b536000805b601481106137a0575090925050565b806138308661380c613806600f6137f56137d061363c886137ef6137df6137d66137d061363c61384c9f8d6135a4565b60f81c90565b60041c600f1690565b60f81b6001600160f81b03191690565b976135a4565b1660f81b6001600160f81b03191690565b91613955565b61382a61382061381b86613075565b6130e0565b91871a91886135a4565b53613955565b61368661384261367761381b85613075565b91851a91866135a4565b613791565b604051909190608081016001600160401b03811182821017613901575b6040526042815260206060368284013760306138898361357d565b53607861389583613593565b536000805b8281106138a957509193505050565b6138fc906138ea600f60f81b88831a6138c760f482901b8316613955565b6138e06138d661381b87613075565b91881a918a6135a4565b5360f81b16613955565b61368661367c61367761381b85613075565b61389a565b613909610662565b61386e565b60ff60019116019060ff8211612e5257565b60ff60029116019060ff8211612e5257565b60ff60419116019060ff8211612e5257565b60ff166009019060ff8211612e5257565b60f81c600a8110156139895760300160ff811161397c5760f81b6001600160f81b03191690565b613984612e2c565b6137df565b60570160ff811161397c5760f81b6001600160f81b03191690565b6026918152650dac2e8e4d2f60d31b60208201520190565b60ff6001911660ff81146131c0570190565b90606461ffff80931602918216918203612e5257565b9061ffff809216601401918211612e5257565b91909161ffff80809416911601918211612e5257565b60ff6009199116019060ff8211612e5257565b661e17ba32bc3a1f60c91b815260070190565b9060409182519060209082613a4b83820192836139a4565b0392613a5f601f19948581018352826106f3565b51902092613a6b611e65565b9360009586955b60ff8088169060c8821015613e0e5790878a8689858d613a98849998600f8904166139ce565b94601f821684811015613e01575b858c61ffff9889809981951a1660649006613ac0916139f7565b99613aca8661390e565b601f1660ff169188831015613af5610168600397613b4797600697602495613df4575b1a16066139e4565b9f613b11613b0b613b058b613920565b601f1690565b60ff1690565b8b811015613de7575b1a0691613b25611e65565b5082891691600a831015613da2575050613b3f9150613691565b9a5b06613944565b9216905080613c98575091613bc6613b8c613b69613bd294613b869616613691565b8c519586948501693337b73a16b9b4bd329d60b11b8152600a0190565b9061343a565b60008051602061556e8339815191528152792066616c6c20313873206c696e65617220696e66696e6974653b60301b6020820152603a0190565b038d81018352826106f3565b925b16613bde90613691565b9416613be990613691565b85519485948a8601613bfa9161343a565b681e3a32bc3a103c1e9160b91b8152600901613c159161343a565b6411103c9e9160d91b8152600501613c2c9161343a565b7f2220636c6173733d226d61747269782d6368617222207374796c653d220000008152601d01613c5b9161343a565b61111f60f11b8152600201613c6f9161343a565b613c7890613a20565b038681018252613c8890826106f3565b95613c92906139bc565b95613a72565b60018103613cf9575091613bc6613cb9613b69613cf394613b869616613691565b60008051602061556e8339815191528152792066616c6c20313273206c696e65617220696e66696e6974653b60301b6020820152603a0190565b92613bd4565b600203613d515791613bc6613d18613b69613cf394613b869616613691565b60008051602061556e8339815191528152782066616c6c203973206c696e65617220696e66696e6974653b60381b602082015260390190565b91613bc6613d69613b69613cf394613b869616613691565b60008051602061556e8339815191528152782066616c6c203773206c696e65617220696e66696e6974653b60381b602082015260390190565b613de19250613dbe6137df613db9613dd596613a0d565b613932565b90519384918c830160019160ff60f81b1681520190565b039081018352826106f3565b9a613b41565b613def611d6b565b613b1a565b613dfc611d6b565b613aed565b613e09611d6b565b613aa6565b5050955050509350505090565b60405190613e28826106a1565b600782526611a3231818232360c91b6020830152565b631e17b39f60e11b815260040190565b939490613e5f613e73949392613a33565b951561428757613e6d613e1b565b946142a6565b60405192839260208401613eb79060419060008051602061544e83398151915281526000805160206154ae8339815191526020820152601f60f91b60408201520190565b651e3232b3399f60d11b8152600601661e39ba3cb6329f60c91b81526007016b40666f6e742d66616365207b60a01b8152600c017f666f6e742d66616d696c793a2022436f6d69632053616e73204d53223b0000008152601d017f7372633a2075726c282268747470733a2f2f666f6e74732e63646e666f6e74738152752e636f6d2f6373732f636f6d69632d73616e7322293b60501b6020820152603601607d60f81b81526001017f2e757365726e616d65207b20666f6e742d66616d696c793a2022436f6d69632081527f53616e73204d53222c20637572736976653b20666f6e742d73697a653a20313660208201527170783b2066696c6c3a2077686974653b207d60701b60408201526052017f2e6d61747269782d63686172207b20666f6e742d66616d696c793a206d6f6e6f81526c039b830b1b29d903334b6361d1609d1b6020820152602d0161400c9161343a565b703b206f7061636974793a20302e383b207d60781b81526011017f406b65796672616d65732066616465207b203025207b206f7061636974793a2081527f302e323b207d20333025207b206f7061636974793a20302e393b207d2037302560208201527f207b206f7061636974793a20302e393b207d2031303025207b206f706163697460408201526a793a20302e323b207d207d60a81b6060820152606b017f406b65796672616d65732066616c6c207b2066726f6d207b207472616e73666f81527f726d3a207472616e736c61746559282d32307078293b207d20746f207b20747260208201527f616e73666f726d3a207472616e736c61746559283432307078293b207d207d006040820152605f01671e17b9ba3cb6329f60c11b8152600801661e17b232b3399f60c91b81526007017f3c726563742077696474683d2234303022206865696768743d2234303022206681527834b6361e913933b1309418161816181618171c1a949110179f60391b60208201526039017f3c6720636c6173733d226d61747269782d6261636b67726f756e64223e0000008152601d016141b69161343a565b6141bf90613e3e565b7b1e339031b630b9b99e913637b7b3b4b296b1b7b73a30b4b732b9111f60211b8152601c017f3c656c6c697073652063783d22323030222063793d22323030222072783d223181527f3230222072793d22313230222066696c6c3d227267626128302c302c302c302e6020820152791a9491103334b63a32b91e9131363ab9141918383c149110179f60311b6040820152605a0161425c9161343a565b61426590613e3e565b651e17b9bb339f60d11b81526006015b03601f19810182526105a490826106f3565b604051614293816106a1565b60048152630233046360e41b6020820152945b6142b2909391936135c3565b916142d36142bf85613691565b948060090290600982040361474357612e5a565b600b90046142e090613691565b906142ea90613691565b6040516c1e339034b21e9132bcb298911f60991b602082015260008051602061548e833981519152602d8201527f2e35222072783d2232392e35222069643d227376675f31222063793d22313534604d8201527f2e35222063783d223138312e3522207374726f6b653d2223303030222066696c606d82015269361e9111b3333311179f60b11b608d8201527f3c656c6c697073652072793d22332e35222072783d22322e35222069643d227360978201527f76675f33222063793d223135342e35222063783d223137332e3522207374726f60b78201527f6b652d77696474683d223322207374726f6b653d2223303030222066696c6c3d60d78201526a111198181818181811179f60a91b60f782015294859491929161440f6101028701613e3e565b6c1e339034b21e913432b0b2111f60991b8152600d016f3c656c6c697073652066696c6c3d222360801b81526010016144479161343a565b7f22207374726f6b652d77696474683d2233222063783d223230342e352220637981527b1e91191898971c18181b1a911034b21e9139bb33af9a9110393c1e9160211b6020820152603c0161449b9161343a565b7f222072793d2235312e383030363522207374726f6b653d2223303030222f3e008152601f016144ca90613e3e565b6c1e339034b21e9132bcb299111f60991b8152600d0160008051602061548e83398151915281527f2e35222072783d2232392e35222069643d227376675f32222063793d2231363860208201527f2e35222063783d223230392e3522207374726f6b653d2223303030222066696c604082015269361e9111b3333311179f60b11b6060820152606a017f3c656c6c697073652072793d22332e35222072783d2233222069643d2273766781527f5f34222063793d223136392e35222063783d2232303822207374726f6b652d7760208201527f696474683d2233222066696c6c3d222330303030303022207374726f6b653d226040820152661198181811179f60c91b60608201526067016145de90613e3e565b7f3c6720636c6173733d226d6f75746822207472616e73666f726d3d227472616e8152650e6d8c2e8ca560d31b602082015260260161461c9161343a565b64161814911f60d91b81526005017f3c7061746820643d224d203133302032343020512031363520323530200000008152601d016146599161343a565b7f2032333522207374726f6b653d22626c61636b22207374726f6b652d77696474815279341e911991103334b6361e913a3930b739b830b932b73a11179f60311b6020820152603a016146ab90613e3e565b7f3c7465787420783d223230302220793d223239302220746578742d616e63686f81527f723d226d6964646c652220636c6173733d22757365726e616d65222066696c6c60208201527f3d22776869746522207374726f6b653d22626c61636b22207374726f6b652d7760408201526a34b23a341e9118171a911f60a91b6060820152606b0161473a9161343a565b61427590613a20565b61474b612e2c565b612e5a565b7f222c22766572696669636174696f6e223a7b226d6574686f64223a226b65636381527530b5991a9b14313cba32b9949116113230ba30911d1160511b602082015260360190565b7f646174613a6170706c69636174696f6e2f6a736f6e3b6261736536342c0000008152601d0190565b9096959492939193604051946020988995868801886147e087836139a4565b0398601f19998a810182526147f590826106f3565b5190206148059187868686613e4e565b9761480f85614dd8565b98604051809a89820161483190600890674c6f6f676965202360c01b81520190565b61483a9161343a565b038981018b5261484a908b6106f3565b614853836135c3565b9561485d85613691565b9661486787613691565b6040519889928c840161489b90601a907954686973204c6f6f6769652069732074686520636f6c6f72202360301b81520190565b6148a49161343a565b750103bb4ba3410309031b43ab13134b732b9b99037b3160551b81526016016148cc9161343a565b7401030b7321036b7baba34103632b733ba341037b31605d1b81526015016148f39161343a565b6221212160e81b8152600301038a8101885261490f90886106f3565b8151898301209261491f90613747565b9061492990613851565b9161493390614cf1565b9261493d90613851565b93614947906135c3565b9461495190613691565b9561495b90613691565b604051783d912629a81a26b2ba30b230ba30911d3d913730b6b2911d1160391b9a81019a8b529b8c9a9198916019016149939161343a565b701116113232b9b1b934b83a34b7b7111d1160791b81526011016149b69161343a565b7f222c226c696e6b73223a5b7b227469746c65223a2257656273697465222c227581527f726c223a2268747470733a2f2f6c756b736f6c6f6f676965732e76657263656c60208201527f2e617070227d2c7b227469746c65223a225669657720546f6b656e222c22757260408201527f6c223a2268747470733a2f2f756e6976657273616c65766572797468696e672e606082015268696f2f61737365742f60b81b6080820152608901614a699161343a565b682f746f6b656e49642f60b81b8152600901614a849161343a565b7f3f6e6574776f726b3d746573746e6574227d5d2c22696d61676573223a5b5b7b81527f227769647468223a3430302c22686569676874223a3430302c2275726c223a2260208201527919185d184e9a5b5859d94bdcdd99cade1b5b0ed8985cd94d8d0b60321b6040820152605a01614afc9161343a565b614b0590614750565b614b0e9161343a565b7f227d7d5d5d2c2261747472696275746573223a5b7b226b6579223a22636f6c6f81526c72222c2276616c7565223a222360981b6020820152602d01614b539161343a565b7f222c2274797065223a22737472696e67227d2c7b226b6579223a22636875626281526f34b732b9b99116113b30b63ab2911d1160811b6020820152603001614b9b9161343a565b7f222c2274797065223a226e756d626572227d2c7b226b6579223a226d6f7574688152702632b733ba341116113b30b63ab2911d1160791b6020820152603101614be49161343a565b7f222c2274797065223a226e756d626572227d2c7b226b6579223a22757055736581526f393730b6b29116113b30b63ab2911d1160811b6020820152603001614c2c9161343a565b74222c2274797065223a22737472696e67227d5d7d7d60581b8152601501038181018352614c5a90836106f3565b614c6382614cf1565b936040519485918201614c7590614798565b614c7e9161343a565b039081018452614c8e90846106f3565b9190565b60405190614c9f826106bc565b604082527f6768696a6b6c6d6e6f707172737475767778797a303132333435363738392b2f6040837f4142434445464748494a4b4c4d4e4f505152535455565758595a61626364656660208201520152565b805115614dcf57614d00614c92565b614d24614d1f614d1a614d1385516130ee565b6003900490565b61308b565b61354b565b91602083019181825183016020810191825193600084525b828210614d7d5750505052516003900660018114614d6a57600214614d5f575090565b603d90600019015390565b50603d9081600019820153600119015390565b9091956004906003809401938451600190603f9082828260121c16880101518553828282600c1c16880101518386015382828260061c1688010151600286015316850101519082015301959190614d3c565b506105a4611e65565b6000908072184f03e93ff9f4daa797ed6e38ed64bf6a1f0160401b80821015614f07575b506904ee2d6d415b85acef8160201b80831015614ef8575b50662386f26fc1000080831015614ee9575b506305f5e10080831015614eda575b5061271080831015614ecb575b506064821015614ebb575b600a80921015614eb1575b600190816021614e6982870161354b565b95860101905b614e7b575b5050505090565b600019019083906f181899199a1a9b1b9c1cb0b131b232b360811b8282061a835304918215614eac57919082614e6f565b614e74565b9160010191614e58565b9190606460029104910191614e4d565b60049193920491019138614e42565b60089193920491019138614e35565b60109193920491019138614e26565b60209193920491019138614e14565b604093508104915038614dfc565b61542190615337614c8e604051614f2b816106d7565b6153f361534e61533c6150c26150bc61014f8087526020870160008051602061544e83398151915281526000805160206154ae83398151915260408901527f3e3c726563742077696474683d2234303022206865696768743d22343030222060608901527f66696c6c3d2223303030222f3e3c7465787420783d223230302220793d22313860808901527f302220666f6e742d66616d696c793d22417269616c2220666f6e742d73697a6560a08901527f3d223430222066696c6c3d22236666662220746578742d616e63686f723d226d60c08901527f6964646c65223e4c756b736f4c6f6f676965733c2f746578743e3c746578742060e08901527f783d223230302220793d223233302220666f6e742d66616d696c793d224172696101008901527f616c2220666f6e742d73697a653d223230222066696c6c3d22233066302220746101208901527f6578742d616e63686f723d226d6964646c65223e4d61747269782045646974696101408901526e37b71e17ba32bc3a1f1e17b9bb339f60891b6101608901522095614cf1565b94613851565b613b86604051978896613b866152d961523260208b0161011b907f7b224c5350344d65746164617461223a7b226e616d65223a224c756b736f4c6f81527f6f67696573222c226465736372697074696f6e223a224c756b736f4c6f6f676960208201527f657320617265204c554b534f205374616e64617264204c535038204e4654732060408201527f77697468206120736d696c65203a29204f6e6c792033373238204c756b736f4c60608201527f6f6f6769657320617661696c61626c65206f6e2061207072696365206375727660808201527f6520696e6372656173696e6720302e322520776974682065616368206e65772060a08201527f6d696e742e2054686973204d61747269782045646974696f6e2066656174757260c08201527f657320616e696d61746564204d61747269782d7374796c652066616c6c696e6760e08201527a0818dbd9194818995a1a5b9908195858da08131bdbd9da594b888b602a1b6101008201520190565b7f226c696e6b73223a5b7b227469746c65223a2257656273697465222c2275726c81527f223a2268747470733a2f2f6c756b736f6c6f6f676965732e76657263656c2e6160208201527f7070227d2c7b227469746c65223a2254776974746572222c2275726c223a226860408201527f747470733a2f2f747769747465722e636f6d2f6c756b736f4c6f6f67696573226060820152621f574b60ea1b608082015260830190565b7f22696d61676573223a5b5b7b227769647468223a3430302c226865696768742281527f3a3430302c2275726c223a22646174613a696d6167652f7376672b786d6c3b62602082015265185cd94d8d0b60d21b604082015260460190565b614750565b65089f5f57574b60d21b815260060190565b7f22617373657473223a5b5d2c2261747472696275746573223a5b7b226b65792281527f3a2274797065222c2276616c7565223a22636f6c6c656374696f6e222c22747960208201527f7065223a22737472696e67227d2c7b226b6579223a227374796c65222c22766160408201527f6c7565223a226d6174726978222c2274797065223a22737472696e67227d5d7d6060820152607d60f81b608082015260810190565b03615406601f19918281018552846106f3565b61540f83614cf1565b604051958691613b8660208401614798565b039081018552846106f356fea6e4251f855f750545fe414f120db91c76b88def14d120969e5bb2d3f05debbb3c7376672077696474683d2234303022206865696768743d223430302220786ddeba1e292f8ba88238e10ab3c7f88bd4be4fac56cad5194b6ecceaf653468af13c656c6c69707365207374726f6b652d77696474683d2233222072793d2232396c6e733d22687474703a2f2f7777772e77332e6f72672f323030302f737667229afb95cacc9f95858ec44aa8c3b685511002e30ae54415823f406128b85b238e8be0079c531659141344cd1fd0a4f28419497f9722a3daafe3b4186f6b6457e02f0a68ab07768e01943a599e73362a0e17a63a72e94dd2e384d2c1d4db932756c78cd419d6136f9f1c1c6aec1d3fae098cffaf8bc86314a8f2685e32fe574e3cb333c813a7426a7a11e2b190cad52c44119421594b47f6f32ace6d8c7207b2bf70783b20616e696d6174696f6e3a206661646520347320696e66696e6974652cece574603820d07bc9b91f2a932baadf4628aabcb8afba49776529c14a6104b2a26469706673582212207d6312aa30f47183a0e7b28812ff3e6e7f01c1790145dfdf6ab09d782e33a9ed64736f6c63430008110033ece574603820d07bc9b91f2a932baadf4628aabcb8afba49776529c14a6104b2",
  "devdoc": {
    "errors": {
      "ERC725Y_DataKeysValuesEmptyArray()": [
        {
          "details": "Reverts when one of the array parameter provided to {setDataBatch} function is an empty array."
        }
      ],
      "ERC725Y_DataKeysValuesLengthMismatch()": [
        {
          "details": "Reverts when there is not the same number of elements in the `datakeys` and `dataValues` array parameters provided when calling the {setDataBatch} function."
        }
      ],
      "ERC725Y_MsgValueDisallowed()": [
        {
          "details": "Reverts when sending value to the {setData} or {setDataBatch} function."
        }
      ],
      "InvalidExtensionAddress(bytes)": [
        {
          "details": "reverts when the bytes retrieved from the LSP17 data key is not a valid address (not 20 bytes)"
        }
      ],
      "InvalidFunctionSelector(bytes)": [
        {
          "details": "reverts when the contract is called with a function selector not valid (less than 4 bytes of data)"
        }
      ],
      "LSP4TokenNameNotEditable()": [
        {
          "details": "Reverts when trying to edit the data key `LSP4TokenName` after the digital asset contract has been deployed / initialized. The `LSP4TokenName` data key is located inside the ERC725Y data key-value store of the digital asset contract. It can be set only once inside the constructor/initializer when the digital asset contract is being deployed / initialized."
        }
      ],
      "LSP4TokenSymbolNotEditable()": [
        {
          "details": "Reverts when trying to edit the data key `LSP4TokenSymbol` after the digital asset contract has been deployed / initialized. The `LSP4TokenSymbol` data key is located inside the ERC725Y data key-value store of the digital asset contract. It can be set only once inside the constructor/initializer when the digital asset contract is being deployed / initialized."
        }
      ],
      "LSP4TokenTypeNotEditable()": [
        {
          "details": "Reverts when trying to edit the data key `LSP4TokenType` after the digital asset contract has been deployed / initialized. The `LSP4TokenType` data key is located inside the ERC725Y data key-value store of the digital asset contract. It can be set only once inside the constructor / initializer when the digital asset contract is being deployed / initialized."
        }
      ],
      "LSP8BatchCallFailed(uint256)": [
        {
          "details": "Reverts when a batch call failed."
        }
      ],
      "LSP8CannotSendToAddressZero()": [
        {
          "details": "Reverts when trying to send token to the zero address."
        }
      ],
      "LSP8CannotUseAddressZeroAsOperator()": [
        {
          "details": "Reverts when trying to set the zero address as an operator."
        }
      ],
      "LSP8InvalidTransferBatch()": [
        {
          "details": "Reverts when the parameters used for `transferBatch` have different lengths."
        }
      ],
      "LSP8NonExistentTokenId(bytes32)": [
        {
          "details": "Reverts when `tokenId` has not been minted."
        }
      ],
      "LSP8NonExistingOperator(address,bytes32)": [
        {
          "details": "Reverts when `operator` is not an operator for the `tokenId`."
        }
      ],
      "LSP8NotTokenOperator(bytes32,address)": [
        {
          "details": "Reverts when `caller` is not an allowed operator for `tokenId`."
        }
      ],
      "LSP8NotTokenOwner(address,bytes32,address)": [
        {
          "details": "Reverts when `caller` is not the `tokenOwner` of the `tokenId`."
        }
      ],
      "LSP8NotifyTokenReceiverContractMissingLSP1Interface(address)": [
        {
          "details": "Reverts if the `tokenReceiver` does not implement LSP1 when minting or transferring tokens with `bool force` set as `false`."
        }
      ],
      "LSP8NotifyTokenReceiverIsEOA(address)": [
        {
          "details": "Reverts if the `tokenReceiver` is an EOA when minting or transferring tokens with `bool force` set as `false`."
        }
      ],
      "LSP8OperatorAlreadyAuthorized(address,bytes32)": [
        {
          "details": "Reverts when `operator` is already authorized for the `tokenId`."
        }
      ],
      "LSP8RevokeOperatorNotAuthorized(address,address,bytes32)": [
        {
          "details": "Reverts when the call to revoke operator is not authorized."
        }
      ],
      "LSP8TokenContractCannotHoldValue()": [
        {
          "details": "Error occurs when sending native tokens to the LSP8 contract without sending any data. E.g. Sending value without passing a bytes4 function selector to call a LSP17 Extension."
        }
      ],
      "LSP8TokenIdAlreadyMinted(bytes32)": [
        {
          "details": "Reverts when `tokenId` has already been minted."
        }
      ],
      "LSP8TokenIdFormatNotEditable()": [
        {
          "details": "Reverts when trying to edit the data key `LSP8TokenIdFormat` after the identifiable digital asset contract has been deployed. The `LSP8TokenIdFormat` data key is located inside the ERC725Y Data key-value store of the identifiable digital asset contract. It can be set only once inside the constructor/initializer when the identifiable digital asset contract is being deployed."
        }
      ],
      "LSP8TokenIdsDataEmptyArray()": [
        {
          "details": "Reverts when empty arrays is passed to the function"
        }
      ],
      "LSP8TokenIdsDataLengthMismatch()": [
        {
          "details": "Reverts when the length of the token IDs data arrays is not equal"
        }
      ],
      "LSP8TokenOwnerCannotBeOperator()": [
        {
          "details": "Reverts when trying to authorize or revoke the token's owner as an operator."
        }
      ],
      "LSP8TokenOwnerChanged(bytes32,address,address)": [
        {
          "details": "Reverts when the token owner changed inside the {_beforeTokenTransfer} hook."
        }
      ],
      "NoExtensionFoundForFunctionSelector(bytes4)": [
        {
          "details": "reverts when there is no extension for the function selector being called with"
        }
      ],
      "OwnableCannotSetZeroAddressAsOwner()": [
        {
          "details": "Reverts when trying to set `address(0)` as the contract owner when deploying the contract or initializing it."
        }
      ]
    },
    "kind": "dev",
    "methods": {
      "addressToString(address)": {
        "params": {
          "_addr": "The address to convert"
        },
        "returns": {
          "_0": "string The string representation"
        }
      },
      "authorizeOperator(address,bytes32,bytes)": {
        "details": "Allow an `operator` address to transfer or burn a specific `tokenId` on behalf of its token owner. See {isOperatorFor}. Notify the operator based on the LSP1-UniversalReceiver standard",
        "params": {
          "operator": "The address to authorize as an operator.",
          "operatorNotificationData": "The data to notify the operator about via LSP1.",
          "tokenId": "The token ID operator has access to."
        }
      },
      "balanceOf(address)": {
        "details": "Get the number of token IDs owned by `tokenOwner`.",
        "params": {
          "tokenOwner": "The address to query     *"
        },
        "returns": {
          "_0": "The total number of token IDs that `tokenOwner` owns."
        }
      },
      "batchCalls(bytes[])": {
        "custom:info": "It's not possible to send value along the functions call due to the use of `delegatecall`.",
        "details": "Allows a caller to batch different function calls in one call. Perform a `delegatecall` on self, to call different functions with preserving the context.",
        "params": {
          "data": "An array of ABI encoded function calls to be called on the contract."
        },
        "returns": {
          "results": "An array of abi-encoded data returned by the functions executed."
        }
      },
      "bytes32ToString(bytes32)": {
        "params": {
          "_bytes": "The bytes32 to convert"
        },
        "returns": {
          "_0": "string The string representation"
        }
      },
      "createCollectionMetadata()": {
        "returns": {
          "encoded": "Base64 encoded metadata with data URI",
          "raw": "Raw metadata bytes"
        }
      },
      "createTokenMetadata(bytes32,bytes3,uint256,uint256,string,bool,address)": {
        "params": {
          "chubbiness": "Chubbiness value",
          "color": "Color of the Loogie",
          "contractAddress": "Contract address for asset link",
          "isUP": "Whether the owner is a Universal Profile",
          "mouthLength": "Mouth length value",
          "tokenId": "The token ID",
          "username": "Username"
        },
        "returns": {
          "encoded": "Base64 encoded metadata with data URI",
          "raw": "Raw metadata bytes"
        }
      },
      "generateLoogieSVG(bytes3,uint256,uint256,string,bool,bytes32)": {
        "params": {
          "chubbiness": "Chubbiness value",
          "color": "Color of the Loogie",
          "isUP": "Whether the owner is a Universal Profile",
          "matrixSeed": "Seed for the matrix animation",
          "mouthLength": "Mouth length value",
          "username": "Username"
        },
        "returns": {
          "_0": "string The SVG string"
        }
      },
      "generateMatrixRainEffect(bytes32)": {
        "params": {
          "tokenId": "The token ID to use for randomization"
        },
        "returns": {
          "_0": "string The SVG string for matrix effect"
        }
      },
      "getData(bytes32)": {
        "details": "Get in the ERC725Y storage the bytes data stored at a specific data key `dataKey`.",
        "params": {
          "dataKey": "The data key for which to retrieve the value."
        },
        "returns": {
          "dataValue": "The bytes value stored under the specified data key."
        }
      },
      "getDataBatch(bytes32[])": {
        "details": "Get in the ERC725Y storage the bytes data stored at multiple data keys `dataKeys`.",
        "params": {
          "dataKeys": "The array of keys which values to retrieve"
        },
        "returns": {
          "dataValues": "The array of data stored at multiple keys"
        }
      },
      "getDataBatchForTokenIds(bytes32[],bytes32[])": {
        "params": {
          "dataKeys": "An array of data keys corresponding to the token IDs.",
          "tokenIds": "An array of token IDs."
        },
        "returns": {
          "dataValues": "An array of data values for each pair of `tokenId` and `dataKey`."
        }
      },
      "getDataForTokenId(bytes32,bytes32)": {
        "params": {
          "dataKey": "The key for the data to retrieve.",
          "tokenId": "The unique identifier for a token."
        },
        "returns": {
          "dataValue": "The data value associated with the given `tokenId` and `dataKey`."
        }
      },
      "getOperatorsOf(bytes32)": {
        "details": "Returns all `operator` addresses that are allowed to transfer or burn a specific `tokenId` on behalf of its owner.",
        "params": {
          "tokenId": "The token ID to get the operators for."
        },
        "returns": {
          "_0": "An array of operators allowed to transfer or burn a specific `tokenId`. Requirements - `tokenId` must exist."
        }
      },
      "isOperatorFor(address,bytes32)": {
        "details": "Returns whether `operator` address is an operator for a given `tokenId`.",
        "params": {
          "operator": "The address to query operator status for.",
          "tokenId": "The token ID to check if `operator` is allowed to operate on."
        },
        "returns": {
          "_0": "`true` if `operator` is an operator for `tokenId`, `false` otherwise."
        }
      },
      "owner()": {
        "details": "Returns the address of the current owner."
      },
      "renounceOwnership()": {
        "details": "Leaves the contract without owner. It will not be possible to call `onlyOwner` functions. Can only be called by the current owner. NOTE: Renouncing ownership will leave the contract without an owner, thereby disabling any functionality that is only available to the owner."
      },
      "revokeOperator(address,bytes32,bool,bytes)": {
        "details": "Remove access of `operator` for a given `tokenId`, disallowing it to transfer `tokenId` on behalf of its owner. See also {isOperatorFor}.",
        "params": {
          "notify": "Boolean indicating whether to notify the operator or not",
          "operator": "The address to revoke as an operator.",
          "operatorNotificationData": "The data to notify the operator about via LSP1.",
          "tokenId": "The tokenId `operator` is revoked from operating on."
        }
      },
      "setData(bytes32,bytes)": {
        "custom:events": "{DataChanged} event.",
        "custom:requirements": "- SHOULD only be callable by the {owner}.",
        "custom:warning": "**Note for developers:** despite the fact that this function is set as `payable`, the function is not intended to receive value (= native tokens). **An additional check has been implemented to ensure that `msg.value` sent was equal to 0**. If you want to allow this function to receive value in your inheriting contract, this function can be overriden to remove this check.",
        "details": "Sets a single bytes value `dataValue` in the ERC725Y storage for a specific data key `dataKey`. The function is marked as payable to enable flexibility on child contracts. For instance to implement a fee mechanism for setting specific data.",
        "params": {
          "dataKey": "The data key for which to set a new value.",
          "dataValue": "The new bytes value to set."
        }
      },
      "setDataBatch(bytes32[],bytes[])": {
        "custom:events": "{DataChanged} event **for each data key/value pair set**.",
        "custom:requirements": "- SHOULD only be callable by the {owner} of the contract.",
        "custom:warning": "**Note for developers:** despite the fact that this function is set as `payable`, the function is not intended to receive value (= native tokens). **An additional check has been implemented to ensure that `msg.value` sent was equal to 0**. If you want to allow this function to receive value in your inheriting contract, this function can be overriden to remove this check.",
        "details": "Batch data setting function that behaves the same as {setData} but allowing to set multiple data key/value pairs in the ERC725Y storage in the same transaction.",
        "params": {
          "dataKeys": "An array of data keys to set bytes values for.",
          "dataValues": "An array of bytes values to set for each `dataKeys`."
        }
      },
      "setDataBatchForTokenIds(bytes32[],bytes32[],bytes[])": {
        "params": {
          "dataKeys": "An array of data keys corresponding to the token IDs.",
          "dataValues": "An array of values to set for the given data keys.",
          "tokenIds": "An array of token IDs."
        }
      },
      "setDataForTokenId(bytes32,bytes32,bytes)": {
        "params": {
          "dataKey": "The key for the data to set.",
          "dataValue": "The value to set for the given data key.",
          "tokenId": "The unique identifier for a token."
        }
      },
      "supportsInterface(bytes4)": {
        "details": "See {IERC165-supportsInterface}."
      },
      "toColorHexString(bytes3)": {
        "params": {
          "_color": "The color as bytes3"
        },
        "returns": {
          "_0": "string The hex string of the color"
        }
      },
      "tokenIdsOf(address)": {
        "details": "Returns the list of token IDs that the `tokenOwner` address owns.",
        "params": {
          "tokenOwner": "The address that we want to get the list of token IDs for."
        },
        "returns": {
          "_0": "An array of `bytes32[] tokenIds` owned by `tokenOwner`."
        }
      },
      "tokenOwnerOf(bytes32)": {
        "details": "Returns the address that owns a given `tokenId`.",
        "params": {
          "tokenId": "The token ID to query the owner for."
        },
        "returns": {
          "_0": "The owner address of the given `tokenId`."
        }
      },
      "totalSupply()": {
        "details": "Returns the number of existing tokens that have been minted in this contract.",
        "returns": {
          "_0": "The number of existing tokens."
        }
      },
      "transfer(address,address,bytes32,bool,bytes)": {
        "details": "Transfer a given `tokenId` token from the `from` address to the `to` address. If operators are set for a specific `tokenId`, all the operators are revoked after the tokenId have been transferred. The `force` parameter MUST be set to `true` when transferring tokens to Externally Owned Accounts (EOAs) or contracts that do not implement the LSP1 standard.",
        "params": {
          "data": "Any additional data the caller wants included in the emitted event, and sent in the hooks of the `from` and `to` addresses.",
          "force": "When set to `true`, the `to` address CAN be any address. When set to `false`, the `to` address MUST be a contract that supports the LSP1 UniversalReceiver standard.",
          "from": "The address that owns the given `tokenId`.",
          "to": "The address that will receive the `tokenId`.",
          "tokenId": "The token ID to transfer."
        }
      },
      "transferBatch(address[],address[],bytes32[],bool[],bytes[])": {
        "details": "Transfers multiple tokens at once based on the arrays of `from`, `to` and `tokenId`. If any transfer fails, the whole call will revert.",
        "params": {
          "data": "Any additional data the caller wants included in the emitted event, and sent in the hooks to the `from` and `to` addresses.",
          "force": "When set to `true`, `to` may be any address. When set to `false`, `to` must be a contract that supports the LSP1 standard and not revert.",
          "from": "An array of sending addresses.",
          "to": "An array of recipient addresses.",
          "tokenId": "An array of token IDs to transfer."
        }
      },
      "transferOwnership(address)": {
        "details": "Transfers ownership of the contract to a new account (`newOwner`). Can only be called by the current owner."
      },
      "uint2str(uint256)": {
        "params": {
          "_i": "The uint to convert"
        },
        "returns": {
          "_uintAsString": "The string representation"
        }
      }
    },
    "version": 1
  },
  "userdoc": {
    "errors": {
      "LSP8BatchCallFailed(uint256)": [
        {
          "notice": "Batch call failed."
        }
      ],
      "LSP8TokenContractCannotHoldValue()": [
        {
          "notice": "LSP8 contract cannot receive native tokens."
        }
      ]
    },
    "events": {
      "DataChanged(bytes32,bytes)": {
        "notice": "The following data key/value pair has been changed in the ERC725Y storage: Data key: `dataKey`, data value: `dataValue`."
      }
    },
    "kind": "user",
    "methods": {
      "addressToString(address)": {
        "notice": "Convert address to string"
      },
      "batchCalls(bytes[])": {
        "notice": "Executing the following batch of abi-encoded function calls on the contract: `data`."
      },
      "bytes32ToString(bytes32)": {
        "notice": "Convert bytes32 to string"
      },
      "createCollectionMetadata()": {
        "notice": "Create collection metadata following LSP4 standard format"
      },
      "createTokenMetadata(bytes32,bytes3,uint256,uint256,string,bool,address)": {
        "notice": "Create token metadata following LSP4 standard format"
      },
      "generateLoogieSVG(bytes3,uint256,uint256,string,bool,bytes32)": {
        "notice": "Generate SVG for a Loogie"
      },
      "generateMatrixRainEffect(bytes32)": {
        "notice": "Generate Matrix rain effect SVG based on tokenId"
      },
      "getData(bytes32)": {
        "notice": "Reading the ERC725Y storage for data key `dataKey` returned the following value: `dataValue`."
      },
      "getDataBatch(bytes32[])": {
        "notice": "Reading the ERC725Y storage for data keys `dataKeys` returned the following values: `dataValues`."
      },
      "getDataBatchForTokenIds(bytes32[],bytes32[])": {
        "notice": "Retrieves data in batch for multiple `tokenId` and `dataKey` pairs."
      },
      "getDataForTokenId(bytes32,bytes32)": {
        "notice": "Retrieves data for a specific `tokenId` and `dataKey`."
      },
      "setData(bytes32,bytes)": {
        "notice": "Setting the following data key value pair in the ERC725Y storage. Data key: `dataKey`, data value: `dataValue`."
      },
      "setDataBatch(bytes32[],bytes[])": {
        "notice": "Setting the following data key value pairs in the ERC725Y storage. Data keys: `dataKeys`, data values: `dataValues`."
      },
      "setDataBatchForTokenIds(bytes32[],bytes32[],bytes[])": {
        "notice": "Sets data in batch for multiple `tokenId` and `dataKey` pairs."
      },
      "setDataForTokenId(bytes32,bytes32,bytes)": {
        "notice": "Sets data for a specific `tokenId` and `dataKey`."
      },
      "toColorHexString(bytes3)": {
        "notice": "Converts a bytes3 color to hex string without 0x prefix"
      },
      "uint2str(uint256)": {
        "notice": "Convert uint to string"
      }
    },
    "version": 1
  },
  "storageLayout": {
    "storage": [
      {
        "astId": 3617,
        "contract": "contracts/LSP8LoogiesUpdated.sol:LSP8LoogiesUpdated",
        "label": "_owner",
        "offset": 0,
        "slot": "0",
        "type": "t_address"
      },
      {
        "astId": 26,
        "contract": "contracts/LSP8LoogiesUpdated.sol:LSP8LoogiesUpdated",
        "label": "_store",
        "offset": 0,
        "slot": "1",
        "type": "t_mapping(t_bytes32,t_bytes_storage)"
      },
      {
        "astId": 2066,
        "contract": "contracts/LSP8LoogiesUpdated.sol:LSP8LoogiesUpdated",
        "label": "_existingTokens",
        "offset": 0,
        "slot": "2",
        "type": "t_uint256"
      },
      {
        "astId": 2070,
        "contract": "contracts/LSP8LoogiesUpdated.sol:LSP8LoogiesUpdated",
        "label": "_tokenOwners",
        "offset": 0,
        "slot": "3",
        "type": "t_mapping(t_bytes32,t_address)"
      },
      {
        "astId": 2075,
        "contract": "contracts/LSP8LoogiesUpdated.sol:LSP8LoogiesUpdated",
        "label": "_ownedTokens",
        "offset": 0,
        "slot": "4",
        "type": "t_mapping(t_address,t_struct(Bytes32Set)7311_storage)"
      },
      {
        "astId": 2080,
        "contract": "contracts/LSP8LoogiesUpdated.sol:LSP8LoogiesUpdated",
        "label": "_operators",
        "offset": 0,
        "slot": "5",
        "type": "t_mapping(t_bytes32,t_struct(AddressSet)7432_storage)"
      },
      {
        "astId": 10346,
        "contract": "contracts/LSP8LoogiesUpdated.sol:LSP8LoogiesUpdated",
        "label": "_tokenIds",
        "offset": 0,
        "slot": "6",
        "type": "t_uint256"
      },
      {
        "astId": 10350,
        "contract": "contracts/LSP8LoogiesUpdated.sol:LSP8LoogiesUpdated",
        "label": "color",
        "offset": 0,
        "slot": "7",
        "type": "t_mapping(t_bytes32,t_bytes3)"
      },
      {
        "astId": 10354,
        "contract": "contracts/LSP8LoogiesUpdated.sol:LSP8LoogiesUpdated",
        "label": "chubbiness",
        "offset": 0,
        "slot": "8",
        "type": "t_mapping(t_bytes32,t_uint256)"
      },
      {
        "astId": 10358,
        "contract": "contracts/LSP8LoogiesUpdated.sol:LSP8LoogiesUpdated",
        "label": "mouthLength",
        "offset": 0,
        "slot": "9",
        "type": "t_mapping(t_bytes32,t_uint256)"
      },
      {
        "astId": 10362,
        "contract": "contracts/LSP8LoogiesUpdated.sol:LSP8LoogiesUpdated",
        "label": "_tokenIdExists",
        "offset": 0,
        "slot": "10",
        "type": "t_mapping(t_uint256,t_bool)"
      },
      {
        "astId": 10366,
        "contract": "contracts/LSP8LoogiesUpdated.sol:LSP8LoogiesUpdated",
        "label": "upUsernames",
        "offset": 0,
        "slot": "11",
        "type": "t_mapping(t_bytes32,t_string_storage)"
      },
      {
        "astId": 10381,
        "contract": "contracts/LSP8LoogiesUpdated.sol:LSP8LoogiesUpdated",
        "label": "price",
        "offset": 0,
        "slot": "12",
        "type": "t_uint256"
      }
    ],
    "types": {
      "t_address": {
        "encoding": "inplace",
        "label": "address",
        "numberOfBytes": "20"
      },
      "t_array(t_bytes32)dyn_storage": {
        "base": "t_bytes32",
        "encoding": "dynamic_array",
        "label": "bytes32[]",
        "numberOfBytes": "32"
      },
      "t_bool": {
        "encoding": "inplace",
        "label": "bool",
        "numberOfBytes": "1"
      },
      "t_bytes3": {
        "encoding": "inplace",
        "label": "bytes3",
        "numberOfBytes": "3"
      },
      "t_bytes32": {
        "encoding": "inplace",
        "label": "bytes32",
        "numberOfBytes": "32"
      },
      "t_bytes_storage": {
        "encoding": "bytes",
        "label": "bytes",
        "numberOfBytes": "32"
      },
      "t_mapping(t_address,t_struct(Bytes32Set)7311_storage)": {
        "encoding": "mapping",
        "key": "t_address",
        "label": "mapping(address => struct EnumerableSet.Bytes32Set)",
        "numberOfBytes": "32",
        "value": "t_struct(Bytes32Set)7311_storage"
      },
      "t_mapping(t_bytes32,t_address)": {
        "encoding": "mapping",
        "key": "t_bytes32",
        "label": "mapping(bytes32 => address)",
        "numberOfBytes": "32",
        "value": "t_address"
      },
      "t_mapping(t_bytes32,t_bytes3)": {
        "encoding": "mapping",
        "key": "t_bytes32",
        "label": "mapping(bytes32 => bytes3)",
        "numberOfBytes": "32",
        "value": "t_bytes3"
      },
      "t_mapping(t_bytes32,t_bytes_storage)": {
        "encoding": "mapping",
        "key": "t_bytes32",
        "label": "mapping(bytes32 => bytes)",
        "numberOfBytes": "32",
        "value": "t_bytes_storage"
      },
      "t_mapping(t_bytes32,t_string_storage)": {
        "encoding": "mapping",
        "key": "t_bytes32",
        "label": "mapping(bytes32 => string)",
        "numberOfBytes": "32",
        "value": "t_string_storage"
      },
      "t_mapping(t_bytes32,t_struct(AddressSet)7432_storage)": {
        "encoding": "mapping",
        "key": "t_bytes32",
        "label": "mapping(bytes32 => struct EnumerableSet.AddressSet)",
        "numberOfBytes": "32",
        "value": "t_struct(AddressSet)7432_storage"
      },
      "t_mapping(t_bytes32,t_uint256)": {
        "encoding": "mapping",
        "key": "t_bytes32",
        "label": "mapping(bytes32 => uint256)",
        "numberOfBytes": "32",
        "value": "t_uint256"
      },
      "t_mapping(t_uint256,t_bool)": {
        "encoding": "mapping",
        "key": "t_uint256",
        "label": "mapping(uint256 => bool)",
        "numberOfBytes": "32",
        "value": "t_bool"
      },
      "t_string_storage": {
        "encoding": "bytes",
        "label": "string",
        "numberOfBytes": "32"
      },
      "t_struct(AddressSet)7432_storage": {
        "encoding": "inplace",
        "label": "struct EnumerableSet.AddressSet",
        "members": [
          {
            "astId": 7431,
            "contract": "contracts/LSP8LoogiesUpdated.sol:LSP8LoogiesUpdated",
            "label": "_inner",
            "offset": 0,
            "slot": "0",
            "type": "t_struct(Set)7117_storage"
          }
        ],
        "numberOfBytes": "64"
      },
      "t_struct(Bytes32Set)7311_storage": {
        "encoding": "inplace",
        "label": "struct EnumerableSet.Bytes32Set",
        "members": [
          {
            "astId": 7310,
            "contract": "contracts/LSP8LoogiesUpdated.sol:LSP8LoogiesUpdated",
            "label": "_inner",
            "offset": 0,
            "slot": "0",
            "type": "t_struct(Set)7117_storage"
          }
        ],
        "numberOfBytes": "64"
      },
      "t_struct(Set)7117_storage": {
        "encoding": "inplace",
        "label": "struct EnumerableSet.Set",
        "members": [
          {
            "astId": 7112,
            "contract": "contracts/LSP8LoogiesUpdated.sol:LSP8LoogiesUpdated",
            "label": "_values",
            "offset": 0,
            "slot": "0",
            "type": "t_array(t_bytes32)dyn_storage"
          },
          {
            "astId": 7116,
            "contract": "contracts/LSP8LoogiesUpdated.sol:LSP8LoogiesUpdated",
            "label": "_indexes",
            "offset": 0,
            "slot": "1",
            "type": "t_mapping(t_bytes32,t_uint256)"
          }
        ],
        "numberOfBytes": "64"
      },
      "t_uint256": {
        "encoding": "inplace",
        "label": "uint256",
        "numberOfBytes": "32"
      }
    }
  }
}