{
  "address": "0x84a79dE632869Bb934075B49B5BF029a3729c1b9",
  "abi": [
    {
      "inputs": [
        {
          "internalType": "address",
          "name": "contractOwner",
          "type": "address"
        }
      ],
      "stateMutability": "nonpayable",
      "type": "constructor"
    },
    {
      "inputs": [],
      "name": "ERC725Y_DataKeysValuesEmptyArray",
      "type": "error"
    },
    {
      "inputs": [],
      "name": "ERC725Y_DataKeysValuesLengthMismatch",
      "type": "error"
    },
    {
      "inputs": [],
      "name": "ERC725Y_MsgValueDisallowed",
      "type": "error"
    },
    {
      "inputs": [
        {
          "internalType": "bytes",
          "name": "storedData",
          "type": "bytes"
        }
      ],
      "name": "InvalidExtensionAddress",
      "type": "error"
    },
    {
      "inputs": [
        {
          "internalType": "bytes",
          "name": "data",
          "type": "bytes"
        }
      ],
      "name": "InvalidFunctionSelector",
      "type": "error"
    },
    {
      "inputs": [],
      "name": "LSP4TokenNameNotEditable",
      "type": "error"
    },
    {
      "inputs": [],
      "name": "LSP4TokenSymbolNotEditable",
      "type": "error"
    },
    {
      "inputs": [],
      "name": "LSP4TokenTypeNotEditable",
      "type": "error"
    },
    {
      "inputs": [
        {
          "internalType": "uint256",
          "name": "callIndex",
          "type": "uint256"
        }
      ],
      "name": "LSP8BatchCallFailed",
      "type": "error"
    },
    {
      "inputs": [],
      "name": "LSP8CannotSendToAddressZero",
      "type": "error"
    },
    {
      "inputs": [],
      "name": "LSP8CannotUseAddressZeroAsOperator",
      "type": "error"
    },
    {
      "inputs": [],
      "name": "LSP8InvalidTransferBatch",
      "type": "error"
    },
    {
      "inputs": [
        {
          "internalType": "bytes32",
          "name": "tokenId",
          "type": "bytes32"
        }
      ],
      "name": "LSP8NonExistentTokenId",
      "type": "error"
    },
    {
      "inputs": [
        {
          "internalType": "address",
          "name": "operator",
          "type": "address"
        },
        {
          "internalType": "bytes32",
          "name": "tokenId",
          "type": "bytes32"
        }
      ],
      "name": "LSP8NonExistingOperator",
      "type": "error"
    },
    {
      "inputs": [
        {
          "internalType": "bytes32",
          "name": "tokenId",
          "type": "bytes32"
        },
        {
          "internalType": "address",
          "name": "caller",
          "type": "address"
        }
      ],
      "name": "LSP8NotTokenOperator",
      "type": "error"
    },
    {
      "inputs": [
        {
          "internalType": "address",
          "name": "tokenOwner",
          "type": "address"
        },
        {
          "internalType": "bytes32",
          "name": "tokenId",
          "type": "bytes32"
        },
        {
          "internalType": "address",
          "name": "caller",
          "type": "address"
        }
      ],
      "name": "LSP8NotTokenOwner",
      "type": "error"
    },
    {
      "inputs": [
        {
          "internalType": "address",
          "name": "tokenReceiver",
          "type": "address"
        }
      ],
      "name": "LSP8NotifyTokenReceiverContractMissingLSP1Interface",
      "type": "error"
    },
    {
      "inputs": [
        {
          "internalType": "address",
          "name": "tokenReceiver",
          "type": "address"
        }
      ],
      "name": "LSP8NotifyTokenReceiverIsEOA",
      "type": "error"
    },
    {
      "inputs": [
        {
          "internalType": "address",
          "name": "operator",
          "type": "address"
        },
        {
          "internalType": "bytes32",
          "name": "tokenId",
          "type": "bytes32"
        }
      ],
      "name": "LSP8OperatorAlreadyAuthorized",
      "type": "error"
    },
    {
      "inputs": [
        {
          "internalType": "address",
          "name": "caller",
          "type": "address"
        },
        {
          "internalType": "address",
          "name": "tokenOwner",
          "type": "address"
        },
        {
          "internalType": "bytes32",
          "name": "tokenId",
          "type": "bytes32"
        }
      ],
      "name": "LSP8RevokeOperatorNotAuthorized",
      "type": "error"
    },
    {
      "inputs": [],
      "name": "LSP8TokenContractCannotHoldValue",
      "type": "error"
    },
    {
      "inputs": [
        {
          "internalType": "bytes32",
          "name": "tokenId",
          "type": "bytes32"
        }
      ],
      "name": "LSP8TokenIdAlreadyMinted",
      "type": "error"
    },
    {
      "inputs": [],
      "name": "LSP8TokenIdFormatNotEditable",
      "type": "error"
    },
    {
      "inputs": [],
      "name": "LSP8TokenIdsDataEmptyArray",
      "type": "error"
    },
    {
      "inputs": [],
      "name": "LSP8TokenIdsDataLengthMismatch",
      "type": "error"
    },
    {
      "inputs": [],
      "name": "LSP8TokenOwnerCannotBeOperator",
      "type": "error"
    },
    {
      "inputs": [
        {
          "internalType": "bytes32",
          "name": "tokenId",
          "type": "bytes32"
        },
        {
          "internalType": "address",
          "name": "oldOwner",
          "type": "address"
        },
        {
          "internalType": "address",
          "name": "newOwner",
          "type": "address"
        }
      ],
      "name": "LSP8TokenOwnerChanged",
      "type": "error"
    },
    {
      "inputs": [
        {
          "internalType": "bytes4",
          "name": "functionSelector",
          "type": "bytes4"
        }
      ],
      "name": "NoExtensionFoundForFunctionSelector",
      "type": "error"
    },
    {
      "inputs": [],
      "name": "OwnableCannotSetZeroAddressAsOwner",
      "type": "error"
    },
    {
      "anonymous": false,
      "inputs": [
        {
          "indexed": true,
          "internalType": "bytes32",
          "name": "dataKey",
          "type": "bytes32"
        },
        {
          "indexed": false,
          "internalType": "bytes",
          "name": "dataValue",
          "type": "bytes"
        }
      ],
      "name": "DataChanged",
      "type": "event"
    },
    {
      "anonymous": false,
      "inputs": [
        {
          "indexed": true,
          "internalType": "address",
          "name": "operator",
          "type": "address"
        },
        {
          "indexed": true,
          "internalType": "address",
          "name": "tokenOwner",
          "type": "address"
        },
        {
          "indexed": true,
          "internalType": "bytes32",
          "name": "tokenId",
          "type": "bytes32"
        },
        {
          "indexed": false,
          "internalType": "bytes",
          "name": "operatorNotificationData",
          "type": "bytes"
        }
      ],
      "name": "OperatorAuthorizationChanged",
      "type": "event"
    },
    {
      "anonymous": false,
      "inputs": [
        {
          "indexed": true,
          "internalType": "address",
          "name": "operator",
          "type": "address"
        },
        {
          "indexed": true,
          "internalType": "address",
          "name": "tokenOwner",
          "type": "address"
        },
        {
          "indexed": true,
          "internalType": "bytes32",
          "name": "tokenId",
          "type": "bytes32"
        },
        {
          "indexed": false,
          "internalType": "bool",
          "name": "notified",
          "type": "bool"
        },
        {
          "indexed": false,
          "internalType": "bytes",
          "name": "operatorNotificationData",
          "type": "bytes"
        }
      ],
      "name": "OperatorRevoked",
      "type": "event"
    },
    {
      "anonymous": false,
      "inputs": [
        {
          "indexed": true,
          "internalType": "address",
          "name": "previousOwner",
          "type": "address"
        },
        {
          "indexed": true,
          "internalType": "address",
          "name": "newOwner",
          "type": "address"
        }
      ],
      "name": "OwnershipTransferred",
      "type": "event"
    },
    {
      "anonymous": false,
      "inputs": [
        {
          "indexed": true,
          "internalType": "bytes32",
          "name": "tokenId",
          "type": "bytes32"
        },
        {
          "indexed": true,
          "internalType": "bytes32",
          "name": "dataKey",
          "type": "bytes32"
        },
        {
          "indexed": false,
          "internalType": "bytes",
          "name": "dataValue",
          "type": "bytes"
        }
      ],
      "name": "TokenIdDataChanged",
      "type": "event"
    },
    {
      "anonymous": false,
      "inputs": [
        {
          "indexed": false,
          "internalType": "address",
          "name": "operator",
          "type": "address"
        },
        {
          "indexed": true,
          "internalType": "address",
          "name": "from",
          "type": "address"
        },
        {
          "indexed": true,
          "internalType": "address",
          "name": "to",
          "type": "address"
        },
        {
          "indexed": true,
          "internalType": "bytes32",
          "name": "tokenId",
          "type": "bytes32"
        },
        {
          "indexed": false,
          "internalType": "bool",
          "name": "force",
          "type": "bool"
        },
        {
          "indexed": false,
          "internalType": "bytes",
          "name": "data",
          "type": "bytes"
        }
      ],
      "name": "Transfer",
      "type": "event"
    },
    {
      "stateMutability": "payable",
      "type": "fallback"
    },
    {
      "inputs": [
        {
          "internalType": "address",
          "name": "operator",
          "type": "address"
        },
        {
          "internalType": "bytes32",
          "name": "tokenId",
          "type": "bytes32"
        },
        {
          "internalType": "bytes",
          "name": "operatorNotificationData",
          "type": "bytes"
        }
      ],
      "name": "authorizeOperator",
      "outputs": [],
      "stateMutability": "nonpayable",
      "type": "function"
    },
    {
      "inputs": [
        {
          "internalType": "address",
          "name": "tokenOwner",
          "type": "address"
        }
      ],
      "name": "balanceOf",
      "outputs": [
        {
          "internalType": "uint256",
          "name": "",
          "type": "uint256"
        }
      ],
      "stateMutability": "view",
      "type": "function"
    },
    {
      "inputs": [
        {
          "internalType": "bytes[]",
          "name": "data",
          "type": "bytes[]"
        }
      ],
      "name": "batchCalls",
      "outputs": [
        {
          "internalType": "bytes[]",
          "name": "results",
          "type": "bytes[]"
        }
      ],
      "stateMutability": "nonpayable",
      "type": "function"
    },
    {
      "inputs": [
        {
          "internalType": "bytes32",
          "name": "",
          "type": "bytes32"
        }
      ],
      "name": "chubbiness",
      "outputs": [
        {
          "internalType": "uint256",
          "name": "",
          "type": "uint256"
        }
      ],
      "stateMutability": "view",
      "type": "function"
    },
    {
      "inputs": [
        {
          "internalType": "bytes32",
          "name": "",
          "type": "bytes32"
        }
      ],
      "name": "color",
      "outputs": [
        {
          "internalType": "bytes3",
          "name": "",
          "type": "bytes3"
        }
      ],
      "stateMutability": "view",
      "type": "function"
    },
    {
      "inputs": [],
      "name": "curve",
      "outputs": [
        {
          "internalType": "uint256",
          "name": "",
          "type": "uint256"
        }
      ],
      "stateMutability": "view",
      "type": "function"
    },
    {
      "inputs": [
        {
          "internalType": "bytes32",
          "name": "dataKey",
          "type": "bytes32"
        }
      ],
      "name": "getData",
      "outputs": [
        {
          "internalType": "bytes",
          "name": "dataValue",
          "type": "bytes"
        }
      ],
      "stateMutability": "view",
      "type": "function"
    },
    {
      "inputs": [
        {
          "internalType": "bytes32[]",
          "name": "dataKeys",
          "type": "bytes32[]"
        }
      ],
      "name": "getDataBatch",
      "outputs": [
        {
          "internalType": "bytes[]",
          "name": "dataValues",
          "type": "bytes[]"
        }
      ],
      "stateMutability": "view",
      "type": "function"
    },
    {
      "inputs": [
        {
          "internalType": "bytes32[]",
          "name": "tokenIds",
          "type": "bytes32[]"
        },
        {
          "internalType": "bytes32[]",
          "name": "dataKeys",
          "type": "bytes32[]"
        }
      ],
      "name": "getDataBatchForTokenIds",
      "outputs": [
        {
          "internalType": "bytes[]",
          "name": "dataValues",
          "type": "bytes[]"
        }
      ],
      "stateMutability": "view",
      "type": "function"
    },
    {
      "inputs": [
        {
          "internalType": "bytes32",
          "name": "tokenId",
          "type": "bytes32"
        },
        {
          "internalType": "bytes32",
          "name": "dataKey",
          "type": "bytes32"
        }
      ],
      "name": "getDataForTokenId",
      "outputs": [
        {
          "internalType": "bytes",
          "name": "dataValue",
          "type": "bytes"
        }
      ],
      "stateMutability": "view",
      "type": "function"
    },
    {
      "inputs": [
        {
          "internalType": "bytes32",
          "name": "tokenId",
          "type": "bytes32"
        }
      ],
      "name": "getOperatorsOf",
      "outputs": [
        {
          "internalType": "address[]",
          "name": "",
          "type": "address[]"
        }
      ],
      "stateMutability": "view",
      "type": "function"
    },
    {
      "inputs": [
        {
          "internalType": "address",
          "name": "operator",
          "type": "address"
        },
        {
          "internalType": "bytes32",
          "name": "tokenId",
          "type": "bytes32"
        }
      ],
      "name": "isOperatorFor",
      "outputs": [
        {
          "internalType": "bool",
          "name": "",
          "type": "bool"
        }
      ],
      "stateMutability": "view",
      "type": "function"
    },
    {
      "inputs": [
        {
          "internalType": "address",
          "name": "account",
          "type": "address"
        }
      ],
      "name": "isUniversalProfile",
      "outputs": [
        {
          "internalType": "bool",
          "name": "",
          "type": "bool"
        }
      ],
      "stateMutability": "view",
      "type": "function"
    },
    {
      "inputs": [],
      "name": "limit",
      "outputs": [
        {
          "internalType": "uint256",
          "name": "",
          "type": "uint256"
        }
      ],
      "stateMutability": "view",
      "type": "function"
    },
    {
      "inputs": [],
      "name": "mintItem",
      "outputs": [
        {
          "internalType": "bytes32",
          "name": "",
          "type": "bytes32"
        }
      ],
      "stateMutability": "payable",
      "type": "function"
    },
    {
      "inputs": [
        {
          "internalType": "address",
          "name": "to",
          "type": "address"
        }
      ],
      "name": "mintLoogie",
      "outputs": [
        {
          "internalType": "bytes32",
          "name": "",
          "type": "bytes32"
        }
      ],
      "stateMutability": "nonpayable",
      "type": "function"
    },
    {
      "inputs": [
        {
          "internalType": "bytes32",
          "name": "",
          "type": "bytes32"
        }
      ],
      "name": "mouthLength",
      "outputs": [
        {
          "internalType": "uint256",
          "name": "",
          "type": "uint256"
        }
      ],
      "stateMutability": "view",
      "type": "function"
    },
    {
      "inputs": [],
      "name": "name",
      "outputs": [
        {
          "internalType": "string",
          "name": "",
          "type": "string"
        }
      ],
      "stateMutability": "view",
      "type": "function"
    },
    {
      "inputs": [],
      "name": "owner",
      "outputs": [
        {
          "internalType": "address",
          "name": "",
          "type": "address"
        }
      ],
      "stateMutability": "view",
      "type": "function"
    },
    {
      "inputs": [],
      "name": "price",
      "outputs": [
        {
          "internalType": "uint256",
          "name": "",
          "type": "uint256"
        }
      ],
      "stateMutability": "view",
      "type": "function"
    },
    {
      "inputs": [],
      "name": "recipient",
      "outputs": [
        {
          "internalType": "address payable",
          "name": "",
          "type": "address"
        }
      ],
      "stateMutability": "view",
      "type": "function"
    },
    {
      "inputs": [],
      "name": "renounceOwnership",
      "outputs": [],
      "stateMutability": "nonpayable",
      "type": "function"
    },
    {
      "inputs": [
        {
          "internalType": "address",
          "name": "operator",
          "type": "address"
        },
        {
          "internalType": "bytes32",
          "name": "tokenId",
          "type": "bytes32"
        },
        {
          "internalType": "bool",
          "name": "notify",
          "type": "bool"
        },
        {
          "internalType": "bytes",
          "name": "operatorNotificationData",
          "type": "bytes"
        }
      ],
      "name": "revokeOperator",
      "outputs": [],
      "stateMutability": "nonpayable",
      "type": "function"
    },
    {
      "inputs": [
        {
          "internalType": "bytes32",
          "name": "dataKey",
          "type": "bytes32"
        },
        {
          "internalType": "bytes",
          "name": "dataValue",
          "type": "bytes"
        }
      ],
      "name": "setData",
      "outputs": [],
      "stateMutability": "payable",
      "type": "function"
    },
    {
      "inputs": [
        {
          "internalType": "bytes32[]",
          "name": "dataKeys",
          "type": "bytes32[]"
        },
        {
          "internalType": "bytes[]",
          "name": "dataValues",
          "type": "bytes[]"
        }
      ],
      "name": "setDataBatch",
      "outputs": [],
      "stateMutability": "payable",
      "type": "function"
    },
    {
      "inputs": [
        {
          "internalType": "bytes32[]",
          "name": "tokenIds",
          "type": "bytes32[]"
        },
        {
          "internalType": "bytes32[]",
          "name": "dataKeys",
          "type": "bytes32[]"
        },
        {
          "internalType": "bytes[]",
          "name": "dataValues",
          "type": "bytes[]"
        }
      ],
      "name": "setDataBatchForTokenIds",
      "outputs": [],
      "stateMutability": "nonpayable",
      "type": "function"
    },
    {
      "inputs": [
        {
          "internalType": "bytes32",
          "name": "tokenId",
          "type": "bytes32"
        },
        {
          "internalType": "bytes32",
          "name": "dataKey",
          "type": "bytes32"
        },
        {
          "internalType": "bytes",
          "name": "dataValue",
          "type": "bytes"
        }
      ],
      "name": "setDataForTokenId",
      "outputs": [],
      "stateMutability": "nonpayable",
      "type": "function"
    },
    {
      "inputs": [
        {
          "internalType": "bytes32",
          "name": "tokenId",
          "type": "bytes32"
        },
        {
          "internalType": "string",
          "name": "username",
          "type": "string"
        }
      ],
      "name": "setUPUsername",
      "outputs": [],
      "stateMutability": "nonpayable",
      "type": "function"
    },
    {
      "inputs": [
        {
          "internalType": "bytes4",
          "name": "interfaceId",
          "type": "bytes4"
        }
      ],
      "name": "supportsInterface",
      "outputs": [
        {
          "internalType": "bool",
          "name": "",
          "type": "bool"
        }
      ],
      "stateMutability": "view",
      "type": "function"
    },
    {
      "inputs": [],
      "name": "symbol",
      "outputs": [
        {
          "internalType": "string",
          "name": "",
          "type": "string"
        }
      ],
      "stateMutability": "view",
      "type": "function"
    },
    {
      "inputs": [
        {
          "internalType": "uint256",
          "name": "id",
          "type": "uint256"
        }
      ],
      "name": "tokenExists",
      "outputs": [
        {
          "internalType": "bool",
          "name": "",
          "type": "bool"
        }
      ],
      "stateMutability": "view",
      "type": "function"
    },
    {
      "inputs": [
        {
          "internalType": "address",
          "name": "tokenOwner",
          "type": "address"
        }
      ],
      "name": "tokenIdsOf",
      "outputs": [
        {
          "internalType": "bytes32[]",
          "name": "",
          "type": "bytes32[]"
        }
      ],
      "stateMutability": "view",
      "type": "function"
    },
    {
      "inputs": [
        {
          "internalType": "bytes32",
          "name": "tokenId",
          "type": "bytes32"
        }
      ],
      "name": "tokenOwnerOf",
      "outputs": [
        {
          "internalType": "address",
          "name": "",
          "type": "address"
        }
      ],
      "stateMutability": "view",
      "type": "function"
    },
    {
      "inputs": [],
      "name": "totalSupply",
      "outputs": [
        {
          "internalType": "uint256",
          "name": "",
          "type": "uint256"
        }
      ],
      "stateMutability": "view",
      "type": "function"
    },
    {
      "inputs": [
        {
          "internalType": "address",
          "name": "from",
          "type": "address"
        },
        {
          "internalType": "address",
          "name": "to",
          "type": "address"
        },
        {
          "internalType": "bytes32",
          "name": "tokenId",
          "type": "bytes32"
        },
        {
          "internalType": "bool",
          "name": "force",
          "type": "bool"
        },
        {
          "internalType": "bytes",
          "name": "data",
          "type": "bytes"
        }
      ],
      "name": "transfer",
      "outputs": [],
      "stateMutability": "nonpayable",
      "type": "function"
    },
    {
      "inputs": [
        {
          "internalType": "address[]",
          "name": "from",
          "type": "address[]"
        },
        {
          "internalType": "address[]",
          "name": "to",
          "type": "address[]"
        },
        {
          "internalType": "bytes32[]",
          "name": "tokenId",
          "type": "bytes32[]"
        },
        {
          "internalType": "bool[]",
          "name": "force",
          "type": "bool[]"
        },
        {
          "internalType": "bytes[]",
          "name": "data",
          "type": "bytes[]"
        }
      ],
      "name": "transferBatch",
      "outputs": [],
      "stateMutability": "nonpayable",
      "type": "function"
    },
    {
      "inputs": [
        {
          "internalType": "address",
          "name": "newOwner",
          "type": "address"
        }
      ],
      "name": "transferOwnership",
      "outputs": [],
      "stateMutability": "nonpayable",
      "type": "function"
    },
    {
      "inputs": [
        {
          "internalType": "bytes32",
          "name": "",
          "type": "bytes32"
        }
      ],
      "name": "upUsernames",
      "outputs": [
        {
          "internalType": "string",
          "name": "",
          "type": "string"
        }
      ],
      "stateMutability": "view",
      "type": "function"
    },
    {
      "inputs": [],
      "name": "updateCollectionMetadata",
      "outputs": [],
      "stateMutability": "nonpayable",
      "type": "function"
    },
    {
      "stateMutability": "payable",
      "type": "receive"
    }
  ],
  "transactionHash": "0x8bf8079dd8a63205b8d2f03547a0c0a8bec95635161a966f68824c4de2ac91da",
  "args": [
    "0x02224842340dA3392cae9df5cbA5D777C33Fe299"
  ],
  "numDeployments": 4,
  "solcInputHash": "7779037754e5e01ae859c53259197eb7",
  "bytecode": "0x6080604081815234620011f55781620066d080380380916200002282856200122c565b8339602093849181010312620011f557516001600160a01b03811692909190838303620011f5578151926200005784620011fa565b600c84526b4c756b736f4c6f6f6769657360a01b828501528251946200007d86620011fa565b60078652664c554b4c4f4f4760c81b838701526200009b33620014c8565b15620011e457620000ac90620014c8565b620000c0620000ba6200126c565b620012e1565b7fdeba1e292f8ba88238e10ab3c7f88bd4be4fac56cad5194b6ecceaf653468af19360009185835260018082528484209286519760018060401b0397888a1162000cd6578554958487811c97168015620011d9575b86881014620011c5578a601f978881116200117b575b505085878c1160011462001113579a80899a9b9c6200017b9a9162001107575b50600019600383901b1c191690861b1790555b885180600080516020620066b083398151915298899382620012b3565b0390a27f2f0a68ab07768e01943a599e73362a0e17a63a72e94dd2e384d2c1d4db93275690818752828452878720908051918a831162000dd85780548581811c91168015620010fc575b8782101462000db9579081888a949311620010a7575b5086938881116001146200105457806200021794958c9162000cea575b50600019600383901b1c191690871b1790555b895191829182620012b3565b0390a285516002838201528281526200023081620011fa565b7fe0261fa95db2eb3b5439bd033cda66d56b96f92f243a8228fd87550ed7bdfdb390818752828452878720908051918a831162000dd85780548581811c9116801562001049575b8782101462000db9579081888a94931162000ff4575b50869388811160011462000fa15780620002c794958c9162000cea5750600019600383901b1c191690871b179055895191829182620012b3565b0390a285518583820152828152620002df81620011fa565b7ff675e9361af1c1664c1868cfa3eb97672d6b1a513aa5b81dec34c9ee330e818d90818752828452878720908051918a831162000dd85780548581811c9116801562000f96575b8782101462000db9579081888a94931162000f41575b50869388811160011462000eee57806200037694958c9162000cea5750600019600383901b1c191690871b179055895191829182620012b3565b0390a267016345785d8a0000600c5562000393620000ba6200126c565b8551610e90908184820152838152620003ac81620011fa565b7fa23ea79c706be4641bfd97c9afb5b71a552c5bc320930dbe09b3530ed76dee0f90818852838552888820908051918b831162000eda5780548681811c9116801562000ecf575b8882101462000ebb579081898b94931162000e66575b50879389811160011462000df857806200044594958d9162000dec575b50600019600383901b1c191690881b1790555b8a5191829182620012b3565b0390a2865190838201528281526200045d81620011fa565b7fd28c95357cf4c94d638a4f572d5d3df8d7e1415c8b650e747a219c559d1435c890818752828452878720908051918a831162000dd85780548581811c9116801562000dcd575b8782101462000db9579081888a94931162000d64575b50869388811160011462000cf65780620004f494958c9162000cea5750600019600383901b1c191690871b179055895191829182620012b3565b0390a28551926101a084018481108982111762000cd65787528661016580865284808701967f3c73766720786d6c6e733d22687474703a2f2f7777772e77332e6f72672f323088528381017f30302f737667222077696474683d2234303022206865696768743d22343030229052606081017f2076696577426f783d223020302034303020343030223e3c72656374207769649052608081017f74683d2234303022206865696768743d22343030222066696c6c3d2223303030905260a081017f222f3e3c7465787420783d223230302220793d223138302220666f6e742d6661905260c081017f6d696c793d22417269616c2220666f6e742d73697a653d223430222066696c6c905260e081017f3d22236666662220746578742d616e63686f723d226d6964646c65223e4c756b9052610100928382017f736f4c6f6f676965733c2f746578743e3c7465787420783d223230302220793d9052610120988983017f223233302220666f6e742d66616d696c793d22417269616c2220666f6e742d73905261014083017f697a653d223230222066696c6c3d22233066302220746578742d616e63686f72905261016083017f3d226d6964646c65223e4d61747269782045646974696f6e3c2f746578743e3c905261018083016417b9bb339f60d91b90522082620006e6836200155e565b92620006f28362001740565b90620006fe906200155e565b926200070a9062001740565b87517f7b224c5350344d65746164617461223a7b226e616d65223a224c756b736f4c6f8482019081527f6f67696573222c226465736372697074696f6e223a224c756b736f4c6f6f6769998201999099527f657320617265204c554b534f205374616e64617264204c535038204e4654732060608201527f77697468206120736d696c65203a29204f6e6c792033373238204c756b736f4c60808201527f6f6f6769657320617661696c61626c65206f6e2061207072696365206375727660a08201527f6520696e6372656173696e6720302e322520776974682065616368206e65772060c08201527f6d696e742e2054686973204d61747269782045646974696f6e2066656174757260e08201527f657320616e696d61746564204d61747269782d7374796c652066616c6c696e67978101979097527f20636f646520626568696e642065616368204c6f6f6769652e222c00000000009b87019b909b527f226c696e6b73223a5b7b227469746c65223a2257656273697465222c2275726c61013b8701527f223a2268747470733a2f2f6c756b736f6c6f6f676965732e76657263656c2e6161015b8701527f7070227d2c7b227469746c65223a2254776974746572222c2275726c223a226861017b8701527f747470733a2f2f747769747465722e636f6d2f6c756b736f4c6f6f676965732261019b870152621f574b60ea1b6101bb8701527f22696d61676573223a5b5b7b227769647468223a3430302c22686569676874226101be8701527f3a3430302c2275726c223a22646174613a696d6167652f7376672b786d6c3b626101de87015265185cd94d8d0b60d21b6101fe8701528351959a8b969094610204919062000990908290848b019087016200128e565b8701016200099e906200150f565b818192519384910191620009b2926200128e565b65089f5f57574b60d21b91019081526b08985cdcd95d1cc88e96d74b60a21b60068201527f2269636f6e223a5b7b227769647468223a3430302c22686569676874223a343060128201527f302c2275726c223a22646174613a696d6167652f7376672b786d6c3b626173656032820152620d8d0b60ea1b605282015281519162000a45908390605584019087016200128e565b0160550162000a54906200150f565b81819251938491019162000a68926200128e565b0165227d7d5d7d7d60d01b8152036019198101865260060162000a8c90866200122c565b62000a97856200155e565b9088519586868101937f646174613a6170706c69636174696f6e2f6a736f6e3b6261736536342c00000085528051908189603d850192019162000ada926200128e565b810103601d81018852603d0162000af290886200122c565b519020908851958692650379abe3500160c51b8785015260288401525190816048840162000b20926200128e565b81010360288101855260480162000b3890856200122c565b7f9afb95cacc9f95858ec44aa8c3b685511002e30ae54415823f406128b85b238e95868152828452878120938551998a1162000cc25784548481811c9116801562000cb7575b8282101462000ca35780848c921162000c59575b505080928a1160011462000bef5750978092819262000bd29798999a9362000be3575b501b916000199060031b1c19161790555b845191829182620012b3565b0390a251614e089081620018a88239f35b86015192503862000bb5565b9891601f1983169985835280832092905b8b821062000c415750508262000bd29798999a1062000c27575b5050811b01905562000bc6565b85015160001960f88460031b161c19169055388062000c1a565b808684958294958b0151815501940192019062000c00565b86845284838520918482850160051c8401941062000c99575b0160051c019085905b82811062000c8d57508b915062000b92565b84815501859062000c7b565b9250819262000c72565b634e487b7160e01b83526022600452602483fd5b90607f169062000b7e565b634e487b7160e01b82526041600452602482fd5b634e487b7160e01b87526041600452602487fd5b905083015138620001f8565b818b52878b2094879190601f1982168d5b8b82821062000d495750509082620004f49798921062000d2f575b5050811b0190556200020b565b85015160001960f88460031b161c19169055388062000d22565b878401518a5598909401978d97508a94928101920162000d07565b90809293508a52868a208880860160051c82019289871062000daf575b9188918c969594930160051c01915b82811062000da0575050620004ba565b8c81558b955088910162000d90565b9250819262000d81565b634e487b7160e01b8a52602260045260248afd5b90607f1690620004a4565b634e487b7160e01b89526041600452602489fd5b90508301513862000426565b818c52888c2094889190601f1982168e5b8c82821062000e4b5750509082620004459798921062000e31575b5050811b01905562000439565b85015160001960f88460031b161c19169055388062000e24565b878401518a5598909401978e97508b94928101920162000e09565b90809293508b52878b208980860160051c8201928a871062000eb1575b9189918d969594930160051c01915b82811062000ea257505062000409565b8d81558c955089910162000e92565b9250819262000e83565b634e487b7160e01b8b52602260045260248bfd5b90607f1690620003f3565b634e487b7160e01b8a52604160045260248afd5b818b52878b2094879190601f1982168d5b8b82821062000f265750509082620003769798921062000d2f575050811b0190556200020b565b878401518a5598909401978d97508a94928101920162000eff565b90809293508a52868a208880860160051c82019289871062000f8c575b9188918c969594930160051c01915b82811062000f7d5750506200033c565b8c81558b955088910162000f6d565b9250819262000f5e565b90607f169062000326565b818b52878b2094879190601f1982168d5b8b82821062000fd95750509082620002c79798921062000d2f575050811b0190556200020b565b878401518a5598909401978d97508a94928101920162000fb2565b90809293508a52868a208880860160051c8201928987106200103f575b9188918c969594930160051c01915b828110620010305750506200028d565b8c81558b955088910162001020565b9250819262001011565b90607f169062000277565b818b52878b2094879190601f1982168d5b8b8282106200108c5750509082620002179798921062000d2f575050811b0190556200020b565b878401518a5598909401978d97508a94928101920162001065565b90809293508a52868a208880860160051c820192898710620010f2575b9188918c969594930160051c01915b828110620010e3575050620001db565b8c81558b9550889101620010d3565b92508192620010c4565b90607f1690620001c5565b9050830151386200014b565b81895286892090601f198d168a5b818110620011655750918d916200017b9b9c9d9e8994106200114b575b5050811b0190556200015e565b85015160001960f88460031b161c1916905538806200113e565b8583015184559288019291890191890162001121565b828a5288888b20918982850160051c84019410620011bb575b0160051c019086905b828110620011af57508c91506200012b565b8a81550186906200119d565b9250819262001194565b634e487b7160e01b88526022600452602488fd5b96607f169662000115565b82516306b620db60e21b8152600490fd5b600080fd5b604081019081106001600160401b038211176200121657604052565b634e487b7160e01b600052604160045260246000fd5b601f909101601f19168101906001600160401b038211908210176200121657604052565b6001600160401b0381116200121657601f01601f191660200190565b604051906200127b82620011fa565b60048252632936598960e21b6020830152565b60005b838110620012a25750506000910152565b818101518382015260200162001291565b60409160208252620012d581518092816020860152602086860191016200128e565b601f01601f1916010190565b7feafec4d89fa9619884b60000a4d96624a38f7ac2d8d9a604ecf07c12c77e480c6000818152600160208181528451939492937f072b2e8bf50bc459a586397c8474185d5dad5ea3d82533658159d53147c7bb399290916001600160401b038311620014b45783548281811c91168015620014a9575b828210146200149557601f81116200144a575b5080601f8411600114620013cb575091808092620013ba969594600080516020620066b08339815191529893620013bf575b501b916000199060031b1c19161790555b60405191829182620012b3565b0390a2565b8601519250386200139c565b848752808720959694959294601f198516915b82821062001432575050918391620013ba9694600080516020620066b08339815191529896941062001418575b5050811b019055620013ad565b85015160001960f88460031b161c1916905538806200140b565b808785968294968c01518155019501930190620013de565b848752818720601f850160051c8101918386106200148a575b601f0160051c019083905b8281106200147e5750506200136a565b8881550183906200146e565b909150819062001463565b634e487b7160e01b87526022600452602487fd5b90607f169062001357565b634e487b7160e01b86526041600452602486fd5b600080546001600160a01b039283166001600160a01b03198216811783559216907f8be0079c531659141344cd1fd0a4f28419497f9722a3daafe3b4186f6b6457e09080a3565b7f222c22766572696669636174696f6e223a7b226d6574686f64223a226b65636381527f616b32353628627974657329222c2264617461223a2200000000000000000000602082015260360190565b805115620016f35760405190606082016001600160401b038111838210176200121657604052604082527f4142434445464748494a4b4c4d4e4f505152535455565758595a61626364656660208301527f6768696a6b6c6d6e6f707172737475767778797a303132333435363738392b2f60408301528051600291828201809211620016dd5760039182900480841b94906001600160fe1b03811603620016dd5792620016286200160f8662001250565b956200161f60405197886200122c565b80875262001250565b6020860190601f190136823793829183518401906020820192835194600085525b8381106200168b57505050505251068060011462001678576002146200166d575090565b603d90600019015390565b50603d9081600019820153600119015390565b87600491999293949901918251600190603f9082828260121c16880101518453828282600c1c16880101518385015382828260061c168801015188850153168501015189820153019792919062001649565b634e487b7160e01b600052601160045260246000fd5b50604051602081016001600160401b0381118282101762001216576040526000815290565b9081518110156200172a570160200190565b634e487b7160e01b600052603260045260246000fd5b604051906200174f82620011fa565b601082526f181899199a1a9b1b9c1cb0b131b232b360811b60208084019190915260405192608084016001600160401b0381118582101762001216576040526042845281840160603682378451156200172a57603090538351926001938410156200172a576078602186015360005b838110620017ce57505050505090565b7fff0000000000000000000000000000000000000000000000000000000000000082821a6004826200180683831c60ff168862001718565b51169284891b9260029486850486148715171562001892578486018096116200189257600f600393928d62001844896200184d9560001a9262001718565b53168962001718565b511692018093116200187d57506200186a9060001a918862001718565b536000198114620016dd578401620017be565b601190634e487b7160e01b6000525260246000fd5b601184634e487b7160e01b6000525260246000fdfe60806040526004361015610033575b3615610026575b61001e3661201a565b602081519101f35b61002e612066565b610015565b60003560e01c8062923f9e1461033e578063017c96b81461033557806301ffc9a71461032c57806306fdde031461032357806316e023b31461031a57806318160ddd1461031157806319c9d79b146103085780631d26fce6146102ff5780631ead90b0146102f6578063217b2270146102ed5780632a3654a4146102e4578063472dfcfb146102db578063475a590d146102d257806349a6078d146102c9578063511b6952146102c057806354f6127f146102b75780636643a686146102ae57806366d003ac146102a55780636963d4381461029c57806370a0823114610293578063715018a61461028a5780637165485d14610281578063791790c9146102785780637e87632c1461026f5780637f23690c1461026657806386a10ddd1461025d5780638da5cb5b1461025457806395d89b411461024b5780639790242114610242578063a035b1fe14610239578063a3b261f214610230578063a4d66daf14610227578063be9f0e6f1461021e578063d6c1407c14610215578063d91a61d01461020c578063db8c966314610203578063dedff9c6146101fa578063eb93406b146101f15763f2fde38b0361000e576101ec611ec6565b61000e565b506101ec611d94565b506101ec611d0c565b506101ec611c32565b506101ec611701565b506101ec6116ba565b506101ec6115ca565b506101ec6115ac565b506101ec611531565b506101ec611512565b506101ec61144d565b506101ec6113ef565b506101ec6113c5565b506101ec61126e565b506101ec611217565b506101ec61117d565b506101ec611003565b506101ec610fe5565b506101ec610f98565b506101ec610f5d565b506101ec610ef7565b506101ec610ec7565b506101ec610e9a565b506101ec610e7a565b506101ec610e12565b506101ec610d51565b506101ec610be8565b506101ec610bb1565b506101ec610a92565b506101ec610a4b565b506101ec610a00565b506101ec610936565b506101ec6106f2565b506101ec6105a3565b506101ec610580565b506101ec610507565b506101ec6103e2565b506101ec6103b5565b503461037057602036600319011261037057600435600052600a602052602060ff604060002054166040519015158152f35b600080fd5b6000526007602052604060002090565b6000526008602052604060002090565b6000526009602052604060002090565b600052600b602052604060002090565b50346103705760203660031901126103705760043560005260096020526020604060002054604051908152f35b5034610370576020366003190112610370576004356001600160e01b03198116908181036103705761043791631d138b8360e11b8114918215918261043b575b50506040519115158252509081906020820190565b0390f35b9091610463575b508115610453575b50388080610422565b61045d9150613682565b3861044a565b90915063a918fa6b60e01b8114908115610480575b509038610442565b6318a6a9a560e21b81149150811561049a575b5038610478565b6301ffc9a760e01b14905038610493565b60005b8381106104be5750506000910152565b81810151838201526020016104ae565b906020916104e7815180928185528580860191016104ab565b601f01601f1916010190565b9060206105049281815201906104ce565b90565b503461037057600036600319011261037057600080516020614c9383398151915260005260016020526040516104379061056c81610565817f2a367ae1ac46d529739aa27ac74856f860e70af05d3642d18ba60fd5d32a069a610afe565b038261066e565b6040519182916020835260208301906104ce565b50346103705760403660031901126103705761043761056c6024356004356138a0565b5034610370576000366003190112610370576020600654604051908152f35b50634e487b7160e01b600052604160045260246000fd5b6101a081019081106001600160401b038211176105f557604052565b6105fd6105c2565b604052565b602081019081106001600160401b038211176105f557604052565b604081019081106001600160401b038211176105f557604052565b606081019081106001600160401b038211176105f557604052565b608081019081106001600160401b038211176105f557604052565b601f909101601f19168101906001600160401b038211908210176105f557604052565b6020906001600160401b0381116106ae575b601f01601f19160190565b6106b66105c2565b6106a3565b9291926106c782610691565b916106d5604051938461066e565b829481845281830111610370578281602093846000960137010152565b5034610370576040366003190112610370576001600160401b036004356024358281116103705736602382011215610370576107389036906024816004013591016106bb565b9161075f6107458361252e565b6001600160a01b0381163314908115610840575b50613550565b6000918252602090600b825260408320918451918211610833575b61078e826107888554610ac4565b856123f3565b80601f83116001146107c857508394829394926107bd575b50508160011b916000199060031b1c191617905580f35b0151905038806107a6565b90601f198316956107de85600052602060002090565b9286905b88821061081b57505083600195969710610802575b505050811b01905580f35b015160001960f88460031b161c191690553880806107f7565b806001859682949686015181550195019301906107e2565b61083b6105c2565b61077a565b61084a91506135a8565b38610759565b6020906001600160401b038111610869575b60051b0190565b6108716105c2565b610862565b81601f820112156103705780359161088d83610850565b9261089b604051948561066e565b808452602092838086019260051b820101928311610370578301905b8282106108c5575050505090565b813581529083019083016108b7565b602080820190808352835180925260408301928160408460051b8301019501936000915b8483106109085750505050505090565b9091929394958480610926600193603f198682030187528a516104ce565b98019301930191949392906108f8565b5034610370576040366003190112610370576001600160401b0360043581811161037057610968903690600401610876565b9060243590811161037057610981903690600401610876565b9080518251036109ee576109958151611f97565b9160005b82518110156109e057806109c46109b260019386611ff8565b516109bd8386611ff8565b51906138a0565b6109ce8287611ff8565b526109d98186611ff8565b5001610999565b6040518061043786826108d4565b6040516317d38eff60e11b8152600490fd5b5034610370576020366003190112610370576004356000526007602052602060406000205460e81b6040519062ffffff60e81b168152f35b6001600160a01b03909116815260200190565b5034610370576020366003190112610370576020610a6a60043561252e565b6040516001600160a01b039091168152f35b600435906001600160a01b038216820361037057565b5034610370576040366003190112610370576020610aba610ab1610a7c565b602435906126d1565b6040519015158152f35b90600182811c92168015610af4575b6020831014610ade57565b634e487b7160e01b600052602260045260246000fd5b91607f1691610ad3565b9060009291805491610b0f83610ac4565b918282526001938481169081600014610b715750600114610b31575b50505050565b90919394506000526020928360002092846000945b838610610b5d575050505001019038808080610b2b565b805485870183015294019385908201610b46565b9294505050602093945060ff191683830152151560051b01019038808080610b2b565b90610baf610ba89260405193848092610afe565b038361066e565b565b503461037057602036600319011261037057600435600052600b60205261043761056561056c604060002060405192838092610afe565b503461037057602036600319011261037057610437610c05610a7c565b610c18610c13600654613374565b600655565b610d4160065491610c43610c3684600052600a602052604060002090565b805460ff19166001179055565b610d17610d12610cdf610c55436130f0565b40604051610c7d81610c6f60208201948930918d886133ba565b03601f19810183528261066e565b519020610ccd600082901a60f81b6001600160f81b031916600183901a60f01b60ff60f01b1617600283901a60e81b60ff60e81b1617610cbc89610375565b9060e81c62ffffff19825416179055565b610ceb610ce6610cdf8360031a6132fa565b60ff900490565b613382565b610cf488610385565b55610d08610d0188610385565b5460021c90565b9060041a90613361565b613390565b610d2084610395565b55610d32610d2d846103a5565b6133e7565b82610d3b6120db565b9161348a565b6040519081529081906020820190565b50346103705760208060031936011261037057600435610d70816129e8565b15610dd55760005260058152610d896040600020613224565b906040519181839283018184528251809152816040850193019160005b828110610db557505050500390f35b83516001600160a01b031685528695509381019392810192600101610da6565b60249060405190635747cd1b60e11b82526004820152fd5b8015150361037057565b9080601f8301121561037057816020610504933591016106bb565b50346103705760a036600319011261037057610e2c610a7c565b6024356001600160a01b038116810361037057606435610e4b81610ded565b608435926001600160401b03841161037057610e6e610e78943690600401610df7565b926044359161270c565b005b50346103705760203660031901126103705761043761056c600435611f78565b50346103705760203660031901126103705760043560005260086020526020604060002054604051908152f35b503461037057600036600319011261037057602060405173a81a6a910fed20374361b35c451a4a44f86ced468152f35b5034610370576020366003190112610370576001600160401b036004358181116103705736602382011215610370578060040135918211610370573660248360051b8301011161037057610437916024610f5192016125a0565b604051918291826108d4565b5034610370576020366003190112610370576001600160a01b03610f7f610a7c565b1660005260046020526020604060002054604051908152f35b503461037057600080600319360112610fe257610fb3612f52565b80546001600160a01b03198116825581906001600160a01b0316600080516020614cf38339815191528280a380f35b80fd5b50346103705760003660031901126103705760206040516103ea8152f35b5034610370576020366003190112610370576020610aba611022610a7c565b6135a8565b81601f820112156103705780359161103e83610850565b9261104c604051948561066e565b808452602092838086019260051b820101928311610370578301905b828210611076575050505090565b81356001600160a01b0381168103610370578152908301908301611068565b81601f82011215610370578035916110ac83610850565b926110ba604051948561066e565b808452602092838086019260051b820101928311610370578301905b8282106110e4575050505090565b83809183356110f281610ded565b8152019101906110d6565b9080601f830112156103705781359061111582610850565b92611123604051948561066e565b828452602092838086019160051b8301019280841161037057848301915b8483106111515750505050505090565b82356001600160401b03811161037057869161117284848094890101610df7565b815201920191611141565b50346103705760a03660031901126103705760046001600160401b038135818111610370576111af9036908401611027565b90602435818111610370576111c79036908501611027565b604435828111610370576111de9036908601610876565b90606435838111610370576111f69036908701611095565b9260843590811161037057610e7895611211913691016110fd565b93612895565b506040366003190112610370576024356001600160401b03811161037057611243903690600401610df7565b61124b612f52565b3461125c57610e78906004356122ba565b60405163f36ba73760e01b8152600490fd5b503461037057606036600319011261037057611288610a7c565b602435906044356001600160401b038111610370576112ab903690600401610df7565b906112b58361252e565b6001600160a01b03818116913383036113a657508216801561139457808214611382576112fc6112f8846112f3886000526005602052604060002090565b613273565b1590565b61136257938061135d92610e78967f1b1b58aa2ec0cec2228b2d37124556d41f5a1f7b12f089171f896cc236671215604051806113398a826104f3565b0390a461134f604051948592336020850161267b565b03601f19810184528361066e565b612d8b565b6040516314ec4d6d60e31b81528061137e878660048401612660565b0390fd5b6040516344fed6b160e11b8152600490fd5b604051639577b8b360e01b8152600490fd5b8561137e604051928392632d938f5160e11b845233916004850161263d565b5034610370576000366003190112610370576000546040516001600160a01b039091168152602090f35b503461037057600036600319011261037057600080516020614d1383398151915260005260016020526040516104379061056c81610565817f83b322886c7b7e25779e5d38e06e005c9e7aba1e1267ce9210cf24e31833535a610afe565b5060403660031901126103705760046001600160401b0381358181116103705761147a9036908401610876565b906024359081116103705761149290369084016110fd565b9161149b612f52565b346115035781518351036114f4578151156114e5575060005b8151811015610e7857806114df6114cd60019385611ff8565b516114d88387611ff8565b51906122ba565b016114b4565b6040516397da5f9560e01b8152fd5b604051633bcc897960e01b8152fd5b60405163f36ba73760e01b8152fd5b5034610370576000366003190112610370576020600c54604051908152f35b503461037057602080600319360112610370576001600160a01b03611554610a7c565b16600052600481526115696040600020613224565b906040519181839283018184528251809152816040850193019160005b82811061159557505050500390f35b835185528695509381019392810192600101611586565b5034610370576000366003190112610370576020604051610e908152f35b50346103705760603660031901126103705760046001600160401b038135818111610370576115fc9036908401610876565b602435828111610370576116139036908501610876565b916044359081116103705761162b90369085016110fd565b92611634612f52565b81518351809114908115916116ae575b5061169f57815115611690575060005b8151811015610e78578061168a61166d60019385611ff8565b516116788387611ff8565b516116838489611ff8565b5191612bb8565b01611654565b6040516380c9830560e01b8152fd5b6040516317d38eff60e11b8152fd5b90508451141538611644565b5034610370576060366003190112610370576044356001600160401b038111610370576116ee610e78913690600401610df7565b6116f6612f52565b602435600435612bb8565b503461037057600080600319360112610fe257805461172a906001600160a01b03163314613550565b604051611736816105d9565b610165808252600080516020614c7383398151915260208301908152600080516020614d3383398151915260408401527f2076696577426f783d223020302034303020343030223e3c726563742077696460608401527f74683d2234303022206865696768743d22343030222066696c6c3d222330303060808401527f222f3e3c7465787420783d223230302220793d223138302220666f6e742d666160a08401527f6d696c793d22417269616c2220666f6e742d73697a653d223430222066696c6c60c08401527f3d22236666662220746578742d616e63686f723d226d6964646c65223e4c756b60e08401527f736f4c6f6f676965733c2f746578743e3c7465787420783d223230302220793d6101008401527f223233302220666f6e742d66616d696c793d22417269616c2220666f6e742d736101208401527f697a653d223230222066696c6c3d22233066302220746578742d616e63686f726101408401527f3d226d6964646c65223e4d61747269782045646974696f6e3c2f746578743e3c6101608401526417b9bb339f60d91b61018084015220906118da81613e33565b906118e4836140c9565b906118ee90613e33565b926118f8906140c9565b6040519384926020840194611a618661011b907f7b224c5350344d65746164617461223a7b226e616d65223a224c756b736f4c6f81527f6f67696573222c226465736372697074696f6e223a224c756b736f4c6f6f676960208201527f657320617265204c554b534f205374616e64617264204c535038204e4654732060408201527f77697468206120736d696c65203a29204f6e6c792033373238204c756b736f4c60608201527f6f6f6769657320617661696c61626c65206f6e2061207072696365206375727660808201527f6520696e6372656173696e6720302e322520776974682065616368206e65772060a08201527f6d696e742e2054686973204d61747269782045646974696f6e2066656174757260c08201527f657320616e696d61746564204d61747269782d7374796c652066616c6c696e6760e08201527a0818dbd9194818995a1a5b9908195858da08131bdbd9da594b888b602a1b6101008201520190565b7f226c696e6b73223a5b7b227469746c65223a2257656273697465222c2275726c81527f223a2268747470733a2f2f6c756b736f6c6f6f676965732e76657263656c2e6160208201527f7070227d2c7b227469746c65223a2254776974746572222c2275726c223a226860408201527f747470733a2f2f747769747465722e636f6d2f6c756b736f4c6f6f67696573226060820152621f574b60ea1b6080820152608301611b0e9061374e565b611b17916136f8565b611b20906137ac565b611b29916136f8565b65089f5f57574b60d21b81526006016b08985cdcd95d1cc88e96d74b60a21b8152600c017f2269636f6e223a5b7b227769647468223a3430302c22686569676874223a343081527f302c2275726c223a22646174613a696d6167652f7376672b786d6c3b626173656020820152620d8d0b60ea1b6040820152604301611bae916136f8565b611bb7906137ac565b611bc0916136f8565b65227d7d5d7d7d60d01b81526006010391601f19928381018252611be4908261066e565b611bed81613e33565b92604051809460208201611c0090613831565b611c09916136f8565b039081018452611c19908461066e565b51902090611c269161385a565b611c2f9061227c565b80f35b503461037057608036600319011261037057611c4c610a7c565b60243560443591611c5c83610ded565b6064356001600160401b03811161037057611c7b903690600401610df7565b611c848361252e565b936001600160a01b038086169033829003611cd5575b8416908115611394571461138257611cb58282868887612965565b611cbb57005b610e789361134f61135d92604051958693602085016126a6565b8481163314611c9a5760405163760b5acd60e01b81523360048201526001600160a01b038816602482015260448101879052606490fd5b5034610370576020366003190112610370576004356001600160401b03811161037057611d3d903690600401610876565b611d478151611f97565b9060005b8151811015611d865780611d6a611d6460019385611ff8565b51611f78565b611d748286611ff8565b52611d7f8185611ff8565b5001611d4b565b6040518061043785826108d4565b50600080600319360112610fe25761043790611db5610e9060065410613286565b611ddf611dda611dd2600c54611dcd813410156132c1565b61330b565b6103e8900490565b600c55565b611ded610c13600654613374565b610d4160065491611e0b610c3684600052600a602052604060002090565b611e75610d12610cdf611e1d436130f0565b40604051611e3881610c6f6020820194309033908d886133ba565b519020610ccd81861a60f81b6001600160f81b031916600183901a60f01b60ff60f01b1617600283901a60e81b60ff60e81b1617610cbc89610375565b611e7e84610395565b55611e8b610d2d846103a5565b611e9d611e966120db565b843361348a565b8080803473a81a6a910fed20374361b35c451a4a44f86ced465af1611ec06120ee565b50613431565b503461037057602036600319011261037057611ee0610a7c565b611ee8612f52565b6001600160a01b039081168015611f2457600080546001600160a01b0319811683178255909216600080516020614cf38339815191528380a380f35b60405162461bcd60e51b815260206004820152602660248201527f4f776e61626c653a206e6577206f776e657220697320746865207a65726f206160448201526564647265737360d01b6064820152608490fd5b6000526001602052610565610504604060002060405192838092610afe565b90611fa182610850565b611fae604051918261066e565b8281528092611fbf601f1991610850565b019060005b828110611fd057505050565b806060602080938501015201611fc4565b50634e487b7160e01b600052603260045260246000fd5b602091815181101561200d575b60051b010190565b612015611fe1565b612005565b6004361061202b576105049061211e565b6044604051809263e5099ee360e01b825260206004830152806024830152806000848401376000828201840152601f01601f19168101030190fd5b50341561207f576040516330fa4a2160e11b8152600490fd5b606460405163e5099ee360e01b8152602060048201526004602482015260006044820152fd5b908092918237016000815290565b9060349391816000823760609390931b6001600160601b031916920191825260148201520190565b604051906120e882610602565b60008252565b3d15612119573d906120ff82610691565b9161210d604051938461066e565b82523d6000602084013e565b606090565b60609063ffffffff60e01b600035169161216e612169604051696773c5a04a6d4300884b60b11b60208201526000602a82015285602c820152602081526121648161061d565b612259565b611f78565b80516014811415908161221a575b506121f55761218a90612224565b901c9182156121d1575060009182916040516121b281610c6f602082019434903390876120b3565b519134905af16121c06120ee565b90156121c95790565b602081519101fd5b60405163bb370b2b60e01b81526001600160e01b0319919091166004820152602490fd5b6040516342bfe79f60e01b81526020600482015290819061137e9060248301906104ce565b905015153861217c565b80516020909101516001600160601b031980821693929091906014811061224a57505050565b60140360031b82901b16169150565b60208151910151906020811061226d575090565b6000199060200360031b1b1690565b600080516020614db38339815191526122b5600080516020614cd38339815191529283600052600160205261056c816040600020612438565b0390a2565b907ff675e9361af1c1664c1868cfa3eb97672d6b1a513aa5b81dec34c9ee330e818d82146123a557600080516020614c938339815191528203612309576040516385c169bd60e01b8152600490fd5b600080516020614d13833981519152820361233057604051630eceab6760e31b8152600490fd5b7fe0261fa95db2eb3b5439bd033cda66d56b96f92f243a8228fd87550ed7bdfdb3820361236957604051634ef6d7fb60e01b8152600490fd5b6122b581612399600080516020614db383398151915293612394866000526001602052604060002090565b612438565b604051918291826104f3565b604051631b32400560e11b8152600490fd5b9060031b600019811b9283911b169119161790565b916123d89183546123b7565b9055565b8181106123e7575050565b600081556001016123dc565b9190601f811161240257505050565b610baf926000526020600020906020601f840160051c8301931061242e575b601f0160051c01906123dc565b9091508190612421565b81519192916001600160401b038111612507575b6124608161245a8454610ac4565b846123f3565b602080601f831160011461249c575081929394600092612491575b50508160011b916000199060031b1c1916179055565b01519050388061247b565b90601f198316956124b285600052602060002090565b926000905b8882106124ef575050836001959697106124d6575b505050811b019055565b015160001960f88460031b161c191690553880806124cc565b806001859682949686015181550195019301906124b7565b61250f6105c2565b61244c565b6001600160a01b0316600090815260046020526040902090565b6000818152600360205260409020546001600160a01b0316908115610dd5575090565b9190811015612593575b60051b81013590601e19813603018212156103705701803591906001600160401b038311610370576020018236038113610370579190565b61259b611fe1565b61255b565b91906125ab81611f97565b92600091825b8181106125be5750505050565b83806125cb838587612551565b604093916125dd8551809381936120a5565b0390305af4906125eb6120ee565b91156126125750906001916126008289611ff8565b5261260b8188611ff8565b50016125b1565b81519192911561262457825160208401fd5b5163234eb81960e01b8152600481019190915260249150fd5b6001600160a01b0391821681526020810192909252909116604082015260600190565b6001600160a01b039091168152602081019190915260400190565b610504939260809260018060a01b0316825260208201526001604082015281606082015201906104ce565b610504939260809260018060a01b0316825260208201526000604082015281606082015201906104ce565b6001600160a01b03806126e38461252e565b1691169081149182156126f557505090565b6105049250600052600560205260406000206130c4565b9092939161271a81336126d1565b15612877576127288161252e565b6001600160a01b03818116918482169182840361285a57808816938415612848576127528661252e565b918216036128185750509261280e8380610baf99979461134f999761277a6128139887612aca565b61278c8361278788612514565b613157565b5061279f8361279a8b612514565b61305f565b506127d7896127b8856000526003602052604060002090565b80546001600160a01b0319166001600160a01b03909216919091179055565b604051600080516020614d7383398151915290806127f78a8e3384612a2e565b0390a4604051978894859288863360208701612a90565b612e36565b612ed2565b604051635a9c31d360e01b8152600481018690526001600160a01b03928316602482015291166044820152606490fd5b6040516324ecef4d60e01b8152600490fd5b604051632d938f5160e11b81528061137e8888866004850161263d565b60449060405190631294d2a960e01b82526004820152336024820152fd5b94939091928551938351851480159061295a575b801561294f575b8015612944575b6129325760005b8581106128cf575050505050509050565b8061292c6128ef6128e26001948c611ff8565b516001600160a01b031690565b6128fc6128e2848a611ff8565b6129068487611ff8565b5161291a612914868a611ff8565b51151590565b91612925868b611ff8565b519361270c565b016128be565b6040516393a8311960e01b8152600490fd5b5082518514156128b7565b5081518514156128b0565b5080518514156128a9565b91939284600052600560205260406000209260018060a01b039061298c8282168096613157565b156129c95750906129c4600080516020614d5383398151915293926040519384931515845260406020850152169560408301906104ce565b0390a4565b6040516312a8c6a360e21b815290819061137e90899060048401612660565b6000908152600360205260409020546001600160a01b0316151590565b6001600160a01b03909116815260016020820152606060408201819052610504929101906104ce565b6001600160a01b0390911681529015156020820152606060408201819052610504929101906104ce565b6001600160a01b0391821681526000602082015291166040820152606081019190915260a060808201819052610504929101906104ce565b6001600160a01b03918216815291811660208301529091166040820152606081019190915260a060808201819052610504929101906104ce565b9060009080825260059160209383855260409182812094855495825b878110612af857505050505050505050565b815415612b8e575b8184528884205486516001600160a01b0391821691612b1e82610602565b868252898752858c52612b33838a8920613157565b15612b735760019392600080516020614d538339815191528d89612b6a8e968e968e888051968796875286015216968301906104ce565b0390a401612ae6565b88516312a8c6a360e21b81528061137e8c8660048401612660565b612b96611fe1565b612b00565b9190604051926020840152604083015260408252610baf82610638565b9091612bc48383612b9b565b805160208092012060005260019081815260406000209183519160018060401b038311612cdc575b612c0083612bfa8654610ac4565b866123f3565b80601f8411600114612c5a5750918080612c4a9593600080516020614c538339815191529795600093612c4f575b501b916000199060031b1c1916179055604051918291826104f3565b0390a3565b860151925038612c2e565b90601f939293198316612c7286600052602060002090565b926000905b828210612cc5575050918391612c4a9694600080516020614c5383398151915298969410612cac575b5050811b019055612399565b85015160001960f88460031b161c191690553880612ca0565b808785968294968c01518155019501930190612c77565b612ce46105c2565b612bec565b602081830312610370578051906001600160401b038211610370570181601f82011215610370578051612d1b81610691565b92612d29604051948561066e565b818452602082840101116103705761050491602080850191016104ab565b906040610504927f0b084a55ebf70fd3c06fd755269dac2212c4d3f0f4d09079780bfa50c1b2984d815281602082015201906104ce565b506040513d6000823e3d90fd5b612d9481612faa565b612d9c575050565b612def600092918392604051948580948193631aed5a8560e21b83527f8a1c15a8799f71b547e08e2bcb2e85257e81b0a07eee2ce6712549eef1f0097060048401526040602484015260448301906104ce565b03926001600160a01b03165af18015612e29575b612e0a5750565b612e26903d806000833e612e1e818361066e565b810190612ce9565b50565b612e31612d7e565b612e03565b612e3f81612faa565b612e47575050565b612def600092918392604051948580948193631aed5a8560e21b83527fb23eae7e6d1564b295b4c3e3be402d9a2f0776c57bdf365903496f6fa481ab0060048401526040602484015260448301906104ce565b612ea381612faa565b15612ece57604051631aed5a8560e21b8152916000918391829084908290612def9060048301612d47565b5050565b9190612edd83612faa565b15612f075750612def6000928392604051948580948193631aed5a8560e21b835260048301612d47565b905015612f115750565b803b15612f3557604051634349776d60e01b815290819061137e9060048301610a38565b604051630317313760e01b815290819061137e9060048301610a38565b6000546001600160a01b03163303612f6657565b606460405162461bcd60e51b815260206004820152602060248201527f4f776e61626c653a2063616c6c6572206973206e6f7420746865206f776e65726044820152fd5b6000602091604051838101906301ffc9a760e01b8252631aed5a8560e21b602482015260248152612fda81610638565b5191617530fa6000513d82612ffb575b5081612ff4575090565b9050151590565b60201115915038612fea565b600090602092604051848101916301ffc9a760e01b835263ffffffff60e01b16602482015260248152612fda81610638565b8054821015613052575b60005260206000200190600090565b61305a611fe1565b613043565b61306982826130c4565b6130bd578082613099613090600194548560401b8110156130b0575b858101855584613039565b819391546123b7565b905580549260005201602052604060002055600190565b6130b86105c2565b613085565b5050600090565b60019160005201602052604060002054151590565b50634e487b7160e01b600052601160045260246000fd5b6000198101919082116130ff57565b610baf6130d9565b9061032a9182039182116130ff57565b805490811561314157600019918201916131318383613039565b909182549160031b1b1916905555565b634e487b7160e01b600052603160045260246000fd5b600181019180600052826020526040600020549283151560001461321b576131a96131b893600095861980820182811161320e575b8354918201918211613201575b8082036131be575b505050613117565b90600052602052604060002090565b55600190565b6131e86131e2916131d26131f89487613039565b90549060031b1c92839187613039565b906123cc565b8590600052602052604060002090565b553880806131a1565b6132096130d9565b613199565b6132166130d9565b61318c565b50505050600090565b9060405191828154918282526020928383019160005283600020936000905b82821061325957505050610baf9250038361066e565b855484526001958601958895509381019390910190613243565b610504916001600160a01b03169061305f565b1561328d57565b60405162461bcd60e51b815260206004820152600c60248201526b444f4e45204d494e54494e4760a01b6044820152606490fd5b156132c857565b60405162461bcd60e51b815260206004820152600a60248201526909c9ea8408a9c9eaa8e960b31b6044820152606490fd5b90816037029160378304036130ff57565b906103ea918281029281840414901517156130ff57565b600281901b91906001600160fe1b038116036130ff57565b908160011b91808304600214901517156130ff57565b90816009029160098304036130ff57565b818102929181159184041417156130ff57565b90600182018092116130ff57565b60230190816023116130ff57565b60b401908160b4116130ff57565b90600282018092116130ff57565b60020190816002116130ff57565b9291606894918452602084015260018060601b0319809260601b16604084015260601b1660548201520190565b6133f18154610ac4565b601f811161340f575b506012681b1d5adcdbdb985d5d60ba1b019055565b61342b9082600052601f6020600020910160051c8101906123dc565b386133fa565b1561343857565b60405162461bcd60e51b815260206004820152600e60248201526d18dbdd5b19081b9bdd081cd95b9960921b6044820152606490fd5b600190600019811461347e570190565b6134866130d9565b0190565b909291906001600160a01b0381168015612848576134a7856129e8565b613537576134b4856129e8565b6135375784610baf9495613532926134d56134d060025461346e565b600255565b6134e28261279a87612514565b506134fb856127b8846000526003602052604060002090565b6000600080516020614d738339815191526040518061351b8a3383612a05565b0390a461134f604051948592853360208601612a58565b612e9a565b6040516334c7b51160e01b815260048101869052602490fd5b1561355757565b60405162461bcd60e51b81526020600482015260146024820152731314d40e0e88139bdd08185d5d1a1bdc9a5e995960621b6044820152606490fd5b90816020910312610370575161050481610ded565b6040516301ffc9a760e01b808252633a271fff60e01b60048301526001600160a01b0392909216916020918281602481875afa60009181613663575b506135f25750505050600090565b6135fe57505050600090565b604051908152631aed5a8560e21b6004820152918190839060249082905afa918291600093613634575b50506105045750600090565b613654929350803d1061365c575b61364c818361066e565b810190613593565b903880613628565b503d613642565b61367b919250843d861161365c5761364c818361066e565b90386135e4565b6136bf612169604051696773c5a04a6d4300884b60b11b60208201526000602a8201526301ffc9a760e01b602c820152602081526121648161061d565b8051601481141590816136ee575b506121f5576136db90612224565b60601c9081156130bd5761050491613007565b90501515386136cd565b90613486602092828151948592016104ab565b604051906137188261061d565b600582526433b932b2b760d91b6020830152565b604051906137398261061d565b6006825265707572706c6560d01b6020830152565b7f22696d61676573223a5b5b7b227769647468223a3430302c226865696768742281527f3a3430302c2275726c223a22646174613a696d6167652f7376672b786d6c3b62602082015265185cd94d8d0b60d21b604082015260460190565b7f222c22766572696669636174696f6e223a7b226d6574686f64223a226b65636381527530b5991a9b14313cba32b9949116113230ba30911d1160511b602082015260360190565b72088b089d1e5c19488e889cdd1c9a5b99c89f4b606a1b815260130190565b710b089d1e5c19488e889b9d5b58995c889f4b60721b815260120190565b7f646174613a6170706c69636174696f6e2f6a736f6e3b6261736536342c0000008152601d0190565b6048610baf91939293604051948591650379abe3500160c51b6020840152602883015261389081518092602086860191016104ab565b810103602881018552018361066e565b90600080516020614cd38339815191528103613d6e57506138c08161252e565b6138c9906135a8565b906138d3816103a5565b6138dc90610b94565b6138e582610375565b5460e81b926138f383610385565b54906138fe84610395565b54946040519282856020988987018761392a8b836026918152650dac2e8e4d2f60d31b60208201520190565b0397601f1998898101825261393f908261066e565b5190209361394c95614344565b8051868201209061395c90613e33565b9361396686613f1a565b95604051809789820161398890600890674c6f6f676965202360c01b81520190565b613991916136f8565b0385810188526139a1908861066e565b6139aa81610375565b5460e81b6139b790614243565b936139c182610385565b546139cb9061419b565b946139d583610395565b546139df9061419b565b6040519687928c8401613a1390601a907954686973204c6f6f6769652069732074686520636f6c6f72202360301b81520190565b613a1c916136f8565b750103bb4ba3410309031b43ab13134b732b9b99037b3160551b8152601601613a44916136f8565b7401030b7321036b7baba34103632b733ba341037b31605d1b8152601501613a6b916136f8565b6221212160e81b8152600301038681018652613a87908661066e565b15613d6357613a9d613a9761372c565b936140c9565b90613aa781610375565b5460e81b613ab490614243565b613abd82610385565b54613ac79061419b565b91613ad190610395565b54613adb9061419b565b926040519889978c89019b613b108d601990783d912629a81a26b2ba30b230ba30911d3d913730b6b2911d1160391b81520190565b613b19916136f8565b701116113232b9b1b934b83a34b7b7111d1160791b8152601101613b3c916136f8565b7f222c226c696e6b73223a5b7b227469746c65223a2257656273697465222c227581527f726c223a2268747470733a2f2f6c756b736f6c6f6f676965732e76657263656c6020820152670b985c1c089f574b60c21b6040820152604801613ba29061374e565b613bab916136f8565b613bb4906137ac565b613bbd916136f8565b65089f5f57574b60d21b81526006016d2261747472696275746573223a5b60901b8152600e01787b226b6579223a22636f6c6f72222c2276616c7565223a222360381b8152601901613c0e916136f8565b613c17906137f4565b7b3d9135b2bc911d1131b43ab13134b732b9b99116113b30b63ab2911d60211b8152601c01613c45916136f8565b613c4e90613813565b7f7b226b6579223a226d6f7574684c656e677468222c2276616c7565223a0000008152601d01613c7d916136f8565b613c8690613813565b7a3d9135b2bc911d113ab9b2b93730b6b29116113b30b63ab2911d1160291b8152601b01613cb3916136f8565b613cbc906137f4565b7f7b226b6579223a226d6174726978436f6c6f72222c2276616c7565223a2200008152601e01613ceb916136f8565b71222c2274797065223a22737472696e67227d60701b8152601201625d7d7d60e81b8152600301038181018352613d22908361066e565b613d2b82613e33565b936040519485918201613d3d90613831565b613d46916136f8565b039081018452613d56908461066e565b519020906105049161385a565b613a9d613a9761370b565b6105049190613d7c91612b9b565b602081519101206000526001602052610565610504604060002060405192838092610afe565b60405190613daf82610638565b604082527f6768696a6b6c6d6e6f707172737475767778797a303132333435363738392b2f6040837f4142434445464748494a4b4c4d4e4f505152535455565758595a61626364656660208201520152565b90613e0b82610691565b613e18604051918261066e565b8281528092613e29601f1991610691565b0190602036910137565b805115613f1157613e42613da2565b613e66613e61613e5c613e55855161339e565b6003900490565b613322565b613e01565b91602083019181825183016020810191825193600084525b828210613ebf5750505052516003900660018114613eac57600214613ea1575090565b603d90600019015390565b50603d9081600019820153600119015390565b9091956004906003809401938451600190603f9082828260121c16880101518553828282600c1c16880101518386015382828260061c1688010151600286015316850101519082015301959190613e7e565b506105046120db565b6000908072184f03e93ff9f4daa797ed6e38ed64bf6a1f0160401b80821015614049575b506904ee2d6d415b85acef8160201b8083101561403a575b50662386f26fc100008083101561402b575b506305f5e1008083101561401c575b506127108083101561400d575b506064821015613ffd575b600a80921015613ff3575b600190816021613fab828701613e01565b95860101905b613fbd575b5050505090565b600019019083906f181899199a1a9b1b9c1cb0b131b232b360811b8282061a835304918215613fee57919082613fb1565b613fb6565b9160010191613f9a565b9190606460029104910191613f8f565b60049193920491019138613f84565b60089193920491019138613f77565b60109193920491019138613f68565b60209193920491019138613f56565b604093508104915038613f3e565b604051906140648261061d565b601082526f181899199a1a9b1b9c1cb0b131b232b360811b6020830152565b602090805115614091570190565b613486611fe1565b602190805160011015614091570190565b9060209180518210156140bc57010190565b6140c4611fe1565b010190565b906140d2614057565b91604051906140e082610653565b604282526020906060368385013760306140f984614083565b53607861410584614099565b53600090815b83811061411b5750929450505050565b6141969061416f61413b600f85841a61414983600483901c84168e6140aa565b516001600160f81b03191690565b61416761415d6141588861333a565b6133ac565b918a1a918c6140aa565b53168a6140aa565b6141906141866141816141588561333a565b613374565b91861a91886140aa565b5361346e565b61410b565b8015614225576000818181805b61420d57506141b681613e01565b935b6141c25750505090565b6141cb906130f0565b90600a9060308282068101809111614200575b60f81b6001600160f81b031916841a6141f784876140aa565b530490816141b8565b6142086130d9565b6141de565b915061421a600a9161346e565b9104808492916141a8565b506040516142328161061d565b60018152600360fc1b602082015290565b9061424c614057565b604051906142598261061d565b60068252602036818401376000805b6003811061427857509193505050565b6142d9906001600160f81b03196142be600f89841a8361429e600483901c84168a6140aa565b51166142b66142ac8761333a565b91891a918b6140aa565b5316866140aa565b51166141906142cf6141818461333a565b91851a91876140aa565b614268565b604051906142eb8261061d565b60048252630233046360e41b6020830152565b6040519061430b8261061d565b600782526611a3231818232360c91b6020830152565b631e17b39f60e11b815260040190565b661e17ba32bc3a1f60c91b815260070190565b939461434f90614944565b941561486b576143666143606142fe565b94614243565b916143708261419b565b9061437a9061419b565b9161438490613350565b61438d90613107565b600b900461439a9061419b565b92604051968796602088016143f590605790600080516020614c738339815191528152600080516020614d33833981519152602082015276103b34b2bba137bc1e91181018101a1818101a1818111f60491b60408201520190565b661e39ba3cb6329f60c91b81526007017f2e6d61747269782d636861727b666f6e742d66616d696c793a6d6f6e6f73706181526731b29db334b6361d60c11b6020820152602801614445916136f8565b6d3b6f7061636974793a302e383b7d60901b8152600e017f2e757365726e616d657b666f6e742d66616d696c793a73616e732d736572696681527b3b666f6e742d73697a653a313670783b66696c6c3a77686974653b7d60201b6020820152603c01671e17b9ba3cb6329f60c11b81526008017f3c726563742077696474683d2234303022206865696768743d2234303022206681526b34b6361e911198181811179f60a11b6020820152602c017f3c6720636c6173733d226d61747269782d6261636b67726f756e64223e0000008152601d01614522916136f8565b61452b90614321565b7f3c656c6c697073652063783d22323030222063793d22323030222072783d223181527f3230222072793d22313230222066696c6c3d227267626128302c302c302c302e6020820152641a9491179f60d91b6040820152604501621e339f60e91b81526003016f3c656c6c697073652066696c6c3d222360801b81526010016145b3916136f8565b7f22207374726f6b653d222330303022207374726f6b652d77696474683d22332281527a1031bc1e9119181a171a911031bc9e91191898971c1110393c1e9160291b6020820152603b01614606916136f8565b6c1110393c9e911a98971c11179f60991b8152600d01600080516020614d9383398151915281527f6474683d2233222063783d223138312e35222063793d223135342e35222072786020820152600080516020614cb38339815191526040820152605f01600080516020614d9383398151915281527f6474683d2233222063783d223230392e35222063793d223136382e35222072786020820152600080516020614cb38339815191526040820152605f017f3c636972636c652063783d223137332e35222063793d223135342e352220723d8152721119971a91103334b6361e911198181811179f60691b60208201526033017f3c636972636c652063783d22323038222063793d223136392e352220723d2233815270171a91103334b6361e911198181811179f60791b60208201526031017f3c7061746820643d224d203133302032343020512031363520323530200000008152601d01614769916136f8565b7f2032333522207374726f6b653d22626c61636b22207374726f6b652d7769647481527f683d2233222066696c6c3d227472616e73706172656e7422207472616e73666f60208201526d0e4da7a44e8e4c2dce6d8c2e8ca560931b6040820152604e016147d5916136f8565b6516181491179f60d11b81526006017f3c7465787420783d223230302220793d223239302220746578742d616e63686f81527b391e9136b4b2323632911031b630b9b99e913ab9b2b93730b6b2911f60211b6020820152603c01614838916136f8565b61484190614331565b61484a90614321565b651e17b9bb339f60d11b815260060103601f1981018252610504908261066e565b6143666143606142de565b60ff6001911660ff811461347e570190565b90602861ffff809316029182169182036130ff57565b9061ffff8092166014019182116130ff57565b91909161ffff808094169116019182116130ff57565b60ff60019116019060ff82116130ff57565b60ff60029116019060ff82116130ff57565b60ff60419116019060ff82116130ff57565b60ff166009019060ff82116130ff57565b60ff60039116019060ff82116130ff57565b60ff166003019060ff82116130ff57565b60ff6009199116019060ff82116130ff57565b9060409182519060209082614960838201928360209181520190565b0392614974601f199485810183528261066e565b519020926149806120db565b936000945b60ff908187166064811015614c46578888600a9480868504166149a790614888565b601f831683898d8d86838080848910156149eb6149e56149df60289d6149f194614c39575b61ffff9e8f9e8f9889911a1606906148b1565b9a6148c7565b601f1690565b60ff1690565b85811015614c2c575b1a166101689006614a0a9061489e565b9d8b614a158c6148d9565b614a6a966149eb966149e596614a64966006969460249190601f1684811015614c1f575b1a0690614a446120db565b50811693841015614bcb57505050614a5c915061419b565b9c5b066148fd565b9861490e565b8d811015614bbe575b1a60079006614a8190614920565b60ff16614a8d9061419b565b955180968d8201614aa79060029061181760f11b81520190565b614ab0916136f8565b038d81018752614ac0908761066e565b16614aca9061419b565b9616614ad59061419b565b9116614ae09061419b565b908b519586958a8701614af2916136f8565b681e3a32bc3a103c1e9160b91b8152600901614b0d916136f8565b6411103c9e9160d91b8152600501614b24916136f8565b7f2220636c6173733d226d61747269782d6368617222207374796c653d22666f6e8152663a16b9b4bd329d60c91b6020820152602701614b63916136f8565b6a383c1db7b830b1b4ba3c9d60a91b8152600b01614b80916136f8565b621d911f60e91b8152600301614b95916136f8565b614b9e90614331565b038581018252614bae908261066e565b94614bb890614876565b94614985565b614bc6611fe1565b614a73565b614c199350614bf7614be7614be2614c0d93614931565b6148eb565b60f81b6001600160f81b03191690565b9451948592830160019160ff60f81b1681520190565b0390810183528261066e565b9c614a5e565b614c27611fe1565b614a39565b614c34611fe1565b6149fa565b614c41611fe1565b6149cc565b5095505050935050509056fea6e4251f855f750545fe414f120db91c76b88def14d120969e5bb2d3f05debbb3c73766720786d6c6e733d22687474703a2f2f7777772e77332e6f72672f3230deba1e292f8ba88238e10ab3c7f88bd4be4fac56cad5194b6ecceaf653468af13d2232392e35222072793d2232392e35222066696c6c3d2223666666222f3e009afb95cacc9f95858ec44aa8c3b685511002e30ae54415823f406128b85b238e8be0079c531659141344cd1fd0a4f28419497f9722a3daafe3b4186f6b6457e02f0a68ab07768e01943a599e73362a0e17a63a72e94dd2e384d2c1d4db93275630302f737667222077696474683d2234303022206865696768743d2234303022c78cd419d6136f9f1c1c6aec1d3fae098cffaf8bc86314a8f2685e32fe574e3cb333c813a7426a7a11e2b190cad52c44119421594b47f6f32ace6d8c7207b2bf3c656c6c69707365207374726f6b653d222330303022207374726f6b652d7769ece574603820d07bc9b91f2a932baadf4628aabcb8afba49776529c14a6104b2a2646970667358221220d53204e7e00c1bf12d548c49023ae94dc5ef500348c971efcea4a607c2d7b6ad64736f6c63430008110033ece574603820d07bc9b91f2a932baadf4628aabcb8afba49776529c14a6104b2",
  "devdoc": {
    "errors": {
      "ERC725Y_DataKeysValuesEmptyArray()": [
        {
          "details": "Reverts when one of the array parameter provided to {setDataBatch} function is an empty array."
        }
      ],
      "ERC725Y_DataKeysValuesLengthMismatch()": [
        {
          "details": "Reverts when there is not the same number of elements in the `datakeys` and `dataValues` array parameters provided when calling the {setDataBatch} function."
        }
      ],
      "ERC725Y_MsgValueDisallowed()": [
        {
          "details": "Reverts when sending value to the {setData} or {setDataBatch} function."
        }
      ],
      "InvalidExtensionAddress(bytes)": [
        {
          "details": "reverts when the bytes retrieved from the LSP17 data key is not a valid address (not 20 bytes)"
        }
      ],
      "InvalidFunctionSelector(bytes)": [
        {
          "details": "reverts when the contract is called with a function selector not valid (less than 4 bytes of data)"
        }
      ],
      "LSP4TokenNameNotEditable()": [
        {
          "details": "Reverts when trying to edit the data key `LSP4TokenName` after the digital asset contract has been deployed / initialized. The `LSP4TokenName` data key is located inside the ERC725Y data key-value store of the digital asset contract. It can be set only once inside the constructor/initializer when the digital asset contract is being deployed / initialized."
        }
      ],
      "LSP4TokenSymbolNotEditable()": [
        {
          "details": "Reverts when trying to edit the data key `LSP4TokenSymbol` after the digital asset contract has been deployed / initialized. The `LSP4TokenSymbol` data key is located inside the ERC725Y data key-value store of the digital asset contract. It can be set only once inside the constructor/initializer when the digital asset contract is being deployed / initialized."
        }
      ],
      "LSP4TokenTypeNotEditable()": [
        {
          "details": "Reverts when trying to edit the data key `LSP4TokenType` after the digital asset contract has been deployed / initialized. The `LSP4TokenType` data key is located inside the ERC725Y data key-value store of the digital asset contract. It can be set only once inside the constructor / initializer when the digital asset contract is being deployed / initialized."
        }
      ],
      "LSP8BatchCallFailed(uint256)": [
        {
          "details": "Reverts when a batch call failed."
        }
      ],
      "LSP8CannotSendToAddressZero()": [
        {
          "details": "Reverts when trying to send token to the zero address."
        }
      ],
      "LSP8CannotUseAddressZeroAsOperator()": [
        {
          "details": "Reverts when trying to set the zero address as an operator."
        }
      ],
      "LSP8InvalidTransferBatch()": [
        {
          "details": "Reverts when the parameters used for `transferBatch` have different lengths."
        }
      ],
      "LSP8NonExistentTokenId(bytes32)": [
        {
          "details": "Reverts when `tokenId` has not been minted."
        }
      ],
      "LSP8NonExistingOperator(address,bytes32)": [
        {
          "details": "Reverts when `operator` is not an operator for the `tokenId`."
        }
      ],
      "LSP8NotTokenOperator(bytes32,address)": [
        {
          "details": "Reverts when `caller` is not an allowed operator for `tokenId`."
        }
      ],
      "LSP8NotTokenOwner(address,bytes32,address)": [
        {
          "details": "Reverts when `caller` is not the `tokenOwner` of the `tokenId`."
        }
      ],
      "LSP8NotifyTokenReceiverContractMissingLSP1Interface(address)": [
        {
          "details": "Reverts if the `tokenReceiver` does not implement LSP1 when minting or transferring tokens with `bool force` set as `false`."
        }
      ],
      "LSP8NotifyTokenReceiverIsEOA(address)": [
        {
          "details": "Reverts if the `tokenReceiver` is an EOA when minting or transferring tokens with `bool force` set as `false`."
        }
      ],
      "LSP8OperatorAlreadyAuthorized(address,bytes32)": [
        {
          "details": "Reverts when `operator` is already authorized for the `tokenId`."
        }
      ],
      "LSP8RevokeOperatorNotAuthorized(address,address,bytes32)": [
        {
          "details": "Reverts when the call to revoke operator is not authorized."
        }
      ],
      "LSP8TokenContractCannotHoldValue()": [
        {
          "details": "Error occurs when sending native tokens to the LSP8 contract without sending any data. E.g. Sending value without passing a bytes4 function selector to call a LSP17 Extension."
        }
      ],
      "LSP8TokenIdAlreadyMinted(bytes32)": [
        {
          "details": "Reverts when `tokenId` has already been minted."
        }
      ],
      "LSP8TokenIdFormatNotEditable()": [
        {
          "details": "Reverts when trying to edit the data key `LSP8TokenIdFormat` after the identifiable digital asset contract has been deployed. The `LSP8TokenIdFormat` data key is located inside the ERC725Y Data key-value store of the identifiable digital asset contract. It can be set only once inside the constructor/initializer when the identifiable digital asset contract is being deployed."
        }
      ],
      "LSP8TokenIdsDataEmptyArray()": [
        {
          "details": "Reverts when empty arrays is passed to the function"
        }
      ],
      "LSP8TokenIdsDataLengthMismatch()": [
        {
          "details": "Reverts when the length of the token IDs data arrays is not equal"
        }
      ],
      "LSP8TokenOwnerCannotBeOperator()": [
        {
          "details": "Reverts when trying to authorize or revoke the token's owner as an operator."
        }
      ],
      "LSP8TokenOwnerChanged(bytes32,address,address)": [
        {
          "details": "Reverts when the token owner changed inside the {_beforeTokenTransfer} hook."
        }
      ],
      "NoExtensionFoundForFunctionSelector(bytes4)": [
        {
          "details": "reverts when there is no extension for the function selector being called with"
        }
      ],
      "OwnableCannotSetZeroAddressAsOwner()": [
        {
          "details": "Reverts when trying to set `address(0)` as the contract owner when deploying the contract or initializing it."
        }
      ]
    },
    "kind": "dev",
    "methods": {
      "authorizeOperator(address,bytes32,bytes)": {
        "details": "Allow an `operator` address to transfer or burn a specific `tokenId` on behalf of its token owner. See {isOperatorFor}. Notify the operator based on the LSP1-UniversalReceiver standard",
        "params": {
          "operator": "The address to authorize as an operator.",
          "operatorNotificationData": "The data to notify the operator about via LSP1.",
          "tokenId": "The token ID operator has access to."
        }
      },
      "balanceOf(address)": {
        "details": "Get the number of token IDs owned by `tokenOwner`.",
        "params": {
          "tokenOwner": "The address to query     *"
        },
        "returns": {
          "_0": "The total number of token IDs that `tokenOwner` owns."
        }
      },
      "batchCalls(bytes[])": {
        "custom:info": "It's not possible to send value along the functions call due to the use of `delegatecall`.",
        "details": "Allows a caller to batch different function calls in one call. Perform a `delegatecall` on self, to call different functions with preserving the context.",
        "params": {
          "data": "An array of ABI encoded function calls to be called on the contract."
        },
        "returns": {
          "results": "An array of abi-encoded data returned by the functions executed."
        }
      },
      "getData(bytes32)": {
        "details": "Get in the ERC725Y storage the bytes data stored at a specific data key `dataKey`.",
        "params": {
          "dataKey": "The data key for which to retrieve the value."
        },
        "returns": {
          "dataValue": "The bytes value stored under the specified data key."
        }
      },
      "getDataBatch(bytes32[])": {
        "details": "Get in the ERC725Y storage the bytes data stored at multiple data keys `dataKeys`.",
        "params": {
          "dataKeys": "The array of keys which values to retrieve"
        },
        "returns": {
          "dataValues": "The array of data stored at multiple keys"
        }
      },
      "getDataBatchForTokenIds(bytes32[],bytes32[])": {
        "params": {
          "dataKeys": "An array of data keys corresponding to the token IDs.",
          "tokenIds": "An array of token IDs."
        },
        "returns": {
          "dataValues": "An array of data values for each pair of `tokenId` and `dataKey`."
        }
      },
      "getDataForTokenId(bytes32,bytes32)": {
        "params": {
          "dataKey": "The key for the data to retrieve.",
          "tokenId": "The unique identifier for a token."
        },
        "returns": {
          "dataValue": "The data value associated with the given `tokenId` and `dataKey`."
        }
      },
      "getOperatorsOf(bytes32)": {
        "details": "Returns all `operator` addresses that are allowed to transfer or burn a specific `tokenId` on behalf of its owner.",
        "params": {
          "tokenId": "The token ID to get the operators for."
        },
        "returns": {
          "_0": "An array of operators allowed to transfer or burn a specific `tokenId`. Requirements - `tokenId` must exist."
        }
      },
      "isOperatorFor(address,bytes32)": {
        "details": "Returns whether `operator` address is an operator for a given `tokenId`.",
        "params": {
          "operator": "The address to query operator status for.",
          "tokenId": "The token ID to check if `operator` is allowed to operate on."
        },
        "returns": {
          "_0": "`true` if `operator` is an operator for `tokenId`, `false` otherwise."
        }
      },
      "owner()": {
        "details": "Returns the address of the current owner."
      },
      "renounceOwnership()": {
        "details": "Leaves the contract without owner. It will not be possible to call `onlyOwner` functions. Can only be called by the current owner. NOTE: Renouncing ownership will leave the contract without an owner, thereby disabling any functionality that is only available to the owner."
      },
      "revokeOperator(address,bytes32,bool,bytes)": {
        "details": "Remove access of `operator` for a given `tokenId`, disallowing it to transfer `tokenId` on behalf of its owner. See also {isOperatorFor}.",
        "params": {
          "notify": "Boolean indicating whether to notify the operator or not",
          "operator": "The address to revoke as an operator.",
          "operatorNotificationData": "The data to notify the operator about via LSP1.",
          "tokenId": "The tokenId `operator` is revoked from operating on."
        }
      },
      "setData(bytes32,bytes)": {
        "custom:events": "{DataChanged} event.",
        "custom:requirements": "- SHOULD only be callable by the {owner}.",
        "custom:warning": "**Note for developers:** despite the fact that this function is set as `payable`, the function is not intended to receive value (= native tokens). **An additional check has been implemented to ensure that `msg.value` sent was equal to 0**. If you want to allow this function to receive value in your inheriting contract, this function can be overriden to remove this check.",
        "details": "Sets a single bytes value `dataValue` in the ERC725Y storage for a specific data key `dataKey`. The function is marked as payable to enable flexibility on child contracts. For instance to implement a fee mechanism for setting specific data.",
        "params": {
          "dataKey": "The data key for which to set a new value.",
          "dataValue": "The new bytes value to set."
        }
      },
      "setDataBatch(bytes32[],bytes[])": {
        "custom:events": "{DataChanged} event **for each data key/value pair set**.",
        "custom:requirements": "- SHOULD only be callable by the {owner} of the contract.",
        "custom:warning": "**Note for developers:** despite the fact that this function is set as `payable`, the function is not intended to receive value (= native tokens). **An additional check has been implemented to ensure that `msg.value` sent was equal to 0**. If you want to allow this function to receive value in your inheriting contract, this function can be overriden to remove this check.",
        "details": "Batch data setting function that behaves the same as {setData} but allowing to set multiple data key/value pairs in the ERC725Y storage in the same transaction.",
        "params": {
          "dataKeys": "An array of data keys to set bytes values for.",
          "dataValues": "An array of bytes values to set for each `dataKeys`."
        }
      },
      "setDataBatchForTokenIds(bytes32[],bytes32[],bytes[])": {
        "params": {
          "dataKeys": "An array of data keys corresponding to the token IDs.",
          "dataValues": "An array of values to set for the given data keys.",
          "tokenIds": "An array of token IDs."
        }
      },
      "setDataForTokenId(bytes32,bytes32,bytes)": {
        "params": {
          "dataKey": "The key for the data to set.",
          "dataValue": "The value to set for the given data key.",
          "tokenId": "The unique identifier for a token."
        }
      },
      "supportsInterface(bytes4)": {
        "details": "See {IERC165-supportsInterface}."
      },
      "tokenIdsOf(address)": {
        "details": "Returns the list of token IDs that the `tokenOwner` address owns.",
        "params": {
          "tokenOwner": "The address that we want to get the list of token IDs for."
        },
        "returns": {
          "_0": "An array of `bytes32[] tokenIds` owned by `tokenOwner`."
        }
      },
      "tokenOwnerOf(bytes32)": {
        "details": "Returns the address that owns a given `tokenId`.",
        "params": {
          "tokenId": "The token ID to query the owner for."
        },
        "returns": {
          "_0": "The owner address of the given `tokenId`."
        }
      },
      "totalSupply()": {
        "details": "Returns the number of existing tokens that have been minted in this contract.",
        "returns": {
          "_0": "The number of existing tokens."
        }
      },
      "transfer(address,address,bytes32,bool,bytes)": {
        "details": "Transfer a given `tokenId` token from the `from` address to the `to` address. If operators are set for a specific `tokenId`, all the operators are revoked after the tokenId have been transferred. The `force` parameter MUST be set to `true` when transferring tokens to Externally Owned Accounts (EOAs) or contracts that do not implement the LSP1 standard.",
        "params": {
          "data": "Any additional data the caller wants included in the emitted event, and sent in the hooks of the `from` and `to` addresses.",
          "force": "When set to `true`, the `to` address CAN be any address. When set to `false`, the `to` address MUST be a contract that supports the LSP1 UniversalReceiver standard.",
          "from": "The address that owns the given `tokenId`.",
          "to": "The address that will receive the `tokenId`.",
          "tokenId": "The token ID to transfer."
        }
      },
      "transferBatch(address[],address[],bytes32[],bool[],bytes[])": {
        "details": "Transfers multiple tokens at once based on the arrays of `from`, `to` and `tokenId`. If any transfer fails, the whole call will revert.",
        "params": {
          "data": "Any additional data the caller wants included in the emitted event, and sent in the hooks to the `from` and `to` addresses.",
          "force": "When set to `true`, `to` may be any address. When set to `false`, `to` must be a contract that supports the LSP1 standard and not revert.",
          "from": "An array of sending addresses.",
          "to": "An array of recipient addresses.",
          "tokenId": "An array of token IDs to transfer."
        }
      },
      "transferOwnership(address)": {
        "details": "Transfers ownership of the contract to a new account (`newOwner`). Can only be called by the current owner."
      }
    },
    "version": 1
  },
  "userdoc": {
    "errors": {
      "LSP8BatchCallFailed(uint256)": [
        {
          "notice": "Batch call failed."
        }
      ],
      "LSP8TokenContractCannotHoldValue()": [
        {
          "notice": "LSP8 contract cannot receive native tokens."
        }
      ]
    },
    "events": {
      "DataChanged(bytes32,bytes)": {
        "notice": "The following data key/value pair has been changed in the ERC725Y storage: Data key: `dataKey`, data value: `dataValue`."
      }
    },
    "kind": "user",
    "methods": {
      "batchCalls(bytes[])": {
        "notice": "Executing the following batch of abi-encoded function calls on the contract: `data`."
      },
      "getData(bytes32)": {
        "notice": "Reading the ERC725Y storage for data key `dataKey` returned the following value: `dataValue`."
      },
      "getDataBatch(bytes32[])": {
        "notice": "Reading the ERC725Y storage for data keys `dataKeys` returned the following values: `dataValues`."
      },
      "getDataBatchForTokenIds(bytes32[],bytes32[])": {
        "notice": "Retrieves data in batch for multiple `tokenId` and `dataKey` pairs."
      },
      "getDataForTokenId(bytes32,bytes32)": {
        "notice": "Retrieves data for a specific `tokenId` and `dataKey`."
      },
      "setData(bytes32,bytes)": {
        "notice": "Setting the following data key value pair in the ERC725Y storage. Data key: `dataKey`, data value: `dataValue`."
      },
      "setDataBatch(bytes32[],bytes[])": {
        "notice": "Setting the following data key value pairs in the ERC725Y storage. Data keys: `dataKeys`, data values: `dataValues`."
      },
      "setDataBatchForTokenIds(bytes32[],bytes32[],bytes[])": {
        "notice": "Sets data in batch for multiple `tokenId` and `dataKey` pairs."
      },
      "setDataForTokenId(bytes32,bytes32,bytes)": {
        "notice": "Sets data for a specific `tokenId` and `dataKey`."
      }
    },
    "version": 1
  },
  "storageLayout": {
    "storage": [
      {
        "astId": 3617,
        "contract": "contracts/LSP8LoogiesUpdated.sol:LSP8LoogiesUpdated",
        "label": "_owner",
        "offset": 0,
        "slot": "0",
        "type": "t_address"
      },
      {
        "astId": 26,
        "contract": "contracts/LSP8LoogiesUpdated.sol:LSP8LoogiesUpdated",
        "label": "_store",
        "offset": 0,
        "slot": "1",
        "type": "t_mapping(t_bytes32,t_bytes_storage)"
      },
      {
        "astId": 2066,
        "contract": "contracts/LSP8LoogiesUpdated.sol:LSP8LoogiesUpdated",
        "label": "_existingTokens",
        "offset": 0,
        "slot": "2",
        "type": "t_uint256"
      },
      {
        "astId": 2070,
        "contract": "contracts/LSP8LoogiesUpdated.sol:LSP8LoogiesUpdated",
        "label": "_tokenOwners",
        "offset": 0,
        "slot": "3",
        "type": "t_mapping(t_bytes32,t_address)"
      },
      {
        "astId": 2075,
        "contract": "contracts/LSP8LoogiesUpdated.sol:LSP8LoogiesUpdated",
        "label": "_ownedTokens",
        "offset": 0,
        "slot": "4",
        "type": "t_mapping(t_address,t_struct(Bytes32Set)5434_storage)"
      },
      {
        "astId": 2080,
        "contract": "contracts/LSP8LoogiesUpdated.sol:LSP8LoogiesUpdated",
        "label": "_operators",
        "offset": 0,
        "slot": "5",
        "type": "t_mapping(t_bytes32,t_struct(AddressSet)5555_storage)"
      },
      {
        "astId": 5931,
        "contract": "contracts/LSP8LoogiesUpdated.sol:LSP8LoogiesUpdated",
        "label": "_tokenIds",
        "offset": 0,
        "slot": "6",
        "type": "t_uint256"
      },
      {
        "astId": 5935,
        "contract": "contracts/LSP8LoogiesUpdated.sol:LSP8LoogiesUpdated",
        "label": "color",
        "offset": 0,
        "slot": "7",
        "type": "t_mapping(t_bytes32,t_bytes3)"
      },
      {
        "astId": 5939,
        "contract": "contracts/LSP8LoogiesUpdated.sol:LSP8LoogiesUpdated",
        "label": "chubbiness",
        "offset": 0,
        "slot": "8",
        "type": "t_mapping(t_bytes32,t_uint256)"
      },
      {
        "astId": 5943,
        "contract": "contracts/LSP8LoogiesUpdated.sol:LSP8LoogiesUpdated",
        "label": "mouthLength",
        "offset": 0,
        "slot": "9",
        "type": "t_mapping(t_bytes32,t_uint256)"
      },
      {
        "astId": 5947,
        "contract": "contracts/LSP8LoogiesUpdated.sol:LSP8LoogiesUpdated",
        "label": "_tokenIdExists",
        "offset": 0,
        "slot": "10",
        "type": "t_mapping(t_uint256,t_bool)"
      },
      {
        "astId": 5951,
        "contract": "contracts/LSP8LoogiesUpdated.sol:LSP8LoogiesUpdated",
        "label": "upUsernames",
        "offset": 0,
        "slot": "11",
        "type": "t_mapping(t_bytes32,t_string_storage)"
      },
      {
        "astId": 5966,
        "contract": "contracts/LSP8LoogiesUpdated.sol:LSP8LoogiesUpdated",
        "label": "price",
        "offset": 0,
        "slot": "12",
        "type": "t_uint256"
      }
    ],
    "types": {
      "t_address": {
        "encoding": "inplace",
        "label": "address",
        "numberOfBytes": "20"
      },
      "t_array(t_bytes32)dyn_storage": {
        "base": "t_bytes32",
        "encoding": "dynamic_array",
        "label": "bytes32[]",
        "numberOfBytes": "32"
      },
      "t_bool": {
        "encoding": "inplace",
        "label": "bool",
        "numberOfBytes": "1"
      },
      "t_bytes3": {
        "encoding": "inplace",
        "label": "bytes3",
        "numberOfBytes": "3"
      },
      "t_bytes32": {
        "encoding": "inplace",
        "label": "bytes32",
        "numberOfBytes": "32"
      },
      "t_bytes_storage": {
        "encoding": "bytes",
        "label": "bytes",
        "numberOfBytes": "32"
      },
      "t_mapping(t_address,t_struct(Bytes32Set)5434_storage)": {
        "encoding": "mapping",
        "key": "t_address",
        "label": "mapping(address => struct EnumerableSet.Bytes32Set)",
        "numberOfBytes": "32",
        "value": "t_struct(Bytes32Set)5434_storage"
      },
      "t_mapping(t_bytes32,t_address)": {
        "encoding": "mapping",
        "key": "t_bytes32",
        "label": "mapping(bytes32 => address)",
        "numberOfBytes": "32",
        "value": "t_address"
      },
      "t_mapping(t_bytes32,t_bytes3)": {
        "encoding": "mapping",
        "key": "t_bytes32",
        "label": "mapping(bytes32 => bytes3)",
        "numberOfBytes": "32",
        "value": "t_bytes3"
      },
      "t_mapping(t_bytes32,t_bytes_storage)": {
        "encoding": "mapping",
        "key": "t_bytes32",
        "label": "mapping(bytes32 => bytes)",
        "numberOfBytes": "32",
        "value": "t_bytes_storage"
      },
      "t_mapping(t_bytes32,t_string_storage)": {
        "encoding": "mapping",
        "key": "t_bytes32",
        "label": "mapping(bytes32 => string)",
        "numberOfBytes": "32",
        "value": "t_string_storage"
      },
      "t_mapping(t_bytes32,t_struct(AddressSet)5555_storage)": {
        "encoding": "mapping",
        "key": "t_bytes32",
        "label": "mapping(bytes32 => struct EnumerableSet.AddressSet)",
        "numberOfBytes": "32",
        "value": "t_struct(AddressSet)5555_storage"
      },
      "t_mapping(t_bytes32,t_uint256)": {
        "encoding": "mapping",
        "key": "t_bytes32",
        "label": "mapping(bytes32 => uint256)",
        "numberOfBytes": "32",
        "value": "t_uint256"
      },
      "t_mapping(t_uint256,t_bool)": {
        "encoding": "mapping",
        "key": "t_uint256",
        "label": "mapping(uint256 => bool)",
        "numberOfBytes": "32",
        "value": "t_bool"
      },
      "t_string_storage": {
        "encoding": "bytes",
        "label": "string",
        "numberOfBytes": "32"
      },
      "t_struct(AddressSet)5555_storage": {
        "encoding": "inplace",
        "label": "struct EnumerableSet.AddressSet",
        "members": [
          {
            "astId": 5554,
            "contract": "contracts/LSP8LoogiesUpdated.sol:LSP8LoogiesUpdated",
            "label": "_inner",
            "offset": 0,
            "slot": "0",
            "type": "t_struct(Set)5240_storage"
          }
        ],
        "numberOfBytes": "64"
      },
      "t_struct(Bytes32Set)5434_storage": {
        "encoding": "inplace",
        "label": "struct EnumerableSet.Bytes32Set",
        "members": [
          {
            "astId": 5433,
            "contract": "contracts/LSP8LoogiesUpdated.sol:LSP8LoogiesUpdated",
            "label": "_inner",
            "offset": 0,
            "slot": "0",
            "type": "t_struct(Set)5240_storage"
          }
        ],
        "numberOfBytes": "64"
      },
      "t_struct(Set)5240_storage": {
        "encoding": "inplace",
        "label": "struct EnumerableSet.Set",
        "members": [
          {
            "astId": 5235,
            "contract": "contracts/LSP8LoogiesUpdated.sol:LSP8LoogiesUpdated",
            "label": "_values",
            "offset": 0,
            "slot": "0",
            "type": "t_array(t_bytes32)dyn_storage"
          },
          {
            "astId": 5239,
            "contract": "contracts/LSP8LoogiesUpdated.sol:LSP8LoogiesUpdated",
            "label": "_indexes",
            "offset": 0,
            "slot": "1",
            "type": "t_mapping(t_bytes32,t_uint256)"
          }
        ],
        "numberOfBytes": "64"
      },
      "t_uint256": {
        "encoding": "inplace",
        "label": "uint256",
        "numberOfBytes": "32"
      }
    }
  }
}