{
  "address": "0x5c5616eBB5D546f84Dba36D3D3155B4b578cc881",
  "abi": [
    {
      "inputs": [
        {
          "internalType": "string",
          "name": "name",
          "type": "string"
        },
        {
          "internalType": "string",
          "name": "symbol",
          "type": "string"
        },
        {
          "internalType": "address",
          "name": "contractOwner",
          "type": "address"
        }
      ],
      "stateMutability": "nonpayable",
      "type": "constructor"
    },
    {
      "inputs": [],
      "name": "ERC725Y_DataKeysValuesEmptyArray",
      "type": "error"
    },
    {
      "inputs": [],
      "name": "ERC725Y_DataKeysValuesLengthMismatch",
      "type": "error"
    },
    {
      "inputs": [],
      "name": "ERC725Y_MsgValueDisallowed",
      "type": "error"
    },
    {
      "inputs": [
        {
          "internalType": "bytes",
          "name": "storedData",
          "type": "bytes"
        }
      ],
      "name": "InvalidExtensionAddress",
      "type": "error"
    },
    {
      "inputs": [
        {
          "internalType": "bytes",
          "name": "data",
          "type": "bytes"
        }
      ],
      "name": "InvalidFunctionSelector",
      "type": "error"
    },
    {
      "inputs": [],
      "name": "LSP4TokenNameNotEditable",
      "type": "error"
    },
    {
      "inputs": [],
      "name": "LSP4TokenSymbolNotEditable",
      "type": "error"
    },
    {
      "inputs": [],
      "name": "LSP4TokenTypeNotEditable",
      "type": "error"
    },
    {
      "inputs": [
        {
          "internalType": "uint256",
          "name": "callIndex",
          "type": "uint256"
        }
      ],
      "name": "LSP8BatchCallFailed",
      "type": "error"
    },
    {
      "inputs": [],
      "name": "LSP8CannotSendToAddressZero",
      "type": "error"
    },
    {
      "inputs": [],
      "name": "LSP8CannotUseAddressZeroAsOperator",
      "type": "error"
    },
    {
      "inputs": [],
      "name": "LSP8InvalidTransferBatch",
      "type": "error"
    },
    {
      "inputs": [
        {
          "internalType": "bytes32",
          "name": "tokenId",
          "type": "bytes32"
        }
      ],
      "name": "LSP8NonExistentTokenId",
      "type": "error"
    },
    {
      "inputs": [
        {
          "internalType": "address",
          "name": "operator",
          "type": "address"
        },
        {
          "internalType": "bytes32",
          "name": "tokenId",
          "type": "bytes32"
        }
      ],
      "name": "LSP8NonExistingOperator",
      "type": "error"
    },
    {
      "inputs": [
        {
          "internalType": "bytes32",
          "name": "tokenId",
          "type": "bytes32"
        },
        {
          "internalType": "address",
          "name": "caller",
          "type": "address"
        }
      ],
      "name": "LSP8NotTokenOperator",
      "type": "error"
    },
    {
      "inputs": [
        {
          "internalType": "address",
          "name": "tokenOwner",
          "type": "address"
        },
        {
          "internalType": "bytes32",
          "name": "tokenId",
          "type": "bytes32"
        },
        {
          "internalType": "address",
          "name": "caller",
          "type": "address"
        }
      ],
      "name": "LSP8NotTokenOwner",
      "type": "error"
    },
    {
      "inputs": [
        {
          "internalType": "address",
          "name": "tokenReceiver",
          "type": "address"
        }
      ],
      "name": "LSP8NotifyTokenReceiverContractMissingLSP1Interface",
      "type": "error"
    },
    {
      "inputs": [
        {
          "internalType": "address",
          "name": "tokenReceiver",
          "type": "address"
        }
      ],
      "name": "LSP8NotifyTokenReceiverIsEOA",
      "type": "error"
    },
    {
      "inputs": [
        {
          "internalType": "address",
          "name": "operator",
          "type": "address"
        },
        {
          "internalType": "bytes32",
          "name": "tokenId",
          "type": "bytes32"
        }
      ],
      "name": "LSP8OperatorAlreadyAuthorized",
      "type": "error"
    },
    {
      "inputs": [
        {
          "internalType": "address",
          "name": "caller",
          "type": "address"
        },
        {
          "internalType": "address",
          "name": "tokenOwner",
          "type": "address"
        },
        {
          "internalType": "bytes32",
          "name": "tokenId",
          "type": "bytes32"
        }
      ],
      "name": "LSP8RevokeOperatorNotAuthorized",
      "type": "error"
    },
    {
      "inputs": [],
      "name": "LSP8TokenContractCannotHoldValue",
      "type": "error"
    },
    {
      "inputs": [
        {
          "internalType": "bytes32",
          "name": "tokenId",
          "type": "bytes32"
        }
      ],
      "name": "LSP8TokenIdAlreadyMinted",
      "type": "error"
    },
    {
      "inputs": [],
      "name": "LSP8TokenIdFormatNotEditable",
      "type": "error"
    },
    {
      "inputs": [],
      "name": "LSP8TokenIdsDataEmptyArray",
      "type": "error"
    },
    {
      "inputs": [],
      "name": "LSP8TokenIdsDataLengthMismatch",
      "type": "error"
    },
    {
      "inputs": [],
      "name": "LSP8TokenOwnerCannotBeOperator",
      "type": "error"
    },
    {
      "inputs": [
        {
          "internalType": "bytes32",
          "name": "tokenId",
          "type": "bytes32"
        },
        {
          "internalType": "address",
          "name": "oldOwner",
          "type": "address"
        },
        {
          "internalType": "address",
          "name": "newOwner",
          "type": "address"
        }
      ],
      "name": "LSP8TokenOwnerChanged",
      "type": "error"
    },
    {
      "inputs": [
        {
          "internalType": "bytes4",
          "name": "functionSelector",
          "type": "bytes4"
        }
      ],
      "name": "NoExtensionFoundForFunctionSelector",
      "type": "error"
    },
    {
      "inputs": [],
      "name": "OwnableCannotSetZeroAddressAsOwner",
      "type": "error"
    },
    {
      "anonymous": false,
      "inputs": [
        {
          "indexed": true,
          "internalType": "bytes32",
          "name": "dataKey",
          "type": "bytes32"
        },
        {
          "indexed": false,
          "internalType": "bytes",
          "name": "dataValue",
          "type": "bytes"
        }
      ],
      "name": "DataChanged",
      "type": "event"
    },
    {
      "anonymous": false,
      "inputs": [
        {
          "indexed": true,
          "internalType": "address",
          "name": "operator",
          "type": "address"
        },
        {
          "indexed": true,
          "internalType": "address",
          "name": "tokenOwner",
          "type": "address"
        },
        {
          "indexed": true,
          "internalType": "bytes32",
          "name": "tokenId",
          "type": "bytes32"
        },
        {
          "indexed": false,
          "internalType": "bytes",
          "name": "operatorNotificationData",
          "type": "bytes"
        }
      ],
      "name": "OperatorAuthorizationChanged",
      "type": "event"
    },
    {
      "anonymous": false,
      "inputs": [
        {
          "indexed": true,
          "internalType": "address",
          "name": "operator",
          "type": "address"
        },
        {
          "indexed": true,
          "internalType": "address",
          "name": "tokenOwner",
          "type": "address"
        },
        {
          "indexed": true,
          "internalType": "bytes32",
          "name": "tokenId",
          "type": "bytes32"
        },
        {
          "indexed": false,
          "internalType": "bool",
          "name": "notified",
          "type": "bool"
        },
        {
          "indexed": false,
          "internalType": "bytes",
          "name": "operatorNotificationData",
          "type": "bytes"
        }
      ],
      "name": "OperatorRevoked",
      "type": "event"
    },
    {
      "anonymous": false,
      "inputs": [
        {
          "indexed": true,
          "internalType": "address",
          "name": "previousOwner",
          "type": "address"
        },
        {
          "indexed": true,
          "internalType": "address",
          "name": "newOwner",
          "type": "address"
        }
      ],
      "name": "OwnershipTransferred",
      "type": "event"
    },
    {
      "anonymous": false,
      "inputs": [
        {
          "indexed": true,
          "internalType": "bytes32",
          "name": "tokenId",
          "type": "bytes32"
        },
        {
          "indexed": true,
          "internalType": "bytes32",
          "name": "dataKey",
          "type": "bytes32"
        },
        {
          "indexed": false,
          "internalType": "bytes",
          "name": "dataValue",
          "type": "bytes"
        }
      ],
      "name": "TokenIdDataChanged",
      "type": "event"
    },
    {
      "anonymous": false,
      "inputs": [
        {
          "indexed": false,
          "internalType": "address",
          "name": "operator",
          "type": "address"
        },
        {
          "indexed": true,
          "internalType": "address",
          "name": "from",
          "type": "address"
        },
        {
          "indexed": true,
          "internalType": "address",
          "name": "to",
          "type": "address"
        },
        {
          "indexed": true,
          "internalType": "bytes32",
          "name": "tokenId",
          "type": "bytes32"
        },
        {
          "indexed": false,
          "internalType": "bool",
          "name": "force",
          "type": "bool"
        },
        {
          "indexed": false,
          "internalType": "bytes",
          "name": "data",
          "type": "bytes"
        }
      ],
      "name": "Transfer",
      "type": "event"
    },
    {
      "stateMutability": "payable",
      "type": "fallback"
    },
    {
      "inputs": [
        {
          "internalType": "address",
          "name": "operator",
          "type": "address"
        },
        {
          "internalType": "bytes32",
          "name": "tokenId",
          "type": "bytes32"
        },
        {
          "internalType": "bytes",
          "name": "operatorNotificationData",
          "type": "bytes"
        }
      ],
      "name": "authorizeOperator",
      "outputs": [],
      "stateMutability": "nonpayable",
      "type": "function"
    },
    {
      "inputs": [
        {
          "internalType": "address",
          "name": "tokenOwner",
          "type": "address"
        }
      ],
      "name": "balanceOf",
      "outputs": [
        {
          "internalType": "uint256",
          "name": "",
          "type": "uint256"
        }
      ],
      "stateMutability": "view",
      "type": "function"
    },
    {
      "inputs": [
        {
          "internalType": "bytes[]",
          "name": "data",
          "type": "bytes[]"
        }
      ],
      "name": "batchCalls",
      "outputs": [
        {
          "internalType": "bytes[]",
          "name": "results",
          "type": "bytes[]"
        }
      ],
      "stateMutability": "nonpayable",
      "type": "function"
    },
    {
      "inputs": [
        {
          "internalType": "bytes32",
          "name": "tokenId",
          "type": "bytes32"
        }
      ],
      "name": "burn",
      "outputs": [],
      "stateMutability": "nonpayable",
      "type": "function"
    },
    {
      "inputs": [
        {
          "internalType": "bytes32",
          "name": "key",
          "type": "bytes32"
        }
      ],
      "name": "getData",
      "outputs": [
        {
          "internalType": "bytes",
          "name": "",
          "type": "bytes"
        }
      ],
      "stateMutability": "view",
      "type": "function"
    },
    {
      "inputs": [
        {
          "internalType": "bytes32[]",
          "name": "keys",
          "type": "bytes32[]"
        }
      ],
      "name": "getDataBatch",
      "outputs": [
        {
          "internalType": "bytes[]",
          "name": "",
          "type": "bytes[]"
        }
      ],
      "stateMutability": "view",
      "type": "function"
    },
    {
      "inputs": [
        {
          "internalType": "bytes32[]",
          "name": "tokenIds",
          "type": "bytes32[]"
        },
        {
          "internalType": "bytes32[]",
          "name": "dataKeys",
          "type": "bytes32[]"
        }
      ],
      "name": "getDataBatchForTokenIds",
      "outputs": [
        {
          "internalType": "bytes[]",
          "name": "dataValues",
          "type": "bytes[]"
        }
      ],
      "stateMutability": "view",
      "type": "function"
    },
    {
      "inputs": [
        {
          "internalType": "bytes32",
          "name": "tokenId",
          "type": "bytes32"
        },
        {
          "internalType": "bytes32",
          "name": "dataKey",
          "type": "bytes32"
        }
      ],
      "name": "getDataForTokenId",
      "outputs": [
        {
          "internalType": "bytes",
          "name": "dataValue",
          "type": "bytes"
        }
      ],
      "stateMutability": "view",
      "type": "function"
    },
    {
      "inputs": [
        {
          "internalType": "bytes32",
          "name": "tokenId",
          "type": "bytes32"
        }
      ],
      "name": "getOperatorsOf",
      "outputs": [
        {
          "internalType": "address[]",
          "name": "",
          "type": "address[]"
        }
      ],
      "stateMutability": "view",
      "type": "function"
    },
    {
      "inputs": [
        {
          "internalType": "address",
          "name": "operator",
          "type": "address"
        },
        {
          "internalType": "bytes32",
          "name": "tokenId",
          "type": "bytes32"
        }
      ],
      "name": "isOperatorFor",
      "outputs": [
        {
          "internalType": "bool",
          "name": "",
          "type": "bool"
        }
      ],
      "stateMutability": "view",
      "type": "function"
    },
    {
      "inputs": [
        {
          "internalType": "address",
          "name": "to",
          "type": "address"
        },
        {
          "internalType": "string",
          "name": "tokenURI_",
          "type": "string"
        }
      ],
      "name": "mintItem",
      "outputs": [
        {
          "internalType": "bytes32",
          "name": "",
          "type": "bytes32"
        }
      ],
      "stateMutability": "nonpayable",
      "type": "function"
    },
    {
      "inputs": [],
      "name": "owner",
      "outputs": [
        {
          "internalType": "address",
          "name": "",
          "type": "address"
        }
      ],
      "stateMutability": "view",
      "type": "function"
    },
    {
      "inputs": [],
      "name": "renounceOwnership",
      "outputs": [],
      "stateMutability": "nonpayable",
      "type": "function"
    },
    {
      "inputs": [
        {
          "internalType": "address",
          "name": "operator",
          "type": "address"
        },
        {
          "internalType": "bytes32",
          "name": "tokenId",
          "type": "bytes32"
        },
        {
          "internalType": "bool",
          "name": "notify",
          "type": "bool"
        },
        {
          "internalType": "bytes",
          "name": "operatorNotificationData",
          "type": "bytes"
        }
      ],
      "name": "revokeOperator",
      "outputs": [],
      "stateMutability": "nonpayable",
      "type": "function"
    },
    {
      "inputs": [
        {
          "internalType": "bytes32",
          "name": "key",
          "type": "bytes32"
        },
        {
          "internalType": "bytes",
          "name": "value",
          "type": "bytes"
        }
      ],
      "name": "setData",
      "outputs": [],
      "stateMutability": "payable",
      "type": "function"
    },
    {
      "inputs": [
        {
          "internalType": "bytes32[]",
          "name": "keys",
          "type": "bytes32[]"
        },
        {
          "internalType": "bytes[]",
          "name": "values",
          "type": "bytes[]"
        }
      ],
      "name": "setDataBatch",
      "outputs": [],
      "stateMutability": "payable",
      "type": "function"
    },
    {
      "inputs": [
        {
          "internalType": "bytes32[]",
          "name": "tokenIds",
          "type": "bytes32[]"
        },
        {
          "internalType": "bytes32[]",
          "name": "dataKeys",
          "type": "bytes32[]"
        },
        {
          "internalType": "bytes[]",
          "name": "dataValues",
          "type": "bytes[]"
        }
      ],
      "name": "setDataBatchForTokenIds",
      "outputs": [],
      "stateMutability": "nonpayable",
      "type": "function"
    },
    {
      "inputs": [
        {
          "internalType": "bytes32",
          "name": "tokenId",
          "type": "bytes32"
        },
        {
          "internalType": "bytes32",
          "name": "dataKey",
          "type": "bytes32"
        },
        {
          "internalType": "bytes",
          "name": "dataValue",
          "type": "bytes"
        }
      ],
      "name": "setDataForTokenId",
      "outputs": [],
      "stateMutability": "nonpayable",
      "type": "function"
    },
    {
      "inputs": [
        {
          "internalType": "bytes32",
          "name": "tokenId",
          "type": "bytes32"
        },
        {
          "internalType": "string",
          "name": "newTokenURI",
          "type": "string"
        }
      ],
      "name": "setTokenURI",
      "outputs": [],
      "stateMutability": "nonpayable",
      "type": "function"
    },
    {
      "inputs": [
        {
          "internalType": "bytes4",
          "name": "interfaceId",
          "type": "bytes4"
        }
      ],
      "name": "supportsInterface",
      "outputs": [
        {
          "internalType": "bool",
          "name": "",
          "type": "bool"
        }
      ],
      "stateMutability": "view",
      "type": "function"
    },
    {
      "inputs": [
        {
          "internalType": "address",
          "name": "tokenOwner",
          "type": "address"
        }
      ],
      "name": "tokenIdsOf",
      "outputs": [
        {
          "internalType": "bytes32[]",
          "name": "",
          "type": "bytes32[]"
        }
      ],
      "stateMutability": "view",
      "type": "function"
    },
    {
      "inputs": [
        {
          "internalType": "bytes32",
          "name": "tokenId",
          "type": "bytes32"
        }
      ],
      "name": "tokenOwnerOf",
      "outputs": [
        {
          "internalType": "address",
          "name": "",
          "type": "address"
        }
      ],
      "stateMutability": "view",
      "type": "function"
    },
    {
      "inputs": [
        {
          "internalType": "bytes32",
          "name": "tokenId",
          "type": "bytes32"
        }
      ],
      "name": "tokenURI",
      "outputs": [
        {
          "internalType": "string",
          "name": "",
          "type": "string"
        }
      ],
      "stateMutability": "view",
      "type": "function"
    },
    {
      "inputs": [],
      "name": "totalSupply",
      "outputs": [
        {
          "internalType": "uint256",
          "name": "",
          "type": "uint256"
        }
      ],
      "stateMutability": "view",
      "type": "function"
    },
    {
      "inputs": [
        {
          "internalType": "address",
          "name": "from",
          "type": "address"
        },
        {
          "internalType": "address",
          "name": "to",
          "type": "address"
        },
        {
          "internalType": "bytes32",
          "name": "tokenId",
          "type": "bytes32"
        },
        {
          "internalType": "bool",
          "name": "force",
          "type": "bool"
        },
        {
          "internalType": "bytes",
          "name": "data",
          "type": "bytes"
        }
      ],
      "name": "transfer",
      "outputs": [],
      "stateMutability": "nonpayable",
      "type": "function"
    },
    {
      "inputs": [
        {
          "internalType": "address[]",
          "name": "from",
          "type": "address[]"
        },
        {
          "internalType": "address[]",
          "name": "to",
          "type": "address[]"
        },
        {
          "internalType": "bytes32[]",
          "name": "tokenId",
          "type": "bytes32[]"
        },
        {
          "internalType": "bool[]",
          "name": "force",
          "type": "bool[]"
        },
        {
          "internalType": "bytes[]",
          "name": "data",
          "type": "bytes[]"
        }
      ],
      "name": "transferBatch",
      "outputs": [],
      "stateMutability": "nonpayable",
      "type": "function"
    },
    {
      "inputs": [
        {
          "internalType": "address",
          "name": "newOwner",
          "type": "address"
        }
      ],
      "name": "transferOwnership",
      "outputs": [],
      "stateMutability": "nonpayable",
      "type": "function"
    },
    {
      "stateMutability": "payable",
      "type": "receive"
    }
  ],
  "transactionHash": "0x142f1b32d33a40347d33ccff12e0ad5ade572453ae42febde0cb64875ba158f9",
  "args": [
    "SVG NFT Collection",
    "SVGNFT",
    "0x02224842340dA3392cae9df5cbA5D777C33Fe299"
  ],
  "numDeployments": 1,
  "solcInputHash": "908a5dca462900023178727c510cebb2",
  "bytecode": "0x6080604081815234620008c7576200377c8038038091620000218286620008fe565b8439820190606083830312620008c75782516001600160401b039290838111620008c757816200005391860162000947565b9360209182820151858111620008c75784916200007291840162000947565b9101516001600160a01b038116808203620008c7576200009233620009d0565b15620008b657620000a390620009d0565b825194620000b186620008cc565b600490818752632936598960e21b848801527feafec4d89fa9619884b60000a4d96624a38f7ac2d8d9a604ecf07c12c77e480c600093818552600192838752878620928a519a8a8c1162000616578454948686811c96168015620008ab575b8a871014620005f8578c601f9687811162000861575b50508c868b9111600114620007f9579c80620001889b9c9d9e8b91620007ed575b50600019600383901b1c191690881b1790555b8a51807fece574603820d07bc9b91f2a932baadf4628aabcb8afba49776529c14a6104b29a8b9382620009a2565b0390a27fdeba1e292f8ba88238e10ab3c7f88bd4be4fac56cad5194b6ecceaf653468af190818752848952898720908051918c8311620007da5780548781811c91168015620007cf575b8c821014620007bc57908b82888d95941162000764575b50508b93878111600114620006e957806200022694958c91620006dd575b50600019600383901b1c191690891b1790555b8b5191829182620009a2565b0390a27f2f0a68ab07768e01943a599e73362a0e17a63a72e94dd2e384d2c1d4db93275690818652838852888620908051918b8311620006165780548681811c91168015620006d2575b8b821014620005f8579081868b9493116200067d575b508a93868111600114620006295780620002c294958b9162000528575b50600019600383901b1c191690881b1790555b8a5191829182620009a2565b0390a286518287820152868152620002da81620008cc565b7fe0261fa95db2eb3b5439bd033cda66d56b96f92f243a8228fd87550ed7bdfdb390818652838852888620908051918b8311620006165780548681811c911680156200060b575b8b821014620005f8579081868b949311620005a3575b508a938681116001146200053457806200037194958b91620005285750600019600383901b1c191690881b1790558a5191829182620009a2565b0390a286519380878601528685526200038a85620008cc565b7ff675e9361af1c1664c1868cfa3eb97672d6b1a513aa5b81dec34c9ee330e818d968782528381528882209486519a8b1162000515578554908582811c921680156200050a575b83831014620004f7575080848c9211620004ad575b505080928a116001146200044357509780928192620004269798999a9362000437575b501b916000199060031b1c19161790555b845191829182620009a2565b0390a251612d64908162000a188239f35b86015192503862000409565b9891601f1983169985835280832092905b8b82106200049557505082620004269798999a106200047b575b5050811b0190556200041a565b85015160001960f88460031b161c1916905538806200046e565b808684958294958b0151815501940192019062000454565b86845284838520918482850160051c84019410620004ed575b0160051c019085905b828110620004e157508b9150620003e6565b848155018590620004cf565b92508192620004c6565b634e487b7160e01b845260229052602483fd5b91607f1691620003d1565b634e487b7160e01b835260419052602482fd5b905083015138620002a3565b818a528b8a2094889190601f1982168c8f5b82821062000587575050908262000371979892106200056d575b5050811b019055620002b6565b85015160001960f88460031b161c19169055388062000560565b878401518a5598909401978e97508b9492810192018f62000546565b908092935089528a89208680860160051c8201928d8710620005ee575b9189918d969594930160051c01915b828110620005df57505062000337565b8b81558c9550899101620005cf565b92508192620005c0565b634e487b7160e01b895260228852602489fd5b90607f169062000321565b634e487b7160e01b885260418752602488fd5b818a528b8a2094889190601f1982168c8f5b828210620006615750509082620002c2979892106200056d575050811b019055620002b6565b878401518a5598909401978e97508b9492810192018f6200063b565b908092935089528a89208680860160051c8201928d8710620006c8575b9189918d969594930160051c01915b828110620006b957505062000286565b8b81558c9550899101620006a9565b925081926200069a565b90607f169062000270565b90508301513862000207565b88908b958e601f1983169085895280892098905b8282106200073e5750509082620002269798921062000724575b5050811b0190556200021a565b85015160001960f88460031b161c19169055388062000717565b929597509386988684939598015181550194019201918d95939694918f938c94620006fd565b9091809394508b5287828c209181870160051c8301938710620007b2575b918a918e969594930160051c01915b828110620007a357508d9150620001e9565b8c81558d95508a910162000791565b9250819262000782565b634e487b7160e01b8a526022895260248afd5b90607f1690620001d2565b634e487b7160e01b895260418852602489fd5b90508301513862000147565b818a528a8a2090601f198f168b5b8181106200084b575091620001889c9d9e9f91828b941062000831575b5050811b0190556200015a565b85015160001960f88460031b161c19169055388062000824565b858301518455928a0192918d01918d0162000807565b828b52878c8c20918d82850160051c84019410620008a1575b0160051c019088905b8281106200089557508e915062000126565b8b815501889062000883565b925081926200087a565b95607f169562000110565b83516306b620db60e21b8152600490fd5b600080fd5b604081019081106001600160401b03821117620008e857604052565b634e487b7160e01b600052604160045260246000fd5b601f909101601f19168101906001600160401b03821190821017620008e857604052565b60005b838110620009365750506000910152565b818101518382015260200162000925565b81601f82011215620008c75780516001600160401b038111620008e857604051926200097e601f8301601f191660200185620008fe565b81845260208284010111620008c7576200099f916020808501910162000922565b90565b60409160208252620009c4815180928160208601526020868601910162000922565b601f01601f1916010190565b600080546001600160a01b039283166001600160a01b03198216811783559216907f8be0079c531659141344cd1fd0a4f28419497f9722a3daafe3b4186f6b6457e09080a356fe60806040526004361015610033575b3615610026575b61001e36611645565b602081519101f35b61002e611691565b610015565b60003560e01c806301ffc9a71461024f57806308a1eee114610246578063110bcd451461023d57806316e023b31461023457806318160ddd1461022b5780631d26fce614610222578063217b2270146102195780632a3654a41461021057806349a6078d14610207578063511b6952146101fe57806354f6127f146101f55780636963d438146101ec57806370a08231146101e3578063715018a6146101da5780637e87632c146101d15780637f23690c146101c857806386a10ddd146101bf5780638da5cb5b146101b657806397902421146101ad578063a3b261f2146101a4578063afbb8d511461019b578063be9f0e6f14610192578063d6c1407c14610189578063db8c966314610180578063dcaa533314610177578063dedff9c61461016e5763f2fde38b0361000e57610169611581565b61000e565b506101696114f9565b5061016961136e565b50610169611298565b50610169611251565b50610169611161565b506101696110be565b50610169611043565b50610169610f7e565b50610169610f54565b50610169610e0b565b50610169610db4565b50610169610d1a565b50610169610b66565b50610169610b2b565b50610169610ac5565b50610169610aa5565b50610169610a3f565b50610169610998565b50610169610966565b50610169610935565b5061016961086b565b50610169610766565b5061016961072f565b50610169610565565b50610169610308565b5034610303576020366003190112610303576004356001600160e01b03198116808203610303576102a791631d138b8360e11b82149182156102bb575b5081156102ab575b5060405190151581529081906020820190565b0390f35b6102b591506119a4565b38610294565b90915063a918fa6b60e01b81149081156102d8575b50903861028c565b6318a6a9a560e21b8114915081156102f2575b50386102d0565b6301ffc9a760e01b149050386102eb565b600080fd5b5034610303576020366003190112610303576104396104346004356103356103308233612bb4565b612b0d565b61042461041160405161034781610475565b6000815261035484611a3b565b5061041f61036185611a3b565b91600254801561043b575b6000190160025561037d86846120b8565b6001600160a01b03831660009081526004602052604090206103a59087906128de565b6128de565b506103cd6103bd876000526003602052604060002090565b80546001600160a01b0319169055565b60405186906000906001600160a01b03861690600080516020612d0f83398151915290806103fc873383611f92565b0390a46040519384918785336020860161200e565b03601f1981018452836104d3565b6125dd565b6000526007602052604060002090565b612b68565b005b610443612887565b61036c565b600435906001600160a01b038216820361030357565b50634e487b7160e01b600052604160045260246000fd5b602081019081106001600160401b0382111761049057604052565b61049861045e565b604052565b604081019081106001600160401b0382111761049057604052565b606081019081106001600160401b0382111761049057604052565b90601f801991011681019081106001600160401b0382111761049057604052565b6020906001600160401b038111610511575b601f01601f19160190565b61051961045e565b610506565b81601f8201121561030357803590610535826104f4565b9261054360405194856104d3565b8284526020838301011161030357816000926020809301838601378301015290565b50346103035760403660031901126103035761057f610448565b6001600160401b0390602435828111610303576105a090369060040161051e565b906006549160018084018094116106c6575b836006558360005260206007815260406000209280519687116106b9575b6105e4876105de8654611892565b866121ef565b81601f88116001146106435750958061062895949381936102a799600094610638575b50501b916000199060031b1c19161790555b82610622611706565b91612a29565b6040519081529081906020820190565b015192503880610607565b9190601f19881661065986600052602060002090565b936000905b8282106106a2575050916106289695949391896102a79a9410610689575b505050811b019055610619565b015160001960f88460031b161c1916905538808061067c565b80878697829497870151815501960194019061065e565b6106c161045e565b6105d0565b6106ce612887565b6105b2565b60005b8381106106e65750506000910152565b81810151838201526020016106d6565b9060209161070f815180928185528580860191016106d3565b601f01601f1916010190565b90602061072c9281815201906106f6565b90565b5034610303576040366003190112610303576102a7610752602435600435612460565b6040519182916020835260208301906106f6565b5034610303576000366003190112610303576020600254604051908152f35b6020906001600160401b03811161079e575b60051b0190565b6107a661045e565b610797565b81601f82011215610303578035916107c283610785565b926107d060405194856104d3565b808452602092838086019260051b820101928311610303578301905b8282106107fa575050505090565b813581529083019083016107ec565b602080820190808352835180925260408301928160408460051b8301019501936000915b84831061083d5750505050505090565b909192939495848061085b600193603f198682030187528a516106f6565b980193019301919493929061082d565b5034610303576040366003190112610303576001600160401b036004358181116103035761089d9036906004016107ab565b90602435908111610303576108b69036906004016107ab565b908051825103610923576108ca8151611a5e565b9160005b825181101561091557806108f96108e760019386611abf565b516108f28386611abf565b5190612460565b6109038287611abf565b5261090e8186611abf565b50016108ce565b604051806102a78682610809565b6040516317d38eff60e11b8152600490fd5b5034610303576020366003190112610303576020610954600435611a3b565b6040516001600160a01b039091168152f35b503461030357604036600319011261030357602061098e610985610448565b60243590611c61565b6040519015158152f35b503461030357602080600319360112610303576001600160a01b0390600435826109c182611a3b565b1615610a1857600052600581526109db60406000206129ab565b604051918083018184528251809152816040850193019160005b828110610a025785850386f35b83518716855293810193928101926001016109f5565b60249060405190635747cd1b60e11b82526004820152fd5b60443590811515820361030357565b50346103035760a036600319011261030357610a59610448565b6024356001600160a01b038116810361030357606435801515810361030357608435926001600160401b03841161030357610a9b61043994369060040161051e565b9260443591611cac565b5034610303576020366003190112610303576102a7610752600435611962565b5034610303576020366003190112610303576001600160401b036004358181116103035736602382011215610303578060040135918211610303573660248360051b83010111610303576102a7916024610b1f9201611b30565b60405191829182610809565b5034610303576020366003190112610303576001600160a01b03610b4d610448565b1660005260046020526020604060002054604051908152f35b503461030357600080600319360112610bc257610b81612705565b80546001600160a01b03198116825581906001600160a01b03167f8be0079c531659141344cd1fd0a4f28419497f9722a3daafe3b4186f6b6457e08280a380f35b80fd5b81601f8201121561030357803591610bdc83610785565b92610bea60405194856104d3565b808452602092838086019260051b820101928311610303578301905b828210610c14575050505090565b81356001600160a01b0381168103610303578152908301908301610c06565b81601f8201121561030357803591610c4a83610785565b92610c5860405194856104d3565b808452602092838086019260051b820101928311610303578301905b828210610c82575050505090565b81358015158103610303578152908301908301610c74565b9080601f8301121561030357813590610cb282610785565b92610cc060405194856104d3565b828452602092838086019160051b8301019280841161030357848301915b848310610cee5750505050505090565b82356001600160401b038111610303578691610d0f8484809489010161051e565b815201920191610cde565b50346103035760a03660031901126103035760046001600160401b03813581811161030357610d4c9036908401610bc5565b9060243581811161030357610d649036908501610bc5565b60443582811161030357610d7b90369086016107ab565b9060643583811161030357610d939036908701610c33565b926084359081116103035761043995610dae91369101610c9a565b93611e2d565b506040366003190112610303576024356001600160401b03811161030357610de090369060040161051e565b610de8612705565b34610df95761043990600435612be2565b60405163f36ba73760e01b8152600490fd5b503461030357606036600319011261030357610e25610448565b602435906044356001600160401b03811161030357610e4890369060040161051e565b90610e5283611a3b565b6001600160a01b0381811691338303610f35575082168015610f2357808214610f1157610e99610e9584610e90886000526005602052604060002090565b6129fa565b1590565b610ef1579380610eec92610439967f1b1b58aa2ec0cec2228b2d37124556d41f5a1f7b12f089171f896cc23667121560405180610ed68a8261071b565b0390a46104116040519485923360208501611c0b565b612532565b6040516314ec4d6d60e31b815280610f0d878660048401611bf0565b0390fd5b6040516344fed6b160e11b8152600490fd5b604051639577b8b360e01b8152600490fd5b85610f0d604051928392632d938f5160e11b8452339160048501611bcd565b5034610303576000366003190112610303576000546040516001600160a01b039091168152602090f35b5060403660031901126103035760046001600160401b03813581811161030357610fab90369084016107ab565b9060243590811161030357610fc39036908401610c9a565b91610fcc612705565b3461103457815183510361102557815115611016575060005b81518110156104395780611010610ffe60019385611abf565b516110098387611abf565b5190612be2565b01610fe5565b6040516397da5f9560e01b8152fd5b604051633bcc897960e01b8152fd5b60405163f36ba73760e01b8152fd5b503461030357602080600319360112610303576001600160a01b03611066610448565b166000526004815261107b60406000206129ab565b906040519181839283018184528251809152816040850193019160005b8281106110a757505050500390f35b835185528695509381019392810192600101611098565b5034610303576020366003190112610303576004356001600160a01b036110e482611a3b565b161561111f5760005260076020526102a761110c6111136040600020604051928380926118cc565b03826104d3565b6040519182918261071b565b60405162461bcd60e51b815260206004820152601a6024820152791314d40e0e88151bdad95b88191bd95cc81b9bdd08195e1a5cdd60321b6044820152606490fd5b50346103035760603660031901126103035760046001600160401b0381358181116103035761119390369084016107ab565b602435828111610303576111aa90369085016107ab565b91604435908111610303576111c29036908501610c9a565b926111cb612705565b8151835180911490811591611245575b5061123657815115611227575060005b8151811015610439578061122161120460019385611abf565b5161120f8387611abf565b5161121a8489611abf565b5191612310565b016111eb565b6040516380c9830560e01b8152fd5b6040516317d38eff60e11b8152fd5b905084511415386111db565b5034610303576060366003190112610303576044356001600160401b0381116103035761128561043991369060040161051e565b61128d612705565b602435600435612310565b5034610303576080366003190112610303576112b2610448565b6024356112bd610a30565b916064356001600160401b038111610303576112dd90369060040161051e565b6112e683611a3b565b936001600160a01b038086169033829003611337575b8416908115610f235714610f11576113178282868887611efd565b61131d57005b61043993610411610eec9260405195869360208501611c36565b84811633146112fc5760405163760b5acd60e01b81523360048201526001600160a01b038816602482015260448101879052606490fd5b5034610303576040366003190112610303576001600160401b03600435602435828111610303576113a390369060040161051e565b916001600160a01b036113b583611a3b565b16156114a9576113c86103308333612bb4565b6000918252602090600782526040832091845191821161149c575b6113f7826113f18554611892565b856121ef565b80601f83116001146114315750839482939492611426575b50508160011b916000199060031b1c191617905580f35b01519050388061140f565b90601f1983169561144785600052602060002090565b9286905b8882106114845750508360019596971061146b575b505050811b01905580f35b015160001960f88460031b161c19169055388080611460565b8060018596829496860151815501950193019061144b565b6114a461045e565b6113e3565b60405162461bcd60e51b815260206004820152602260248201527f4c5350383a2055524920736574206f66206e6f6e6578697374656e7420746f6b60448201526132b760f11b6064820152608490fd5b5034610303576020366003190112610303576004356001600160401b0381116103035761152a9036906004016107ab565b6115348151611a5e565b9060005b8151811015611573578061155761155160019385611abf565b51611962565b6115618286611abf565b5261156c8185611abf565b5001611538565b604051806102a78582610809565b50346103035760203660031901126103035761159b610448565b6115a3612705565b6001600160a01b0390811680156115f157600080546001600160a01b03198116831782559092167f8be0079c531659141344cd1fd0a4f28419497f9722a3daafe3b4186f6b6457e08380a380f35b60405162461bcd60e51b815260206004820152602660248201527f4f776e61626c653a206e6577206f776e657220697320746865207a65726f206160448201526564647265737360d01b6064820152608490fd5b600436106116565761072c90611749565b6044604051809263e5099ee360e01b825260206004830152806024830152806000848401376000828201840152601f01601f19168101030190fd5b5034156116aa576040516330fa4a2160e11b8152600490fd5b606460405163e5099ee360e01b8152602060048201526004602482015260006044820152fd5b908092918237016000815290565b9060349391816000823760609390931b6001600160601b031916920191825260148201520190565b6040519061171382610475565b60008252565b3d15611744573d9061172a826104f4565b9161173860405193846104d3565b82523d6000602084013e565b606090565b60609063ffffffff60e01b6000351691611799611794604051696773c5a04a6d4300884b60b11b60208201526000602a82015285602c8201526020815261178f8161049d565b611981565b611962565b805160148114159081611853575b5061182e576117b59061185d565b901c91821561180a575060009182916040516117eb816117dd602082019434903390876116de565b03601f1981018352826104d3565b519134905af16117f9611719565b90156118025790565b602081519101fd5b60405163bb370b2b60e01b81526001600160e01b0319919091166004820152602490fd5b6040516342bfe79f60e01b815260206004820152908190610f0d9060248301906106f6565b90501515386117a7565b80516020909101516001600160601b031980821693929091906014811061188357505050565b60140360031b82901b16169150565b90600182811c921680156118c2575b60208310146118ac57565b634e487b7160e01b600052602260045260246000fd5b91607f16916118a1565b90600092918054916118dd83611892565b91828252600193848116908160001461193f57506001146118ff575b50505050565b90919394506000526020928360002092846000945b83861061192b5750505050010190388080806118f9565b805485870183015294019385908201611914565b9294505050602093945060ff191683830152151560051b010190388080806118f9565b600052600160205261110c61072c6040600020604051928380926118cc565b602081519101519060208110611995575090565b6000199060200360031b1b1690565b6119e1611794604051696773c5a04a6d4300884b60b11b60208201526000602a8201526301ffc9a760e01b602c8201526020815261178f8161049d565b805160148114159081611a17575b5061182e576119fd9061185d565b60601c908115611a105761072c916127ba565b5050600090565b90501515386119ef565b6001600160a01b0316600090815260046020526040902090565b6000818152600360205260409020546001600160a01b0316908115610a18575090565b90611a6882610785565b611a7560405191826104d3565b8281528092611a86601f1991610785565b019060005b828110611a9757505050565b806060602080938501015201611a8b565b50634e487b7160e01b600052603260045260246000fd5b6020918151811015611ad4575b60051b010190565b611adc611aa8565b611acc565b9190811015611b23575b60051b81013590601e19813603018212156103035701908135916001600160401b038311610303576020018236038113610303579190565b611b2b611aa8565b611aeb565b9190611b3b81611a5e565b92600091825b818110611b4e5750505050565b8380611b5b838587611ae1565b60409391611b6d8551809381936116d0565b0390305af490611b7b611719565b9115611ba2575090600191611b908289611abf565b52611b9b8188611abf565b5001611b41565b815191929115611bb457825160208401fd5b5163234eb81960e01b8152600481019190915260249150fd5b6001600160a01b0391821681526020810192909252909116604082015260600190565b6001600160a01b039091168152602081019190915260400190565b61072c939260809260018060a01b0316825260208201526001604082015281606082015201906106f6565b61072c939260809260018060a01b0316825260208201526000604082015281606082015201906106f6565b6001600160a01b0380611c7384611a3b565b169116908114918215611c8557505090565b61072c92506000526005602052604060002060019160005201602052604060002054151590565b90929391611cba8133611c61565b15611e0f57611cc881611a3b565b6001600160a01b038181169184821691828403611df257808816938415611de057611cf286611a3b565b91821603611db05750509261041f8380611dae9997946104119997611d1a611da998876120b8565b611d27836103a088611a21565b50611d3a83611d358b611a21565b612812565b50611d7289611d53856000526003602052604060002090565b80546001600160a01b0319166001600160a01b03909216919091179055565b604051600080516020612d0f8339815191529080611d928a8e3384611fe4565b0390a460405197889485928886336020870161207e565b612679565b565b604051635a9c31d360e01b8152600481018690526001600160a01b03928316602482015291166044820152606490fd5b6040516324ecef4d60e01b8152600490fd5b604051632d938f5160e11b815280610f0d88888660048501611bcd565b60449060405190631294d2a960e01b82526004820152336024820152fd5b949390919285519383518514801590611ef2575b8015611ee7575b8015611edc575b611eca5760005b858110611e67575050505050509050565b80611ec4611e87611e7a6001948c611abf565b516001600160a01b031690565b611e94611e7a848a611abf565b611e9e8487611abf565b51611eb2611eac868a611abf565b51151590565b91611ebd868b611abf565b5193611cac565b01611e56565b6040516393a8311960e01b8152600490fd5b508251851415611e4f565b508151851415611e48565b508051851415611e41565b91939284600052600560205260406000209260018060a01b0390611f2482821680966128de565b15611f73575090611f6e7fc78cd419d6136f9f1c1c6aec1d3fae098cffaf8bc86314a8f2685e32fe574e3c93926040519384931515845260406020850152169560408301906106f6565b0390a4565b6040516312a8c6a360e21b8152908190610f0d90899060048401611bf0565b6001600160a01b0390911681526000602082015260606040820181905261072c929101906106f6565b6001600160a01b0390911681526001602082015260606040820181905261072c929101906106f6565b6001600160a01b039091168152901515602082015260606040820181905261072c929101906106f6565b6001600160a01b0391821681529116602082015260006040820152606081019190915260a06080820181905261072c929101906106f6565b6001600160a01b0391821681526000602082015291166040820152606081019190915260a06080820181905261072c929101906106f6565b6001600160a01b03918216815291811660208301529091166040820152606081019190915260a06080820181905261072c929101906106f6565b9060009080825260059160209383855260409182812094855495825b8781106120e657505050505050505050565b81541561218e575b8184528884205486516001600160a01b039182169161210c82610475565b868252898752858c52612121838a89206128de565b1561217357600193927fc78cd419d6136f9f1c1c6aec1d3fae098cffaf8bc86314a8f2685e32fe574e3c8d8961216a8e968e968e888051968796875286015216968301906106f6565b0390a4016120d4565b88516312a8c6a360e21b815280610f0d8c8660048401611bf0565b612196611aa8565b6120ee565b9190604051926020840152604083015260408252611dae826104b8565b916121d49183549060031b600019811b9283911b169119161790565b9055565b8181106121e3575050565b600081556001016121d8565b9190601f81116121fe57505050565b611dae926000526020600020906020601f840160051c8301931061222a575b601f0160051c01906121d8565b909150819061221d565b91909182516001600160401b038111612303575b61225c816122568454611892565b846121ef565b602080601f831160011461229857508192939460009261228d575b50508160011b916000199060031b1c1916179055565b015190503880612277565b90601f198316956122ae85600052602060002090565b926000905b8882106122eb575050836001959697106122d2575b505050811b019055565b015160001960f88460031b161c191690553880806122c8565b806001859682949686015181550195019301906122b3565b61230b61045e565b612248565b909161231c838361219b565b80516020809201206000526001908181526040600020918351916001600160401b038311612453575b612353836105de8654611892565b80601f84116001146123bf57509180806123af95937fa6e4251f855f750545fe414f120db91c76b88def14d120969e5bb2d3f05debbb97956000936123b4575b501b916000199060031b1c19161790556040519182918261071b565b0390a3565b860151925038612393565b90601f9392931983166123d786600052602060002090565b926000905b82821061243c5750509183916123af96947fa6e4251f855f750545fe414f120db91c76b88def14d120969e5bb2d3f05debbb98969410612423575b5050811b019055611113565b85015160001960f88460031b161c191690553880612417565b808785968294968c015181550195019301906123dc565b61245b61045e565b612345565b9061246a9161219b565b60208151910120600052600160205261110c61072c6040600020604051928380926118cc565b602081830312610303578051906001600160401b038211610303570181601f820112156103035780516124c2816104f4565b926124d060405194856104d3565b818452602082840101116103035761072c91602080850191016106d3565b90604061072c927f0b084a55ebf70fd3c06fd755269dac2212c4d3f0f4d09079780bfa50c1b2984d815281602082015201906106f6565b506040513d6000823e3d90fd5b61253b8161275d565b612543575050565b612596600092918392604051948580948193631aed5a8560e21b83527f8a1c15a8799f71b547e08e2bcb2e85257e81b0a07eee2ce6712549eef1f0097060048401526040602484015260448301906106f6565b03926001600160a01b03165af180156125d0575b6125b15750565b6125cd903d806000833e6125c581836104d3565b810190612490565b50565b6125d8612525565b6125aa565b6125e68161275d565b6125ee575050565b612596600092918392604051948580948193631aed5a8560e21b83527fb23eae7e6d1564b295b4c3e3be402d9a2f0776c57bdf365903496f6fa481ab0060048401526040602484015260448301906106f6565b61264a8161275d565b1561267557604051631aed5a8560e21b815291600091839182908490829061259690600483016124ee565b5050565b91906126848361275d565b156126ae57506125966000928392604051948580948193631aed5a8560e21b8352600483016124ee565b9050156126b85750565b803b156126e257604051634349776d60e01b81526001600160a01b03919091166004820152602490fd5b604051630317313760e01b81526001600160a01b03919091166004820152602490fd5b6000546001600160a01b0316330361271957565b606460405162461bcd60e51b815260206004820152602060248201527f4f776e61626c653a2063616c6c6572206973206e6f7420746865206f776e65726044820152fd5b6000602091604051838101906301ffc9a760e01b8252631aed5a8560e21b60248201526024815261278d816104b8565b5191617530fa6000513d826127ae575b50816127a7575090565b9050151590565b6020111591503861279d565b600090602092604051848101916301ffc9a760e01b835263ffffffff60e01b1660248201526024815261278d816104b8565b8054821015612805575b60005260206000200190600090565b61280d611aa8565b6127f6565b6000828152600182016020526040902054611a1057808261286361284a600194548560401b81101561287a575b8581018555846127ec565b819391549060031b600019811b9283911b169119161790565b905580549260005201602052604060002055600190565b61288261045e565b61283f565b50634e487b7160e01b600052601160045260246000fd5b80549081156128c857600019918201916128b883836127ec565b909182549160031b1b1916905555565b634e487b7160e01b600052603160045260246000fd5b60018101918060005282602052604060002054928315156000146129a25761293061293f936000958619808201828111612995575b8354918201918211612988575b808203612945575b50505061289e565b90600052602052604060002090565b55600190565b61296f6129699161295961297f94876127ec565b90549060031b1c928391876127ec565b906121b8565b8590600052602052604060002090565b55388080612928565b612990612887565b612920565b61299d612887565b612913565b50505050600090565b9060405191828154918282526020928383019160005283600020936000905b8282106129e057505050611dae925003836104d3565b8554845260019586019588955093810193909101906129ca565b61072c916001600160a01b031690612812565b6001906000198114612a1d570190565b612a25612887565b0190565b909291906001600160a01b03808216908115611de05780612a4987611a3b565b16612af457612a5786611a3b565b16612adb5784611dae9495612ad692612a79612a74600254612a0d565b600255565b612a8682611d3587611a21565b50612a9f85611d53846000526003602052604060002090565b6000600080516020612d0f83398151915260405180612abf8a3383611fbb565b0390a4610411604051948592853360208601612046565b612641565b6040516334c7b51160e01b815260048101869052602490fd5b6040516334c7b51160e01b815260048101879052602490fd5b15612b1457565b60405162461bcd60e51b815260206004820152602660248201527f4c5350383a2043616c6c6572206973206e6f74206f776e6572206e6f722061706044820152651c1c9bdd995960d21b6064820152608490fd5b612b728154611892565b9081612b7c575050565b81601f60009311600114612b8e575055565b81835260208320612baa91601f0160051c8101906001016121d8565b8160208120915555565b906001600160a01b0380612bc783611a3b565b1690831614918215612bd857505090565b61072c9250611c61565b907ff675e9361af1c1664c1868cfa3eb97672d6b1a513aa5b81dec34c9ee330e818d8214612cfc577fdeba1e292f8ba88238e10ab3c7f88bd4be4fac56cad5194b6ecceaf653468af18203612c43576040516385c169bd60e01b8152600490fd5b7f2f0a68ab07768e01943a599e73362a0e17a63a72e94dd2e384d2c1d4db9327568203612c7c57604051630eceab6760e31b8152600490fd5b7fe0261fa95db2eb3b5439bd033cda66d56b96f92f243a8228fd87550ed7bdfdb38203612cb557604051634ef6d7fb60e01b8152600490fd5b612cf7816111137fece574603820d07bc9b91f2a932baadf4628aabcb8afba49776529c14a6104b293612cf2866000526001602052604060002090565b612234565b0390a2565b604051631b32400560e11b8152600490fdfeb333c813a7426a7a11e2b190cad52c44119421594b47f6f32ace6d8c7207b2bfa26469706673582212202189d3bb5c5fcfb637e7b148f3527c7eadfee6167c03a88e64d815aa4b38558964736f6c63430008110033",
  "devdoc": {
    "details": "LSP8 Token contract for creating unique digital collectibles on LUKSO",
    "errors": {
      "ERC725Y_DataKeysValuesEmptyArray()": [
        {
          "details": "Reverts when one of the array parameter provided to {setDataBatch} function is an empty array."
        }
      ],
      "ERC725Y_DataKeysValuesLengthMismatch()": [
        {
          "details": "Reverts when there is not the same number of elements in the `datakeys` and `dataValues` array parameters provided when calling the {setDataBatch} function."
        }
      ],
      "ERC725Y_MsgValueDisallowed()": [
        {
          "details": "Reverts when sending value to the {setData} or {setDataBatch} function."
        }
      ],
      "InvalidExtensionAddress(bytes)": [
        {
          "details": "reverts when the bytes retrieved from the LSP17 data key is not a valid address (not 20 bytes)"
        }
      ],
      "InvalidFunctionSelector(bytes)": [
        {
          "details": "reverts when the contract is called with a function selector not valid (less than 4 bytes of data)"
        }
      ],
      "LSP4TokenNameNotEditable()": [
        {
          "details": "Reverts when trying to edit the data key `LSP4TokenName` after the digital asset contract has been deployed / initialized. The `LSP4TokenName` data key is located inside the ERC725Y data key-value store of the digital asset contract. It can be set only once inside the constructor/initializer when the digital asset contract is being deployed / initialized."
        }
      ],
      "LSP4TokenSymbolNotEditable()": [
        {
          "details": "Reverts when trying to edit the data key `LSP4TokenSymbol` after the digital asset contract has been deployed / initialized. The `LSP4TokenSymbol` data key is located inside the ERC725Y data key-value store of the digital asset contract. It can be set only once inside the constructor/initializer when the digital asset contract is being deployed / initialized."
        }
      ],
      "LSP4TokenTypeNotEditable()": [
        {
          "details": "Reverts when trying to edit the data key `LSP4TokenType` after the digital asset contract has been deployed / initialized. The `LSP4TokenType` data key is located inside the ERC725Y data key-value store of the digital asset contract. It can be set only once inside the constructor / initializer when the digital asset contract is being deployed / initialized."
        }
      ],
      "LSP8BatchCallFailed(uint256)": [
        {
          "details": "Reverts when a batch call failed."
        }
      ],
      "LSP8CannotSendToAddressZero()": [
        {
          "details": "Reverts when trying to send token to the zero address."
        }
      ],
      "LSP8CannotUseAddressZeroAsOperator()": [
        {
          "details": "Reverts when trying to set the zero address as an operator."
        }
      ],
      "LSP8InvalidTransferBatch()": [
        {
          "details": "Reverts when the parameters used for `transferBatch` have different lengths."
        }
      ],
      "LSP8NonExistentTokenId(bytes32)": [
        {
          "details": "Reverts when `tokenId` has not been minted."
        }
      ],
      "LSP8NonExistingOperator(address,bytes32)": [
        {
          "details": "Reverts when `operator` is not an operator for the `tokenId`."
        }
      ],
      "LSP8NotTokenOperator(bytes32,address)": [
        {
          "details": "Reverts when `caller` is not an allowed operator for `tokenId`."
        }
      ],
      "LSP8NotTokenOwner(address,bytes32,address)": [
        {
          "details": "Reverts when `caller` is not the `tokenOwner` of the `tokenId`."
        }
      ],
      "LSP8NotifyTokenReceiverContractMissingLSP1Interface(address)": [
        {
          "details": "Reverts if the `tokenReceiver` does not implement LSP1 when minting or transferring tokens with `bool force` set as `false`."
        }
      ],
      "LSP8NotifyTokenReceiverIsEOA(address)": [
        {
          "details": "Reverts if the `tokenReceiver` is an EOA when minting or transferring tokens with `bool force` set as `false`."
        }
      ],
      "LSP8OperatorAlreadyAuthorized(address,bytes32)": [
        {
          "details": "Reverts when `operator` is already authorized for the `tokenId`."
        }
      ],
      "LSP8RevokeOperatorNotAuthorized(address,address,bytes32)": [
        {
          "details": "Reverts when the call to revoke operator is not authorized."
        }
      ],
      "LSP8TokenContractCannotHoldValue()": [
        {
          "details": "Error occurs when sending native tokens to the LSP8 contract without sending any data. E.g. Sending value without passing a bytes4 function selector to call a LSP17 Extension."
        }
      ],
      "LSP8TokenIdAlreadyMinted(bytes32)": [
        {
          "details": "Reverts when `tokenId` has already been minted."
        }
      ],
      "LSP8TokenIdFormatNotEditable()": [
        {
          "details": "Reverts when trying to edit the data key `LSP8TokenIdFormat` after the identifiable digital asset contract has been deployed. The `LSP8TokenIdFormat` data key is located inside the ERC725Y Data key-value store of the identifiable digital asset contract. It can be set only once inside the constructor/initializer when the identifiable digital asset contract is being deployed."
        }
      ],
      "LSP8TokenIdsDataEmptyArray()": [
        {
          "details": "Reverts when empty arrays is passed to the function"
        }
      ],
      "LSP8TokenIdsDataLengthMismatch()": [
        {
          "details": "Reverts when the length of the token IDs data arrays is not equal"
        }
      ],
      "LSP8TokenOwnerCannotBeOperator()": [
        {
          "details": "Reverts when trying to authorize or revoke the token's owner as an operator."
        }
      ],
      "LSP8TokenOwnerChanged(bytes32,address,address)": [
        {
          "details": "Reverts when the token owner changed inside the {_beforeTokenTransfer} hook."
        }
      ],
      "NoExtensionFoundForFunctionSelector(bytes4)": [
        {
          "details": "reverts when there is no extension for the function selector being called with"
        }
      ],
      "OwnableCannotSetZeroAddressAsOwner()": [
        {
          "details": "Reverts when trying to set `address(0)` as the contract owner when deploying the contract or initializing it."
        }
      ]
    },
    "kind": "dev",
    "methods": {
      "authorizeOperator(address,bytes32,bytes)": {
        "details": "Allow an `operator` address to transfer or burn a specific `tokenId` on behalf of its token owner. See {isOperatorFor}. Notify the operator based on the LSP1-UniversalReceiver standard",
        "params": {
          "operator": "The address to authorize as an operator.",
          "operatorNotificationData": "The data to notify the operator about via LSP1.",
          "tokenId": "The token ID operator has access to."
        }
      },
      "balanceOf(address)": {
        "details": "Get the number of token IDs owned by `tokenOwner`.",
        "params": {
          "tokenOwner": "The address to query     *"
        },
        "returns": {
          "_0": "The total number of token IDs that `tokenOwner` owns."
        }
      },
      "batchCalls(bytes[])": {
        "custom:info": "It's not possible to send value along the functions call due to the use of `delegatecall`.",
        "details": "Allows a caller to batch different function calls in one call. Perform a `delegatecall` on self, to call different functions with preserving the context.",
        "params": {
          "data": "An array of ABI encoded function calls to be called on the contract."
        },
        "returns": {
          "results": "An array of abi-encoded data returned by the functions executed."
        }
      },
      "getDataBatchForTokenIds(bytes32[],bytes32[])": {
        "params": {
          "dataKeys": "An array of data keys corresponding to the token IDs.",
          "tokenIds": "An array of token IDs."
        },
        "returns": {
          "dataValues": "An array of data values for each pair of `tokenId` and `dataKey`."
        }
      },
      "getDataForTokenId(bytes32,bytes32)": {
        "params": {
          "dataKey": "The key for the data to retrieve.",
          "tokenId": "The unique identifier for a token."
        },
        "returns": {
          "dataValue": "The data value associated with the given `tokenId` and `dataKey`."
        }
      },
      "getOperatorsOf(bytes32)": {
        "details": "Returns all `operator` addresses that are allowed to transfer or burn a specific `tokenId` on behalf of its owner.",
        "params": {
          "tokenId": "The token ID to get the operators for."
        },
        "returns": {
          "_0": "An array of operators allowed to transfer or burn a specific `tokenId`. Requirements - `tokenId` must exist."
        }
      },
      "isOperatorFor(address,bytes32)": {
        "details": "Returns whether `operator` address is an operator for a given `tokenId`.",
        "params": {
          "operator": "The address to query operator status for.",
          "tokenId": "The token ID to check if `operator` is allowed to operate on."
        },
        "returns": {
          "_0": "`true` if `operator` is an operator for `tokenId`, `false` otherwise."
        }
      },
      "owner()": {
        "details": "Returns the address of the current owner."
      },
      "renounceOwnership()": {
        "details": "Leaves the contract without owner. It will not be possible to call `onlyOwner` functions. Can only be called by the current owner. NOTE: Renouncing ownership will leave the contract without an owner, thereby disabling any functionality that is only available to the owner."
      },
      "revokeOperator(address,bytes32,bool,bytes)": {
        "details": "Remove access of `operator` for a given `tokenId`, disallowing it to transfer `tokenId` on behalf of its owner. See also {isOperatorFor}.",
        "params": {
          "notify": "Boolean indicating whether to notify the operator or not",
          "operator": "The address to revoke as an operator.",
          "operatorNotificationData": "The data to notify the operator about via LSP1.",
          "tokenId": "The tokenId `operator` is revoked from operating on."
        }
      },
      "setDataBatchForTokenIds(bytes32[],bytes32[],bytes[])": {
        "params": {
          "dataKeys": "An array of data keys corresponding to the token IDs.",
          "dataValues": "An array of values to set for the given data keys.",
          "tokenIds": "An array of token IDs."
        }
      },
      "setDataForTokenId(bytes32,bytes32,bytes)": {
        "params": {
          "dataKey": "The key for the data to set.",
          "dataValue": "The value to set for the given data key.",
          "tokenId": "The unique identifier for a token."
        }
      },
      "supportsInterface(bytes4)": {
        "details": "See {IERC165-supportsInterface}."
      },
      "tokenIdsOf(address)": {
        "details": "Returns the list of token IDs that the `tokenOwner` address owns.",
        "params": {
          "tokenOwner": "The address that we want to get the list of token IDs for."
        },
        "returns": {
          "_0": "An array of `bytes32[] tokenIds` owned by `tokenOwner`."
        }
      },
      "tokenOwnerOf(bytes32)": {
        "details": "Returns the address that owns a given `tokenId`.",
        "params": {
          "tokenId": "The token ID to query the owner for."
        },
        "returns": {
          "_0": "The owner address of the given `tokenId`."
        }
      },
      "totalSupply()": {
        "details": "Returns the number of existing tokens that have been minted in this contract.",
        "returns": {
          "_0": "The number of existing tokens."
        }
      },
      "transfer(address,address,bytes32,bool,bytes)": {
        "details": "Transfer a given `tokenId` token from the `from` address to the `to` address. If operators are set for a specific `tokenId`, all the operators are revoked after the tokenId have been transferred. The `force` parameter MUST be set to `true` when transferring tokens to Externally Owned Accounts (EOAs) or contracts that do not implement the LSP1 standard.",
        "params": {
          "data": "Any additional data the caller wants included in the emitted event, and sent in the hooks of the `from` and `to` addresses.",
          "force": "When set to `true`, the `to` address CAN be any address. When set to `false`, the `to` address MUST be a contract that supports the LSP1 UniversalReceiver standard.",
          "from": "The address that owns the given `tokenId`.",
          "to": "The address that will receive the `tokenId`.",
          "tokenId": "The token ID to transfer."
        }
      },
      "transferBatch(address[],address[],bytes32[],bool[],bytes[])": {
        "details": "Transfers multiple tokens at once based on the arrays of `from`, `to` and `tokenId`. If any transfer fails, the whole call will revert.",
        "params": {
          "data": "Any additional data the caller wants included in the emitted event, and sent in the hooks to the `from` and `to` addresses.",
          "force": "When set to `true`, `to` may be any address. When set to `false`, `to` must be a contract that supports the LSP1 standard and not revert.",
          "from": "An array of sending addresses.",
          "to": "An array of recipient addresses.",
          "tokenId": "An array of token IDs to transfer."
        }
      },
      "transferOwnership(address)": {
        "details": "Transfers ownership of the contract to a new account (`newOwner`). Can only be called by the current owner."
      }
    },
    "title": "YourLSP8Collectible",
    "version": 1
  },
  "userdoc": {
    "errors": {
      "LSP8BatchCallFailed(uint256)": [
        {
          "notice": "Batch call failed."
        }
      ],
      "LSP8TokenContractCannotHoldValue()": [
        {
          "notice": "LSP8 contract cannot receive native tokens."
        }
      ]
    },
    "events": {
      "DataChanged(bytes32,bytes)": {
        "notice": "The following data key/value pair has been changed in the ERC725Y storage: Data key: `dataKey`, data value: `dataValue`."
      }
    },
    "kind": "user",
    "methods": {
      "batchCalls(bytes[])": {
        "notice": "Executing the following batch of abi-encoded function calls on the contract: `data`."
      },
      "getDataBatchForTokenIds(bytes32[],bytes32[])": {
        "notice": "Retrieves data in batch for multiple `tokenId` and `dataKey` pairs."
      },
      "getDataForTokenId(bytes32,bytes32)": {
        "notice": "Retrieves data for a specific `tokenId` and `dataKey`."
      },
      "setDataBatchForTokenIds(bytes32[],bytes32[],bytes[])": {
        "notice": "Sets data in batch for multiple `tokenId` and `dataKey` pairs."
      },
      "setDataForTokenId(bytes32,bytes32,bytes)": {
        "notice": "Sets data for a specific `tokenId` and `dataKey`."
      }
    },
    "version": 1
  },
  "storageLayout": {
    "storage": [
      {
        "astId": 3617,
        "contract": "contracts/YourLSP8Collectible.sol:YourLSP8Collectible",
        "label": "_owner",
        "offset": 0,
        "slot": "0",
        "type": "t_address"
      },
      {
        "astId": 26,
        "contract": "contracts/YourLSP8Collectible.sol:YourLSP8Collectible",
        "label": "_store",
        "offset": 0,
        "slot": "1",
        "type": "t_mapping(t_bytes32,t_bytes_storage)"
      },
      {
        "astId": 2066,
        "contract": "contracts/YourLSP8Collectible.sol:YourLSP8Collectible",
        "label": "_existingTokens",
        "offset": 0,
        "slot": "2",
        "type": "t_uint256"
      },
      {
        "astId": 2070,
        "contract": "contracts/YourLSP8Collectible.sol:YourLSP8Collectible",
        "label": "_tokenOwners",
        "offset": 0,
        "slot": "3",
        "type": "t_mapping(t_bytes32,t_address)"
      },
      {
        "astId": 2075,
        "contract": "contracts/YourLSP8Collectible.sol:YourLSP8Collectible",
        "label": "_ownedTokens",
        "offset": 0,
        "slot": "4",
        "type": "t_mapping(t_address,t_struct(Bytes32Set)7311_storage)"
      },
      {
        "astId": 2080,
        "contract": "contracts/YourLSP8Collectible.sol:YourLSP8Collectible",
        "label": "_operators",
        "offset": 0,
        "slot": "5",
        "type": "t_mapping(t_bytes32,t_struct(AddressSet)7432_storage)"
      },
      {
        "astId": 9325,
        "contract": "contracts/YourLSP8Collectible.sol:YourLSP8Collectible",
        "label": "_tokenIds",
        "offset": 0,
        "slot": "6",
        "type": "t_uint256"
      },
      {
        "astId": 9329,
        "contract": "contracts/YourLSP8Collectible.sol:YourLSP8Collectible",
        "label": "_tokenURIs",
        "offset": 0,
        "slot": "7",
        "type": "t_mapping(t_bytes32,t_string_storage)"
      }
    ],
    "types": {
      "t_address": {
        "encoding": "inplace",
        "label": "address",
        "numberOfBytes": "20"
      },
      "t_array(t_bytes32)dyn_storage": {
        "base": "t_bytes32",
        "encoding": "dynamic_array",
        "label": "bytes32[]",
        "numberOfBytes": "32"
      },
      "t_bytes32": {
        "encoding": "inplace",
        "label": "bytes32",
        "numberOfBytes": "32"
      },
      "t_bytes_storage": {
        "encoding": "bytes",
        "label": "bytes",
        "numberOfBytes": "32"
      },
      "t_mapping(t_address,t_struct(Bytes32Set)7311_storage)": {
        "encoding": "mapping",
        "key": "t_address",
        "label": "mapping(address => struct EnumerableSet.Bytes32Set)",
        "numberOfBytes": "32",
        "value": "t_struct(Bytes32Set)7311_storage"
      },
      "t_mapping(t_bytes32,t_address)": {
        "encoding": "mapping",
        "key": "t_bytes32",
        "label": "mapping(bytes32 => address)",
        "numberOfBytes": "32",
        "value": "t_address"
      },
      "t_mapping(t_bytes32,t_bytes_storage)": {
        "encoding": "mapping",
        "key": "t_bytes32",
        "label": "mapping(bytes32 => bytes)",
        "numberOfBytes": "32",
        "value": "t_bytes_storage"
      },
      "t_mapping(t_bytes32,t_string_storage)": {
        "encoding": "mapping",
        "key": "t_bytes32",
        "label": "mapping(bytes32 => string)",
        "numberOfBytes": "32",
        "value": "t_string_storage"
      },
      "t_mapping(t_bytes32,t_struct(AddressSet)7432_storage)": {
        "encoding": "mapping",
        "key": "t_bytes32",
        "label": "mapping(bytes32 => struct EnumerableSet.AddressSet)",
        "numberOfBytes": "32",
        "value": "t_struct(AddressSet)7432_storage"
      },
      "t_mapping(t_bytes32,t_uint256)": {
        "encoding": "mapping",
        "key": "t_bytes32",
        "label": "mapping(bytes32 => uint256)",
        "numberOfBytes": "32",
        "value": "t_uint256"
      },
      "t_string_storage": {
        "encoding": "bytes",
        "label": "string",
        "numberOfBytes": "32"
      },
      "t_struct(AddressSet)7432_storage": {
        "encoding": "inplace",
        "label": "struct EnumerableSet.AddressSet",
        "members": [
          {
            "astId": 7431,
            "contract": "contracts/YourLSP8Collectible.sol:YourLSP8Collectible",
            "label": "_inner",
            "offset": 0,
            "slot": "0",
            "type": "t_struct(Set)7117_storage"
          }
        ],
        "numberOfBytes": "64"
      },
      "t_struct(Bytes32Set)7311_storage": {
        "encoding": "inplace",
        "label": "struct EnumerableSet.Bytes32Set",
        "members": [
          {
            "astId": 7310,
            "contract": "contracts/YourLSP8Collectible.sol:YourLSP8Collectible",
            "label": "_inner",
            "offset": 0,
            "slot": "0",
            "type": "t_struct(Set)7117_storage"
          }
        ],
        "numberOfBytes": "64"
      },
      "t_struct(Set)7117_storage": {
        "encoding": "inplace",
        "label": "struct EnumerableSet.Set",
        "members": [
          {
            "astId": 7112,
            "contract": "contracts/YourLSP8Collectible.sol:YourLSP8Collectible",
            "label": "_values",
            "offset": 0,
            "slot": "0",
            "type": "t_array(t_bytes32)dyn_storage"
          },
          {
            "astId": 7116,
            "contract": "contracts/YourLSP8Collectible.sol:YourLSP8Collectible",
            "label": "_indexes",
            "offset": 0,
            "slot": "1",
            "type": "t_mapping(t_bytes32,t_uint256)"
          }
        ],
        "numberOfBytes": "64"
      },
      "t_uint256": {
        "encoding": "inplace",
        "label": "uint256",
        "numberOfBytes": "32"
      }
    }
  }
}