{
  "_format": "hh-sol-artifact-1",
  "contractName": "OnChainMetadata",
  "sourceName": "contracts/standalone/LSP8LoogiesEnhanced.sol",
  "abi": [
    {
      "inputs": [
        {
          "internalType": "bytes32",
          "name": "value",
          "type": "bytes32"
        }
      ],
      "name": "bytes32ToHexString",
      "outputs": [
        {
          "internalType": "string",
          "name": "",
          "type": "string"
        }
      ],
      "stateMutability": "pure",
      "type": "function"
    },
    {
      "inputs": [],
      "name": "generateCollectionSVG",
      "outputs": [
        {
          "internalType": "string",
          "name": "svg",
          "type": "string"
        },
        {
          "internalType": "string",
          "name": "encodedSvg",
          "type": "string"
        }
      ],
      "stateMutability": "pure",
      "type": "function"
    },
    {
      "inputs": [
        {
          "internalType": "bytes32",
          "name": "tokenId",
          "type": "bytes32"
        },
        {
          "internalType": "string",
          "name": "loogieType",
          "type": "string"
        },
        {
          "internalType": "bytes3",
          "name": "colorValue",
          "type": "bytes3"
        },
        {
          "internalType": "uint256",
          "name": "chubbinessValue",
          "type": "uint256"
        },
        {
          "internalType": "uint256",
          "name": "mouthLengthValue",
          "type": "uint256"
        },
        {
          "internalType": "string",
          "name": "username",
          "type": "string"
        },
        {
          "internalType": "bool",
          "name": "isUP",
          "type": "bool"
        }
      ],
      "name": "generateLoogieSVG",
      "outputs": [
        {
          "internalType": "string",
          "name": "",
          "type": "string"
        }
      ],
      "stateMutability": "view",
      "type": "function"
    },
    {
      "inputs": [
        {
          "internalType": "uint256",
          "name": "limit",
          "type": "uint256"
        }
      ],
      "name": "getCollectionMetadataBytes",
      "outputs": [
        {
          "internalType": "bytes",
          "name": "raw",
          "type": "bytes"
        },
        {
          "internalType": "bytes",
          "name": "encoded",
          "type": "bytes"
        }
      ],
      "stateMutability": "pure",
      "type": "function"
    },
    {
      "inputs": [
        {
          "internalType": "bytes32",
          "name": "tokenId",
          "type": "bytes32"
        },
        {
          "internalType": "string",
          "name": "loogieTypeValue",
          "type": "string"
        },
        {
          "internalType": "bytes3",
          "name": "colorBytes",
          "type": "bytes3"
        },
        {
          "internalType": "uint256",
          "name": "chubbiness",
          "type": "uint256"
        },
        {
          "internalType": "uint256",
          "name": "mouthLength",
          "type": "uint256"
        },
        {
          "internalType": "string",
          "name": "username",
          "type": "string"
        },
        {
          "internalType": "bool",
          "name": "isUP",
          "type": "bool"
        }
      ],
      "name": "getMetadataBytes",
      "outputs": [
        {
          "internalType": "bytes",
          "name": "raw",
          "type": "bytes"
        },
        {
          "internalType": "bytes",
          "name": "encoded",
          "type": "bytes"
        }
      ],
      "stateMutability": "view",
      "type": "function"
    },
    {
      "inputs": [
        {
          "internalType": "bytes3",
          "name": "_color",
          "type": "bytes3"
        }
      ],
      "name": "toColorHexString",
      "outputs": [
        {
          "internalType": "string",
          "name": "",
          "type": "string"
        }
      ],
      "stateMutability": "pure",
      "type": "function"
    },
    {
      "inputs": [
        {
          "internalType": "uint256",
          "name": "_i",
          "type": "uint256"
        }
      ],
      "name": "uint2str",
      "outputs": [
        {
          "internalType": "string",
          "name": "_uintAsString",
          "type": "string"
        }
      ],
      "stateMutability": "pure",
      "type": "function"
    }
  ],
  "bytecode": "0x6080806040523461001657612a21908161001c8239f35b600080fdfe604060808152600436101561001357600080fd5b600090813560e01c80633be699f914610d9e5780637679913614610d6a5780638528247f146106055780638cda5103146101c0578063ad30ddbf1461019e578063c68b3787146100a75763f76f950e1461006c57600080fd5b346100a35760203660031901126100a35761009f9061008c600435611133565b9051918291602083526020830190610e02565b0390f35b5080fd5b50346100a3576020908160031936011261019a57600435926100c7610fb7565b938251946100d486610e59565b838652833686880137825b8581106100f85784518681528061009f8189018a610e02565b6001600160f81b031983821a81610116600483901c60ff168661103a565b51169160019184831b93858504600214861517156101865761014991600f918a1a610141878f61103a565b53168661103a565b5116908201809211610172579061016761016d9392871a918a61103a565b53611015565b6100df565b634e487b7160e01b86526011600452602486fd5b634e487b7160e01b89526011600452602489fd5b8280fd5b50346100a35761009f9061008c6101b436610f1b565b95949094939193611292565b5090346106025760209081600319360112610602575061009f6105e8926105f8603d600435946105a661027e6101f461259f565b98905061020961020382611133565b91611133565b8751998a92707b224c5350344d65746164617461223a7b60781b8785015275089b985b59488e88931d5adcdbd31bdbd9da595cc88b60521b60318501527f226465736372697074696f6e223a224c756b736f4c6f6f67696573206172652060478501527f4c554b534f205374616e64617264204c535038204e465473207769746820612060678501526d039b6b4b632901d149027b7363c960951b60878501526102bc8151809289609588019101610ddf565b83017f204c756b736f4c6f6f6769657320617661696c61626c65206f6e20612070726960958201527f636520637572766520696e6372656173696e6720302e3225207769746820656160b58201527f6368206e6577206d696e742e2054686973204d61747269782045646974696f6e60d58201527f20666561747572657320616e696d61746564204d61747269782d7374796c652060f58201527f64657369676e7320666f722065616368204c6f6f6769652e222c0000000000006101158201527f226c696e6b73223a5b7b227469746c65223a2257656273697465222c2275726c61012f8201527f223a2268747470733a2f2f6c756b736f6c6f6f676965732e76657263656c2e6161014f8201527f7070227d2c7b227469746c65223a2254776974746572222c2275726c223a226861016f8201527f747470733a2f2f747769747465722e636f6d2f6c756b736f4c6f6f676965732261018f820152621f574b60ea1b6101af8201527f22696d61676573223a5b5b7b227769647468223a3430302c22686569676874226101b28201526b1d1a181816113ab936111d1160a11b6101d2820152815190610479826101de948a8685019101610ddf565b64089f57574b60da1b9101918201526d2261747472696275746573223a5b60901b6101e38201527f7b226b6579223a2274797065222c2276616c7565223a22636f6c6c656374696f6101f1820152731b888b089d1e5c19488e889cdd1c9a5b99c89f4b60621b6102118201527f7b226b6579223a226c696d6974222c2276616c7565223a000000000000000000610225820152815161023c92909190610526908390858401908a01610ddf565b710b089d1e5c19488e889b9d5b58995c889f4b60721b9101918201527f7b226b6579223a226375727665222c2276616c7565223a3130302e322c22747961024e8201526c7065223a226e756d626572227d60981b61026e820152605d60f81b61027b820152617d7d60f01b61027c8201520361025e810189520187610e91565b6105af86612897565b845197827f646174613a6170706c69636174696f6e2f6a736f6e3b6261736536342c0000008a9485015282519283918686019101610ddf565b810103601d810187520185610e91565b5192839283610f8f565b80fd5b50346100a3576106309161063661061b36610f1b565b9399848284868e8a8c9e999c9d979b9d611292565b99611061565b87889084997a184f03e93ff9f4daa797ed6e38ed64bf6a1f0100000000000000009081811015610d5d575b50506d04ee2d6d415b85acef810000000080831015610d4e575b50662386f26fc1000080831015610d3f575b506305f5e10080831015610d30575b5061271080831015610d21575b506064821015610d11575b600a80921015610d07575b8160216106ce60018d01610fe3565b9b8c01015b60001901916f181899199a1a9b1b9c1cb0b131b232b360811b8282061a835304908b8215610703575082906106d3565b989250505061074560288851809b674c6f6f676965202360c01b60208301526107358151809260208686019101610ddf565b810103600881018c52018a610e91565b61074e81611133565b9461075884611133565b9b8115610ce857885161076a81610e27565b601f81527f2e204f776e6564206279206120556e6976657273616c2050726f66696c65210060208201529c5b8951809e8192602083019c7f54686973204d6174726978204c6f6f6769652069732074686520636f6c6f72208e528301602360f81b905287519a602089019b8c81604187016107e492610ddf565b840160418101750103bb4ba3410309031b43ab13134b732b9b99037b3160551b90528151918260578301916020019161081c92610ddf565b01605781017401030b7321036b7baba34103632b733ba341037b31605d1b905281519182606c8301916020019161085292610ddf565b0181519182606c8301916020019161086992610ddf565b0103604c81018252606c0161087d91610e91565b61088690612897565b9161089090611133565b9361089a90611133565b945015610cc55789516108ac81610e27565b60048152637472756560e01b6020820152965b8a519b8c809b602082017f7b224c5350344d65746164617461223a207b226e616d65223a2022000000000090528051603b819301916020019161090192610ddf565b8b0190711116113232b9b1b934b83a34b7b7111d101160711b603b830152519182604d830161092f92610ddf565b7f222c226c696e6b73223a205b7b227469746c65223a2257656273697465222c22604d92909101918201527f75726c223a2268747470733a2f2f6c756b736f6c6f6f676965732e7665726365606d820152721b0b985c1c089f574b089a58dbdb888e96d74b606a1b608d8201527f22696d61676573223a205b5b7b227769647468223a203430302c22686569676860a08201526f3a111d101a181816113ab936111d101160811b60c08201527f646174613a696d6167652f7376672b786d6c3b6261736536342c00000000000060d0820152815191610a1790839060ea840190602001610ddf565b019064089f57574b60da1b60ea8301526d2261747472696275746573223a5b60901b60ef83015260fd82017f7b226b6579223a22636f6c6f72222c2276616c7565223a222300000000000000905251906101169482868301610a7892610ddf565b0172088b089d1e5c19488e889cdd1c9a5b99c89f4b606a1b809482015261012981017f7b226b6579223a226368756262696e657373222c2276616c7565223a00000000905281519061014592828483019160200191610ad692610ddf565b01710b089d1e5c19488e889b9d5b58995c889f4b60721b809282015261015781017f7b226b6579223a226d6f7574684c656e677468222c2276616c7565223a000000905282519061017493828583019160200191610b3392610ddf565b019182015261018681017f7b226b6579223a22757365726e616d65222c2276616c7565223a22000000000090528251906101a193828583019160200191610b7992610ddf565b0191820152753d9135b2bc911d1134b9aaa81116113b30b63ab2911d60511b6101b48201528151906101ca92828483019160200191610bb792610ddf565b720b089d1e5c19488e88989bdbdb19585b889f4b606a1b9101918201527f7b226b6579223a2274797065222c2276616c7565223a220000000000000000006101dd82015281516101f492909190610c1690839085840190602001610ddf565b019071222c2274797065223a22737472696e67227d60701b908201526102068101625d7d7d60e81b9052036101e98101835261020901610c569083610e91565b610c5f82612897565b9080518092602082017f646174613a6170706c69636174696f6e2f6a736f6e3b6261736536342c000000905280519081603d84019160200191610ca192610ddf565b810103601d81018352603d01610cb79083610e91565b5191829161009f9183610f8f565b8951610cd081610e27565b600581526466616c736560d81b6020820152966108bf565b8851610cf381610e27565b60018152601760f91b60208201529c610796565b98600101986106bf565b98906064600291049101986106b4565b6004919a9204910198386106a9565b6008919a92049101983861069c565b6010919a92049101983861068d565b6020919a92049101983861067b565b8c9b500491503880610661565b50346100a35760203660031901126100a357600435916001600160e81b031983168303610602575061008c61009f92611061565b50346100a357816003193601126100a35761009f90610dbb61259f565b610dd18394929451948486958652850190610e02565b908382036020850152610e02565b60005b838110610df25750506000910152565b8181015183820152602001610de2565b90602091610e1b81518092818552858086019101610ddf565b601f01601f1916010190565b6040810190811067ffffffffffffffff821117610e4357604052565b634e487b7160e01b600052604160045260246000fd5b6060810190811067ffffffffffffffff821117610e4357604052565b6020810190811067ffffffffffffffff821117610e4357604052565b90601f8019910116810190811067ffffffffffffffff821117610e4357604052565b67ffffffffffffffff8111610e4357601f01601f191660200190565b81601f82011215610f1657803590610ee682610eb3565b92610ef46040519485610e91565b82845260208383010111610f1657816000926020809301838601378301015290565b600080fd5b60e0600319820112610f16576004359167ffffffffffffffff602435818111610f165783610f4b91600401610ecf565b926044356001600160e81b031981168103610f165792606435926084359260a435918211610f1657610f7f91600401610ecf565b9060c4358015158103610f165790565b9091610fa6610fb493604084526040840190610e02565b916020818403910152610e02565b90565b60405190610fc482610e27565b601082526f181899199a1a9b1b9c1cb0b131b232b360811b6020830152565b90610fed82610eb3565b610ffa6040519182610e91565b828152809261100b601f1991610eb3565b0190602036910137565b60001981146110245760010190565b634e487b7160e01b600052601160045260246000fd5b90815181101561104b570160200190565b634e487b7160e01b600052603260045260246000fd5b611069610fb7565b6040519161107683610e27565b600683526020368185013760005b600381106110925750505090565b6001600160f81b031982821a6004826110b083831c60ff168861103a565b51169260019285841b948686046002148715171561111e576110e491600f9160001a6110dc888d61103a565b53168861103a565b5116918301809311611109575090610167611104939260001a918761103a565b611084565b601190634e487b7160e01b6000525260246000fd5b601184634e487b7160e01b6000525260246000fd5b80156111ad5780816000925b611199575061114d82610fe3565b9190805b61115a57505090565b600a90603092828206840180941161102457801561102457600019019260f81b6001600160f81b03191660001a611191848661103a565b530480611151565b916111a5600a91611015565b92048061113f565b506040516111ba81610e27565b60018152600360fc1b602082015290565b604051906111d882610e27565b600582526433b932b2b760d91b6020830152565b604051906111f982610e27565b6004825263626c756560e01b6020830152565b6040519061121982610e27565b60038252621c995960ea1b6020830152565b6040519061123882610e27565b6006825265707572706c6560d01b6020830152565b6040519061125a82610e27565b600682526579656c6c6f7760d01b6020830152565b6040519061127c82610e27565b60078252660233030666630360cc1b6020830152565b94959492939185156124305781516020928381019182206112b16111cb565b8051908601200361231857505050506112c861126f565b955b60036040516020810190858252650dac2e8e4d2f60d31b6040820152602681526112f381610e59565b5190208615612311578116105b85156123035760405161131281610e27565b600781526611b3331818333360c91b6020820152905b85600902956009870481036110245761032a97888881031161102457600083156122ee57506040517f3c66696c7465722069643d226d61747269782d676c6f772220783d222d32302560208201527f2220793d222d323025222077696474683d223134302522206865696768743d22604082015265189a1812911f60d11b60608201527f3c6665476175737369616e426c757220737464446576696174696f6e3d22332260668201526f103932b9bab63a1e9131363ab911179f60811b60868201526114f960ad826113fc6096820161252e565b681e17b334b63a32b91f60b91b81527f3c6c696e6561724772616469656e742069643d226d61747269782d626722207860098201527f313d223025222079313d223025222078323d223025222079323d2231303025226029820152601f60f91b60498201527f3c73746f70206f66667365743d223025222073746f702d636f6c6f723d222330604a8201526718181c181811179f60c11b606a8201527f3c73746f70206f66667365743d2231303025222073746f702d636f6c6f723d226072820152691198181898181811179f60b11b6092820152701e17b634b732b0b923b930b234b2b73a1f60791b609c82015203608d810184520182610e91565b925b60009015612257575060405161151081610e27565b601881527f3c6720636c6173733d226d61747269782d6368617273223e0000000000000000602082015295604051996101e0808c018c811067ffffffffffffffff821117610e4357604052368c3760005b60ff9081811691600f8310156115c65761017c8c6040516020810191825260ff60f81b8560f81b1660408201526021815261159b81610e59565b51902006600a8101809111611024576115c1938f926115bb92169261258e565b5261257d565b611561565b50505091939597999b90929496989a60ff9b600f60009d8e5b16101561182e5760008e5b600860ff83161061160b575050600f61160460ff9e61257d565b9d8e6115df565b909b8c8f918f90604051602081019383855260ff60f81b60f89261017c82808a871b1694856040850152861b169760419289848201526022815261164e81610e59565b5190200697600a998a8a01809a11611024576331b430b960e11b9a60405160208101908a82528760408201528b8682015260429d8e8201526026815261169381610e59565b5190200692603084018094116110245760ff6117128161170b6118289f95826118229f60679f600590661e17ba32bc3a1f60c91b9e6464656c617960d81b6117199c86956102039d60405194602086019687526040860152840152820152602781526116fe81610e59565b519020061698169061258e565b5116611133565b9b16611133565b926040519260208401961b1685526001825261173482610e27565b7f2220636c6173733d226d61747269782d6368617222207374796c653d22616e69604051998761176e8c995180926020808d019101610ddf565b8801681e3a32bc3a103c1e9160b91b60208201528151906117988260299460208685019101610ddf565b01906411103c9e9160d91b908201528251906117bd82602e9560208785019101610ddf565b01918201526d036b0ba34b7b716b232b630bc9d160951b604e8201528251906117ef82605c9560208785019101610ddf565b019163399d911f60e11b90830152519061180f8260609586840190610ddf565b0191820152036047810184520182610e91565b9b61257d565b8e6115ea565b7f2032333522207374726f6b653d22626c61636b22207374726f6b652d7769647495969798999d507f3b206f7061636974793a20302e333b20616e696d6174696f6e3a2066616465209c50610fb49b50906118fe6118f8600b7f3c6720636c6173733d226c6f6f6769652d636f6e7461696e6572223e00000000946118f06105ab9f6118ea6024604051836118cd829551809260208086019101610ddf565b8101631e17b39f60e11b6020820152036004810184520182610e91565b9c611133565b970304611133565b95611133565b81519097906000901561223f57501561218a576119ba607d60405180937f3c7465787420783d223230302220793d223330302220636c6173733d2275736560208301527f726e616d6522207374796c653d22666f6e742d66616d696c793a2027436f6d69604083015275319029b0b7399026a993961031bab939b4bb329d911f60511b606083015261199a815180926020607686019101610ddf565b8101661e17ba32bc3a1f60c91b607682015203605d810184520182610e91565b975b661e17b232b3399f60c91b604051809e819c7f3c73766720786d6c6e733d22687474703a2f2f7777772e77332e6f72672f323060208401527f30302f737667222076696577426f783d2230203020343030203430302220776960408401527f6474683d2234303022206865696768743d22343030223e0000000000000000006060840152651e3232b3399f60d11b6077840152661e39ba3cb6329f60c91b607d8401527f40696d706f72742075726c282268747470733a2f2f666f6e74732e676f6f676c60848401527f65617069732e636f6d2f637373323f66616d696c793d436f6d69632b53616e7360a48401527f2b4d5326616d703b646973706c61793d7377617022293b00000000000000000060c48401527f2e757365726e616d65207b20666f6e742d66616d696c793a2022436f6d69632060db8401527f53616e73204d53222c20637572736976653b20666f6e742d73697a653a20313660fb8401527f70783b2066696c6c3a2077686974653b20746578742d616e63686f723a206d6961011b8401526664646c653b207d60c81b61013b8401527f2e6d61747269782d63686172207b20666f6e742d66616d696c793a206d6f6e6f6101428401526c039b830b1b29d903334b6361d1609d1b610162840152611ba981518092602061016f8097019101610ddf565b8d01918201527f337320696e66696e6974652c2066616c6c203873206c696e65617220696e666961018f820152666e6974653b207d60c81b6101af8201527f406b65796672616d65732066616465207b203025207b206f7061636974793a206101b68201527f302e323b207d20333025207b206f7061636974793a20302e393b207d203730256101d68201527f207b206f7061636974793a20302e393b207d2031303025207b206f70616369746101f68201526a793a20302e323b207d207d60a81b6102168201527f406b65796672616d65732066616c6c207b2066726f6d207b207472616e73666f6102218201527f726d3a207472616e736c61746559282d32307078293b207d20746f207b2074726102418201527f616e73666f726d3a207472616e736c61746559283432307078293b207d207d00610261820152671e17b9ba3cb6329f60c11b610280820152825190611d0f826102889560208785019101610ddf565b01918201527f3c726563742077696474683d2234303022206865696768743d2234303022206661028f8201526c34b6361e91313630b1b591179f60991b6102af820152875190611d69826102bc9a60208c85019101610ddf565b01968701526c1e339034b21e9132bcb298911f60991b6102d88701527f3c656c6c69707365207374726f6b652d77696474683d2233222072793d223239806102e58801527f2e35222072783d2232392e35222069643d227376675f31222063793d223135346103058801527f2e35222063783d223138312e3522207374726f6b653d2223303030222066696c6103258801527f222072793d2235312e383030363522207374726f6b653d2223303030222f3e0069361e9111b3333311179f60b11b92836103458a01527f3c656c6c697073652072793d22332e35222072783d22322e35222069643d227361034f8a01527f76675f33222063793d223135342e35222063783d223137332e3522207374726f61036f8a01527f6b652d77696474683d223322207374726f6b653d2223303030222066696c6c3d61038f8a01526a111198181818181811179f60a91b6103af8a01527f22207374726f6b652d77696474683d2233222063783d223230342e3522206379631e17b39f60e11b998a6103ba8201526c1e339034b21e913432b0b2111f60991b6103be8201526e1e32b63634b839b2903334b6361e9160891b6103cb820152825190611f34826103da9560208785019101610ddf565b01918201527f3d223231312e3830303635222069643d227376675f35222072783d22000000006103fa820152845190611f77826104169760208985019101610ddf565b0193840152866104358401526c1e339034b21e9132bcb299111f60991b6104398401526104468301527f2e35222072783d2232392e35222069643d227376675f32222063793d223136386104668301527f2e35222063783d223230392e3522207374726f6b653d2223303030222066696c6104868301526104a68201527f3c656c6c697073652072793d22332e35222072783d2233222069643d227376676104b08201527f5f34222063793d223136392e35222063783d2232303822207374726f6b652d776104d08201527f696474683d2233222066696c6c3d222330303030303022207374726f6b653d226104f0820152661198181811179f60c91b610510820152846105178201527f3c6720636c6173733d226d6f75746822207472616e73666f726d3d227472616e61051b820152650e6d8c2e8ca560d31b61053b8201528151906120cf826105419460208685019101610ddf565b019064161814911f60d91b908201527f3c7061746820643d224d2031333020323430205120313635203235302000000061054682015282519061211c826105639560208785019101610ddf565b01918201527f683d2233222066696c6c3d227472616e73706172656e74222f3e0000000000006105838201528161059d820152825190612166826105a19560208785019101610ddf565b0191820152651e17b9bb339f60d11b6105a58201520361058b810184520182610e91565b61223a608460405180937f3c7465787420783d223230302220793d223330302220666f6e742d66616d696c60208301527f793d22417269616c2220666f6e742d73697a653d223136222066696c6c3d222360408301527f6666666666662220746578742d616e63686f723d226d6964646c65223e000000606083015261221a815180926020607d86019101610ddf565b8101661e17ba32bc3a1f60c91b607d820152036064810184520182610e91565b6119ba565b9150506040519061224f82610e75565b8152976119bc565b610fb499919497509a7f3c6720636c6173733d226c6f6f6769652d636f6e7461696e6572223e000000007f3b206f7061636974793a20302e333b20616e696d6174696f6e3a2066616465209b6118fe6118f87f2032333522207374726f6b653d22626c61636b22207374726f6b652d77696474979a96999f6105ab9d6118f0600b92604051906122e682610e75565b81529c611133565b604051906122fb82610e75565b8152926114fb565b61230b61126f565b90611328565b1615611300565b805182206123246111ec565b80519086012003612357575050506611981831b1b33360c91b6040519161234a83610e27565b60078352820152956112ca565b8051822061236361120c565b80519086012003612389575050506611b33318181b1b60c91b6040519161234a83610e27565b8051822061239561122b565b805190860120036123bb575050506611b1b19818333360c91b6040519161234a83610e27565b5190206123c661124d565b805190840120036123ea5750660236666636330360cc1b6040519161234a83610e27565b602161241a926123fc61242a93611061565b6040519482602360f81b879485015282519283918686019101610ddf565b8101036001810184520182610e91565b956112ca565b81516020928381019182206124436111cb565b8051908601200361246957505050662361336536333560c81b6040519161234a83610e27565b805182206124756111ec565b8051908601200361249b57505050661199b11c19331b60c91b6040519161234a83610e27565b805182206124a761120c565b805190860120036124cd575050506608d9598d0d0d0d60ca1b6040519161234a83610e27565b805182206124d961122b565b805190860120036124ff57505050662361383535663760c81b6040519161234a83610e27565b51902061250a61124d565b805190840120036123ea5750662366616363313560c81b6040519161234a83610e27565b7f3c6665436f6d706f7369746520696e3d22536f7572636547726170686963222081527f696e323d22626c757222206f70657261746f723d226f766572222f3e000000006020820152603c0190565b60ff1660ff81146110245760010190565b90600f81101561104b5760051b0190565b604080517f3c73766720786d6c6e733d22687474703a2f2f7777772e77332e6f72672f323060208201527f30302f737667222077696474683d2234303022206865696768743d2234303022918101919091527f2076696577426f783d223020302034303020343030223e00000000000000000060608201527f3c726563742077696474683d2234303022206865696768743d2234303022206660778201526b34b6361e911198181811179f60a11b6097820152711e3334b63a32b91034b21e9133b637bb911f60711b60a38201527f3c6665476175737369616e426c757220737464446576696174696f6e3d22332e60b5820152711a91103932b9bab63a1e9131363ab911179f60711b60d582015290612836610113836126c260e7820161252e565b681e17b334b63a32b91f60b91b81527f3c7465787420783d223230302220793d223138302220666f6e742d66616d696c60098201527f793d22417269616c2220666f6e742d73697a653d223430222066696c6c3d222360298201527f6666662220746578742d616e63686f723d226d6964646c65222066696c74657260498201527f3d2275726c2823676c6f7729223e4c756b736f4c6f6f676965733c2f746578746069820152601f60f91b60898201527f3c7465787420783d223230302220793d223233302220666f6e742d66616d696c608a8201527f793d22417269616c2220666f6e742d73697a653d223230222066696c6c3d222360aa8201527f3066302220746578742d616e63686f723d226d6964646c65222066696c74657260ca8201527f3d2275726c2823676c6f7729223e4d61747269782045646974696f6e3c2f746560ea820152623c3a1f60e91b61010a820152651e17b9bb339f60d11b61010d8201520360f3810185520183610e91565b61283f82612897565b91612893603a60405180957f646174613a696d6167652f7376672b786d6c3b6261736536342c00000000000060208301526128838151809260208686019101610ddf565b810103601a810186520184610e91565b9190565b8051156129d757604051906128ab82610e59565b604082527f4142434445464748494a4b4c4d4e4f505152535455565758595a61626364656660208301527f6768696a6b6c6d6e6f707172737475767778797a303132333435363738392b2f60408301528051600291828201809211611024576003918290046001600160fe1b03811681036110245761292d908495941b610fe3565b936020850193829183518401906020820192835194600085525b83811061298657505050505251068060011461297357600214612968575090565b603d90600019015390565b50603d9081600019820153600119015390565b87600491999293949901918251600190603f9082828260121c16880101518453828282600c1c16880101518385015382828260061c1688010151888501531685010151898201530197929190612947565b506040516129e481610e75565b600081529056fea264697066735822122099ee386245555d1a2c1a2a6e6099d829ca03411ba3a550fd95fcce2ace7dc93264736f6c63430008140033",
  "linkReferences": {},
  "deployedLinkReferences": {}
}